{
  "address": "0xdA78a11FD57aF7be2eDD804840eA7f4c2A38801d",
  "abi": [
    {
      "inputs": [],
      "stateMutability": "nonpayable",
      "type": "constructor"
    },
    {
      "anonymous": false,
      "inputs": [
        {
          "indexed": true,
          "internalType": "bytes32",
          "name": "domainSeparator",
          "type": "bytes32"
        },
        {
          "indexed": false,
          "internalType": "bytes",
          "name": "domainValue",
          "type": "bytes"
        }
      ],
      "name": "DomainRegistered",
      "type": "event"
    },
    {
      "anonymous": false,
      "inputs": [
        {
          "indexed": true,
          "internalType": "bytes32",
          "name": "typeHash",
          "type": "bytes32"
        },
        {
          "indexed": false,
          "internalType": "string",
          "name": "typeStr",
          "type": "string"
        }
      ],
      "name": "RequestTypeRegistered",
      "type": "event"
    },
    {
      "inputs": [],
      "name": "EIP712_DOMAIN_TYPE",
      "outputs": [
        {
          "internalType": "string",
          "name": "",
          "type": "string"
        }
      ],
      "stateMutability": "view",
      "type": "function"
    },
    {
      "inputs": [],
      "name": "GENERIC_PARAMS",
      "outputs": [
        {
          "internalType": "string",
          "name": "",
          "type": "string"
        }
      ],
      "stateMutability": "view",
      "type": "function"
    },
    {
      "inputs": [
        {
          "components": [
            {
              "internalType": "address",
              "name": "from",
              "type": "address"
            },
            {
              "internalType": "address",
              "name": "to",
              "type": "address"
            },
            {
              "internalType": "uint256",
              "name": "value",
              "type": "uint256"
            },
            {
              "internalType": "uint256",
              "name": "gas",
              "type": "uint256"
            },
            {
              "internalType": "uint256",
              "name": "nonce",
              "type": "uint256"
            },
            {
              "internalType": "bytes",
              "name": "data",
              "type": "bytes"
            },
            {
              "internalType": "uint256",
              "name": "validUntil",
              "type": "uint256"
            }
          ],
          "internalType": "struct IForwarder.ForwardRequest",
          "name": "req",
          "type": "tuple"
        },
        {
          "internalType": "bytes32",
          "name": "requestTypeHash",
          "type": "bytes32"
        },
        {
          "internalType": "bytes",
          "name": "suffixData",
          "type": "bytes"
        }
      ],
      "name": "_getEncoded",
      "outputs": [
        {
          "internalType": "bytes",
          "name": "",
          "type": "bytes"
        }
      ],
      "stateMutability": "pure",
      "type": "function"
    },
    {
      "inputs": [
        {
          "internalType": "bytes32",
          "name": "",
          "type": "bytes32"
        }
      ],
      "name": "domains",
      "outputs": [
        {
          "internalType": "bool",
          "name": "",
          "type": "bool"
        }
      ],
      "stateMutability": "view",
      "type": "function"
    },
    {
      "inputs": [
        {
          "components": [
            {
              "internalType": "address",
              "name": "from",
              "type": "address"
            },
            {
              "internalType": "address",
              "name": "to",
              "type": "address"
            },
            {
              "internalType": "uint256",
              "name": "value",
              "type": "uint256"
            },
            {
              "internalType": "uint256",
              "name": "gas",
              "type": "uint256"
            },
            {
              "internalType": "uint256",
              "name": "nonce",
              "type": "uint256"
            },
            {
              "internalType": "bytes",
              "name": "data",
              "type": "bytes"
            },
            {
              "internalType": "uint256",
              "name": "validUntil",
              "type": "uint256"
            }
          ],
          "internalType": "struct IForwarder.ForwardRequest",
          "name": "req",
          "type": "tuple"
        },
        {
          "internalType": "bytes32",
          "name": "domainSeparator",
          "type": "bytes32"
        },
        {
          "internalType": "bytes32",
          "name": "requestTypeHash",
          "type": "bytes32"
        },
        {
          "internalType": "bytes",
          "name": "suffixData",
          "type": "bytes"
        },
        {
          "internalType": "bytes",
          "name": "sig",
          "type": "bytes"
        }
      ],
      "name": "execute",
      "outputs": [
        {
          "internalType": "bool",
          "name": "success",
          "type": "bool"
        },
        {
          "internalType": "bytes",
          "name": "ret",
          "type": "bytes"
        }
      ],
      "stateMutability": "payable",
      "type": "function"
    },
    {
      "inputs": [
        {
          "internalType": "address",
          "name": "from",
          "type": "address"
        }
      ],
      "name": "getNonce",
      "outputs": [
        {
          "internalType": "uint256",
          "name": "",
          "type": "uint256"
        }
      ],
      "stateMutability": "view",
      "type": "function"
    },
    {
      "inputs": [
        {
          "internalType": "string",
          "name": "name",
          "type": "string"
        },
        {
          "internalType": "string",
          "name": "version",
          "type": "string"
        }
      ],
      "name": "registerDomainSeparator",
      "outputs": [],
      "stateMutability": "nonpayable",
      "type": "function"
    },
    {
      "inputs": [
        {
          "internalType": "string",
          "name": "typeName",
          "type": "string"
        },
        {
          "internalType": "string",
          "name": "typeSuffix",
          "type": "string"
        }
      ],
      "name": "registerRequestType",
      "outputs": [],
      "stateMutability": "nonpayable",
      "type": "function"
    },
    {
      "inputs": [
        {
          "internalType": "bytes32",
          "name": "",
          "type": "bytes32"
        }
      ],
      "name": "typeHashes",
      "outputs": [
        {
          "internalType": "bool",
          "name": "",
          "type": "bool"
        }
      ],
      "stateMutability": "view",
      "type": "function"
    },
    {
      "inputs": [
        {
          "components": [
            {
              "internalType": "address",
              "name": "from",
              "type": "address"
            },
            {
              "internalType": "address",
              "name": "to",
              "type": "address"
            },
            {
              "internalType": "uint256",
              "name": "value",
              "type": "uint256"
            },
            {
              "internalType": "uint256",
              "name": "gas",
              "type": "uint256"
            },
            {
              "internalType": "uint256",
              "name": "nonce",
              "type": "uint256"
            },
            {
              "internalType": "bytes",
              "name": "data",
              "type": "bytes"
            },
            {
              "internalType": "uint256",
              "name": "validUntil",
              "type": "uint256"
            }
          ],
          "internalType": "struct IForwarder.ForwardRequest",
          "name": "req",
          "type": "tuple"
        },
        {
          "internalType": "bytes32",
          "name": "domainSeparator",
          "type": "bytes32"
        },
        {
          "internalType": "bytes32",
          "name": "requestTypeHash",
          "type": "bytes32"
        },
        {
          "internalType": "bytes",
          "name": "suffixData",
          "type": "bytes"
        },
        {
          "internalType": "bytes",
          "name": "sig",
          "type": "bytes"
        }
      ],
      "name": "verify",
      "outputs": [],
      "stateMutability": "view",
      "type": "function"
    },
    {
      "stateMutability": "payable",
      "type": "receive"
    }
  ],
  "args": [],
  "numDeployments": 1,
  "linkedData": {},
  "solcInputHash": "f8acc9ed8ffc3fa494192036880ec02d",
  "bytecode": "0x60806040523480156200001157600080fd5b5060006040518060800160405280605d81526020016200248f605d9139604051602001620000409190620001f7565b604051602081830303815290604052905062000062816200006960201b60201c565b50620002b1565b600081805190602001209050600160008083815260200190815260200160002060006101000a81548160ff021916908315150217905550807f64d6bce64323458c44643c51fe45113efc882082f7b7fd5f09f0d69d2eedb20283604051620000d291906200028d565b60405180910390a25050565b600081905092915050565b7f466f727761726452657175657374280000000000000000000000000000000000600082015250565b600062000121600f83620000de565b91506200012e82620000e9565b600f82019050919050565b600081519050919050565b60005b838110156200016457808201518184015260208101905062000147565b60008484015250505050565b60006200017d8262000139565b620001898185620000de565b93506200019b81856020860162000144565b80840191505092915050565b7f2900000000000000000000000000000000000000000000000000000000000000600082015250565b6000620001df600183620000de565b9150620001ec82620001a7565b600182019050919050565b6000620002048262000112565b915062000212828462000170565b91506200021f82620001d0565b915081905092915050565b600082825260208201905092915050565b6000601f19601f8301169050919050565b6000620002598262000139565b6200026581856200022a565b93506200027781856020860162000144565b62000282816200023b565b840191505092915050565b60006020820190508181036000830152620002a981846200024c565b905092915050565b6121ce80620002c16000396000f3fe6080604052600436106100955760003560e01c8063c3f28abd11610059578063c3f28abd14610198578063c722f177146101c3578063d9210be514610200578063e024dc7f14610229578063e2b62f2d1461025a5761009c565b8063066a310c146100a157806321fe98df146100cc5780632d0335ab146101095780639c7b459214610146578063ad9f99c71461016f5761009c565b3661009c57005b600080fd5b3480156100ad57600080fd5b506100b6610297565b6040516100c3919061105b565b60405180910390f35b3480156100d857600080fd5b506100f360048036038101906100ee91906110bd565b6102b3565b6040516101009190611105565b60405180910390f35b34801561011557600080fd5b50610130600480360381019061012b919061117e565b6102d3565b60405161013d91906111c4565b60405180910390f35b34801561015257600080fd5b5061016d60048036038101906101689190611244565b61031c565b005b34801561017b57600080fd5b506101966004803603810190610191919061133f565b610412565b005b3480156101a457600080fd5b506101ad610433565b6040516101ba919061105b565b60405180910390f35b3480156101cf57600080fd5b506101ea60048036038101906101e591906110bd565b61044f565b6040516101f79190611105565b60405180910390f35b34801561020c57600080fd5b5061022760048036038101906102229190611244565b61046f565b005b610243600480360381019061023e919061133f565b6105da565b60405161025192919061146c565b60405180910390f35b34801561026657600080fd5b50610281600480360381019061027c919061149c565b61081f565b60405161028e919061152c565b60405180910390f35b6040518060800160405280605d81526020016120ea605d913981565b60006020528060005260406000206000915054906101000a900460ff1681565b6000600260008373ffffffffffffffffffffffffffffffffffffffff1673ffffffffffffffffffffffffffffffffffffffff168152602001908152602001600020549050919050565b600046905060006040518060800160405280605281526020016121476052913980519060200120868660405161035392919061158d565b6040518091039020858560405161036b92919061158d565b604051809103902084306040516020016103899594939291906115c4565b6040516020818303038152906040529050600081805190602001209050600180600083815260200190815260200160002060006101000a81548160ff021916908315150217905550807f4bc68689cbe89a4a6333a3ab0a70093874da3e5bfb71e93102027f3f073687d883604051610401919061152c565b60405180910390a250505050505050565b61041b876108e2565b61042a8787878787878761097c565b50505050505050565b6040518060800160405280605281526020016121476052913981565b60016020528060005260406000206000915054906101000a900460ff1681565b60005b8484905081101561058557600085858381811061049257610491611617565b5b9050013560f81c60f81b90507f2800000000000000000000000000000000000000000000000000000000000000817effffffffffffffffffffffffffffffffffffffffffffffffffffffffffffff19161415801561053257507f2900000000000000000000000000000000000000000000000000000000000000817effffffffffffffffffffffffffffffffffffffffffffffffffffffffffffff191614155b610571576040517f08c379a000000000000000000000000000000000000000000000000000000000815260040161056890611692565b60405180910390fd5b50808061057d906116e1565b915050610472565b50600084846040518060800160405280605d81526020016120ea605d913985856040516020016105b9959493929190611822565b60405160208183030381529060405290506105d381610b5a565b5050505050565b600060606105ed8989898989898961097c565b6105f689610bcd565b60008960c00135148061060c5750438960c00135115b61064b576040517f08c379a0000000000000000000000000000000000000000000000000000000008152600401610642906118b9565b60405180910390fd5b6000808a604001351461065e57619c4090505b60008a8060a0019061067091906118e8565b8c6000016020810190610683919061117e565b60405160200161069593929190611993565b6040516020818303038152906040529050818b606001356106b691906119bd565b6040603f5a6106c591906119f1565b6106cf9190611a62565b1015610710576040517f08c379a000000000000000000000000000000000000000000000000000000000815260040161070790611adf565b60405180910390fd5b8a6020016020810190610723919061117e565b73ffffffffffffffffffffffffffffffffffffffff168b606001358c60400135836040516107519190611b30565b600060405180830381858888f193505050503d806000811461078f576040519150601f19603f3d011682016040523d82523d6000602084013e610794565b606091505b50809450819550505060008b60400135141580156107b25750600047115b15610811578a60000160208101906107ca919061117e565b73ffffffffffffffffffffffffffffffffffffffff166108fc479081150290604051600060405180830381858888f1935050505015801561080f573d6000803e3d6000fd5b505b505097509795505050505050565b606083856000016020810190610835919061117e565b73ffffffffffffffffffffffffffffffffffffffff1686602001602081019061085e919061117e565b73ffffffffffffffffffffffffffffffffffffffff168760400135886060013589608001358a8060a0019061089391906118e8565b6040516108a192919061158d565b60405180910390208b60c001358a8a6040516020016108c99a99989796959493929190611b89565b6040516020818303038152906040529050949350505050565b8060800135600260008360000160208101906108fe919061117e565b73ffffffffffffffffffffffffffffffffffffffff1673ffffffffffffffffffffffffffffffffffffffff1681526020019081526020016000205414610979576040517f08c379a000000000000000000000000000000000000000000000000000000000815260040161097090611c76565b60405180910390fd5b50565b6001600087815260200190815260200160002060009054906101000a900460ff166109dc576040517f08c379a00000000000000000000000000000000000000000000000000000000081526004016109d390611ce2565b60405180910390fd5b60008086815260200190815260200160002060009054906101000a900460ff16610a3b576040517f08c379a0000000000000000000000000000000000000000000000000000000008152600401610a3290611d4e565b60405180910390fd5b600086610a4a8988888861081f565b80519060200120604051602001610a62929190611dba565b604051602081830303815290604052805190602001209050876000016020810190610a8d919061117e565b73ffffffffffffffffffffffffffffffffffffffff16610afa84848080601f016020809104026020016040519081016040528093929190818152602001838380828437600081840152601f19601f8201169050808301925050505050505083610c7b90919063ffffffff16565b73ffffffffffffffffffffffffffffffffffffffff1614610b50576040517f08c379a0000000000000000000000000000000000000000000000000000000008152600401610b4790611e3d565b60405180910390fd5b5050505050505050565b600081805190602001209050600160008083815260200190815260200160002060006101000a81548160ff021916908315150217905550807f64d6bce64323458c44643c51fe45113efc882082f7b7fd5f09f0d69d2eedb20283604051610bc1919061105b565b60405180910390a25050565b806080013560026000836000016020810190610be9919061117e565b73ffffffffffffffffffffffffffffffffffffffff1673ffffffffffffffffffffffffffffffffffffffff1681526020019081526020016000206000815480929190610c34906116e1565b9190505514610c78576040517f08c379a0000000000000000000000000000000000000000000000000000000008152600401610c6f90611c76565b60405180910390fd5b50565b6000806000610c8a8585610ca2565b91509150610c9781610cf3565b819250505092915050565b6000806041835103610ce35760008060006020860151925060408601519150606086015160001a9050610cd787828585610ebf565b94509450505050610cec565b60006002915091505b9250929050565b60006004811115610d0757610d06611e5d565b5b816004811115610d1a57610d19611e5d565b5b0315610ebc5760016004811115610d3457610d33611e5d565b5b816004811115610d4757610d46611e5d565b5b03610d87576040517f08c379a0000000000000000000000000000000000000000000000000000000008152600401610d7e90611ed8565b60405180910390fd5b60026004811115610d9b57610d9a611e5d565b5b816004811115610dae57610dad611e5d565b5b03610dee576040517f08c379a0000000000000000000000000000000000000000000000000000000008152600401610de590611f44565b60405180910390fd5b60036004811115610e0257610e01611e5d565b5b816004811115610e1557610e14611e5d565b5b03610e55576040517f08c379a0000000000000000000000000000000000000000000000000000000008152600401610e4c90611fd6565b60405180910390fd5b600480811115610e6857610e67611e5d565b5b816004811115610e7b57610e7a611e5d565b5b03610ebb576040517f08c379a0000000000000000000000000000000000000000000000000000000008152600401610eb290612068565b60405180910390fd5b5b50565b6000807f7fffffffffffffffffffffffffffffff5d576e7357a4501ddfe92f46681b20a08360001c1115610efa576000600391509150610fc2565b601b8560ff1614158015610f125750601c8560ff1614155b15610f24576000600491509150610fc2565b600060018787878760405160008152602001604052604051610f4994939291906120a4565b6020604051602081039080840390855afa158015610f6b573d6000803e3d6000fd5b505050602060405103519050600073ffffffffffffffffffffffffffffffffffffffff168173ffffffffffffffffffffffffffffffffffffffff1603610fb957600060019250925050610fc2565b80600092509250505b94509492505050565b600081519050919050565b600082825260208201905092915050565b60005b83811015611005578082015181840152602081019050610fea565b60008484015250505050565b6000601f19601f8301169050919050565b600061102d82610fcb565b6110378185610fd6565b9350611047818560208601610fe7565b61105081611011565b840191505092915050565b600060208201905081810360008301526110758184611022565b905092915050565b600080fd5b600080fd5b6000819050919050565b61109a81611087565b81146110a557600080fd5b50565b6000813590506110b781611091565b92915050565b6000602082840312156110d3576110d261107d565b5b60006110e1848285016110a8565b91505092915050565b60008115159050919050565b6110ff816110ea565b82525050565b600060208201905061111a60008301846110f6565b92915050565b600073ffffffffffffffffffffffffffffffffffffffff82169050919050565b600061114b82611120565b9050919050565b61115b81611140565b811461116657600080fd5b50565b60008135905061117881611152565b92915050565b6000602082840312156111945761119361107d565b5b60006111a284828501611169565b91505092915050565b6000819050919050565b6111be816111ab565b82525050565b60006020820190506111d960008301846111b5565b92915050565b600080fd5b600080fd5b600080fd5b60008083601f840112611204576112036111df565b5b8235905067ffffffffffffffff811115611221576112206111e4565b5b60208301915083600182028301111561123d5761123c6111e9565b5b9250929050565b6000806000806040858703121561125e5761125d61107d565b5b600085013567ffffffffffffffff81111561127c5761127b611082565b5b611288878288016111ee565b9450945050602085013567ffffffffffffffff8111156112ab576112aa611082565b5b6112b7878288016111ee565b925092505092959194509250565b600080fd5b600060e082840312156112e0576112df6112c5565b5b81905092915050565b60008083601f8401126112ff576112fe6111df565b5b8235905067ffffffffffffffff81111561131c5761131b6111e4565b5b602083019150836001820283011115611338576113376111e9565b5b9250929050565b600080600080600080600060a0888a03121561135e5761135d61107d565b5b600088013567ffffffffffffffff81111561137c5761137b611082565b5b6113888a828b016112ca565b97505060206113998a828b016110a8565b96505060406113aa8a828b016110a8565b955050606088013567ffffffffffffffff8111156113cb576113ca611082565b5b6113d78a828b016112e9565b9450945050608088013567ffffffffffffffff8111156113fa576113f9611082565b5b6114068a828b016112e9565b925092505092959891949750929550565b600081519050919050565b600082825260208201905092915050565b600061143e82611417565b6114488185611422565b9350611458818560208601610fe7565b61146181611011565b840191505092915050565b600060408201905061148160008301856110f6565b81810360208301526114938184611433565b90509392505050565b600080600080606085870312156114b6576114b561107d565b5b600085013567ffffffffffffffff8111156114d4576114d3611082565b5b6114e0878288016112ca565b94505060206114f1878288016110a8565b935050604085013567ffffffffffffffff81111561151257611511611082565b5b61151e878288016112e9565b925092505092959194509250565b600060208201905081810360008301526115468184611433565b905092915050565b600081905092915050565b82818337600083830152505050565b6000611574838561154e565b9350611581838584611559565b82840190509392505050565b600061159a828486611568565b91508190509392505050565b6115af81611087565b82525050565b6115be81611140565b82525050565b600060a0820190506115d960008301886115a6565b6115e660208301876115a6565b6115f360408301866115a6565b61160060608301856111b5565b61160d60808301846115b5565b9695505050505050565b7f4e487b7100000000000000000000000000000000000000000000000000000000600052603260045260246000fd5b7f4657443a20696e76616c696420747970656e616d650000000000000000000000600082015250565b600061167c601583610fd6565b915061168782611646565b602082019050919050565b600060208201905081810360008301526116ab8161166f565b9050919050565b7f4e487b7100000000000000000000000000000000000000000000000000000000600052601160045260246000fd5b60006116ec826111ab565b91507fffffffffffffffffffffffffffffffffffffffffffffffffffffffffffffffff820361171e5761171d6116b2565b5b600182019050919050565b600081905092915050565b60006117408385611729565b935061174d838584611559565b82840190509392505050565b7f2800000000000000000000000000000000000000000000000000000000000000600082015250565b600061178f600183611729565b915061179a82611759565b600182019050919050565b60006117b082610fcb565b6117ba8185611729565b93506117ca818560208601610fe7565b80840191505092915050565b7f2c00000000000000000000000000000000000000000000000000000000000000600082015250565b600061180c600183611729565b9150611817826117d6565b600182019050919050565b600061182f828789611734565b915061183a82611782565b915061184682866117a5565b9150611851826117ff565b915061185e828486611734565b91508190509695505050505050565b7f4657443a20726571756573742065787069726564000000000000000000000000600082015250565b60006118a3601483610fd6565b91506118ae8261186d565b602082019050919050565b600060208201905081810360008301526118d281611896565b9050919050565b600080fd5b600080fd5b600080fd5b60008083356001602003843603038112611905576119046118d9565b5b80840192508235915067ffffffffffffffff821115611927576119266118de565b5b602083019250600182023603831315611943576119426118e3565b5b509250929050565b60008160601b9050919050565b60006119638261194b565b9050919050565b600061197582611958565b9050919050565b61198d61198882611140565b61196a565b82525050565b60006119a0828587611568565b91506119ac828461197c565b601482019150819050949350505050565b60006119c8826111ab565b91506119d3836111ab565b92508282019050808211156119eb576119ea6116b2565b5b92915050565b60006119fc826111ab565b9150611a07836111ab565b9250828202611a15816111ab565b91508282048414831517611a2c57611a2b6116b2565b5b5092915050565b7f4e487b7100000000000000000000000000000000000000000000000000000000600052601260045260246000fd5b6000611a6d826111ab565b9150611a78836111ab565b925082611a8857611a87611a33565b5b828204905092915050565b7f4657443a20696e73756666696369656e74206761730000000000000000000000600082015250565b6000611ac9601583610fd6565b9150611ad482611a93565b602082019050919050565b60006020820190508181036000830152611af881611abc565b9050919050565b6000611b0a82611417565b611b14818561154e565b9350611b24818560208601610fe7565b80840191505092915050565b6000611b3c8284611aff565b915081905092915050565b6000819050919050565b611b62611b5d82611087565b611b47565b82525050565b6000819050919050565b611b83611b7e826111ab565b611b68565b82525050565b6000611b95828d611b51565b602082019150611ba5828c611b72565b602082019150611bb5828b611b72565b602082019150611bc5828a611b72565b602082019150611bd58289611b72565b602082019150611be58288611b72565b602082019150611bf58287611b51565b602082019150611c058286611b72565b602082019150611c16828486611568565b91508190509b9a5050505050505050505050565b7f4657443a206e6f6e6365206d69736d6174636800000000000000000000000000600082015250565b6000611c60601383610fd6565b9150611c6b82611c2a565b602082019050919050565b60006020820190508181036000830152611c8f81611c53565b9050919050565b7f4657443a20756e7265676973746572656420646f6d61696e207365702e000000600082015250565b6000611ccc601d83610fd6565b9150611cd782611c96565b602082019050919050565b60006020820190508181036000830152611cfb81611cbf565b9050919050565b7f4657443a20756e72656769737465726564207479706568617368000000000000600082015250565b6000611d38601a83610fd6565b9150611d4382611d02565b602082019050919050565b60006020820190508181036000830152611d6781611d2b565b9050919050565b7f1901000000000000000000000000000000000000000000000000000000000000600082015250565b6000611da4600283611729565b9150611daf82611d6e565b600282019050919050565b6000611dc582611d97565b9150611dd18285611b51565b602082019150611de18284611b51565b6020820191508190509392505050565b7f4657443a207369676e6174757265206d69736d61746368000000000000000000600082015250565b6000611e27601783610fd6565b9150611e3282611df1565b602082019050919050565b60006020820190508181036000830152611e5681611e1a565b9050919050565b7f4e487b7100000000000000000000000000000000000000000000000000000000600052602160045260246000fd5b7f45434453413a20696e76616c6964207369676e61747572650000000000000000600082015250565b6000611ec2601883610fd6565b9150611ecd82611e8c565b602082019050919050565b60006020820190508181036000830152611ef181611eb5565b9050919050565b7f45434453413a20696e76616c6964207369676e6174757265206c656e67746800600082015250565b6000611f2e601f83610fd6565b9150611f3982611ef8565b602082019050919050565b60006020820190508181036000830152611f5d81611f21565b9050919050565b7f45434453413a20696e76616c6964207369676e6174757265202773272076616c60008201527f7565000000000000000000000000000000000000000000000000000000000000602082015250565b6000611fc0602283610fd6565b9150611fcb82611f64565b604082019050919050565b60006020820190508181036000830152611fef81611fb3565b9050919050565b7f45434453413a20696e76616c6964207369676e6174757265202776272076616c60008201527f7565000000000000000000000000000000000000000000000000000000000000602082015250565b6000612052602283610fd6565b915061205d82611ff6565b604082019050919050565b6000602082019050818103600083015261208181612045565b9050919050565b600060ff82169050919050565b61209e81612088565b82525050565b60006080820190506120b960008301876115a6565b6120c66020830186612095565b6120d360408301856115a6565b6120e060608301846115a6565b9594505050505056fe616464726573732066726f6d2c6164647265737320746f2c75696e743235362076616c75652c75696e74323536206761732c75696e74323536206e6f6e63652c627974657320646174612c75696e743235362076616c6964556e74696c454950373132446f6d61696e28737472696e67206e616d652c737472696e672076657273696f6e2c75696e7432353620636861696e49642c6164647265737320766572696679696e67436f6e747261637429a264697066735822122064e05e9d8f0da3e36ead507764e2280f94e05ddd460ca5b2fb2933534d44848264736f6c63430008110033616464726573732066726f6d2c6164647265737320746f2c75696e743235362076616c75652c75696e74323536206761732c75696e74323536206e6f6e63652c627974657320646174612c75696e743235362076616c6964556e74696c",
  "execute": {
    "methodName": "registerDomainSeparator",
    "args": [
      "ClubhouseForwarder",
      "1.0.0"
    ]
  },
  "history": [],
  "devdoc": {
    "kind": "dev",
    "methods": {
      "registerDomainSeparator(string,string)": {
        "params": {
          "name": "the domain's display name",
          "version": "the domain/protocol version"
        }
      },
      "registerRequestType(string,string)": {
        "params": {
          "typeName": "- the name of the request type.",
          "typeSuffix": "- any extra data after the generic params.  (must add at least one param. The generic ForwardRequest type is always registered by the constructor)"
        }
      }
    },
    "version": 1
  },
  "userdoc": {
    "kind": "user",
    "methods": {
      "registerDomainSeparator(string,string)": {
        "notice": "Register a new domain separator. The domain separator must have the following fields: name,version,chainId, verifyingContract. the chainId is the current network's chainId, and the verifyingContract is this forwarder. This method is given the domain name and version to create and register the domain separator value."
      },
      "registerRequestType(string,string)": {
        "notice": "Register a new Request typehash."
      }
    },
    "version": 1
  },
  "storageLayout": {
    "storage": [
      {
        "astId": 120,
        "contract": "@opengsn/contracts/src/forwarder/Forwarder.sol:Forwarder",
        "label": "typeHashes",
        "offset": 0,
        "slot": "0",
        "type": "t_mapping(t_bytes32,t_bool)"
      },
      {
        "astId": 124,
        "contract": "@opengsn/contracts/src/forwarder/Forwarder.sol:Forwarder",
        "label": "domains",
        "offset": 0,
        "slot": "1",
        "type": "t_mapping(t_bytes32,t_bool)"
      },
      {
        "astId": 128,
        "contract": "@opengsn/contracts/src/forwarder/Forwarder.sol:Forwarder",
        "label": "nonces",
        "offset": 0,
        "slot": "2",
        "type": "t_mapping(t_address,t_uint256)"
      }
    ],
    "types": {
      "t_address": {
        "encoding": "inplace",
        "label": "address",
        "numberOfBytes": "20"
      },
      "t_bool": {
        "encoding": "inplace",
        "label": "bool",
        "numberOfBytes": "1"
      },
      "t_bytes32": {
        "encoding": "inplace",
        "label": "bytes32",
        "numberOfBytes": "32"
      },
      "t_mapping(t_address,t_uint256)": {
        "encoding": "mapping",
        "key": "t_address",
        "label": "mapping(address => uint256)",
        "numberOfBytes": "32",
        "value": "t_uint256"
      },
      "t_mapping(t_bytes32,t_bool)": {
        "encoding": "mapping",
        "key": "t_bytes32",
        "label": "mapping(bytes32 => bool)",
        "numberOfBytes": "32",
        "value": "t_bool"
      },
      "t_uint256": {
        "encoding": "inplace",
        "label": "uint256",
        "numberOfBytes": "32"
      }
    }
  }
}