{
  "address": "0x79f78471b04BF5Ced679a6f4bC417011551D5c78",
  "abi": [
    {
      "inputs": [
        {
          "internalType": "address",
          "name": "_initBlueprint",
          "type": "address"
        },
        {
          "internalType": "address",
          "name": "beaconOwner",
          "type": "address"
        }
      ],
      "stateMutability": "nonpayable",
      "type": "constructor"
    },
    {
      "inputs": [
        {
          "internalType": "address",
          "name": "owner",
          "type": "address"
        }
      ],
      "name": "RenounceOwnership",
      "type": "error"
    },
    {
      "anonymous": false,
      "inputs": [
        {
          "indexed": false,
          "internalType": "address",
          "name": "proxyAddress",
          "type": "address"
        },
        {
          "indexed": false,
          "internalType": "string",
          "name": "name",
          "type": "string"
        },
        {
          "indexed": false,
          "internalType": "string",
          "name": "symbol",
          "type": "string"
        },
        {
          "indexed": false,
          "internalType": "address",
          "name": "trustedForwarder",
          "type": "address"
        }
      ],
      "name": "MembershipERC721ProxyCreated",
      "type": "event"
    },
    {
      "anonymous": false,
      "inputs": [
        {
          "indexed": true,
          "internalType": "address",
          "name": "previousOwner",
          "type": "address"
        },
        {
          "indexed": true,
          "internalType": "address",
          "name": "newOwner",
          "type": "address"
        }
      ],
      "name": "OwnershipTransferred",
      "type": "event"
    },
    {
      "inputs": [
        {
          "internalType": "string",
          "name": "_name",
          "type": "string"
        },
        {
          "internalType": "string",
          "name": "_symbol",
          "type": "string"
        },
        {
          "internalType": "address",
          "name": "_trustedForwarder",
          "type": "address"
        }
      ],
      "name": "buildMembershipERC721Proxy",
      "outputs": [],
      "stateMutability": "nonpayable",
      "type": "function"
    },
    {
      "inputs": [],
      "name": "getBeacon",
      "outputs": [
        {
          "internalType": "address",
          "name": "",
          "type": "address"
        }
      ],
      "stateMutability": "view",
      "type": "function"
    },
    {
      "inputs": [],
      "name": "getImplementation",
      "outputs": [
        {
          "internalType": "address",
          "name": "",
          "type": "address"
        }
      ],
      "stateMutability": "view",
      "type": "function"
    },
    {
      "inputs": [],
      "name": "owner",
      "outputs": [
        {
          "internalType": "address",
          "name": "",
          "type": "address"
        }
      ],
      "stateMutability": "view",
      "type": "function"
    },
    {
      "inputs": [
        {
          "internalType": "address",
          "name": "proxyAddress",
          "type": "address"
        }
      ],
      "name": "proxyWasCreatedByFactory",
      "outputs": [
        {
          "internalType": "bool",
          "name": "",
          "type": "bool"
        }
      ],
      "stateMutability": "view",
      "type": "function"
    },
    {
      "inputs": [],
      "name": "renounceOwnership",
      "outputs": [],
      "stateMutability": "view",
      "type": "function"
    },
    {
      "inputs": [
        {
          "internalType": "address",
          "name": "newOwner",
          "type": "address"
        }
      ],
      "name": "transferOwnership",
      "outputs": [],
      "stateMutability": "nonpayable",
      "type": "function"
    }
  ],
  "transactionHash": "0x7708088a4fc8c05f0bf18d73a8b74b1f17f9d3c834d92318e46f00204b3b7c40",
  "args": [
    "0x7453e8C0E5642B92Cd8b9F79BF30BD84334F965E",
    "0x515b30b360721c1349aa16d657cff26031ae735a"
  ],
  "numDeployments": 1,
  "linkedData": {},
  "solcInputHash": "0624162df10ab37ff4b1aabdc869513f",
  "bytecode": "0x60a06040523480156200001157600080fd5b5060405162002a2938038062002a29833981810160405281019062000037919062000284565b620000576200004b6200014060201b60201c565b6200014860201b60201c565b60008260405162000068906200020c565b620000749190620002dc565b604051809103906000f08015801562000091573d6000803e3d6000fd5b5090508073ffffffffffffffffffffffffffffffffffffffff1663f2fde38b836040518263ffffffff1660e01b8152600401620000cf9190620002dc565b600060405180830381600087803b158015620000ea57600080fd5b505af1158015620000ff573d6000803e3d6000fd5b505050508073ffffffffffffffffffffffffffffffffffffffff1660808173ffffffffffffffffffffffffffffffffffffffff1681525050505050620002f9565b600033905090565b60008060009054906101000a900473ffffffffffffffffffffffffffffffffffffffff169050816000806101000a81548173ffffffffffffffffffffffffffffffffffffffff021916908373ffffffffffffffffffffffffffffffffffffffff1602179055508173ffffffffffffffffffffffffffffffffffffffff168173ffffffffffffffffffffffffffffffffffffffff167f8be0079c531659141344cd1fd0a4f28419497f9722a3daafe3b4186f6b6457e060405160405180910390a35050565b610a6c8062001fbd83390190565b600080fd5b600073ffffffffffffffffffffffffffffffffffffffff82169050919050565b60006200024c826200021f565b9050919050565b6200025e816200023f565b81146200026a57600080fd5b50565b6000815190506200027e8162000253565b92915050565b600080604083850312156200029e576200029d6200021a565b5b6000620002ae858286016200026d565b9250506020620002c1858286016200026d565b9150509250929050565b620002d6816200023f565b82525050565b6000602082019050620002f36000830184620002cb565b92915050565b608051611c9a62000323600039600081816101790152818161025301526104700152611c9a6000f3fe60806040523480156200001157600080fd5b5060043610620000885760003560e01c806371ddf4de116200006357806371ddf4de14620000f15780638da5cb5b1462000111578063aaf10f421462000133578063f2fde38b14620001555762000088565b80632d6b3a6b146200008d5780632ed7b57a14620000af578063715018a614620000e5575b600080fd5b6200009762000175565b604051620000a6919062000733565b60405180910390f35b620000cd6004803603810190620000c7919062000795565b6200019d565b604051620000dc9190620007e4565b60405180910390f35b620000ef620001f3565b005b6200010f600480360381019062000109919062000963565b62000245565b005b6200011b62000443565b6040516200012a919062000733565b60405180910390f35b6200013d6200046c565b6040516200014c919062000733565b60405180910390f35b6200017360048036038101906200016d919062000795565b62000505565b005b60007f0000000000000000000000000000000000000000000000000000000000000000905090565b6000600160008373ffffffffffffffffffffffffffffffffffffffff1673ffffffffffffffffffffffffffffffffffffffff16815260200190815260200160002060009054906101000a900460ff169050919050565b620001fd6200058f565b6200020762000443565b6040517f78051f4d0000000000000000000000000000000000000000000000000000000081526004016200023c919062000733565b60405180910390fd5b6200024f6200058f565b60007f0000000000000000000000000000000000000000000000000000000000000000631c2d0e7160e01b858585604051602401620002919392919062000a86565b604051602081830303815290604052907bffffffffffffffffffffffffffffffffffffffffffffffffffffffff19166020820180517bffffffffffffffffffffffffffffffffffffffffffffffffffffffff8381831617835250505050604051620002fc90620006e0565b6200030992919062000b2e565b604051809103906000f08015801562000326573d6000803e3d6000fd5b50905060008190508073ffffffffffffffffffffffffffffffffffffffff1663f2fde38b6200035462000614565b6040518263ffffffff1660e01b815260040162000372919062000733565b600060405180830381600087803b1580156200038d57600080fd5b505af1158015620003a2573d6000803e3d6000fd5b5050505060018060008373ffffffffffffffffffffffffffffffffffffffff1673ffffffffffffffffffffffffffffffffffffffff16815260200190815260200160002060006101000a81548160ff0219169083151502179055507ff86ea44c1699f785e89ab721274278fd729d76f7fd33a07ca9f944cdd2519ba28186868660405162000434949392919062000b62565b60405180910390a15050505050565b60008060009054906101000a900473ffffffffffffffffffffffffffffffffffffffff16905090565b60007f000000000000000000000000000000000000000000000000000000000000000073ffffffffffffffffffffffffffffffffffffffff16635c60da1b6040518163ffffffff1660e01b8152600401602060405180830381865afa158015620004da573d6000803e3d6000fd5b505050506040513d601f19601f8201168201806040525081019062000500919062000bd4565b905090565b6200050f6200058f565b600073ffffffffffffffffffffffffffffffffffffffff168173ffffffffffffffffffffffffffffffffffffffff160362000581576040517f08c379a0000000000000000000000000000000000000000000000000000000008152600401620005789062000c7c565b60405180910390fd5b6200058c816200061c565b50565b6200059962000614565b73ffffffffffffffffffffffffffffffffffffffff16620005b962000443565b73ffffffffffffffffffffffffffffffffffffffff161462000612576040517f08c379a0000000000000000000000000000000000000000000000000000000008152600401620006099062000cee565b60405180910390fd5b565b600033905090565b60008060009054906101000a900473ffffffffffffffffffffffffffffffffffffffff169050816000806101000a81548173ffffffffffffffffffffffffffffffffffffffff021916908373ffffffffffffffffffffffffffffffffffffffff1602179055508173ffffffffffffffffffffffffffffffffffffffff168173ffffffffffffffffffffffffffffffffffffffff167f8be0079c531659141344cd1fd0a4f28419497f9722a3daafe3b4186f6b6457e060405160405180910390a35050565b610f548062000d1183390190565b600073ffffffffffffffffffffffffffffffffffffffff82169050919050565b60006200071b82620006ee565b9050919050565b6200072d816200070e565b82525050565b60006020820190506200074a600083018462000722565b92915050565b6000604051905090565b600080fd5b600080fd5b6200076f816200070e565b81146200077b57600080fd5b50565b6000813590506200078f8162000764565b92915050565b600060208284031215620007ae57620007ad6200075a565b5b6000620007be848285016200077e565b91505092915050565b60008115159050919050565b620007de81620007c7565b82525050565b6000602082019050620007fb6000830184620007d3565b92915050565b600080fd5b600080fd5b6000601f19601f8301169050919050565b7f4e487b7100000000000000000000000000000000000000000000000000000000600052604160045260246000fd5b62000856826200080b565b810181811067ffffffffffffffff821117156200087857620008776200081c565b5b80604052505050565b60006200088d62000750565b90506200089b82826200084b565b919050565b600067ffffffffffffffff821115620008be57620008bd6200081c565b5b620008c9826200080b565b9050602081019050919050565b82818337600083830152505050565b6000620008fc620008f684620008a0565b62000881565b9050828152602081018484840111156200091b576200091a62000806565b5b62000928848285620008d6565b509392505050565b600082601f83011262000948576200094762000801565b5b81356200095a848260208601620008e5565b91505092915050565b6000806000606084860312156200097f576200097e6200075a565b5b600084013567ffffffffffffffff811115620009a0576200099f6200075f565b5b620009ae8682870162000930565b935050602084013567ffffffffffffffff811115620009d257620009d16200075f565b5b620009e08682870162000930565b9250506040620009f3868287016200077e565b9150509250925092565b600081519050919050565b600082825260208201905092915050565b60005b8381101562000a3957808201518184015260208101905062000a1c565b60008484015250505050565b600062000a5282620009fd565b62000a5e818562000a08565b935062000a7081856020860162000a19565b62000a7b816200080b565b840191505092915050565b6000606082019050818103600083015262000aa2818662000a45565b9050818103602083015262000ab8818562000a45565b905062000ac9604083018462000722565b949350505050565b600081519050919050565b600082825260208201905092915050565b600062000afa8262000ad1565b62000b06818562000adc565b935062000b1881856020860162000a19565b62000b23816200080b565b840191505092915050565b600060408201905062000b45600083018562000722565b818103602083015262000b59818462000aed565b90509392505050565b600060808201905062000b79600083018762000722565b818103602083015262000b8d818662000a45565b9050818103604083015262000ba3818562000a45565b905062000bb4606083018462000722565b95945050505050565b60008151905062000bce8162000764565b92915050565b60006020828403121562000bed5762000bec6200075a565b5b600062000bfd8482850162000bbd565b91505092915050565b7f4f776e61626c653a206e6577206f776e657220697320746865207a65726f206160008201527f6464726573730000000000000000000000000000000000000000000000000000602082015250565b600062000c6460268362000a08565b915062000c718262000c06565b604082019050919050565b6000602082019050818103600083015262000c978162000c55565b9050919050565b7f4f776e61626c653a2063616c6c6572206973206e6f7420746865206f776e6572600082015250565b600062000cd660208362000a08565b915062000ce38262000c9e565b602082019050919050565b6000602082019050818103600083015262000d098162000cc7565b905091905056fe608060405260405162000f5438038062000f54833981810160405281019062000029919062000686565b6200003d828260006200004560201b60201c565b5050620009cd565b62000056836200013c60201b60201c565b8273ffffffffffffffffffffffffffffffffffffffff167f1cf3b03a6cf19fa2baba4df148e9dcabedea7f8a5c07840e207e5c089be95d3e60405160405180910390a2600082511180620000a75750805b156200013757620001358373ffffffffffffffffffffffffffffffffffffffff16635c60da1b6040518163ffffffff1660e01b8152600401602060405180830381865afa158015620000fd573d6000803e3d6000fd5b505050506040513d601f19601f82011682018060405250810190620001239190620006ec565b83620002db60201b620000371760201c565b505b505050565b62000152816200031160201b620000641760201c565b62000194576040517f08c379a00000000000000000000000000000000000000000000000000000000081526004016200018b90620007a5565b60405180910390fd5b6200021b8173ffffffffffffffffffffffffffffffffffffffff16635c60da1b6040518163ffffffff1660e01b8152600401602060405180830381865afa158015620001e4573d6000803e3d6000fd5b505050506040513d601f19601f820116820180604052508101906200020a9190620006ec565b6200031160201b620000641760201c565b6200025d576040517f08c379a000000000000000000000000000000000000000000000000000000000815260040162000254906200083d565b60405180910390fd5b80620002977fa3f0ad74e5423aebfd80d3ef4346578335a9a72aeaee59ff6cb3582b35133d5060001b6200033460201b620000871760201c565b60000160006101000a81548173ffffffffffffffffffffffffffffffffffffffff021916908373ffffffffffffffffffffffffffffffffffffffff16021790555050565b606062000309838360405180606001604052806027815260200162000f2d602791396200033e60201b60201c565b905092915050565b6000808273ffffffffffffffffffffffffffffffffffffffff163b119050919050565b6000819050919050565b606062000351846200031160201b60201c565b62000393576040517f08c379a00000000000000000000000000000000000000000000000000000000081526004016200038a90620008d5565b60405180910390fd5b6000808573ffffffffffffffffffffffffffffffffffffffff1685604051620003bd919062000944565b600060405180830381855af49150503d8060008114620003fa576040519150601f19603f3d011682016040523d82523d6000602084013e620003ff565b606091505b5091509150620004178282866200042260201b60201c565b925050509392505050565b60608315620004345782905062000487565b600083511115620004485782518084602001fd5b816040517f08c379a00000000000000000000000000000000000000000000000000000000081526004016200047e9190620009a9565b60405180910390fd5b9392505050565b6000604051905090565b600080fd5b600080fd5b600073ffffffffffffffffffffffffffffffffffffffff82169050919050565b6000620004cf82620004a2565b9050919050565b620004e181620004c2565b8114620004ed57600080fd5b50565b6000815190506200050181620004d6565b92915050565b600080fd5b600080fd5b6000601f19601f8301169050919050565b7f4e487b7100000000000000000000000000000000000000000000000000000000600052604160045260246000fd5b6200055c8262000511565b810181811067ffffffffffffffff821117156200057e576200057d62000522565b5b80604052505050565b6000620005936200048e565b9050620005a1828262000551565b919050565b600067ffffffffffffffff821115620005c457620005c362000522565b5b620005cf8262000511565b9050602081019050919050565b60005b83811015620005fc578082015181840152602081019050620005df565b60008484015250505050565b60006200061f6200061984620005a6565b62000587565b9050828152602081018484840111156200063e576200063d6200050c565b5b6200064b848285620005dc565b509392505050565b600082601f8301126200066b576200066a62000507565b5b81516200067d84826020860162000608565b91505092915050565b60008060408385031215620006a0576200069f62000498565b5b6000620006b085828601620004f0565b925050602083015167ffffffffffffffff811115620006d457620006d36200049d565b5b620006e28582860162000653565b9150509250929050565b60006020828403121562000705576200070462000498565b5b60006200071584828501620004f0565b91505092915050565b600082825260208201905092915050565b7f455243313936373a206e657720626561636f6e206973206e6f74206120636f6e60008201527f7472616374000000000000000000000000000000000000000000000000000000602082015250565b60006200078d6025836200071e565b91506200079a826200072f565b604082019050919050565b60006020820190508181036000830152620007c0816200077e565b9050919050565b7f455243313936373a20626561636f6e20696d706c656d656e746174696f6e206960008201527f73206e6f74206120636f6e747261637400000000000000000000000000000000602082015250565b6000620008256030836200071e565b91506200083282620007c7565b604082019050919050565b60006020820190508181036000830152620008588162000816565b9050919050565b7f416464726573733a2064656c65676174652063616c6c20746f206e6f6e2d636f60008201527f6e74726163740000000000000000000000000000000000000000000000000000602082015250565b6000620008bd6026836200071e565b9150620008ca826200085f565b604082019050919050565b60006020820190508181036000830152620008f081620008ae565b9050919050565b600081519050919050565b600081905092915050565b60006200091a82620008f7565b62000926818562000902565b935062000938818560208601620005dc565b80840191505092915050565b60006200095282846200090d565b915081905092915050565b600081519050919050565b600062000975826200095d565b6200098181856200071e565b935062000993818560208601620005dc565b6200099e8162000511565b840191505092915050565b60006020820190508181036000830152620009c5818462000968565b905092915050565b61055080620009dd6000396000f3fe6080604052366100135761001161001d565b005b61001b61001d565b005b610025610091565b610035610030610093565b610110565b565b606061005c83836040518060600160405280602781526020016104f460279139610136565b905092915050565b6000808273ffffffffffffffffffffffffffffffffffffffff163b119050919050565b6000819050919050565b565b600061009d610203565b73ffffffffffffffffffffffffffffffffffffffff16635c60da1b6040518163ffffffff1660e01b8152600401602060405180830381865afa1580156100e7573d6000803e3d6000fd5b505050506040513d601f19601f8201168201806040525081019061010b9190610324565b905090565b3660008037600080366000845af43d6000803e8060008114610131573d6000f35b3d6000fd5b606061014184610064565b610180576040517f08c379a0000000000000000000000000000000000000000000000000000000008152600401610177906103d4565b60405180910390fd5b6000808573ffffffffffffffffffffffffffffffffffffffff16856040516101a89190610465565b600060405180830381855af49150503d80600081146101e3576040519150601f19603f3d011682016040523d82523d6000602084013e6101e8565b606091505b50915091506101f882828661025a565b925050509392505050565b60006102317fa3f0ad74e5423aebfd80d3ef4346578335a9a72aeaee59ff6cb3582b35133d5060001b610087565b60000160009054906101000a900473ffffffffffffffffffffffffffffffffffffffff16905090565b6060831561026a578290506102ba565b60008351111561027d5782518084602001fd5b816040517f08c379a00000000000000000000000000000000000000000000000000000000081526004016102b191906104d1565b60405180910390fd5b9392505050565b600080fd5b600073ffffffffffffffffffffffffffffffffffffffff82169050919050565b60006102f1826102c6565b9050919050565b610301816102e6565b811461030c57600080fd5b50565b60008151905061031e816102f8565b92915050565b60006020828403121561033a576103396102c1565b5b60006103488482850161030f565b91505092915050565b600082825260208201905092915050565b7f416464726573733a2064656c65676174652063616c6c20746f206e6f6e2d636f60008201527f6e74726163740000000000000000000000000000000000000000000000000000602082015250565b60006103be602683610351565b91506103c982610362565b604082019050919050565b600060208201905081810360008301526103ed816103b1565b9050919050565b600081519050919050565b600081905092915050565b60005b8381101561042857808201518184015260208101905061040d565b60008484015250505050565b600061043f826103f4565b61044981856103ff565b935061045981856020860161040a565b80840191505092915050565b60006104718284610434565b915081905092915050565b600081519050919050565b6000601f19601f8301169050919050565b60006104a38261047c565b6104ad8185610351565b93506104bd81856020860161040a565b6104c681610487565b840191505092915050565b600060208201905081810360008301526104eb8184610498565b90509291505056fe416464726573733a206c6f772d6c6576656c2064656c65676174652063616c6c206661696c6564a2646970667358221220af8e71471a201abfd83e5afb6c3ce2fbd68cb67695fe9efcec20b4fa24b8666164736f6c63430008110033416464726573733a206c6f772d6c6576656c2064656c65676174652063616c6c206661696c6564a2646970667358221220e7ab8f5eca4eb11183e83db6d25ac04b6f3d08525f9bbaeb10b9aa015589459664736f6c63430008110033608060405234801561001057600080fd5b50604051610a6c380380610a6c8339818101604052810190610032919061024d565b8061004f61004461006560201b60201c565b61006d60201b60201c565b61005e8161013160201b60201c565b505061031d565b600033905090565b60008060009054906101000a900473ffffffffffffffffffffffffffffffffffffffff169050816000806101000a81548173ffffffffffffffffffffffffffffffffffffffff021916908373ffffffffffffffffffffffffffffffffffffffff1602179055508173ffffffffffffffffffffffffffffffffffffffff168173ffffffffffffffffffffffffffffffffffffffff167f8be0079c531659141344cd1fd0a4f28419497f9722a3daafe3b4186f6b6457e060405160405180910390a35050565b610144816101c760201b61024a1760201c565b610183576040517f08c379a000000000000000000000000000000000000000000000000000000000815260040161017a906102fd565b60405180910390fd5b80600160006101000a81548173ffffffffffffffffffffffffffffffffffffffff021916908373ffffffffffffffffffffffffffffffffffffffff16021790555050565b6000808273ffffffffffffffffffffffffffffffffffffffff163b119050919050565b600080fd5b600073ffffffffffffffffffffffffffffffffffffffff82169050919050565b600061021a826101ef565b9050919050565b61022a8161020f565b811461023557600080fd5b50565b60008151905061024781610221565b92915050565b600060208284031215610263576102626101ea565b5b600061027184828501610238565b91505092915050565b600082825260208201905092915050565b7f5570677261646561626c65426561636f6e3a20696d706c656d656e746174696f60008201527f6e206973206e6f74206120636f6e747261637400000000000000000000000000602082015250565b60006102e760338361027a565b91506102f28261028b565b604082019050919050565b60006020820190508181036000830152610316816102da565b9050919050565b6107408061032c6000396000f3fe608060405234801561001057600080fd5b50600436106100575760003560e01c80633659cfe61461005c5780635c60da1b14610078578063715018a6146100965780638da5cb5b146100a0578063f2fde38b146100be575b600080fd5b610076600480360381019061007191906104a6565b6100da565b005b610080610131565b60405161008d91906104e2565b60405180910390f35b61009e61015b565b005b6100a861019e565b6040516100b591906104e2565b60405180910390f35b6100d860048036038101906100d391906104a6565b6101c7565b005b6100e261026d565b6100eb816102eb565b8073ffffffffffffffffffffffffffffffffffffffff167fbc7cd75a20ee27fd9adebab32041f755214dbc6bffa90cc0225b39da2e5c2d3b60405160405180910390a250565b6000600160009054906101000a900473ffffffffffffffffffffffffffffffffffffffff16905090565b61016361026d565b6040517f08c379a00000000000000000000000000000000000000000000000000000000081526004016101959061055a565b60405180910390fd5b60008060009054906101000a900473ffffffffffffffffffffffffffffffffffffffff16905090565b6101cf61026d565b600073ffffffffffffffffffffffffffffffffffffffff168173ffffffffffffffffffffffffffffffffffffffff160361023e576040517f08c379a0000000000000000000000000000000000000000000000000000000008152600401610235906105ec565b60405180910390fd5b61024781610377565b50565b6000808273ffffffffffffffffffffffffffffffffffffffff163b119050919050565b61027561043b565b73ffffffffffffffffffffffffffffffffffffffff1661029361019e565b73ffffffffffffffffffffffffffffffffffffffff16146102e9576040517f08c379a00000000000000000000000000000000000000000000000000000000081526004016102e090610658565b60405180910390fd5b565b6102f48161024a565b610333576040517f08c379a000000000000000000000000000000000000000000000000000000000815260040161032a906106ea565b60405180910390fd5b80600160006101000a81548173ffffffffffffffffffffffffffffffffffffffff021916908373ffffffffffffffffffffffffffffffffffffffff16021790555050565b60008060009054906101000a900473ffffffffffffffffffffffffffffffffffffffff169050816000806101000a81548173ffffffffffffffffffffffffffffffffffffffff021916908373ffffffffffffffffffffffffffffffffffffffff1602179055508173ffffffffffffffffffffffffffffffffffffffff168173ffffffffffffffffffffffffffffffffffffffff167f8be0079c531659141344cd1fd0a4f28419497f9722a3daafe3b4186f6b6457e060405160405180910390a35050565b600033905090565b600080fd5b600073ffffffffffffffffffffffffffffffffffffffff82169050919050565b600061047382610448565b9050919050565b61048381610468565b811461048e57600080fd5b50565b6000813590506104a08161047a565b92915050565b6000602082840312156104bc576104bb610443565b5b60006104ca84828501610491565b91505092915050565b6104dc81610468565b82525050565b60006020820190506104f760008301846104d3565b92915050565b600082825260208201905092915050565b7f43616e6e6f742072656e6f756e6365206f776e65727368697000000000000000600082015250565b60006105446019836104fd565b915061054f8261050e565b602082019050919050565b6000602082019050818103600083015261057381610537565b9050919050565b7f4f776e61626c653a206e6577206f776e657220697320746865207a65726f206160008201527f6464726573730000000000000000000000000000000000000000000000000000602082015250565b60006105d66026836104fd565b91506105e18261057a565b604082019050919050565b60006020820190508181036000830152610605816105c9565b9050919050565b7f4f776e61626c653a2063616c6c6572206973206e6f7420746865206f776e6572600082015250565b60006106426020836104fd565b915061064d8261060c565b602082019050919050565b6000602082019050818103600083015261067181610635565b9050919050565b7f5570677261646561626c65426561636f6e3a20696d706c656d656e746174696f60008201527f6e206973206e6f74206120636f6e747261637400000000000000000000000000602082015250565b60006106d46033836104fd565b91506106df82610678565b604082019050919050565b60006020820190508181036000830152610703816106c7565b905091905056fea2646970667358221220a11689d246382d3fe034ba069218c6b8de9f7e5db52b125c641b07bd6a85582a64736f6c63430008110033",
  "history": [],
  "devdoc": {
    "errors": {
      "RenounceOwnership(address)": [
        {
          "params": {
            "owner": "owner address"
          }
        }
      ]
    },
    "events": {
      "MembershipERC721ProxyCreated(address,string,string,address)": {
        "params": {
          "name": "Token name for proxy",
          "proxyAddress": "Address of created proxy",
          "symbol": "Token symbol for proxy",
          "trustedForwarder": "Trusted forwarder address (EIP-2771) for proxy"
        }
      }
    },
    "kind": "dev",
    "methods": {
      "owner()": {
        "details": "Returns the address of the current owner."
      },
      "transferOwnership(address)": {
        "details": "Transfers ownership of the contract to a new account (`newOwner`). Can only be called by the current owner."
      }
    },
    "version": 1
  },
  "userdoc": {
    "errors": {
      "RenounceOwnership(address)": [
        {
          "notice": "Renounce ownership error"
        }
      ]
    },
    "events": {
      "MembershipERC721ProxyCreated(address,string,string,address)": {
        "notice": "New proxy created via this factory"
      }
    },
    "kind": "user",
    "methods": {
      "buildMembershipERC721Proxy(string,string,address)": {
        "notice": "Builds a new membership proxy contract. Can be called by contract owner only."
      },
      "getBeacon()": {
        "notice": "Returns the address for the upgradeable beacon for this factory"
      },
      "getImplementation()": {
        "notice": "Returns the address for the underlying implementation contract for this factory"
      },
      "proxyWasCreatedByFactory(address)": {
        "notice": "Returns true if a proxy was created by this factory, false otherwise"
      },
      "renounceOwnership()": {
        "notice": "Overrides the renounceOwnership function from Ownable. Always reverts."
      }
    },
    "version": 1
  },
  "storageLayout": {
    "storage": [
      {
        "astId": 2211,
        "contract": "contracts/MembershipERC721Factory.sol:MembershipERC721Factory",
        "label": "_owner",
        "offset": 0,
        "slot": "0",
        "type": "t_address"
      },
      {
        "astId": 3728,
        "contract": "contracts/MembershipERC721Factory.sol:MembershipERC721Factory",
        "label": "proxyRegistry",
        "offset": 0,
        "slot": "1",
        "type": "t_mapping(t_address,t_bool)"
      }
    ],
    "types": {
      "t_address": {
        "encoding": "inplace",
        "label": "address",
        "numberOfBytes": "20"
      },
      "t_bool": {
        "encoding": "inplace",
        "label": "bool",
        "numberOfBytes": "1"
      },
      "t_mapping(t_address,t_bool)": {
        "encoding": "mapping",
        "key": "t_address",
        "label": "mapping(address => bool)",
        "numberOfBytes": "32",
        "value": "t_bool"
      }
    }
  }
}