{
  "address": "0x51498dDdd2A8cdeC82932E08A37eBaF346C38EFd",
  "abi": [
    {
      "inputs": [],
      "stateMutability": "nonpayable",
      "type": "constructor"
    },
    {
      "inputs": [
        {
          "internalType": "address",
          "name": "guard_",
          "type": "address"
        }
      ],
      "name": "NotIERC165Compliant",
      "type": "error"
    },
    {
      "anonymous": false,
      "inputs": [
        {
          "indexed": true,
          "internalType": "address",
          "name": "owner",
          "type": "address"
        },
        {
          "indexed": true,
          "internalType": "address",
          "name": "spender",
          "type": "address"
        },
        {
          "indexed": false,
          "internalType": "uint256",
          "name": "amount",
          "type": "uint256"
        }
      ],
      "name": "Approval",
      "type": "event"
    },
    {
      "anonymous": false,
      "inputs": [
        {
          "indexed": true,
          "internalType": "address",
          "name": "previousAvatar",
          "type": "address"
        },
        {
          "indexed": true,
          "internalType": "address",
          "name": "newAvatar",
          "type": "address"
        }
      ],
      "name": "AvatarSet",
      "type": "event"
    },
    {
      "anonymous": false,
      "inputs": [
        {
          "indexed": true,
          "internalType": "uint256",
          "name": "proposal",
          "type": "uint256"
        }
      ],
      "name": "CancelProposal",
      "type": "event"
    },
    {
      "anonymous": false,
      "inputs": [
        {
          "indexed": false,
          "internalType": "address",
          "name": "guard",
          "type": "address"
        }
      ],
      "name": "ChangedGuard",
      "type": "event"
    },
    {
      "anonymous": false,
      "inputs": [
        {
          "indexed": false,
          "internalType": "uint32",
          "name": "voting",
          "type": "uint32"
        },
        {
          "indexed": false,
          "internalType": "uint32",
          "name": "grace",
          "type": "uint32"
        },
        {
          "indexed": false,
          "internalType": "uint256",
          "name": "newOffering",
          "type": "uint256"
        },
        {
          "indexed": false,
          "internalType": "uint256",
          "name": "quorum",
          "type": "uint256"
        },
        {
          "indexed": false,
          "internalType": "uint256",
          "name": "sponsor",
          "type": "uint256"
        },
        {
          "indexed": false,
          "internalType": "uint256",
          "name": "minRetention",
          "type": "uint256"
        }
      ],
      "name": "GovernanceConfigSet",
      "type": "event"
    },
    {
      "anonymous": false,
      "inputs": [
        {
          "indexed": false,
          "internalType": "uint8",
          "name": "version",
          "type": "uint8"
        }
      ],
      "name": "Initialized",
      "type": "event"
    },
    {
      "anonymous": false,
      "inputs": [
        {
          "indexed": false,
          "internalType": "bool",
          "name": "adminLock",
          "type": "bool"
        }
      ],
      "name": "LockAdmin",
      "type": "event"
    },
    {
      "anonymous": false,
      "inputs": [
        {
          "indexed": false,
          "internalType": "bool",
          "name": "governorLock",
          "type": "bool"
        }
      ],
      "name": "LockGovernor",
      "type": "event"
    },
    {
      "anonymous": false,
      "inputs": [
        {
          "indexed": false,
          "internalType": "bool",
          "name": "managerLock",
          "type": "bool"
        }
      ],
      "name": "LockManager",
      "type": "event"
    },
    {
      "anonymous": false,
      "inputs": [
        {
          "indexed": false,
          "internalType": "bool",
          "name": "paused",
          "type": "bool"
        }
      ],
      "name": "LootPaused",
      "type": "event"
    },
    {
      "anonymous": false,
      "inputs": [
        {
          "indexed": true,
          "internalType": "address",
          "name": "previousOwner",
          "type": "address"
        },
        {
          "indexed": true,
          "internalType": "address",
          "name": "newOwner",
          "type": "address"
        }
      ],
      "name": "OwnershipTransferred",
      "type": "event"
    },
    {
      "anonymous": false,
      "inputs": [
        {
          "indexed": true,
          "internalType": "uint256",
          "name": "proposal",
          "type": "uint256"
        },
        {
          "indexed": false,
          "internalType": "bool",
          "name": "passed",
          "type": "bool"
        },
        {
          "indexed": false,
          "internalType": "bool",
          "name": "actionFailed",
          "type": "bool"
        }
      ],
      "name": "ProcessProposal",
      "type": "event"
    },
    {
      "anonymous": false,
      "inputs": [
        {
          "indexed": true,
          "internalType": "address",
          "name": "member",
          "type": "address"
        },
        {
          "indexed": false,
          "internalType": "address",
          "name": "to",
          "type": "address"
        },
        {
          "indexed": true,
          "internalType": "uint256",
          "name": "lootToBurn",
          "type": "uint256"
        },
        {
          "indexed": true,
          "internalType": "uint256",
          "name": "sharesToBurn",
          "type": "uint256"
        },
        {
          "indexed": false,
          "internalType": "address[]",
          "name": "tokens",
          "type": "address[]"
        }
      ],
      "name": "Ragequit",
      "type": "event"
    },
    {
      "anonymous": false,
      "inputs": [
        {
          "indexed": true,
          "internalType": "address",
          "name": "forwarder",
          "type": "address"
        }
      ],
      "name": "SetTrustedForwarder",
      "type": "event"
    },
    {
      "anonymous": false,
      "inputs": [
        {
          "indexed": false,
          "internalType": "bool",
          "name": "lootPaused",
          "type": "bool"
        },
        {
          "indexed": false,
          "internalType": "bool",
          "name": "sharesPaused",
          "type": "bool"
        },
        {
          "indexed": false,
          "internalType": "uint32",
          "name": "gracePeriod",
          "type": "uint32"
        },
        {
          "indexed": false,
          "internalType": "uint32",
          "name": "votingPeriod",
          "type": "uint32"
        },
        {
          "indexed": false,
          "internalType": "uint256",
          "name": "proposalOffering",
          "type": "uint256"
        },
        {
          "indexed": false,
          "internalType": "uint256",
          "name": "quorumPercent",
          "type": "uint256"
        },
        {
          "indexed": false,
          "internalType": "uint256",
          "name": "sponsorThreshold",
          "type": "uint256"
        },
        {
          "indexed": false,
          "internalType": "uint256",
          "name": "minRetentionPercent",
          "type": "uint256"
        },
        {
          "indexed": false,
          "internalType": "string",
          "name": "name",
          "type": "string"
        },
        {
          "indexed": false,
          "internalType": "string",
          "name": "symbol",
          "type": "string"
        },
        {
          "indexed": false,
          "internalType": "uint256",
          "name": "totalShares",
          "type": "uint256"
        },
        {
          "indexed": false,
          "internalType": "uint256",
          "name": "totalLoot",
          "type": "uint256"
        }
      ],
      "name": "SetupComplete",
      "type": "event"
    },
    {
      "anonymous": false,
      "inputs": [
        {
          "indexed": true,
          "internalType": "address",
          "name": "shaman",
          "type": "address"
        },
        {
          "indexed": false,
          "internalType": "uint256",
          "name": "permission",
          "type": "uint256"
        }
      ],
      "name": "ShamanSet",
      "type": "event"
    },
    {
      "anonymous": false,
      "inputs": [
        {
          "indexed": false,
          "internalType": "bool",
          "name": "paused",
          "type": "bool"
        }
      ],
      "name": "SharesPaused",
      "type": "event"
    },
    {
      "anonymous": false,
      "inputs": [
        {
          "indexed": true,
          "internalType": "address",
          "name": "member",
          "type": "address"
        },
        {
          "indexed": true,
          "internalType": "uint256",
          "name": "proposal",
          "type": "uint256"
        },
        {
          "indexed": true,
          "internalType": "uint256",
          "name": "votingStarts",
          "type": "uint256"
        }
      ],
      "name": "SponsorProposal",
      "type": "event"
    },
    {
      "anonymous": false,
      "inputs": [
        {
          "indexed": true,
          "internalType": "uint256",
          "name": "proposal",
          "type": "uint256"
        },
        {
          "indexed": true,
          "internalType": "bytes32",
          "name": "proposalDataHash",
          "type": "bytes32"
        },
        {
          "indexed": false,
          "internalType": "uint256",
          "name": "votingPeriod",
          "type": "uint256"
        },
        {
          "indexed": false,
          "internalType": "bytes",
          "name": "proposalData",
          "type": "bytes"
        },
        {
          "indexed": false,
          "internalType": "uint256",
          "name": "expiration",
          "type": "uint256"
        },
        {
          "indexed": false,
          "internalType": "uint256",
          "name": "baalGas",
          "type": "uint256"
        },
        {
          "indexed": false,
          "internalType": "bool",
          "name": "selfSponsor",
          "type": "bool"
        },
        {
          "indexed": false,
          "internalType": "uint256",
          "name": "timestamp",
          "type": "uint256"
        },
        {
          "indexed": false,
          "internalType": "string",
          "name": "details",
          "type": "string"
        }
      ],
      "name": "SubmitProposal",
      "type": "event"
    },
    {
      "anonymous": false,
      "inputs": [
        {
          "indexed": true,
          "internalType": "address",
          "name": "member",
          "type": "address"
        },
        {
          "indexed": false,
          "internalType": "uint256",
          "name": "balance",
          "type": "uint256"
        },
        {
          "indexed": true,
          "internalType": "uint256",
          "name": "proposal",
          "type": "uint256"
        },
        {
          "indexed": true,
          "internalType": "bool",
          "name": "approved",
          "type": "bool"
        }
      ],
      "name": "SubmitVote",
      "type": "event"
    },
    {
      "anonymous": false,
      "inputs": [
        {
          "indexed": true,
          "internalType": "address",
          "name": "previousTarget",
          "type": "address"
        },
        {
          "indexed": true,
          "internalType": "address",
          "name": "newTarget",
          "type": "address"
        }
      ],
      "name": "TargetSet",
      "type": "event"
    },
    {
      "inputs": [],
      "name": "adminLock",
      "outputs": [
        {
          "internalType": "bool",
          "name": "",
          "type": "bool"
        }
      ],
      "stateMutability": "view",
      "type": "function"
    },
    {
      "inputs": [],
      "name": "avatar",
      "outputs": [
        {
          "internalType": "address",
          "name": "",
          "type": "address"
        }
      ],
      "stateMutability": "view",
      "type": "function"
    },
    {
      "inputs": [
        {
          "internalType": "address[]",
          "name": "from",
          "type": "address[]"
        },
        {
          "internalType": "uint256[]",
          "name": "amount",
          "type": "uint256[]"
        }
      ],
      "name": "burnLoot",
      "outputs": [],
      "stateMutability": "nonpayable",
      "type": "function"
    },
    {
      "inputs": [
        {
          "internalType": "address[]",
          "name": "from",
          "type": "address[]"
        },
        {
          "internalType": "uint256[]",
          "name": "amount",
          "type": "uint256[]"
        }
      ],
      "name": "burnShares",
      "outputs": [],
      "stateMutability": "nonpayable",
      "type": "function"
    },
    {
      "inputs": [
        {
          "internalType": "uint32",
          "name": "id",
          "type": "uint32"
        }
      ],
      "name": "cancelProposal",
      "outputs": [],
      "stateMutability": "nonpayable",
      "type": "function"
    },
    {
      "inputs": [
        {
          "internalType": "bytes[]",
          "name": "_calls",
          "type": "bytes[]"
        },
        {
          "internalType": "address",
          "name": "_target",
          "type": "address"
        }
      ],
      "name": "encodeMultisend",
      "outputs": [
        {
          "internalType": "bytes",
          "name": "encodedMultisend",
          "type": "bytes"
        }
      ],
      "stateMutability": "pure",
      "type": "function"
    },
    {
      "inputs": [
        {
          "internalType": "address",
          "name": "_to",
          "type": "address"
        },
        {
          "internalType": "uint256",
          "name": "_value",
          "type": "uint256"
        },
        {
          "internalType": "bytes",
          "name": "_data",
          "type": "bytes"
        }
      ],
      "name": "executeAsBaal",
      "outputs": [],
      "stateMutability": "nonpayable",
      "type": "function"
    },
    {
      "inputs": [],
      "name": "getGuard",
      "outputs": [
        {
          "internalType": "address",
          "name": "_guard",
          "type": "address"
        }
      ],
      "stateMutability": "view",
      "type": "function"
    },
    {
      "inputs": [
        {
          "internalType": "uint32",
          "name": "id",
          "type": "uint32"
        }
      ],
      "name": "getProposalStatus",
      "outputs": [
        {
          "internalType": "bool[4]",
          "name": "",
          "type": "bool[4]"
        }
      ],
      "stateMutability": "view",
      "type": "function"
    },
    {
      "inputs": [],
      "name": "governorLock",
      "outputs": [
        {
          "internalType": "bool",
          "name": "",
          "type": "bool"
        }
      ],
      "stateMutability": "view",
      "type": "function"
    },
    {
      "inputs": [],
      "name": "gracePeriod",
      "outputs": [
        {
          "internalType": "uint32",
          "name": "",
          "type": "uint32"
        }
      ],
      "stateMutability": "view",
      "type": "function"
    },
    {
      "inputs": [],
      "name": "guard",
      "outputs": [
        {
          "internalType": "address",
          "name": "",
          "type": "address"
        }
      ],
      "stateMutability": "view",
      "type": "function"
    },
    {
      "inputs": [
        {
          "internalType": "bytes",
          "name": "_transactions",
          "type": "bytes"
        }
      ],
      "name": "hashOperation",
      "outputs": [
        {
          "internalType": "bytes32",
          "name": "hash",
          "type": "bytes32"
        }
      ],
      "stateMutability": "pure",
      "type": "function"
    },
    {
      "inputs": [
        {
          "internalType": "address",
          "name": "shaman",
          "type": "address"
        }
      ],
      "name": "isAdmin",
      "outputs": [
        {
          "internalType": "bool",
          "name": "",
          "type": "bool"
        }
      ],
      "stateMutability": "view",
      "type": "function"
    },
    {
      "inputs": [
        {
          "internalType": "address",
          "name": "shaman",
          "type": "address"
        }
      ],
      "name": "isGovernor",
      "outputs": [
        {
          "internalType": "bool",
          "name": "",
          "type": "bool"
        }
      ],
      "stateMutability": "view",
      "type": "function"
    },
    {
      "inputs": [
        {
          "internalType": "address",
          "name": "shaman",
          "type": "address"
        }
      ],
      "name": "isManager",
      "outputs": [
        {
          "internalType": "bool",
          "name": "",
          "type": "bool"
        }
      ],
      "stateMutability": "view",
      "type": "function"
    },
    {
      "inputs": [
        {
          "internalType": "address",
          "name": "forwarder",
          "type": "address"
        }
      ],
      "name": "isTrustedForwarder",
      "outputs": [
        {
          "internalType": "bool",
          "name": "",
          "type": "bool"
        }
      ],
      "stateMutability": "view",
      "type": "function"
    },
    {
      "inputs": [],
      "name": "latestSponsoredProposalId",
      "outputs": [
        {
          "internalType": "uint32",
          "name": "",
          "type": "uint32"
        }
      ],
      "stateMutability": "view",
      "type": "function"
    },
    {
      "inputs": [],
      "name": "lockAdmin",
      "outputs": [],
      "stateMutability": "nonpayable",
      "type": "function"
    },
    {
      "inputs": [],
      "name": "lockGovernor",
      "outputs": [],
      "stateMutability": "nonpayable",
      "type": "function"
    },
    {
      "inputs": [],
      "name": "lockManager",
      "outputs": [],
      "stateMutability": "nonpayable",
      "type": "function"
    },
    {
      "inputs": [],
      "name": "lootToken",
      "outputs": [
        {
          "internalType": "contract IBaalToken",
          "name": "",
          "type": "address"
        }
      ],
      "stateMutability": "view",
      "type": "function"
    },
    {
      "inputs": [],
      "name": "managerLock",
      "outputs": [
        {
          "internalType": "bool",
          "name": "",
          "type": "bool"
        }
      ],
      "stateMutability": "view",
      "type": "function"
    },
    {
      "inputs": [
        {
          "internalType": "address",
          "name": "",
          "type": "address"
        },
        {
          "internalType": "uint32",
          "name": "",
          "type": "uint32"
        }
      ],
      "name": "memberVoted",
      "outputs": [
        {
          "internalType": "bool",
          "name": "",
          "type": "bool"
        }
      ],
      "stateMutability": "view",
      "type": "function"
    },
    {
      "inputs": [],
      "name": "minRetentionPercent",
      "outputs": [
        {
          "internalType": "uint256",
          "name": "",
          "type": "uint256"
        }
      ],
      "stateMutability": "view",
      "type": "function"
    },
    {
      "inputs": [
        {
          "internalType": "address[]",
          "name": "to",
          "type": "address[]"
        },
        {
          "internalType": "uint256[]",
          "name": "amount",
          "type": "uint256[]"
        }
      ],
      "name": "mintLoot",
      "outputs": [],
      "stateMutability": "nonpayable",
      "type": "function"
    },
    {
      "inputs": [
        {
          "internalType": "address[]",
          "name": "to",
          "type": "address[]"
        },
        {
          "internalType": "uint256[]",
          "name": "amount",
          "type": "uint256[]"
        }
      ],
      "name": "mintShares",
      "outputs": [],
      "stateMutability": "nonpayable",
      "type": "function"
    },
    {
      "inputs": [],
      "name": "multisendLibrary",
      "outputs": [
        {
          "internalType": "address",
          "name": "",
          "type": "address"
        }
      ],
      "stateMutability": "view",
      "type": "function"
    },
    {
      "inputs": [],
      "name": "owner",
      "outputs": [
        {
          "internalType": "address",
          "name": "",
          "type": "address"
        }
      ],
      "stateMutability": "view",
      "type": "function"
    },
    {
      "inputs": [
        {
          "internalType": "uint32",
          "name": "id",
          "type": "uint32"
        },
        {
          "internalType": "bytes",
          "name": "proposalData",
          "type": "bytes"
        }
      ],
      "name": "processProposal",
      "outputs": [],
      "stateMutability": "nonpayable",
      "type": "function"
    },
    {
      "inputs": [],
      "name": "proposalCount",
      "outputs": [
        {
          "internalType": "uint32",
          "name": "",
          "type": "uint32"
        }
      ],
      "stateMutability": "view",
      "type": "function"
    },
    {
      "inputs": [],
      "name": "proposalOffering",
      "outputs": [
        {
          "internalType": "uint256",
          "name": "",
          "type": "uint256"
        }
      ],
      "stateMutability": "view",
      "type": "function"
    },
    {
      "inputs": [
        {
          "internalType": "uint256",
          "name": "",
          "type": "uint256"
        }
      ],
      "name": "proposals",
      "outputs": [
        {
          "internalType": "uint32",
          "name": "id",
          "type": "uint32"
        },
        {
          "internalType": "uint32",
          "name": "prevProposalId",
          "type": "uint32"
        },
        {
          "internalType": "uint32",
          "name": "votingStarts",
          "type": "uint32"
        },
        {
          "internalType": "uint32",
          "name": "votingEnds",
          "type": "uint32"
        },
        {
          "internalType": "uint32",
          "name": "graceEnds",
          "type": "uint32"
        },
        {
          "internalType": "uint32",
          "name": "expiration",
          "type": "uint32"
        },
        {
          "internalType": "uint256",
          "name": "baalGas",
          "type": "uint256"
        },
        {
          "internalType": "uint256",
          "name": "yesVotes",
          "type": "uint256"
        },
        {
          "internalType": "uint256",
          "name": "noVotes",
          "type": "uint256"
        },
        {
          "internalType": "uint256",
          "name": "maxTotalSharesAndLootAtVote",
          "type": "uint256"
        },
        {
          "internalType": "uint256",
          "name": "maxTotalSharesAtSponsor",
          "type": "uint256"
        },
        {
          "internalType": "address",
          "name": "sponsor",
          "type": "address"
        },
        {
          "internalType": "bytes32",
          "name": "proposalDataHash",
          "type": "bytes32"
        }
      ],
      "stateMutability": "view",
      "type": "function"
    },
    {
      "inputs": [],
      "name": "quorumPercent",
      "outputs": [
        {
          "internalType": "uint256",
          "name": "",
          "type": "uint256"
        }
      ],
      "stateMutability": "view",
      "type": "function"
    },
    {
      "inputs": [
        {
          "internalType": "address",
          "name": "to",
          "type": "address"
        },
        {
          "internalType": "uint256",
          "name": "sharesToBurn",
          "type": "uint256"
        },
        {
          "internalType": "uint256",
          "name": "lootToBurn",
          "type": "uint256"
        },
        {
          "internalType": "address[]",
          "name": "tokens",
          "type": "address[]"
        }
      ],
      "name": "ragequit",
      "outputs": [],
      "stateMutability": "nonpayable",
      "type": "function"
    },
    {
      "inputs": [],
      "name": "renounceOwnership",
      "outputs": [],
      "stateMutability": "nonpayable",
      "type": "function"
    },
    {
      "inputs": [
        {
          "internalType": "bool",
          "name": "pauseShares",
          "type": "bool"
        },
        {
          "internalType": "bool",
          "name": "pauseLoot",
          "type": "bool"
        }
      ],
      "name": "setAdminConfig",
      "outputs": [],
      "stateMutability": "nonpayable",
      "type": "function"
    },
    {
      "inputs": [
        {
          "internalType": "address",
          "name": "_avatar",
          "type": "address"
        }
      ],
      "name": "setAvatar",
      "outputs": [],
      "stateMutability": "nonpayable",
      "type": "function"
    },
    {
      "inputs": [
        {
          "internalType": "bytes",
          "name": "_governanceConfig",
          "type": "bytes"
        }
      ],
      "name": "setGovernanceConfig",
      "outputs": [],
      "stateMutability": "nonpayable",
      "type": "function"
    },
    {
      "inputs": [
        {
          "internalType": "address",
          "name": "_guard",
          "type": "address"
        }
      ],
      "name": "setGuard",
      "outputs": [],
      "stateMutability": "nonpayable",
      "type": "function"
    },
    {
      "inputs": [
        {
          "internalType": "address[]",
          "name": "_shamans",
          "type": "address[]"
        },
        {
          "internalType": "uint256[]",
          "name": "_permissions",
          "type": "uint256[]"
        }
      ],
      "name": "setShamans",
      "outputs": [],
      "stateMutability": "nonpayable",
      "type": "function"
    },
    {
      "inputs": [
        {
          "internalType": "address",
          "name": "_target",
          "type": "address"
        }
      ],
      "name": "setTarget",
      "outputs": [],
      "stateMutability": "nonpayable",
      "type": "function"
    },
    {
      "inputs": [
        {
          "internalType": "address",
          "name": "_trustedForwarderAddress",
          "type": "address"
        }
      ],
      "name": "setTrustedForwarder",
      "outputs": [],
      "stateMutability": "nonpayable",
      "type": "function"
    },
    {
      "inputs": [
        {
          "internalType": "bytes",
          "name": "_initializationParams",
          "type": "bytes"
        }
      ],
      "name": "setUp",
      "outputs": [],
      "stateMutability": "nonpayable",
      "type": "function"
    },
    {
      "inputs": [
        {
          "internalType": "address",
          "name": "",
          "type": "address"
        }
      ],
      "name": "shamans",
      "outputs": [
        {
          "internalType": "uint256",
          "name": "",
          "type": "uint256"
        }
      ],
      "stateMutability": "view",
      "type": "function"
    },
    {
      "inputs": [],
      "name": "sharesToken",
      "outputs": [
        {
          "internalType": "contract IBaalToken",
          "name": "",
          "type": "address"
        }
      ],
      "stateMutability": "view",
      "type": "function"
    },
    {
      "inputs": [
        {
          "internalType": "uint32",
          "name": "id",
          "type": "uint32"
        }
      ],
      "name": "sponsorProposal",
      "outputs": [],
      "stateMutability": "nonpayable",
      "type": "function"
    },
    {
      "inputs": [],
      "name": "sponsorThreshold",
      "outputs": [
        {
          "internalType": "uint256",
          "name": "",
          "type": "uint256"
        }
      ],
      "stateMutability": "view",
      "type": "function"
    },
    {
      "inputs": [
        {
          "internalType": "uint32",
          "name": "id",
          "type": "uint32"
        }
      ],
      "name": "state",
      "outputs": [
        {
          "internalType": "enum Baal.ProposalState",
          "name": "",
          "type": "uint8"
        }
      ],
      "stateMutability": "view",
      "type": "function"
    },
    {
      "inputs": [
        {
          "internalType": "bytes",
          "name": "proposalData",
          "type": "bytes"
        },
        {
          "internalType": "uint32",
          "name": "expiration",
          "type": "uint32"
        },
        {
          "internalType": "uint256",
          "name": "baalGas",
          "type": "uint256"
        },
        {
          "internalType": "string",
          "name": "details",
          "type": "string"
        }
      ],
      "name": "submitProposal",
      "outputs": [
        {
          "internalType": "uint256",
          "name": "",
          "type": "uint256"
        }
      ],
      "stateMutability": "payable",
      "type": "function"
    },
    {
      "inputs": [
        {
          "internalType": "uint32",
          "name": "id",
          "type": "uint32"
        },
        {
          "internalType": "bool",
          "name": "approved",
          "type": "bool"
        }
      ],
      "name": "submitVote",
      "outputs": [],
      "stateMutability": "nonpayable",
      "type": "function"
    },
    {
      "inputs": [
        {
          "internalType": "address",
          "name": "voter",
          "type": "address"
        },
        {
          "internalType": "uint256",
          "name": "expiry",
          "type": "uint256"
        },
        {
          "internalType": "uint256",
          "name": "nonce",
          "type": "uint256"
        },
        {
          "internalType": "uint32",
          "name": "id",
          "type": "uint32"
        },
        {
          "internalType": "bool",
          "name": "approved",
          "type": "bool"
        },
        {
          "internalType": "uint8",
          "name": "v",
          "type": "uint8"
        },
        {
          "internalType": "bytes32",
          "name": "r",
          "type": "bytes32"
        },
        {
          "internalType": "bytes32",
          "name": "s",
          "type": "bytes32"
        }
      ],
      "name": "submitVoteWithSig",
      "outputs": [],
      "stateMutability": "nonpayable",
      "type": "function"
    },
    {
      "inputs": [],
      "name": "target",
      "outputs": [
        {
          "internalType": "address",
          "name": "",
          "type": "address"
        }
      ],
      "stateMutability": "view",
      "type": "function"
    },
    {
      "inputs": [],
      "name": "totalLoot",
      "outputs": [
        {
          "internalType": "uint256",
          "name": "",
          "type": "uint256"
        }
      ],
      "stateMutability": "view",
      "type": "function"
    },
    {
      "inputs": [],
      "name": "totalShares",
      "outputs": [
        {
          "internalType": "uint256",
          "name": "",
          "type": "uint256"
        }
      ],
      "stateMutability": "view",
      "type": "function"
    },
    {
      "inputs": [],
      "name": "totalSupply",
      "outputs": [
        {
          "internalType": "uint256",
          "name": "",
          "type": "uint256"
        }
      ],
      "stateMutability": "view",
      "type": "function"
    },
    {
      "inputs": [
        {
          "internalType": "address",
          "name": "newOwner",
          "type": "address"
        }
      ],
      "name": "transferOwnership",
      "outputs": [],
      "stateMutability": "nonpayable",
      "type": "function"
    },
    {
      "inputs": [],
      "name": "trustedForwarder",
      "outputs": [
        {
          "internalType": "address",
          "name": "",
          "type": "address"
        }
      ],
      "stateMutability": "view",
      "type": "function"
    },
    {
      "inputs": [],
      "name": "versionRecipient",
      "outputs": [
        {
          "internalType": "string",
          "name": "",
          "type": "string"
        }
      ],
      "stateMutability": "view",
      "type": "function"
    },
    {
      "inputs": [
        {
          "internalType": "address",
          "name": "",
          "type": "address"
        }
      ],
      "name": "votingNonces",
      "outputs": [
        {
          "internalType": "uint256",
          "name": "",
          "type": "uint256"
        }
      ],
      "stateMutability": "view",
      "type": "function"
    },
    {
      "inputs": [],
      "name": "votingPeriod",
      "outputs": [
        {
          "internalType": "uint32",
          "name": "",
          "type": "uint32"
        }
      ],
      "stateMutability": "view",
      "type": "function"
    }
  ],
  "args": [],
  "numDeployments": 2,
  "linkedData": {},
  "solcInputHash": "c4f192c3900d5725dcc7f925eda49620",
  "bytecode": "0x60806040523480156200001157600080fd5b506200001c62000022565b620000e4565b600054610100900460ff16156200008f5760405162461bcd60e51b815260206004820152602760248201527f496e697469616c697a61626c653a20636f6e747261637420697320696e697469604482015266616c697a696e6760c81b606482015260840160405180910390fd5b60005460ff9081161015620000e2576000805460ff191660ff9081179091556040519081527f7f26b83ff96e1f2b6a682f133852f6798a09c465da95921460cefb38474024989060200160405180910390a15b565b615e0e80620000f46000396000f3fe6080604052600436106103a25760003560e01c80638009ba1f116101e7578063cf043df31161010d578063ed0cdf15116100a0578063f460124d1161006f578063f460124d14610b99578063f81cbd2614610bb9578063fab514c014610bcf578063fe47668614610bef57600080fd5b8063ed0cdf1514610b19578063ee4d88ed14610b39578063f2fde38b14610b59578063f3ae241514610b7957600080fd5b8063da35c664116100dc578063da35c66414610a95578063da74222814610ab9578063e19a9dd914610ad9578063e43581b814610af957600080fd5b8063cf043df3146109fa578063d33defc714610a1a578063d4b8399214610a55578063d61f27ae14610a7557600080fd5b8063a4f9edbf11610185578063b634e4e011610154578063b634e4e014610979578063c00d077514610996578063c4e931f6146109bd578063c9106389146109dc57600080fd5b8063a4f9edbf14610904578063acca30a214610924578063b1e3f40c14610939578063b3c98bbb1461095957600080fd5b806398a527cc116101c157806398a527cc1461088a5780639a2f747f146108aa578063a06db7dc146108c0578063a26ec96e146108e457600080fd5b80638009ba1f1461083657806383bf8459146108565780638da5cb5b1461086c57600080fd5b80634526d846116102cc5780635ec286961161026a578063715018a611610239578063715018a6146107c3578063776d1a01146107d85780637ceab3b1146107f85780637da0a8771461081857600080fd5b80635ec286961461074e578063635e99aa1461076e57806367f61f0714610783578063706a6e93146107a357600080fd5b806352ba1da7116102a657806352ba1da7146106a4578063572b6c05146106d15780635aef7de6146107005780635cfd6f7e1461073857600080fd5b80634526d846146106355780634630affc14610655578063486ff0cd1461068257600080fd5b8063136d731a11610344578063258bfe2f11610313578063258bfe2f146105c05780633232444c146105e05780633a82ffc81461060d5780633a98ef391461062057600080fd5b8063136d731a1461055357806316fd265d1461056857806318160ddd1461057d57806324d7806c146105a057600080fd5b8063056b0dcd11610380578063056b0dcd146104d1578063086cfca8146104f35780630a796e19146105135780630f656a211461053357600080fd5b8063013cf08b146103a7578063027cdf451461046e57806302a251a314610498575b600080fd5b3480156103b357600080fd5b5061044c6103c23660046155a3565b60d9602052600090815260409020805460018201546002830154600384015460048501546005860154600787015460089097015463ffffffff80881698600160201b8904821698600160401b8104831698600160601b8204841698600160801b8304851698600160a01b90930490941696909593949193909290916001600160a01b03909116908d565b6040516104659d9c9b9a99989796959493929190615aed565b60405180910390f35b34801561047a57600080fd5b5060d5546104889060ff1681565b6040519015158152602001610465565b3480156104a457600080fd5b5060d0546104bc90600160a01b900463ffffffff1681565b60405163ffffffff9091168152602001610465565b3480156104dd57600080fd5b506104f16104ec36600461541c565b610c1c565b005b3480156104ff57600080fd5b506104f161050e366004615087565b611163565b34801561051f57600080fd5b506104f161052e3660046155d5565b6111bd565b34801561053f57600080fd5b506104f161054e3660046152c7565b611500565b34801561055f57600080fd5b506104f16117ae565b34801561057457600080fd5b506104f161183f565b34801561058957600080fd5b506105926118b9565b604051908152602001610465565b3480156105ac57600080fd5b506104886105bb366004615087565b6118da565b3480156105cc57600080fd5b506105926105db366004615527565b61191f565b3480156105ec57600080fd5b506105926105fb366004615087565b60d66020526000908152604090205481565b61059261061b36600461549a565b61194f565b34801561062c57600080fd5b50610592611faf565b34801561064157600080fd5b506104f16106503660046152c7565b61202c565b34801561066157600080fd5b506106756106703660046155d5565b6120fb565b60405161046591906158eb565b34801561068e57600080fd5b5061069761216c565b60405161046591906159a4565b3480156106b057600080fd5b506105926106bf366004615087565b60d86020526000908152604090205481565b3480156106dd57600080fd5b506104886106ec366004615087565b60ce546001600160a01b0391821691161490565b34801561070c57600080fd5b50606654610720906001600160a01b031681565b6040516001600160a01b039091168152602001610465565b34801561074457600080fd5b5061059260d35481565b34801561075a57600080fd5b506104f16107693660046152c7565b6121fa565b34801561077a57600080fd5b506105926122c9565b34801561078f57600080fd5b506104f161079e3660046155f2565b61230e565b3480156107af57600080fd5b506104f16107be366004615610565b612332565b3480156107cf57600080fd5b506104f161271e565b3480156107e457600080fd5b506104f16107f3366004615087565b612732565b34801561080457600080fd5b50606554610720906001600160a01b031681565b34801561082457600080fd5b5060ce546001600160a01b0316610720565b34801561084257600080fd5b5060d054610720906001600160a01b031681565b34801561086257600080fd5b5061059260d45481565b34801561087857600080fd5b506033546001600160a01b0316610720565b34801561089657600080fd5b506104f16108a53660046152c7565b61278c565b3480156108b657600080fd5b5061059260d15481565b3480156108cc57600080fd5b5060d0546104bc90600160c01b900463ffffffff1681565b3480156108f057600080fd5b5060d5546104889062010000900460ff1681565b34801561091057600080fd5b506104f161091f366004615527565b61285b565b34801561093057600080fd5b506104f1612de9565b34801561094557600080fd5b506104f16109543660046152c7565b612e6e565b34801561096557600080fd5b506104f1610974366004615141565b612f3d565b34801561098557600080fd5b5060da546104bc9063ffffffff1681565b3480156109a257600080fd5b5060da5461072090600160201b90046001600160a01b031681565b3480156109c957600080fd5b5060d55461048890610100900460ff1681565b3480156109e857600080fd5b506065546001600160a01b0316610720565b348015610a0657600080fd5b506104f1610a15366004615205565b61301e565b348015610a2657600080fd5b50610488610a3536600461528e565b60d760209081526000928352604080842090915290825290205460ff1681565b348015610a6157600080fd5b50606754610720906001600160a01b031681565b348015610a8157600080fd5b50610697610a90366004615326565b6132f8565b348015610aa157600080fd5b5060d0546104bc90600160e01b900463ffffffff1681565b348015610ac557600080fd5b506104f1610ad4366004615087565b6133bf565b348015610ae557600080fd5b506104f1610af4366004615087565b61346e565b348015610b0557600080fd5b50610488610b14366004615087565b61357f565b348015610b2557600080fd5b506104f1610b3436600461519c565b6135c0565b348015610b4557600080fd5b506104f1610b54366004615527565b6136cf565b348015610b6557600080fd5b506104f1610b74366004615087565b61392d565b348015610b8557600080fd5b50610488610b94366004615087565b6139a3565b348015610ba557600080fd5b5060cf54610720906001600160a01b031681565b348015610bc557600080fd5b5061059260d25481565b348015610bdb57600080fd5b506104f1610bea3660046155d5565b6139e3565b348015610bfb57600080fd5b50610c0f610c0a3660046155d5565b613bb7565b60405161046591906159b7565b6066546001600160a01b0316610c30613d93565b6001600160a01b03161480610c4b5750610c4b6105bb613d93565b610c8d5760405162461bcd60e51b815260206004820152600e60248201526d10b130b0b610131010b0b236b4b760911b60448201526064015b60405180910390fd5b818015610d1d575060d060009054906101000a90046001600160a01b03166001600160a01b0316635c975abb6040518163ffffffff1660e01b815260040160206040518083038186803b158015610ce357600080fd5b505afa158015610cf7573d6000803e3d6000fd5b505050506040513d601f19601f82011682018060405250810190610d1b91906153ff565b155b15610dc45760d060009054906101000a90046001600160a01b03166001600160a01b0316638456cb596040518163ffffffff1660e01b8152600401600060405180830381600087803b158015610d7257600080fd5b505af1158015610d86573d6000803e3d6000fd5b5050604051600181527f5544d0c1539dae939ba6e81485fb6352e3081f5a74f9bf445038bdcc358e34159250602001905060405180910390a1610ef6565b81158015610e53575060d060009054906101000a90046001600160a01b03166001600160a01b0316635c975abb6040518163ffffffff1660e01b815260040160206040518083038186803b158015610e1b57600080fd5b505afa158015610e2f573d6000803e3d6000fd5b505050506040513d601f19601f82011682018060405250810190610e5391906153ff565b15610ef65760d060009054906101000a90046001600160a01b03166001600160a01b0316633f4ba83a6040518163ffffffff1660e01b8152600401600060405180830381600087803b158015610ea857600080fd5b505af1158015610ebc573d6000803e3d6000fd5b5050604051600081527f5544d0c1539dae939ba6e81485fb6352e3081f5a74f9bf445038bdcc358e34159250602001905060405180910390a15b808015610f86575060cf60009054906101000a90046001600160a01b03166001600160a01b0316635c975abb6040518163ffffffff1660e01b815260040160206040518083038186803b158015610f4c57600080fd5b505afa158015610f60573d6000803e3d6000fd5b505050506040513d601f19601f82011682018060405250810190610f8491906153ff565b155b1561102d5760cf60009054906101000a90046001600160a01b03166001600160a01b0316638456cb596040518163ffffffff1660e01b8152600401600060405180830381600087803b158015610fdb57600080fd5b505af1158015610fef573d6000803e3d6000fd5b5050604051600181527f21b897e32ff7464f696022c4d6dfbf2d4eb300d162ad28e0d90f1136f5fea9cb925060200190505b60405180910390a15050565b801580156110bc575060cf60009054906101000a90046001600160a01b03166001600160a01b0316635c975abb6040518163ffffffff1660e01b815260040160206040518083038186803b15801561108457600080fd5b505afa158015611098573d6000803e3d6000fd5b505050506040513d601f19601f820116820180604052508101906110bc91906153ff565b1561115f5760cf60009054906101000a90046001600160a01b03166001600160a01b0316633f4ba83a6040518163ffffffff1660e01b8152600401600060405180830381600087803b15801561111157600080fd5b505af1158015611125573d6000803e3d6000fd5b5050604051600081527f21b897e32ff7464f696022c4d6dfbf2d4eb300d162ad28e0d90f1136f5fea9cb9250602001905060405180910390a15b5050565b61116b613d9d565b606680546001600160a01b038381166001600160a01b0319831681179093556040519116919082907f52ae88b092de36f87fb43fe794eb1381023b9c1bce563a871154022c63dce34290600090a35050565b6111c5613e16565b63ffffffff8116600090815260d96020526040902060d35460d0546001600160a01b0316639ab24eb06111f6613d93565b6040516001600160e01b031960e084901b1681526001600160a01b03909116600482015260240160206040518083038186803b15801561123557600080fd5b505afa158015611249573d6000803e3d6000fd5b505050506040513d601f19601f8201168201806040525081019061126d91906155bc565b10156112a65760405162461bcd60e51b815260206004820152600860248201526710b9b837b739b7b960c11b6044820152606401610c84565b60016112b183613bb7565b60078111156112c2576112c2615d34565b146112fc5760405162461bcd60e51b815260206004820152600a602482015269085cdd589b5a5d1d195960b21b6044820152606401610c84565b8054600160a01b900463ffffffff161580611352575060d05463ffffffff600160c01b820481169161133791600160a01b9091041642615be2565b6113419190615be2565b8154600160a01b900463ffffffff16115b6113885760405162461bcd60e51b8152602060048201526007602482015266195e1c1a5c995960ca1b6044820152606401610c84565b805463ffffffff42818116600160401b026bffffffff00000000000000001984168117855560d08054600160a01b90819004851684018516600160601b0263ffffffff60601b1990931667ffffffffffffffff60401b19909616959095179190911780865590549384048316909101600160c01b9093048216929092018116600160801b0263ffffffff60801b1983168117845560da54600160201b92169190910267ffffffff000000001990911673ffffffff0000000000000000ffffffff00000000199092169190911717815561145f613d93565b6007820180546001600160a01b0319166001600160a01b03929092169190911790556114896118b9565b6004820155611496611faf565b600582015560da805463ffffffff191663ffffffff841690811790915542906114bd613d93565b6001600160a01b03167fd45ad122361f16d6f50d7c4a73638f20ee48eff6186af15224e2a4a1f6d5017160405160405180910390a4506114fd6001609c55565b50565b6066546001600160a01b0316611514613d93565b6001600160a01b03161461153a5760405162461bcd60e51b8152600401610c84906159d1565b8281146115595760405162461bcd60e51b8152600401610c84906159f0565b60005b838110156117a757600083838381811061157857611578615d4a565b60d5546020909102929092013592505060ff16156115f557806001141580156115a2575080600314155b80156115af575080600514155b80156115bc575080600714155b6115f55760405162461bcd60e51b815260206004820152600a60248201526961646d696e206c6f636b60b01b6044820152606401610c84565b60d554610100900460ff161561166c5780600214158015611617575080600314155b8015611624575080600614155b8015611631575080600714155b61166c5760405162461bcd60e51b815260206004820152600c60248201526b6d616e61676572206c6f636b60a01b6044820152606401610c84565b60d55462010000900460ff16156116e5578060041415801561168f575080600514155b801561169c575080600614155b80156116a9575080600714155b6116e55760405162461bcd60e51b815260206004820152600d60248201526c676f7665726e6f72206c6f636b60981b6044820152606401610c84565b8060d660008888868181106116fc576116fc615d4a565b90506020020160208101906117119190615087565b6001600160a01b0316815260208101919091526040016000205585858381811061173d5761173d615d4a565b90506020020160208101906117529190615087565b6001600160a01b03167fc456d076c1245c6b9759b3cdcb169e14e00a7739897e501844c8fe5fca6cb2608260405161178c91815260200190565b60405180910390a2508061179f81615cdf565b91505061155c565b5050505050565b6066546001600160a01b03166117c2613d93565b6001600160a01b0316146117e85760405162461bcd60e51b8152600401610c84906159d1565b60d5805462ff0000191662010000908117918290556040517fd9574ee4ccdf21db87aa2c1d1fee3248522d79c07c54bde4a9edeb0620bef71f9261183592900460ff161515815260200190565b60405180910390a1565b6066546001600160a01b0316611853613d93565b6001600160a01b0316146118795760405162461bcd60e51b8152600401610c84906159d1565b60d5805460ff191660019081179091556040519081527f5e1c9f68365556a24387c25fd0922af31039bcfc65d36caac57401d310948e5990602001611835565b60006118c3611faf565b6118cb6122c9565b6118d59190615be2565b905090565b6001600160a01b038116600090815260d6602052604081205460018114806119025750806003145b8061190d5750806005145b806119185750806007145b9392505050565b60008160405160200161193291906159a4565b604051602081830303815290604052805190602001209050919050565b6000611959613e16565b63ffffffff8516158061199f575060d05463ffffffff600160c01b820481169161198c91600160a01b9091041642615be2565b6119969190615be2565b8563ffffffff16115b6119d55760405162461bcd60e51b8152602060048201526007602482015266195e1c1a5c995960ca1b6044820152606401610c84565b6301312d00841115611a1b5760405162461bcd60e51b815260206004820152600f60248201526e0c4c2c2d88ec2e640e8de40d0d2ced608b1b6044820152606401610c84565b60d35460d054600091906001600160a01b0316639ab24eb0611a3b613d93565b6040516001600160e01b031960e084901b1681526001600160a01b03909116600482015260240160206040518083038186803b158015611a7a57600080fd5b505afa158015611a8e573d6000803e3d6000fd5b505050506040513d601f19601f82011682018060405250810190611ab291906155bc565b10611abf57506001611ba6565b60d1543414611b105760405162461bcd60e51b815260206004820152601960248201527f4261616c20726571756972657320616e206f66666572696e67000000000000006044820152606401610c84565b6067546040516000916001600160a01b03169034908381818185875af1925050503d8060008114611b5d576040519150601f19603f3d011682016040523d82523d6000602084013e611b62565b606091505b5050905080611ba45760405162461bcd60e51b815260206004820152600e60248201526d18dbdd5b19081b9bdd081cd95b9960921b6044820152606401610c84565b505b6000611be789898080601f01602080910402602001604051908101604052809392919081815260200183838082843760009201919091525061191f92505050565b60d08054919250600160e01b90910463ffffffff1690601c611c0883615cfa565b91906101000a81548163ffffffff021916908363ffffffff16021790555050604051806101c0016040528060d0601c9054906101000a900463ffffffff1663ffffffff16815260200183611c5d576000611c67565b60da5463ffffffff165b63ffffffff16815260200183611c7e576000611c80565b425b63ffffffff16815260200183611c97576000611cb1565b60d054611cb190600160a01b900463ffffffff1642615bfa565b63ffffffff16815260200183611cc8576000611cf7565b60d05463ffffffff600160c01b8204811691611ced91600160a01b9091041642615bfa565b611cf79190615bfa565b63ffffffff1681526020018863ffffffff168152602001878152602001600081526020016000815260200183611d2e576000611d36565b611d366118b9565b815260200183611d47576000611d4f565b611d4f611faf565b8152604080516080810182526000808252602082810182905282840182905260608301919091528301520183611d86576000611d8e565b611d8e613d93565b6001600160a01b03168152602090810183905260d054600160e01b900463ffffffff908116600090815260d983526040908190208451815494860151928601516060870151608088015160a089015193871667ffffffffffffffff1990981697909717600160201b958716959095029490941767ffffffffffffffff60401b1916600160401b9186169190910263ffffffff60601b191617600160601b938516939093029290921767ffffffffffffffff60801b1916600160801b9484169490940263ffffffff60a01b191693909317600160a01b919092160217815560c0820151600182015560e0820151600282015561010082015160038201556101208201516004808301919091556101408301516005830155610160830151611eb991600684019190614e0c565b506101808201516007820180546001600160a01b0319166001600160a01b039092169190911790556101a0909101516008909101558115611f195760d05460da8054600160e01b90920463ffffffff1663ffffffff199092169190911790555b8060d0601c9054906101000a900463ffffffff1663ffffffff167fb9956173924f9c1204bae41dd3737d7ed1161846d13183879cdc03c4b9f8d01960d060149054906101000a900463ffffffff168c8c8c8c89428e8e604051611f8499989796959493929190615a8c565b60405180910390a3505060d0546001609c55600160e01b900463ffffffff1690509695505050505050565b60d054604080516318160ddd60e01b815290516000926001600160a01b0316916318160ddd916004808301926020929190829003018186803b158015611ff457600080fd5b505afa158015612008573d6000803e3d6000fd5b505050506040513d601f19601f820116820180604052508101906118d591906155bc565b6066546001600160a01b0316612040613d93565b6001600160a01b0316148061205b575061205b610b94613d93565b6120775760405162461bcd60e51b8152600401610c8490615a62565b8281146120965760405162461bcd60e51b8152600401610c84906159f0565b60005b838110156117a7576120e98585838181106120b6576120b6615d4a565b90506020020160208101906120cb9190615087565b8484848181106120dd576120dd615d4a565b90506020020135613e77565b806120f381615cdf565b915050612099565b612103614e9e565b63ffffffff8216600090815260d9602052604080822081516080810192839052926006909101916004918390855b825461010083900a900460ff161515815260206001928301818104948501949093039092029101808411612131575094979650505050505050565b60db805461217990615caa565b80601f01602080910402602001604051908101604052809291908181526020018280546121a590615caa565b80156121f25780601f106121c7576101008083540402835291602001916121f2565b820191906000526020600020905b8154815290600101906020018083116121d557829003601f168201915b505050505081565b6066546001600160a01b031661220e613d93565b6001600160a01b031614806122295750612229610b94613d93565b6122455760405162461bcd60e51b8152600401610c8490615a62565b8281146122645760405162461bcd60e51b8152600401610c84906159f0565b60005b838110156117a7576122b785858381811061228457612284615d4a565b90506020020160208101906122999190615087565b8484848181106122ab576122ab615d4a565b90506020020135613ee2565b806122c181615cdf565b915050612267565b60cf54604080516318160ddd60e01b815290516000926001600160a01b0316916318160ddd916004808301926020929190829003018186803b158015611ff457600080fd5b612316613e16565b612328612321613d93565b8383613f1b565b61115f6001609c55565b61233a613e16565b63ffffffff8316600090815260d96020526040902060078101546001600160a01b03166123945760405162461bcd60e51b815260206004820152600860248201526710b9b837b739b7b960c11b6044820152606401610c84565b600561239f85613bb7565b60078111156123b0576123b0615d34565b146123e65760405162461bcd60e51b815260206004820152600660248201526521726561647960d01b6044820152606401610c84565b805460009061240190600160201b900463ffffffff16613bb7565b9050600681600781111561241757612417615d34565b14806124345750600381600781111561243257612432615d34565b145b806124505750600781600781111561244e5761244e615d34565b145b8061246c5750600081600781111561246a5761246a615d34565b145b6124a95760405162461bcd60e51b815260206004820152600e60248201526d1c1c995d885c1c9bd8d95cdcd95960921b6044820152606401610c84565b81600801546124ed85858080601f01602080910402602001604051908101604052809392919081815260200183838082843760009201919091525061191f92505050565b1461252f5760405162461bcd60e51b8152602060048201526012602482015271696e636f72726563742063616c6c6461746160701b6044820152606401610c84565b60018201541580612544575081600101545a10155b6125815760405162461bcd60e51b815260206004820152600e60248201526d6e6f7420656e6f7567682067617360901b6044820152606401610c84565b60068201805461ff0019166101001790558154600190600160a01b900463ffffffff16158015906125c05750825442600160a01b90910463ffffffff16105b156125c9575060005b8080156125f55750826005015460d2546125e39190615c44565b60028401546125f3906064615c44565b105b156125fe575060005b80801561262e5750606460d454846004015461261a9190615c44565b6126249190615c22565b61262c6118b9565b105b15612637575060005b80156126b05760068301805462ff0000191662010000179055604080516020601f87018190048102820181019092528581526000916126919190889088908190840183828082843760009201919091525061417e92505050565b9050806126ae5760068401805463ff000000191663010000001790555b505b60068301546040805160ff62010000840481161515825263010000009093049092161515602083015263ffffffff8816917fb4571f7e4e2c2b6e6185e47ab5caa5fe34087299bd49fbae945a4583101ee3f0910160405180910390a25050506127196001609c55565b505050565b612726613d9d565b61273060006141a7565b565b61273a613d9d565b606780546001600160a01b038381166001600160a01b0319831681179093556040519116919082907f90cc2f570a6eb594b1580ea3e41247d2d73a55281889e86bd4ec2fc29c7e62d690600090a35050565b6066546001600160a01b03166127a0613d93565b6001600160a01b031614806127bb57506127bb610b94613d93565b6127d75760405162461bcd60e51b8152600401610c8490615a62565b8281146127f65760405162461bcd60e51b8152600401610c84906159f0565b60005b838110156117a75761284985858381811061281657612816615d4a565b905060200201602081019061282b9190615087565b84848481811061283d5761283d615d4a565b905060200201356141f9565b8061285381615cdf565b9150506127f9565b600054610100900460ff161580801561287b5750600054600160ff909116105b806128955750303b158015612895575060005460ff166001145b6128f85760405162461bcd60e51b815260206004820152602e60248201527f496e697469616c697a61626c653a20636f6e747261637420697320616c72656160448201526d191e481a5b9a5d1a585b1a5e995960921b6064820152608401610c84565b6000805460ff19166001179055801561291b576000805461ff0019166101001790555b612923613e16565b6000806000806000808780602001905181019061294091906150a4565b95509550955095509550955060006001600160a01b0316846001600160a01b03161415801561297757506001600160a01b03831615155b6129b15760405162461bcd60e51b815260206004820152600b60248201526a0c081859191c881d5cd95960aa1b6044820152606401610c84565b6040518060600160405280602d8152602001615dac602d913980516129de9160db91602090910190614ebc565b506129e7614232565b6129ef614261565b612a2e60405180604001604052806004815260200163566f746560e01b815250604051806040016040528060018152602001600d60fa1b815250614290565b612a378361392d565b606680546001600160a01b0385166001600160a01b03199182168117909255606780549091169091179055612a6b826142c1565b60cf80546001600160a01b03199081166001600160a01b038981169190911790925560d0805490911687831617905560da8054640100000000600160c01b031916600160201b87841681029190911791829055612acf9291041660008360016142e3565b612b105760405162461bcd60e51b8152602060048201526012602482015271063616c6c206661696c7572652073657475760741b6044820152606401610c84565b60cf5460408051635c975abb60e01b815290517f916f812584e0b001e8c6ab604fa549cc16c9d0b2f60b17aa0b4ff5eefe3e7725926001600160a01b031691635c975abb916004808301926020929190829003018186803b158015612b7457600080fd5b505afa158015612b88573d6000803e3d6000fd5b505050506040513d601f19601f82011682018060405250810190612bac91906153ff565b60d060009054906101000a90046001600160a01b03166001600160a01b0316635c975abb6040518163ffffffff1660e01b815260040160206040518083038186803b158015612bfa57600080fd5b505afa158015612c0e573d6000803e3d6000fd5b505050506040513d601f19601f82011682018060405250810190612c3291906153ff565b60d05460d15460d25460d35460d454604080516306fdde0360e01b8152905163ffffffff600160c01b8804811697600160a01b810490911696959493926001600160a01b03909116916306fdde0391600480820192600092909190829003018186803b158015612ca157600080fd5b505afa158015612cb5573d6000803e3d6000fd5b505050506040513d6000823e601f3d908101601f19168201604052612cdd919081019061555b565b60d060009054906101000a90046001600160a01b03166001600160a01b03166395d89b416040518163ffffffff1660e01b815260040160006040518083038186803b158015612d2b57600080fd5b505afa158015612d3f573d6000803e3d6000fd5b505050506040513d6000823e601f3d908101601f19168201604052612d67919081019061555b565b612d6f611faf565b612d776122c9565b604051612d8f9c9b9a9998979695949392919061591e565b60405180910390a1505050505050612da76001609c55565b801561115f576000805461ff0019169055604051600181527f7f26b83ff96e1f2b6a682f133852f6798a09c465da95921460cefb384740249890602001611021565b6066546001600160a01b0316612dfd613d93565b6001600160a01b031614612e235760405162461bcd60e51b8152600401610c84906159d1565b60d5805461ff001916610100908117918290556040517fb496b9628e839102454d8b483ba451c4be96675009b637273a00e4ab6a59db729261183592900460ff161515815260200190565b6066546001600160a01b0316612e82613d93565b6001600160a01b03161480612e9d5750612e9d610b94613d93565b612eb95760405162461bcd60e51b8152600401610c8490615a62565b828114612ed85760405162461bcd60e51b8152600401610c84906159f0565b60005b838110156117a757612f2b858583818110612ef857612ef8615d4a565b9050602002016020810190612f0d9190615087565b848484818110612f1f57612f1f615d4a565b90506020020135614494565b80612f3581615cdf565b915050612edb565b6066546001600160a01b0316612f51613d93565b6001600160a01b031614612f775760405162461bcd60e51b8152600401610c84906159d1565b6000846001600160a01b0316848484604051612f9492919061572b565b60006040518083038185875af1925050503d8060008114612fd1576040519150601f19603f3d011682016040523d82523d6000602084013e612fd6565b606091505b50509050806117a75760405162461bcd60e51b815260206004820152601460248201527363616c6c206661696c757265206578656375746560601b6044820152606401610c84565b613026613e16565b864211156130765760405162461bcd60e51b815260206004820152601d60248201527f4552433230566f7465733a207369676e617475726520657870697265640000006044820152606401610c84565b6001600160a01b038816600090815260d8602052604090205486146130c65760405162461bcd60e51b8152602060048201526006602482015265216e6f6e636560d01b6044820152606401610c84565b60007f8698fbcc7273f96a670eb203cb707d8ec171123f24eaf075b1e754b71119e59e60d060009054906101000a90046001600160a01b03166001600160a01b03166306fdde036040518163ffffffff1660e01b815260040160006040518083038186803b15801561313757600080fd5b505afa15801561314b573d6000803e3d6000fd5b505050506040513d6000823e601f3d908101601f19168201604052613173919081019061555b565b604051602001613183919061573b565b60408051601f198184030181528282528051602091820120908301939093528101919091526001600160a01b038a1660608201526080810189905260a0810188905263ffffffff871660c082015285151560e0820152610100016040516020818303038152906040528051906020012090506000613200826144cd565b905060006132108287878761451b565b90508a6001600160a01b0316816001600160a01b0316146132675760405162461bcd60e51b8152602060048201526011602482015270696e76616c6964207369676e617475726560781b6044820152606401610c84565b6001600160a01b0381166132a75760405162461bcd60e51b815260206004820152600760248201526610b9b4b3b732b960c91b6044820152606401610c84565b6001600160a01b038b16600090815260d8602052604081208054600192906132d0908490615be2565b909155506132e19050818989613f1b565b5050506132ee6001609c55565b5050505050505050565b60608060005b845181101561337b5781600085600088858151811061331f5761331f615d4a565b60200260200101515189868151811061333a5761333a615d4a565b602002602001015160405160200161335796959493929190615757565b6040516020818303038152906040529150808061337390615cdf565b9150506132fe565b508060405160240161338d91906159a4565b60408051601f198184030181529190526020810180516001600160e01b03166346c07f8560e11b179052949350505050565b6066546001600160a01b03166133d3613d93565b6001600160a01b031614806133ee57506133ee610b14613d93565b61342e5760405162461bcd60e51b815260206004820152601160248201527010b130b0b610131010b3b7bb32b93737b960791b6044820152606401610c84565b613437816142c1565b6040516001600160a01b038216907f8c2bee8063bb4464870b7dfa415ebb2fe80bfa73ba20d6fbf0d42791274667ff90600090a250565b613476613d9d565b6001600160a01b0381161561352b576040516301ffc9a760e01b815263736bd41d60e11b60048201526001600160a01b038216906301ffc9a79060240160206040518083038186803b1580156134cb57600080fd5b505afa1580156134df573d6000803e3d6000fd5b505050506040513d601f19601f8201168201806040525081019061350391906153ff565b61352b576040516358b7533f60e11b81526001600160a01b0382166004820152602401610c84565b606580546001600160a01b0319166001600160a01b0383169081179091556040519081527f1151116914515bc0891ff9047a6cb32cf902546f83066499bcf8ba33d2353fa29060200160405180910390a150565b6001600160a01b038116600090815260d6602052604081205460048114806135a75750806005145b8061190d57508060061480611918575060071492915050565b6135c8613e16565b60015b818110156136855782826135e0600184615c63565b8181106135ef576135ef615d4a565b90506020020160208101906136049190615087565b6001600160a01b031683838381811061361f5761361f615d4a565b90506020020160208101906136349190615087565b6001600160a01b0316116136735760405162461bcd60e51b815260206004820152600660248201526510b7b93232b960d11b6044820152606401610c84565b8061367d81615cdf565b9150506135cb565b506136c585858585858080602002602001604051908101604052809392919081815260200183836020028082843760009201919091525061454392505050565b6117a76001609c55565b6066546001600160a01b03166136e3613d93565b6001600160a01b031614806136fe57506136fe610b14613d93565b61373e5760405162461bcd60e51b815260206004820152601160248201527010b130b0b610131010b3b7bb32b93737b960791b6044820152606401610c84565b6000806000806000808680602001905181019061375b9190615664565b949a5092985090965094509250905060648111156137a85760405162461bcd60e51b815260206004820152600a6024820152696261642071756f72756d60b01b6044820152606401610c84565b60648111156137ec5760405162461bcd60e51b815260206004820152601060248201526f3130b21036b4b72932ba32b73a34b7b760811b6044820152606401610c84565b600060d354118015613808575060d0546001600160a01b031615155b1561385d57613815611faf565b82111561385d5760405162461bcd60e51b815260206004820152601660248201527573706f6e736f72203e20736861726573537570706c7960501b6044820152606401610c84565b63ffffffff8616156138885760d0805463ffffffff60a01b1916600160a01b63ffffffff8916021790555b63ffffffff8516156138b35760d0805463ffffffff60c01b1916600160c01b63ffffffff8816021790555b60d184905560d283905560d382905560d48190556040805163ffffffff808916825287166020820152908101859052606081018490526080810183905260a081018290527fc10758ccd7d1dd3330e7bbe13a1a1d6bbb414967932376ee24989bad95edcdc19060c00160405180910390a150505050505050565b613935613d9d565b6001600160a01b03811661399a5760405162461bcd60e51b815260206004820152602660248201527f4f776e61626c653a206e6577206f776e657220697320746865207a65726f206160448201526564647265737360d01b6064820152608401610c84565b6114fd816141a7565b6001600160a01b038116600090815260d6602052604081205460028114806135a75750806003148061190d57508060061480611918575060071492915050565b6139eb613e16565b63ffffffff8116600090815260d9602052604090206002613a0b83613bb7565b6007811115613a1c57613a1c615d34565b14613a535760405162461bcd60e51b815260206004820152600760248201526621766f74696e6760c81b6044820152606401610c84565b60078101546001600160a01b0316613a69613d93565b6001600160a01b03161480613b20575060d35460d05460078301546001600160a01b0391821691633a46b1a89116613aa2600142615c63565b6040516001600160e01b031960e085901b1681526001600160a01b039092166004830152602482015260440160206040518083038186803b158015613ae657600080fd5b505afa158015613afa573d6000803e3d6000fd5b505050506040513d601f19601f82011682018060405250810190613b1e91906155bc565b105b80613b315750613b31610b14613d93565b613b6c5760405162461bcd60e51b815260206004820152600c60248201526b2163616e63656c6c61626c6560a01b6044820152606401610c84565b60068101805460ff1916600117905560405163ffffffff8316907f8896f24cff41b54acf76c2560861f33cd20fd76c4df0b68a3515c354e4b6c81a90600090a2506114fd6001609c55565b63ffffffff818116600090815260d96020908152604080832081516101c08101835281548087168252600160201b8104871694820194909452600160401b8404861681840152600160601b840486166060820152600160801b84048616608080830191909152600160a01b90940490951660a0860152600181015460c0860152600281015460e08601526003810154610100860152600480820154610120870152600582015461014087015282519384019283905293948594909391926101608501929160068501918288855b825461010083900a900460ff161515815260206001928301818104948501949093039092029101808411613c845750505092845250505060078201546001600160a01b03166020820152600890910154604090910152805190915063ffffffff16613cf25750600092915050565b6101608101515115613d075750600392915050565b604081015163ffffffff16613d1f5750600192915050565b806060015163ffffffff164211613d395750600292915050565b806080015163ffffffff164211613d535750600492915050565b8060e0015181610100015110613d6c5750600792915050565b6101608101516020015115613d845750600692915050565b50600592915050565b50919050565b60006118d56147bf565b613da5613d93565b6001600160a01b0316613dc06033546001600160a01b031690565b6001600160a01b0316146127305760405162461bcd60e51b815260206004820181905260248201527f4f776e61626c653a2063616c6c6572206973206e6f7420746865206f776e65726044820152606401610c84565b6002609c541415613e695760405162461bcd60e51b815260206004820152601f60248201527f5265656e7472616e637947756172643a207265656e7472616e742063616c6c006044820152606401610c84565b6002609c55565b6001609c55565b60cf546040516340c10f1960e01b81526001600160a01b03848116600483015260248201849052909116906340c10f19906044015b600060405180830381600087803b158015613ec657600080fd5b505af1158015613eda573d6000803e3d6000fd5b505050505050565b60cf54604051632770a7eb60e21b81526001600160a01b0384811660048301526024820184905290911690639dc29fac90604401613eac565b63ffffffff8216600090815260d9602052604090206002613f3b84613bb7565b6007811115613f4c57613f4c615d34565b14613f835760405162461bcd60e51b815260206004820152600760248201526621766f74696e6760c81b6044820152606401610c84565b60d0548154604051630748d63560e31b81526001600160a01b038781166004830152600160401b90920463ffffffff1660248201526000929190911690633a46b1a89060440160206040518083038186803b158015613fe157600080fd5b505afa158015613ff5573d6000803e3d6000fd5b505050506040513d601f19601f8201168201806040525081019061401991906155bc565b9050600081116140555760405162461bcd60e51b815260206004820152600760248201526610b6b2b6b132b960c91b6044820152606401610c84565b6001600160a01b038516600090815260d76020908152604080832063ffffffff8816845290915290205460ff16156140b75760405162461bcd60e51b81526020600482015260056024820152641d9bdd195960da1b6044820152606401610c84565b6001600160a01b038516600090815260d76020908152604080832063ffffffff881684529091528120805460ff191660011790556140f36118b9565b9050826004015481111561410957600483018190555b831561411e5760028301805483019055614129565b600383018054830190555b8315158563ffffffff16876001600160a01b03167f786755545a7e27c12c90cc7f0934514d03fdacfe3684a340b8c4100531e7ecd58560405161416e91815260200190565b60405180910390a4505050505050565b60da546000906141a190600160201b90046001600160a01b0316828460016142e3565b92915050565b603380546001600160a01b038381166001600160a01b0319831681179093556040519116919082907f8be0079c531659141344cd1fd0a4f28419497f9722a3daafe3b4186f6b6457e090600090a35050565b60d054604051632770a7eb60e21b81526001600160a01b0384811660048301526024820184905290911690639dc29fac90604401613eac565b600054610100900460ff166142595760405162461bcd60e51b8152600401610c8490615a17565b6127306147f3565b600054610100900460ff166142885760405162461bcd60e51b8152600401610c8490615a17565b61273061482a565b600054610100900460ff166142b75760405162461bcd60e51b8152600401610c8490615a17565b61115f8282614851565b60ce80546001600160a01b0319166001600160a01b0392909216919091179055565b6065546000906001600160a01b031615614385576065546040805180820182526002815261060f60f31b60208201529051633af85da960e11b81526001600160a01b03909216916375f0bb5291614352918991899189918991600091829182918291829190339060040161585c565b600060405180830381600087803b15801561436c57600080fd5b505af1158015614380573d6000803e3d6000fd5b505050505b60675460405163468721a760e01b81526001600160a01b039091169063468721a7906143bb90889088908890889060040161581d565b602060405180830381600087803b1580156143d557600080fd5b505af11580156143e9573d6000803e3d6000fd5b505050506040513d601f19601f8201168201806040525081019061440d91906153ff565b6065549091506001600160a01b03161561448c57606554604051631264e26d60e31b815261060f60f31b600482015282151560248201526001600160a01b0390911690639327136890604401600060405180830381600087803b15801561447357600080fd5b505af1158015614487573d6000803e3d6000fd5b505050505b949350505050565b60d0546040516340c10f1960e01b81526001600160a01b03848116600483015260248201849052909116906340c10f1990604401613eac565b60006141a16144da614892565b8360405161190160f01b6020820152602281018390526042810182905260009060620160405160208183030381529060405280519060200120905092915050565b600080600061452c8787878761490d565b91509150614539816149d1565b5095945050505050565b600061454d6118b9565b9050821561456657614566614560613d93565b84613ee2565b831561457d5761457d614577613d93565b856141f9565b60005b825181101561476b57600073eeeeeeeeeeeeeeeeeeeeeeeeeeeeeeeeeeeeeeee6001600160a01b03168483815181106145bb576145bb615d4a565b60200260200101516001600160a01b031614156145e557506067546001600160a01b0316316146b3565b60008483815181106145f9576145f9615d4a565b602090810291909101810151606754604080516001600160a01b03928316602480830191909152825180830390910181526044909101825293840180516001600160e01b03166370a0823160e01b179052519116916146579161573b565b600060405180830381855afa9150503d8060008114614692576040519150601f19603f3d011682016040523d82523d6000602084013e614697565b606091505b50915050808060200190518101906146af91906155bc565b9150505b600083826146c18989615be2565b6146cb9190615c44565b6146d59190615c22565b905080156147565773eeeeeeeeeeeeeeeeeeeeeeeeeeeeeeeeeeeeeeee6001600160a01b031685848151811061470d5761470d615d4a565b60200260200101516001600160a01b03161461474c5761474785848151811061473857614738615d4a565b60200260200101518983614b1f565b614756565b6147568882614bee565b5050808061476390615cdf565b915050614580565b508383614776613d93565b6001600160a01b03167fa21c268847f2b8adac3751ed0683330abe9fdd6cc4a7a8fc6787633d4126e0d488866040516147b09291906157c1565b60405180910390a45050505050565b6000601436108015906147dc575060ce546001600160a01b031633145b156147ee575060131936013560601c90565b503390565b600054610100900460ff1661481a5760405162461bcd60e51b8152600401610c8490615a17565b612730614825613d93565b6141a7565b600054610100900460ff16613e705760405162461bcd60e51b8152600401610c8490615a17565b600054610100900460ff166148785760405162461bcd60e51b8152600401610c8490615a17565b815160209283012081519190920120606891909155606955565b60006118d57f8b73c3c69bb8fe3d512ecc4cf759cc79239f7b179b0ffacaa9a75d522b39400f6148c160685490565b6069546040805160208101859052908101839052606081018290524660808201523060a082015260009060c0016040516020818303038152906040528051906020012090509392505050565b6000807f7fffffffffffffffffffffffffffffff5d576e7357a4501ddfe92f46681b20a083111561494457506000905060036149c8565b6040805160008082526020820180845289905260ff881692820192909252606081018690526080810185905260019060a0016020604051602081039080840390855afa158015614998573d6000803e3d6000fd5b5050604051601f1901519150506001600160a01b0381166149c1576000600192509250506149c8565b9150600090505b94509492505050565b60008160048111156149e5576149e5615d34565b14156149ee5750565b6001816004811115614a0257614a02615d34565b1415614a505760405162461bcd60e51b815260206004820152601860248201527f45434453413a20696e76616c6964207369676e617475726500000000000000006044820152606401610c84565b6002816004811115614a6457614a64615d34565b1415614ab25760405162461bcd60e51b815260206004820152601f60248201527f45434453413a20696e76616c6964207369676e6174757265206c656e677468006044820152606401610c84565b6003816004811115614ac657614ac6615d34565b14156114fd5760405162461bcd60e51b815260206004820152602260248201527f45434453413a20696e76616c6964207369676e6174757265202773272076616c604482015261756560f01b6064820152608401610c84565b600080614b8785600063a9059cbb8787604051602401614b549291906001600160a01b03929092168252602082015260400190565b6040516020818303038152906040529060e01b6020820180516001600160e01b0383818316178352505050506000614c52565b91509150818015614bb0575080511580614bb0575080806020019051810190614bb091906153ff565b6117a75760405162461bcd60e51b815260206004820152600f60248201526e1d1c985b9cd9995c8819985a5b1959608a1b6044820152606401610c84565b6000614c0c8383604051806020016040528060008152506000614c52565b509050806127195760405162461bcd60e51b815260206004820152601360248201527211551217d514905394d1915497d19052531151606a1b6044820152606401610c84565b6065546000906060906001600160a01b031615614cf7576065546040805180820182526002815261060f60f31b60208201529051633af85da960e11b81526001600160a01b03909216916375f0bb5291614cc4918a918a918a918a91600091829182918291829190339060040161585c565b600060405180830381600087803b158015614cde57600080fd5b505af1158015614cf2573d6000803e3d6000fd5b505050505b606754604051635229073f60e01b81526001600160a01b0390911690635229073f90614d2d90899089908990899060040161581d565b600060405180830381600087803b158015614d4757600080fd5b505af1158015614d5b573d6000803e3d6000fd5b505050506040513d6000823e601f3d908101601f19168201604052614d83919081019061544a565b60655491935091506001600160a01b0316156149c857606554604051631264e26d60e31b815261060f60f31b600482015283151560248201526001600160a01b0390911690639327136890604401600060405180830381600087803b158015614deb57600080fd5b505af1158015614dff573d6000803e3d6000fd5b5050505094509492505050565b600183019183908215614e8e5791602002820160005b83821115614e5f57835183826101000a81548160ff0219169083151502179055509260200192600101602081600001049283019260010302614e22565b8015614e8c5782816101000a81549060ff0219169055600101602081600001049283019260010302614e5f565b505b50614e9a929150614f30565b5090565b60405180608001604052806004906020820280368337509192915050565b828054614ec890615caa565b90600052602060002090601f016020900481019282614eea5760008555614e8e565b82601f10614f0357805160ff1916838001178555614e8e565b82800160010185558215614e8e579182015b82811115614e8e578251825591602001919060010190614f15565b5b80821115614e9a5760008155600101614f31565b6000614f58614f5384615bbb565b615b8b565b9050828152838383011115614f6c57600080fd5b611918836020830184615c7a565b8035614f8581615d76565b919050565b60008083601f840112614f9c57600080fd5b5081356001600160401b03811115614fb357600080fd5b6020830191508360208260051b8501011115614fce57600080fd5b9250929050565b60008083601f840112614fe757600080fd5b5081356001600160401b03811115614ffe57600080fd5b602083019150836020828501011115614fce57600080fd5b600082601f83011261502757600080fd5b8135615035614f5382615bbb565b81815284602083860101111561504a57600080fd5b816020850160208301376000918101602001919091529392505050565b600082601f83011261507857600080fd5b61191883835160208501614f45565b60006020828403121561509957600080fd5b813561191881615d76565b60008060008060008060c087890312156150bd57600080fd5b86516150c881615d76565b60208801519096506150d981615d76565b60408801519095506150ea81615d76565b60608801519094506150fb81615d76565b608088015190935061510c81615d76565b60a08801519092506001600160401b0381111561512857600080fd5b61513489828a01615067565b9150509295509295509295565b6000806000806060858703121561515757600080fd5b843561516281615d76565b93506020850135925060408501356001600160401b0381111561518457600080fd5b61519087828801614fd5565b95989497509550505050565b6000806000806000608086880312156151b457600080fd5b85356151bf81615d76565b9450602086013593506040860135925060608601356001600160401b038111156151e857600080fd5b6151f488828901614f8a565b969995985093965092949392505050565b600080600080600080600080610100898b03121561522257600080fd5b883561522d81615d76565b97506020890135965060408901359550606089013561524b81615d99565b9450608089013561525b81615d8b565b935060a089013560ff8116811461527157600080fd5b979a969950949793969295929450505060c08201359160e0013590565b600080604083850312156152a157600080fd5b82356152ac81615d76565b915060208301356152bc81615d99565b809150509250929050565b600080600080604085870312156152dd57600080fd5b84356001600160401b03808211156152f457600080fd5b61530088838901614f8a565b9096509450602087013591508082111561531957600080fd5b5061519087828801614f8a565b6000806040838503121561533957600080fd5b82356001600160401b038082111561535057600080fd5b818501915085601f83011261536457600080fd5b813560208282111561537857615378615d60565b8160051b615387828201615b8b565b8381528281019086840183880185018c10156153a257600080fd5b60009350835b868110156153df578135888111156153be578586fd5b6153cc8e88838d0101615016565b85525092850192908501906001016153a8565b50508098505050506153f2818801614f7a565b9450505050509250929050565b60006020828403121561541157600080fd5b815161191881615d8b565b6000806040838503121561542f57600080fd5b823561543a81615d8b565b915060208301356152bc81615d8b565b6000806040838503121561545d57600080fd5b825161546881615d8b565b60208401519092506001600160401b0381111561548457600080fd5b61549085828601615067565b9150509250929050565b600080600080600080608087890312156154b357600080fd5b86356001600160401b03808211156154ca57600080fd5b6154d68a838b01614fd5565b9098509650602089013591506154eb82615d99565b909450604088013593506060880135908082111561550857600080fd5b5061551589828a01614fd5565b979a9699509497509295939492505050565b60006020828403121561553957600080fd5b81356001600160401b0381111561554f57600080fd5b61448c84828501615016565b60006020828403121561556d57600080fd5b81516001600160401b0381111561558357600080fd5b8201601f8101841361559457600080fd5b61448c84825160208401614f45565b6000602082840312156155b557600080fd5b5035919050565b6000602082840312156155ce57600080fd5b5051919050565b6000602082840312156155e757600080fd5b813561191881615d99565b6000806040838503121561560557600080fd5b823561543a81615d99565b60008060006040848603121561562557600080fd5b833561563081615d99565b925060208401356001600160401b0381111561564b57600080fd5b61565786828701614fd5565b9497909650939450505050565b60008060008060008060c0878903121561567d57600080fd5b865161568881615d99565b602088015190965061569981615d99565b6040880151606089015160808a015160a0909a0151989b929a5090989097909650945092505050565b81835281816020850137506000828201602090810191909152601f909101601f19169091010190565b60008151808452615703816020860160208601615c7a565b601f01601f19169290920160200192915050565b6002811061572757615727615d34565b9052565b8183823760009101908152919050565b6000825161574d818460208701615c7a565b9190910192915050565b60008751615769818460208c01615c7a565b808301905060ff60f81b8860f81b1681526bffffffffffffffffffffffff198760601b16600182015285601582015284603582015283516157b1816055840160208801615c7a565b0160550198975050505050505050565b6001600160a01b038381168252604060208084018290528451918401829052600092858201929091906060860190855b8181101561580f5785518516835294830194918301916001016157f1565b509098975050505050505050565b60018060a01b038516815283602082015260806040820152600061584460808301856156eb565b90506158536060830184615717565b95945050505050565b6001600160a01b038c81168252602082018c9052610160604083018190526000916158898483018e6156eb565b9150615898606085018d615717565b8a60808501528960a08501528860c085015280881660e08501528087166101008501528382036101208501526158ce82876156eb565b925080851661014085015250509c9b505050505050505050505050565b60808101818360005b600481101561591557815115158352602092830192909101906001016158f4565b50505092915050565b60006101808e151583528d1515602084015263ffffffff808e166040850152808d166060850152508a60808401528960a08401528860c08401528760e084015280610100840152615971818401886156eb565b905082810361012084015261598681876156eb565b610140840195909552505061016001529a9950505050505050505050565b60208152600061191860208301846156eb565b60208101600883106159cb576159cb615d34565b91905290565b602080825260059082015264085898585b60da1b604082015260600190565b6020808252600d908201526c2161727261792070617269747960981b604082015260600190565b6020808252602b908201527f496e697469616c697a61626c653a20636f6e7472616374206973206e6f74206960408201526a6e697469616c697a696e6760a81b606082015260800190565b60208082526010908201526f10b130b0b610131010b6b0b730b3b2b960811b604082015260600190565b600063ffffffff808c16835260e06020840152615aad60e084018b8d6156c2565b818a16604085015288606085015287151560808501528660a085015283810360c0850152615adc8186886156c2565b9d9c50505050505050505050505050565b60006101a08201905063ffffffff8f16825263ffffffff8e16602083015263ffffffff8d16604083015263ffffffff8c16606083015263ffffffff8b16608083015263ffffffff8a1660a08301528860c08301528760e0830152866101008301528561012083015284610140830152615b726101608301856001600160a01b03169052565b826101808301529e9d5050505050505050505050505050565b604051601f8201601f191681016001600160401b0381118282101715615bb357615bb3615d60565b604052919050565b60006001600160401b03821115615bd457615bd4615d60565b50601f01601f191660200190565b60008219821115615bf557615bf5615d1e565b500190565b600063ffffffff808316818516808303821115615c1957615c19615d1e565b01949350505050565b600082615c3f57634e487b7160e01b600052601260045260246000fd5b500490565b6000816000190483118215151615615c5e57615c5e615d1e565b500290565b600082821015615c7557615c75615d1e565b500390565b60005b83811015615c95578181015183820152602001615c7d565b83811115615ca4576000848401525b50505050565b600181811c90821680615cbe57607f821691505b60208210811415613d8d57634e487b7160e01b600052602260045260246000fd5b6000600019821415615cf357615cf3615d1e565b5060010190565b600063ffffffff80831681811415615d1457615d14615d1e565b6001019392505050565b634e487b7160e01b600052601160045260246000fd5b634e487b7160e01b600052602160045260246000fd5b634e487b7160e01b600052603260045260246000fd5b634e487b7160e01b600052604160045260246000fd5b6001600160a01b03811681146114fd57600080fd5b80151581146114fd57600080fd5b63ffffffff811681146114fd57600080fdfe322e322e352b6f70656e67736e2e70617961626c65776974686261616c2e6972656c6179726563697069656e74a264697066735822122029226d6c55c3bf2fed2640f3ce4819c947bd091cae6e965a91657fe95caba15464736f6c63430008070033",
  "history": [],
  "storageLayout": {
    "storage": [
      {
        "astId": 4465,
        "contract": "contracts/Baal.sol:Baal",
        "label": "_initialized",
        "offset": 0,
        "slot": "0",
        "type": "t_uint8"
      },
      {
        "astId": 4468,
        "contract": "contracts/Baal.sol:Baal",
        "label": "_initializing",
        "offset": 1,
        "slot": "0",
        "type": "t_bool"
      },
      {
        "astId": 6734,
        "contract": "contracts/Baal.sol:Baal",
        "label": "__gap",
        "offset": 0,
        "slot": "1",
        "type": "t_array(t_uint256)50_storage"
      },
      {
        "astId": 3948,
        "contract": "contracts/Baal.sol:Baal",
        "label": "_owner",
        "offset": 0,
        "slot": "51",
        "type": "t_address"
      },
      {
        "astId": 4068,
        "contract": "contracts/Baal.sol:Baal",
        "label": "__gap",
        "offset": 0,
        "slot": "52",
        "type": "t_array(t_uint256)49_storage"
      },
      {
        "astId": 3625,
        "contract": "contracts/Baal.sol:Baal",
        "label": "guard",
        "offset": 0,
        "slot": "101",
        "type": "t_address"
      },
      {
        "astId": 3191,
        "contract": "contracts/Baal.sol:Baal",
        "label": "avatar",
        "offset": 0,
        "slot": "102",
        "type": "t_address"
      },
      {
        "astId": 3194,
        "contract": "contracts/Baal.sol:Baal",
        "label": "target",
        "offset": 0,
        "slot": "103",
        "type": "t_address"
      },
      {
        "astId": 7414,
        "contract": "contracts/Baal.sol:Baal",
        "label": "_HASHED_NAME",
        "offset": 0,
        "slot": "104",
        "type": "t_bytes32"
      },
      {
        "astId": 7416,
        "contract": "contracts/Baal.sol:Baal",
        "label": "_HASHED_VERSION",
        "offset": 0,
        "slot": "105",
        "type": "t_bytes32"
      },
      {
        "astId": 7554,
        "contract": "contracts/Baal.sol:Baal",
        "label": "__gap",
        "offset": 0,
        "slot": "106",
        "type": "t_array(t_uint256)50_storage"
      },
      {
        "astId": 4904,
        "contract": "contracts/Baal.sol:Baal",
        "label": "_status",
        "offset": 0,
        "slot": "156",
        "type": "t_uint256"
      },
      {
        "astId": 4962,
        "contract": "contracts/Baal.sol:Baal",
        "label": "__gap",
        "offset": 0,
        "slot": "157",
        "type": "t_array(t_uint256)49_storage"
      },
      {
        "astId": 3815,
        "contract": "contracts/Baal.sol:Baal",
        "label": "_trustedForwarder",
        "offset": 0,
        "slot": "206",
        "type": "t_address"
      },
      {
        "astId": 10069,
        "contract": "contracts/Baal.sol:Baal",
        "label": "lootToken",
        "offset": 0,
        "slot": "207",
        "type": "t_contract(IBaalToken)14309"
      },
      {
        "astId": 10072,
        "contract": "contracts/Baal.sol:Baal",
        "label": "sharesToken",
        "offset": 0,
        "slot": "208",
        "type": "t_contract(IBaalToken)14309"
      },
      {
        "astId": 10077,
        "contract": "contracts/Baal.sol:Baal",
        "label": "votingPeriod",
        "offset": 20,
        "slot": "208",
        "type": "t_uint32"
      },
      {
        "astId": 10079,
        "contract": "contracts/Baal.sol:Baal",
        "label": "gracePeriod",
        "offset": 24,
        "slot": "208",
        "type": "t_uint32"
      },
      {
        "astId": 10081,
        "contract": "contracts/Baal.sol:Baal",
        "label": "proposalCount",
        "offset": 28,
        "slot": "208",
        "type": "t_uint32"
      },
      {
        "astId": 10083,
        "contract": "contracts/Baal.sol:Baal",
        "label": "proposalOffering",
        "offset": 0,
        "slot": "209",
        "type": "t_uint256"
      },
      {
        "astId": 10085,
        "contract": "contracts/Baal.sol:Baal",
        "label": "quorumPercent",
        "offset": 0,
        "slot": "210",
        "type": "t_uint256"
      },
      {
        "astId": 10087,
        "contract": "contracts/Baal.sol:Baal",
        "label": "sponsorThreshold",
        "offset": 0,
        "slot": "211",
        "type": "t_uint256"
      },
      {
        "astId": 10089,
        "contract": "contracts/Baal.sol:Baal",
        "label": "minRetentionPercent",
        "offset": 0,
        "slot": "212",
        "type": "t_uint256"
      },
      {
        "astId": 10091,
        "contract": "contracts/Baal.sol:Baal",
        "label": "adminLock",
        "offset": 0,
        "slot": "213",
        "type": "t_bool"
      },
      {
        "astId": 10093,
        "contract": "contracts/Baal.sol:Baal",
        "label": "managerLock",
        "offset": 1,
        "slot": "213",
        "type": "t_bool"
      },
      {
        "astId": 10095,
        "contract": "contracts/Baal.sol:Baal",
        "label": "governorLock",
        "offset": 2,
        "slot": "213",
        "type": "t_bool"
      },
      {
        "astId": 10099,
        "contract": "contracts/Baal.sol:Baal",
        "label": "shamans",
        "offset": 0,
        "slot": "214",
        "type": "t_mapping(t_address,t_uint256)"
      },
      {
        "astId": 10105,
        "contract": "contracts/Baal.sol:Baal",
        "label": "memberVoted",
        "offset": 0,
        "slot": "215",
        "type": "t_mapping(t_address,t_mapping(t_uint32,t_bool))"
      },
      {
        "astId": 10109,
        "contract": "contracts/Baal.sol:Baal",
        "label": "votingNonces",
        "offset": 0,
        "slot": "216",
        "type": "t_mapping(t_address,t_uint256)"
      },
      {
        "astId": 10114,
        "contract": "contracts/Baal.sol:Baal",
        "label": "proposals",
        "offset": 0,
        "slot": "217",
        "type": "t_mapping(t_uint256,t_struct(Proposal)10157_storage)"
      },
      {
        "astId": 10116,
        "contract": "contracts/Baal.sol:Baal",
        "label": "latestSponsoredProposalId",
        "offset": 0,
        "slot": "218",
        "type": "t_uint32"
      },
      {
        "astId": 10118,
        "contract": "contracts/Baal.sol:Baal",
        "label": "multisendLibrary",
        "offset": 4,
        "slot": "218",
        "type": "t_address"
      },
      {
        "astId": 10121,
        "contract": "contracts/Baal.sol:Baal",
        "label": "versionRecipient",
        "offset": 0,
        "slot": "219",
        "type": "t_string_storage"
      }
    ],
    "types": {
      "t_address": {
        "encoding": "inplace",
        "label": "address",
        "numberOfBytes": "20"
      },
      "t_array(t_bool)4_storage": {
        "base": "t_bool",
        "encoding": "inplace",
        "label": "bool[4]",
        "numberOfBytes": "32"
      },
      "t_array(t_uint256)49_storage": {
        "base": "t_uint256",
        "encoding": "inplace",
        "label": "uint256[49]",
        "numberOfBytes": "1568"
      },
      "t_array(t_uint256)50_storage": {
        "base": "t_uint256",
        "encoding": "inplace",
        "label": "uint256[50]",
        "numberOfBytes": "1600"
      },
      "t_bool": {
        "encoding": "inplace",
        "label": "bool",
        "numberOfBytes": "1"
      },
      "t_bytes32": {
        "encoding": "inplace",
        "label": "bytes32",
        "numberOfBytes": "32"
      },
      "t_contract(IBaalToken)14309": {
        "encoding": "inplace",
        "label": "contract IBaalToken",
        "numberOfBytes": "20"
      },
      "t_mapping(t_address,t_mapping(t_uint32,t_bool))": {
        "encoding": "mapping",
        "key": "t_address",
        "label": "mapping(address => mapping(uint32 => bool))",
        "numberOfBytes": "32",
        "value": "t_mapping(t_uint32,t_bool)"
      },
      "t_mapping(t_address,t_uint256)": {
        "encoding": "mapping",
        "key": "t_address",
        "label": "mapping(address => uint256)",
        "numberOfBytes": "32",
        "value": "t_uint256"
      },
      "t_mapping(t_uint256,t_struct(Proposal)10157_storage)": {
        "encoding": "mapping",
        "key": "t_uint256",
        "label": "mapping(uint256 => struct Baal.Proposal)",
        "numberOfBytes": "32",
        "value": "t_struct(Proposal)10157_storage"
      },
      "t_mapping(t_uint32,t_bool)": {
        "encoding": "mapping",
        "key": "t_uint32",
        "label": "mapping(uint32 => bool)",
        "numberOfBytes": "32",
        "value": "t_bool"
      },
      "t_string_storage": {
        "encoding": "bytes",
        "label": "string",
        "numberOfBytes": "32"
      },
      "t_struct(Proposal)10157_storage": {
        "encoding": "inplace",
        "label": "struct Baal.Proposal",
        "members": [
          {
            "astId": 10128,
            "contract": "contracts/Baal.sol:Baal",
            "label": "id",
            "offset": 0,
            "slot": "0",
            "type": "t_uint32"
          },
          {
            "astId": 10130,
            "contract": "contracts/Baal.sol:Baal",
            "label": "prevProposalId",
            "offset": 4,
            "slot": "0",
            "type": "t_uint32"
          },
          {
            "astId": 10132,
            "contract": "contracts/Baal.sol:Baal",
            "label": "votingStarts",
            "offset": 8,
            "slot": "0",
            "type": "t_uint32"
          },
          {
            "astId": 10134,
            "contract": "contracts/Baal.sol:Baal",
            "label": "votingEnds",
            "offset": 12,
            "slot": "0",
            "type": "t_uint32"
          },
          {
            "astId": 10136,
            "contract": "contracts/Baal.sol:Baal",
            "label": "graceEnds",
            "offset": 16,
            "slot": "0",
            "type": "t_uint32"
          },
          {
            "astId": 10138,
            "contract": "contracts/Baal.sol:Baal",
            "label": "expiration",
            "offset": 20,
            "slot": "0",
            "type": "t_uint32"
          },
          {
            "astId": 10140,
            "contract": "contracts/Baal.sol:Baal",
            "label": "baalGas",
            "offset": 0,
            "slot": "1",
            "type": "t_uint256"
          },
          {
            "astId": 10142,
            "contract": "contracts/Baal.sol:Baal",
            "label": "yesVotes",
            "offset": 0,
            "slot": "2",
            "type": "t_uint256"
          },
          {
            "astId": 10144,
            "contract": "contracts/Baal.sol:Baal",
            "label": "noVotes",
            "offset": 0,
            "slot": "3",
            "type": "t_uint256"
          },
          {
            "astId": 10146,
            "contract": "contracts/Baal.sol:Baal",
            "label": "maxTotalSharesAndLootAtVote",
            "offset": 0,
            "slot": "4",
            "type": "t_uint256"
          },
          {
            "astId": 10148,
            "contract": "contracts/Baal.sol:Baal",
            "label": "maxTotalSharesAtSponsor",
            "offset": 0,
            "slot": "5",
            "type": "t_uint256"
          },
          {
            "astId": 10152,
            "contract": "contracts/Baal.sol:Baal",
            "label": "status",
            "offset": 0,
            "slot": "6",
            "type": "t_array(t_bool)4_storage"
          },
          {
            "astId": 10154,
            "contract": "contracts/Baal.sol:Baal",
            "label": "sponsor",
            "offset": 0,
            "slot": "7",
            "type": "t_address"
          },
          {
            "astId": 10156,
            "contract": "contracts/Baal.sol:Baal",
            "label": "proposalDataHash",
            "offset": 0,
            "slot": "8",
            "type": "t_bytes32"
          }
        ],
        "numberOfBytes": "288"
      },
      "t_uint256": {
        "encoding": "inplace",
        "label": "uint256",
        "numberOfBytes": "32"
      },
      "t_uint32": {
        "encoding": "inplace",
        "label": "uint32",
        "numberOfBytes": "4"
      },
      "t_uint8": {
        "encoding": "inplace",
        "label": "uint8",
        "numberOfBytes": "1"
      }
    }
  }
}