{
  "address": "0x17234C0Ae25AF09fAf57B9D5ea2B93C1f220E800",
  "abi": [
    {
      "inputs": [],
      "stateMutability": "nonpayable",
      "type": "constructor"
    },
    {
      "inputs": [
        {
          "internalType": "address",
          "name": "guard_",
          "type": "address"
        }
      ],
      "name": "NotIERC165Compliant",
      "type": "error"
    },
    {
      "anonymous": false,
      "inputs": [
        {
          "indexed": true,
          "internalType": "address",
          "name": "owner",
          "type": "address"
        },
        {
          "indexed": true,
          "internalType": "address",
          "name": "spender",
          "type": "address"
        },
        {
          "indexed": false,
          "internalType": "uint256",
          "name": "amount",
          "type": "uint256"
        }
      ],
      "name": "Approval",
      "type": "event"
    },
    {
      "anonymous": false,
      "inputs": [
        {
          "indexed": true,
          "internalType": "address",
          "name": "previousAvatar",
          "type": "address"
        },
        {
          "indexed": true,
          "internalType": "address",
          "name": "newAvatar",
          "type": "address"
        }
      ],
      "name": "AvatarSet",
      "type": "event"
    },
    {
      "anonymous": false,
      "inputs": [
        {
          "indexed": true,
          "internalType": "uint256",
          "name": "proposal",
          "type": "uint256"
        }
      ],
      "name": "CancelProposal",
      "type": "event"
    },
    {
      "anonymous": false,
      "inputs": [
        {
          "indexed": false,
          "internalType": "address",
          "name": "guard",
          "type": "address"
        }
      ],
      "name": "ChangedGuard",
      "type": "event"
    },
    {
      "anonymous": false,
      "inputs": [
        {
          "indexed": false,
          "internalType": "uint32",
          "name": "voting",
          "type": "uint32"
        },
        {
          "indexed": false,
          "internalType": "uint32",
          "name": "grace",
          "type": "uint32"
        },
        {
          "indexed": false,
          "internalType": "uint256",
          "name": "newOffering",
          "type": "uint256"
        },
        {
          "indexed": false,
          "internalType": "uint256",
          "name": "quorum",
          "type": "uint256"
        },
        {
          "indexed": false,
          "internalType": "uint256",
          "name": "sponsor",
          "type": "uint256"
        },
        {
          "indexed": false,
          "internalType": "uint256",
          "name": "minRetention",
          "type": "uint256"
        }
      ],
      "name": "GovernanceConfigSet",
      "type": "event"
    },
    {
      "anonymous": false,
      "inputs": [
        {
          "indexed": false,
          "internalType": "uint8",
          "name": "version",
          "type": "uint8"
        }
      ],
      "name": "Initialized",
      "type": "event"
    },
    {
      "anonymous": false,
      "inputs": [
        {
          "indexed": false,
          "internalType": "bool",
          "name": "adminLock",
          "type": "bool"
        }
      ],
      "name": "LockAdmin",
      "type": "event"
    },
    {
      "anonymous": false,
      "inputs": [
        {
          "indexed": false,
          "internalType": "bool",
          "name": "governorLock",
          "type": "bool"
        }
      ],
      "name": "LockGovernor",
      "type": "event"
    },
    {
      "anonymous": false,
      "inputs": [
        {
          "indexed": false,
          "internalType": "bool",
          "name": "managerLock",
          "type": "bool"
        }
      ],
      "name": "LockManager",
      "type": "event"
    },
    {
      "anonymous": false,
      "inputs": [
        {
          "indexed": false,
          "internalType": "bool",
          "name": "paused",
          "type": "bool"
        }
      ],
      "name": "LootPaused",
      "type": "event"
    },
    {
      "anonymous": false,
      "inputs": [
        {
          "indexed": true,
          "internalType": "address",
          "name": "previousOwner",
          "type": "address"
        },
        {
          "indexed": true,
          "internalType": "address",
          "name": "newOwner",
          "type": "address"
        }
      ],
      "name": "OwnershipTransferred",
      "type": "event"
    },
    {
      "anonymous": false,
      "inputs": [
        {
          "indexed": true,
          "internalType": "uint256",
          "name": "proposal",
          "type": "uint256"
        },
        {
          "indexed": false,
          "internalType": "bool",
          "name": "passed",
          "type": "bool"
        },
        {
          "indexed": false,
          "internalType": "bool",
          "name": "actionFailed",
          "type": "bool"
        }
      ],
      "name": "ProcessProposal",
      "type": "event"
    },
    {
      "anonymous": false,
      "inputs": [
        {
          "indexed": true,
          "internalType": "address",
          "name": "member",
          "type": "address"
        },
        {
          "indexed": false,
          "internalType": "address",
          "name": "to",
          "type": "address"
        },
        {
          "indexed": true,
          "internalType": "uint256",
          "name": "lootToBurn",
          "type": "uint256"
        },
        {
          "indexed": true,
          "internalType": "uint256",
          "name": "sharesToBurn",
          "type": "uint256"
        },
        {
          "indexed": false,
          "internalType": "address[]",
          "name": "tokens",
          "type": "address[]"
        }
      ],
      "name": "Ragequit",
      "type": "event"
    },
    {
      "anonymous": false,
      "inputs": [
        {
          "indexed": true,
          "internalType": "address",
          "name": "forwarder",
          "type": "address"
        }
      ],
      "name": "SetTrustedForwarder",
      "type": "event"
    },
    {
      "anonymous": false,
      "inputs": [
        {
          "indexed": false,
          "internalType": "bool",
          "name": "lootPaused",
          "type": "bool"
        },
        {
          "indexed": false,
          "internalType": "bool",
          "name": "sharesPaused",
          "type": "bool"
        },
        {
          "indexed": false,
          "internalType": "uint32",
          "name": "gracePeriod",
          "type": "uint32"
        },
        {
          "indexed": false,
          "internalType": "uint32",
          "name": "votingPeriod",
          "type": "uint32"
        },
        {
          "indexed": false,
          "internalType": "uint256",
          "name": "proposalOffering",
          "type": "uint256"
        },
        {
          "indexed": false,
          "internalType": "uint256",
          "name": "quorumPercent",
          "type": "uint256"
        },
        {
          "indexed": false,
          "internalType": "uint256",
          "name": "sponsorThreshold",
          "type": "uint256"
        },
        {
          "indexed": false,
          "internalType": "uint256",
          "name": "minRetentionPercent",
          "type": "uint256"
        },
        {
          "indexed": false,
          "internalType": "string",
          "name": "name",
          "type": "string"
        },
        {
          "indexed": false,
          "internalType": "string",
          "name": "symbol",
          "type": "string"
        },
        {
          "indexed": false,
          "internalType": "uint256",
          "name": "totalShares",
          "type": "uint256"
        },
        {
          "indexed": false,
          "internalType": "uint256",
          "name": "totalLoot",
          "type": "uint256"
        }
      ],
      "name": "SetupComplete",
      "type": "event"
    },
    {
      "anonymous": false,
      "inputs": [
        {
          "indexed": true,
          "internalType": "address",
          "name": "shaman",
          "type": "address"
        },
        {
          "indexed": false,
          "internalType": "uint256",
          "name": "permission",
          "type": "uint256"
        }
      ],
      "name": "ShamanSet",
      "type": "event"
    },
    {
      "anonymous": false,
      "inputs": [
        {
          "indexed": false,
          "internalType": "bool",
          "name": "paused",
          "type": "bool"
        }
      ],
      "name": "SharesPaused",
      "type": "event"
    },
    {
      "anonymous": false,
      "inputs": [
        {
          "indexed": true,
          "internalType": "address",
          "name": "member",
          "type": "address"
        },
        {
          "indexed": true,
          "internalType": "uint256",
          "name": "proposal",
          "type": "uint256"
        },
        {
          "indexed": true,
          "internalType": "uint256",
          "name": "votingStarts",
          "type": "uint256"
        }
      ],
      "name": "SponsorProposal",
      "type": "event"
    },
    {
      "anonymous": false,
      "inputs": [
        {
          "indexed": true,
          "internalType": "uint256",
          "name": "proposal",
          "type": "uint256"
        },
        {
          "indexed": true,
          "internalType": "bytes32",
          "name": "proposalDataHash",
          "type": "bytes32"
        },
        {
          "indexed": false,
          "internalType": "uint256",
          "name": "votingPeriod",
          "type": "uint256"
        },
        {
          "indexed": false,
          "internalType": "bytes",
          "name": "proposalData",
          "type": "bytes"
        },
        {
          "indexed": false,
          "internalType": "uint256",
          "name": "expiration",
          "type": "uint256"
        },
        {
          "indexed": false,
          "internalType": "uint256",
          "name": "baalGas",
          "type": "uint256"
        },
        {
          "indexed": false,
          "internalType": "bool",
          "name": "selfSponsor",
          "type": "bool"
        },
        {
          "indexed": false,
          "internalType": "uint256",
          "name": "timestamp",
          "type": "uint256"
        },
        {
          "indexed": false,
          "internalType": "string",
          "name": "details",
          "type": "string"
        }
      ],
      "name": "SubmitProposal",
      "type": "event"
    },
    {
      "anonymous": false,
      "inputs": [
        {
          "indexed": true,
          "internalType": "address",
          "name": "member",
          "type": "address"
        },
        {
          "indexed": false,
          "internalType": "uint256",
          "name": "balance",
          "type": "uint256"
        },
        {
          "indexed": true,
          "internalType": "uint256",
          "name": "proposal",
          "type": "uint256"
        },
        {
          "indexed": true,
          "internalType": "bool",
          "name": "approved",
          "type": "bool"
        }
      ],
      "name": "SubmitVote",
      "type": "event"
    },
    {
      "anonymous": false,
      "inputs": [
        {
          "indexed": true,
          "internalType": "address",
          "name": "previousTarget",
          "type": "address"
        },
        {
          "indexed": true,
          "internalType": "address",
          "name": "newTarget",
          "type": "address"
        }
      ],
      "name": "TargetSet",
      "type": "event"
    },
    {
      "inputs": [],
      "name": "adminLock",
      "outputs": [
        {
          "internalType": "bool",
          "name": "",
          "type": "bool"
        }
      ],
      "stateMutability": "view",
      "type": "function"
    },
    {
      "inputs": [],
      "name": "avatar",
      "outputs": [
        {
          "internalType": "address",
          "name": "",
          "type": "address"
        }
      ],
      "stateMutability": "view",
      "type": "function"
    },
    {
      "inputs": [
        {
          "internalType": "address[]",
          "name": "from",
          "type": "address[]"
        },
        {
          "internalType": "uint256[]",
          "name": "amount",
          "type": "uint256[]"
        }
      ],
      "name": "burnLoot",
      "outputs": [],
      "stateMutability": "nonpayable",
      "type": "function"
    },
    {
      "inputs": [
        {
          "internalType": "address[]",
          "name": "from",
          "type": "address[]"
        },
        {
          "internalType": "uint256[]",
          "name": "amount",
          "type": "uint256[]"
        }
      ],
      "name": "burnShares",
      "outputs": [],
      "stateMutability": "nonpayable",
      "type": "function"
    },
    {
      "inputs": [
        {
          "internalType": "uint32",
          "name": "id",
          "type": "uint32"
        }
      ],
      "name": "cancelProposal",
      "outputs": [],
      "stateMutability": "nonpayable",
      "type": "function"
    },
    {
      "inputs": [
        {
          "internalType": "bytes[]",
          "name": "_calls",
          "type": "bytes[]"
        },
        {
          "internalType": "address",
          "name": "_target",
          "type": "address"
        }
      ],
      "name": "encodeMultisend",
      "outputs": [
        {
          "internalType": "bytes",
          "name": "encodedMultisend",
          "type": "bytes"
        }
      ],
      "stateMutability": "pure",
      "type": "function"
    },
    {
      "inputs": [
        {
          "internalType": "address",
          "name": "_to",
          "type": "address"
        },
        {
          "internalType": "uint256",
          "name": "_value",
          "type": "uint256"
        },
        {
          "internalType": "bytes",
          "name": "_data",
          "type": "bytes"
        }
      ],
      "name": "executeAsBaal",
      "outputs": [],
      "stateMutability": "nonpayable",
      "type": "function"
    },
    {
      "inputs": [],
      "name": "getGuard",
      "outputs": [
        {
          "internalType": "address",
          "name": "_guard",
          "type": "address"
        }
      ],
      "stateMutability": "view",
      "type": "function"
    },
    {
      "inputs": [
        {
          "internalType": "uint32",
          "name": "id",
          "type": "uint32"
        }
      ],
      "name": "getProposalStatus",
      "outputs": [
        {
          "internalType": "bool[4]",
          "name": "",
          "type": "bool[4]"
        }
      ],
      "stateMutability": "view",
      "type": "function"
    },
    {
      "inputs": [],
      "name": "governorLock",
      "outputs": [
        {
          "internalType": "bool",
          "name": "",
          "type": "bool"
        }
      ],
      "stateMutability": "view",
      "type": "function"
    },
    {
      "inputs": [],
      "name": "gracePeriod",
      "outputs": [
        {
          "internalType": "uint32",
          "name": "",
          "type": "uint32"
        }
      ],
      "stateMutability": "view",
      "type": "function"
    },
    {
      "inputs": [],
      "name": "guard",
      "outputs": [
        {
          "internalType": "address",
          "name": "",
          "type": "address"
        }
      ],
      "stateMutability": "view",
      "type": "function"
    },
    {
      "inputs": [
        {
          "internalType": "bytes",
          "name": "_transactions",
          "type": "bytes"
        }
      ],
      "name": "hashOperation",
      "outputs": [
        {
          "internalType": "bytes32",
          "name": "hash",
          "type": "bytes32"
        }
      ],
      "stateMutability": "pure",
      "type": "function"
    },
    {
      "inputs": [
        {
          "internalType": "address",
          "name": "shaman",
          "type": "address"
        }
      ],
      "name": "isAdmin",
      "outputs": [
        {
          "internalType": "bool",
          "name": "",
          "type": "bool"
        }
      ],
      "stateMutability": "view",
      "type": "function"
    },
    {
      "inputs": [
        {
          "internalType": "address",
          "name": "shaman",
          "type": "address"
        }
      ],
      "name": "isGovernor",
      "outputs": [
        {
          "internalType": "bool",
          "name": "",
          "type": "bool"
        }
      ],
      "stateMutability": "view",
      "type": "function"
    },
    {
      "inputs": [
        {
          "internalType": "address",
          "name": "shaman",
          "type": "address"
        }
      ],
      "name": "isManager",
      "outputs": [
        {
          "internalType": "bool",
          "name": "",
          "type": "bool"
        }
      ],
      "stateMutability": "view",
      "type": "function"
    },
    {
      "inputs": [
        {
          "internalType": "address",
          "name": "forwarder",
          "type": "address"
        }
      ],
      "name": "isTrustedForwarder",
      "outputs": [
        {
          "internalType": "bool",
          "name": "",
          "type": "bool"
        }
      ],
      "stateMutability": "view",
      "type": "function"
    },
    {
      "inputs": [],
      "name": "latestSponsoredProposalId",
      "outputs": [
        {
          "internalType": "uint32",
          "name": "",
          "type": "uint32"
        }
      ],
      "stateMutability": "view",
      "type": "function"
    },
    {
      "inputs": [],
      "name": "lockAdmin",
      "outputs": [],
      "stateMutability": "nonpayable",
      "type": "function"
    },
    {
      "inputs": [],
      "name": "lockGovernor",
      "outputs": [],
      "stateMutability": "nonpayable",
      "type": "function"
    },
    {
      "inputs": [],
      "name": "lockManager",
      "outputs": [],
      "stateMutability": "nonpayable",
      "type": "function"
    },
    {
      "inputs": [],
      "name": "lootToken",
      "outputs": [
        {
          "internalType": "contract IBaalToken",
          "name": "",
          "type": "address"
        }
      ],
      "stateMutability": "view",
      "type": "function"
    },
    {
      "inputs": [],
      "name": "managerLock",
      "outputs": [
        {
          "internalType": "bool",
          "name": "",
          "type": "bool"
        }
      ],
      "stateMutability": "view",
      "type": "function"
    },
    {
      "inputs": [
        {
          "internalType": "address",
          "name": "",
          "type": "address"
        },
        {
          "internalType": "uint32",
          "name": "",
          "type": "uint32"
        }
      ],
      "name": "memberVoted",
      "outputs": [
        {
          "internalType": "bool",
          "name": "",
          "type": "bool"
        }
      ],
      "stateMutability": "view",
      "type": "function"
    },
    {
      "inputs": [],
      "name": "minRetentionPercent",
      "outputs": [
        {
          "internalType": "uint256",
          "name": "",
          "type": "uint256"
        }
      ],
      "stateMutability": "view",
      "type": "function"
    },
    {
      "inputs": [
        {
          "internalType": "address[]",
          "name": "to",
          "type": "address[]"
        },
        {
          "internalType": "uint256[]",
          "name": "amount",
          "type": "uint256[]"
        }
      ],
      "name": "mintLoot",
      "outputs": [],
      "stateMutability": "nonpayable",
      "type": "function"
    },
    {
      "inputs": [
        {
          "internalType": "address[]",
          "name": "to",
          "type": "address[]"
        },
        {
          "internalType": "uint256[]",
          "name": "amount",
          "type": "uint256[]"
        }
      ],
      "name": "mintShares",
      "outputs": [],
      "stateMutability": "nonpayable",
      "type": "function"
    },
    {
      "inputs": [],
      "name": "multisendLibrary",
      "outputs": [
        {
          "internalType": "address",
          "name": "",
          "type": "address"
        }
      ],
      "stateMutability": "view",
      "type": "function"
    },
    {
      "inputs": [],
      "name": "owner",
      "outputs": [
        {
          "internalType": "address",
          "name": "",
          "type": "address"
        }
      ],
      "stateMutability": "view",
      "type": "function"
    },
    {
      "inputs": [
        {
          "internalType": "uint32",
          "name": "id",
          "type": "uint32"
        },
        {
          "internalType": "bytes",
          "name": "proposalData",
          "type": "bytes"
        }
      ],
      "name": "processProposal",
      "outputs": [],
      "stateMutability": "nonpayable",
      "type": "function"
    },
    {
      "inputs": [],
      "name": "proposalCount",
      "outputs": [
        {
          "internalType": "uint32",
          "name": "",
          "type": "uint32"
        }
      ],
      "stateMutability": "view",
      "type": "function"
    },
    {
      "inputs": [],
      "name": "proposalOffering",
      "outputs": [
        {
          "internalType": "uint256",
          "name": "",
          "type": "uint256"
        }
      ],
      "stateMutability": "view",
      "type": "function"
    },
    {
      "inputs": [
        {
          "internalType": "uint256",
          "name": "",
          "type": "uint256"
        }
      ],
      "name": "proposals",
      "outputs": [
        {
          "internalType": "uint32",
          "name": "id",
          "type": "uint32"
        },
        {
          "internalType": "uint32",
          "name": "prevProposalId",
          "type": "uint32"
        },
        {
          "internalType": "uint32",
          "name": "votingStarts",
          "type": "uint32"
        },
        {
          "internalType": "uint32",
          "name": "votingEnds",
          "type": "uint32"
        },
        {
          "internalType": "uint32",
          "name": "graceEnds",
          "type": "uint32"
        },
        {
          "internalType": "uint32",
          "name": "expiration",
          "type": "uint32"
        },
        {
          "internalType": "uint256",
          "name": "baalGas",
          "type": "uint256"
        },
        {
          "internalType": "uint256",
          "name": "yesVotes",
          "type": "uint256"
        },
        {
          "internalType": "uint256",
          "name": "noVotes",
          "type": "uint256"
        },
        {
          "internalType": "uint256",
          "name": "maxTotalSharesAndLootAtVote",
          "type": "uint256"
        },
        {
          "internalType": "address",
          "name": "sponsor",
          "type": "address"
        },
        {
          "internalType": "bytes32",
          "name": "proposalDataHash",
          "type": "bytes32"
        }
      ],
      "stateMutability": "view",
      "type": "function"
    },
    {
      "inputs": [],
      "name": "quorumPercent",
      "outputs": [
        {
          "internalType": "uint256",
          "name": "",
          "type": "uint256"
        }
      ],
      "stateMutability": "view",
      "type": "function"
    },
    {
      "inputs": [
        {
          "internalType": "address",
          "name": "to",
          "type": "address"
        },
        {
          "internalType": "uint256",
          "name": "sharesToBurn",
          "type": "uint256"
        },
        {
          "internalType": "uint256",
          "name": "lootToBurn",
          "type": "uint256"
        },
        {
          "internalType": "address[]",
          "name": "tokens",
          "type": "address[]"
        }
      ],
      "name": "ragequit",
      "outputs": [],
      "stateMutability": "nonpayable",
      "type": "function"
    },
    {
      "inputs": [],
      "name": "renounceOwnership",
      "outputs": [],
      "stateMutability": "nonpayable",
      "type": "function"
    },
    {
      "inputs": [
        {
          "internalType": "bool",
          "name": "pauseShares",
          "type": "bool"
        },
        {
          "internalType": "bool",
          "name": "pauseLoot",
          "type": "bool"
        }
      ],
      "name": "setAdminConfig",
      "outputs": [],
      "stateMutability": "nonpayable",
      "type": "function"
    },
    {
      "inputs": [
        {
          "internalType": "address",
          "name": "_avatar",
          "type": "address"
        }
      ],
      "name": "setAvatar",
      "outputs": [],
      "stateMutability": "nonpayable",
      "type": "function"
    },
    {
      "inputs": [
        {
          "internalType": "bytes",
          "name": "_governanceConfig",
          "type": "bytes"
        }
      ],
      "name": "setGovernanceConfig",
      "outputs": [],
      "stateMutability": "nonpayable",
      "type": "function"
    },
    {
      "inputs": [
        {
          "internalType": "address",
          "name": "_guard",
          "type": "address"
        }
      ],
      "name": "setGuard",
      "outputs": [],
      "stateMutability": "nonpayable",
      "type": "function"
    },
    {
      "inputs": [
        {
          "internalType": "address[]",
          "name": "_shamans",
          "type": "address[]"
        },
        {
          "internalType": "uint256[]",
          "name": "_permissions",
          "type": "uint256[]"
        }
      ],
      "name": "setShamans",
      "outputs": [],
      "stateMutability": "nonpayable",
      "type": "function"
    },
    {
      "inputs": [
        {
          "internalType": "address",
          "name": "_target",
          "type": "address"
        }
      ],
      "name": "setTarget",
      "outputs": [],
      "stateMutability": "nonpayable",
      "type": "function"
    },
    {
      "inputs": [
        {
          "internalType": "address",
          "name": "_trustedForwarderAddress",
          "type": "address"
        }
      ],
      "name": "setTrustedForwarder",
      "outputs": [],
      "stateMutability": "nonpayable",
      "type": "function"
    },
    {
      "inputs": [
        {
          "internalType": "bytes",
          "name": "_initializationParams",
          "type": "bytes"
        }
      ],
      "name": "setUp",
      "outputs": [],
      "stateMutability": "nonpayable",
      "type": "function"
    },
    {
      "inputs": [
        {
          "internalType": "address",
          "name": "",
          "type": "address"
        }
      ],
      "name": "shamans",
      "outputs": [
        {
          "internalType": "uint256",
          "name": "",
          "type": "uint256"
        }
      ],
      "stateMutability": "view",
      "type": "function"
    },
    {
      "inputs": [],
      "name": "sharesToken",
      "outputs": [
        {
          "internalType": "contract IBaalToken",
          "name": "",
          "type": "address"
        }
      ],
      "stateMutability": "view",
      "type": "function"
    },
    {
      "inputs": [
        {
          "internalType": "uint32",
          "name": "id",
          "type": "uint32"
        }
      ],
      "name": "sponsorProposal",
      "outputs": [],
      "stateMutability": "nonpayable",
      "type": "function"
    },
    {
      "inputs": [],
      "name": "sponsorThreshold",
      "outputs": [
        {
          "internalType": "uint256",
          "name": "",
          "type": "uint256"
        }
      ],
      "stateMutability": "view",
      "type": "function"
    },
    {
      "inputs": [
        {
          "internalType": "uint32",
          "name": "id",
          "type": "uint32"
        }
      ],
      "name": "state",
      "outputs": [
        {
          "internalType": "enum Baal.ProposalState",
          "name": "",
          "type": "uint8"
        }
      ],
      "stateMutability": "view",
      "type": "function"
    },
    {
      "inputs": [
        {
          "internalType": "bytes",
          "name": "proposalData",
          "type": "bytes"
        },
        {
          "internalType": "uint32",
          "name": "expiration",
          "type": "uint32"
        },
        {
          "internalType": "uint256",
          "name": "baalGas",
          "type": "uint256"
        },
        {
          "internalType": "string",
          "name": "details",
          "type": "string"
        }
      ],
      "name": "submitProposal",
      "outputs": [
        {
          "internalType": "uint256",
          "name": "",
          "type": "uint256"
        }
      ],
      "stateMutability": "payable",
      "type": "function"
    },
    {
      "inputs": [
        {
          "internalType": "uint32",
          "name": "id",
          "type": "uint32"
        },
        {
          "internalType": "bool",
          "name": "approved",
          "type": "bool"
        }
      ],
      "name": "submitVote",
      "outputs": [],
      "stateMutability": "nonpayable",
      "type": "function"
    },
    {
      "inputs": [
        {
          "internalType": "address",
          "name": "voter",
          "type": "address"
        },
        {
          "internalType": "uint256",
          "name": "expiry",
          "type": "uint256"
        },
        {
          "internalType": "uint256",
          "name": "nonce",
          "type": "uint256"
        },
        {
          "internalType": "uint32",
          "name": "id",
          "type": "uint32"
        },
        {
          "internalType": "bool",
          "name": "approved",
          "type": "bool"
        },
        {
          "internalType": "uint8",
          "name": "v",
          "type": "uint8"
        },
        {
          "internalType": "bytes32",
          "name": "r",
          "type": "bytes32"
        },
        {
          "internalType": "bytes32",
          "name": "s",
          "type": "bytes32"
        }
      ],
      "name": "submitVoteWithSig",
      "outputs": [],
      "stateMutability": "nonpayable",
      "type": "function"
    },
    {
      "inputs": [],
      "name": "target",
      "outputs": [
        {
          "internalType": "address",
          "name": "",
          "type": "address"
        }
      ],
      "stateMutability": "view",
      "type": "function"
    },
    {
      "inputs": [],
      "name": "totalLoot",
      "outputs": [
        {
          "internalType": "uint256",
          "name": "",
          "type": "uint256"
        }
      ],
      "stateMutability": "view",
      "type": "function"
    },
    {
      "inputs": [],
      "name": "totalShares",
      "outputs": [
        {
          "internalType": "uint256",
          "name": "",
          "type": "uint256"
        }
      ],
      "stateMutability": "view",
      "type": "function"
    },
    {
      "inputs": [],
      "name": "totalSupply",
      "outputs": [
        {
          "internalType": "uint256",
          "name": "",
          "type": "uint256"
        }
      ],
      "stateMutability": "view",
      "type": "function"
    },
    {
      "inputs": [
        {
          "internalType": "address",
          "name": "newOwner",
          "type": "address"
        }
      ],
      "name": "transferOwnership",
      "outputs": [],
      "stateMutability": "nonpayable",
      "type": "function"
    },
    {
      "inputs": [],
      "name": "trustedForwarder",
      "outputs": [
        {
          "internalType": "address",
          "name": "",
          "type": "address"
        }
      ],
      "stateMutability": "view",
      "type": "function"
    },
    {
      "inputs": [],
      "name": "versionRecipient",
      "outputs": [
        {
          "internalType": "string",
          "name": "",
          "type": "string"
        }
      ],
      "stateMutability": "view",
      "type": "function"
    },
    {
      "inputs": [
        {
          "internalType": "address",
          "name": "",
          "type": "address"
        }
      ],
      "name": "votingNonces",
      "outputs": [
        {
          "internalType": "uint256",
          "name": "",
          "type": "uint256"
        }
      ],
      "stateMutability": "view",
      "type": "function"
    },
    {
      "inputs": [],
      "name": "votingPeriod",
      "outputs": [
        {
          "internalType": "uint32",
          "name": "",
          "type": "uint32"
        }
      ],
      "stateMutability": "view",
      "type": "function"
    }
  ],
  "args": [],
  "numDeployments": 4,
  "linkedData": {},
  "solcInputHash": "a128f2a31ecf0f1507d09c047cd019fe",
  "bytecode": "0x60806040523480156200001157600080fd5b506200001c62000022565b620000e4565b600054610100900460ff16156200008f5760405162461bcd60e51b815260206004820152602760248201527f496e697469616c697a61626c653a20636f6e747261637420697320696e697469604482015266616c697a696e6760c81b606482015260840160405180910390fd5b60005460ff9081161015620000e2576000805460ff191660ff9081179091556040519081527f7f26b83ff96e1f2b6a682f133852f6798a09c465da95921460cefb38474024989060200160405180910390a15b565b615d8680620000f46000396000f3fe6080604052600436106103a25760003560e01c80638009ba1f116101e7578063cf043df31161010d578063ed0cdf15116100a0578063f460124d1161006f578063f460124d14610beb578063f81cbd2614610c0b578063fab514c014610c21578063fe47668614610c4157600080fd5b8063ed0cdf1514610b6b578063ee4d88ed14610b8b578063f2fde38b14610bab578063f3ae241514610bcb57600080fd5b8063da35c664116100dc578063da35c66414610ae7578063da74222814610b0b578063e19a9dd914610b2b578063e43581b814610b4b57600080fd5b8063cf043df314610a4c578063d33defc714610a6c578063d4b8399214610aa7578063d61f27ae14610ac757600080fd5b8063a4f9edbf11610185578063b634e4e011610154578063b634e4e0146109cb578063c00d0775146109e8578063c4e931f614610a0f578063c910638914610a2e57600080fd5b8063a4f9edbf14610956578063acca30a214610976578063b1e3f40c1461098b578063b3c98bbb146109ab57600080fd5b806398a527cc116101c157806398a527cc146108dc5780639a2f747f146108fc578063a06db7dc14610912578063a26ec96e1461093657600080fd5b80638009ba1f1461088857806383bf8459146108a85780638da5cb5b146108be57600080fd5b80634526d846116102cc5780635ec286961161026a578063715018a611610239578063715018a614610815578063776d1a011461082a5780637ceab3b11461084a5780637da0a8771461086a57600080fd5b80635ec28696146107a0578063635e99aa146107c057806367f61f07146107d5578063706a6e93146107f557600080fd5b806352ba1da7116102a657806352ba1da7146106f6578063572b6c05146107235780635aef7de6146107525780635cfd6f7e1461078a57600080fd5b80634526d846146106875780634630affc146106a7578063486ff0cd146106d457600080fd5b8063136d731a11610344578063258bfe2f11610313578063258bfe2f146106125780633232444c146106325780633a82ffc81461065f5780633a98ef391461067257600080fd5b8063136d731a146105a557806316fd265d146105ba57806318160ddd146105cf57806324d7806c146105f257600080fd5b8063056b0dcd11610380578063056b0dcd14610523578063086cfca8146105455780630a796e19146105655780630f656a211461058557600080fd5b8063013cf08b146103a7578063027cdf45146104c057806302a251a3146104ea575b600080fd5b3480156103b357600080fd5b506104436103c23660046155b9565b60d960205260009081526040902080546001820154600283015460038401546004850154600686015460079096015463ffffffff80871697600160201b8804821697600160401b8104831697600160601b8204841697600160801b8304851697600160a01b909304909416959094919290916001600160a01b03909116908c565b6040805163ffffffff9d8e1681529b8d1660208d0152998c16998b0199909952968a1660608a015294891660808901529790921660a087015260c086015260e08501526101008401949094526101208301939093526001600160a01b03909216610140820152610160810191909152610180015b60405180910390f35b3480156104cc57600080fd5b5060d5546104da9060ff1681565b60405190151581526020016104b7565b3480156104f657600080fd5b5060d05461050e90600160a01b900463ffffffff1681565b60405163ffffffff90911681526020016104b7565b34801561052f57600080fd5b5061054361053e366004615432565b610c6e565b005b34801561055157600080fd5b5061054361056036600461509d565b6111b5565b34801561057157600080fd5b506105436105803660046155eb565b61120f565b34801561059157600080fd5b506105436105a03660046152dd565b611545565b3480156105b157600080fd5b506105436117f3565b3480156105c657600080fd5b50610543611884565b3480156105db57600080fd5b506105e46118fe565b6040519081526020016104b7565b3480156105fe57600080fd5b506104da61060d36600461509d565b61191f565b34801561061e57600080fd5b506105e461062d36600461553d565b611964565b34801561063e57600080fd5b506105e461064d36600461509d565b60d66020526000908152604090205481565b6105e461066d3660046154b0565b611994565b34801561067e57600080fd5b506105e4611fd0565b34801561069357600080fd5b506105436106a23660046152dd565b61204d565b3480156106b357600080fd5b506106c76106c23660046155eb565b61211c565b6040516104b79190615901565b3480156106e057600080fd5b506106e961218d565b6040516104b791906159ba565b34801561070257600080fd5b506105e461071136600461509d565b60d86020526000908152604090205481565b34801561072f57600080fd5b506104da61073e36600461509d565b60ce546001600160a01b0391821691161490565b34801561075e57600080fd5b50606654610772906001600160a01b031681565b6040516001600160a01b0390911681526020016104b7565b34801561079657600080fd5b506105e460d35481565b3480156107ac57600080fd5b506105436107bb3660046152dd565b61221b565b3480156107cc57600080fd5b506105e46122ea565b3480156107e157600080fd5b506105436107f0366004615608565b61232f565b34801561080157600080fd5b50610543610810366004615626565b612353565b34801561082157600080fd5b5061054361273f565b34801561083657600080fd5b5061054361084536600461509d565b612753565b34801561085657600080fd5b50606554610772906001600160a01b031681565b34801561087657600080fd5b5060ce546001600160a01b0316610772565b34801561089457600080fd5b5060d054610772906001600160a01b031681565b3480156108b457600080fd5b506105e460d45481565b3480156108ca57600080fd5b506033546001600160a01b0316610772565b3480156108e857600080fd5b506105436108f73660046152dd565b6127ad565b34801561090857600080fd5b506105e460d15481565b34801561091e57600080fd5b5060d05461050e90600160c01b900463ffffffff1681565b34801561094257600080fd5b5060d5546104da9062010000900460ff1681565b34801561096257600080fd5b5061054361097136600461553d565b61287c565b34801561098257600080fd5b50610543612e0a565b34801561099757600080fd5b506105436109a63660046152dd565b612e8f565b3480156109b757600080fd5b506105436109c6366004615157565b612f5e565b3480156109d757600080fd5b5060da5461050e9063ffffffff1681565b3480156109f457600080fd5b5060da5461077290600160201b90046001600160a01b031681565b348015610a1b57600080fd5b5060d5546104da90610100900460ff1681565b348015610a3a57600080fd5b506065546001600160a01b0316610772565b348015610a5857600080fd5b50610543610a6736600461521b565b61303f565b348015610a7857600080fd5b506104da610a873660046152a4565b60d760209081526000928352604080842090915290825290205460ff1681565b348015610ab357600080fd5b50606754610772906001600160a01b031681565b348015610ad357600080fd5b506106e9610ae236600461533c565b613319565b348015610af357600080fd5b5060d05461050e90600160e01b900463ffffffff1681565b348015610b1757600080fd5b50610543610b2636600461509d565b6133e0565b348015610b3757600080fd5b50610543610b4636600461509d565b61348f565b348015610b5757600080fd5b506104da610b6636600461509d565b6135a0565b348015610b7757600080fd5b50610543610b863660046151b2565b6135e1565b348015610b9757600080fd5b50610543610ba636600461553d565b6136f0565b348015610bb757600080fd5b50610543610bc636600461509d565b61394e565b348015610bd757600080fd5b506104da610be636600461509d565b6139c4565b348015610bf757600080fd5b5060cf54610772906001600160a01b031681565b348015610c1757600080fd5b506105e460d25481565b348015610c2d57600080fd5b50610543610c3c3660046155eb565b613a04565b348015610c4d57600080fd5b50610c61610c5c3660046155eb565b613bd8565b6040516104b791906159cd565b6066546001600160a01b0316610c82613da9565b6001600160a01b03161480610c9d5750610c9d61060d613da9565b610cdf5760405162461bcd60e51b815260206004820152600e60248201526d10b130b0b610131010b0b236b4b760911b60448201526064015b60405180910390fd5b818015610d6f575060d060009054906101000a90046001600160a01b03166001600160a01b0316635c975abb6040518163ffffffff1660e01b815260040160206040518083038186803b158015610d3557600080fd5b505afa158015610d49573d6000803e3d6000fd5b505050506040513d601f19601f82011682018060405250810190610d6d9190615415565b155b15610e165760d060009054906101000a90046001600160a01b03166001600160a01b0316638456cb596040518163ffffffff1660e01b8152600401600060405180830381600087803b158015610dc457600080fd5b505af1158015610dd8573d6000803e3d6000fd5b5050604051600181527f5544d0c1539dae939ba6e81485fb6352e3081f5a74f9bf445038bdcc358e34159250602001905060405180910390a1610f48565b81158015610ea5575060d060009054906101000a90046001600160a01b03166001600160a01b0316635c975abb6040518163ffffffff1660e01b815260040160206040518083038186803b158015610e6d57600080fd5b505afa158015610e81573d6000803e3d6000fd5b505050506040513d601f19601f82011682018060405250810190610ea59190615415565b15610f485760d060009054906101000a90046001600160a01b03166001600160a01b0316633f4ba83a6040518163ffffffff1660e01b8152600401600060405180830381600087803b158015610efa57600080fd5b505af1158015610f0e573d6000803e3d6000fd5b5050604051600081527f5544d0c1539dae939ba6e81485fb6352e3081f5a74f9bf445038bdcc358e34159250602001905060405180910390a15b808015610fd8575060cf60009054906101000a90046001600160a01b03166001600160a01b0316635c975abb6040518163ffffffff1660e01b815260040160206040518083038186803b158015610f9e57600080fd5b505afa158015610fb2573d6000803e3d6000fd5b505050506040513d601f19601f82011682018060405250810190610fd69190615415565b155b1561107f5760cf60009054906101000a90046001600160a01b03166001600160a01b0316638456cb596040518163ffffffff1660e01b8152600401600060405180830381600087803b15801561102d57600080fd5b505af1158015611041573d6000803e3d6000fd5b5050604051600181527f21b897e32ff7464f696022c4d6dfbf2d4eb300d162ad28e0d90f1136f5fea9cb925060200190505b60405180910390a15050565b8015801561110e575060cf60009054906101000a90046001600160a01b03166001600160a01b0316635c975abb6040518163ffffffff1660e01b815260040160206040518083038186803b1580156110d657600080fd5b505afa1580156110ea573d6000803e3d6000fd5b505050506040513d601f19601f8201168201806040525081019061110e9190615415565b156111b15760cf60009054906101000a90046001600160a01b03166001600160a01b0316633f4ba83a6040518163ffffffff1660e01b8152600401600060405180830381600087803b15801561116357600080fd5b505af1158015611177573d6000803e3d6000fd5b5050604051600081527f21b897e32ff7464f696022c4d6dfbf2d4eb300d162ad28e0d90f1136f5fea9cb9250602001905060405180910390a15b5050565b6111bd613db3565b606680546001600160a01b038381166001600160a01b0319831681179093556040519116919082907f52ae88b092de36f87fb43fe794eb1381023b9c1bce563a871154022c63dce34290600090a35050565b611217613e2c565b63ffffffff8116600090815260d96020526040902060d35460d0546001600160a01b0316639ab24eb0611248613da9565b6040516001600160e01b031960e084901b1681526001600160a01b03909116600482015260240160206040518083038186803b15801561128757600080fd5b505afa15801561129b573d6000803e3d6000fd5b505050506040513d601f19601f820116820180604052508101906112bf91906155d2565b10156112f85760405162461bcd60e51b815260206004820152600860248201526710b9b837b739b7b960c11b6044820152606401610cd6565b600161130383613bd8565b600781111561131457611314615cac565b1461134e5760405162461bcd60e51b815260206004820152600a602482015269085cdd589b5a5d1d195960b21b6044820152606401610cd6565b8054600160a01b900463ffffffff1615806113a4575060d05463ffffffff600160c01b820481169161138991600160a01b9091041642615b5a565b6113939190615b5a565b8154600160a01b900463ffffffff16115b6113da5760405162461bcd60e51b8152602060048201526007602482015266195e1c1a5c995960ca1b6044820152606401610cd6565b805463ffffffff42818116600160401b026bffffffff00000000000000001984168117855560d08054600160a01b90819004851684018516600160601b0263ffffffff60601b1990931667ffffffffffffffff60401b19909616959095179190911780865590549384048316909101600160c01b9093048216929092018116600160801b0263ffffffff60801b1983168117845560da54600160201b92169190910267ffffffff000000001990911673ffffffff0000000000000000ffffffff0000000019909216919091171781556114b1613da9565b6006820180546001600160a01b0319166001600160a01b03929092169190911790556114db6118fe565b600482015560da805463ffffffff191663ffffffff84169081179091554290611502613da9565b6001600160a01b03167fd45ad122361f16d6f50d7c4a73638f20ee48eff6186af15224e2a4a1f6d5017160405160405180910390a4506115426001609c55565b50565b6066546001600160a01b0316611559613da9565b6001600160a01b03161461157f5760405162461bcd60e51b8152600401610cd6906159e7565b82811461159e5760405162461bcd60e51b8152600401610cd690615a06565b60005b838110156117ec5760008383838181106115bd576115bd615cc2565b60d5546020909102929092013592505060ff161561163a57806001141580156115e7575080600314155b80156115f4575080600514155b8015611601575080600714155b61163a5760405162461bcd60e51b815260206004820152600a60248201526961646d696e206c6f636b60b01b6044820152606401610cd6565b60d554610100900460ff16156116b1578060021415801561165c575080600314155b8015611669575080600614155b8015611676575080600714155b6116b15760405162461bcd60e51b815260206004820152600c60248201526b6d616e61676572206c6f636b60a01b6044820152606401610cd6565b60d55462010000900460ff161561172a57806004141580156116d4575080600514155b80156116e1575080600614155b80156116ee575080600714155b61172a5760405162461bcd60e51b815260206004820152600d60248201526c676f7665726e6f72206c6f636b60981b6044820152606401610cd6565b8060d6600088888681811061174157611741615cc2565b9050602002016020810190611756919061509d565b6001600160a01b0316815260208101919091526040016000205585858381811061178257611782615cc2565b9050602002016020810190611797919061509d565b6001600160a01b03167fc456d076c1245c6b9759b3cdcb169e14e00a7739897e501844c8fe5fca6cb260826040516117d191815260200190565b60405180910390a250806117e481615c57565b9150506115a1565b5050505050565b6066546001600160a01b0316611807613da9565b6001600160a01b03161461182d5760405162461bcd60e51b8152600401610cd6906159e7565b60d5805462ff0000191662010000908117918290556040517fd9574ee4ccdf21db87aa2c1d1fee3248522d79c07c54bde4a9edeb0620bef71f9261187a92900460ff161515815260200190565b60405180910390a1565b6066546001600160a01b0316611898613da9565b6001600160a01b0316146118be5760405162461bcd60e51b8152600401610cd6906159e7565b60d5805460ff191660019081179091556040519081527f5e1c9f68365556a24387c25fd0922af31039bcfc65d36caac57401d310948e599060200161187a565b6000611908611fd0565b6119106122ea565b61191a9190615b5a565b905090565b6001600160a01b038116600090815260d6602052604081205460018114806119475750806003145b806119525750806005145b8061195d5750806007145b9392505050565b60008160405160200161197791906159ba565b604051602081830303815290604052805190602001209050919050565b600061199e613e2c565b63ffffffff851615806119e4575060d05463ffffffff600160c01b82048116916119d191600160a01b9091041642615b5a565b6119db9190615b5a565b8563ffffffff16115b611a1a5760405162461bcd60e51b8152602060048201526007602482015266195e1c1a5c995960ca1b6044820152606401610cd6565b6301312d00841115611a605760405162461bcd60e51b815260206004820152600f60248201526e0c4c2c2d88ec2e640e8de40d0d2ced608b1b6044820152606401610cd6565b60d35460d054600091906001600160a01b0316639ab24eb0611a80613da9565b6040516001600160e01b031960e084901b1681526001600160a01b03909116600482015260240160206040518083038186803b158015611abf57600080fd5b505afa158015611ad3573d6000803e3d6000fd5b505050506040513d601f19601f82011682018060405250810190611af791906155d2565b10611b0457506001611beb565b60d1543414611b555760405162461bcd60e51b815260206004820152601960248201527f4261616c20726571756972657320616e206f66666572696e67000000000000006044820152606401610cd6565b6067546040516000916001600160a01b03169034908381818185875af1925050503d8060008114611ba2576040519150601f19603f3d011682016040523d82523d6000602084013e611ba7565b606091505b5050905080611be95760405162461bcd60e51b815260206004820152600e60248201526d18dbdd5b19081b9bdd081cd95b9960921b6044820152606401610cd6565b505b6000611c2c89898080601f01602080910402602001604051908101604052809392919081815260200183838082843760009201919091525061196492505050565b60d08054919250600160e01b90910463ffffffff1690601c611c4d83615c72565b91906101000a81548163ffffffff021916908363ffffffff16021790555050604051806101a0016040528060d0601c9054906101000a900463ffffffff1663ffffffff16815260200183611ca2576000611cac565b60da5463ffffffff165b63ffffffff16815260200183611cc3576000611cc5565b425b63ffffffff16815260200183611cdc576000611cf6565b60d054611cf690600160a01b900463ffffffff1642615b72565b63ffffffff16815260200183611d0d576000611d3c565b60d05463ffffffff600160c01b8204811691611d3291600160a01b9091041642615b72565b611d3c9190615b72565b63ffffffff1681526020018863ffffffff168152602001878152602001600081526020016000815260200183611d73576000611d7b565b611d7b6118fe565b8152604080516080810182526000808252602082810182905282840182905260608301919091528301520183611db2576000611dba565b611dba613da9565b6001600160a01b03168152602090810183905260d054600160e01b900463ffffffff908116600090815260d983526040908190208451815494860151928601516060870151608088015160a089015193871667ffffffffffffffff1990981697909717600160201b958716959095029490941767ffffffffffffffff60401b1916600160401b9186169190910263ffffffff60601b191617600160601b938516939093029290921767ffffffffffffffff60801b1916600160801b9484169490940263ffffffff60a01b191693909317600160a01b919092160217815560c0820151600182015560e082015160028201556101008201516003820155610120820151600480830191909155610140830151611eda91600584019190614e22565b506101608201516006820180546001600160a01b0319166001600160a01b03909216919091179055610180909101516007909101558115611f3a5760d05460da8054600160e01b90920463ffffffff1663ffffffff199092169190911790555b8060d0601c9054906101000a900463ffffffff1663ffffffff167fb9956173924f9c1204bae41dd3737d7ed1161846d13183879cdc03c4b9f8d01960d060149054906101000a900463ffffffff168c8c8c8c89428e8e604051611fa599989796959493929190615aa2565b60405180910390a3505060d0546001609c55600160e01b900463ffffffff1690509695505050505050565b60d054604080516318160ddd60e01b815290516000926001600160a01b0316916318160ddd916004808301926020929190829003018186803b15801561201557600080fd5b505afa158015612029573d6000803e3d6000fd5b505050506040513d601f19601f8201168201806040525081019061191a91906155d2565b6066546001600160a01b0316612061613da9565b6001600160a01b0316148061207c575061207c610be6613da9565b6120985760405162461bcd60e51b8152600401610cd690615a78565b8281146120b75760405162461bcd60e51b8152600401610cd690615a06565b60005b838110156117ec5761210a8585838181106120d7576120d7615cc2565b90506020020160208101906120ec919061509d565b8484848181106120fe576120fe615cc2565b90506020020135613e8d565b8061211481615c57565b9150506120ba565b612124614eb4565b63ffffffff8216600090815260d9602052604080822081516080810192839052926005909101916004918390855b825461010083900a900460ff161515815260206001928301818104948501949093039092029101808411612152575094979650505050505050565b60db805461219a90615c22565b80601f01602080910402602001604051908101604052809291908181526020018280546121c690615c22565b80156122135780601f106121e857610100808354040283529160200191612213565b820191906000526020600020905b8154815290600101906020018083116121f657829003601f168201915b505050505081565b6066546001600160a01b031661222f613da9565b6001600160a01b0316148061224a575061224a610be6613da9565b6122665760405162461bcd60e51b8152600401610cd690615a78565b8281146122855760405162461bcd60e51b8152600401610cd690615a06565b60005b838110156117ec576122d88585838181106122a5576122a5615cc2565b90506020020160208101906122ba919061509d565b8484848181106122cc576122cc615cc2565b90506020020135613ef8565b806122e281615c57565b915050612288565b60cf54604080516318160ddd60e01b815290516000926001600160a01b0316916318160ddd916004808301926020929190829003018186803b15801561201557600080fd5b612337613e2c565b612349612342613da9565b8383613f31565b6111b16001609c55565b61235b613e2c565b63ffffffff8316600090815260d96020526040902060068101546001600160a01b03166123b55760405162461bcd60e51b815260206004820152600860248201526710b9b837b739b7b960c11b6044820152606401610cd6565b60056123c085613bd8565b60078111156123d1576123d1615cac565b146124075760405162461bcd60e51b815260206004820152600660248201526521726561647960d01b6044820152606401610cd6565b805460009061242290600160201b900463ffffffff16613bd8565b9050600681600781111561243857612438615cac565b14806124555750600381600781111561245357612453615cac565b145b806124715750600781600781111561246f5761246f615cac565b145b8061248d5750600081600781111561248b5761248b615cac565b145b6124ca5760405162461bcd60e51b815260206004820152600e60248201526d1c1c995d885c1c9bd8d95cdcd95960921b6044820152606401610cd6565b816007015461250e85858080601f01602080910402602001604051908101604052809392919081815260200183838082843760009201919091525061196492505050565b146125505760405162461bcd60e51b8152602060048201526012602482015271696e636f72726563742063616c6c6461746160701b6044820152606401610cd6565b60018201541580612565575081600101545a10155b6125a25760405162461bcd60e51b815260206004820152600e60248201526d6e6f7420656e6f7567682067617360901b6044820152606401610cd6565b60058201805461ff0019166101001790558154600190600160a01b900463ffffffff16158015906125e15750825442600160a01b90910463ffffffff16105b156125ea575060005b8080156126165750826004015460d2546126049190615bbc565b6002840154612614906064615bbc565b105b1561261f575060005b80801561264f5750606460d454846004015461263b9190615bbc565b6126459190615b9a565b61264d6118fe565b105b15612658575060005b80156126d15760058301805462ff0000191662010000179055604080516020601f87018190048102820181019092528581526000916126b29190889088908190840183828082843760009201919091525061419492505050565b9050806126cf5760058401805463ff000000191663010000001790555b505b60058301546040805160ff62010000840481161515825263010000009093049092161515602083015263ffffffff8816917fb4571f7e4e2c2b6e6185e47ab5caa5fe34087299bd49fbae945a4583101ee3f0910160405180910390a250505061273a6001609c55565b505050565b612747613db3565b61275160006141bd565b565b61275b613db3565b606780546001600160a01b038381166001600160a01b0319831681179093556040519116919082907f90cc2f570a6eb594b1580ea3e41247d2d73a55281889e86bd4ec2fc29c7e62d690600090a35050565b6066546001600160a01b03166127c1613da9565b6001600160a01b031614806127dc57506127dc610be6613da9565b6127f85760405162461bcd60e51b8152600401610cd690615a78565b8281146128175760405162461bcd60e51b8152600401610cd690615a06565b60005b838110156117ec5761286a85858381811061283757612837615cc2565b905060200201602081019061284c919061509d565b84848481811061285e5761285e615cc2565b9050602002013561420f565b8061287481615c57565b91505061281a565b600054610100900460ff161580801561289c5750600054600160ff909116105b806128b65750303b1580156128b6575060005460ff166001145b6129195760405162461bcd60e51b815260206004820152602e60248201527f496e697469616c697a61626c653a20636f6e747261637420697320616c72656160448201526d191e481a5b9a5d1a585b1a5e995960921b6064820152608401610cd6565b6000805460ff19166001179055801561293c576000805461ff0019166101001790555b612944613e2c565b6000806000806000808780602001905181019061296191906150ba565b95509550955095509550955060006001600160a01b0316846001600160a01b03161415801561299857506001600160a01b03831615155b6129d25760405162461bcd60e51b815260206004820152600b60248201526a0c081859191c881d5cd95960aa1b6044820152606401610cd6565b6040518060600160405280602d8152602001615d24602d913980516129ff9160db91602090910190614ed2565b50612a08614248565b612a10614277565b612a4f60405180604001604052806004815260200163566f746560e01b815250604051806040016040528060018152602001600d60fa1b8152506142a6565b612a588361394e565b606680546001600160a01b0385166001600160a01b03199182168117909255606780549091169091179055612a8c826142d7565b60cf80546001600160a01b03199081166001600160a01b038981169190911790925560d0805490911687831617905560da8054640100000000600160c01b031916600160201b87841681029190911791829055612af09291041660008360016142f9565b612b315760405162461bcd60e51b8152602060048201526012602482015271063616c6c206661696c7572652073657475760741b6044820152606401610cd6565b60cf5460408051635c975abb60e01b815290517f916f812584e0b001e8c6ab604fa549cc16c9d0b2f60b17aa0b4ff5eefe3e7725926001600160a01b031691635c975abb916004808301926020929190829003018186803b158015612b9557600080fd5b505afa158015612ba9573d6000803e3d6000fd5b505050506040513d601f19601f82011682018060405250810190612bcd9190615415565b60d060009054906101000a90046001600160a01b03166001600160a01b0316635c975abb6040518163ffffffff1660e01b815260040160206040518083038186803b158015612c1b57600080fd5b505afa158015612c2f573d6000803e3d6000fd5b505050506040513d601f19601f82011682018060405250810190612c539190615415565b60d05460d15460d25460d35460d454604080516306fdde0360e01b8152905163ffffffff600160c01b8804811697600160a01b810490911696959493926001600160a01b03909116916306fdde0391600480820192600092909190829003018186803b158015612cc257600080fd5b505afa158015612cd6573d6000803e3d6000fd5b505050506040513d6000823e601f3d908101601f19168201604052612cfe9190810190615571565b60d060009054906101000a90046001600160a01b03166001600160a01b03166395d89b416040518163ffffffff1660e01b815260040160006040518083038186803b158015612d4c57600080fd5b505afa158015612d60573d6000803e3d6000fd5b505050506040513d6000823e601f3d908101601f19168201604052612d889190810190615571565b612d90611fd0565b612d986122ea565b604051612db09c9b9a99989796959493929190615934565b60405180910390a1505050505050612dc86001609c55565b80156111b1576000805461ff0019169055604051600181527f7f26b83ff96e1f2b6a682f133852f6798a09c465da95921460cefb384740249890602001611073565b6066546001600160a01b0316612e1e613da9565b6001600160a01b031614612e445760405162461bcd60e51b8152600401610cd6906159e7565b60d5805461ff001916610100908117918290556040517fb496b9628e839102454d8b483ba451c4be96675009b637273a00e4ab6a59db729261187a92900460ff161515815260200190565b6066546001600160a01b0316612ea3613da9565b6001600160a01b03161480612ebe5750612ebe610be6613da9565b612eda5760405162461bcd60e51b8152600401610cd690615a78565b828114612ef95760405162461bcd60e51b8152600401610cd690615a06565b60005b838110156117ec57612f4c858583818110612f1957612f19615cc2565b9050602002016020810190612f2e919061509d565b848484818110612f4057612f40615cc2565b905060200201356144aa565b80612f5681615c57565b915050612efc565b6066546001600160a01b0316612f72613da9565b6001600160a01b031614612f985760405162461bcd60e51b8152600401610cd6906159e7565b6000846001600160a01b0316848484604051612fb5929190615741565b60006040518083038185875af1925050503d8060008114612ff2576040519150601f19603f3d011682016040523d82523d6000602084013e612ff7565b606091505b50509050806117ec5760405162461bcd60e51b815260206004820152601460248201527363616c6c206661696c757265206578656375746560601b6044820152606401610cd6565b613047613e2c565b864211156130975760405162461bcd60e51b815260206004820152601d60248201527f4552433230566f7465733a207369676e617475726520657870697265640000006044820152606401610cd6565b6001600160a01b038816600090815260d8602052604090205486146130e75760405162461bcd60e51b8152602060048201526006602482015265216e6f6e636560d01b6044820152606401610cd6565b60007f8698fbcc7273f96a670eb203cb707d8ec171123f24eaf075b1e754b71119e59e60d060009054906101000a90046001600160a01b03166001600160a01b03166306fdde036040518163ffffffff1660e01b815260040160006040518083038186803b15801561315857600080fd5b505afa15801561316c573d6000803e3d6000fd5b505050506040513d6000823e601f3d908101601f191682016040526131949190810190615571565b6040516020016131a49190615751565b60408051601f198184030181528282528051602091820120908301939093528101919091526001600160a01b038a1660608201526080810189905260a0810188905263ffffffff871660c082015285151560e0820152610100016040516020818303038152906040528051906020012090506000613221826144e3565b9050600061323182878787614531565b90508a6001600160a01b0316816001600160a01b0316146132885760405162461bcd60e51b8152602060048201526011602482015270696e76616c6964207369676e617475726560781b6044820152606401610cd6565b6001600160a01b0381166132c85760405162461bcd60e51b815260206004820152600760248201526610b9b4b3b732b960c91b6044820152606401610cd6565b6001600160a01b038b16600090815260d8602052604081208054600192906132f1908490615b5a565b909155506133029050818989613f31565b50505061330f6001609c55565b5050505050505050565b60608060005b845181101561339c5781600085600088858151811061334057613340615cc2565b60200260200101515189868151811061335b5761335b615cc2565b60200260200101516040516020016133789695949392919061576d565b6040516020818303038152906040529150808061339490615c57565b91505061331f565b50806040516024016133ae91906159ba565b60408051601f198184030181529190526020810180516001600160e01b03166346c07f8560e11b179052949350505050565b6066546001600160a01b03166133f4613da9565b6001600160a01b0316148061340f575061340f610b66613da9565b61344f5760405162461bcd60e51b815260206004820152601160248201527010b130b0b610131010b3b7bb32b93737b960791b6044820152606401610cd6565b613458816142d7565b6040516001600160a01b038216907f8c2bee8063bb4464870b7dfa415ebb2fe80bfa73ba20d6fbf0d42791274667ff90600090a250565b613497613db3565b6001600160a01b0381161561354c576040516301ffc9a760e01b815263736bd41d60e11b60048201526001600160a01b038216906301ffc9a79060240160206040518083038186803b1580156134ec57600080fd5b505afa158015613500573d6000803e3d6000fd5b505050506040513d601f19601f820116820180604052508101906135249190615415565b61354c576040516358b7533f60e11b81526001600160a01b0382166004820152602401610cd6565b606580546001600160a01b0319166001600160a01b0383169081179091556040519081527f1151116914515bc0891ff9047a6cb32cf902546f83066499bcf8ba33d2353fa29060200160405180910390a150565b6001600160a01b038116600090815260d6602052604081205460048114806135c85750806005145b806119525750806006148061195d575060071492915050565b6135e9613e2c565b60015b818110156136a6578282613601600184615bdb565b81811061361057613610615cc2565b9050602002016020810190613625919061509d565b6001600160a01b031683838381811061364057613640615cc2565b9050602002016020810190613655919061509d565b6001600160a01b0316116136945760405162461bcd60e51b815260206004820152600660248201526510b7b93232b960d11b6044820152606401610cd6565b8061369e81615c57565b9150506135ec565b506136e685858585858080602002602001604051908101604052809392919081815260200183836020028082843760009201919091525061455992505050565b6117ec6001609c55565b6066546001600160a01b0316613704613da9565b6001600160a01b0316148061371f575061371f610b66613da9565b61375f5760405162461bcd60e51b815260206004820152601160248201527010b130b0b610131010b3b7bb32b93737b960791b6044820152606401610cd6565b6000806000806000808680602001905181019061377c919061567a565b949a5092985090965094509250905060648111156137c95760405162461bcd60e51b815260206004820152600a6024820152696261642071756f72756d60b01b6044820152606401610cd6565b606481111561380d5760405162461bcd60e51b815260206004820152601060248201526f3130b21036b4b72932ba32b73a34b7b760811b6044820152606401610cd6565b600060d354118015613829575060d0546001600160a01b031615155b1561387e57613836611fd0565b82111561387e5760405162461bcd60e51b815260206004820152601660248201527573706f6e736f72203e20736861726573537570706c7960501b6044820152606401610cd6565b63ffffffff8616156138a95760d0805463ffffffff60a01b1916600160a01b63ffffffff8916021790555b63ffffffff8516156138d45760d0805463ffffffff60c01b1916600160c01b63ffffffff8816021790555b60d184905560d283905560d382905560d48190556040805163ffffffff808916825287166020820152908101859052606081018490526080810183905260a081018290527fc10758ccd7d1dd3330e7bbe13a1a1d6bbb414967932376ee24989bad95edcdc19060c00160405180910390a150505050505050565b613956613db3565b6001600160a01b0381166139bb5760405162461bcd60e51b815260206004820152602660248201527f4f776e61626c653a206e6577206f776e657220697320746865207a65726f206160448201526564647265737360d01b6064820152608401610cd6565b611542816141bd565b6001600160a01b038116600090815260d6602052604081205460028114806135c8575080600314806119525750806006148061195d575060071492915050565b613a0c613e2c565b63ffffffff8116600090815260d9602052604090206002613a2c83613bd8565b6007811115613a3d57613a3d615cac565b14613a745760405162461bcd60e51b815260206004820152600760248201526621766f74696e6760c81b6044820152606401610cd6565b60068101546001600160a01b0316613a8a613da9565b6001600160a01b03161480613b41575060d35460d05460068301546001600160a01b0391821691633a46b1a89116613ac3600142615bdb565b6040516001600160e01b031960e085901b1681526001600160a01b039092166004830152602482015260440160206040518083038186803b158015613b0757600080fd5b505afa158015613b1b573d6000803e3d6000fd5b505050506040513d601f19601f82011682018060405250810190613b3f91906155d2565b105b80613b525750613b52610b66613da9565b613b8d5760405162461bcd60e51b815260206004820152600c60248201526b2163616e63656c6c61626c6560a01b6044820152606401610cd6565b60058101805460ff1916600117905560405163ffffffff8316907f8896f24cff41b54acf76c2560861f33cd20fd76c4df0b68a3515c354e4b6c81a90600090a2506115426001609c55565b63ffffffff818116600090815260d96020908152604080832081516101a08101835281548087168252600160201b8104871694820194909452600160401b8404861681840152600160601b840486166060820152600160801b84048616608080830191909152600160a01b90940490951660a0860152600181015460c0860152600281015460e0860152600381015461010086015260048082015461012087015282519384019283905293948594909391926101408501929160058501918288855b825461010083900a900460ff161515815260206001928301818104948501949093039092029101808411613c9a5750505092845250505060068201546001600160a01b03166020820152600790910154604090910152805190915063ffffffff16613d085750600092915050565b6101408101515115613d1d5750600392915050565b604081015163ffffffff16613d355750600192915050565b806060015163ffffffff164211613d4f5750600292915050565b806080015163ffffffff164211613d695750600492915050565b8060e0015181610100015110613d825750600792915050565b6101408101516020015115613d9a5750600692915050565b50600592915050565b50919050565b600061191a6147d5565b613dbb613da9565b6001600160a01b0316613dd66033546001600160a01b031690565b6001600160a01b0316146127515760405162461bcd60e51b815260206004820181905260248201527f4f776e61626c653a2063616c6c6572206973206e6f7420746865206f776e65726044820152606401610cd6565b6002609c541415613e7f5760405162461bcd60e51b815260206004820152601f60248201527f5265656e7472616e637947756172643a207265656e7472616e742063616c6c006044820152606401610cd6565b6002609c55565b6001609c55565b60cf546040516340c10f1960e01b81526001600160a01b03848116600483015260248201849052909116906340c10f19906044015b600060405180830381600087803b158015613edc57600080fd5b505af1158015613ef0573d6000803e3d6000fd5b505050505050565b60cf54604051632770a7eb60e21b81526001600160a01b0384811660048301526024820184905290911690639dc29fac90604401613ec2565b63ffffffff8216600090815260d9602052604090206002613f5184613bd8565b6007811115613f6257613f62615cac565b14613f995760405162461bcd60e51b815260206004820152600760248201526621766f74696e6760c81b6044820152606401610cd6565b60d0548154604051630748d63560e31b81526001600160a01b038781166004830152600160401b90920463ffffffff1660248201526000929190911690633a46b1a89060440160206040518083038186803b158015613ff757600080fd5b505afa15801561400b573d6000803e3d6000fd5b505050506040513d601f19601f8201168201806040525081019061402f91906155d2565b90506000811161406b5760405162461bcd60e51b815260206004820152600760248201526610b6b2b6b132b960c91b6044820152606401610cd6565b6001600160a01b038516600090815260d76020908152604080832063ffffffff8816845290915290205460ff16156140cd5760405162461bcd60e51b81526020600482015260056024820152641d9bdd195960da1b6044820152606401610cd6565b6001600160a01b038516600090815260d76020908152604080832063ffffffff881684529091528120805460ff191660011790556141096118fe565b9050826004015481111561411f57600483018190555b8315614134576002830180548301905561413f565b600383018054830190555b8315158563ffffffff16876001600160a01b03167f786755545a7e27c12c90cc7f0934514d03fdacfe3684a340b8c4100531e7ecd58560405161418491815260200190565b60405180910390a4505050505050565b60da546000906141b790600160201b90046001600160a01b0316828460016142f9565b92915050565b603380546001600160a01b038381166001600160a01b0319831681179093556040519116919082907f8be0079c531659141344cd1fd0a4f28419497f9722a3daafe3b4186f6b6457e090600090a35050565b60d054604051632770a7eb60e21b81526001600160a01b0384811660048301526024820184905290911690639dc29fac90604401613ec2565b600054610100900460ff1661426f5760405162461bcd60e51b8152600401610cd690615a2d565b612751614809565b600054610100900460ff1661429e5760405162461bcd60e51b8152600401610cd690615a2d565b612751614840565b600054610100900460ff166142cd5760405162461bcd60e51b8152600401610cd690615a2d565b6111b18282614867565b60ce80546001600160a01b0319166001600160a01b0392909216919091179055565b6065546000906001600160a01b03161561439b576065546040805180820182526002815261060f60f31b60208201529051633af85da960e11b81526001600160a01b03909216916375f0bb52916143689189918991899189916000918291829182918291903390600401615872565b600060405180830381600087803b15801561438257600080fd5b505af1158015614396573d6000803e3d6000fd5b505050505b60675460405163468721a760e01b81526001600160a01b039091169063468721a7906143d1908890889088908890600401615833565b602060405180830381600087803b1580156143eb57600080fd5b505af11580156143ff573d6000803e3d6000fd5b505050506040513d601f19601f820116820180604052508101906144239190615415565b6065549091506001600160a01b0316156144a257606554604051631264e26d60e31b815261060f60f31b600482015282151560248201526001600160a01b0390911690639327136890604401600060405180830381600087803b15801561448957600080fd5b505af115801561449d573d6000803e3d6000fd5b505050505b949350505050565b60d0546040516340c10f1960e01b81526001600160a01b03848116600483015260248201849052909116906340c10f1990604401613ec2565b60006141b76144f06148a8565b8360405161190160f01b6020820152602281018390526042810182905260009060620160405160208183030381529060405280519060200120905092915050565b600080600061454287878787614923565b9150915061454f816149e7565b5095945050505050565b60006145636118fe565b9050821561457c5761457c614576613da9565b84613ef8565b83156145935761459361458d613da9565b8561420f565b60005b825181101561478157600073eeeeeeeeeeeeeeeeeeeeeeeeeeeeeeeeeeeeeeee6001600160a01b03168483815181106145d1576145d1615cc2565b60200260200101516001600160a01b031614156145fb57506067546001600160a01b0316316146c9565b600084838151811061460f5761460f615cc2565b602090810291909101810151606754604080516001600160a01b03928316602480830191909152825180830390910181526044909101825293840180516001600160e01b03166370a0823160e01b1790525191169161466d91615751565b600060405180830381855afa9150503d80600081146146a8576040519150601f19603f3d011682016040523d82523d6000602084013e6146ad565b606091505b50915050808060200190518101906146c591906155d2565b9150505b600083826146d78989615b5a565b6146e19190615bbc565b6146eb9190615b9a565b9050801561476c5773eeeeeeeeeeeeeeeeeeeeeeeeeeeeeeeeeeeeeeee6001600160a01b031685848151811061472357614723615cc2565b60200260200101516001600160a01b0316146147625761475d85848151811061474e5761474e615cc2565b60200260200101518983614b35565b61476c565b61476c8882614c04565b5050808061477990615c57565b915050614596565b50838361478c613da9565b6001600160a01b03167fa21c268847f2b8adac3751ed0683330abe9fdd6cc4a7a8fc6787633d4126e0d488866040516147c69291906157d7565b60405180910390a45050505050565b6000601436108015906147f2575060ce546001600160a01b031633145b15614804575060131936013560601c90565b503390565b600054610100900460ff166148305760405162461bcd60e51b8152600401610cd690615a2d565b61275161483b613da9565b6141bd565b600054610100900460ff16613e865760405162461bcd60e51b8152600401610cd690615a2d565b600054610100900460ff1661488e5760405162461bcd60e51b8152600401610cd690615a2d565b815160209283012081519190920120606891909155606955565b600061191a7f8b73c3c69bb8fe3d512ecc4cf759cc79239f7b179b0ffacaa9a75d522b39400f6148d760685490565b6069546040805160208101859052908101839052606081018290524660808201523060a082015260009060c0016040516020818303038152906040528051906020012090509392505050565b6000807f7fffffffffffffffffffffffffffffff5d576e7357a4501ddfe92f46681b20a083111561495a57506000905060036149de565b6040805160008082526020820180845289905260ff881692820192909252606081018690526080810185905260019060a0016020604051602081039080840390855afa1580156149ae573d6000803e3d6000fd5b5050604051601f1901519150506001600160a01b0381166149d7576000600192509250506149de565b9150600090505b94509492505050565b60008160048111156149fb576149fb615cac565b1415614a045750565b6001816004811115614a1857614a18615cac565b1415614a665760405162461bcd60e51b815260206004820152601860248201527f45434453413a20696e76616c6964207369676e617475726500000000000000006044820152606401610cd6565b6002816004811115614a7a57614a7a615cac565b1415614ac85760405162461bcd60e51b815260206004820152601f60248201527f45434453413a20696e76616c6964207369676e6174757265206c656e677468006044820152606401610cd6565b6003816004811115614adc57614adc615cac565b14156115425760405162461bcd60e51b815260206004820152602260248201527f45434453413a20696e76616c6964207369676e6174757265202773272076616c604482015261756560f01b6064820152608401610cd6565b600080614b9d85600063a9059cbb8787604051602401614b6a9291906001600160a01b03929092168252602082015260400190565b6040516020818303038152906040529060e01b6020820180516001600160e01b0383818316178352505050506000614c68565b91509150818015614bc6575080511580614bc6575080806020019051810190614bc69190615415565b6117ec5760405162461bcd60e51b815260206004820152600f60248201526e1d1c985b9cd9995c8819985a5b1959608a1b6044820152606401610cd6565b6000614c228383604051806020016040528060008152506000614c68565b5090508061273a5760405162461bcd60e51b815260206004820152601360248201527211551217d514905394d1915497d19052531151606a1b6044820152606401610cd6565b6065546000906060906001600160a01b031615614d0d576065546040805180820182526002815261060f60f31b60208201529051633af85da960e11b81526001600160a01b03909216916375f0bb5291614cda918a918a918a918a916000918291829182918291903390600401615872565b600060405180830381600087803b158015614cf457600080fd5b505af1158015614d08573d6000803e3d6000fd5b505050505b606754604051635229073f60e01b81526001600160a01b0390911690635229073f90614d43908990899089908990600401615833565b600060405180830381600087803b158015614d5d57600080fd5b505af1158015614d71573d6000803e3d6000fd5b505050506040513d6000823e601f3d908101601f19168201604052614d999190810190615460565b60655491935091506001600160a01b0316156149de57606554604051631264e26d60e31b815261060f60f31b600482015283151560248201526001600160a01b0390911690639327136890604401600060405180830381600087803b158015614e0157600080fd5b505af1158015614e15573d6000803e3d6000fd5b5050505094509492505050565b600183019183908215614ea45791602002820160005b83821115614e7557835183826101000a81548160ff0219169083151502179055509260200192600101602081600001049283019260010302614e38565b8015614ea25782816101000a81549060ff0219169055600101602081600001049283019260010302614e75565b505b50614eb0929150614f46565b5090565b60405180608001604052806004906020820280368337509192915050565b828054614ede90615c22565b90600052602060002090601f016020900481019282614f005760008555614ea4565b82601f10614f1957805160ff1916838001178555614ea4565b82800160010185558215614ea4579182015b82811115614ea4578251825591602001919060010190614f2b565b5b80821115614eb05760008155600101614f47565b6000614f6e614f6984615b33565b615b03565b9050828152838383011115614f8257600080fd5b61195d836020830184615bf2565b8035614f9b81615cee565b919050565b60008083601f840112614fb257600080fd5b5081356001600160401b03811115614fc957600080fd5b6020830191508360208260051b8501011115614fe457600080fd5b9250929050565b60008083601f840112614ffd57600080fd5b5081356001600160401b0381111561501457600080fd5b602083019150836020828501011115614fe457600080fd5b600082601f83011261503d57600080fd5b813561504b614f6982615b33565b81815284602083860101111561506057600080fd5b816020850160208301376000918101602001919091529392505050565b600082601f83011261508e57600080fd5b61195d83835160208501614f5b565b6000602082840312156150af57600080fd5b813561195d81615cee565b60008060008060008060c087890312156150d357600080fd5b86516150de81615cee565b60208801519096506150ef81615cee565b604088015190955061510081615cee565b606088015190945061511181615cee565b608088015190935061512281615cee565b60a08801519092506001600160401b0381111561513e57600080fd5b61514a89828a0161507d565b9150509295509295509295565b6000806000806060858703121561516d57600080fd5b843561517881615cee565b93506020850135925060408501356001600160401b0381111561519a57600080fd5b6151a687828801614feb565b95989497509550505050565b6000806000806000608086880312156151ca57600080fd5b85356151d581615cee565b9450602086013593506040860135925060608601356001600160401b038111156151fe57600080fd5b61520a88828901614fa0565b969995985093965092949392505050565b600080600080600080600080610100898b03121561523857600080fd5b883561524381615cee565b97506020890135965060408901359550606089013561526181615d11565b9450608089013561527181615d03565b935060a089013560ff8116811461528757600080fd5b979a969950949793969295929450505060c08201359160e0013590565b600080604083850312156152b757600080fd5b82356152c281615cee565b915060208301356152d281615d11565b809150509250929050565b600080600080604085870312156152f357600080fd5b84356001600160401b038082111561530a57600080fd5b61531688838901614fa0565b9096509450602087013591508082111561532f57600080fd5b506151a687828801614fa0565b6000806040838503121561534f57600080fd5b82356001600160401b038082111561536657600080fd5b818501915085601f83011261537a57600080fd5b813560208282111561538e5761538e615cd8565b8160051b61539d828201615b03565b8381528281019086840183880185018c10156153b857600080fd5b60009350835b868110156153f5578135888111156153d4578586fd5b6153e28e88838d010161502c565b85525092850192908501906001016153be565b5050809850505050615408818801614f90565b9450505050509250929050565b60006020828403121561542757600080fd5b815161195d81615d03565b6000806040838503121561544557600080fd5b823561545081615d03565b915060208301356152d281615d03565b6000806040838503121561547357600080fd5b825161547e81615d03565b60208401519092506001600160401b0381111561549a57600080fd5b6154a68582860161507d565b9150509250929050565b600080600080600080608087890312156154c957600080fd5b86356001600160401b03808211156154e057600080fd5b6154ec8a838b01614feb565b90985096506020890135915061550182615d11565b909450604088013593506060880135908082111561551e57600080fd5b5061552b89828a01614feb565b979a9699509497509295939492505050565b60006020828403121561554f57600080fd5b81356001600160401b0381111561556557600080fd5b6144a28482850161502c565b60006020828403121561558357600080fd5b81516001600160401b0381111561559957600080fd5b8201601f810184136155aa57600080fd5b6144a284825160208401614f5b565b6000602082840312156155cb57600080fd5b5035919050565b6000602082840312156155e457600080fd5b5051919050565b6000602082840312156155fd57600080fd5b813561195d81615d11565b6000806040838503121561561b57600080fd5b823561545081615d11565b60008060006040848603121561563b57600080fd5b833561564681615d11565b925060208401356001600160401b0381111561566157600080fd5b61566d86828701614feb565b9497909650939450505050565b60008060008060008060c0878903121561569357600080fd5b865161569e81615d11565b60208801519096506156af81615d11565b6040880151606089015160808a015160a0909a0151989b929a5090989097909650945092505050565b81835281816020850137506000828201602090810191909152601f909101601f19169091010190565b60008151808452615719816020860160208601615bf2565b601f01601f19169290920160200192915050565b6002811061573d5761573d615cac565b9052565b8183823760009101908152919050565b60008251615763818460208701615bf2565b9190910192915050565b6000875161577f818460208c01615bf2565b808301905060ff60f81b8860f81b1681526bffffffffffffffffffffffff198760601b16600182015285601582015284603582015283516157c7816055840160208801615bf2565b0160550198975050505050505050565b6001600160a01b038381168252604060208084018290528451918401829052600092858201929091906060860190855b81811015615825578551851683529483019491830191600101615807565b509098975050505050505050565b60018060a01b038516815283602082015260806040820152600061585a6080830185615701565b9050615869606083018461572d565b95945050505050565b6001600160a01b038c81168252602082018c90526101606040830181905260009161589f8483018e615701565b91506158ae606085018d61572d565b8a60808501528960a08501528860c085015280881660e08501528087166101008501528382036101208501526158e48287615701565b925080851661014085015250509c9b505050505050505050505050565b60808101818360005b600481101561592b578151151583526020928301929091019060010161590a565b50505092915050565b60006101808e151583528d1515602084015263ffffffff808e166040850152808d166060850152508a60808401528960a08401528860c08401528760e08401528061010084015261598781840188615701565b905082810361012084015261599c8187615701565b610140840195909552505061016001529a9950505050505050505050565b60208152600061195d6020830184615701565b60208101600883106159e1576159e1615cac565b91905290565b602080825260059082015264085898585b60da1b604082015260600190565b6020808252600d908201526c2161727261792070617269747960981b604082015260600190565b6020808252602b908201527f496e697469616c697a61626c653a20636f6e7472616374206973206e6f74206960408201526a6e697469616c697a696e6760a81b606082015260800190565b60208082526010908201526f10b130b0b610131010b6b0b730b3b2b960811b604082015260600190565b600063ffffffff808c16835260e06020840152615ac360e084018b8d6156d8565b818a16604085015288606085015287151560808501528660a085015283810360c0850152615af28186886156d8565b9d9c50505050505050505050505050565b604051601f8201601f191681016001600160401b0381118282101715615b2b57615b2b615cd8565b604052919050565b60006001600160401b03821115615b4c57615b4c615cd8565b50601f01601f191660200190565b60008219821115615b6d57615b6d615c96565b500190565b600063ffffffff808316818516808303821115615b9157615b91615c96565b01949350505050565b600082615bb757634e487b7160e01b600052601260045260246000fd5b500490565b6000816000190483118215151615615bd657615bd6615c96565b500290565b600082821015615bed57615bed615c96565b500390565b60005b83811015615c0d578181015183820152602001615bf5565b83811115615c1c576000848401525b50505050565b600181811c90821680615c3657607f821691505b60208210811415613da357634e487b7160e01b600052602260045260246000fd5b6000600019821415615c6b57615c6b615c96565b5060010190565b600063ffffffff80831681811415615c8c57615c8c615c96565b6001019392505050565b634e487b7160e01b600052601160045260246000fd5b634e487b7160e01b600052602160045260246000fd5b634e487b7160e01b600052603260045260246000fd5b634e487b7160e01b600052604160045260246000fd5b6001600160a01b038116811461154257600080fd5b801515811461154257600080fd5b63ffffffff8116811461154257600080fdfe322e322e352b6f70656e67736e2e70617961626c65776974686261616c2e6972656c6179726563697069656e74a2646970667358221220178cefb04e476abe5af61c5f7db34d2c912defb38857ba62ff0b25f75ad3c9ac64736f6c63430008070033",
  "history": [
    {
      "address": "0x17234C0Ae25AF09fAf57B9D5ea2B93C1f220E800",
      "abi": [
        {
          "inputs": [],
          "stateMutability": "nonpayable",
          "type": "constructor"
        },
        {
          "inputs": [
            {
              "internalType": "address",
              "name": "guard_",
              "type": "address"
            }
          ],
          "name": "NotIERC165Compliant",
          "type": "error"
        },
        {
          "anonymous": false,
          "inputs": [
            {
              "indexed": true,
              "internalType": "address",
              "name": "owner",
              "type": "address"
            },
            {
              "indexed": true,
              "internalType": "address",
              "name": "spender",
              "type": "address"
            },
            {
              "indexed": false,
              "internalType": "uint256",
              "name": "amount",
              "type": "uint256"
            }
          ],
          "name": "Approval",
          "type": "event"
        },
        {
          "anonymous": false,
          "inputs": [
            {
              "indexed": true,
              "internalType": "address",
              "name": "previousAvatar",
              "type": "address"
            },
            {
              "indexed": true,
              "internalType": "address",
              "name": "newAvatar",
              "type": "address"
            }
          ],
          "name": "AvatarSet",
          "type": "event"
        },
        {
          "anonymous": false,
          "inputs": [
            {
              "indexed": true,
              "internalType": "uint256",
              "name": "proposal",
              "type": "uint256"
            }
          ],
          "name": "CancelProposal",
          "type": "event"
        },
        {
          "anonymous": false,
          "inputs": [
            {
              "indexed": false,
              "internalType": "address",
              "name": "guard",
              "type": "address"
            }
          ],
          "name": "ChangedGuard",
          "type": "event"
        },
        {
          "anonymous": false,
          "inputs": [
            {
              "indexed": false,
              "internalType": "uint32",
              "name": "voting",
              "type": "uint32"
            },
            {
              "indexed": false,
              "internalType": "uint32",
              "name": "grace",
              "type": "uint32"
            },
            {
              "indexed": false,
              "internalType": "uint256",
              "name": "newOffering",
              "type": "uint256"
            },
            {
              "indexed": false,
              "internalType": "uint256",
              "name": "quorum",
              "type": "uint256"
            },
            {
              "indexed": false,
              "internalType": "uint256",
              "name": "sponsor",
              "type": "uint256"
            },
            {
              "indexed": false,
              "internalType": "uint256",
              "name": "minRetention",
              "type": "uint256"
            }
          ],
          "name": "GovernanceConfigSet",
          "type": "event"
        },
        {
          "anonymous": false,
          "inputs": [
            {
              "indexed": false,
              "internalType": "uint8",
              "name": "version",
              "type": "uint8"
            }
          ],
          "name": "Initialized",
          "type": "event"
        },
        {
          "anonymous": false,
          "inputs": [
            {
              "indexed": false,
              "internalType": "bool",
              "name": "adminLock",
              "type": "bool"
            }
          ],
          "name": "LockAdmin",
          "type": "event"
        },
        {
          "anonymous": false,
          "inputs": [
            {
              "indexed": false,
              "internalType": "bool",
              "name": "governorLock",
              "type": "bool"
            }
          ],
          "name": "LockGovernor",
          "type": "event"
        },
        {
          "anonymous": false,
          "inputs": [
            {
              "indexed": false,
              "internalType": "bool",
              "name": "managerLock",
              "type": "bool"
            }
          ],
          "name": "LockManager",
          "type": "event"
        },
        {
          "anonymous": false,
          "inputs": [
            {
              "indexed": false,
              "internalType": "bool",
              "name": "paused",
              "type": "bool"
            }
          ],
          "name": "LootPaused",
          "type": "event"
        },
        {
          "anonymous": false,
          "inputs": [
            {
              "indexed": true,
              "internalType": "address",
              "name": "previousOwner",
              "type": "address"
            },
            {
              "indexed": true,
              "internalType": "address",
              "name": "newOwner",
              "type": "address"
            }
          ],
          "name": "OwnershipTransferred",
          "type": "event"
        },
        {
          "anonymous": false,
          "inputs": [
            {
              "indexed": true,
              "internalType": "uint256",
              "name": "proposal",
              "type": "uint256"
            },
            {
              "indexed": false,
              "internalType": "bool",
              "name": "passed",
              "type": "bool"
            },
            {
              "indexed": false,
              "internalType": "bool",
              "name": "actionFailed",
              "type": "bool"
            }
          ],
          "name": "ProcessProposal",
          "type": "event"
        },
        {
          "anonymous": false,
          "inputs": [
            {
              "indexed": true,
              "internalType": "address",
              "name": "member",
              "type": "address"
            },
            {
              "indexed": false,
              "internalType": "address",
              "name": "to",
              "type": "address"
            },
            {
              "indexed": true,
              "internalType": "uint256",
              "name": "lootToBurn",
              "type": "uint256"
            },
            {
              "indexed": true,
              "internalType": "uint256",
              "name": "sharesToBurn",
              "type": "uint256"
            },
            {
              "indexed": false,
              "internalType": "address[]",
              "name": "tokens",
              "type": "address[]"
            }
          ],
          "name": "Ragequit",
          "type": "event"
        },
        {
          "anonymous": false,
          "inputs": [
            {
              "indexed": true,
              "internalType": "address",
              "name": "forwarder",
              "type": "address"
            }
          ],
          "name": "SetTrustedForwarder",
          "type": "event"
        },
        {
          "anonymous": false,
          "inputs": [
            {
              "indexed": false,
              "internalType": "bool",
              "name": "lootPaused",
              "type": "bool"
            },
            {
              "indexed": false,
              "internalType": "bool",
              "name": "sharesPaused",
              "type": "bool"
            },
            {
              "indexed": false,
              "internalType": "uint32",
              "name": "gracePeriod",
              "type": "uint32"
            },
            {
              "indexed": false,
              "internalType": "uint32",
              "name": "votingPeriod",
              "type": "uint32"
            },
            {
              "indexed": false,
              "internalType": "uint256",
              "name": "proposalOffering",
              "type": "uint256"
            },
            {
              "indexed": false,
              "internalType": "uint256",
              "name": "quorumPercent",
              "type": "uint256"
            },
            {
              "indexed": false,
              "internalType": "uint256",
              "name": "sponsorThreshold",
              "type": "uint256"
            },
            {
              "indexed": false,
              "internalType": "uint256",
              "name": "minRetentionPercent",
              "type": "uint256"
            },
            {
              "indexed": false,
              "internalType": "string",
              "name": "name",
              "type": "string"
            },
            {
              "indexed": false,
              "internalType": "string",
              "name": "symbol",
              "type": "string"
            },
            {
              "indexed": false,
              "internalType": "uint256",
              "name": "totalShares",
              "type": "uint256"
            },
            {
              "indexed": false,
              "internalType": "uint256",
              "name": "totalLoot",
              "type": "uint256"
            }
          ],
          "name": "SetupComplete",
          "type": "event"
        },
        {
          "anonymous": false,
          "inputs": [
            {
              "indexed": true,
              "internalType": "address",
              "name": "shaman",
              "type": "address"
            },
            {
              "indexed": false,
              "internalType": "uint256",
              "name": "permission",
              "type": "uint256"
            }
          ],
          "name": "ShamanSet",
          "type": "event"
        },
        {
          "anonymous": false,
          "inputs": [
            {
              "indexed": false,
              "internalType": "bool",
              "name": "paused",
              "type": "bool"
            }
          ],
          "name": "SharesPaused",
          "type": "event"
        },
        {
          "anonymous": false,
          "inputs": [
            {
              "indexed": true,
              "internalType": "address",
              "name": "member",
              "type": "address"
            },
            {
              "indexed": true,
              "internalType": "uint256",
              "name": "proposal",
              "type": "uint256"
            },
            {
              "indexed": true,
              "internalType": "uint256",
              "name": "votingStarts",
              "type": "uint256"
            }
          ],
          "name": "SponsorProposal",
          "type": "event"
        },
        {
          "anonymous": false,
          "inputs": [
            {
              "indexed": true,
              "internalType": "uint256",
              "name": "proposal",
              "type": "uint256"
            },
            {
              "indexed": true,
              "internalType": "bytes32",
              "name": "proposalDataHash",
              "type": "bytes32"
            },
            {
              "indexed": false,
              "internalType": "uint256",
              "name": "votingPeriod",
              "type": "uint256"
            },
            {
              "indexed": false,
              "internalType": "bytes",
              "name": "proposalData",
              "type": "bytes"
            },
            {
              "indexed": false,
              "internalType": "uint256",
              "name": "expiration",
              "type": "uint256"
            },
            {
              "indexed": false,
              "internalType": "uint256",
              "name": "baalGas",
              "type": "uint256"
            },
            {
              "indexed": false,
              "internalType": "bool",
              "name": "selfSponsor",
              "type": "bool"
            },
            {
              "indexed": false,
              "internalType": "uint256",
              "name": "timestamp",
              "type": "uint256"
            },
            {
              "indexed": false,
              "internalType": "string",
              "name": "details",
              "type": "string"
            }
          ],
          "name": "SubmitProposal",
          "type": "event"
        },
        {
          "anonymous": false,
          "inputs": [
            {
              "indexed": true,
              "internalType": "address",
              "name": "member",
              "type": "address"
            },
            {
              "indexed": false,
              "internalType": "uint256",
              "name": "balance",
              "type": "uint256"
            },
            {
              "indexed": true,
              "internalType": "uint256",
              "name": "proposal",
              "type": "uint256"
            },
            {
              "indexed": true,
              "internalType": "bool",
              "name": "approved",
              "type": "bool"
            }
          ],
          "name": "SubmitVote",
          "type": "event"
        },
        {
          "anonymous": false,
          "inputs": [
            {
              "indexed": true,
              "internalType": "address",
              "name": "previousTarget",
              "type": "address"
            },
            {
              "indexed": true,
              "internalType": "address",
              "name": "newTarget",
              "type": "address"
            }
          ],
          "name": "TargetSet",
          "type": "event"
        },
        {
          "inputs": [],
          "name": "adminLock",
          "outputs": [
            {
              "internalType": "bool",
              "name": "",
              "type": "bool"
            }
          ],
          "stateMutability": "view",
          "type": "function"
        },
        {
          "inputs": [],
          "name": "avatar",
          "outputs": [
            {
              "internalType": "address",
              "name": "",
              "type": "address"
            }
          ],
          "stateMutability": "view",
          "type": "function"
        },
        {
          "inputs": [
            {
              "internalType": "address[]",
              "name": "from",
              "type": "address[]"
            },
            {
              "internalType": "uint256[]",
              "name": "amount",
              "type": "uint256[]"
            }
          ],
          "name": "burnLoot",
          "outputs": [],
          "stateMutability": "nonpayable",
          "type": "function"
        },
        {
          "inputs": [
            {
              "internalType": "address[]",
              "name": "from",
              "type": "address[]"
            },
            {
              "internalType": "uint256[]",
              "name": "amount",
              "type": "uint256[]"
            }
          ],
          "name": "burnShares",
          "outputs": [],
          "stateMutability": "nonpayable",
          "type": "function"
        },
        {
          "inputs": [
            {
              "internalType": "uint32",
              "name": "id",
              "type": "uint32"
            }
          ],
          "name": "cancelProposal",
          "outputs": [],
          "stateMutability": "nonpayable",
          "type": "function"
        },
        {
          "inputs": [
            {
              "internalType": "bytes[]",
              "name": "_calls",
              "type": "bytes[]"
            },
            {
              "internalType": "address",
              "name": "_target",
              "type": "address"
            }
          ],
          "name": "encodeMultisend",
          "outputs": [
            {
              "internalType": "bytes",
              "name": "encodedMultisend",
              "type": "bytes"
            }
          ],
          "stateMutability": "pure",
          "type": "function"
        },
        {
          "inputs": [
            {
              "internalType": "address",
              "name": "_to",
              "type": "address"
            },
            {
              "internalType": "uint256",
              "name": "_value",
              "type": "uint256"
            },
            {
              "internalType": "bytes",
              "name": "_data",
              "type": "bytes"
            }
          ],
          "name": "executeAsBaal",
          "outputs": [],
          "stateMutability": "nonpayable",
          "type": "function"
        },
        {
          "inputs": [],
          "name": "getGuard",
          "outputs": [
            {
              "internalType": "address",
              "name": "_guard",
              "type": "address"
            }
          ],
          "stateMutability": "view",
          "type": "function"
        },
        {
          "inputs": [
            {
              "internalType": "uint32",
              "name": "id",
              "type": "uint32"
            }
          ],
          "name": "getProposalStatus",
          "outputs": [
            {
              "internalType": "bool[4]",
              "name": "",
              "type": "bool[4]"
            }
          ],
          "stateMutability": "view",
          "type": "function"
        },
        {
          "inputs": [],
          "name": "governorLock",
          "outputs": [
            {
              "internalType": "bool",
              "name": "",
              "type": "bool"
            }
          ],
          "stateMutability": "view",
          "type": "function"
        },
        {
          "inputs": [],
          "name": "gracePeriod",
          "outputs": [
            {
              "internalType": "uint32",
              "name": "",
              "type": "uint32"
            }
          ],
          "stateMutability": "view",
          "type": "function"
        },
        {
          "inputs": [],
          "name": "guard",
          "outputs": [
            {
              "internalType": "address",
              "name": "",
              "type": "address"
            }
          ],
          "stateMutability": "view",
          "type": "function"
        },
        {
          "inputs": [
            {
              "internalType": "bytes",
              "name": "_transactions",
              "type": "bytes"
            }
          ],
          "name": "hashOperation",
          "outputs": [
            {
              "internalType": "bytes32",
              "name": "hash",
              "type": "bytes32"
            }
          ],
          "stateMutability": "pure",
          "type": "function"
        },
        {
          "inputs": [
            {
              "internalType": "address",
              "name": "shaman",
              "type": "address"
            }
          ],
          "name": "isAdmin",
          "outputs": [
            {
              "internalType": "bool",
              "name": "",
              "type": "bool"
            }
          ],
          "stateMutability": "view",
          "type": "function"
        },
        {
          "inputs": [
            {
              "internalType": "address",
              "name": "shaman",
              "type": "address"
            }
          ],
          "name": "isGovernor",
          "outputs": [
            {
              "internalType": "bool",
              "name": "",
              "type": "bool"
            }
          ],
          "stateMutability": "view",
          "type": "function"
        },
        {
          "inputs": [
            {
              "internalType": "address",
              "name": "shaman",
              "type": "address"
            }
          ],
          "name": "isManager",
          "outputs": [
            {
              "internalType": "bool",
              "name": "",
              "type": "bool"
            }
          ],
          "stateMutability": "view",
          "type": "function"
        },
        {
          "inputs": [
            {
              "internalType": "address",
              "name": "forwarder",
              "type": "address"
            }
          ],
          "name": "isTrustedForwarder",
          "outputs": [
            {
              "internalType": "bool",
              "name": "",
              "type": "bool"
            }
          ],
          "stateMutability": "view",
          "type": "function"
        },
        {
          "inputs": [],
          "name": "latestSponsoredProposalId",
          "outputs": [
            {
              "internalType": "uint32",
              "name": "",
              "type": "uint32"
            }
          ],
          "stateMutability": "view",
          "type": "function"
        },
        {
          "inputs": [],
          "name": "lockAdmin",
          "outputs": [],
          "stateMutability": "nonpayable",
          "type": "function"
        },
        {
          "inputs": [],
          "name": "lockGovernor",
          "outputs": [],
          "stateMutability": "nonpayable",
          "type": "function"
        },
        {
          "inputs": [],
          "name": "lockManager",
          "outputs": [],
          "stateMutability": "nonpayable",
          "type": "function"
        },
        {
          "inputs": [],
          "name": "lootToken",
          "outputs": [
            {
              "internalType": "contract IBaalToken",
              "name": "",
              "type": "address"
            }
          ],
          "stateMutability": "view",
          "type": "function"
        },
        {
          "inputs": [],
          "name": "managerLock",
          "outputs": [
            {
              "internalType": "bool",
              "name": "",
              "type": "bool"
            }
          ],
          "stateMutability": "view",
          "type": "function"
        },
        {
          "inputs": [
            {
              "internalType": "address",
              "name": "",
              "type": "address"
            },
            {
              "internalType": "uint32",
              "name": "",
              "type": "uint32"
            }
          ],
          "name": "memberVoted",
          "outputs": [
            {
              "internalType": "bool",
              "name": "",
              "type": "bool"
            }
          ],
          "stateMutability": "view",
          "type": "function"
        },
        {
          "inputs": [],
          "name": "minRetentionPercent",
          "outputs": [
            {
              "internalType": "uint256",
              "name": "",
              "type": "uint256"
            }
          ],
          "stateMutability": "view",
          "type": "function"
        },
        {
          "inputs": [
            {
              "internalType": "address[]",
              "name": "to",
              "type": "address[]"
            },
            {
              "internalType": "uint256[]",
              "name": "amount",
              "type": "uint256[]"
            }
          ],
          "name": "mintLoot",
          "outputs": [],
          "stateMutability": "nonpayable",
          "type": "function"
        },
        {
          "inputs": [
            {
              "internalType": "address[]",
              "name": "to",
              "type": "address[]"
            },
            {
              "internalType": "uint256[]",
              "name": "amount",
              "type": "uint256[]"
            }
          ],
          "name": "mintShares",
          "outputs": [],
          "stateMutability": "nonpayable",
          "type": "function"
        },
        {
          "inputs": [],
          "name": "multisendLibrary",
          "outputs": [
            {
              "internalType": "address",
              "name": "",
              "type": "address"
            }
          ],
          "stateMutability": "view",
          "type": "function"
        },
        {
          "inputs": [],
          "name": "owner",
          "outputs": [
            {
              "internalType": "address",
              "name": "",
              "type": "address"
            }
          ],
          "stateMutability": "view",
          "type": "function"
        },
        {
          "inputs": [
            {
              "internalType": "uint32",
              "name": "id",
              "type": "uint32"
            },
            {
              "internalType": "bytes",
              "name": "proposalData",
              "type": "bytes"
            }
          ],
          "name": "processProposal",
          "outputs": [],
          "stateMutability": "nonpayable",
          "type": "function"
        },
        {
          "inputs": [],
          "name": "proposalCount",
          "outputs": [
            {
              "internalType": "uint32",
              "name": "",
              "type": "uint32"
            }
          ],
          "stateMutability": "view",
          "type": "function"
        },
        {
          "inputs": [],
          "name": "proposalOffering",
          "outputs": [
            {
              "internalType": "uint256",
              "name": "",
              "type": "uint256"
            }
          ],
          "stateMutability": "view",
          "type": "function"
        },
        {
          "inputs": [
            {
              "internalType": "uint256",
              "name": "",
              "type": "uint256"
            }
          ],
          "name": "proposals",
          "outputs": [
            {
              "internalType": "uint32",
              "name": "id",
              "type": "uint32"
            },
            {
              "internalType": "uint32",
              "name": "prevProposalId",
              "type": "uint32"
            },
            {
              "internalType": "uint32",
              "name": "votingStarts",
              "type": "uint32"
            },
            {
              "internalType": "uint32",
              "name": "votingEnds",
              "type": "uint32"
            },
            {
              "internalType": "uint32",
              "name": "graceEnds",
              "type": "uint32"
            },
            {
              "internalType": "uint32",
              "name": "expiration",
              "type": "uint32"
            },
            {
              "internalType": "uint256",
              "name": "baalGas",
              "type": "uint256"
            },
            {
              "internalType": "uint256",
              "name": "yesVotes",
              "type": "uint256"
            },
            {
              "internalType": "uint256",
              "name": "noVotes",
              "type": "uint256"
            },
            {
              "internalType": "uint256",
              "name": "maxTotalSharesAndLootAtVote",
              "type": "uint256"
            },
            {
              "internalType": "address",
              "name": "sponsor",
              "type": "address"
            },
            {
              "internalType": "bytes32",
              "name": "proposalDataHash",
              "type": "bytes32"
            }
          ],
          "stateMutability": "view",
          "type": "function"
        },
        {
          "inputs": [],
          "name": "quorumPercent",
          "outputs": [
            {
              "internalType": "uint256",
              "name": "",
              "type": "uint256"
            }
          ],
          "stateMutability": "view",
          "type": "function"
        },
        {
          "inputs": [
            {
              "internalType": "address",
              "name": "to",
              "type": "address"
            },
            {
              "internalType": "uint256",
              "name": "sharesToBurn",
              "type": "uint256"
            },
            {
              "internalType": "uint256",
              "name": "lootToBurn",
              "type": "uint256"
            },
            {
              "internalType": "address[]",
              "name": "tokens",
              "type": "address[]"
            }
          ],
          "name": "ragequit",
          "outputs": [],
          "stateMutability": "nonpayable",
          "type": "function"
        },
        {
          "inputs": [],
          "name": "renounceOwnership",
          "outputs": [],
          "stateMutability": "nonpayable",
          "type": "function"
        },
        {
          "inputs": [
            {
              "internalType": "bool",
              "name": "pauseShares",
              "type": "bool"
            },
            {
              "internalType": "bool",
              "name": "pauseLoot",
              "type": "bool"
            }
          ],
          "name": "setAdminConfig",
          "outputs": [],
          "stateMutability": "nonpayable",
          "type": "function"
        },
        {
          "inputs": [
            {
              "internalType": "address",
              "name": "_avatar",
              "type": "address"
            }
          ],
          "name": "setAvatar",
          "outputs": [],
          "stateMutability": "nonpayable",
          "type": "function"
        },
        {
          "inputs": [
            {
              "internalType": "bytes",
              "name": "_governanceConfig",
              "type": "bytes"
            }
          ],
          "name": "setGovernanceConfig",
          "outputs": [],
          "stateMutability": "nonpayable",
          "type": "function"
        },
        {
          "inputs": [
            {
              "internalType": "address",
              "name": "_guard",
              "type": "address"
            }
          ],
          "name": "setGuard",
          "outputs": [],
          "stateMutability": "nonpayable",
          "type": "function"
        },
        {
          "inputs": [
            {
              "internalType": "address[]",
              "name": "_shamans",
              "type": "address[]"
            },
            {
              "internalType": "uint256[]",
              "name": "_permissions",
              "type": "uint256[]"
            }
          ],
          "name": "setShamans",
          "outputs": [],
          "stateMutability": "nonpayable",
          "type": "function"
        },
        {
          "inputs": [
            {
              "internalType": "address",
              "name": "_target",
              "type": "address"
            }
          ],
          "name": "setTarget",
          "outputs": [],
          "stateMutability": "nonpayable",
          "type": "function"
        },
        {
          "inputs": [
            {
              "internalType": "address",
              "name": "_trustedForwarderAddress",
              "type": "address"
            }
          ],
          "name": "setTrustedForwarder",
          "outputs": [],
          "stateMutability": "nonpayable",
          "type": "function"
        },
        {
          "inputs": [
            {
              "internalType": "bytes",
              "name": "_initializationParams",
              "type": "bytes"
            }
          ],
          "name": "setUp",
          "outputs": [],
          "stateMutability": "nonpayable",
          "type": "function"
        },
        {
          "inputs": [
            {
              "internalType": "address",
              "name": "",
              "type": "address"
            }
          ],
          "name": "shamans",
          "outputs": [
            {
              "internalType": "uint256",
              "name": "",
              "type": "uint256"
            }
          ],
          "stateMutability": "view",
          "type": "function"
        },
        {
          "inputs": [],
          "name": "sharesToken",
          "outputs": [
            {
              "internalType": "contract IBaalToken",
              "name": "",
              "type": "address"
            }
          ],
          "stateMutability": "view",
          "type": "function"
        },
        {
          "inputs": [
            {
              "internalType": "uint32",
              "name": "id",
              "type": "uint32"
            }
          ],
          "name": "sponsorProposal",
          "outputs": [],
          "stateMutability": "nonpayable",
          "type": "function"
        },
        {
          "inputs": [],
          "name": "sponsorThreshold",
          "outputs": [
            {
              "internalType": "uint256",
              "name": "",
              "type": "uint256"
            }
          ],
          "stateMutability": "view",
          "type": "function"
        },
        {
          "inputs": [
            {
              "internalType": "uint32",
              "name": "id",
              "type": "uint32"
            }
          ],
          "name": "state",
          "outputs": [
            {
              "internalType": "enum Baal.ProposalState",
              "name": "",
              "type": "uint8"
            }
          ],
          "stateMutability": "view",
          "type": "function"
        },
        {
          "inputs": [
            {
              "internalType": "bytes",
              "name": "proposalData",
              "type": "bytes"
            },
            {
              "internalType": "uint32",
              "name": "expiration",
              "type": "uint32"
            },
            {
              "internalType": "uint256",
              "name": "baalGas",
              "type": "uint256"
            },
            {
              "internalType": "string",
              "name": "details",
              "type": "string"
            }
          ],
          "name": "submitProposal",
          "outputs": [
            {
              "internalType": "uint256",
              "name": "",
              "type": "uint256"
            }
          ],
          "stateMutability": "payable",
          "type": "function"
        },
        {
          "inputs": [
            {
              "internalType": "uint32",
              "name": "id",
              "type": "uint32"
            },
            {
              "internalType": "bool",
              "name": "approved",
              "type": "bool"
            }
          ],
          "name": "submitVote",
          "outputs": [],
          "stateMutability": "nonpayable",
          "type": "function"
        },
        {
          "inputs": [
            {
              "internalType": "address",
              "name": "voter",
              "type": "address"
            },
            {
              "internalType": "uint256",
              "name": "expiry",
              "type": "uint256"
            },
            {
              "internalType": "uint256",
              "name": "nonce",
              "type": "uint256"
            },
            {
              "internalType": "uint32",
              "name": "id",
              "type": "uint32"
            },
            {
              "internalType": "bool",
              "name": "approved",
              "type": "bool"
            },
            {
              "internalType": "uint8",
              "name": "v",
              "type": "uint8"
            },
            {
              "internalType": "bytes32",
              "name": "r",
              "type": "bytes32"
            },
            {
              "internalType": "bytes32",
              "name": "s",
              "type": "bytes32"
            }
          ],
          "name": "submitVoteWithSig",
          "outputs": [],
          "stateMutability": "nonpayable",
          "type": "function"
        },
        {
          "inputs": [],
          "name": "target",
          "outputs": [
            {
              "internalType": "address",
              "name": "",
              "type": "address"
            }
          ],
          "stateMutability": "view",
          "type": "function"
        },
        {
          "inputs": [],
          "name": "totalLoot",
          "outputs": [
            {
              "internalType": "uint256",
              "name": "",
              "type": "uint256"
            }
          ],
          "stateMutability": "view",
          "type": "function"
        },
        {
          "inputs": [],
          "name": "totalShares",
          "outputs": [
            {
              "internalType": "uint256",
              "name": "",
              "type": "uint256"
            }
          ],
          "stateMutability": "view",
          "type": "function"
        },
        {
          "inputs": [],
          "name": "totalSupply",
          "outputs": [
            {
              "internalType": "uint256",
              "name": "",
              "type": "uint256"
            }
          ],
          "stateMutability": "view",
          "type": "function"
        },
        {
          "inputs": [
            {
              "internalType": "address",
              "name": "newOwner",
              "type": "address"
            }
          ],
          "name": "transferOwnership",
          "outputs": [],
          "stateMutability": "nonpayable",
          "type": "function"
        },
        {
          "inputs": [],
          "name": "trustedForwarder",
          "outputs": [
            {
              "internalType": "address",
              "name": "",
              "type": "address"
            }
          ],
          "stateMutability": "view",
          "type": "function"
        },
        {
          "inputs": [],
          "name": "versionRecipient",
          "outputs": [
            {
              "internalType": "string",
              "name": "",
              "type": "string"
            }
          ],
          "stateMutability": "view",
          "type": "function"
        },
        {
          "inputs": [
            {
              "internalType": "address",
              "name": "",
              "type": "address"
            }
          ],
          "name": "votingNonces",
          "outputs": [
            {
              "internalType": "uint256",
              "name": "",
              "type": "uint256"
            }
          ],
          "stateMutability": "view",
          "type": "function"
        },
        {
          "inputs": [],
          "name": "votingPeriod",
          "outputs": [
            {
              "internalType": "uint32",
              "name": "",
              "type": "uint32"
            }
          ],
          "stateMutability": "view",
          "type": "function"
        }
      ],
      "args": [],
      "numDeployments": 3,
      "linkedData": {},
      "solcInputHash": "a128f2a31ecf0f1507d09c047cd019fe",
      "metadata": "{\"compiler\":{\"version\":\"0.8.7+commit.e28d00a7\"},\"language\":\"Solidity\",\"output\":{\"abi\":[{\"inputs\":[],\"stateMutability\":\"nonpayable\",\"type\":\"constructor\"},{\"inputs\":[{\"internalType\":\"address\",\"name\":\"guard_\",\"type\":\"address\"}],\"name\":\"NotIERC165Compliant\",\"type\":\"error\"},{\"anonymous\":false,\"inputs\":[{\"indexed\":true,\"internalType\":\"address\",\"name\":\"owner\",\"type\":\"address\"},{\"indexed\":true,\"internalType\":\"address\",\"name\":\"spender\",\"type\":\"address\"},{\"indexed\":false,\"internalType\":\"uint256\",\"name\":\"amount\",\"type\":\"uint256\"}],\"name\":\"Approval\",\"type\":\"event\"},{\"anonymous\":false,\"inputs\":[{\"indexed\":true,\"internalType\":\"address\",\"name\":\"previousAvatar\",\"type\":\"address\"},{\"indexed\":true,\"internalType\":\"address\",\"name\":\"newAvatar\",\"type\":\"address\"}],\"name\":\"AvatarSet\",\"type\":\"event\"},{\"anonymous\":false,\"inputs\":[{\"indexed\":true,\"internalType\":\"uint256\",\"name\":\"proposal\",\"type\":\"uint256\"}],\"name\":\"CancelProposal\",\"type\":\"event\"},{\"anonymous\":false,\"inputs\":[{\"indexed\":false,\"internalType\":\"address\",\"name\":\"guard\",\"type\":\"address\"}],\"name\":\"ChangedGuard\",\"type\":\"event\"},{\"anonymous\":false,\"inputs\":[{\"indexed\":false,\"internalType\":\"uint32\",\"name\":\"voting\",\"type\":\"uint32\"},{\"indexed\":false,\"internalType\":\"uint32\",\"name\":\"grace\",\"type\":\"uint32\"},{\"indexed\":false,\"internalType\":\"uint256\",\"name\":\"newOffering\",\"type\":\"uint256\"},{\"indexed\":false,\"internalType\":\"uint256\",\"name\":\"quorum\",\"type\":\"uint256\"},{\"indexed\":false,\"internalType\":\"uint256\",\"name\":\"sponsor\",\"type\":\"uint256\"},{\"indexed\":false,\"internalType\":\"uint256\",\"name\":\"minRetention\",\"type\":\"uint256\"}],\"name\":\"GovernanceConfigSet\",\"type\":\"event\"},{\"anonymous\":false,\"inputs\":[{\"indexed\":false,\"internalType\":\"uint8\",\"name\":\"version\",\"type\":\"uint8\"}],\"name\":\"Initialized\",\"type\":\"event\"},{\"anonymous\":false,\"inputs\":[{\"indexed\":false,\"internalType\":\"bool\",\"name\":\"adminLock\",\"type\":\"bool\"}],\"name\":\"LockAdmin\",\"type\":\"event\"},{\"anonymous\":false,\"inputs\":[{\"indexed\":false,\"internalType\":\"bool\",\"name\":\"governorLock\",\"type\":\"bool\"}],\"name\":\"LockGovernor\",\"type\":\"event\"},{\"anonymous\":false,\"inputs\":[{\"indexed\":false,\"internalType\":\"bool\",\"name\":\"managerLock\",\"type\":\"bool\"}],\"name\":\"LockManager\",\"type\":\"event\"},{\"anonymous\":false,\"inputs\":[{\"indexed\":false,\"internalType\":\"bool\",\"name\":\"paused\",\"type\":\"bool\"}],\"name\":\"LootPaused\",\"type\":\"event\"},{\"anonymous\":false,\"inputs\":[{\"indexed\":true,\"internalType\":\"address\",\"name\":\"previousOwner\",\"type\":\"address\"},{\"indexed\":true,\"internalType\":\"address\",\"name\":\"newOwner\",\"type\":\"address\"}],\"name\":\"OwnershipTransferred\",\"type\":\"event\"},{\"anonymous\":false,\"inputs\":[{\"indexed\":true,\"internalType\":\"uint256\",\"name\":\"proposal\",\"type\":\"uint256\"},{\"indexed\":false,\"internalType\":\"bool\",\"name\":\"passed\",\"type\":\"bool\"},{\"indexed\":false,\"internalType\":\"bool\",\"name\":\"actionFailed\",\"type\":\"bool\"}],\"name\":\"ProcessProposal\",\"type\":\"event\"},{\"anonymous\":false,\"inputs\":[{\"indexed\":true,\"internalType\":\"address\",\"name\":\"member\",\"type\":\"address\"},{\"indexed\":false,\"internalType\":\"address\",\"name\":\"to\",\"type\":\"address\"},{\"indexed\":true,\"internalType\":\"uint256\",\"name\":\"lootToBurn\",\"type\":\"uint256\"},{\"indexed\":true,\"internalType\":\"uint256\",\"name\":\"sharesToBurn\",\"type\":\"uint256\"},{\"indexed\":false,\"internalType\":\"address[]\",\"name\":\"tokens\",\"type\":\"address[]\"}],\"name\":\"Ragequit\",\"type\":\"event\"},{\"anonymous\":false,\"inputs\":[{\"indexed\":true,\"internalType\":\"address\",\"name\":\"forwarder\",\"type\":\"address\"}],\"name\":\"SetTrustedForwarder\",\"type\":\"event\"},{\"anonymous\":false,\"inputs\":[{\"indexed\":false,\"internalType\":\"bool\",\"name\":\"lootPaused\",\"type\":\"bool\"},{\"indexed\":false,\"internalType\":\"bool\",\"name\":\"sharesPaused\",\"type\":\"bool\"},{\"indexed\":false,\"internalType\":\"uint32\",\"name\":\"gracePeriod\",\"type\":\"uint32\"},{\"indexed\":false,\"internalType\":\"uint32\",\"name\":\"votingPeriod\",\"type\":\"uint32\"},{\"indexed\":false,\"internalType\":\"uint256\",\"name\":\"proposalOffering\",\"type\":\"uint256\"},{\"indexed\":false,\"internalType\":\"uint256\",\"name\":\"quorumPercent\",\"type\":\"uint256\"},{\"indexed\":false,\"internalType\":\"uint256\",\"name\":\"sponsorThreshold\",\"type\":\"uint256\"},{\"indexed\":false,\"internalType\":\"uint256\",\"name\":\"minRetentionPercent\",\"type\":\"uint256\"},{\"indexed\":false,\"internalType\":\"string\",\"name\":\"name\",\"type\":\"string\"},{\"indexed\":false,\"internalType\":\"string\",\"name\":\"symbol\",\"type\":\"string\"},{\"indexed\":false,\"internalType\":\"uint256\",\"name\":\"totalShares\",\"type\":\"uint256\"},{\"indexed\":false,\"internalType\":\"uint256\",\"name\":\"totalLoot\",\"type\":\"uint256\"}],\"name\":\"SetupComplete\",\"type\":\"event\"},{\"anonymous\":false,\"inputs\":[{\"indexed\":true,\"internalType\":\"address\",\"name\":\"shaman\",\"type\":\"address\"},{\"indexed\":false,\"internalType\":\"uint256\",\"name\":\"permission\",\"type\":\"uint256\"}],\"name\":\"ShamanSet\",\"type\":\"event\"},{\"anonymous\":false,\"inputs\":[{\"indexed\":false,\"internalType\":\"bool\",\"name\":\"paused\",\"type\":\"bool\"}],\"name\":\"SharesPaused\",\"type\":\"event\"},{\"anonymous\":false,\"inputs\":[{\"indexed\":true,\"internalType\":\"address\",\"name\":\"member\",\"type\":\"address\"},{\"indexed\":true,\"internalType\":\"uint256\",\"name\":\"proposal\",\"type\":\"uint256\"},{\"indexed\":true,\"internalType\":\"uint256\",\"name\":\"votingStarts\",\"type\":\"uint256\"}],\"name\":\"SponsorProposal\",\"type\":\"event\"},{\"anonymous\":false,\"inputs\":[{\"indexed\":true,\"internalType\":\"uint256\",\"name\":\"proposal\",\"type\":\"uint256\"},{\"indexed\":true,\"internalType\":\"bytes32\",\"name\":\"proposalDataHash\",\"type\":\"bytes32\"},{\"indexed\":false,\"internalType\":\"uint256\",\"name\":\"votingPeriod\",\"type\":\"uint256\"},{\"indexed\":false,\"internalType\":\"bytes\",\"name\":\"proposalData\",\"type\":\"bytes\"},{\"indexed\":false,\"internalType\":\"uint256\",\"name\":\"expiration\",\"type\":\"uint256\"},{\"indexed\":false,\"internalType\":\"uint256\",\"name\":\"baalGas\",\"type\":\"uint256\"},{\"indexed\":false,\"internalType\":\"bool\",\"name\":\"selfSponsor\",\"type\":\"bool\"},{\"indexed\":false,\"internalType\":\"uint256\",\"name\":\"timestamp\",\"type\":\"uint256\"},{\"indexed\":false,\"internalType\":\"string\",\"name\":\"details\",\"type\":\"string\"}],\"name\":\"SubmitProposal\",\"type\":\"event\"},{\"anonymous\":false,\"inputs\":[{\"indexed\":true,\"internalType\":\"address\",\"name\":\"member\",\"type\":\"address\"},{\"indexed\":false,\"internalType\":\"uint256\",\"name\":\"balance\",\"type\":\"uint256\"},{\"indexed\":true,\"internalType\":\"uint256\",\"name\":\"proposal\",\"type\":\"uint256\"},{\"indexed\":true,\"internalType\":\"bool\",\"name\":\"approved\",\"type\":\"bool\"}],\"name\":\"SubmitVote\",\"type\":\"event\"},{\"anonymous\":false,\"inputs\":[{\"indexed\":true,\"internalType\":\"address\",\"name\":\"previousTarget\",\"type\":\"address\"},{\"indexed\":true,\"internalType\":\"address\",\"name\":\"newTarget\",\"type\":\"address\"}],\"name\":\"TargetSet\",\"type\":\"event\"},{\"inputs\":[],\"name\":\"adminLock\",\"outputs\":[{\"internalType\":\"bool\",\"name\":\"\",\"type\":\"bool\"}],\"stateMutability\":\"view\",\"type\":\"function\"},{\"inputs\":[],\"name\":\"avatar\",\"outputs\":[{\"internalType\":\"address\",\"name\":\"\",\"type\":\"address\"}],\"stateMutability\":\"view\",\"type\":\"function\"},{\"inputs\":[{\"internalType\":\"address[]\",\"name\":\"from\",\"type\":\"address[]\"},{\"internalType\":\"uint256[]\",\"name\":\"amount\",\"type\":\"uint256[]\"}],\"name\":\"burnLoot\",\"outputs\":[],\"stateMutability\":\"nonpayable\",\"type\":\"function\"},{\"inputs\":[{\"internalType\":\"address[]\",\"name\":\"from\",\"type\":\"address[]\"},{\"internalType\":\"uint256[]\",\"name\":\"amount\",\"type\":\"uint256[]\"}],\"name\":\"burnShares\",\"outputs\":[],\"stateMutability\":\"nonpayable\",\"type\":\"function\"},{\"inputs\":[{\"internalType\":\"uint32\",\"name\":\"id\",\"type\":\"uint32\"}],\"name\":\"cancelProposal\",\"outputs\":[],\"stateMutability\":\"nonpayable\",\"type\":\"function\"},{\"inputs\":[{\"internalType\":\"bytes[]\",\"name\":\"_calls\",\"type\":\"bytes[]\"},{\"internalType\":\"address\",\"name\":\"_target\",\"type\":\"address\"}],\"name\":\"encodeMultisend\",\"outputs\":[{\"internalType\":\"bytes\",\"name\":\"encodedMultisend\",\"type\":\"bytes\"}],\"stateMutability\":\"pure\",\"type\":\"function\"},{\"inputs\":[{\"internalType\":\"address\",\"name\":\"_to\",\"type\":\"address\"},{\"internalType\":\"uint256\",\"name\":\"_value\",\"type\":\"uint256\"},{\"internalType\":\"bytes\",\"name\":\"_data\",\"type\":\"bytes\"}],\"name\":\"executeAsBaal\",\"outputs\":[],\"stateMutability\":\"nonpayable\",\"type\":\"function\"},{\"inputs\":[],\"name\":\"getGuard\",\"outputs\":[{\"internalType\":\"address\",\"name\":\"_guard\",\"type\":\"address\"}],\"stateMutability\":\"view\",\"type\":\"function\"},{\"inputs\":[{\"internalType\":\"uint32\",\"name\":\"id\",\"type\":\"uint32\"}],\"name\":\"getProposalStatus\",\"outputs\":[{\"internalType\":\"bool[4]\",\"name\":\"\",\"type\":\"bool[4]\"}],\"stateMutability\":\"view\",\"type\":\"function\"},{\"inputs\":[],\"name\":\"governorLock\",\"outputs\":[{\"internalType\":\"bool\",\"name\":\"\",\"type\":\"bool\"}],\"stateMutability\":\"view\",\"type\":\"function\"},{\"inputs\":[],\"name\":\"gracePeriod\",\"outputs\":[{\"internalType\":\"uint32\",\"name\":\"\",\"type\":\"uint32\"}],\"stateMutability\":\"view\",\"type\":\"function\"},{\"inputs\":[],\"name\":\"guard\",\"outputs\":[{\"internalType\":\"address\",\"name\":\"\",\"type\":\"address\"}],\"stateMutability\":\"view\",\"type\":\"function\"},{\"inputs\":[{\"internalType\":\"bytes\",\"name\":\"_transactions\",\"type\":\"bytes\"}],\"name\":\"hashOperation\",\"outputs\":[{\"internalType\":\"bytes32\",\"name\":\"hash\",\"type\":\"bytes32\"}],\"stateMutability\":\"pure\",\"type\":\"function\"},{\"inputs\":[{\"internalType\":\"address\",\"name\":\"shaman\",\"type\":\"address\"}],\"name\":\"isAdmin\",\"outputs\":[{\"internalType\":\"bool\",\"name\":\"\",\"type\":\"bool\"}],\"stateMutability\":\"view\",\"type\":\"function\"},{\"inputs\":[{\"internalType\":\"address\",\"name\":\"shaman\",\"type\":\"address\"}],\"name\":\"isGovernor\",\"outputs\":[{\"internalType\":\"bool\",\"name\":\"\",\"type\":\"bool\"}],\"stateMutability\":\"view\",\"type\":\"function\"},{\"inputs\":[{\"internalType\":\"address\",\"name\":\"shaman\",\"type\":\"address\"}],\"name\":\"isManager\",\"outputs\":[{\"internalType\":\"bool\",\"name\":\"\",\"type\":\"bool\"}],\"stateMutability\":\"view\",\"type\":\"function\"},{\"inputs\":[{\"internalType\":\"address\",\"name\":\"forwarder\",\"type\":\"address\"}],\"name\":\"isTrustedForwarder\",\"outputs\":[{\"internalType\":\"bool\",\"name\":\"\",\"type\":\"bool\"}],\"stateMutability\":\"view\",\"type\":\"function\"},{\"inputs\":[],\"name\":\"latestSponsoredProposalId\",\"outputs\":[{\"internalType\":\"uint32\",\"name\":\"\",\"type\":\"uint32\"}],\"stateMutability\":\"view\",\"type\":\"function\"},{\"inputs\":[],\"name\":\"lockAdmin\",\"outputs\":[],\"stateMutability\":\"nonpayable\",\"type\":\"function\"},{\"inputs\":[],\"name\":\"lockGovernor\",\"outputs\":[],\"stateMutability\":\"nonpayable\",\"type\":\"function\"},{\"inputs\":[],\"name\":\"lockManager\",\"outputs\":[],\"stateMutability\":\"nonpayable\",\"type\":\"function\"},{\"inputs\":[],\"name\":\"lootToken\",\"outputs\":[{\"internalType\":\"contract IBaalToken\",\"name\":\"\",\"type\":\"address\"}],\"stateMutability\":\"view\",\"type\":\"function\"},{\"inputs\":[],\"name\":\"managerLock\",\"outputs\":[{\"internalType\":\"bool\",\"name\":\"\",\"type\":\"bool\"}],\"stateMutability\":\"view\",\"type\":\"function\"},{\"inputs\":[{\"internalType\":\"address\",\"name\":\"\",\"type\":\"address\"},{\"internalType\":\"uint32\",\"name\":\"\",\"type\":\"uint32\"}],\"name\":\"memberVoted\",\"outputs\":[{\"internalType\":\"bool\",\"name\":\"\",\"type\":\"bool\"}],\"stateMutability\":\"view\",\"type\":\"function\"},{\"inputs\":[],\"name\":\"minRetentionPercent\",\"outputs\":[{\"internalType\":\"uint256\",\"name\":\"\",\"type\":\"uint256\"}],\"stateMutability\":\"view\",\"type\":\"function\"},{\"inputs\":[{\"internalType\":\"address[]\",\"name\":\"to\",\"type\":\"address[]\"},{\"internalType\":\"uint256[]\",\"name\":\"amount\",\"type\":\"uint256[]\"}],\"name\":\"mintLoot\",\"outputs\":[],\"stateMutability\":\"nonpayable\",\"type\":\"function\"},{\"inputs\":[{\"internalType\":\"address[]\",\"name\":\"to\",\"type\":\"address[]\"},{\"internalType\":\"uint256[]\",\"name\":\"amount\",\"type\":\"uint256[]\"}],\"name\":\"mintShares\",\"outputs\":[],\"stateMutability\":\"nonpayable\",\"type\":\"function\"},{\"inputs\":[],\"name\":\"multisendLibrary\",\"outputs\":[{\"internalType\":\"address\",\"name\":\"\",\"type\":\"address\"}],\"stateMutability\":\"view\",\"type\":\"function\"},{\"inputs\":[],\"name\":\"owner\",\"outputs\":[{\"internalType\":\"address\",\"name\":\"\",\"type\":\"address\"}],\"stateMutability\":\"view\",\"type\":\"function\"},{\"inputs\":[{\"internalType\":\"uint32\",\"name\":\"id\",\"type\":\"uint32\"},{\"internalType\":\"bytes\",\"name\":\"proposalData\",\"type\":\"bytes\"}],\"name\":\"processProposal\",\"outputs\":[],\"stateMutability\":\"nonpayable\",\"type\":\"function\"},{\"inputs\":[],\"name\":\"proposalCount\",\"outputs\":[{\"internalType\":\"uint32\",\"name\":\"\",\"type\":\"uint32\"}],\"stateMutability\":\"view\",\"type\":\"function\"},{\"inputs\":[],\"name\":\"proposalOffering\",\"outputs\":[{\"internalType\":\"uint256\",\"name\":\"\",\"type\":\"uint256\"}],\"stateMutability\":\"view\",\"type\":\"function\"},{\"inputs\":[{\"internalType\":\"uint256\",\"name\":\"\",\"type\":\"uint256\"}],\"name\":\"proposals\",\"outputs\":[{\"internalType\":\"uint32\",\"name\":\"id\",\"type\":\"uint32\"},{\"internalType\":\"uint32\",\"name\":\"prevProposalId\",\"type\":\"uint32\"},{\"internalType\":\"uint32\",\"name\":\"votingStarts\",\"type\":\"uint32\"},{\"internalType\":\"uint32\",\"name\":\"votingEnds\",\"type\":\"uint32\"},{\"internalType\":\"uint32\",\"name\":\"graceEnds\",\"type\":\"uint32\"},{\"internalType\":\"uint32\",\"name\":\"expiration\",\"type\":\"uint32\"},{\"internalType\":\"uint256\",\"name\":\"baalGas\",\"type\":\"uint256\"},{\"internalType\":\"uint256\",\"name\":\"yesVotes\",\"type\":\"uint256\"},{\"internalType\":\"uint256\",\"name\":\"noVotes\",\"type\":\"uint256\"},{\"internalType\":\"uint256\",\"name\":\"maxTotalSharesAndLootAtVote\",\"type\":\"uint256\"},{\"internalType\":\"address\",\"name\":\"sponsor\",\"type\":\"address\"},{\"internalType\":\"bytes32\",\"name\":\"proposalDataHash\",\"type\":\"bytes32\"}],\"stateMutability\":\"view\",\"type\":\"function\"},{\"inputs\":[],\"name\":\"quorumPercent\",\"outputs\":[{\"internalType\":\"uint256\",\"name\":\"\",\"type\":\"uint256\"}],\"stateMutability\":\"view\",\"type\":\"function\"},{\"inputs\":[{\"internalType\":\"address\",\"name\":\"to\",\"type\":\"address\"},{\"internalType\":\"uint256\",\"name\":\"sharesToBurn\",\"type\":\"uint256\"},{\"internalType\":\"uint256\",\"name\":\"lootToBurn\",\"type\":\"uint256\"},{\"internalType\":\"address[]\",\"name\":\"tokens\",\"type\":\"address[]\"}],\"name\":\"ragequit\",\"outputs\":[],\"stateMutability\":\"nonpayable\",\"type\":\"function\"},{\"inputs\":[],\"name\":\"renounceOwnership\",\"outputs\":[],\"stateMutability\":\"nonpayable\",\"type\":\"function\"},{\"inputs\":[{\"internalType\":\"bool\",\"name\":\"pauseShares\",\"type\":\"bool\"},{\"internalType\":\"bool\",\"name\":\"pauseLoot\",\"type\":\"bool\"}],\"name\":\"setAdminConfig\",\"outputs\":[],\"stateMutability\":\"nonpayable\",\"type\":\"function\"},{\"inputs\":[{\"internalType\":\"address\",\"name\":\"_avatar\",\"type\":\"address\"}],\"name\":\"setAvatar\",\"outputs\":[],\"stateMutability\":\"nonpayable\",\"type\":\"function\"},{\"inputs\":[{\"internalType\":\"bytes\",\"name\":\"_governanceConfig\",\"type\":\"bytes\"}],\"name\":\"setGovernanceConfig\",\"outputs\":[],\"stateMutability\":\"nonpayable\",\"type\":\"function\"},{\"inputs\":[{\"internalType\":\"address\",\"name\":\"_guard\",\"type\":\"address\"}],\"name\":\"setGuard\",\"outputs\":[],\"stateMutability\":\"nonpayable\",\"type\":\"function\"},{\"inputs\":[{\"internalType\":\"address[]\",\"name\":\"_shamans\",\"type\":\"address[]\"},{\"internalType\":\"uint256[]\",\"name\":\"_permissions\",\"type\":\"uint256[]\"}],\"name\":\"setShamans\",\"outputs\":[],\"stateMutability\":\"nonpayable\",\"type\":\"function\"},{\"inputs\":[{\"internalType\":\"address\",\"name\":\"_target\",\"type\":\"address\"}],\"name\":\"setTarget\",\"outputs\":[],\"stateMutability\":\"nonpayable\",\"type\":\"function\"},{\"inputs\":[{\"internalType\":\"address\",\"name\":\"_trustedForwarderAddress\",\"type\":\"address\"}],\"name\":\"setTrustedForwarder\",\"outputs\":[],\"stateMutability\":\"nonpayable\",\"type\":\"function\"},{\"inputs\":[{\"internalType\":\"bytes\",\"name\":\"_initializationParams\",\"type\":\"bytes\"}],\"name\":\"setUp\",\"outputs\":[],\"stateMutability\":\"nonpayable\",\"type\":\"function\"},{\"inputs\":[{\"internalType\":\"address\",\"name\":\"\",\"type\":\"address\"}],\"name\":\"shamans\",\"outputs\":[{\"internalType\":\"uint256\",\"name\":\"\",\"type\":\"uint256\"}],\"stateMutability\":\"view\",\"type\":\"function\"},{\"inputs\":[],\"name\":\"sharesToken\",\"outputs\":[{\"internalType\":\"contract IBaalToken\",\"name\":\"\",\"type\":\"address\"}],\"stateMutability\":\"view\",\"type\":\"function\"},{\"inputs\":[{\"internalType\":\"uint32\",\"name\":\"id\",\"type\":\"uint32\"}],\"name\":\"sponsorProposal\",\"outputs\":[],\"stateMutability\":\"nonpayable\",\"type\":\"function\"},{\"inputs\":[],\"name\":\"sponsorThreshold\",\"outputs\":[{\"internalType\":\"uint256\",\"name\":\"\",\"type\":\"uint256\"}],\"stateMutability\":\"view\",\"type\":\"function\"},{\"inputs\":[{\"internalType\":\"uint32\",\"name\":\"id\",\"type\":\"uint32\"}],\"name\":\"state\",\"outputs\":[{\"internalType\":\"enum Baal.ProposalState\",\"name\":\"\",\"type\":\"uint8\"}],\"stateMutability\":\"view\",\"type\":\"function\"},{\"inputs\":[{\"internalType\":\"bytes\",\"name\":\"proposalData\",\"type\":\"bytes\"},{\"internalType\":\"uint32\",\"name\":\"expiration\",\"type\":\"uint32\"},{\"internalType\":\"uint256\",\"name\":\"baalGas\",\"type\":\"uint256\"},{\"internalType\":\"string\",\"name\":\"details\",\"type\":\"string\"}],\"name\":\"submitProposal\",\"outputs\":[{\"internalType\":\"uint256\",\"name\":\"\",\"type\":\"uint256\"}],\"stateMutability\":\"payable\",\"type\":\"function\"},{\"inputs\":[{\"internalType\":\"uint32\",\"name\":\"id\",\"type\":\"uint32\"},{\"internalType\":\"bool\",\"name\":\"approved\",\"type\":\"bool\"}],\"name\":\"submitVote\",\"outputs\":[],\"stateMutability\":\"nonpayable\",\"type\":\"function\"},{\"inputs\":[{\"internalType\":\"address\",\"name\":\"voter\",\"type\":\"address\"},{\"internalType\":\"uint256\",\"name\":\"expiry\",\"type\":\"uint256\"},{\"internalType\":\"uint256\",\"name\":\"nonce\",\"type\":\"uint256\"},{\"internalType\":\"uint32\",\"name\":\"id\",\"type\":\"uint32\"},{\"internalType\":\"bool\",\"name\":\"approved\",\"type\":\"bool\"},{\"internalType\":\"uint8\",\"name\":\"v\",\"type\":\"uint8\"},{\"internalType\":\"bytes32\",\"name\":\"r\",\"type\":\"bytes32\"},{\"internalType\":\"bytes32\",\"name\":\"s\",\"type\":\"bytes32\"}],\"name\":\"submitVoteWithSig\",\"outputs\":[],\"stateMutability\":\"nonpayable\",\"type\":\"function\"},{\"inputs\":[],\"name\":\"target\",\"outputs\":[{\"internalType\":\"address\",\"name\":\"\",\"type\":\"address\"}],\"stateMutability\":\"view\",\"type\":\"function\"},{\"inputs\":[],\"name\":\"totalLoot\",\"outputs\":[{\"internalType\":\"uint256\",\"name\":\"\",\"type\":\"uint256\"}],\"stateMutability\":\"view\",\"type\":\"function\"},{\"inputs\":[],\"name\":\"totalShares\",\"outputs\":[{\"internalType\":\"uint256\",\"name\":\"\",\"type\":\"uint256\"}],\"stateMutability\":\"view\",\"type\":\"function\"},{\"inputs\":[],\"name\":\"totalSupply\",\"outputs\":[{\"internalType\":\"uint256\",\"name\":\"\",\"type\":\"uint256\"}],\"stateMutability\":\"view\",\"type\":\"function\"},{\"inputs\":[{\"internalType\":\"address\",\"name\":\"newOwner\",\"type\":\"address\"}],\"name\":\"transferOwnership\",\"outputs\":[],\"stateMutability\":\"nonpayable\",\"type\":\"function\"},{\"inputs\":[],\"name\":\"trustedForwarder\",\"outputs\":[{\"internalType\":\"address\",\"name\":\"\",\"type\":\"address\"}],\"stateMutability\":\"view\",\"type\":\"function\"},{\"inputs\":[],\"name\":\"versionRecipient\",\"outputs\":[{\"internalType\":\"string\",\"name\":\"\",\"type\":\"string\"}],\"stateMutability\":\"view\",\"type\":\"function\"},{\"inputs\":[{\"internalType\":\"address\",\"name\":\"\",\"type\":\"address\"}],\"name\":\"votingNonces\",\"outputs\":[{\"internalType\":\"uint256\",\"name\":\"\",\"type\":\"uint256\"}],\"stateMutability\":\"view\",\"type\":\"function\"},{\"inputs\":[],\"name\":\"votingPeriod\",\"outputs\":[{\"internalType\":\"uint32\",\"name\":\"\",\"type\":\"uint32\"}],\"stateMutability\":\"view\",\"type\":\"function\"}],\"devdoc\":{\"kind\":\"dev\",\"methods\":{\"burnLoot(address[],uint256[])\":{\"params\":{\"amount\":\"Array of amounts to burn\",\"from\":\"Array of addresses to lose loot\"}},\"burnShares(address[],uint256[])\":{\"params\":{\"amount\":\"Array of amounts to burn\",\"from\":\"Array of addresses to lose shares\"}},\"cancelProposal(uint32)\":{\"details\":\"Cancellable if proposal is during voting, sender is sponsor, governor, or if sponsor has fallen below threshold\",\"params\":{\"id\":\"Number of proposal in `proposals` mapping to process for execution.\"}},\"executeAsBaal(address,uint256,bytes)\":{\"details\":\"Function to Execute arbitrary code as baal - useful if funds are accidentally sent here\",\"params\":{\"_data\":\"arbitrary transaction data\",\"_to\":\"address to call\",\"_value\":\"value to include in wei\"}},\"getProposalStatus(uint32)\":{\"params\":{\"id\":\"Number of proposal in proposals\"},\"returns\":{\"_0\":\"[cancelled, processed, passed, actionFailed]\"}},\"isAdmin(address)\":{\"params\":{\"shaman\":\"Address attempting to execute admin permissioned functions\"}},\"isGovernor(address)\":{\"params\":{\"shaman\":\"Address attempting to execute governor permissioned functions\"}},\"isManager(address)\":{\"params\":{\"shaman\":\"Address attempting to execute manager permissioned functions\"}},\"mintLoot(address[],uint256[])\":{\"params\":{\"amount\":\"Array of amounts to mint\",\"to\":\"Array of addresses to mint loot\"}},\"mintShares(address[],uint256[])\":{\"params\":{\"amount\":\"Array of amounts to mint\",\"to\":\"Array of addresses to receive shares\"}},\"owner()\":{\"details\":\"Returns the address of the current owner.\"},\"processProposal(uint32,bytes)\":{\"details\":\"Proposal must have succeeded, not been processed, not expired, retention threshold must be met\",\"params\":{\"id\":\"Number of proposal in `proposals` mapping to process for execution.\",\"proposalData\":\"Packed multisend data to execute via Gnosis multisend library\"}},\"ragequit(address,uint256,uint256,address[])\":{\"params\":{\"lootToBurn\":\"Baal pure economic weight to burn.\",\"sharesToBurn\":\"Baal voting weight to burn.\",\"to\":\"Account that receives 'fair share'.\",\"tokens\":\"Array of tokens to include in rage quit calculation\"}},\"renounceOwnership()\":{\"details\":\"Leaves the contract without owner. It will not be possible to call `onlyOwner` functions anymore. Can only be called by the current owner. NOTE: Renouncing ownership will leave the contract without an owner, thereby removing any functionality that is only available to the owner.\"},\"setAdminConfig(bool,bool)\":{\"params\":{\"pauseLoot\":\"Turn loot transfers on or off\",\"pauseShares\":\"Turn share transfers on or off\"}},\"setAvatar(address)\":{\"details\":\"Sets the avatar to a new avatar (`newAvatar`).\"},\"setGovernanceConfig(bytes)\":{\"params\":{\"_governanceConfig\":\"Encoded configuration parameters voting, grace period, tribute, quorum, sponsor threshold, retention bound\"}},\"setGuard(address)\":{\"details\":\"Set a guard that checks transactions before execution.\",\"params\":{\"_guard\":\"The address of the guard to be used or the 0 address to disable the guard.\"}},\"setShamans(address[],uint256[])\":{\"params\":{\"_permissions\":\"Permission level of each shaman in _shamans\",\"_shamans\":\"Addresses of shaman contracts\"}},\"setTarget(address)\":{\"details\":\"Sets the target to a new target (`newTarget`).\"},\"setTrustedForwarder(address)\":{\"params\":{\"_trustedForwarderAddress\":\"Trusted forwarder's address\"}},\"setUp(bytes)\":{\"params\":{\"_initializationParams\":\"Encoded setup information.\"}},\"sponsorProposal(uint32)\":{\"params\":{\"id\":\"Number of proposal in `proposals` mapping to sponsor.\"}},\"state(uint32)\":{\"params\":{\"id\":\"Number of proposal in proposals\"},\"returns\":{\"_0\":\"Unborn -> Submitted -> Voting -> Grace -> Ready -> Processed         \\\\-> Cancelled  \\\\-> Defeated\"}},\"submitProposal(bytes,uint32,uint256,string)\":{\"params\":{\"details\":\"Context for proposal.\",\"proposalData\":\"Multisend encoded transactions or proposal data\"},\"returns\":{\"_0\":\"proposal Count for submitted proposal.\"}},\"submitVote(uint32,bool)\":{\"params\":{\"approved\":\"If 'true', member will cast `yesVotes` onto proposal - if 'false', `noVotes` will be counted.\",\"id\":\"Number of proposal in `proposals` mapping to cast vote on.\"}},\"submitVoteWithSig(address,uint256,uint256,uint32,bool,uint8,bytes32,bytes32)\":{\"params\":{\"approved\":\"If 'true', member will cast `yesVotes` onto proposal - if 'false', `noVotes` will be counted.\",\"expiry\":\"Expiration of signature.\",\"id\":\"Number of proposal in `proposals` mapping to cast vote on.\",\"r\":\"r in signature\",\"s\":\"s in signature\",\"v\":\"v in signature\",\"voter\":\"Address of member who submitted vote.\"}},\"transferOwnership(address)\":{\"details\":\"Transfers ownership of the contract to a new account (`newOwner`). Can only be called by the current owner.\"}},\"title\":\"Baal ';_;'.\",\"version\":1},\"userdoc\":{\"errors\":{\"NotIERC165Compliant(address)\":[{\"notice\":\"`guard_` does not implement IERC165.\"}]},\"kind\":\"user\",\"methods\":{\"burnLoot(address[],uint256[])\":{\"notice\":\"Baal-or-manager-only function to burn loot.\"},\"burnShares(address[],uint256[])\":{\"notice\":\"Baal-or-manager-only function to burn shares.\"},\"cancelProposal(uint32)\":{\"notice\":\"Cancel proposal prior to execution\"},\"executeAsBaal(address,uint256,bytes)\":{\"notice\":\"Can only be called by the avatar which means this can only be called if passed by another     proposal or by a delegated signer on the Safe\"},\"getProposalStatus(uint32)\":{\"notice\":\"Helper to get recorded proposal flags\"},\"hashOperation(bytes)\":{\"notice\":\"Returns the keccak256 hash of calldata\"},\"isAdmin(address)\":{\"notice\":\"Helper to check if shaman permission contains admin capabilities\"},\"isGovernor(address)\":{\"notice\":\"Helper to check if shaman permission contains governor capabilities\"},\"isManager(address)\":{\"notice\":\"Helper to check if shaman permission contains manager capabilities\"},\"isTrustedForwarder(address)\":{\"notice\":\"return if the forwarder is trusted to forward relayed transactions to us. the forwarder is required to verify the sender's signature, and verify the call is not a replay.\"},\"lockAdmin()\":{\"notice\":\"Lock admin so setShamans cannot be called with admin changes\"},\"lockGovernor()\":{\"notice\":\"Lock governor so setShamans cannot be called with governor changes\"},\"lockManager()\":{\"notice\":\"Lock manager so setShamans cannot be called with manager changes\"},\"mintLoot(address[],uint256[])\":{\"notice\":\"Baal-or-manager-only function to mint loot.\"},\"mintShares(address[],uint256[])\":{\"notice\":\"Baal-or-manager-only function to mint shares.\"},\"processProposal(uint32,bytes)\":{\"notice\":\"Process `proposal` & execute internal functions.\"},\"ragequit(address,uint256,uint256,address[])\":{\"notice\":\"Process member burn of `shares` and/or `loot` to claim 'fair share' of specified `tokens`\"},\"setAdminConfig(bool,bool)\":{\"notice\":\"Baal-or-admin-only function to set admin config (pause/unpause shares/loot) and call function on token\"},\"setAvatar(address)\":{\"notice\":\"Can only be called by the current owner.\"},\"setGovernanceConfig(bytes)\":{\"notice\":\"Baal-or-governance-only function to change periods.\"},\"setShamans(address[],uint256[])\":{\"notice\":\"Baal-only function to set shaman status.\"},\"setTarget(address)\":{\"notice\":\"Can only be called by the current owner.\"},\"setTrustedForwarder(address)\":{\"notice\":\"Baal-or-governance only function to set trusted forwarder for meta-transactions.\"},\"setUp(bytes)\":{\"notice\":\"Summon Baal with voting configuration & initial array of `members` accounts with `shares` & `loot` weights.\"},\"sponsorProposal(uint32)\":{\"notice\":\"Sponsor proposal to Baal `members` for approval within voting period.\"},\"state(uint32)\":{\"notice\":\"State helper to determine proposal state\"},\"submitProposal(bytes,uint32,uint256,string)\":{\"notice\":\"Submit proposal to Baal `members` for approval within given voting period.\"},\"submitVote(uint32,bool)\":{\"notice\":\"Submit vote - proposal must exist & voting period must not have ended.\"},\"submitVoteWithSig(address,uint256,uint256,uint32,bool,uint8,bytes32,bytes32)\":{\"notice\":\"Submit vote with EIP-712 signature - proposal must exist & voting period must not have ended.\"},\"totalLoot()\":{\"notice\":\"Helper to check total supply of child loot contract\"},\"totalShares()\":{\"notice\":\"Helper to check total supply of child shares contract\"},\"totalSupply()\":{\"notice\":\"Helper to check total supply of loot and shares\"}},\"notice\":\"Flexible guild contract inspired by Moloch DAO framework.\",\"version\":1}},\"settings\":{\"compilationTarget\":{\"contracts/Baal.sol\":\"Baal\"},\"evmVersion\":\"london\",\"libraries\":{},\"metadata\":{\"bytecodeHash\":\"ipfs\"},\"optimizer\":{\"enabled\":true,\"runs\":200},\"remappings\":[]},\"sources\":{\"@gnosis.pm/safe-contracts/contracts/GnosisSafe.sol\":{\"keccak256\":\"0x2ca9e3e053c969b9364f62c50c2c25b92525db7fd0bad3ae1fb0c20dd575367c\",\"license\":\"LGPL-3.0-only\",\"urls\":[\"bzz-raw://ef1bceac49ae93b31aec41380862fdc267823c41e2dfefb9b7d70d0996e858e1\",\"dweb:/ipfs/QmWFU5bic2CGv8QgQ8bxJnjMfuJgNL2zZubt5hvzhcRZPc\"]},\"@gnosis.pm/safe-contracts/contracts/base/Executor.sol\":{\"keccak256\":\"0x4d3a900673473466bc27413fdbb11aae60b5580b792c49411f01544e0b24fe08\",\"license\":\"LGPL-3.0-only\",\"urls\":[\"bzz-raw://71ada0590998f47d1ee9759aa190c82d4b348d59a2f582747650d9720245a309\",\"dweb:/ipfs/Qmb9UudLoJpPutHVP9pXd1poP5CqFf5sxVFuYw14SYfRFk\"]},\"@gnosis.pm/safe-contracts/contracts/base/FallbackManager.sol\":{\"keccak256\":\"0x1be9f0f3e80a78134c2e3a026c6a14759785bd35d135e87a4a025aeb6742791f\",\"license\":\"LGPL-3.0-only\",\"urls\":[\"bzz-raw://44130f09921e895c0b9d7797de1d64940a8c43391efcda3a0208cb9ad96475a7\",\"dweb:/ipfs/QmUur4hzvCJ68PnW6zQFpemAMH2DH5mExPqSZdpKeY1ZRN\"]},\"@gnosis.pm/safe-contracts/contracts/base/GuardManager.sol\":{\"keccak256\":\"0x53a532a31f9632d5a73ad0df56f05bd2b66a2f781f571eb48d00367d370707f9\",\"license\":\"LGPL-3.0-only\",\"urls\":[\"bzz-raw://eebc15cb7c83cf9516514b34bd16fb19c08104c738fa172ae3c98c66b84708ed\",\"dweb:/ipfs/QmfJ4yX5WwHU58QVoxJFaejyerscTs6VCgn2TdUVrEZeTP\"]},\"@gnosis.pm/safe-contracts/contracts/base/ModuleManager.sol\":{\"keccak256\":\"0x5512760a0328309f82a71cbe2ac14e0942501b9d44d5fb417bd02174546672e5\",\"license\":\"LGPL-3.0-only\",\"urls\":[\"bzz-raw://763cf803a98a921d62ed51d7876a13aed63968c828f026ce2beb747d2631c0bc\",\"dweb:/ipfs/QmbHZoYsbkxC2kVCs4pQ4nRaFrcgU5X8FuLX7vV3qDR9Y5\"]},\"@gnosis.pm/safe-contracts/contracts/base/OwnerManager.sol\":{\"keccak256\":\"0x01a3d64cc0967f42ae63802409f5404d18352516ea2a6335005003d919ffcf12\",\"license\":\"LGPL-3.0-only\",\"urls\":[\"bzz-raw://91824103f2966612103705d6493290e193b0c0ca2bbe7141965184435dbb999b\",\"dweb:/ipfs/Qmd7u917v4DnD4hvQGAGbchVJ8A7pm1UCzCv7sAzQnRoi4\"]},\"@gnosis.pm/safe-contracts/contracts/common/Enum.sol\":{\"keccak256\":\"0x473e45b1a5cc47be494b0e123c9127f0c11c1e0992a321ae5a644c0bfdb2c14f\",\"license\":\"LGPL-3.0-only\",\"urls\":[\"bzz-raw://948e6d5a8bd7377f7795b6e28584eab9be5c0a8db240bf5e606744a175238c3d\",\"dweb:/ipfs/QmQQaUmQfpuejV41jbxKSTgEBYYCcVTjCsDMgf2htgz6ej\"]},\"@gnosis.pm/safe-contracts/contracts/common/EtherPaymentFallback.sol\":{\"keccak256\":\"0x1a7928d29877da84a3d0df846d5cd933d48ee095c1bde0aa044e249b12e27a72\",\"license\":\"LGPL-3.0-only\",\"urls\":[\"bzz-raw://962fc098cfdd8a43cc7d294c1105718ea985cacf1172ea0426f7370e2096b830\",\"dweb:/ipfs/QmdZrxJ7dSWuTjbrN133YiRDLwYQr21zLr3CqWWtowY9Gu\"]},\"@gnosis.pm/safe-contracts/contracts/common/SecuredTokenTransfer.sol\":{\"keccak256\":\"0x178682d8477da42936c7e8e24d39094c4ac08ecd8623794b9535d77001b665f1\",\"license\":\"LGPL-3.0-only\",\"urls\":[\"bzz-raw://2ae8a6d5c7d4cc19c3b957c8857e87e92a4570effebf32ba54184c2b8375a0a2\",\"dweb:/ipfs/QmVNgRcRVgQZriJm8KVXQvRbHQf74wH7ABmBNTjBTqBa8r\"]},\"@gnosis.pm/safe-contracts/contracts/common/SelfAuthorized.sol\":{\"keccak256\":\"0x59d36efca578b75541a776f62a0d0ef03712fc27b6647c3915c14b572106d7bc\",\"license\":\"LGPL-3.0-only\",\"urls\":[\"bzz-raw://8530c6e0392415d42486847cd4368d30f6cac42051596330692a571fcdbb9e29\",\"dweb:/ipfs/QmWw51Pshw5t2sMKANzxtfNdBSQUyQQpfTr3Mi7oNJGk7U\"]},\"@gnosis.pm/safe-contracts/contracts/common/SignatureDecoder.sol\":{\"keccak256\":\"0x2d37be182472ccfee62a33e9939f9b3d509be4c32e9fdebc2c1746c573655987\",\"license\":\"LGPL-3.0-only\",\"urls\":[\"bzz-raw://f76d96f10640beee7d4b4ad119bd3c64aeb26929011d9c1eec738c63ebc92f63\",\"dweb:/ipfs/QmaqgDocQumKeyUMgZU7STzpTASQjDbUxbQKuZ17xhLaXz\"]},\"@gnosis.pm/safe-contracts/contracts/common/Singleton.sol\":{\"keccak256\":\"0x6e02c18998de8834dd7d69890cb6ede996b6f635d2337081a596d91e35e2c648\",\"license\":\"LGPL-3.0-only\",\"urls\":[\"bzz-raw://ce1dfe9f820352b6f95b350ac0b3fa8afc24ad77bffffc2c9e00462e2a41a666\",\"dweb:/ipfs/QmVr2dCUbNbg5e7UsgngGij5mybgkXcbf5e5cPhT21aFXA\"]},\"@gnosis.pm/safe-contracts/contracts/common/StorageAccessible.sol\":{\"keccak256\":\"0x36853adb266c2ab7d3c612aca799441a86bd15d9e1d24fc6c70d63f5c2df3aaf\",\"license\":\"LGPL-3.0-only\",\"urls\":[\"bzz-raw://3f210f47e032444049040d2929b32e02089aac1d05b07dcd77ee34bb63505dfa\",\"dweb:/ipfs/QmbE8GXFAbthieTL51S2XPF5URyPaj1tDubVuhztkSoiPo\"]},\"@gnosis.pm/safe-contracts/contracts/external/GnosisSafeMath.sol\":{\"keccak256\":\"0x2a2b4d74f5834a9437be0cd3254d7a676698fc78aa47941c2009470196998d98\",\"license\":\"LGPL-3.0-only\",\"urls\":[\"bzz-raw://ea04449ba8b78ec44f3463b68cbce971875626e91d028add50900c41101a1156\",\"dweb:/ipfs/QmR95ci4HVkJuyYGvYRHVpp6N3wefu5WVDhipKwRechWV6\"]},\"@gnosis.pm/safe-contracts/contracts/interfaces/ISignatureValidator.sol\":{\"keccak256\":\"0x5b6e9bf17f28738ce88e751f420b0559f5151ba7bec2ff3c7bb31e42673d6801\",\"license\":\"LGPL-3.0-only\",\"urls\":[\"bzz-raw://bfdde8390deb619e38f98be67c5f9d26f12623855540af76b9f454142d3896c1\",\"dweb:/ipfs/QmZrr1ocToR5S62W177qV2csfs7wCQNs3t9vatyx32uLXz\"]},\"@gnosis.pm/zodiac/contracts/core/Module.sol\":{\"keccak256\":\"0x1b9b6f3b43db68f3c142b326544115d1b1fa1f319c980922ea0a29aa80f53664\",\"license\":\"LGPL-3.0-only\",\"urls\":[\"bzz-raw://89c48fe4addf27af8b1cbc3cad8a0b27fde67d0de8b29aba811b9d4cb97c6112\",\"dweb:/ipfs/QmNoJhTbtVv2J237BsMPfuNwSkPAq6zsAr2FNrnUkVBp3X\"]},\"@gnosis.pm/zodiac/contracts/factory/FactoryFriendly.sol\":{\"keccak256\":\"0x96e61585b7340a901a54eb4c157ce28b630bff3d9d4597dfaac692128ea458c4\",\"license\":\"LGPL-3.0-only\",\"urls\":[\"bzz-raw://26252f06a8f31d7fe771b50fde9a6338133750bf05f7fc421dfa70c1df25ed7b\",\"dweb:/ipfs/QmQrZ4Zgvi3andou57Be9qpMmZatMx88rMxp3DPwUaFPsR\"]},\"@gnosis.pm/zodiac/contracts/guard/BaseGuard.sol\":{\"keccak256\":\"0xa825848d06a1fc3cb7ad86727c669c8fc6b3bd8dbe419a617830ddcd5e245e47\",\"license\":\"LGPL-3.0-only\",\"urls\":[\"bzz-raw://58bd190f4bb876471908d6145c6bebb9a22b5c9183192ffe199f4d94753f36bb\",\"dweb:/ipfs/QmYioir1PsjbCWAdCrFGJQiGHZM65umtb8qUSa63cb5Djq\"]},\"@gnosis.pm/zodiac/contracts/guard/Guardable.sol\":{\"keccak256\":\"0xebdcfbe7f0822d8afcc21a1ca8d809417b438cc8b27c3547190a1627a9f5110f\",\"license\":\"LGPL-3.0-only\",\"urls\":[\"bzz-raw://b1c6c35a0ed50d561d819c60423b7a5e6c7cbeaf61c5e0b83dab210def1dd4ec\",\"dweb:/ipfs/QmSz8F6MtuYZMvMJDmfpt8VxHFeVexqS7mpWJE6kuJ8ZAF\"]},\"@gnosis.pm/zodiac/contracts/interfaces/IAvatar.sol\":{\"keccak256\":\"0xcd5508ffe596eef8fbccfd5fc4f10a34397773547ce64e212d48b5212865ec1f\",\"license\":\"LGPL-3.0-only\",\"urls\":[\"bzz-raw://1655ba8b760132ebd702cc806fcdad50a44d320fbeca14be00e35b0171bd35cf\",\"dweb:/ipfs/QmcbB5HpCoEQCTHKWxHS3HpFmgaB4AcZxZYtvQk2QEyvN2\"]},\"@gnosis.pm/zodiac/contracts/interfaces/IGuard.sol\":{\"keccak256\":\"0xd0d855accbc5fba81c67ab22cdbb03325a8a4d7f6b7e981d1ff0fec3178e464d\",\"license\":\"LGPL-3.0-only\",\"urls\":[\"bzz-raw://4b51c586b33cc97caebe85472855bbb4c56a4e387b14cde2c8110b12ace7ba6b\",\"dweb:/ipfs/QmYtVdNKa5D2A4cEdTg9cYwrDio7TdNKtbAHc86x33W5wt\"]},\"@opengsn/contracts/src/BaseRelayRecipient.sol\":{\"keccak256\":\"0xce3168b37fc87ec34a18b56b4b16a06432119c07fd2e1d864b871dcf40372ebe\",\"license\":\"MIT\",\"urls\":[\"bzz-raw://99b6d76e111f18169a6c3f9043a843f188a02b5737dc35e6c6535ee04858f1c7\",\"dweb:/ipfs/QmeibhmsicNMWMw1gggSknJsbm1WUtZgGokGnzd4CCZzTw\"]},\"@opengsn/contracts/src/interfaces/IRelayRecipient.sol\":{\"keccak256\":\"0x199e82e0a2833a97213b5c16ac9b4e2b1814f2e90a4c4916855cbc21e710ad5f\",\"license\":\"MIT\",\"urls\":[\"bzz-raw://92112fc87990f2d55c538946266c48f43e6ca442186ef3b8172eb4632deb0db3\",\"dweb:/ipfs/QmU6pqFXYT8fYfyhw7viRA775eBH4W7PAd589DVFGtSgxo\"]},\"@openzeppelin/contracts-upgradeable/access/OwnableUpgradeable.sol\":{\"keccak256\":\"0x247c62047745915c0af6b955470a72d1696ebad4352d7d3011aef1a2463cd888\",\"license\":\"MIT\",\"urls\":[\"bzz-raw://d7fc8396619de513c96b6e00301b88dd790e83542aab918425633a5f7297a15a\",\"dweb:/ipfs/QmXbP4kiZyp7guuS7xe8KaybnwkRPGrBc2Kbi3vhcTfpxb\"]},\"@openzeppelin/contracts-upgradeable/proxy/utils/Initializable.sol\":{\"keccak256\":\"0xe798cadb41e2da274913e4b3183a80f50fb057a42238fe8467e077268100ec27\",\"license\":\"MIT\",\"urls\":[\"bzz-raw://899f850f7df5a270bccfb765d70069959ca1c20d3a7381c1c3bda8a3ffee1935\",\"dweb:/ipfs/QmVdnAqwyX2L3nX2HDA5WKGtVBFyH1nKE9A1k7fZnPBkhP\"]},\"@openzeppelin/contracts-upgradeable/security/ReentrancyGuardUpgradeable.sol\":{\"keccak256\":\"0x2b3005a0064cfc558bdf64b2bae94b565f4574a536aadd61c13838d4f2157790\",\"license\":\"MIT\",\"urls\":[\"bzz-raw://622c3eb87563e71585c9f538d1a196fe2d154dcc5b8f335e8770a8acc95e1f3a\",\"dweb:/ipfs/QmSnDqJJLzv3mirjGB1vrk5X7hegFdS7BKpscpxyqj7sWu\"]},\"@openzeppelin/contracts-upgradeable/utils/AddressUpgradeable.sol\":{\"keccak256\":\"0x2edcb41c121abc510932e8d83ff8b82cf9cdde35e7c297622f5c29ef0af25183\",\"license\":\"MIT\",\"urls\":[\"bzz-raw://72460c66cd1c3b1c11b863e0d8df0a1c56f37743019e468dc312c754f43e3b06\",\"dweb:/ipfs/QmPExYKiNb9PUsgktQBupPaM33kzDHxaYoVeJdLhv8s879\"]},\"@openzeppelin/contracts-upgradeable/utils/ContextUpgradeable.sol\":{\"keccak256\":\"0x963ea7f0b48b032eef72fe3a7582edf78408d6f834115b9feadd673a4d5bd149\",\"license\":\"MIT\",\"urls\":[\"bzz-raw://d6520943ea55fdf5f0bafb39ed909f64de17051bc954ff3e88c9e5621412c79c\",\"dweb:/ipfs/QmWZ4rAKTQbNG2HxGs46AcTXShsVytKeLs7CUCdCSv5N7a\"]},\"@openzeppelin/contracts-upgradeable/utils/StringsUpgradeable.sol\":{\"keccak256\":\"0x6b9a5d35b744b25529a2856a8093e7c03fb35a34b1c4fb5499e560f8ade140da\",\"license\":\"MIT\",\"urls\":[\"bzz-raw://187b5c3a1c9e77678732a2cc5284237f9cfca6bc28ee8bc0a0f4f951d7b3a2f8\",\"dweb:/ipfs/Qmb2KFr7WuQu7btdCiftQG64vTzrG4UyzVmo53EYHcnHYA\"]},\"@openzeppelin/contracts-upgradeable/utils/cryptography/ECDSAUpgradeable.sol\":{\"keccak256\":\"0x12f297cafe6e2847ae0378502f155654d0764b532a9873c8afe4350950fa7971\",\"license\":\"MIT\",\"urls\":[\"bzz-raw://28074f6df7132e83819042a06ef75ae53c88c53c077b8222b9772b780d58bd58\",\"dweb:/ipfs/QmXXwSxWn4XGCy218fn3f2m3UmFNUiroeQ8sCR3vzNU6Wc\"]},\"@openzeppelin/contracts-upgradeable/utils/cryptography/EIP712Upgradeable.sol\":{\"keccak256\":\"0x3017aded62c4a2b9707f5f06f92934e592c1c9b6f384b91b51340a6d5f841931\",\"license\":\"MIT\",\"urls\":[\"bzz-raw://bb693afc2a614ec7afee965caaf5d53c3f32644e33286f60d17ae0e9aca84d44\",\"dweb:/ipfs/QmVJy43EBWvVT5NgpsV8WJfDHtZbnqZGMhmv1WbWaV5dJV\"]},\"@openzeppelin/contracts-upgradeable/utils/cryptography/draft-EIP712Upgradeable.sol\":{\"keccak256\":\"0x31a2e227f5653e4b31e0f680857b8842073d083b33df11b3f3b3bb5ddc10526e\",\"license\":\"MIT\",\"urls\":[\"bzz-raw://051dd3770ecfea8fd28342b4e48c34d0cba9fbc2dbb1286d710d3d547d707018\",\"dweb:/ipfs/QmQp89U3xBRY7Xjw2HfozkMD3Yh64WvzJKQ1SHGRiEdm2J\"]},\"@openzeppelin/contracts-upgradeable/utils/math/MathUpgradeable.sol\":{\"keccak256\":\"0xc1bd5b53319c68f84e3becd75694d941e8f4be94049903232cd8bc7c535aaa5a\",\"license\":\"MIT\",\"urls\":[\"bzz-raw://056027a78e6f4b78a39be530983551651ee5a052e786ca2c1c6a3bb1222b03b4\",\"dweb:/ipfs/QmXRUpywAqNwAfXS89vrtiE2THRM9dX9pQ4QxAkV1Wx9kt\"]},\"@openzeppelin/contracts/utils/introspection/IERC165.sol\":{\"keccak256\":\"0x447a5f3ddc18419d41ff92b3773fb86471b1db25773e07f877f548918a185bf1\",\"license\":\"MIT\",\"urls\":[\"bzz-raw://be161e54f24e5c6fae81a12db1a8ae87bc5ae1b0ddc805d82a1440a68455088f\",\"dweb:/ipfs/QmP7C3CHdY9urF4dEMb9wmsp1wMxHF6nhA2yQE5SKiPAdy\"]},\"contracts/Baal.sol\":{\"keccak256\":\"0x273e4c8a1708ff252be03f14f12032a9a6fa1c48de3819a4a33902e4e4497a4c\",\"license\":\"MIT\",\"urls\":[\"bzz-raw://e9b078ee5d474b659c57e8a094bf113a70477fec37f08119a4e577ade1cd2b21\",\"dweb:/ipfs/QmbePm8oPTw8bhGEeShYoJiEXgnLMkfPdbFS9WWAx1F7SD\"]},\"contracts/interfaces/IBaalToken.sol\":{\"keccak256\":\"0x4c057a382569403c59a92c88f3008664b3f957967f94505b82c78ce779282fce\",\"license\":\"MIT\",\"urls\":[\"bzz-raw://e25459627992b498fb0a715e3a9988f05ff8cecf142607d127062e3dfa64b14e\",\"dweb:/ipfs/QmZAdN1ZVqJUTzUm2thY8V2yBKbpBpkZ7aGAvk1rhtE9Vn\"]}},\"version\":1}",
      "bytecode": "0x60806040523480156200001157600080fd5b506200001c62000022565b620000e4565b600054610100900460ff16156200008f5760405162461bcd60e51b815260206004820152602760248201527f496e697469616c697a61626c653a20636f6e747261637420697320696e697469604482015266616c697a696e6760c81b606482015260840160405180910390fd5b60005460ff9081161015620000e2576000805460ff191660ff9081179091556040519081527f7f26b83ff96e1f2b6a682f133852f6798a09c465da95921460cefb38474024989060200160405180910390a15b565b615d8680620000f46000396000f3fe6080604052600436106103a25760003560e01c80638009ba1f116101e7578063cf043df31161010d578063ed0cdf15116100a0578063f460124d1161006f578063f460124d14610beb578063f81cbd2614610c0b578063fab514c014610c21578063fe47668614610c4157600080fd5b8063ed0cdf1514610b6b578063ee4d88ed14610b8b578063f2fde38b14610bab578063f3ae241514610bcb57600080fd5b8063da35c664116100dc578063da35c66414610ae7578063da74222814610b0b578063e19a9dd914610b2b578063e43581b814610b4b57600080fd5b8063cf043df314610a4c578063d33defc714610a6c578063d4b8399214610aa7578063d61f27ae14610ac757600080fd5b8063a4f9edbf11610185578063b634e4e011610154578063b634e4e0146109cb578063c00d0775146109e8578063c4e931f614610a0f578063c910638914610a2e57600080fd5b8063a4f9edbf14610956578063acca30a214610976578063b1e3f40c1461098b578063b3c98bbb146109ab57600080fd5b806398a527cc116101c157806398a527cc146108dc5780639a2f747f146108fc578063a06db7dc14610912578063a26ec96e1461093657600080fd5b80638009ba1f1461088857806383bf8459146108a85780638da5cb5b146108be57600080fd5b80634526d846116102cc5780635ec286961161026a578063715018a611610239578063715018a614610815578063776d1a011461082a5780637ceab3b11461084a5780637da0a8771461086a57600080fd5b80635ec28696146107a0578063635e99aa146107c057806367f61f07146107d5578063706a6e93146107f557600080fd5b806352ba1da7116102a657806352ba1da7146106f6578063572b6c05146107235780635aef7de6146107525780635cfd6f7e1461078a57600080fd5b80634526d846146106875780634630affc146106a7578063486ff0cd146106d457600080fd5b8063136d731a11610344578063258bfe2f11610313578063258bfe2f146106125780633232444c146106325780633a82ffc81461065f5780633a98ef391461067257600080fd5b8063136d731a146105a557806316fd265d146105ba57806318160ddd146105cf57806324d7806c146105f257600080fd5b8063056b0dcd11610380578063056b0dcd14610523578063086cfca8146105455780630a796e19146105655780630f656a211461058557600080fd5b8063013cf08b146103a7578063027cdf45146104c057806302a251a3146104ea575b600080fd5b3480156103b357600080fd5b506104436103c23660046155b9565b60d960205260009081526040902080546001820154600283015460038401546004850154600686015460079096015463ffffffff80871697600160201b8804821697600160401b8104831697600160601b8204841697600160801b8304851697600160a01b909304909416959094919290916001600160a01b03909116908c565b6040805163ffffffff9d8e1681529b8d1660208d0152998c16998b0199909952968a1660608a015294891660808901529790921660a087015260c086015260e08501526101008401949094526101208301939093526001600160a01b03909216610140820152610160810191909152610180015b60405180910390f35b3480156104cc57600080fd5b5060d5546104da9060ff1681565b60405190151581526020016104b7565b3480156104f657600080fd5b5060d05461050e90600160a01b900463ffffffff1681565b60405163ffffffff90911681526020016104b7565b34801561052f57600080fd5b5061054361053e366004615432565b610c6e565b005b34801561055157600080fd5b5061054361056036600461509d565b6111b5565b34801561057157600080fd5b506105436105803660046155eb565b61120f565b34801561059157600080fd5b506105436105a03660046152dd565b611545565b3480156105b157600080fd5b506105436117f3565b3480156105c657600080fd5b50610543611884565b3480156105db57600080fd5b506105e46118fe565b6040519081526020016104b7565b3480156105fe57600080fd5b506104da61060d36600461509d565b61191f565b34801561061e57600080fd5b506105e461062d36600461553d565b611964565b34801561063e57600080fd5b506105e461064d36600461509d565b60d66020526000908152604090205481565b6105e461066d3660046154b0565b611994565b34801561067e57600080fd5b506105e4611fd0565b34801561069357600080fd5b506105436106a23660046152dd565b61204d565b3480156106b357600080fd5b506106c76106c23660046155eb565b61211c565b6040516104b79190615901565b3480156106e057600080fd5b506106e961218d565b6040516104b791906159ba565b34801561070257600080fd5b506105e461071136600461509d565b60d86020526000908152604090205481565b34801561072f57600080fd5b506104da61073e36600461509d565b60ce546001600160a01b0391821691161490565b34801561075e57600080fd5b50606654610772906001600160a01b031681565b6040516001600160a01b0390911681526020016104b7565b34801561079657600080fd5b506105e460d35481565b3480156107ac57600080fd5b506105436107bb3660046152dd565b61221b565b3480156107cc57600080fd5b506105e46122ea565b3480156107e157600080fd5b506105436107f0366004615608565b61232f565b34801561080157600080fd5b50610543610810366004615626565b612353565b34801561082157600080fd5b5061054361273f565b34801561083657600080fd5b5061054361084536600461509d565b612753565b34801561085657600080fd5b50606554610772906001600160a01b031681565b34801561087657600080fd5b5060ce546001600160a01b0316610772565b34801561089457600080fd5b5060d054610772906001600160a01b031681565b3480156108b457600080fd5b506105e460d45481565b3480156108ca57600080fd5b506033546001600160a01b0316610772565b3480156108e857600080fd5b506105436108f73660046152dd565b6127ad565b34801561090857600080fd5b506105e460d15481565b34801561091e57600080fd5b5060d05461050e90600160c01b900463ffffffff1681565b34801561094257600080fd5b5060d5546104da9062010000900460ff1681565b34801561096257600080fd5b5061054361097136600461553d565b61287c565b34801561098257600080fd5b50610543612e0a565b34801561099757600080fd5b506105436109a63660046152dd565b612e8f565b3480156109b757600080fd5b506105436109c6366004615157565b612f5e565b3480156109d757600080fd5b5060da5461050e9063ffffffff1681565b3480156109f457600080fd5b5060da5461077290600160201b90046001600160a01b031681565b348015610a1b57600080fd5b5060d5546104da90610100900460ff1681565b348015610a3a57600080fd5b506065546001600160a01b0316610772565b348015610a5857600080fd5b50610543610a6736600461521b565b61303f565b348015610a7857600080fd5b506104da610a873660046152a4565b60d760209081526000928352604080842090915290825290205460ff1681565b348015610ab357600080fd5b50606754610772906001600160a01b031681565b348015610ad357600080fd5b506106e9610ae236600461533c565b613319565b348015610af357600080fd5b5060d05461050e90600160e01b900463ffffffff1681565b348015610b1757600080fd5b50610543610b2636600461509d565b6133e0565b348015610b3757600080fd5b50610543610b4636600461509d565b61348f565b348015610b5757600080fd5b506104da610b6636600461509d565b6135a0565b348015610b7757600080fd5b50610543610b863660046151b2565b6135e1565b348015610b9757600080fd5b50610543610ba636600461553d565b6136f0565b348015610bb757600080fd5b50610543610bc636600461509d565b61394e565b348015610bd757600080fd5b506104da610be636600461509d565b6139c4565b348015610bf757600080fd5b5060cf54610772906001600160a01b031681565b348015610c1757600080fd5b506105e460d25481565b348015610c2d57600080fd5b50610543610c3c3660046155eb565b613a04565b348015610c4d57600080fd5b50610c61610c5c3660046155eb565b613bd8565b6040516104b791906159cd565b6066546001600160a01b0316610c82613da9565b6001600160a01b03161480610c9d5750610c9d61060d613da9565b610cdf5760405162461bcd60e51b815260206004820152600e60248201526d10b130b0b610131010b0b236b4b760911b60448201526064015b60405180910390fd5b818015610d6f575060d060009054906101000a90046001600160a01b03166001600160a01b0316635c975abb6040518163ffffffff1660e01b815260040160206040518083038186803b158015610d3557600080fd5b505afa158015610d49573d6000803e3d6000fd5b505050506040513d601f19601f82011682018060405250810190610d6d9190615415565b155b15610e165760d060009054906101000a90046001600160a01b03166001600160a01b0316638456cb596040518163ffffffff1660e01b8152600401600060405180830381600087803b158015610dc457600080fd5b505af1158015610dd8573d6000803e3d6000fd5b5050604051600181527f5544d0c1539dae939ba6e81485fb6352e3081f5a74f9bf445038bdcc358e34159250602001905060405180910390a1610f48565b81158015610ea5575060d060009054906101000a90046001600160a01b03166001600160a01b0316635c975abb6040518163ffffffff1660e01b815260040160206040518083038186803b158015610e6d57600080fd5b505afa158015610e81573d6000803e3d6000fd5b505050506040513d601f19601f82011682018060405250810190610ea59190615415565b15610f485760d060009054906101000a90046001600160a01b03166001600160a01b0316633f4ba83a6040518163ffffffff1660e01b8152600401600060405180830381600087803b158015610efa57600080fd5b505af1158015610f0e573d6000803e3d6000fd5b5050604051600081527f5544d0c1539dae939ba6e81485fb6352e3081f5a74f9bf445038bdcc358e34159250602001905060405180910390a15b808015610fd8575060cf60009054906101000a90046001600160a01b03166001600160a01b0316635c975abb6040518163ffffffff1660e01b815260040160206040518083038186803b158015610f9e57600080fd5b505afa158015610fb2573d6000803e3d6000fd5b505050506040513d601f19601f82011682018060405250810190610fd69190615415565b155b1561107f5760cf60009054906101000a90046001600160a01b03166001600160a01b0316638456cb596040518163ffffffff1660e01b8152600401600060405180830381600087803b15801561102d57600080fd5b505af1158015611041573d6000803e3d6000fd5b5050604051600181527f21b897e32ff7464f696022c4d6dfbf2d4eb300d162ad28e0d90f1136f5fea9cb925060200190505b60405180910390a15050565b8015801561110e575060cf60009054906101000a90046001600160a01b03166001600160a01b0316635c975abb6040518163ffffffff1660e01b815260040160206040518083038186803b1580156110d657600080fd5b505afa1580156110ea573d6000803e3d6000fd5b505050506040513d601f19601f8201168201806040525081019061110e9190615415565b156111b15760cf60009054906101000a90046001600160a01b03166001600160a01b0316633f4ba83a6040518163ffffffff1660e01b8152600401600060405180830381600087803b15801561116357600080fd5b505af1158015611177573d6000803e3d6000fd5b5050604051600081527f21b897e32ff7464f696022c4d6dfbf2d4eb300d162ad28e0d90f1136f5fea9cb9250602001905060405180910390a15b5050565b6111bd613db3565b606680546001600160a01b038381166001600160a01b0319831681179093556040519116919082907f52ae88b092de36f87fb43fe794eb1381023b9c1bce563a871154022c63dce34290600090a35050565b611217613e2c565b63ffffffff8116600090815260d96020526040902060d35460d0546001600160a01b0316639ab24eb0611248613da9565b6040516001600160e01b031960e084901b1681526001600160a01b03909116600482015260240160206040518083038186803b15801561128757600080fd5b505afa15801561129b573d6000803e3d6000fd5b505050506040513d601f19601f820116820180604052508101906112bf91906155d2565b10156112f85760405162461bcd60e51b815260206004820152600860248201526710b9b837b739b7b960c11b6044820152606401610cd6565b600161130383613bd8565b600781111561131457611314615cac565b1461134e5760405162461bcd60e51b815260206004820152600a602482015269085cdd589b5a5d1d195960b21b6044820152606401610cd6565b8054600160a01b900463ffffffff1615806113a4575060d05463ffffffff600160c01b820481169161138991600160a01b9091041642615b5a565b6113939190615b5a565b8154600160a01b900463ffffffff16115b6113da5760405162461bcd60e51b8152602060048201526007602482015266195e1c1a5c995960ca1b6044820152606401610cd6565b805463ffffffff42818116600160401b026bffffffff00000000000000001984168117855560d08054600160a01b90819004851684018516600160601b0263ffffffff60601b1990931667ffffffffffffffff60401b19909616959095179190911780865590549384048316909101600160c01b9093048216929092018116600160801b0263ffffffff60801b1983168117845560da54600160201b92169190910267ffffffff000000001990911673ffffffff0000000000000000ffffffff0000000019909216919091171781556114b1613da9565b6006820180546001600160a01b0319166001600160a01b03929092169190911790556114db6118fe565b600482015560da805463ffffffff191663ffffffff84169081179091554290611502613da9565b6001600160a01b03167fd45ad122361f16d6f50d7c4a73638f20ee48eff6186af15224e2a4a1f6d5017160405160405180910390a4506115426001609c55565b50565b6066546001600160a01b0316611559613da9565b6001600160a01b03161461157f5760405162461bcd60e51b8152600401610cd6906159e7565b82811461159e5760405162461bcd60e51b8152600401610cd690615a06565b60005b838110156117ec5760008383838181106115bd576115bd615cc2565b60d5546020909102929092013592505060ff161561163a57806001141580156115e7575080600314155b80156115f4575080600514155b8015611601575080600714155b61163a5760405162461bcd60e51b815260206004820152600a60248201526961646d696e206c6f636b60b01b6044820152606401610cd6565b60d554610100900460ff16156116b1578060021415801561165c575080600314155b8015611669575080600614155b8015611676575080600714155b6116b15760405162461bcd60e51b815260206004820152600c60248201526b6d616e61676572206c6f636b60a01b6044820152606401610cd6565b60d55462010000900460ff161561172a57806004141580156116d4575080600514155b80156116e1575080600614155b80156116ee575080600714155b61172a5760405162461bcd60e51b815260206004820152600d60248201526c676f7665726e6f72206c6f636b60981b6044820152606401610cd6565b8060d6600088888681811061174157611741615cc2565b9050602002016020810190611756919061509d565b6001600160a01b0316815260208101919091526040016000205585858381811061178257611782615cc2565b9050602002016020810190611797919061509d565b6001600160a01b03167fc456d076c1245c6b9759b3cdcb169e14e00a7739897e501844c8fe5fca6cb260826040516117d191815260200190565b60405180910390a250806117e481615c57565b9150506115a1565b5050505050565b6066546001600160a01b0316611807613da9565b6001600160a01b03161461182d5760405162461bcd60e51b8152600401610cd6906159e7565b60d5805462ff0000191662010000908117918290556040517fd9574ee4ccdf21db87aa2c1d1fee3248522d79c07c54bde4a9edeb0620bef71f9261187a92900460ff161515815260200190565b60405180910390a1565b6066546001600160a01b0316611898613da9565b6001600160a01b0316146118be5760405162461bcd60e51b8152600401610cd6906159e7565b60d5805460ff191660019081179091556040519081527f5e1c9f68365556a24387c25fd0922af31039bcfc65d36caac57401d310948e599060200161187a565b6000611908611fd0565b6119106122ea565b61191a9190615b5a565b905090565b6001600160a01b038116600090815260d6602052604081205460018114806119475750806003145b806119525750806005145b8061195d5750806007145b9392505050565b60008160405160200161197791906159ba565b604051602081830303815290604052805190602001209050919050565b600061199e613e2c565b63ffffffff851615806119e4575060d05463ffffffff600160c01b82048116916119d191600160a01b9091041642615b5a565b6119db9190615b5a565b8563ffffffff16115b611a1a5760405162461bcd60e51b8152602060048201526007602482015266195e1c1a5c995960ca1b6044820152606401610cd6565b6301312d00841115611a605760405162461bcd60e51b815260206004820152600f60248201526e0c4c2c2d88ec2e640e8de40d0d2ced608b1b6044820152606401610cd6565b60d35460d054600091906001600160a01b0316639ab24eb0611a80613da9565b6040516001600160e01b031960e084901b1681526001600160a01b03909116600482015260240160206040518083038186803b158015611abf57600080fd5b505afa158015611ad3573d6000803e3d6000fd5b505050506040513d601f19601f82011682018060405250810190611af791906155d2565b10611b0457506001611beb565b60d1543414611b555760405162461bcd60e51b815260206004820152601960248201527f4261616c20726571756972657320616e206f66666572696e67000000000000006044820152606401610cd6565b6067546040516000916001600160a01b03169034908381818185875af1925050503d8060008114611ba2576040519150601f19603f3d011682016040523d82523d6000602084013e611ba7565b606091505b5050905080611be95760405162461bcd60e51b815260206004820152600e60248201526d18dbdd5b19081b9bdd081cd95b9960921b6044820152606401610cd6565b505b6000611c2c89898080601f01602080910402602001604051908101604052809392919081815260200183838082843760009201919091525061196492505050565b60d08054919250600160e01b90910463ffffffff1690601c611c4d83615c72565b91906101000a81548163ffffffff021916908363ffffffff16021790555050604051806101a0016040528060d0601c9054906101000a900463ffffffff1663ffffffff16815260200183611ca2576000611cac565b60da5463ffffffff165b63ffffffff16815260200183611cc3576000611cc5565b425b63ffffffff16815260200183611cdc576000611cf6565b60d054611cf690600160a01b900463ffffffff1642615b72565b63ffffffff16815260200183611d0d576000611d3c565b60d05463ffffffff600160c01b8204811691611d3291600160a01b9091041642615b72565b611d3c9190615b72565b63ffffffff1681526020018863ffffffff168152602001878152602001600081526020016000815260200183611d73576000611d7b565b611d7b6118fe565b8152604080516080810182526000808252602082810182905282840182905260608301919091528301520183611db2576000611dba565b611dba613da9565b6001600160a01b03168152602090810183905260d054600160e01b900463ffffffff908116600090815260d983526040908190208451815494860151928601516060870151608088015160a089015193871667ffffffffffffffff1990981697909717600160201b958716959095029490941767ffffffffffffffff60401b1916600160401b9186169190910263ffffffff60601b191617600160601b938516939093029290921767ffffffffffffffff60801b1916600160801b9484169490940263ffffffff60a01b191693909317600160a01b919092160217815560c0820151600182015560e082015160028201556101008201516003820155610120820151600480830191909155610140830151611eda91600584019190614e22565b506101608201516006820180546001600160a01b0319166001600160a01b03909216919091179055610180909101516007909101558115611f3a5760d05460da8054600160e01b90920463ffffffff1663ffffffff199092169190911790555b8060d0601c9054906101000a900463ffffffff1663ffffffff167fb9956173924f9c1204bae41dd3737d7ed1161846d13183879cdc03c4b9f8d01960d060149054906101000a900463ffffffff168c8c8c8c89428e8e604051611fa599989796959493929190615aa2565b60405180910390a3505060d0546001609c55600160e01b900463ffffffff1690509695505050505050565b60d054604080516318160ddd60e01b815290516000926001600160a01b0316916318160ddd916004808301926020929190829003018186803b15801561201557600080fd5b505afa158015612029573d6000803e3d6000fd5b505050506040513d601f19601f8201168201806040525081019061191a91906155d2565b6066546001600160a01b0316612061613da9565b6001600160a01b0316148061207c575061207c610be6613da9565b6120985760405162461bcd60e51b8152600401610cd690615a78565b8281146120b75760405162461bcd60e51b8152600401610cd690615a06565b60005b838110156117ec5761210a8585838181106120d7576120d7615cc2565b90506020020160208101906120ec919061509d565b8484848181106120fe576120fe615cc2565b90506020020135613e8d565b8061211481615c57565b9150506120ba565b612124614eb4565b63ffffffff8216600090815260d9602052604080822081516080810192839052926005909101916004918390855b825461010083900a900460ff161515815260206001928301818104948501949093039092029101808411612152575094979650505050505050565b60db805461219a90615c22565b80601f01602080910402602001604051908101604052809291908181526020018280546121c690615c22565b80156122135780601f106121e857610100808354040283529160200191612213565b820191906000526020600020905b8154815290600101906020018083116121f657829003601f168201915b505050505081565b6066546001600160a01b031661222f613da9565b6001600160a01b0316148061224a575061224a610be6613da9565b6122665760405162461bcd60e51b8152600401610cd690615a78565b8281146122855760405162461bcd60e51b8152600401610cd690615a06565b60005b838110156117ec576122d88585838181106122a5576122a5615cc2565b90506020020160208101906122ba919061509d565b8484848181106122cc576122cc615cc2565b90506020020135613ef8565b806122e281615c57565b915050612288565b60cf54604080516318160ddd60e01b815290516000926001600160a01b0316916318160ddd916004808301926020929190829003018186803b15801561201557600080fd5b612337613e2c565b612349612342613da9565b8383613f31565b6111b16001609c55565b61235b613e2c565b63ffffffff8316600090815260d96020526040902060068101546001600160a01b03166123b55760405162461bcd60e51b815260206004820152600860248201526710b9b837b739b7b960c11b6044820152606401610cd6565b60056123c085613bd8565b60078111156123d1576123d1615cac565b146124075760405162461bcd60e51b815260206004820152600660248201526521726561647960d01b6044820152606401610cd6565b805460009061242290600160201b900463ffffffff16613bd8565b9050600681600781111561243857612438615cac565b14806124555750600381600781111561245357612453615cac565b145b806124715750600781600781111561246f5761246f615cac565b145b8061248d5750600081600781111561248b5761248b615cac565b145b6124ca5760405162461bcd60e51b815260206004820152600e60248201526d1c1c995d885c1c9bd8d95cdcd95960921b6044820152606401610cd6565b816007015461250e85858080601f01602080910402602001604051908101604052809392919081815260200183838082843760009201919091525061196492505050565b146125505760405162461bcd60e51b8152602060048201526012602482015271696e636f72726563742063616c6c6461746160701b6044820152606401610cd6565b60018201541580612565575081600101545a10155b6125a25760405162461bcd60e51b815260206004820152600e60248201526d6e6f7420656e6f7567682067617360901b6044820152606401610cd6565b60058201805461ff0019166101001790558154600190600160a01b900463ffffffff16158015906125e15750825442600160a01b90910463ffffffff16105b156125ea575060005b8080156126165750826004015460d2546126049190615bbc565b6002840154612614906064615bbc565b105b1561261f575060005b80801561264f5750606460d454846004015461263b9190615bbc565b6126459190615b9a565b61264d6118fe565b105b15612658575060005b80156126d15760058301805462ff0000191662010000179055604080516020601f87018190048102820181019092528581526000916126b29190889088908190840183828082843760009201919091525061419492505050565b9050806126cf5760058401805463ff000000191663010000001790555b505b60058301546040805160ff62010000840481161515825263010000009093049092161515602083015263ffffffff8816917fb4571f7e4e2c2b6e6185e47ab5caa5fe34087299bd49fbae945a4583101ee3f0910160405180910390a250505061273a6001609c55565b505050565b612747613db3565b61275160006141bd565b565b61275b613db3565b606780546001600160a01b038381166001600160a01b0319831681179093556040519116919082907f90cc2f570a6eb594b1580ea3e41247d2d73a55281889e86bd4ec2fc29c7e62d690600090a35050565b6066546001600160a01b03166127c1613da9565b6001600160a01b031614806127dc57506127dc610be6613da9565b6127f85760405162461bcd60e51b8152600401610cd690615a78565b8281146128175760405162461bcd60e51b8152600401610cd690615a06565b60005b838110156117ec5761286a85858381811061283757612837615cc2565b905060200201602081019061284c919061509d565b84848481811061285e5761285e615cc2565b9050602002013561420f565b8061287481615c57565b91505061281a565b600054610100900460ff161580801561289c5750600054600160ff909116105b806128b65750303b1580156128b6575060005460ff166001145b6129195760405162461bcd60e51b815260206004820152602e60248201527f496e697469616c697a61626c653a20636f6e747261637420697320616c72656160448201526d191e481a5b9a5d1a585b1a5e995960921b6064820152608401610cd6565b6000805460ff19166001179055801561293c576000805461ff0019166101001790555b612944613e2c565b6000806000806000808780602001905181019061296191906150ba565b95509550955095509550955060006001600160a01b0316846001600160a01b03161415801561299857506001600160a01b03831615155b6129d25760405162461bcd60e51b815260206004820152600b60248201526a0c081859191c881d5cd95960aa1b6044820152606401610cd6565b6040518060600160405280602d8152602001615d24602d913980516129ff9160db91602090910190614ed2565b50612a08614248565b612a10614277565b612a4f60405180604001604052806004815260200163566f746560e01b815250604051806040016040528060018152602001600d60fa1b8152506142a6565b612a588361394e565b606680546001600160a01b0385166001600160a01b03199182168117909255606780549091169091179055612a8c826142d7565b60cf80546001600160a01b03199081166001600160a01b038981169190911790925560d0805490911687831617905560da8054640100000000600160c01b031916600160201b87841681029190911791829055612af09291041660008360016142f9565b612b315760405162461bcd60e51b8152602060048201526012602482015271063616c6c206661696c7572652073657475760741b6044820152606401610cd6565b60cf5460408051635c975abb60e01b815290517f916f812584e0b001e8c6ab604fa549cc16c9d0b2f60b17aa0b4ff5eefe3e7725926001600160a01b031691635c975abb916004808301926020929190829003018186803b158015612b9557600080fd5b505afa158015612ba9573d6000803e3d6000fd5b505050506040513d601f19601f82011682018060405250810190612bcd9190615415565b60d060009054906101000a90046001600160a01b03166001600160a01b0316635c975abb6040518163ffffffff1660e01b815260040160206040518083038186803b158015612c1b57600080fd5b505afa158015612c2f573d6000803e3d6000fd5b505050506040513d601f19601f82011682018060405250810190612c539190615415565b60d05460d15460d25460d35460d454604080516306fdde0360e01b8152905163ffffffff600160c01b8804811697600160a01b810490911696959493926001600160a01b03909116916306fdde0391600480820192600092909190829003018186803b158015612cc257600080fd5b505afa158015612cd6573d6000803e3d6000fd5b505050506040513d6000823e601f3d908101601f19168201604052612cfe9190810190615571565b60d060009054906101000a90046001600160a01b03166001600160a01b03166395d89b416040518163ffffffff1660e01b815260040160006040518083038186803b158015612d4c57600080fd5b505afa158015612d60573d6000803e3d6000fd5b505050506040513d6000823e601f3d908101601f19168201604052612d889190810190615571565b612d90611fd0565b612d986122ea565b604051612db09c9b9a99989796959493929190615934565b60405180910390a1505050505050612dc86001609c55565b80156111b1576000805461ff0019169055604051600181527f7f26b83ff96e1f2b6a682f133852f6798a09c465da95921460cefb384740249890602001611073565b6066546001600160a01b0316612e1e613da9565b6001600160a01b031614612e445760405162461bcd60e51b8152600401610cd6906159e7565b60d5805461ff001916610100908117918290556040517fb496b9628e839102454d8b483ba451c4be96675009b637273a00e4ab6a59db729261187a92900460ff161515815260200190565b6066546001600160a01b0316612ea3613da9565b6001600160a01b03161480612ebe5750612ebe610be6613da9565b612eda5760405162461bcd60e51b8152600401610cd690615a78565b828114612ef95760405162461bcd60e51b8152600401610cd690615a06565b60005b838110156117ec57612f4c858583818110612f1957612f19615cc2565b9050602002016020810190612f2e919061509d565b848484818110612f4057612f40615cc2565b905060200201356144aa565b80612f5681615c57565b915050612efc565b6066546001600160a01b0316612f72613da9565b6001600160a01b031614612f985760405162461bcd60e51b8152600401610cd6906159e7565b6000846001600160a01b0316848484604051612fb5929190615741565b60006040518083038185875af1925050503d8060008114612ff2576040519150601f19603f3d011682016040523d82523d6000602084013e612ff7565b606091505b50509050806117ec5760405162461bcd60e51b815260206004820152601460248201527363616c6c206661696c757265206578656375746560601b6044820152606401610cd6565b613047613e2c565b864211156130975760405162461bcd60e51b815260206004820152601d60248201527f4552433230566f7465733a207369676e617475726520657870697265640000006044820152606401610cd6565b6001600160a01b038816600090815260d8602052604090205486146130e75760405162461bcd60e51b8152602060048201526006602482015265216e6f6e636560d01b6044820152606401610cd6565b60007f8698fbcc7273f96a670eb203cb707d8ec171123f24eaf075b1e754b71119e59e60d060009054906101000a90046001600160a01b03166001600160a01b03166306fdde036040518163ffffffff1660e01b815260040160006040518083038186803b15801561315857600080fd5b505afa15801561316c573d6000803e3d6000fd5b505050506040513d6000823e601f3d908101601f191682016040526131949190810190615571565b6040516020016131a49190615751565b60408051601f198184030181528282528051602091820120908301939093528101919091526001600160a01b038a1660608201526080810189905260a0810188905263ffffffff871660c082015285151560e0820152610100016040516020818303038152906040528051906020012090506000613221826144e3565b9050600061323182878787614531565b90508a6001600160a01b0316816001600160a01b0316146132885760405162461bcd60e51b8152602060048201526011602482015270696e76616c6964207369676e617475726560781b6044820152606401610cd6565b6001600160a01b0381166132c85760405162461bcd60e51b815260206004820152600760248201526610b9b4b3b732b960c91b6044820152606401610cd6565b6001600160a01b038b16600090815260d8602052604081208054600192906132f1908490615b5a565b909155506133029050818989613f31565b50505061330f6001609c55565b5050505050505050565b60608060005b845181101561339c5781600085600088858151811061334057613340615cc2565b60200260200101515189868151811061335b5761335b615cc2565b60200260200101516040516020016133789695949392919061576d565b6040516020818303038152906040529150808061339490615c57565b91505061331f565b50806040516024016133ae91906159ba565b60408051601f198184030181529190526020810180516001600160e01b03166346c07f8560e11b179052949350505050565b6066546001600160a01b03166133f4613da9565b6001600160a01b0316148061340f575061340f610b66613da9565b61344f5760405162461bcd60e51b815260206004820152601160248201527010b130b0b610131010b3b7bb32b93737b960791b6044820152606401610cd6565b613458816142d7565b6040516001600160a01b038216907f8c2bee8063bb4464870b7dfa415ebb2fe80bfa73ba20d6fbf0d42791274667ff90600090a250565b613497613db3565b6001600160a01b0381161561354c576040516301ffc9a760e01b815263736bd41d60e11b60048201526001600160a01b038216906301ffc9a79060240160206040518083038186803b1580156134ec57600080fd5b505afa158015613500573d6000803e3d6000fd5b505050506040513d601f19601f820116820180604052508101906135249190615415565b61354c576040516358b7533f60e11b81526001600160a01b0382166004820152602401610cd6565b606580546001600160a01b0319166001600160a01b0383169081179091556040519081527f1151116914515bc0891ff9047a6cb32cf902546f83066499bcf8ba33d2353fa29060200160405180910390a150565b6001600160a01b038116600090815260d6602052604081205460048114806135c85750806005145b806119525750806006148061195d575060071492915050565b6135e9613e2c565b60015b818110156136a6578282613601600184615bdb565b81811061361057613610615cc2565b9050602002016020810190613625919061509d565b6001600160a01b031683838381811061364057613640615cc2565b9050602002016020810190613655919061509d565b6001600160a01b0316116136945760405162461bcd60e51b815260206004820152600660248201526510b7b93232b960d11b6044820152606401610cd6565b8061369e81615c57565b9150506135ec565b506136e685858585858080602002602001604051908101604052809392919081815260200183836020028082843760009201919091525061455992505050565b6117ec6001609c55565b6066546001600160a01b0316613704613da9565b6001600160a01b0316148061371f575061371f610b66613da9565b61375f5760405162461bcd60e51b815260206004820152601160248201527010b130b0b610131010b3b7bb32b93737b960791b6044820152606401610cd6565b6000806000806000808680602001905181019061377c919061567a565b949a5092985090965094509250905060648111156137c95760405162461bcd60e51b815260206004820152600a6024820152696261642071756f72756d60b01b6044820152606401610cd6565b606481111561380d5760405162461bcd60e51b815260206004820152601060248201526f3130b21036b4b72932ba32b73a34b7b760811b6044820152606401610cd6565b600060d354118015613829575060d0546001600160a01b031615155b1561387e57613836611fd0565b82111561387e5760405162461bcd60e51b815260206004820152601660248201527573706f6e736f72203e20736861726573537570706c7960501b6044820152606401610cd6565b63ffffffff8616156138a95760d0805463ffffffff60a01b1916600160a01b63ffffffff8916021790555b63ffffffff8516156138d45760d0805463ffffffff60c01b1916600160c01b63ffffffff8816021790555b60d184905560d283905560d382905560d48190556040805163ffffffff808916825287166020820152908101859052606081018490526080810183905260a081018290527fc10758ccd7d1dd3330e7bbe13a1a1d6bbb414967932376ee24989bad95edcdc19060c00160405180910390a150505050505050565b613956613db3565b6001600160a01b0381166139bb5760405162461bcd60e51b815260206004820152602660248201527f4f776e61626c653a206e6577206f776e657220697320746865207a65726f206160448201526564647265737360d01b6064820152608401610cd6565b611542816141bd565b6001600160a01b038116600090815260d6602052604081205460028114806135c8575080600314806119525750806006148061195d575060071492915050565b613a0c613e2c565b63ffffffff8116600090815260d9602052604090206002613a2c83613bd8565b6007811115613a3d57613a3d615cac565b14613a745760405162461bcd60e51b815260206004820152600760248201526621766f74696e6760c81b6044820152606401610cd6565b60068101546001600160a01b0316613a8a613da9565b6001600160a01b03161480613b41575060d35460d05460068301546001600160a01b0391821691633a46b1a89116613ac3600142615bdb565b6040516001600160e01b031960e085901b1681526001600160a01b039092166004830152602482015260440160206040518083038186803b158015613b0757600080fd5b505afa158015613b1b573d6000803e3d6000fd5b505050506040513d601f19601f82011682018060405250810190613b3f91906155d2565b105b80613b525750613b52610b66613da9565b613b8d5760405162461bcd60e51b815260206004820152600c60248201526b2163616e63656c6c61626c6560a01b6044820152606401610cd6565b60058101805460ff1916600117905560405163ffffffff8316907f8896f24cff41b54acf76c2560861f33cd20fd76c4df0b68a3515c354e4b6c81a90600090a2506115426001609c55565b63ffffffff818116600090815260d96020908152604080832081516101a08101835281548087168252600160201b8104871694820194909452600160401b8404861681840152600160601b840486166060820152600160801b84048616608080830191909152600160a01b90940490951660a0860152600181015460c0860152600281015460e0860152600381015461010086015260048082015461012087015282519384019283905293948594909391926101408501929160058501918288855b825461010083900a900460ff161515815260206001928301818104948501949093039092029101808411613c9a5750505092845250505060068201546001600160a01b03166020820152600790910154604090910152805190915063ffffffff16613d085750600092915050565b6101408101515115613d1d5750600392915050565b604081015163ffffffff16613d355750600192915050565b806060015163ffffffff164211613d4f5750600292915050565b806080015163ffffffff164211613d695750600492915050565b8060e0015181610100015110613d825750600792915050565b6101408101516020015115613d9a5750600692915050565b50600592915050565b50919050565b600061191a6147d5565b613dbb613da9565b6001600160a01b0316613dd66033546001600160a01b031690565b6001600160a01b0316146127515760405162461bcd60e51b815260206004820181905260248201527f4f776e61626c653a2063616c6c6572206973206e6f7420746865206f776e65726044820152606401610cd6565b6002609c541415613e7f5760405162461bcd60e51b815260206004820152601f60248201527f5265656e7472616e637947756172643a207265656e7472616e742063616c6c006044820152606401610cd6565b6002609c55565b6001609c55565b60cf546040516340c10f1960e01b81526001600160a01b03848116600483015260248201849052909116906340c10f19906044015b600060405180830381600087803b158015613edc57600080fd5b505af1158015613ef0573d6000803e3d6000fd5b505050505050565b60cf54604051632770a7eb60e21b81526001600160a01b0384811660048301526024820184905290911690639dc29fac90604401613ec2565b63ffffffff8216600090815260d9602052604090206002613f5184613bd8565b6007811115613f6257613f62615cac565b14613f995760405162461bcd60e51b815260206004820152600760248201526621766f74696e6760c81b6044820152606401610cd6565b60d0548154604051630748d63560e31b81526001600160a01b038781166004830152600160401b90920463ffffffff1660248201526000929190911690633a46b1a89060440160206040518083038186803b158015613ff757600080fd5b505afa15801561400b573d6000803e3d6000fd5b505050506040513d601f19601f8201168201806040525081019061402f91906155d2565b90506000811161406b5760405162461bcd60e51b815260206004820152600760248201526610b6b2b6b132b960c91b6044820152606401610cd6565b6001600160a01b038516600090815260d76020908152604080832063ffffffff8816845290915290205460ff16156140cd5760405162461bcd60e51b81526020600482015260056024820152641d9bdd195960da1b6044820152606401610cd6565b6001600160a01b038516600090815260d76020908152604080832063ffffffff881684529091528120805460ff191660011790556141096118fe565b9050826004015481111561411f57600483018190555b8315614134576002830180548301905561413f565b600383018054830190555b8315158563ffffffff16876001600160a01b03167f786755545a7e27c12c90cc7f0934514d03fdacfe3684a340b8c4100531e7ecd58560405161418491815260200190565b60405180910390a4505050505050565b60da546000906141b790600160201b90046001600160a01b0316828460016142f9565b92915050565b603380546001600160a01b038381166001600160a01b0319831681179093556040519116919082907f8be0079c531659141344cd1fd0a4f28419497f9722a3daafe3b4186f6b6457e090600090a35050565b60d054604051632770a7eb60e21b81526001600160a01b0384811660048301526024820184905290911690639dc29fac90604401613ec2565b600054610100900460ff1661426f5760405162461bcd60e51b8152600401610cd690615a2d565b612751614809565b600054610100900460ff1661429e5760405162461bcd60e51b8152600401610cd690615a2d565b612751614840565b600054610100900460ff166142cd5760405162461bcd60e51b8152600401610cd690615a2d565b6111b18282614867565b60ce80546001600160a01b0319166001600160a01b0392909216919091179055565b6065546000906001600160a01b03161561439b576065546040805180820182526002815261060f60f31b60208201529051633af85da960e11b81526001600160a01b03909216916375f0bb52916143689189918991899189916000918291829182918291903390600401615872565b600060405180830381600087803b15801561438257600080fd5b505af1158015614396573d6000803e3d6000fd5b505050505b60675460405163468721a760e01b81526001600160a01b039091169063468721a7906143d1908890889088908890600401615833565b602060405180830381600087803b1580156143eb57600080fd5b505af11580156143ff573d6000803e3d6000fd5b505050506040513d601f19601f820116820180604052508101906144239190615415565b6065549091506001600160a01b0316156144a257606554604051631264e26d60e31b815261060f60f31b600482015282151560248201526001600160a01b0390911690639327136890604401600060405180830381600087803b15801561448957600080fd5b505af115801561449d573d6000803e3d6000fd5b505050505b949350505050565b60d0546040516340c10f1960e01b81526001600160a01b03848116600483015260248201849052909116906340c10f1990604401613ec2565b60006141b76144f06148a8565b8360405161190160f01b6020820152602281018390526042810182905260009060620160405160208183030381529060405280519060200120905092915050565b600080600061454287878787614923565b9150915061454f816149e7565b5095945050505050565b60006145636118fe565b9050821561457c5761457c614576613da9565b84613ef8565b83156145935761459361458d613da9565b8561420f565b60005b825181101561478157600073eeeeeeeeeeeeeeeeeeeeeeeeeeeeeeeeeeeeeeee6001600160a01b03168483815181106145d1576145d1615cc2565b60200260200101516001600160a01b031614156145fb57506067546001600160a01b0316316146c9565b600084838151811061460f5761460f615cc2565b602090810291909101810151606754604080516001600160a01b03928316602480830191909152825180830390910181526044909101825293840180516001600160e01b03166370a0823160e01b1790525191169161466d91615751565b600060405180830381855afa9150503d80600081146146a8576040519150601f19603f3d011682016040523d82523d6000602084013e6146ad565b606091505b50915050808060200190518101906146c591906155d2565b9150505b600083826146d78989615b5a565b6146e19190615bbc565b6146eb9190615b9a565b9050801561476c5773eeeeeeeeeeeeeeeeeeeeeeeeeeeeeeeeeeeeeeee6001600160a01b031685848151811061472357614723615cc2565b60200260200101516001600160a01b0316146147625761475d85848151811061474e5761474e615cc2565b60200260200101518983614b35565b61476c565b61476c8882614c04565b5050808061477990615c57565b915050614596565b50838361478c613da9565b6001600160a01b03167fa21c268847f2b8adac3751ed0683330abe9fdd6cc4a7a8fc6787633d4126e0d488866040516147c69291906157d7565b60405180910390a45050505050565b6000601436108015906147f2575060ce546001600160a01b031633145b15614804575060131936013560601c90565b503390565b600054610100900460ff166148305760405162461bcd60e51b8152600401610cd690615a2d565b61275161483b613da9565b6141bd565b600054610100900460ff16613e865760405162461bcd60e51b8152600401610cd690615a2d565b600054610100900460ff1661488e5760405162461bcd60e51b8152600401610cd690615a2d565b815160209283012081519190920120606891909155606955565b600061191a7f8b73c3c69bb8fe3d512ecc4cf759cc79239f7b179b0ffacaa9a75d522b39400f6148d760685490565b6069546040805160208101859052908101839052606081018290524660808201523060a082015260009060c0016040516020818303038152906040528051906020012090509392505050565b6000807f7fffffffffffffffffffffffffffffff5d576e7357a4501ddfe92f46681b20a083111561495a57506000905060036149de565b6040805160008082526020820180845289905260ff881692820192909252606081018690526080810185905260019060a0016020604051602081039080840390855afa1580156149ae573d6000803e3d6000fd5b5050604051601f1901519150506001600160a01b0381166149d7576000600192509250506149de565b9150600090505b94509492505050565b60008160048111156149fb576149fb615cac565b1415614a045750565b6001816004811115614a1857614a18615cac565b1415614a665760405162461bcd60e51b815260206004820152601860248201527f45434453413a20696e76616c6964207369676e617475726500000000000000006044820152606401610cd6565b6002816004811115614a7a57614a7a615cac565b1415614ac85760405162461bcd60e51b815260206004820152601f60248201527f45434453413a20696e76616c6964207369676e6174757265206c656e677468006044820152606401610cd6565b6003816004811115614adc57614adc615cac565b14156115425760405162461bcd60e51b815260206004820152602260248201527f45434453413a20696e76616c6964207369676e6174757265202773272076616c604482015261756560f01b6064820152608401610cd6565b600080614b9d85600063a9059cbb8787604051602401614b6a9291906001600160a01b03929092168252602082015260400190565b6040516020818303038152906040529060e01b6020820180516001600160e01b0383818316178352505050506000614c68565b91509150818015614bc6575080511580614bc6575080806020019051810190614bc69190615415565b6117ec5760405162461bcd60e51b815260206004820152600f60248201526e1d1c985b9cd9995c8819985a5b1959608a1b6044820152606401610cd6565b6000614c228383604051806020016040528060008152506000614c68565b5090508061273a5760405162461bcd60e51b815260206004820152601360248201527211551217d514905394d1915497d19052531151606a1b6044820152606401610cd6565b6065546000906060906001600160a01b031615614d0d576065546040805180820182526002815261060f60f31b60208201529051633af85da960e11b81526001600160a01b03909216916375f0bb5291614cda918a918a918a918a916000918291829182918291903390600401615872565b600060405180830381600087803b158015614cf457600080fd5b505af1158015614d08573d6000803e3d6000fd5b505050505b606754604051635229073f60e01b81526001600160a01b0390911690635229073f90614d43908990899089908990600401615833565b600060405180830381600087803b158015614d5d57600080fd5b505af1158015614d71573d6000803e3d6000fd5b505050506040513d6000823e601f3d908101601f19168201604052614d999190810190615460565b60655491935091506001600160a01b0316156149de57606554604051631264e26d60e31b815261060f60f31b600482015283151560248201526001600160a01b0390911690639327136890604401600060405180830381600087803b158015614e0157600080fd5b505af1158015614e15573d6000803e3d6000fd5b5050505094509492505050565b600183019183908215614ea45791602002820160005b83821115614e7557835183826101000a81548160ff0219169083151502179055509260200192600101602081600001049283019260010302614e38565b8015614ea25782816101000a81549060ff0219169055600101602081600001049283019260010302614e75565b505b50614eb0929150614f46565b5090565b60405180608001604052806004906020820280368337509192915050565b828054614ede90615c22565b90600052602060002090601f016020900481019282614f005760008555614ea4565b82601f10614f1957805160ff1916838001178555614ea4565b82800160010185558215614ea4579182015b82811115614ea4578251825591602001919060010190614f2b565b5b80821115614eb05760008155600101614f47565b6000614f6e614f6984615b33565b615b03565b9050828152838383011115614f8257600080fd5b61195d836020830184615bf2565b8035614f9b81615cee565b919050565b60008083601f840112614fb257600080fd5b5081356001600160401b03811115614fc957600080fd5b6020830191508360208260051b8501011115614fe457600080fd5b9250929050565b60008083601f840112614ffd57600080fd5b5081356001600160401b0381111561501457600080fd5b602083019150836020828501011115614fe457600080fd5b600082601f83011261503d57600080fd5b813561504b614f6982615b33565b81815284602083860101111561506057600080fd5b816020850160208301376000918101602001919091529392505050565b600082601f83011261508e57600080fd5b61195d83835160208501614f5b565b6000602082840312156150af57600080fd5b813561195d81615cee565b60008060008060008060c087890312156150d357600080fd5b86516150de81615cee565b60208801519096506150ef81615cee565b604088015190955061510081615cee565b606088015190945061511181615cee565b608088015190935061512281615cee565b60a08801519092506001600160401b0381111561513e57600080fd5b61514a89828a0161507d565b9150509295509295509295565b6000806000806060858703121561516d57600080fd5b843561517881615cee565b93506020850135925060408501356001600160401b0381111561519a57600080fd5b6151a687828801614feb565b95989497509550505050565b6000806000806000608086880312156151ca57600080fd5b85356151d581615cee565b9450602086013593506040860135925060608601356001600160401b038111156151fe57600080fd5b61520a88828901614fa0565b969995985093965092949392505050565b600080600080600080600080610100898b03121561523857600080fd5b883561524381615cee565b97506020890135965060408901359550606089013561526181615d11565b9450608089013561527181615d03565b935060a089013560ff8116811461528757600080fd5b979a969950949793969295929450505060c08201359160e0013590565b600080604083850312156152b757600080fd5b82356152c281615cee565b915060208301356152d281615d11565b809150509250929050565b600080600080604085870312156152f357600080fd5b84356001600160401b038082111561530a57600080fd5b61531688838901614fa0565b9096509450602087013591508082111561532f57600080fd5b506151a687828801614fa0565b6000806040838503121561534f57600080fd5b82356001600160401b038082111561536657600080fd5b818501915085601f83011261537a57600080fd5b813560208282111561538e5761538e615cd8565b8160051b61539d828201615b03565b8381528281019086840183880185018c10156153b857600080fd5b60009350835b868110156153f5578135888111156153d4578586fd5b6153e28e88838d010161502c565b85525092850192908501906001016153be565b5050809850505050615408818801614f90565b9450505050509250929050565b60006020828403121561542757600080fd5b815161195d81615d03565b6000806040838503121561544557600080fd5b823561545081615d03565b915060208301356152d281615d03565b6000806040838503121561547357600080fd5b825161547e81615d03565b60208401519092506001600160401b0381111561549a57600080fd5b6154a68582860161507d565b9150509250929050565b600080600080600080608087890312156154c957600080fd5b86356001600160401b03808211156154e057600080fd5b6154ec8a838b01614feb565b90985096506020890135915061550182615d11565b909450604088013593506060880135908082111561551e57600080fd5b5061552b89828a01614feb565b979a9699509497509295939492505050565b60006020828403121561554f57600080fd5b81356001600160401b0381111561556557600080fd5b6144a28482850161502c565b60006020828403121561558357600080fd5b81516001600160401b0381111561559957600080fd5b8201601f810184136155aa57600080fd5b6144a284825160208401614f5b565b6000602082840312156155cb57600080fd5b5035919050565b6000602082840312156155e457600080fd5b5051919050565b6000602082840312156155fd57600080fd5b813561195d81615d11565b6000806040838503121561561b57600080fd5b823561545081615d11565b60008060006040848603121561563b57600080fd5b833561564681615d11565b925060208401356001600160401b0381111561566157600080fd5b61566d86828701614feb565b9497909650939450505050565b60008060008060008060c0878903121561569357600080fd5b865161569e81615d11565b60208801519096506156af81615d11565b6040880151606089015160808a015160a0909a0151989b929a5090989097909650945092505050565b81835281816020850137506000828201602090810191909152601f909101601f19169091010190565b60008151808452615719816020860160208601615bf2565b601f01601f19169290920160200192915050565b6002811061573d5761573d615cac565b9052565b8183823760009101908152919050565b60008251615763818460208701615bf2565b9190910192915050565b6000875161577f818460208c01615bf2565b808301905060ff60f81b8860f81b1681526bffffffffffffffffffffffff198760601b16600182015285601582015284603582015283516157c7816055840160208801615bf2565b0160550198975050505050505050565b6001600160a01b038381168252604060208084018290528451918401829052600092858201929091906060860190855b81811015615825578551851683529483019491830191600101615807565b509098975050505050505050565b60018060a01b038516815283602082015260806040820152600061585a6080830185615701565b9050615869606083018461572d565b95945050505050565b6001600160a01b038c81168252602082018c90526101606040830181905260009161589f8483018e615701565b91506158ae606085018d61572d565b8a60808501528960a08501528860c085015280881660e08501528087166101008501528382036101208501526158e48287615701565b925080851661014085015250509c9b505050505050505050505050565b60808101818360005b600481101561592b578151151583526020928301929091019060010161590a565b50505092915050565b60006101808e151583528d1515602084015263ffffffff808e166040850152808d166060850152508a60808401528960a08401528860c08401528760e08401528061010084015261598781840188615701565b905082810361012084015261599c8187615701565b610140840195909552505061016001529a9950505050505050505050565b60208152600061195d6020830184615701565b60208101600883106159e1576159e1615cac565b91905290565b602080825260059082015264085898585b60da1b604082015260600190565b6020808252600d908201526c2161727261792070617269747960981b604082015260600190565b6020808252602b908201527f496e697469616c697a61626c653a20636f6e7472616374206973206e6f74206960408201526a6e697469616c697a696e6760a81b606082015260800190565b60208082526010908201526f10b130b0b610131010b6b0b730b3b2b960811b604082015260600190565b600063ffffffff808c16835260e06020840152615ac360e084018b8d6156d8565b818a16604085015288606085015287151560808501528660a085015283810360c0850152615af28186886156d8565b9d9c50505050505050505050505050565b604051601f8201601f191681016001600160401b0381118282101715615b2b57615b2b615cd8565b604052919050565b60006001600160401b03821115615b4c57615b4c615cd8565b50601f01601f191660200190565b60008219821115615b6d57615b6d615c96565b500190565b600063ffffffff808316818516808303821115615b9157615b91615c96565b01949350505050565b600082615bb757634e487b7160e01b600052601260045260246000fd5b500490565b6000816000190483118215151615615bd657615bd6615c96565b500290565b600082821015615bed57615bed615c96565b500390565b60005b83811015615c0d578181015183820152602001615bf5565b83811115615c1c576000848401525b50505050565b600181811c90821680615c3657607f821691505b60208210811415613da357634e487b7160e01b600052602260045260246000fd5b6000600019821415615c6b57615c6b615c96565b5060010190565b600063ffffffff80831681811415615c8c57615c8c615c96565b6001019392505050565b634e487b7160e01b600052601160045260246000fd5b634e487b7160e01b600052602160045260246000fd5b634e487b7160e01b600052603260045260246000fd5b634e487b7160e01b600052604160045260246000fd5b6001600160a01b038116811461154257600080fd5b801515811461154257600080fd5b63ffffffff8116811461154257600080fdfe322e322e352b6f70656e67736e2e70617961626c65776974686261616c2e6972656c6179726563697069656e74a2646970667358221220178cefb04e476abe5af61c5f7db34d2c912defb38857ba62ff0b25f75ad3c9ac64736f6c63430008070033",
      "deployedBytecode": "0x6080604052600436106103a25760003560e01c80638009ba1f116101e7578063cf043df31161010d578063ed0cdf15116100a0578063f460124d1161006f578063f460124d14610beb578063f81cbd2614610c0b578063fab514c014610c21578063fe47668614610c4157600080fd5b8063ed0cdf1514610b6b578063ee4d88ed14610b8b578063f2fde38b14610bab578063f3ae241514610bcb57600080fd5b8063da35c664116100dc578063da35c66414610ae7578063da74222814610b0b578063e19a9dd914610b2b578063e43581b814610b4b57600080fd5b8063cf043df314610a4c578063d33defc714610a6c578063d4b8399214610aa7578063d61f27ae14610ac757600080fd5b8063a4f9edbf11610185578063b634e4e011610154578063b634e4e0146109cb578063c00d0775146109e8578063c4e931f614610a0f578063c910638914610a2e57600080fd5b8063a4f9edbf14610956578063acca30a214610976578063b1e3f40c1461098b578063b3c98bbb146109ab57600080fd5b806398a527cc116101c157806398a527cc146108dc5780639a2f747f146108fc578063a06db7dc14610912578063a26ec96e1461093657600080fd5b80638009ba1f1461088857806383bf8459146108a85780638da5cb5b146108be57600080fd5b80634526d846116102cc5780635ec286961161026a578063715018a611610239578063715018a614610815578063776d1a011461082a5780637ceab3b11461084a5780637da0a8771461086a57600080fd5b80635ec28696146107a0578063635e99aa146107c057806367f61f07146107d5578063706a6e93146107f557600080fd5b806352ba1da7116102a657806352ba1da7146106f6578063572b6c05146107235780635aef7de6146107525780635cfd6f7e1461078a57600080fd5b80634526d846146106875780634630affc146106a7578063486ff0cd146106d457600080fd5b8063136d731a11610344578063258bfe2f11610313578063258bfe2f146106125780633232444c146106325780633a82ffc81461065f5780633a98ef391461067257600080fd5b8063136d731a146105a557806316fd265d146105ba57806318160ddd146105cf57806324d7806c146105f257600080fd5b8063056b0dcd11610380578063056b0dcd14610523578063086cfca8146105455780630a796e19146105655780630f656a211461058557600080fd5b8063013cf08b146103a7578063027cdf45146104c057806302a251a3146104ea575b600080fd5b3480156103b357600080fd5b506104436103c23660046155b9565b60d960205260009081526040902080546001820154600283015460038401546004850154600686015460079096015463ffffffff80871697600160201b8804821697600160401b8104831697600160601b8204841697600160801b8304851697600160a01b909304909416959094919290916001600160a01b03909116908c565b6040805163ffffffff9d8e1681529b8d1660208d0152998c16998b0199909952968a1660608a015294891660808901529790921660a087015260c086015260e08501526101008401949094526101208301939093526001600160a01b03909216610140820152610160810191909152610180015b60405180910390f35b3480156104cc57600080fd5b5060d5546104da9060ff1681565b60405190151581526020016104b7565b3480156104f657600080fd5b5060d05461050e90600160a01b900463ffffffff1681565b60405163ffffffff90911681526020016104b7565b34801561052f57600080fd5b5061054361053e366004615432565b610c6e565b005b34801561055157600080fd5b5061054361056036600461509d565b6111b5565b34801561057157600080fd5b506105436105803660046155eb565b61120f565b34801561059157600080fd5b506105436105a03660046152dd565b611545565b3480156105b157600080fd5b506105436117f3565b3480156105c657600080fd5b50610543611884565b3480156105db57600080fd5b506105e46118fe565b6040519081526020016104b7565b3480156105fe57600080fd5b506104da61060d36600461509d565b61191f565b34801561061e57600080fd5b506105e461062d36600461553d565b611964565b34801561063e57600080fd5b506105e461064d36600461509d565b60d66020526000908152604090205481565b6105e461066d3660046154b0565b611994565b34801561067e57600080fd5b506105e4611fd0565b34801561069357600080fd5b506105436106a23660046152dd565b61204d565b3480156106b357600080fd5b506106c76106c23660046155eb565b61211c565b6040516104b79190615901565b3480156106e057600080fd5b506106e961218d565b6040516104b791906159ba565b34801561070257600080fd5b506105e461071136600461509d565b60d86020526000908152604090205481565b34801561072f57600080fd5b506104da61073e36600461509d565b60ce546001600160a01b0391821691161490565b34801561075e57600080fd5b50606654610772906001600160a01b031681565b6040516001600160a01b0390911681526020016104b7565b34801561079657600080fd5b506105e460d35481565b3480156107ac57600080fd5b506105436107bb3660046152dd565b61221b565b3480156107cc57600080fd5b506105e46122ea565b3480156107e157600080fd5b506105436107f0366004615608565b61232f565b34801561080157600080fd5b50610543610810366004615626565b612353565b34801561082157600080fd5b5061054361273f565b34801561083657600080fd5b5061054361084536600461509d565b612753565b34801561085657600080fd5b50606554610772906001600160a01b031681565b34801561087657600080fd5b5060ce546001600160a01b0316610772565b34801561089457600080fd5b5060d054610772906001600160a01b031681565b3480156108b457600080fd5b506105e460d45481565b3480156108ca57600080fd5b506033546001600160a01b0316610772565b3480156108e857600080fd5b506105436108f73660046152dd565b6127ad565b34801561090857600080fd5b506105e460d15481565b34801561091e57600080fd5b5060d05461050e90600160c01b900463ffffffff1681565b34801561094257600080fd5b5060d5546104da9062010000900460ff1681565b34801561096257600080fd5b5061054361097136600461553d565b61287c565b34801561098257600080fd5b50610543612e0a565b34801561099757600080fd5b506105436109a63660046152dd565b612e8f565b3480156109b757600080fd5b506105436109c6366004615157565b612f5e565b3480156109d757600080fd5b5060da5461050e9063ffffffff1681565b3480156109f457600080fd5b5060da5461077290600160201b90046001600160a01b031681565b348015610a1b57600080fd5b5060d5546104da90610100900460ff1681565b348015610a3a57600080fd5b506065546001600160a01b0316610772565b348015610a5857600080fd5b50610543610a6736600461521b565b61303f565b348015610a7857600080fd5b506104da610a873660046152a4565b60d760209081526000928352604080842090915290825290205460ff1681565b348015610ab357600080fd5b50606754610772906001600160a01b031681565b348015610ad357600080fd5b506106e9610ae236600461533c565b613319565b348015610af357600080fd5b5060d05461050e90600160e01b900463ffffffff1681565b348015610b1757600080fd5b50610543610b2636600461509d565b6133e0565b348015610b3757600080fd5b50610543610b4636600461509d565b61348f565b348015610b5757600080fd5b506104da610b6636600461509d565b6135a0565b348015610b7757600080fd5b50610543610b863660046151b2565b6135e1565b348015610b9757600080fd5b50610543610ba636600461553d565b6136f0565b348015610bb757600080fd5b50610543610bc636600461509d565b61394e565b348015610bd757600080fd5b506104da610be636600461509d565b6139c4565b348015610bf757600080fd5b5060cf54610772906001600160a01b031681565b348015610c1757600080fd5b506105e460d25481565b348015610c2d57600080fd5b50610543610c3c3660046155eb565b613a04565b348015610c4d57600080fd5b50610c61610c5c3660046155eb565b613bd8565b6040516104b791906159cd565b6066546001600160a01b0316610c82613da9565b6001600160a01b03161480610c9d5750610c9d61060d613da9565b610cdf5760405162461bcd60e51b815260206004820152600e60248201526d10b130b0b610131010b0b236b4b760911b60448201526064015b60405180910390fd5b818015610d6f575060d060009054906101000a90046001600160a01b03166001600160a01b0316635c975abb6040518163ffffffff1660e01b815260040160206040518083038186803b158015610d3557600080fd5b505afa158015610d49573d6000803e3d6000fd5b505050506040513d601f19601f82011682018060405250810190610d6d9190615415565b155b15610e165760d060009054906101000a90046001600160a01b03166001600160a01b0316638456cb596040518163ffffffff1660e01b8152600401600060405180830381600087803b158015610dc457600080fd5b505af1158015610dd8573d6000803e3d6000fd5b5050604051600181527f5544d0c1539dae939ba6e81485fb6352e3081f5a74f9bf445038bdcc358e34159250602001905060405180910390a1610f48565b81158015610ea5575060d060009054906101000a90046001600160a01b03166001600160a01b0316635c975abb6040518163ffffffff1660e01b815260040160206040518083038186803b158015610e6d57600080fd5b505afa158015610e81573d6000803e3d6000fd5b505050506040513d601f19601f82011682018060405250810190610ea59190615415565b15610f485760d060009054906101000a90046001600160a01b03166001600160a01b0316633f4ba83a6040518163ffffffff1660e01b8152600401600060405180830381600087803b158015610efa57600080fd5b505af1158015610f0e573d6000803e3d6000fd5b5050604051600081527f5544d0c1539dae939ba6e81485fb6352e3081f5a74f9bf445038bdcc358e34159250602001905060405180910390a15b808015610fd8575060cf60009054906101000a90046001600160a01b03166001600160a01b0316635c975abb6040518163ffffffff1660e01b815260040160206040518083038186803b158015610f9e57600080fd5b505afa158015610fb2573d6000803e3d6000fd5b505050506040513d601f19601f82011682018060405250810190610fd69190615415565b155b1561107f5760cf60009054906101000a90046001600160a01b03166001600160a01b0316638456cb596040518163ffffffff1660e01b8152600401600060405180830381600087803b15801561102d57600080fd5b505af1158015611041573d6000803e3d6000fd5b5050604051600181527f21b897e32ff7464f696022c4d6dfbf2d4eb300d162ad28e0d90f1136f5fea9cb925060200190505b60405180910390a15050565b8015801561110e575060cf60009054906101000a90046001600160a01b03166001600160a01b0316635c975abb6040518163ffffffff1660e01b815260040160206040518083038186803b1580156110d657600080fd5b505afa1580156110ea573d6000803e3d6000fd5b505050506040513d601f19601f8201168201806040525081019061110e9190615415565b156111b15760cf60009054906101000a90046001600160a01b03166001600160a01b0316633f4ba83a6040518163ffffffff1660e01b8152600401600060405180830381600087803b15801561116357600080fd5b505af1158015611177573d6000803e3d6000fd5b5050604051600081527f21b897e32ff7464f696022c4d6dfbf2d4eb300d162ad28e0d90f1136f5fea9cb9250602001905060405180910390a15b5050565b6111bd613db3565b606680546001600160a01b038381166001600160a01b0319831681179093556040519116919082907f52ae88b092de36f87fb43fe794eb1381023b9c1bce563a871154022c63dce34290600090a35050565b611217613e2c565b63ffffffff8116600090815260d96020526040902060d35460d0546001600160a01b0316639ab24eb0611248613da9565b6040516001600160e01b031960e084901b1681526001600160a01b03909116600482015260240160206040518083038186803b15801561128757600080fd5b505afa15801561129b573d6000803e3d6000fd5b505050506040513d601f19601f820116820180604052508101906112bf91906155d2565b10156112f85760405162461bcd60e51b815260206004820152600860248201526710b9b837b739b7b960c11b6044820152606401610cd6565b600161130383613bd8565b600781111561131457611314615cac565b1461134e5760405162461bcd60e51b815260206004820152600a602482015269085cdd589b5a5d1d195960b21b6044820152606401610cd6565b8054600160a01b900463ffffffff1615806113a4575060d05463ffffffff600160c01b820481169161138991600160a01b9091041642615b5a565b6113939190615b5a565b8154600160a01b900463ffffffff16115b6113da5760405162461bcd60e51b8152602060048201526007602482015266195e1c1a5c995960ca1b6044820152606401610cd6565b805463ffffffff42818116600160401b026bffffffff00000000000000001984168117855560d08054600160a01b90819004851684018516600160601b0263ffffffff60601b1990931667ffffffffffffffff60401b19909616959095179190911780865590549384048316909101600160c01b9093048216929092018116600160801b0263ffffffff60801b1983168117845560da54600160201b92169190910267ffffffff000000001990911673ffffffff0000000000000000ffffffff0000000019909216919091171781556114b1613da9565b6006820180546001600160a01b0319166001600160a01b03929092169190911790556114db6118fe565b600482015560da805463ffffffff191663ffffffff84169081179091554290611502613da9565b6001600160a01b03167fd45ad122361f16d6f50d7c4a73638f20ee48eff6186af15224e2a4a1f6d5017160405160405180910390a4506115426001609c55565b50565b6066546001600160a01b0316611559613da9565b6001600160a01b03161461157f5760405162461bcd60e51b8152600401610cd6906159e7565b82811461159e5760405162461bcd60e51b8152600401610cd690615a06565b60005b838110156117ec5760008383838181106115bd576115bd615cc2565b60d5546020909102929092013592505060ff161561163a57806001141580156115e7575080600314155b80156115f4575080600514155b8015611601575080600714155b61163a5760405162461bcd60e51b815260206004820152600a60248201526961646d696e206c6f636b60b01b6044820152606401610cd6565b60d554610100900460ff16156116b1578060021415801561165c575080600314155b8015611669575080600614155b8015611676575080600714155b6116b15760405162461bcd60e51b815260206004820152600c60248201526b6d616e61676572206c6f636b60a01b6044820152606401610cd6565b60d55462010000900460ff161561172a57806004141580156116d4575080600514155b80156116e1575080600614155b80156116ee575080600714155b61172a5760405162461bcd60e51b815260206004820152600d60248201526c676f7665726e6f72206c6f636b60981b6044820152606401610cd6565b8060d6600088888681811061174157611741615cc2565b9050602002016020810190611756919061509d565b6001600160a01b0316815260208101919091526040016000205585858381811061178257611782615cc2565b9050602002016020810190611797919061509d565b6001600160a01b03167fc456d076c1245c6b9759b3cdcb169e14e00a7739897e501844c8fe5fca6cb260826040516117d191815260200190565b60405180910390a250806117e481615c57565b9150506115a1565b5050505050565b6066546001600160a01b0316611807613da9565b6001600160a01b03161461182d5760405162461bcd60e51b8152600401610cd6906159e7565b60d5805462ff0000191662010000908117918290556040517fd9574ee4ccdf21db87aa2c1d1fee3248522d79c07c54bde4a9edeb0620bef71f9261187a92900460ff161515815260200190565b60405180910390a1565b6066546001600160a01b0316611898613da9565b6001600160a01b0316146118be5760405162461bcd60e51b8152600401610cd6906159e7565b60d5805460ff191660019081179091556040519081527f5e1c9f68365556a24387c25fd0922af31039bcfc65d36caac57401d310948e599060200161187a565b6000611908611fd0565b6119106122ea565b61191a9190615b5a565b905090565b6001600160a01b038116600090815260d6602052604081205460018114806119475750806003145b806119525750806005145b8061195d5750806007145b9392505050565b60008160405160200161197791906159ba565b604051602081830303815290604052805190602001209050919050565b600061199e613e2c565b63ffffffff851615806119e4575060d05463ffffffff600160c01b82048116916119d191600160a01b9091041642615b5a565b6119db9190615b5a565b8563ffffffff16115b611a1a5760405162461bcd60e51b8152602060048201526007602482015266195e1c1a5c995960ca1b6044820152606401610cd6565b6301312d00841115611a605760405162461bcd60e51b815260206004820152600f60248201526e0c4c2c2d88ec2e640e8de40d0d2ced608b1b6044820152606401610cd6565b60d35460d054600091906001600160a01b0316639ab24eb0611a80613da9565b6040516001600160e01b031960e084901b1681526001600160a01b03909116600482015260240160206040518083038186803b158015611abf57600080fd5b505afa158015611ad3573d6000803e3d6000fd5b505050506040513d601f19601f82011682018060405250810190611af791906155d2565b10611b0457506001611beb565b60d1543414611b555760405162461bcd60e51b815260206004820152601960248201527f4261616c20726571756972657320616e206f66666572696e67000000000000006044820152606401610cd6565b6067546040516000916001600160a01b03169034908381818185875af1925050503d8060008114611ba2576040519150601f19603f3d011682016040523d82523d6000602084013e611ba7565b606091505b5050905080611be95760405162461bcd60e51b815260206004820152600e60248201526d18dbdd5b19081b9bdd081cd95b9960921b6044820152606401610cd6565b505b6000611c2c89898080601f01602080910402602001604051908101604052809392919081815260200183838082843760009201919091525061196492505050565b60d08054919250600160e01b90910463ffffffff1690601c611c4d83615c72565b91906101000a81548163ffffffff021916908363ffffffff16021790555050604051806101a0016040528060d0601c9054906101000a900463ffffffff1663ffffffff16815260200183611ca2576000611cac565b60da5463ffffffff165b63ffffffff16815260200183611cc3576000611cc5565b425b63ffffffff16815260200183611cdc576000611cf6565b60d054611cf690600160a01b900463ffffffff1642615b72565b63ffffffff16815260200183611d0d576000611d3c565b60d05463ffffffff600160c01b8204811691611d3291600160a01b9091041642615b72565b611d3c9190615b72565b63ffffffff1681526020018863ffffffff168152602001878152602001600081526020016000815260200183611d73576000611d7b565b611d7b6118fe565b8152604080516080810182526000808252602082810182905282840182905260608301919091528301520183611db2576000611dba565b611dba613da9565b6001600160a01b03168152602090810183905260d054600160e01b900463ffffffff908116600090815260d983526040908190208451815494860151928601516060870151608088015160a089015193871667ffffffffffffffff1990981697909717600160201b958716959095029490941767ffffffffffffffff60401b1916600160401b9186169190910263ffffffff60601b191617600160601b938516939093029290921767ffffffffffffffff60801b1916600160801b9484169490940263ffffffff60a01b191693909317600160a01b919092160217815560c0820151600182015560e082015160028201556101008201516003820155610120820151600480830191909155610140830151611eda91600584019190614e22565b506101608201516006820180546001600160a01b0319166001600160a01b03909216919091179055610180909101516007909101558115611f3a5760d05460da8054600160e01b90920463ffffffff1663ffffffff199092169190911790555b8060d0601c9054906101000a900463ffffffff1663ffffffff167fb9956173924f9c1204bae41dd3737d7ed1161846d13183879cdc03c4b9f8d01960d060149054906101000a900463ffffffff168c8c8c8c89428e8e604051611fa599989796959493929190615aa2565b60405180910390a3505060d0546001609c55600160e01b900463ffffffff1690509695505050505050565b60d054604080516318160ddd60e01b815290516000926001600160a01b0316916318160ddd916004808301926020929190829003018186803b15801561201557600080fd5b505afa158015612029573d6000803e3d6000fd5b505050506040513d601f19601f8201168201806040525081019061191a91906155d2565b6066546001600160a01b0316612061613da9565b6001600160a01b0316148061207c575061207c610be6613da9565b6120985760405162461bcd60e51b8152600401610cd690615a78565b8281146120b75760405162461bcd60e51b8152600401610cd690615a06565b60005b838110156117ec5761210a8585838181106120d7576120d7615cc2565b90506020020160208101906120ec919061509d565b8484848181106120fe576120fe615cc2565b90506020020135613e8d565b8061211481615c57565b9150506120ba565b612124614eb4565b63ffffffff8216600090815260d9602052604080822081516080810192839052926005909101916004918390855b825461010083900a900460ff161515815260206001928301818104948501949093039092029101808411612152575094979650505050505050565b60db805461219a90615c22565b80601f01602080910402602001604051908101604052809291908181526020018280546121c690615c22565b80156122135780601f106121e857610100808354040283529160200191612213565b820191906000526020600020905b8154815290600101906020018083116121f657829003601f168201915b505050505081565b6066546001600160a01b031661222f613da9565b6001600160a01b0316148061224a575061224a610be6613da9565b6122665760405162461bcd60e51b8152600401610cd690615a78565b8281146122855760405162461bcd60e51b8152600401610cd690615a06565b60005b838110156117ec576122d88585838181106122a5576122a5615cc2565b90506020020160208101906122ba919061509d565b8484848181106122cc576122cc615cc2565b90506020020135613ef8565b806122e281615c57565b915050612288565b60cf54604080516318160ddd60e01b815290516000926001600160a01b0316916318160ddd916004808301926020929190829003018186803b15801561201557600080fd5b612337613e2c565b612349612342613da9565b8383613f31565b6111b16001609c55565b61235b613e2c565b63ffffffff8316600090815260d96020526040902060068101546001600160a01b03166123b55760405162461bcd60e51b815260206004820152600860248201526710b9b837b739b7b960c11b6044820152606401610cd6565b60056123c085613bd8565b60078111156123d1576123d1615cac565b146124075760405162461bcd60e51b815260206004820152600660248201526521726561647960d01b6044820152606401610cd6565b805460009061242290600160201b900463ffffffff16613bd8565b9050600681600781111561243857612438615cac565b14806124555750600381600781111561245357612453615cac565b145b806124715750600781600781111561246f5761246f615cac565b145b8061248d5750600081600781111561248b5761248b615cac565b145b6124ca5760405162461bcd60e51b815260206004820152600e60248201526d1c1c995d885c1c9bd8d95cdcd95960921b6044820152606401610cd6565b816007015461250e85858080601f01602080910402602001604051908101604052809392919081815260200183838082843760009201919091525061196492505050565b146125505760405162461bcd60e51b8152602060048201526012602482015271696e636f72726563742063616c6c6461746160701b6044820152606401610cd6565b60018201541580612565575081600101545a10155b6125a25760405162461bcd60e51b815260206004820152600e60248201526d6e6f7420656e6f7567682067617360901b6044820152606401610cd6565b60058201805461ff0019166101001790558154600190600160a01b900463ffffffff16158015906125e15750825442600160a01b90910463ffffffff16105b156125ea575060005b8080156126165750826004015460d2546126049190615bbc565b6002840154612614906064615bbc565b105b1561261f575060005b80801561264f5750606460d454846004015461263b9190615bbc565b6126459190615b9a565b61264d6118fe565b105b15612658575060005b80156126d15760058301805462ff0000191662010000179055604080516020601f87018190048102820181019092528581526000916126b29190889088908190840183828082843760009201919091525061419492505050565b9050806126cf5760058401805463ff000000191663010000001790555b505b60058301546040805160ff62010000840481161515825263010000009093049092161515602083015263ffffffff8816917fb4571f7e4e2c2b6e6185e47ab5caa5fe34087299bd49fbae945a4583101ee3f0910160405180910390a250505061273a6001609c55565b505050565b612747613db3565b61275160006141bd565b565b61275b613db3565b606780546001600160a01b038381166001600160a01b0319831681179093556040519116919082907f90cc2f570a6eb594b1580ea3e41247d2d73a55281889e86bd4ec2fc29c7e62d690600090a35050565b6066546001600160a01b03166127c1613da9565b6001600160a01b031614806127dc57506127dc610be6613da9565b6127f85760405162461bcd60e51b8152600401610cd690615a78565b8281146128175760405162461bcd60e51b8152600401610cd690615a06565b60005b838110156117ec5761286a85858381811061283757612837615cc2565b905060200201602081019061284c919061509d565b84848481811061285e5761285e615cc2565b9050602002013561420f565b8061287481615c57565b91505061281a565b600054610100900460ff161580801561289c5750600054600160ff909116105b806128b65750303b1580156128b6575060005460ff166001145b6129195760405162461bcd60e51b815260206004820152602e60248201527f496e697469616c697a61626c653a20636f6e747261637420697320616c72656160448201526d191e481a5b9a5d1a585b1a5e995960921b6064820152608401610cd6565b6000805460ff19166001179055801561293c576000805461ff0019166101001790555b612944613e2c565b6000806000806000808780602001905181019061296191906150ba565b95509550955095509550955060006001600160a01b0316846001600160a01b03161415801561299857506001600160a01b03831615155b6129d25760405162461bcd60e51b815260206004820152600b60248201526a0c081859191c881d5cd95960aa1b6044820152606401610cd6565b6040518060600160405280602d8152602001615d24602d913980516129ff9160db91602090910190614ed2565b50612a08614248565b612a10614277565b612a4f60405180604001604052806004815260200163566f746560e01b815250604051806040016040528060018152602001600d60fa1b8152506142a6565b612a588361394e565b606680546001600160a01b0385166001600160a01b03199182168117909255606780549091169091179055612a8c826142d7565b60cf80546001600160a01b03199081166001600160a01b038981169190911790925560d0805490911687831617905560da8054640100000000600160c01b031916600160201b87841681029190911791829055612af09291041660008360016142f9565b612b315760405162461bcd60e51b8152602060048201526012602482015271063616c6c206661696c7572652073657475760741b6044820152606401610cd6565b60cf5460408051635c975abb60e01b815290517f916f812584e0b001e8c6ab604fa549cc16c9d0b2f60b17aa0b4ff5eefe3e7725926001600160a01b031691635c975abb916004808301926020929190829003018186803b158015612b9557600080fd5b505afa158015612ba9573d6000803e3d6000fd5b505050506040513d601f19601f82011682018060405250810190612bcd9190615415565b60d060009054906101000a90046001600160a01b03166001600160a01b0316635c975abb6040518163ffffffff1660e01b815260040160206040518083038186803b158015612c1b57600080fd5b505afa158015612c2f573d6000803e3d6000fd5b505050506040513d601f19601f82011682018060405250810190612c539190615415565b60d05460d15460d25460d35460d454604080516306fdde0360e01b8152905163ffffffff600160c01b8804811697600160a01b810490911696959493926001600160a01b03909116916306fdde0391600480820192600092909190829003018186803b158015612cc257600080fd5b505afa158015612cd6573d6000803e3d6000fd5b505050506040513d6000823e601f3d908101601f19168201604052612cfe9190810190615571565b60d060009054906101000a90046001600160a01b03166001600160a01b03166395d89b416040518163ffffffff1660e01b815260040160006040518083038186803b158015612d4c57600080fd5b505afa158015612d60573d6000803e3d6000fd5b505050506040513d6000823e601f3d908101601f19168201604052612d889190810190615571565b612d90611fd0565b612d986122ea565b604051612db09c9b9a99989796959493929190615934565b60405180910390a1505050505050612dc86001609c55565b80156111b1576000805461ff0019169055604051600181527f7f26b83ff96e1f2b6a682f133852f6798a09c465da95921460cefb384740249890602001611073565b6066546001600160a01b0316612e1e613da9565b6001600160a01b031614612e445760405162461bcd60e51b8152600401610cd6906159e7565b60d5805461ff001916610100908117918290556040517fb496b9628e839102454d8b483ba451c4be96675009b637273a00e4ab6a59db729261187a92900460ff161515815260200190565b6066546001600160a01b0316612ea3613da9565b6001600160a01b03161480612ebe5750612ebe610be6613da9565b612eda5760405162461bcd60e51b8152600401610cd690615a78565b828114612ef95760405162461bcd60e51b8152600401610cd690615a06565b60005b838110156117ec57612f4c858583818110612f1957612f19615cc2565b9050602002016020810190612f2e919061509d565b848484818110612f4057612f40615cc2565b905060200201356144aa565b80612f5681615c57565b915050612efc565b6066546001600160a01b0316612f72613da9565b6001600160a01b031614612f985760405162461bcd60e51b8152600401610cd6906159e7565b6000846001600160a01b0316848484604051612fb5929190615741565b60006040518083038185875af1925050503d8060008114612ff2576040519150601f19603f3d011682016040523d82523d6000602084013e612ff7565b606091505b50509050806117ec5760405162461bcd60e51b815260206004820152601460248201527363616c6c206661696c757265206578656375746560601b6044820152606401610cd6565b613047613e2c565b864211156130975760405162461bcd60e51b815260206004820152601d60248201527f4552433230566f7465733a207369676e617475726520657870697265640000006044820152606401610cd6565b6001600160a01b038816600090815260d8602052604090205486146130e75760405162461bcd60e51b8152602060048201526006602482015265216e6f6e636560d01b6044820152606401610cd6565b60007f8698fbcc7273f96a670eb203cb707d8ec171123f24eaf075b1e754b71119e59e60d060009054906101000a90046001600160a01b03166001600160a01b03166306fdde036040518163ffffffff1660e01b815260040160006040518083038186803b15801561315857600080fd5b505afa15801561316c573d6000803e3d6000fd5b505050506040513d6000823e601f3d908101601f191682016040526131949190810190615571565b6040516020016131a49190615751565b60408051601f198184030181528282528051602091820120908301939093528101919091526001600160a01b038a1660608201526080810189905260a0810188905263ffffffff871660c082015285151560e0820152610100016040516020818303038152906040528051906020012090506000613221826144e3565b9050600061323182878787614531565b90508a6001600160a01b0316816001600160a01b0316146132885760405162461bcd60e51b8152602060048201526011602482015270696e76616c6964207369676e617475726560781b6044820152606401610cd6565b6001600160a01b0381166132c85760405162461bcd60e51b815260206004820152600760248201526610b9b4b3b732b960c91b6044820152606401610cd6565b6001600160a01b038b16600090815260d8602052604081208054600192906132f1908490615b5a565b909155506133029050818989613f31565b50505061330f6001609c55565b5050505050505050565b60608060005b845181101561339c5781600085600088858151811061334057613340615cc2565b60200260200101515189868151811061335b5761335b615cc2565b60200260200101516040516020016133789695949392919061576d565b6040516020818303038152906040529150808061339490615c57565b91505061331f565b50806040516024016133ae91906159ba565b60408051601f198184030181529190526020810180516001600160e01b03166346c07f8560e11b179052949350505050565b6066546001600160a01b03166133f4613da9565b6001600160a01b0316148061340f575061340f610b66613da9565b61344f5760405162461bcd60e51b815260206004820152601160248201527010b130b0b610131010b3b7bb32b93737b960791b6044820152606401610cd6565b613458816142d7565b6040516001600160a01b038216907f8c2bee8063bb4464870b7dfa415ebb2fe80bfa73ba20d6fbf0d42791274667ff90600090a250565b613497613db3565b6001600160a01b0381161561354c576040516301ffc9a760e01b815263736bd41d60e11b60048201526001600160a01b038216906301ffc9a79060240160206040518083038186803b1580156134ec57600080fd5b505afa158015613500573d6000803e3d6000fd5b505050506040513d601f19601f820116820180604052508101906135249190615415565b61354c576040516358b7533f60e11b81526001600160a01b0382166004820152602401610cd6565b606580546001600160a01b0319166001600160a01b0383169081179091556040519081527f1151116914515bc0891ff9047a6cb32cf902546f83066499bcf8ba33d2353fa29060200160405180910390a150565b6001600160a01b038116600090815260d6602052604081205460048114806135c85750806005145b806119525750806006148061195d575060071492915050565b6135e9613e2c565b60015b818110156136a6578282613601600184615bdb565b81811061361057613610615cc2565b9050602002016020810190613625919061509d565b6001600160a01b031683838381811061364057613640615cc2565b9050602002016020810190613655919061509d565b6001600160a01b0316116136945760405162461bcd60e51b815260206004820152600660248201526510b7b93232b960d11b6044820152606401610cd6565b8061369e81615c57565b9150506135ec565b506136e685858585858080602002602001604051908101604052809392919081815260200183836020028082843760009201919091525061455992505050565b6117ec6001609c55565b6066546001600160a01b0316613704613da9565b6001600160a01b0316148061371f575061371f610b66613da9565b61375f5760405162461bcd60e51b815260206004820152601160248201527010b130b0b610131010b3b7bb32b93737b960791b6044820152606401610cd6565b6000806000806000808680602001905181019061377c919061567a565b949a5092985090965094509250905060648111156137c95760405162461bcd60e51b815260206004820152600a6024820152696261642071756f72756d60b01b6044820152606401610cd6565b606481111561380d5760405162461bcd60e51b815260206004820152601060248201526f3130b21036b4b72932ba32b73a34b7b760811b6044820152606401610cd6565b600060d354118015613829575060d0546001600160a01b031615155b1561387e57613836611fd0565b82111561387e5760405162461bcd60e51b815260206004820152601660248201527573706f6e736f72203e20736861726573537570706c7960501b6044820152606401610cd6565b63ffffffff8616156138a95760d0805463ffffffff60a01b1916600160a01b63ffffffff8916021790555b63ffffffff8516156138d45760d0805463ffffffff60c01b1916600160c01b63ffffffff8816021790555b60d184905560d283905560d382905560d48190556040805163ffffffff808916825287166020820152908101859052606081018490526080810183905260a081018290527fc10758ccd7d1dd3330e7bbe13a1a1d6bbb414967932376ee24989bad95edcdc19060c00160405180910390a150505050505050565b613956613db3565b6001600160a01b0381166139bb5760405162461bcd60e51b815260206004820152602660248201527f4f776e61626c653a206e6577206f776e657220697320746865207a65726f206160448201526564647265737360d01b6064820152608401610cd6565b611542816141bd565b6001600160a01b038116600090815260d6602052604081205460028114806135c8575080600314806119525750806006148061195d575060071492915050565b613a0c613e2c565b63ffffffff8116600090815260d9602052604090206002613a2c83613bd8565b6007811115613a3d57613a3d615cac565b14613a745760405162461bcd60e51b815260206004820152600760248201526621766f74696e6760c81b6044820152606401610cd6565b60068101546001600160a01b0316613a8a613da9565b6001600160a01b03161480613b41575060d35460d05460068301546001600160a01b0391821691633a46b1a89116613ac3600142615bdb565b6040516001600160e01b031960e085901b1681526001600160a01b039092166004830152602482015260440160206040518083038186803b158015613b0757600080fd5b505afa158015613b1b573d6000803e3d6000fd5b505050506040513d601f19601f82011682018060405250810190613b3f91906155d2565b105b80613b525750613b52610b66613da9565b613b8d5760405162461bcd60e51b815260206004820152600c60248201526b2163616e63656c6c61626c6560a01b6044820152606401610cd6565b60058101805460ff1916600117905560405163ffffffff8316907f8896f24cff41b54acf76c2560861f33cd20fd76c4df0b68a3515c354e4b6c81a90600090a2506115426001609c55565b63ffffffff818116600090815260d96020908152604080832081516101a08101835281548087168252600160201b8104871694820194909452600160401b8404861681840152600160601b840486166060820152600160801b84048616608080830191909152600160a01b90940490951660a0860152600181015460c0860152600281015460e0860152600381015461010086015260048082015461012087015282519384019283905293948594909391926101408501929160058501918288855b825461010083900a900460ff161515815260206001928301818104948501949093039092029101808411613c9a5750505092845250505060068201546001600160a01b03166020820152600790910154604090910152805190915063ffffffff16613d085750600092915050565b6101408101515115613d1d5750600392915050565b604081015163ffffffff16613d355750600192915050565b806060015163ffffffff164211613d4f5750600292915050565b806080015163ffffffff164211613d695750600492915050565b8060e0015181610100015110613d825750600792915050565b6101408101516020015115613d9a5750600692915050565b50600592915050565b50919050565b600061191a6147d5565b613dbb613da9565b6001600160a01b0316613dd66033546001600160a01b031690565b6001600160a01b0316146127515760405162461bcd60e51b815260206004820181905260248201527f4f776e61626c653a2063616c6c6572206973206e6f7420746865206f776e65726044820152606401610cd6565b6002609c541415613e7f5760405162461bcd60e51b815260206004820152601f60248201527f5265656e7472616e637947756172643a207265656e7472616e742063616c6c006044820152606401610cd6565b6002609c55565b6001609c55565b60cf546040516340c10f1960e01b81526001600160a01b03848116600483015260248201849052909116906340c10f19906044015b600060405180830381600087803b158015613edc57600080fd5b505af1158015613ef0573d6000803e3d6000fd5b505050505050565b60cf54604051632770a7eb60e21b81526001600160a01b0384811660048301526024820184905290911690639dc29fac90604401613ec2565b63ffffffff8216600090815260d9602052604090206002613f5184613bd8565b6007811115613f6257613f62615cac565b14613f995760405162461bcd60e51b815260206004820152600760248201526621766f74696e6760c81b6044820152606401610cd6565b60d0548154604051630748d63560e31b81526001600160a01b038781166004830152600160401b90920463ffffffff1660248201526000929190911690633a46b1a89060440160206040518083038186803b158015613ff757600080fd5b505afa15801561400b573d6000803e3d6000fd5b505050506040513d601f19601f8201168201806040525081019061402f91906155d2565b90506000811161406b5760405162461bcd60e51b815260206004820152600760248201526610b6b2b6b132b960c91b6044820152606401610cd6565b6001600160a01b038516600090815260d76020908152604080832063ffffffff8816845290915290205460ff16156140cd5760405162461bcd60e51b81526020600482015260056024820152641d9bdd195960da1b6044820152606401610cd6565b6001600160a01b038516600090815260d76020908152604080832063ffffffff881684529091528120805460ff191660011790556141096118fe565b9050826004015481111561411f57600483018190555b8315614134576002830180548301905561413f565b600383018054830190555b8315158563ffffffff16876001600160a01b03167f786755545a7e27c12c90cc7f0934514d03fdacfe3684a340b8c4100531e7ecd58560405161418491815260200190565b60405180910390a4505050505050565b60da546000906141b790600160201b90046001600160a01b0316828460016142f9565b92915050565b603380546001600160a01b038381166001600160a01b0319831681179093556040519116919082907f8be0079c531659141344cd1fd0a4f28419497f9722a3daafe3b4186f6b6457e090600090a35050565b60d054604051632770a7eb60e21b81526001600160a01b0384811660048301526024820184905290911690639dc29fac90604401613ec2565b600054610100900460ff1661426f5760405162461bcd60e51b8152600401610cd690615a2d565b612751614809565b600054610100900460ff1661429e5760405162461bcd60e51b8152600401610cd690615a2d565b612751614840565b600054610100900460ff166142cd5760405162461bcd60e51b8152600401610cd690615a2d565b6111b18282614867565b60ce80546001600160a01b0319166001600160a01b0392909216919091179055565b6065546000906001600160a01b03161561439b576065546040805180820182526002815261060f60f31b60208201529051633af85da960e11b81526001600160a01b03909216916375f0bb52916143689189918991899189916000918291829182918291903390600401615872565b600060405180830381600087803b15801561438257600080fd5b505af1158015614396573d6000803e3d6000fd5b505050505b60675460405163468721a760e01b81526001600160a01b039091169063468721a7906143d1908890889088908890600401615833565b602060405180830381600087803b1580156143eb57600080fd5b505af11580156143ff573d6000803e3d6000fd5b505050506040513d601f19601f820116820180604052508101906144239190615415565b6065549091506001600160a01b0316156144a257606554604051631264e26d60e31b815261060f60f31b600482015282151560248201526001600160a01b0390911690639327136890604401600060405180830381600087803b15801561448957600080fd5b505af115801561449d573d6000803e3d6000fd5b505050505b949350505050565b60d0546040516340c10f1960e01b81526001600160a01b03848116600483015260248201849052909116906340c10f1990604401613ec2565b60006141b76144f06148a8565b8360405161190160f01b6020820152602281018390526042810182905260009060620160405160208183030381529060405280519060200120905092915050565b600080600061454287878787614923565b9150915061454f816149e7565b5095945050505050565b60006145636118fe565b9050821561457c5761457c614576613da9565b84613ef8565b83156145935761459361458d613da9565b8561420f565b60005b825181101561478157600073eeeeeeeeeeeeeeeeeeeeeeeeeeeeeeeeeeeeeeee6001600160a01b03168483815181106145d1576145d1615cc2565b60200260200101516001600160a01b031614156145fb57506067546001600160a01b0316316146c9565b600084838151811061460f5761460f615cc2565b602090810291909101810151606754604080516001600160a01b03928316602480830191909152825180830390910181526044909101825293840180516001600160e01b03166370a0823160e01b1790525191169161466d91615751565b600060405180830381855afa9150503d80600081146146a8576040519150601f19603f3d011682016040523d82523d6000602084013e6146ad565b606091505b50915050808060200190518101906146c591906155d2565b9150505b600083826146d78989615b5a565b6146e19190615bbc565b6146eb9190615b9a565b9050801561476c5773eeeeeeeeeeeeeeeeeeeeeeeeeeeeeeeeeeeeeeee6001600160a01b031685848151811061472357614723615cc2565b60200260200101516001600160a01b0316146147625761475d85848151811061474e5761474e615cc2565b60200260200101518983614b35565b61476c565b61476c8882614c04565b5050808061477990615c57565b915050614596565b50838361478c613da9565b6001600160a01b03167fa21c268847f2b8adac3751ed0683330abe9fdd6cc4a7a8fc6787633d4126e0d488866040516147c69291906157d7565b60405180910390a45050505050565b6000601436108015906147f2575060ce546001600160a01b031633145b15614804575060131936013560601c90565b503390565b600054610100900460ff166148305760405162461bcd60e51b8152600401610cd690615a2d565b61275161483b613da9565b6141bd565b600054610100900460ff16613e865760405162461bcd60e51b8152600401610cd690615a2d565b600054610100900460ff1661488e5760405162461bcd60e51b8152600401610cd690615a2d565b815160209283012081519190920120606891909155606955565b600061191a7f8b73c3c69bb8fe3d512ecc4cf759cc79239f7b179b0ffacaa9a75d522b39400f6148d760685490565b6069546040805160208101859052908101839052606081018290524660808201523060a082015260009060c0016040516020818303038152906040528051906020012090509392505050565b6000807f7fffffffffffffffffffffffffffffff5d576e7357a4501ddfe92f46681b20a083111561495a57506000905060036149de565b6040805160008082526020820180845289905260ff881692820192909252606081018690526080810185905260019060a0016020604051602081039080840390855afa1580156149ae573d6000803e3d6000fd5b5050604051601f1901519150506001600160a01b0381166149d7576000600192509250506149de565b9150600090505b94509492505050565b60008160048111156149fb576149fb615cac565b1415614a045750565b6001816004811115614a1857614a18615cac565b1415614a665760405162461bcd60e51b815260206004820152601860248201527f45434453413a20696e76616c6964207369676e617475726500000000000000006044820152606401610cd6565b6002816004811115614a7a57614a7a615cac565b1415614ac85760405162461bcd60e51b815260206004820152601f60248201527f45434453413a20696e76616c6964207369676e6174757265206c656e677468006044820152606401610cd6565b6003816004811115614adc57614adc615cac565b14156115425760405162461bcd60e51b815260206004820152602260248201527f45434453413a20696e76616c6964207369676e6174757265202773272076616c604482015261756560f01b6064820152608401610cd6565b600080614b9d85600063a9059cbb8787604051602401614b6a9291906001600160a01b03929092168252602082015260400190565b6040516020818303038152906040529060e01b6020820180516001600160e01b0383818316178352505050506000614c68565b91509150818015614bc6575080511580614bc6575080806020019051810190614bc69190615415565b6117ec5760405162461bcd60e51b815260206004820152600f60248201526e1d1c985b9cd9995c8819985a5b1959608a1b6044820152606401610cd6565b6000614c228383604051806020016040528060008152506000614c68565b5090508061273a5760405162461bcd60e51b815260206004820152601360248201527211551217d514905394d1915497d19052531151606a1b6044820152606401610cd6565b6065546000906060906001600160a01b031615614d0d576065546040805180820182526002815261060f60f31b60208201529051633af85da960e11b81526001600160a01b03909216916375f0bb5291614cda918a918a918a918a916000918291829182918291903390600401615872565b600060405180830381600087803b158015614cf457600080fd5b505af1158015614d08573d6000803e3d6000fd5b505050505b606754604051635229073f60e01b81526001600160a01b0390911690635229073f90614d43908990899089908990600401615833565b600060405180830381600087803b158015614d5d57600080fd5b505af1158015614d71573d6000803e3d6000fd5b505050506040513d6000823e601f3d908101601f19168201604052614d999190810190615460565b60655491935091506001600160a01b0316156149de57606554604051631264e26d60e31b815261060f60f31b600482015283151560248201526001600160a01b0390911690639327136890604401600060405180830381600087803b158015614e0157600080fd5b505af1158015614e15573d6000803e3d6000fd5b5050505094509492505050565b600183019183908215614ea45791602002820160005b83821115614e7557835183826101000a81548160ff0219169083151502179055509260200192600101602081600001049283019260010302614e38565b8015614ea25782816101000a81549060ff0219169055600101602081600001049283019260010302614e75565b505b50614eb0929150614f46565b5090565b60405180608001604052806004906020820280368337509192915050565b828054614ede90615c22565b90600052602060002090601f016020900481019282614f005760008555614ea4565b82601f10614f1957805160ff1916838001178555614ea4565b82800160010185558215614ea4579182015b82811115614ea4578251825591602001919060010190614f2b565b5b80821115614eb05760008155600101614f47565b6000614f6e614f6984615b33565b615b03565b9050828152838383011115614f8257600080fd5b61195d836020830184615bf2565b8035614f9b81615cee565b919050565b60008083601f840112614fb257600080fd5b5081356001600160401b03811115614fc957600080fd5b6020830191508360208260051b8501011115614fe457600080fd5b9250929050565b60008083601f840112614ffd57600080fd5b5081356001600160401b0381111561501457600080fd5b602083019150836020828501011115614fe457600080fd5b600082601f83011261503d57600080fd5b813561504b614f6982615b33565b81815284602083860101111561506057600080fd5b816020850160208301376000918101602001919091529392505050565b600082601f83011261508e57600080fd5b61195d83835160208501614f5b565b6000602082840312156150af57600080fd5b813561195d81615cee565b60008060008060008060c087890312156150d357600080fd5b86516150de81615cee565b60208801519096506150ef81615cee565b604088015190955061510081615cee565b606088015190945061511181615cee565b608088015190935061512281615cee565b60a08801519092506001600160401b0381111561513e57600080fd5b61514a89828a0161507d565b9150509295509295509295565b6000806000806060858703121561516d57600080fd5b843561517881615cee565b93506020850135925060408501356001600160401b0381111561519a57600080fd5b6151a687828801614feb565b95989497509550505050565b6000806000806000608086880312156151ca57600080fd5b85356151d581615cee565b9450602086013593506040860135925060608601356001600160401b038111156151fe57600080fd5b61520a88828901614fa0565b969995985093965092949392505050565b600080600080600080600080610100898b03121561523857600080fd5b883561524381615cee565b97506020890135965060408901359550606089013561526181615d11565b9450608089013561527181615d03565b935060a089013560ff8116811461528757600080fd5b979a969950949793969295929450505060c08201359160e0013590565b600080604083850312156152b757600080fd5b82356152c281615cee565b915060208301356152d281615d11565b809150509250929050565b600080600080604085870312156152f357600080fd5b84356001600160401b038082111561530a57600080fd5b61531688838901614fa0565b9096509450602087013591508082111561532f57600080fd5b506151a687828801614fa0565b6000806040838503121561534f57600080fd5b82356001600160401b038082111561536657600080fd5b818501915085601f83011261537a57600080fd5b813560208282111561538e5761538e615cd8565b8160051b61539d828201615b03565b8381528281019086840183880185018c10156153b857600080fd5b60009350835b868110156153f5578135888111156153d4578586fd5b6153e28e88838d010161502c565b85525092850192908501906001016153be565b5050809850505050615408818801614f90565b9450505050509250929050565b60006020828403121561542757600080fd5b815161195d81615d03565b6000806040838503121561544557600080fd5b823561545081615d03565b915060208301356152d281615d03565b6000806040838503121561547357600080fd5b825161547e81615d03565b60208401519092506001600160401b0381111561549a57600080fd5b6154a68582860161507d565b9150509250929050565b600080600080600080608087890312156154c957600080fd5b86356001600160401b03808211156154e057600080fd5b6154ec8a838b01614feb565b90985096506020890135915061550182615d11565b909450604088013593506060880135908082111561551e57600080fd5b5061552b89828a01614feb565b979a9699509497509295939492505050565b60006020828403121561554f57600080fd5b81356001600160401b0381111561556557600080fd5b6144a28482850161502c565b60006020828403121561558357600080fd5b81516001600160401b0381111561559957600080fd5b8201601f810184136155aa57600080fd5b6144a284825160208401614f5b565b6000602082840312156155cb57600080fd5b5035919050565b6000602082840312156155e457600080fd5b5051919050565b6000602082840312156155fd57600080fd5b813561195d81615d11565b6000806040838503121561561b57600080fd5b823561545081615d11565b60008060006040848603121561563b57600080fd5b833561564681615d11565b925060208401356001600160401b0381111561566157600080fd5b61566d86828701614feb565b9497909650939450505050565b60008060008060008060c0878903121561569357600080fd5b865161569e81615d11565b60208801519096506156af81615d11565b6040880151606089015160808a015160a0909a0151989b929a5090989097909650945092505050565b81835281816020850137506000828201602090810191909152601f909101601f19169091010190565b60008151808452615719816020860160208601615bf2565b601f01601f19169290920160200192915050565b6002811061573d5761573d615cac565b9052565b8183823760009101908152919050565b60008251615763818460208701615bf2565b9190910192915050565b6000875161577f818460208c01615bf2565b808301905060ff60f81b8860f81b1681526bffffffffffffffffffffffff198760601b16600182015285601582015284603582015283516157c7816055840160208801615bf2565b0160550198975050505050505050565b6001600160a01b038381168252604060208084018290528451918401829052600092858201929091906060860190855b81811015615825578551851683529483019491830191600101615807565b509098975050505050505050565b60018060a01b038516815283602082015260806040820152600061585a6080830185615701565b9050615869606083018461572d565b95945050505050565b6001600160a01b038c81168252602082018c90526101606040830181905260009161589f8483018e615701565b91506158ae606085018d61572d565b8a60808501528960a08501528860c085015280881660e08501528087166101008501528382036101208501526158e48287615701565b925080851661014085015250509c9b505050505050505050505050565b60808101818360005b600481101561592b578151151583526020928301929091019060010161590a565b50505092915050565b60006101808e151583528d1515602084015263ffffffff808e166040850152808d166060850152508a60808401528960a08401528860c08401528760e08401528061010084015261598781840188615701565b905082810361012084015261599c8187615701565b610140840195909552505061016001529a9950505050505050505050565b60208152600061195d6020830184615701565b60208101600883106159e1576159e1615cac565b91905290565b602080825260059082015264085898585b60da1b604082015260600190565b6020808252600d908201526c2161727261792070617269747960981b604082015260600190565b6020808252602b908201527f496e697469616c697a61626c653a20636f6e7472616374206973206e6f74206960408201526a6e697469616c697a696e6760a81b606082015260800190565b60208082526010908201526f10b130b0b610131010b6b0b730b3b2b960811b604082015260600190565b600063ffffffff808c16835260e06020840152615ac360e084018b8d6156d8565b818a16604085015288606085015287151560808501528660a085015283810360c0850152615af28186886156d8565b9d9c50505050505050505050505050565b604051601f8201601f191681016001600160401b0381118282101715615b2b57615b2b615cd8565b604052919050565b60006001600160401b03821115615b4c57615b4c615cd8565b50601f01601f191660200190565b60008219821115615b6d57615b6d615c96565b500190565b600063ffffffff808316818516808303821115615b9157615b91615c96565b01949350505050565b600082615bb757634e487b7160e01b600052601260045260246000fd5b500490565b6000816000190483118215151615615bd657615bd6615c96565b500290565b600082821015615bed57615bed615c96565b500390565b60005b83811015615c0d578181015183820152602001615bf5565b83811115615c1c576000848401525b50505050565b600181811c90821680615c3657607f821691505b60208210811415613da357634e487b7160e01b600052602260045260246000fd5b6000600019821415615c6b57615c6b615c96565b5060010190565b600063ffffffff80831681811415615c8c57615c8c615c96565b6001019392505050565b634e487b7160e01b600052601160045260246000fd5b634e487b7160e01b600052602160045260246000fd5b634e487b7160e01b600052603260045260246000fd5b634e487b7160e01b600052604160045260246000fd5b6001600160a01b038116811461154257600080fd5b801515811461154257600080fd5b63ffffffff8116811461154257600080fdfe322e322e352b6f70656e67736e2e70617961626c65776974686261616c2e6972656c6179726563697069656e74a2646970667358221220178cefb04e476abe5af61c5f7db34d2c912defb38857ba62ff0b25f75ad3c9ac64736f6c63430008070033",
      "history": [
        {
          "address": "0x17234C0Ae25AF09fAf57B9D5ea2B93C1f220E800",
          "abi": [
            {
              "inputs": [],
              "stateMutability": "nonpayable",
              "type": "constructor"
            },
            {
              "inputs": [
                {
                  "internalType": "address",
                  "name": "guard_",
                  "type": "address"
                }
              ],
              "name": "NotIERC165Compliant",
              "type": "error"
            },
            {
              "anonymous": false,
              "inputs": [
                {
                  "indexed": true,
                  "internalType": "address",
                  "name": "owner",
                  "type": "address"
                },
                {
                  "indexed": true,
                  "internalType": "address",
                  "name": "spender",
                  "type": "address"
                },
                {
                  "indexed": false,
                  "internalType": "uint256",
                  "name": "amount",
                  "type": "uint256"
                }
              ],
              "name": "Approval",
              "type": "event"
            },
            {
              "anonymous": false,
              "inputs": [
                {
                  "indexed": true,
                  "internalType": "address",
                  "name": "previousAvatar",
                  "type": "address"
                },
                {
                  "indexed": true,
                  "internalType": "address",
                  "name": "newAvatar",
                  "type": "address"
                }
              ],
              "name": "AvatarSet",
              "type": "event"
            },
            {
              "anonymous": false,
              "inputs": [
                {
                  "indexed": true,
                  "internalType": "uint256",
                  "name": "proposal",
                  "type": "uint256"
                }
              ],
              "name": "CancelProposal",
              "type": "event"
            },
            {
              "anonymous": false,
              "inputs": [
                {
                  "indexed": false,
                  "internalType": "address",
                  "name": "guard",
                  "type": "address"
                }
              ],
              "name": "ChangedGuard",
              "type": "event"
            },
            {
              "anonymous": false,
              "inputs": [
                {
                  "indexed": false,
                  "internalType": "uint32",
                  "name": "voting",
                  "type": "uint32"
                },
                {
                  "indexed": false,
                  "internalType": "uint32",
                  "name": "grace",
                  "type": "uint32"
                },
                {
                  "indexed": false,
                  "internalType": "uint256",
                  "name": "newOffering",
                  "type": "uint256"
                },
                {
                  "indexed": false,
                  "internalType": "uint256",
                  "name": "quorum",
                  "type": "uint256"
                },
                {
                  "indexed": false,
                  "internalType": "uint256",
                  "name": "sponsor",
                  "type": "uint256"
                },
                {
                  "indexed": false,
                  "internalType": "uint256",
                  "name": "minRetention",
                  "type": "uint256"
                }
              ],
              "name": "GovernanceConfigSet",
              "type": "event"
            },
            {
              "anonymous": false,
              "inputs": [
                {
                  "indexed": false,
                  "internalType": "uint8",
                  "name": "version",
                  "type": "uint8"
                }
              ],
              "name": "Initialized",
              "type": "event"
            },
            {
              "anonymous": false,
              "inputs": [
                {
                  "indexed": false,
                  "internalType": "bool",
                  "name": "adminLock",
                  "type": "bool"
                }
              ],
              "name": "LockAdmin",
              "type": "event"
            },
            {
              "anonymous": false,
              "inputs": [
                {
                  "indexed": false,
                  "internalType": "bool",
                  "name": "governorLock",
                  "type": "bool"
                }
              ],
              "name": "LockGovernor",
              "type": "event"
            },
            {
              "anonymous": false,
              "inputs": [
                {
                  "indexed": false,
                  "internalType": "bool",
                  "name": "managerLock",
                  "type": "bool"
                }
              ],
              "name": "LockManager",
              "type": "event"
            },
            {
              "anonymous": false,
              "inputs": [
                {
                  "indexed": false,
                  "internalType": "bool",
                  "name": "paused",
                  "type": "bool"
                }
              ],
              "name": "LootPaused",
              "type": "event"
            },
            {
              "anonymous": false,
              "inputs": [
                {
                  "indexed": true,
                  "internalType": "address",
                  "name": "previousOwner",
                  "type": "address"
                },
                {
                  "indexed": true,
                  "internalType": "address",
                  "name": "newOwner",
                  "type": "address"
                }
              ],
              "name": "OwnershipTransferred",
              "type": "event"
            },
            {
              "anonymous": false,
              "inputs": [
                {
                  "indexed": true,
                  "internalType": "uint256",
                  "name": "proposal",
                  "type": "uint256"
                },
                {
                  "indexed": false,
                  "internalType": "bool",
                  "name": "passed",
                  "type": "bool"
                },
                {
                  "indexed": false,
                  "internalType": "bool",
                  "name": "actionFailed",
                  "type": "bool"
                }
              ],
              "name": "ProcessProposal",
              "type": "event"
            },
            {
              "anonymous": false,
              "inputs": [
                {
                  "indexed": true,
                  "internalType": "address",
                  "name": "member",
                  "type": "address"
                },
                {
                  "indexed": false,
                  "internalType": "address",
                  "name": "to",
                  "type": "address"
                },
                {
                  "indexed": true,
                  "internalType": "uint256",
                  "name": "lootToBurn",
                  "type": "uint256"
                },
                {
                  "indexed": true,
                  "internalType": "uint256",
                  "name": "sharesToBurn",
                  "type": "uint256"
                },
                {
                  "indexed": false,
                  "internalType": "address[]",
                  "name": "tokens",
                  "type": "address[]"
                }
              ],
              "name": "Ragequit",
              "type": "event"
            },
            {
              "anonymous": false,
              "inputs": [
                {
                  "indexed": true,
                  "internalType": "address",
                  "name": "forwarder",
                  "type": "address"
                }
              ],
              "name": "SetTrustedForwarder",
              "type": "event"
            },
            {
              "anonymous": false,
              "inputs": [
                {
                  "indexed": false,
                  "internalType": "bool",
                  "name": "lootPaused",
                  "type": "bool"
                },
                {
                  "indexed": false,
                  "internalType": "bool",
                  "name": "sharesPaused",
                  "type": "bool"
                },
                {
                  "indexed": false,
                  "internalType": "uint32",
                  "name": "gracePeriod",
                  "type": "uint32"
                },
                {
                  "indexed": false,
                  "internalType": "uint32",
                  "name": "votingPeriod",
                  "type": "uint32"
                },
                {
                  "indexed": false,
                  "internalType": "uint256",
                  "name": "proposalOffering",
                  "type": "uint256"
                },
                {
                  "indexed": false,
                  "internalType": "uint256",
                  "name": "quorumPercent",
                  "type": "uint256"
                },
                {
                  "indexed": false,
                  "internalType": "uint256",
                  "name": "sponsorThreshold",
                  "type": "uint256"
                },
                {
                  "indexed": false,
                  "internalType": "uint256",
                  "name": "minRetentionPercent",
                  "type": "uint256"
                },
                {
                  "indexed": false,
                  "internalType": "string",
                  "name": "name",
                  "type": "string"
                },
                {
                  "indexed": false,
                  "internalType": "string",
                  "name": "symbol",
                  "type": "string"
                },
                {
                  "indexed": false,
                  "internalType": "uint256",
                  "name": "totalShares",
                  "type": "uint256"
                },
                {
                  "indexed": false,
                  "internalType": "uint256",
                  "name": "totalLoot",
                  "type": "uint256"
                }
              ],
              "name": "SetupComplete",
              "type": "event"
            },
            {
              "anonymous": false,
              "inputs": [
                {
                  "indexed": true,
                  "internalType": "address",
                  "name": "shaman",
                  "type": "address"
                },
                {
                  "indexed": false,
                  "internalType": "uint256",
                  "name": "permission",
                  "type": "uint256"
                }
              ],
              "name": "ShamanSet",
              "type": "event"
            },
            {
              "anonymous": false,
              "inputs": [
                {
                  "indexed": false,
                  "internalType": "bool",
                  "name": "paused",
                  "type": "bool"
                }
              ],
              "name": "SharesPaused",
              "type": "event"
            },
            {
              "anonymous": false,
              "inputs": [
                {
                  "indexed": true,
                  "internalType": "address",
                  "name": "member",
                  "type": "address"
                },
                {
                  "indexed": true,
                  "internalType": "uint256",
                  "name": "proposal",
                  "type": "uint256"
                },
                {
                  "indexed": true,
                  "internalType": "uint256",
                  "name": "votingStarts",
                  "type": "uint256"
                }
              ],
              "name": "SponsorProposal",
              "type": "event"
            },
            {
              "anonymous": false,
              "inputs": [
                {
                  "indexed": true,
                  "internalType": "uint256",
                  "name": "proposal",
                  "type": "uint256"
                },
                {
                  "indexed": true,
                  "internalType": "bytes32",
                  "name": "proposalDataHash",
                  "type": "bytes32"
                },
                {
                  "indexed": false,
                  "internalType": "uint256",
                  "name": "votingPeriod",
                  "type": "uint256"
                },
                {
                  "indexed": false,
                  "internalType": "bytes",
                  "name": "proposalData",
                  "type": "bytes"
                },
                {
                  "indexed": false,
                  "internalType": "uint256",
                  "name": "expiration",
                  "type": "uint256"
                },
                {
                  "indexed": false,
                  "internalType": "uint256",
                  "name": "baalGas",
                  "type": "uint256"
                },
                {
                  "indexed": false,
                  "internalType": "bool",
                  "name": "selfSponsor",
                  "type": "bool"
                },
                {
                  "indexed": false,
                  "internalType": "uint256",
                  "name": "timestamp",
                  "type": "uint256"
                },
                {
                  "indexed": false,
                  "internalType": "string",
                  "name": "details",
                  "type": "string"
                }
              ],
              "name": "SubmitProposal",
              "type": "event"
            },
            {
              "anonymous": false,
              "inputs": [
                {
                  "indexed": true,
                  "internalType": "address",
                  "name": "member",
                  "type": "address"
                },
                {
                  "indexed": false,
                  "internalType": "uint256",
                  "name": "balance",
                  "type": "uint256"
                },
                {
                  "indexed": true,
                  "internalType": "uint256",
                  "name": "proposal",
                  "type": "uint256"
                },
                {
                  "indexed": true,
                  "internalType": "bool",
                  "name": "approved",
                  "type": "bool"
                }
              ],
              "name": "SubmitVote",
              "type": "event"
            },
            {
              "anonymous": false,
              "inputs": [
                {
                  "indexed": true,
                  "internalType": "address",
                  "name": "previousTarget",
                  "type": "address"
                },
                {
                  "indexed": true,
                  "internalType": "address",
                  "name": "newTarget",
                  "type": "address"
                }
              ],
              "name": "TargetSet",
              "type": "event"
            },
            {
              "inputs": [],
              "name": "adminLock",
              "outputs": [
                {
                  "internalType": "bool",
                  "name": "",
                  "type": "bool"
                }
              ],
              "stateMutability": "view",
              "type": "function"
            },
            {
              "inputs": [],
              "name": "avatar",
              "outputs": [
                {
                  "internalType": "address",
                  "name": "",
                  "type": "address"
                }
              ],
              "stateMutability": "view",
              "type": "function"
            },
            {
              "inputs": [
                {
                  "internalType": "address[]",
                  "name": "from",
                  "type": "address[]"
                },
                {
                  "internalType": "uint256[]",
                  "name": "amount",
                  "type": "uint256[]"
                }
              ],
              "name": "burnLoot",
              "outputs": [],
              "stateMutability": "nonpayable",
              "type": "function"
            },
            {
              "inputs": [
                {
                  "internalType": "address[]",
                  "name": "from",
                  "type": "address[]"
                },
                {
                  "internalType": "uint256[]",
                  "name": "amount",
                  "type": "uint256[]"
                }
              ],
              "name": "burnShares",
              "outputs": [],
              "stateMutability": "nonpayable",
              "type": "function"
            },
            {
              "inputs": [
                {
                  "internalType": "uint32",
                  "name": "id",
                  "type": "uint32"
                }
              ],
              "name": "cancelProposal",
              "outputs": [],
              "stateMutability": "nonpayable",
              "type": "function"
            },
            {
              "inputs": [
                {
                  "internalType": "bytes[]",
                  "name": "_calls",
                  "type": "bytes[]"
                },
                {
                  "internalType": "address",
                  "name": "_target",
                  "type": "address"
                }
              ],
              "name": "encodeMultisend",
              "outputs": [
                {
                  "internalType": "bytes",
                  "name": "encodedMultisend",
                  "type": "bytes"
                }
              ],
              "stateMutability": "pure",
              "type": "function"
            },
            {
              "inputs": [
                {
                  "internalType": "address",
                  "name": "_to",
                  "type": "address"
                },
                {
                  "internalType": "uint256",
                  "name": "_value",
                  "type": "uint256"
                },
                {
                  "internalType": "bytes",
                  "name": "_data",
                  "type": "bytes"
                }
              ],
              "name": "executeAsBaal",
              "outputs": [],
              "stateMutability": "nonpayable",
              "type": "function"
            },
            {
              "inputs": [],
              "name": "getGuard",
              "outputs": [
                {
                  "internalType": "address",
                  "name": "_guard",
                  "type": "address"
                }
              ],
              "stateMutability": "view",
              "type": "function"
            },
            {
              "inputs": [
                {
                  "internalType": "uint32",
                  "name": "id",
                  "type": "uint32"
                }
              ],
              "name": "getProposalStatus",
              "outputs": [
                {
                  "internalType": "bool[4]",
                  "name": "",
                  "type": "bool[4]"
                }
              ],
              "stateMutability": "view",
              "type": "function"
            },
            {
              "inputs": [],
              "name": "governorLock",
              "outputs": [
                {
                  "internalType": "bool",
                  "name": "",
                  "type": "bool"
                }
              ],
              "stateMutability": "view",
              "type": "function"
            },
            {
              "inputs": [],
              "name": "gracePeriod",
              "outputs": [
                {
                  "internalType": "uint32",
                  "name": "",
                  "type": "uint32"
                }
              ],
              "stateMutability": "view",
              "type": "function"
            },
            {
              "inputs": [],
              "name": "guard",
              "outputs": [
                {
                  "internalType": "address",
                  "name": "",
                  "type": "address"
                }
              ],
              "stateMutability": "view",
              "type": "function"
            },
            {
              "inputs": [
                {
                  "internalType": "bytes",
                  "name": "_transactions",
                  "type": "bytes"
                }
              ],
              "name": "hashOperation",
              "outputs": [
                {
                  "internalType": "bytes32",
                  "name": "hash",
                  "type": "bytes32"
                }
              ],
              "stateMutability": "pure",
              "type": "function"
            },
            {
              "inputs": [
                {
                  "internalType": "address",
                  "name": "shaman",
                  "type": "address"
                }
              ],
              "name": "isAdmin",
              "outputs": [
                {
                  "internalType": "bool",
                  "name": "",
                  "type": "bool"
                }
              ],
              "stateMutability": "view",
              "type": "function"
            },
            {
              "inputs": [
                {
                  "internalType": "address",
                  "name": "shaman",
                  "type": "address"
                }
              ],
              "name": "isGovernor",
              "outputs": [
                {
                  "internalType": "bool",
                  "name": "",
                  "type": "bool"
                }
              ],
              "stateMutability": "view",
              "type": "function"
            },
            {
              "inputs": [
                {
                  "internalType": "address",
                  "name": "shaman",
                  "type": "address"
                }
              ],
              "name": "isManager",
              "outputs": [
                {
                  "internalType": "bool",
                  "name": "",
                  "type": "bool"
                }
              ],
              "stateMutability": "view",
              "type": "function"
            },
            {
              "inputs": [
                {
                  "internalType": "address",
                  "name": "forwarder",
                  "type": "address"
                }
              ],
              "name": "isTrustedForwarder",
              "outputs": [
                {
                  "internalType": "bool",
                  "name": "",
                  "type": "bool"
                }
              ],
              "stateMutability": "view",
              "type": "function"
            },
            {
              "inputs": [],
              "name": "latestSponsoredProposalId",
              "outputs": [
                {
                  "internalType": "uint32",
                  "name": "",
                  "type": "uint32"
                }
              ],
              "stateMutability": "view",
              "type": "function"
            },
            {
              "inputs": [],
              "name": "lockAdmin",
              "outputs": [],
              "stateMutability": "nonpayable",
              "type": "function"
            },
            {
              "inputs": [],
              "name": "lockGovernor",
              "outputs": [],
              "stateMutability": "nonpayable",
              "type": "function"
            },
            {
              "inputs": [],
              "name": "lockManager",
              "outputs": [],
              "stateMutability": "nonpayable",
              "type": "function"
            },
            {
              "inputs": [],
              "name": "lootToken",
              "outputs": [
                {
                  "internalType": "contract IBaalToken",
                  "name": "",
                  "type": "address"
                }
              ],
              "stateMutability": "view",
              "type": "function"
            },
            {
              "inputs": [],
              "name": "managerLock",
              "outputs": [
                {
                  "internalType": "bool",
                  "name": "",
                  "type": "bool"
                }
              ],
              "stateMutability": "view",
              "type": "function"
            },
            {
              "inputs": [
                {
                  "internalType": "address",
                  "name": "",
                  "type": "address"
                },
                {
                  "internalType": "uint32",
                  "name": "",
                  "type": "uint32"
                }
              ],
              "name": "memberVoted",
              "outputs": [
                {
                  "internalType": "bool",
                  "name": "",
                  "type": "bool"
                }
              ],
              "stateMutability": "view",
              "type": "function"
            },
            {
              "inputs": [],
              "name": "minRetentionPercent",
              "outputs": [
                {
                  "internalType": "uint256",
                  "name": "",
                  "type": "uint256"
                }
              ],
              "stateMutability": "view",
              "type": "function"
            },
            {
              "inputs": [
                {
                  "internalType": "address[]",
                  "name": "to",
                  "type": "address[]"
                },
                {
                  "internalType": "uint256[]",
                  "name": "amount",
                  "type": "uint256[]"
                }
              ],
              "name": "mintLoot",
              "outputs": [],
              "stateMutability": "nonpayable",
              "type": "function"
            },
            {
              "inputs": [
                {
                  "internalType": "address[]",
                  "name": "to",
                  "type": "address[]"
                },
                {
                  "internalType": "uint256[]",
                  "name": "amount",
                  "type": "uint256[]"
                }
              ],
              "name": "mintShares",
              "outputs": [],
              "stateMutability": "nonpayable",
              "type": "function"
            },
            {
              "inputs": [],
              "name": "multisendLibrary",
              "outputs": [
                {
                  "internalType": "address",
                  "name": "",
                  "type": "address"
                }
              ],
              "stateMutability": "view",
              "type": "function"
            },
            {
              "inputs": [],
              "name": "owner",
              "outputs": [
                {
                  "internalType": "address",
                  "name": "",
                  "type": "address"
                }
              ],
              "stateMutability": "view",
              "type": "function"
            },
            {
              "inputs": [
                {
                  "internalType": "uint32",
                  "name": "id",
                  "type": "uint32"
                },
                {
                  "internalType": "bytes",
                  "name": "proposalData",
                  "type": "bytes"
                }
              ],
              "name": "processProposal",
              "outputs": [],
              "stateMutability": "nonpayable",
              "type": "function"
            },
            {
              "inputs": [],
              "name": "proposalCount",
              "outputs": [
                {
                  "internalType": "uint32",
                  "name": "",
                  "type": "uint32"
                }
              ],
              "stateMutability": "view",
              "type": "function"
            },
            {
              "inputs": [],
              "name": "proposalOffering",
              "outputs": [
                {
                  "internalType": "uint256",
                  "name": "",
                  "type": "uint256"
                }
              ],
              "stateMutability": "view",
              "type": "function"
            },
            {
              "inputs": [
                {
                  "internalType": "uint256",
                  "name": "",
                  "type": "uint256"
                }
              ],
              "name": "proposals",
              "outputs": [
                {
                  "internalType": "uint32",
                  "name": "id",
                  "type": "uint32"
                },
                {
                  "internalType": "uint32",
                  "name": "prevProposalId",
                  "type": "uint32"
                },
                {
                  "internalType": "uint32",
                  "name": "votingStarts",
                  "type": "uint32"
                },
                {
                  "internalType": "uint32",
                  "name": "votingEnds",
                  "type": "uint32"
                },
                {
                  "internalType": "uint32",
                  "name": "graceEnds",
                  "type": "uint32"
                },
                {
                  "internalType": "uint32",
                  "name": "expiration",
                  "type": "uint32"
                },
                {
                  "internalType": "uint256",
                  "name": "baalGas",
                  "type": "uint256"
                },
                {
                  "internalType": "uint256",
                  "name": "yesVotes",
                  "type": "uint256"
                },
                {
                  "internalType": "uint256",
                  "name": "noVotes",
                  "type": "uint256"
                },
                {
                  "internalType": "uint256",
                  "name": "maxTotalSharesAndLootAtVote",
                  "type": "uint256"
                },
                {
                  "internalType": "address",
                  "name": "sponsor",
                  "type": "address"
                },
                {
                  "internalType": "bytes32",
                  "name": "proposalDataHash",
                  "type": "bytes32"
                }
              ],
              "stateMutability": "view",
              "type": "function"
            },
            {
              "inputs": [],
              "name": "quorumPercent",
              "outputs": [
                {
                  "internalType": "uint256",
                  "name": "",
                  "type": "uint256"
                }
              ],
              "stateMutability": "view",
              "type": "function"
            },
            {
              "inputs": [
                {
                  "internalType": "address",
                  "name": "to",
                  "type": "address"
                },
                {
                  "internalType": "uint256",
                  "name": "sharesToBurn",
                  "type": "uint256"
                },
                {
                  "internalType": "uint256",
                  "name": "lootToBurn",
                  "type": "uint256"
                },
                {
                  "internalType": "address[]",
                  "name": "tokens",
                  "type": "address[]"
                }
              ],
              "name": "ragequit",
              "outputs": [],
              "stateMutability": "nonpayable",
              "type": "function"
            },
            {
              "inputs": [],
              "name": "renounceOwnership",
              "outputs": [],
              "stateMutability": "nonpayable",
              "type": "function"
            },
            {
              "inputs": [
                {
                  "internalType": "bool",
                  "name": "pauseShares",
                  "type": "bool"
                },
                {
                  "internalType": "bool",
                  "name": "pauseLoot",
                  "type": "bool"
                }
              ],
              "name": "setAdminConfig",
              "outputs": [],
              "stateMutability": "nonpayable",
              "type": "function"
            },
            {
              "inputs": [
                {
                  "internalType": "address",
                  "name": "_avatar",
                  "type": "address"
                }
              ],
              "name": "setAvatar",
              "outputs": [],
              "stateMutability": "nonpayable",
              "type": "function"
            },
            {
              "inputs": [
                {
                  "internalType": "bytes",
                  "name": "_governanceConfig",
                  "type": "bytes"
                }
              ],
              "name": "setGovernanceConfig",
              "outputs": [],
              "stateMutability": "nonpayable",
              "type": "function"
            },
            {
              "inputs": [
                {
                  "internalType": "address",
                  "name": "_guard",
                  "type": "address"
                }
              ],
              "name": "setGuard",
              "outputs": [],
              "stateMutability": "nonpayable",
              "type": "function"
            },
            {
              "inputs": [
                {
                  "internalType": "address[]",
                  "name": "_shamans",
                  "type": "address[]"
                },
                {
                  "internalType": "uint256[]",
                  "name": "_permissions",
                  "type": "uint256[]"
                }
              ],
              "name": "setShamans",
              "outputs": [],
              "stateMutability": "nonpayable",
              "type": "function"
            },
            {
              "inputs": [
                {
                  "internalType": "address",
                  "name": "_target",
                  "type": "address"
                }
              ],
              "name": "setTarget",
              "outputs": [],
              "stateMutability": "nonpayable",
              "type": "function"
            },
            {
              "inputs": [
                {
                  "internalType": "address",
                  "name": "_trustedForwarderAddress",
                  "type": "address"
                }
              ],
              "name": "setTrustedForwarder",
              "outputs": [],
              "stateMutability": "nonpayable",
              "type": "function"
            },
            {
              "inputs": [
                {
                  "internalType": "bytes",
                  "name": "_initializationParams",
                  "type": "bytes"
                }
              ],
              "name": "setUp",
              "outputs": [],
              "stateMutability": "nonpayable",
              "type": "function"
            },
            {
              "inputs": [
                {
                  "internalType": "address",
                  "name": "",
                  "type": "address"
                }
              ],
              "name": "shamans",
              "outputs": [
                {
                  "internalType": "uint256",
                  "name": "",
                  "type": "uint256"
                }
              ],
              "stateMutability": "view",
              "type": "function"
            },
            {
              "inputs": [],
              "name": "sharesToken",
              "outputs": [
                {
                  "internalType": "contract IBaalToken",
                  "name": "",
                  "type": "address"
                }
              ],
              "stateMutability": "view",
              "type": "function"
            },
            {
              "inputs": [
                {
                  "internalType": "uint32",
                  "name": "id",
                  "type": "uint32"
                }
              ],
              "name": "sponsorProposal",
              "outputs": [],
              "stateMutability": "nonpayable",
              "type": "function"
            },
            {
              "inputs": [],
              "name": "sponsorThreshold",
              "outputs": [
                {
                  "internalType": "uint256",
                  "name": "",
                  "type": "uint256"
                }
              ],
              "stateMutability": "view",
              "type": "function"
            },
            {
              "inputs": [
                {
                  "internalType": "uint32",
                  "name": "id",
                  "type": "uint32"
                }
              ],
              "name": "state",
              "outputs": [
                {
                  "internalType": "enum Baal.ProposalState",
                  "name": "",
                  "type": "uint8"
                }
              ],
              "stateMutability": "view",
              "type": "function"
            },
            {
              "inputs": [
                {
                  "internalType": "bytes",
                  "name": "proposalData",
                  "type": "bytes"
                },
                {
                  "internalType": "uint32",
                  "name": "expiration",
                  "type": "uint32"
                },
                {
                  "internalType": "uint256",
                  "name": "baalGas",
                  "type": "uint256"
                },
                {
                  "internalType": "string",
                  "name": "details",
                  "type": "string"
                }
              ],
              "name": "submitProposal",
              "outputs": [
                {
                  "internalType": "uint256",
                  "name": "",
                  "type": "uint256"
                }
              ],
              "stateMutability": "payable",
              "type": "function"
            },
            {
              "inputs": [
                {
                  "internalType": "uint32",
                  "name": "id",
                  "type": "uint32"
                },
                {
                  "internalType": "bool",
                  "name": "approved",
                  "type": "bool"
                }
              ],
              "name": "submitVote",
              "outputs": [],
              "stateMutability": "nonpayable",
              "type": "function"
            },
            {
              "inputs": [
                {
                  "internalType": "address",
                  "name": "voter",
                  "type": "address"
                },
                {
                  "internalType": "uint256",
                  "name": "expiry",
                  "type": "uint256"
                },
                {
                  "internalType": "uint256",
                  "name": "nonce",
                  "type": "uint256"
                },
                {
                  "internalType": "uint32",
                  "name": "id",
                  "type": "uint32"
                },
                {
                  "internalType": "bool",
                  "name": "approved",
                  "type": "bool"
                },
                {
                  "internalType": "uint8",
                  "name": "v",
                  "type": "uint8"
                },
                {
                  "internalType": "bytes32",
                  "name": "r",
                  "type": "bytes32"
                },
                {
                  "internalType": "bytes32",
                  "name": "s",
                  "type": "bytes32"
                }
              ],
              "name": "submitVoteWithSig",
              "outputs": [],
              "stateMutability": "nonpayable",
              "type": "function"
            },
            {
              "inputs": [],
              "name": "target",
              "outputs": [
                {
                  "internalType": "address",
                  "name": "",
                  "type": "address"
                }
              ],
              "stateMutability": "view",
              "type": "function"
            },
            {
              "inputs": [],
              "name": "totalLoot",
              "outputs": [
                {
                  "internalType": "uint256",
                  "name": "",
                  "type": "uint256"
                }
              ],
              "stateMutability": "view",
              "type": "function"
            },
            {
              "inputs": [],
              "name": "totalShares",
              "outputs": [
                {
                  "internalType": "uint256",
                  "name": "",
                  "type": "uint256"
                }
              ],
              "stateMutability": "view",
              "type": "function"
            },
            {
              "inputs": [],
              "name": "totalSupply",
              "outputs": [
                {
                  "internalType": "uint256",
                  "name": "",
                  "type": "uint256"
                }
              ],
              "stateMutability": "view",
              "type": "function"
            },
            {
              "inputs": [
                {
                  "internalType": "address",
                  "name": "newOwner",
                  "type": "address"
                }
              ],
              "name": "transferOwnership",
              "outputs": [],
              "stateMutability": "nonpayable",
              "type": "function"
            },
            {
              "inputs": [],
              "name": "trustedForwarder",
              "outputs": [
                {
                  "internalType": "address",
                  "name": "",
                  "type": "address"
                }
              ],
              "stateMutability": "view",
              "type": "function"
            },
            {
              "inputs": [],
              "name": "versionRecipient",
              "outputs": [
                {
                  "internalType": "string",
                  "name": "",
                  "type": "string"
                }
              ],
              "stateMutability": "view",
              "type": "function"
            },
            {
              "inputs": [
                {
                  "internalType": "address",
                  "name": "",
                  "type": "address"
                }
              ],
              "name": "votingNonces",
              "outputs": [
                {
                  "internalType": "uint256",
                  "name": "",
                  "type": "uint256"
                }
              ],
              "stateMutability": "view",
              "type": "function"
            },
            {
              "inputs": [],
              "name": "votingPeriod",
              "outputs": [
                {
                  "internalType": "uint32",
                  "name": "",
                  "type": "uint32"
                }
              ],
              "stateMutability": "view",
              "type": "function"
            }
          ],
          "args": [],
          "numDeployments": 2,
          "linkedData": {},
          "solcInputHash": "a128f2a31ecf0f1507d09c047cd019fe",
          "metadata": "{\"compiler\":{\"version\":\"0.8.7+commit.e28d00a7\"},\"language\":\"Solidity\",\"output\":{\"abi\":[{\"inputs\":[],\"stateMutability\":\"nonpayable\",\"type\":\"constructor\"},{\"inputs\":[{\"internalType\":\"address\",\"name\":\"guard_\",\"type\":\"address\"}],\"name\":\"NotIERC165Compliant\",\"type\":\"error\"},{\"anonymous\":false,\"inputs\":[{\"indexed\":true,\"internalType\":\"address\",\"name\":\"owner\",\"type\":\"address\"},{\"indexed\":true,\"internalType\":\"address\",\"name\":\"spender\",\"type\":\"address\"},{\"indexed\":false,\"internalType\":\"uint256\",\"name\":\"amount\",\"type\":\"uint256\"}],\"name\":\"Approval\",\"type\":\"event\"},{\"anonymous\":false,\"inputs\":[{\"indexed\":true,\"internalType\":\"address\",\"name\":\"previousAvatar\",\"type\":\"address\"},{\"indexed\":true,\"internalType\":\"address\",\"name\":\"newAvatar\",\"type\":\"address\"}],\"name\":\"AvatarSet\",\"type\":\"event\"},{\"anonymous\":false,\"inputs\":[{\"indexed\":true,\"internalType\":\"uint256\",\"name\":\"proposal\",\"type\":\"uint256\"}],\"name\":\"CancelProposal\",\"type\":\"event\"},{\"anonymous\":false,\"inputs\":[{\"indexed\":false,\"internalType\":\"address\",\"name\":\"guard\",\"type\":\"address\"}],\"name\":\"ChangedGuard\",\"type\":\"event\"},{\"anonymous\":false,\"inputs\":[{\"indexed\":false,\"internalType\":\"uint32\",\"name\":\"voting\",\"type\":\"uint32\"},{\"indexed\":false,\"internalType\":\"uint32\",\"name\":\"grace\",\"type\":\"uint32\"},{\"indexed\":false,\"internalType\":\"uint256\",\"name\":\"newOffering\",\"type\":\"uint256\"},{\"indexed\":false,\"internalType\":\"uint256\",\"name\":\"quorum\",\"type\":\"uint256\"},{\"indexed\":false,\"internalType\":\"uint256\",\"name\":\"sponsor\",\"type\":\"uint256\"},{\"indexed\":false,\"internalType\":\"uint256\",\"name\":\"minRetention\",\"type\":\"uint256\"}],\"name\":\"GovernanceConfigSet\",\"type\":\"event\"},{\"anonymous\":false,\"inputs\":[{\"indexed\":false,\"internalType\":\"uint8\",\"name\":\"version\",\"type\":\"uint8\"}],\"name\":\"Initialized\",\"type\":\"event\"},{\"anonymous\":false,\"inputs\":[{\"indexed\":false,\"internalType\":\"bool\",\"name\":\"adminLock\",\"type\":\"bool\"}],\"name\":\"LockAdmin\",\"type\":\"event\"},{\"anonymous\":false,\"inputs\":[{\"indexed\":false,\"internalType\":\"bool\",\"name\":\"governorLock\",\"type\":\"bool\"}],\"name\":\"LockGovernor\",\"type\":\"event\"},{\"anonymous\":false,\"inputs\":[{\"indexed\":false,\"internalType\":\"bool\",\"name\":\"managerLock\",\"type\":\"bool\"}],\"name\":\"LockManager\",\"type\":\"event\"},{\"anonymous\":false,\"inputs\":[{\"indexed\":false,\"internalType\":\"bool\",\"name\":\"paused\",\"type\":\"bool\"}],\"name\":\"LootPaused\",\"type\":\"event\"},{\"anonymous\":false,\"inputs\":[{\"indexed\":true,\"internalType\":\"address\",\"name\":\"previousOwner\",\"type\":\"address\"},{\"indexed\":true,\"internalType\":\"address\",\"name\":\"newOwner\",\"type\":\"address\"}],\"name\":\"OwnershipTransferred\",\"type\":\"event\"},{\"anonymous\":false,\"inputs\":[{\"indexed\":true,\"internalType\":\"uint256\",\"name\":\"proposal\",\"type\":\"uint256\"},{\"indexed\":false,\"internalType\":\"bool\",\"name\":\"passed\",\"type\":\"bool\"},{\"indexed\":false,\"internalType\":\"bool\",\"name\":\"actionFailed\",\"type\":\"bool\"}],\"name\":\"ProcessProposal\",\"type\":\"event\"},{\"anonymous\":false,\"inputs\":[{\"indexed\":true,\"internalType\":\"address\",\"name\":\"member\",\"type\":\"address\"},{\"indexed\":false,\"internalType\":\"address\",\"name\":\"to\",\"type\":\"address\"},{\"indexed\":true,\"internalType\":\"uint256\",\"name\":\"lootToBurn\",\"type\":\"uint256\"},{\"indexed\":true,\"internalType\":\"uint256\",\"name\":\"sharesToBurn\",\"type\":\"uint256\"},{\"indexed\":false,\"internalType\":\"address[]\",\"name\":\"tokens\",\"type\":\"address[]\"}],\"name\":\"Ragequit\",\"type\":\"event\"},{\"anonymous\":false,\"inputs\":[{\"indexed\":true,\"internalType\":\"address\",\"name\":\"forwarder\",\"type\":\"address\"}],\"name\":\"SetTrustedForwarder\",\"type\":\"event\"},{\"anonymous\":false,\"inputs\":[{\"indexed\":false,\"internalType\":\"bool\",\"name\":\"lootPaused\",\"type\":\"bool\"},{\"indexed\":false,\"internalType\":\"bool\",\"name\":\"sharesPaused\",\"type\":\"bool\"},{\"indexed\":false,\"internalType\":\"uint32\",\"name\":\"gracePeriod\",\"type\":\"uint32\"},{\"indexed\":false,\"internalType\":\"uint32\",\"name\":\"votingPeriod\",\"type\":\"uint32\"},{\"indexed\":false,\"internalType\":\"uint256\",\"name\":\"proposalOffering\",\"type\":\"uint256\"},{\"indexed\":false,\"internalType\":\"uint256\",\"name\":\"quorumPercent\",\"type\":\"uint256\"},{\"indexed\":false,\"internalType\":\"uint256\",\"name\":\"sponsorThreshold\",\"type\":\"uint256\"},{\"indexed\":false,\"internalType\":\"uint256\",\"name\":\"minRetentionPercent\",\"type\":\"uint256\"},{\"indexed\":false,\"internalType\":\"string\",\"name\":\"name\",\"type\":\"string\"},{\"indexed\":false,\"internalType\":\"string\",\"name\":\"symbol\",\"type\":\"string\"},{\"indexed\":false,\"internalType\":\"uint256\",\"name\":\"totalShares\",\"type\":\"uint256\"},{\"indexed\":false,\"internalType\":\"uint256\",\"name\":\"totalLoot\",\"type\":\"uint256\"}],\"name\":\"SetupComplete\",\"type\":\"event\"},{\"anonymous\":false,\"inputs\":[{\"indexed\":true,\"internalType\":\"address\",\"name\":\"shaman\",\"type\":\"address\"},{\"indexed\":false,\"internalType\":\"uint256\",\"name\":\"permission\",\"type\":\"uint256\"}],\"name\":\"ShamanSet\",\"type\":\"event\"},{\"anonymous\":false,\"inputs\":[{\"indexed\":false,\"internalType\":\"bool\",\"name\":\"paused\",\"type\":\"bool\"}],\"name\":\"SharesPaused\",\"type\":\"event\"},{\"anonymous\":false,\"inputs\":[{\"indexed\":true,\"internalType\":\"address\",\"name\":\"member\",\"type\":\"address\"},{\"indexed\":true,\"internalType\":\"uint256\",\"name\":\"proposal\",\"type\":\"uint256\"},{\"indexed\":true,\"internalType\":\"uint256\",\"name\":\"votingStarts\",\"type\":\"uint256\"}],\"name\":\"SponsorProposal\",\"type\":\"event\"},{\"anonymous\":false,\"inputs\":[{\"indexed\":true,\"internalType\":\"uint256\",\"name\":\"proposal\",\"type\":\"uint256\"},{\"indexed\":true,\"internalType\":\"bytes32\",\"name\":\"proposalDataHash\",\"type\":\"bytes32\"},{\"indexed\":false,\"internalType\":\"uint256\",\"name\":\"votingPeriod\",\"type\":\"uint256\"},{\"indexed\":false,\"internalType\":\"bytes\",\"name\":\"proposalData\",\"type\":\"bytes\"},{\"indexed\":false,\"internalType\":\"uint256\",\"name\":\"expiration\",\"type\":\"uint256\"},{\"indexed\":false,\"internalType\":\"uint256\",\"name\":\"baalGas\",\"type\":\"uint256\"},{\"indexed\":false,\"internalType\":\"bool\",\"name\":\"selfSponsor\",\"type\":\"bool\"},{\"indexed\":false,\"internalType\":\"uint256\",\"name\":\"timestamp\",\"type\":\"uint256\"},{\"indexed\":false,\"internalType\":\"string\",\"name\":\"details\",\"type\":\"string\"}],\"name\":\"SubmitProposal\",\"type\":\"event\"},{\"anonymous\":false,\"inputs\":[{\"indexed\":true,\"internalType\":\"address\",\"name\":\"member\",\"type\":\"address\"},{\"indexed\":false,\"internalType\":\"uint256\",\"name\":\"balance\",\"type\":\"uint256\"},{\"indexed\":true,\"internalType\":\"uint256\",\"name\":\"proposal\",\"type\":\"uint256\"},{\"indexed\":true,\"internalType\":\"bool\",\"name\":\"approved\",\"type\":\"bool\"}],\"name\":\"SubmitVote\",\"type\":\"event\"},{\"anonymous\":false,\"inputs\":[{\"indexed\":true,\"internalType\":\"address\",\"name\":\"previousTarget\",\"type\":\"address\"},{\"indexed\":true,\"internalType\":\"address\",\"name\":\"newTarget\",\"type\":\"address\"}],\"name\":\"TargetSet\",\"type\":\"event\"},{\"inputs\":[],\"name\":\"adminLock\",\"outputs\":[{\"internalType\":\"bool\",\"name\":\"\",\"type\":\"bool\"}],\"stateMutability\":\"view\",\"type\":\"function\"},{\"inputs\":[],\"name\":\"avatar\",\"outputs\":[{\"internalType\":\"address\",\"name\":\"\",\"type\":\"address\"}],\"stateMutability\":\"view\",\"type\":\"function\"},{\"inputs\":[{\"internalType\":\"address[]\",\"name\":\"from\",\"type\":\"address[]\"},{\"internalType\":\"uint256[]\",\"name\":\"amount\",\"type\":\"uint256[]\"}],\"name\":\"burnLoot\",\"outputs\":[],\"stateMutability\":\"nonpayable\",\"type\":\"function\"},{\"inputs\":[{\"internalType\":\"address[]\",\"name\":\"from\",\"type\":\"address[]\"},{\"internalType\":\"uint256[]\",\"name\":\"amount\",\"type\":\"uint256[]\"}],\"name\":\"burnShares\",\"outputs\":[],\"stateMutability\":\"nonpayable\",\"type\":\"function\"},{\"inputs\":[{\"internalType\":\"uint32\",\"name\":\"id\",\"type\":\"uint32\"}],\"name\":\"cancelProposal\",\"outputs\":[],\"stateMutability\":\"nonpayable\",\"type\":\"function\"},{\"inputs\":[{\"internalType\":\"bytes[]\",\"name\":\"_calls\",\"type\":\"bytes[]\"},{\"internalType\":\"address\",\"name\":\"_target\",\"type\":\"address\"}],\"name\":\"encodeMultisend\",\"outputs\":[{\"internalType\":\"bytes\",\"name\":\"encodedMultisend\",\"type\":\"bytes\"}],\"stateMutability\":\"pure\",\"type\":\"function\"},{\"inputs\":[{\"internalType\":\"address\",\"name\":\"_to\",\"type\":\"address\"},{\"internalType\":\"uint256\",\"name\":\"_value\",\"type\":\"uint256\"},{\"internalType\":\"bytes\",\"name\":\"_data\",\"type\":\"bytes\"}],\"name\":\"executeAsBaal\",\"outputs\":[],\"stateMutability\":\"nonpayable\",\"type\":\"function\"},{\"inputs\":[],\"name\":\"getGuard\",\"outputs\":[{\"internalType\":\"address\",\"name\":\"_guard\",\"type\":\"address\"}],\"stateMutability\":\"view\",\"type\":\"function\"},{\"inputs\":[{\"internalType\":\"uint32\",\"name\":\"id\",\"type\":\"uint32\"}],\"name\":\"getProposalStatus\",\"outputs\":[{\"internalType\":\"bool[4]\",\"name\":\"\",\"type\":\"bool[4]\"}],\"stateMutability\":\"view\",\"type\":\"function\"},{\"inputs\":[],\"name\":\"governorLock\",\"outputs\":[{\"internalType\":\"bool\",\"name\":\"\",\"type\":\"bool\"}],\"stateMutability\":\"view\",\"type\":\"function\"},{\"inputs\":[],\"name\":\"gracePeriod\",\"outputs\":[{\"internalType\":\"uint32\",\"name\":\"\",\"type\":\"uint32\"}],\"stateMutability\":\"view\",\"type\":\"function\"},{\"inputs\":[],\"name\":\"guard\",\"outputs\":[{\"internalType\":\"address\",\"name\":\"\",\"type\":\"address\"}],\"stateMutability\":\"view\",\"type\":\"function\"},{\"inputs\":[{\"internalType\":\"bytes\",\"name\":\"_transactions\",\"type\":\"bytes\"}],\"name\":\"hashOperation\",\"outputs\":[{\"internalType\":\"bytes32\",\"name\":\"hash\",\"type\":\"bytes32\"}],\"stateMutability\":\"pure\",\"type\":\"function\"},{\"inputs\":[{\"internalType\":\"address\",\"name\":\"shaman\",\"type\":\"address\"}],\"name\":\"isAdmin\",\"outputs\":[{\"internalType\":\"bool\",\"name\":\"\",\"type\":\"bool\"}],\"stateMutability\":\"view\",\"type\":\"function\"},{\"inputs\":[{\"internalType\":\"address\",\"name\":\"shaman\",\"type\":\"address\"}],\"name\":\"isGovernor\",\"outputs\":[{\"internalType\":\"bool\",\"name\":\"\",\"type\":\"bool\"}],\"stateMutability\":\"view\",\"type\":\"function\"},{\"inputs\":[{\"internalType\":\"address\",\"name\":\"shaman\",\"type\":\"address\"}],\"name\":\"isManager\",\"outputs\":[{\"internalType\":\"bool\",\"name\":\"\",\"type\":\"bool\"}],\"stateMutability\":\"view\",\"type\":\"function\"},{\"inputs\":[{\"internalType\":\"address\",\"name\":\"forwarder\",\"type\":\"address\"}],\"name\":\"isTrustedForwarder\",\"outputs\":[{\"internalType\":\"bool\",\"name\":\"\",\"type\":\"bool\"}],\"stateMutability\":\"view\",\"type\":\"function\"},{\"inputs\":[],\"name\":\"latestSponsoredProposalId\",\"outputs\":[{\"internalType\":\"uint32\",\"name\":\"\",\"type\":\"uint32\"}],\"stateMutability\":\"view\",\"type\":\"function\"},{\"inputs\":[],\"name\":\"lockAdmin\",\"outputs\":[],\"stateMutability\":\"nonpayable\",\"type\":\"function\"},{\"inputs\":[],\"name\":\"lockGovernor\",\"outputs\":[],\"stateMutability\":\"nonpayable\",\"type\":\"function\"},{\"inputs\":[],\"name\":\"lockManager\",\"outputs\":[],\"stateMutability\":\"nonpayable\",\"type\":\"function\"},{\"inputs\":[],\"name\":\"lootToken\",\"outputs\":[{\"internalType\":\"contract IBaalToken\",\"name\":\"\",\"type\":\"address\"}],\"stateMutability\":\"view\",\"type\":\"function\"},{\"inputs\":[],\"name\":\"managerLock\",\"outputs\":[{\"internalType\":\"bool\",\"name\":\"\",\"type\":\"bool\"}],\"stateMutability\":\"view\",\"type\":\"function\"},{\"inputs\":[{\"internalType\":\"address\",\"name\":\"\",\"type\":\"address\"},{\"internalType\":\"uint32\",\"name\":\"\",\"type\":\"uint32\"}],\"name\":\"memberVoted\",\"outputs\":[{\"internalType\":\"bool\",\"name\":\"\",\"type\":\"bool\"}],\"stateMutability\":\"view\",\"type\":\"function\"},{\"inputs\":[],\"name\":\"minRetentionPercent\",\"outputs\":[{\"internalType\":\"uint256\",\"name\":\"\",\"type\":\"uint256\"}],\"stateMutability\":\"view\",\"type\":\"function\"},{\"inputs\":[{\"internalType\":\"address[]\",\"name\":\"to\",\"type\":\"address[]\"},{\"internalType\":\"uint256[]\",\"name\":\"amount\",\"type\":\"uint256[]\"}],\"name\":\"mintLoot\",\"outputs\":[],\"stateMutability\":\"nonpayable\",\"type\":\"function\"},{\"inputs\":[{\"internalType\":\"address[]\",\"name\":\"to\",\"type\":\"address[]\"},{\"internalType\":\"uint256[]\",\"name\":\"amount\",\"type\":\"uint256[]\"}],\"name\":\"mintShares\",\"outputs\":[],\"stateMutability\":\"nonpayable\",\"type\":\"function\"},{\"inputs\":[],\"name\":\"multisendLibrary\",\"outputs\":[{\"internalType\":\"address\",\"name\":\"\",\"type\":\"address\"}],\"stateMutability\":\"view\",\"type\":\"function\"},{\"inputs\":[],\"name\":\"owner\",\"outputs\":[{\"internalType\":\"address\",\"name\":\"\",\"type\":\"address\"}],\"stateMutability\":\"view\",\"type\":\"function\"},{\"inputs\":[{\"internalType\":\"uint32\",\"name\":\"id\",\"type\":\"uint32\"},{\"internalType\":\"bytes\",\"name\":\"proposalData\",\"type\":\"bytes\"}],\"name\":\"processProposal\",\"outputs\":[],\"stateMutability\":\"nonpayable\",\"type\":\"function\"},{\"inputs\":[],\"name\":\"proposalCount\",\"outputs\":[{\"internalType\":\"uint32\",\"name\":\"\",\"type\":\"uint32\"}],\"stateMutability\":\"view\",\"type\":\"function\"},{\"inputs\":[],\"name\":\"proposalOffering\",\"outputs\":[{\"internalType\":\"uint256\",\"name\":\"\",\"type\":\"uint256\"}],\"stateMutability\":\"view\",\"type\":\"function\"},{\"inputs\":[{\"internalType\":\"uint256\",\"name\":\"\",\"type\":\"uint256\"}],\"name\":\"proposals\",\"outputs\":[{\"internalType\":\"uint32\",\"name\":\"id\",\"type\":\"uint32\"},{\"internalType\":\"uint32\",\"name\":\"prevProposalId\",\"type\":\"uint32\"},{\"internalType\":\"uint32\",\"name\":\"votingStarts\",\"type\":\"uint32\"},{\"internalType\":\"uint32\",\"name\":\"votingEnds\",\"type\":\"uint32\"},{\"internalType\":\"uint32\",\"name\":\"graceEnds\",\"type\":\"uint32\"},{\"internalType\":\"uint32\",\"name\":\"expiration\",\"type\":\"uint32\"},{\"internalType\":\"uint256\",\"name\":\"baalGas\",\"type\":\"uint256\"},{\"internalType\":\"uint256\",\"name\":\"yesVotes\",\"type\":\"uint256\"},{\"internalType\":\"uint256\",\"name\":\"noVotes\",\"type\":\"uint256\"},{\"internalType\":\"uint256\",\"name\":\"maxTotalSharesAndLootAtVote\",\"type\":\"uint256\"},{\"internalType\":\"address\",\"name\":\"sponsor\",\"type\":\"address\"},{\"internalType\":\"bytes32\",\"name\":\"proposalDataHash\",\"type\":\"bytes32\"}],\"stateMutability\":\"view\",\"type\":\"function\"},{\"inputs\":[],\"name\":\"quorumPercent\",\"outputs\":[{\"internalType\":\"uint256\",\"name\":\"\",\"type\":\"uint256\"}],\"stateMutability\":\"view\",\"type\":\"function\"},{\"inputs\":[{\"internalType\":\"address\",\"name\":\"to\",\"type\":\"address\"},{\"internalType\":\"uint256\",\"name\":\"sharesToBurn\",\"type\":\"uint256\"},{\"internalType\":\"uint256\",\"name\":\"lootToBurn\",\"type\":\"uint256\"},{\"internalType\":\"address[]\",\"name\":\"tokens\",\"type\":\"address[]\"}],\"name\":\"ragequit\",\"outputs\":[],\"stateMutability\":\"nonpayable\",\"type\":\"function\"},{\"inputs\":[],\"name\":\"renounceOwnership\",\"outputs\":[],\"stateMutability\":\"nonpayable\",\"type\":\"function\"},{\"inputs\":[{\"internalType\":\"bool\",\"name\":\"pauseShares\",\"type\":\"bool\"},{\"internalType\":\"bool\",\"name\":\"pauseLoot\",\"type\":\"bool\"}],\"name\":\"setAdminConfig\",\"outputs\":[],\"stateMutability\":\"nonpayable\",\"type\":\"function\"},{\"inputs\":[{\"internalType\":\"address\",\"name\":\"_avatar\",\"type\":\"address\"}],\"name\":\"setAvatar\",\"outputs\":[],\"stateMutability\":\"nonpayable\",\"type\":\"function\"},{\"inputs\":[{\"internalType\":\"bytes\",\"name\":\"_governanceConfig\",\"type\":\"bytes\"}],\"name\":\"setGovernanceConfig\",\"outputs\":[],\"stateMutability\":\"nonpayable\",\"type\":\"function\"},{\"inputs\":[{\"internalType\":\"address\",\"name\":\"_guard\",\"type\":\"address\"}],\"name\":\"setGuard\",\"outputs\":[],\"stateMutability\":\"nonpayable\",\"type\":\"function\"},{\"inputs\":[{\"internalType\":\"address[]\",\"name\":\"_shamans\",\"type\":\"address[]\"},{\"internalType\":\"uint256[]\",\"name\":\"_permissions\",\"type\":\"uint256[]\"}],\"name\":\"setShamans\",\"outputs\":[],\"stateMutability\":\"nonpayable\",\"type\":\"function\"},{\"inputs\":[{\"internalType\":\"address\",\"name\":\"_target\",\"type\":\"address\"}],\"name\":\"setTarget\",\"outputs\":[],\"stateMutability\":\"nonpayable\",\"type\":\"function\"},{\"inputs\":[{\"internalType\":\"address\",\"name\":\"_trustedForwarderAddress\",\"type\":\"address\"}],\"name\":\"setTrustedForwarder\",\"outputs\":[],\"stateMutability\":\"nonpayable\",\"type\":\"function\"},{\"inputs\":[{\"internalType\":\"bytes\",\"name\":\"_initializationParams\",\"type\":\"bytes\"}],\"name\":\"setUp\",\"outputs\":[],\"stateMutability\":\"nonpayable\",\"type\":\"function\"},{\"inputs\":[{\"internalType\":\"address\",\"name\":\"\",\"type\":\"address\"}],\"name\":\"shamans\",\"outputs\":[{\"internalType\":\"uint256\",\"name\":\"\",\"type\":\"uint256\"}],\"stateMutability\":\"view\",\"type\":\"function\"},{\"inputs\":[],\"name\":\"sharesToken\",\"outputs\":[{\"internalType\":\"contract IBaalToken\",\"name\":\"\",\"type\":\"address\"}],\"stateMutability\":\"view\",\"type\":\"function\"},{\"inputs\":[{\"internalType\":\"uint32\",\"name\":\"id\",\"type\":\"uint32\"}],\"name\":\"sponsorProposal\",\"outputs\":[],\"stateMutability\":\"nonpayable\",\"type\":\"function\"},{\"inputs\":[],\"name\":\"sponsorThreshold\",\"outputs\":[{\"internalType\":\"uint256\",\"name\":\"\",\"type\":\"uint256\"}],\"stateMutability\":\"view\",\"type\":\"function\"},{\"inputs\":[{\"internalType\":\"uint32\",\"name\":\"id\",\"type\":\"uint32\"}],\"name\":\"state\",\"outputs\":[{\"internalType\":\"enum Baal.ProposalState\",\"name\":\"\",\"type\":\"uint8\"}],\"stateMutability\":\"view\",\"type\":\"function\"},{\"inputs\":[{\"internalType\":\"bytes\",\"name\":\"proposalData\",\"type\":\"bytes\"},{\"internalType\":\"uint32\",\"name\":\"expiration\",\"type\":\"uint32\"},{\"internalType\":\"uint256\",\"name\":\"baalGas\",\"type\":\"uint256\"},{\"internalType\":\"string\",\"name\":\"details\",\"type\":\"string\"}],\"name\":\"submitProposal\",\"outputs\":[{\"internalType\":\"uint256\",\"name\":\"\",\"type\":\"uint256\"}],\"stateMutability\":\"payable\",\"type\":\"function\"},{\"inputs\":[{\"internalType\":\"uint32\",\"name\":\"id\",\"type\":\"uint32\"},{\"internalType\":\"bool\",\"name\":\"approved\",\"type\":\"bool\"}],\"name\":\"submitVote\",\"outputs\":[],\"stateMutability\":\"nonpayable\",\"type\":\"function\"},{\"inputs\":[{\"internalType\":\"address\",\"name\":\"voter\",\"type\":\"address\"},{\"internalType\":\"uint256\",\"name\":\"expiry\",\"type\":\"uint256\"},{\"internalType\":\"uint256\",\"name\":\"nonce\",\"type\":\"uint256\"},{\"internalType\":\"uint32\",\"name\":\"id\",\"type\":\"uint32\"},{\"internalType\":\"bool\",\"name\":\"approved\",\"type\":\"bool\"},{\"internalType\":\"uint8\",\"name\":\"v\",\"type\":\"uint8\"},{\"internalType\":\"bytes32\",\"name\":\"r\",\"type\":\"bytes32\"},{\"internalType\":\"bytes32\",\"name\":\"s\",\"type\":\"bytes32\"}],\"name\":\"submitVoteWithSig\",\"outputs\":[],\"stateMutability\":\"nonpayable\",\"type\":\"function\"},{\"inputs\":[],\"name\":\"target\",\"outputs\":[{\"internalType\":\"address\",\"name\":\"\",\"type\":\"address\"}],\"stateMutability\":\"view\",\"type\":\"function\"},{\"inputs\":[],\"name\":\"totalLoot\",\"outputs\":[{\"internalType\":\"uint256\",\"name\":\"\",\"type\":\"uint256\"}],\"stateMutability\":\"view\",\"type\":\"function\"},{\"inputs\":[],\"name\":\"totalShares\",\"outputs\":[{\"internalType\":\"uint256\",\"name\":\"\",\"type\":\"uint256\"}],\"stateMutability\":\"view\",\"type\":\"function\"},{\"inputs\":[],\"name\":\"totalSupply\",\"outputs\":[{\"internalType\":\"uint256\",\"name\":\"\",\"type\":\"uint256\"}],\"stateMutability\":\"view\",\"type\":\"function\"},{\"inputs\":[{\"internalType\":\"address\",\"name\":\"newOwner\",\"type\":\"address\"}],\"name\":\"transferOwnership\",\"outputs\":[],\"stateMutability\":\"nonpayable\",\"type\":\"function\"},{\"inputs\":[],\"name\":\"trustedForwarder\",\"outputs\":[{\"internalType\":\"address\",\"name\":\"\",\"type\":\"address\"}],\"stateMutability\":\"view\",\"type\":\"function\"},{\"inputs\":[],\"name\":\"versionRecipient\",\"outputs\":[{\"internalType\":\"string\",\"name\":\"\",\"type\":\"string\"}],\"stateMutability\":\"view\",\"type\":\"function\"},{\"inputs\":[{\"internalType\":\"address\",\"name\":\"\",\"type\":\"address\"}],\"name\":\"votingNonces\",\"outputs\":[{\"internalType\":\"uint256\",\"name\":\"\",\"type\":\"uint256\"}],\"stateMutability\":\"view\",\"type\":\"function\"},{\"inputs\":[],\"name\":\"votingPeriod\",\"outputs\":[{\"internalType\":\"uint32\",\"name\":\"\",\"type\":\"uint32\"}],\"stateMutability\":\"view\",\"type\":\"function\"}],\"devdoc\":{\"kind\":\"dev\",\"methods\":{\"burnLoot(address[],uint256[])\":{\"params\":{\"amount\":\"Array of amounts to burn\",\"from\":\"Array of addresses to lose loot\"}},\"burnShares(address[],uint256[])\":{\"params\":{\"amount\":\"Array of amounts to burn\",\"from\":\"Array of addresses to lose shares\"}},\"cancelProposal(uint32)\":{\"details\":\"Cancellable if proposal is during voting, sender is sponsor, governor, or if sponsor has fallen below threshold\",\"params\":{\"id\":\"Number of proposal in `proposals` mapping to process for execution.\"}},\"executeAsBaal(address,uint256,bytes)\":{\"details\":\"Function to Execute arbitrary code as baal - useful if funds are accidentally sent here\",\"params\":{\"_data\":\"arbitrary transaction data\",\"_to\":\"address to call\",\"_value\":\"value to include in wei\"}},\"getProposalStatus(uint32)\":{\"params\":{\"id\":\"Number of proposal in proposals\"},\"returns\":{\"_0\":\"[cancelled, processed, passed, actionFailed]\"}},\"isAdmin(address)\":{\"params\":{\"shaman\":\"Address attempting to execute admin permissioned functions\"}},\"isGovernor(address)\":{\"params\":{\"shaman\":\"Address attempting to execute governor permissioned functions\"}},\"isManager(address)\":{\"params\":{\"shaman\":\"Address attempting to execute manager permissioned functions\"}},\"mintLoot(address[],uint256[])\":{\"params\":{\"amount\":\"Array of amounts to mint\",\"to\":\"Array of addresses to mint loot\"}},\"mintShares(address[],uint256[])\":{\"params\":{\"amount\":\"Array of amounts to mint\",\"to\":\"Array of addresses to receive shares\"}},\"owner()\":{\"details\":\"Returns the address of the current owner.\"},\"processProposal(uint32,bytes)\":{\"details\":\"Proposal must have succeeded, not been processed, not expired, retention threshold must be met\",\"params\":{\"id\":\"Number of proposal in `proposals` mapping to process for execution.\",\"proposalData\":\"Packed multisend data to execute via Gnosis multisend library\"}},\"ragequit(address,uint256,uint256,address[])\":{\"params\":{\"lootToBurn\":\"Baal pure economic weight to burn.\",\"sharesToBurn\":\"Baal voting weight to burn.\",\"to\":\"Account that receives 'fair share'.\",\"tokens\":\"Array of tokens to include in rage quit calculation\"}},\"renounceOwnership()\":{\"details\":\"Leaves the contract without owner. It will not be possible to call `onlyOwner` functions anymore. Can only be called by the current owner. NOTE: Renouncing ownership will leave the contract without an owner, thereby removing any functionality that is only available to the owner.\"},\"setAdminConfig(bool,bool)\":{\"params\":{\"pauseLoot\":\"Turn loot transfers on or off\",\"pauseShares\":\"Turn share transfers on or off\"}},\"setAvatar(address)\":{\"details\":\"Sets the avatar to a new avatar (`newAvatar`).\"},\"setGovernanceConfig(bytes)\":{\"params\":{\"_governanceConfig\":\"Encoded configuration parameters voting, grace period, tribute, quorum, sponsor threshold, retention bound\"}},\"setGuard(address)\":{\"details\":\"Set a guard that checks transactions before execution.\",\"params\":{\"_guard\":\"The address of the guard to be used or the 0 address to disable the guard.\"}},\"setShamans(address[],uint256[])\":{\"params\":{\"_permissions\":\"Permission level of each shaman in _shamans\",\"_shamans\":\"Addresses of shaman contracts\"}},\"setTarget(address)\":{\"details\":\"Sets the target to a new target (`newTarget`).\"},\"setTrustedForwarder(address)\":{\"params\":{\"_trustedForwarderAddress\":\"Trusted forwarder's address\"}},\"setUp(bytes)\":{\"params\":{\"_initializationParams\":\"Encoded setup information.\"}},\"sponsorProposal(uint32)\":{\"params\":{\"id\":\"Number of proposal in `proposals` mapping to sponsor.\"}},\"state(uint32)\":{\"params\":{\"id\":\"Number of proposal in proposals\"},\"returns\":{\"_0\":\"Unborn -> Submitted -> Voting -> Grace -> Ready -> Processed         \\\\-> Cancelled  \\\\-> Defeated\"}},\"submitProposal(bytes,uint32,uint256,string)\":{\"params\":{\"details\":\"Context for proposal.\",\"proposalData\":\"Multisend encoded transactions or proposal data\"},\"returns\":{\"_0\":\"proposal Count for submitted proposal.\"}},\"submitVote(uint32,bool)\":{\"params\":{\"approved\":\"If 'true', member will cast `yesVotes` onto proposal - if 'false', `noVotes` will be counted.\",\"id\":\"Number of proposal in `proposals` mapping to cast vote on.\"}},\"submitVoteWithSig(address,uint256,uint256,uint32,bool,uint8,bytes32,bytes32)\":{\"params\":{\"approved\":\"If 'true', member will cast `yesVotes` onto proposal - if 'false', `noVotes` will be counted.\",\"expiry\":\"Expiration of signature.\",\"id\":\"Number of proposal in `proposals` mapping to cast vote on.\",\"r\":\"r in signature\",\"s\":\"s in signature\",\"v\":\"v in signature\",\"voter\":\"Address of member who submitted vote.\"}},\"transferOwnership(address)\":{\"details\":\"Transfers ownership of the contract to a new account (`newOwner`). Can only be called by the current owner.\"}},\"title\":\"Baal ';_;'.\",\"version\":1},\"userdoc\":{\"errors\":{\"NotIERC165Compliant(address)\":[{\"notice\":\"`guard_` does not implement IERC165.\"}]},\"kind\":\"user\",\"methods\":{\"burnLoot(address[],uint256[])\":{\"notice\":\"Baal-or-manager-only function to burn loot.\"},\"burnShares(address[],uint256[])\":{\"notice\":\"Baal-or-manager-only function to burn shares.\"},\"cancelProposal(uint32)\":{\"notice\":\"Cancel proposal prior to execution\"},\"executeAsBaal(address,uint256,bytes)\":{\"notice\":\"Can only be called by the avatar which means this can only be called if passed by another     proposal or by a delegated signer on the Safe\"},\"getProposalStatus(uint32)\":{\"notice\":\"Helper to get recorded proposal flags\"},\"hashOperation(bytes)\":{\"notice\":\"Returns the keccak256 hash of calldata\"},\"isAdmin(address)\":{\"notice\":\"Helper to check if shaman permission contains admin capabilities\"},\"isGovernor(address)\":{\"notice\":\"Helper to check if shaman permission contains governor capabilities\"},\"isManager(address)\":{\"notice\":\"Helper to check if shaman permission contains manager capabilities\"},\"isTrustedForwarder(address)\":{\"notice\":\"return if the forwarder is trusted to forward relayed transactions to us. the forwarder is required to verify the sender's signature, and verify the call is not a replay.\"},\"lockAdmin()\":{\"notice\":\"Lock admin so setShamans cannot be called with admin changes\"},\"lockGovernor()\":{\"notice\":\"Lock governor so setShamans cannot be called with governor changes\"},\"lockManager()\":{\"notice\":\"Lock manager so setShamans cannot be called with manager changes\"},\"mintLoot(address[],uint256[])\":{\"notice\":\"Baal-or-manager-only function to mint loot.\"},\"mintShares(address[],uint256[])\":{\"notice\":\"Baal-or-manager-only function to mint shares.\"},\"processProposal(uint32,bytes)\":{\"notice\":\"Process `proposal` & execute internal functions.\"},\"ragequit(address,uint256,uint256,address[])\":{\"notice\":\"Process member burn of `shares` and/or `loot` to claim 'fair share' of specified `tokens`\"},\"setAdminConfig(bool,bool)\":{\"notice\":\"Baal-or-admin-only function to set admin config (pause/unpause shares/loot) and call function on token\"},\"setAvatar(address)\":{\"notice\":\"Can only be called by the current owner.\"},\"setGovernanceConfig(bytes)\":{\"notice\":\"Baal-or-governance-only function to change periods.\"},\"setShamans(address[],uint256[])\":{\"notice\":\"Baal-only function to set shaman status.\"},\"setTarget(address)\":{\"notice\":\"Can only be called by the current owner.\"},\"setTrustedForwarder(address)\":{\"notice\":\"Baal-or-governance only function to set trusted forwarder for meta-transactions.\"},\"setUp(bytes)\":{\"notice\":\"Summon Baal with voting configuration & initial array of `members` accounts with `shares` & `loot` weights.\"},\"sponsorProposal(uint32)\":{\"notice\":\"Sponsor proposal to Baal `members` for approval within voting period.\"},\"state(uint32)\":{\"notice\":\"State helper to determine proposal state\"},\"submitProposal(bytes,uint32,uint256,string)\":{\"notice\":\"Submit proposal to Baal `members` for approval within given voting period.\"},\"submitVote(uint32,bool)\":{\"notice\":\"Submit vote - proposal must exist & voting period must not have ended.\"},\"submitVoteWithSig(address,uint256,uint256,uint32,bool,uint8,bytes32,bytes32)\":{\"notice\":\"Submit vote with EIP-712 signature - proposal must exist & voting period must not have ended.\"},\"totalLoot()\":{\"notice\":\"Helper to check total supply of child loot contract\"},\"totalShares()\":{\"notice\":\"Helper to check total supply of child shares contract\"},\"totalSupply()\":{\"notice\":\"Helper to check total supply of loot and shares\"}},\"notice\":\"Flexible guild contract inspired by Moloch DAO framework.\",\"version\":1}},\"settings\":{\"compilationTarget\":{\"contracts/Baal.sol\":\"Baal\"},\"evmVersion\":\"london\",\"libraries\":{},\"metadata\":{\"bytecodeHash\":\"ipfs\"},\"optimizer\":{\"enabled\":true,\"runs\":200},\"remappings\":[]},\"sources\":{\"@gnosis.pm/safe-contracts/contracts/GnosisSafe.sol\":{\"keccak256\":\"0x2ca9e3e053c969b9364f62c50c2c25b92525db7fd0bad3ae1fb0c20dd575367c\",\"license\":\"LGPL-3.0-only\",\"urls\":[\"bzz-raw://ef1bceac49ae93b31aec41380862fdc267823c41e2dfefb9b7d70d0996e858e1\",\"dweb:/ipfs/QmWFU5bic2CGv8QgQ8bxJnjMfuJgNL2zZubt5hvzhcRZPc\"]},\"@gnosis.pm/safe-contracts/contracts/base/Executor.sol\":{\"keccak256\":\"0x4d3a900673473466bc27413fdbb11aae60b5580b792c49411f01544e0b24fe08\",\"license\":\"LGPL-3.0-only\",\"urls\":[\"bzz-raw://71ada0590998f47d1ee9759aa190c82d4b348d59a2f582747650d9720245a309\",\"dweb:/ipfs/Qmb9UudLoJpPutHVP9pXd1poP5CqFf5sxVFuYw14SYfRFk\"]},\"@gnosis.pm/safe-contracts/contracts/base/FallbackManager.sol\":{\"keccak256\":\"0x1be9f0f3e80a78134c2e3a026c6a14759785bd35d135e87a4a025aeb6742791f\",\"license\":\"LGPL-3.0-only\",\"urls\":[\"bzz-raw://44130f09921e895c0b9d7797de1d64940a8c43391efcda3a0208cb9ad96475a7\",\"dweb:/ipfs/QmUur4hzvCJ68PnW6zQFpemAMH2DH5mExPqSZdpKeY1ZRN\"]},\"@gnosis.pm/safe-contracts/contracts/base/GuardManager.sol\":{\"keccak256\":\"0x53a532a31f9632d5a73ad0df56f05bd2b66a2f781f571eb48d00367d370707f9\",\"license\":\"LGPL-3.0-only\",\"urls\":[\"bzz-raw://eebc15cb7c83cf9516514b34bd16fb19c08104c738fa172ae3c98c66b84708ed\",\"dweb:/ipfs/QmfJ4yX5WwHU58QVoxJFaejyerscTs6VCgn2TdUVrEZeTP\"]},\"@gnosis.pm/safe-contracts/contracts/base/ModuleManager.sol\":{\"keccak256\":\"0x5512760a0328309f82a71cbe2ac14e0942501b9d44d5fb417bd02174546672e5\",\"license\":\"LGPL-3.0-only\",\"urls\":[\"bzz-raw://763cf803a98a921d62ed51d7876a13aed63968c828f026ce2beb747d2631c0bc\",\"dweb:/ipfs/QmbHZoYsbkxC2kVCs4pQ4nRaFrcgU5X8FuLX7vV3qDR9Y5\"]},\"@gnosis.pm/safe-contracts/contracts/base/OwnerManager.sol\":{\"keccak256\":\"0x01a3d64cc0967f42ae63802409f5404d18352516ea2a6335005003d919ffcf12\",\"license\":\"LGPL-3.0-only\",\"urls\":[\"bzz-raw://91824103f2966612103705d6493290e193b0c0ca2bbe7141965184435dbb999b\",\"dweb:/ipfs/Qmd7u917v4DnD4hvQGAGbchVJ8A7pm1UCzCv7sAzQnRoi4\"]},\"@gnosis.pm/safe-contracts/contracts/common/Enum.sol\":{\"keccak256\":\"0x473e45b1a5cc47be494b0e123c9127f0c11c1e0992a321ae5a644c0bfdb2c14f\",\"license\":\"LGPL-3.0-only\",\"urls\":[\"bzz-raw://948e6d5a8bd7377f7795b6e28584eab9be5c0a8db240bf5e606744a175238c3d\",\"dweb:/ipfs/QmQQaUmQfpuejV41jbxKSTgEBYYCcVTjCsDMgf2htgz6ej\"]},\"@gnosis.pm/safe-contracts/contracts/common/EtherPaymentFallback.sol\":{\"keccak256\":\"0x1a7928d29877da84a3d0df846d5cd933d48ee095c1bde0aa044e249b12e27a72\",\"license\":\"LGPL-3.0-only\",\"urls\":[\"bzz-raw://962fc098cfdd8a43cc7d294c1105718ea985cacf1172ea0426f7370e2096b830\",\"dweb:/ipfs/QmdZrxJ7dSWuTjbrN133YiRDLwYQr21zLr3CqWWtowY9Gu\"]},\"@gnosis.pm/safe-contracts/contracts/common/SecuredTokenTransfer.sol\":{\"keccak256\":\"0x178682d8477da42936c7e8e24d39094c4ac08ecd8623794b9535d77001b665f1\",\"license\":\"LGPL-3.0-only\",\"urls\":[\"bzz-raw://2ae8a6d5c7d4cc19c3b957c8857e87e92a4570effebf32ba54184c2b8375a0a2\",\"dweb:/ipfs/QmVNgRcRVgQZriJm8KVXQvRbHQf74wH7ABmBNTjBTqBa8r\"]},\"@gnosis.pm/safe-contracts/contracts/common/SelfAuthorized.sol\":{\"keccak256\":\"0x59d36efca578b75541a776f62a0d0ef03712fc27b6647c3915c14b572106d7bc\",\"license\":\"LGPL-3.0-only\",\"urls\":[\"bzz-raw://8530c6e0392415d42486847cd4368d30f6cac42051596330692a571fcdbb9e29\",\"dweb:/ipfs/QmWw51Pshw5t2sMKANzxtfNdBSQUyQQpfTr3Mi7oNJGk7U\"]},\"@gnosis.pm/safe-contracts/contracts/common/SignatureDecoder.sol\":{\"keccak256\":\"0x2d37be182472ccfee62a33e9939f9b3d509be4c32e9fdebc2c1746c573655987\",\"license\":\"LGPL-3.0-only\",\"urls\":[\"bzz-raw://f76d96f10640beee7d4b4ad119bd3c64aeb26929011d9c1eec738c63ebc92f63\",\"dweb:/ipfs/QmaqgDocQumKeyUMgZU7STzpTASQjDbUxbQKuZ17xhLaXz\"]},\"@gnosis.pm/safe-contracts/contracts/common/Singleton.sol\":{\"keccak256\":\"0x6e02c18998de8834dd7d69890cb6ede996b6f635d2337081a596d91e35e2c648\",\"license\":\"LGPL-3.0-only\",\"urls\":[\"bzz-raw://ce1dfe9f820352b6f95b350ac0b3fa8afc24ad77bffffc2c9e00462e2a41a666\",\"dweb:/ipfs/QmVr2dCUbNbg5e7UsgngGij5mybgkXcbf5e5cPhT21aFXA\"]},\"@gnosis.pm/safe-contracts/contracts/common/StorageAccessible.sol\":{\"keccak256\":\"0x36853adb266c2ab7d3c612aca799441a86bd15d9e1d24fc6c70d63f5c2df3aaf\",\"license\":\"LGPL-3.0-only\",\"urls\":[\"bzz-raw://3f210f47e032444049040d2929b32e02089aac1d05b07dcd77ee34bb63505dfa\",\"dweb:/ipfs/QmbE8GXFAbthieTL51S2XPF5URyPaj1tDubVuhztkSoiPo\"]},\"@gnosis.pm/safe-contracts/contracts/external/GnosisSafeMath.sol\":{\"keccak256\":\"0x2a2b4d74f5834a9437be0cd3254d7a676698fc78aa47941c2009470196998d98\",\"license\":\"LGPL-3.0-only\",\"urls\":[\"bzz-raw://ea04449ba8b78ec44f3463b68cbce971875626e91d028add50900c41101a1156\",\"dweb:/ipfs/QmR95ci4HVkJuyYGvYRHVpp6N3wefu5WVDhipKwRechWV6\"]},\"@gnosis.pm/safe-contracts/contracts/interfaces/ISignatureValidator.sol\":{\"keccak256\":\"0x5b6e9bf17f28738ce88e751f420b0559f5151ba7bec2ff3c7bb31e42673d6801\",\"license\":\"LGPL-3.0-only\",\"urls\":[\"bzz-raw://bfdde8390deb619e38f98be67c5f9d26f12623855540af76b9f454142d3896c1\",\"dweb:/ipfs/QmZrr1ocToR5S62W177qV2csfs7wCQNs3t9vatyx32uLXz\"]},\"@gnosis.pm/zodiac/contracts/core/Module.sol\":{\"keccak256\":\"0x1b9b6f3b43db68f3c142b326544115d1b1fa1f319c980922ea0a29aa80f53664\",\"license\":\"LGPL-3.0-only\",\"urls\":[\"bzz-raw://89c48fe4addf27af8b1cbc3cad8a0b27fde67d0de8b29aba811b9d4cb97c6112\",\"dweb:/ipfs/QmNoJhTbtVv2J237BsMPfuNwSkPAq6zsAr2FNrnUkVBp3X\"]},\"@gnosis.pm/zodiac/contracts/factory/FactoryFriendly.sol\":{\"keccak256\":\"0x96e61585b7340a901a54eb4c157ce28b630bff3d9d4597dfaac692128ea458c4\",\"license\":\"LGPL-3.0-only\",\"urls\":[\"bzz-raw://26252f06a8f31d7fe771b50fde9a6338133750bf05f7fc421dfa70c1df25ed7b\",\"dweb:/ipfs/QmQrZ4Zgvi3andou57Be9qpMmZatMx88rMxp3DPwUaFPsR\"]},\"@gnosis.pm/zodiac/contracts/guard/BaseGuard.sol\":{\"keccak256\":\"0xa825848d06a1fc3cb7ad86727c669c8fc6b3bd8dbe419a617830ddcd5e245e47\",\"license\":\"LGPL-3.0-only\",\"urls\":[\"bzz-raw://58bd190f4bb876471908d6145c6bebb9a22b5c9183192ffe199f4d94753f36bb\",\"dweb:/ipfs/QmYioir1PsjbCWAdCrFGJQiGHZM65umtb8qUSa63cb5Djq\"]},\"@gnosis.pm/zodiac/contracts/guard/Guardable.sol\":{\"keccak256\":\"0xebdcfbe7f0822d8afcc21a1ca8d809417b438cc8b27c3547190a1627a9f5110f\",\"license\":\"LGPL-3.0-only\",\"urls\":[\"bzz-raw://b1c6c35a0ed50d561d819c60423b7a5e6c7cbeaf61c5e0b83dab210def1dd4ec\",\"dweb:/ipfs/QmSz8F6MtuYZMvMJDmfpt8VxHFeVexqS7mpWJE6kuJ8ZAF\"]},\"@gnosis.pm/zodiac/contracts/interfaces/IAvatar.sol\":{\"keccak256\":\"0xcd5508ffe596eef8fbccfd5fc4f10a34397773547ce64e212d48b5212865ec1f\",\"license\":\"LGPL-3.0-only\",\"urls\":[\"bzz-raw://1655ba8b760132ebd702cc806fcdad50a44d320fbeca14be00e35b0171bd35cf\",\"dweb:/ipfs/QmcbB5HpCoEQCTHKWxHS3HpFmgaB4AcZxZYtvQk2QEyvN2\"]},\"@gnosis.pm/zodiac/contracts/interfaces/IGuard.sol\":{\"keccak256\":\"0xd0d855accbc5fba81c67ab22cdbb03325a8a4d7f6b7e981d1ff0fec3178e464d\",\"license\":\"LGPL-3.0-only\",\"urls\":[\"bzz-raw://4b51c586b33cc97caebe85472855bbb4c56a4e387b14cde2c8110b12ace7ba6b\",\"dweb:/ipfs/QmYtVdNKa5D2A4cEdTg9cYwrDio7TdNKtbAHc86x33W5wt\"]},\"@opengsn/contracts/src/BaseRelayRecipient.sol\":{\"keccak256\":\"0xce3168b37fc87ec34a18b56b4b16a06432119c07fd2e1d864b871dcf40372ebe\",\"license\":\"MIT\",\"urls\":[\"bzz-raw://99b6d76e111f18169a6c3f9043a843f188a02b5737dc35e6c6535ee04858f1c7\",\"dweb:/ipfs/QmeibhmsicNMWMw1gggSknJsbm1WUtZgGokGnzd4CCZzTw\"]},\"@opengsn/contracts/src/interfaces/IRelayRecipient.sol\":{\"keccak256\":\"0x199e82e0a2833a97213b5c16ac9b4e2b1814f2e90a4c4916855cbc21e710ad5f\",\"license\":\"MIT\",\"urls\":[\"bzz-raw://92112fc87990f2d55c538946266c48f43e6ca442186ef3b8172eb4632deb0db3\",\"dweb:/ipfs/QmU6pqFXYT8fYfyhw7viRA775eBH4W7PAd589DVFGtSgxo\"]},\"@openzeppelin/contracts-upgradeable/access/OwnableUpgradeable.sol\":{\"keccak256\":\"0x247c62047745915c0af6b955470a72d1696ebad4352d7d3011aef1a2463cd888\",\"license\":\"MIT\",\"urls\":[\"bzz-raw://d7fc8396619de513c96b6e00301b88dd790e83542aab918425633a5f7297a15a\",\"dweb:/ipfs/QmXbP4kiZyp7guuS7xe8KaybnwkRPGrBc2Kbi3vhcTfpxb\"]},\"@openzeppelin/contracts-upgradeable/proxy/utils/Initializable.sol\":{\"keccak256\":\"0xe798cadb41e2da274913e4b3183a80f50fb057a42238fe8467e077268100ec27\",\"license\":\"MIT\",\"urls\":[\"bzz-raw://899f850f7df5a270bccfb765d70069959ca1c20d3a7381c1c3bda8a3ffee1935\",\"dweb:/ipfs/QmVdnAqwyX2L3nX2HDA5WKGtVBFyH1nKE9A1k7fZnPBkhP\"]},\"@openzeppelin/contracts-upgradeable/security/ReentrancyGuardUpgradeable.sol\":{\"keccak256\":\"0x2b3005a0064cfc558bdf64b2bae94b565f4574a536aadd61c13838d4f2157790\",\"license\":\"MIT\",\"urls\":[\"bzz-raw://622c3eb87563e71585c9f538d1a196fe2d154dcc5b8f335e8770a8acc95e1f3a\",\"dweb:/ipfs/QmSnDqJJLzv3mirjGB1vrk5X7hegFdS7BKpscpxyqj7sWu\"]},\"@openzeppelin/contracts-upgradeable/utils/AddressUpgradeable.sol\":{\"keccak256\":\"0x2edcb41c121abc510932e8d83ff8b82cf9cdde35e7c297622f5c29ef0af25183\",\"license\":\"MIT\",\"urls\":[\"bzz-raw://72460c66cd1c3b1c11b863e0d8df0a1c56f37743019e468dc312c754f43e3b06\",\"dweb:/ipfs/QmPExYKiNb9PUsgktQBupPaM33kzDHxaYoVeJdLhv8s879\"]},\"@openzeppelin/contracts-upgradeable/utils/ContextUpgradeable.sol\":{\"keccak256\":\"0x963ea7f0b48b032eef72fe3a7582edf78408d6f834115b9feadd673a4d5bd149\",\"license\":\"MIT\",\"urls\":[\"bzz-raw://d6520943ea55fdf5f0bafb39ed909f64de17051bc954ff3e88c9e5621412c79c\",\"dweb:/ipfs/QmWZ4rAKTQbNG2HxGs46AcTXShsVytKeLs7CUCdCSv5N7a\"]},\"@openzeppelin/contracts-upgradeable/utils/StringsUpgradeable.sol\":{\"keccak256\":\"0x6b9a5d35b744b25529a2856a8093e7c03fb35a34b1c4fb5499e560f8ade140da\",\"license\":\"MIT\",\"urls\":[\"bzz-raw://187b5c3a1c9e77678732a2cc5284237f9cfca6bc28ee8bc0a0f4f951d7b3a2f8\",\"dweb:/ipfs/Qmb2KFr7WuQu7btdCiftQG64vTzrG4UyzVmo53EYHcnHYA\"]},\"@openzeppelin/contracts-upgradeable/utils/cryptography/ECDSAUpgradeable.sol\":{\"keccak256\":\"0x12f297cafe6e2847ae0378502f155654d0764b532a9873c8afe4350950fa7971\",\"license\":\"MIT\",\"urls\":[\"bzz-raw://28074f6df7132e83819042a06ef75ae53c88c53c077b8222b9772b780d58bd58\",\"dweb:/ipfs/QmXXwSxWn4XGCy218fn3f2m3UmFNUiroeQ8sCR3vzNU6Wc\"]},\"@openzeppelin/contracts-upgradeable/utils/cryptography/EIP712Upgradeable.sol\":{\"keccak256\":\"0x3017aded62c4a2b9707f5f06f92934e592c1c9b6f384b91b51340a6d5f841931\",\"license\":\"MIT\",\"urls\":[\"bzz-raw://bb693afc2a614ec7afee965caaf5d53c3f32644e33286f60d17ae0e9aca84d44\",\"dweb:/ipfs/QmVJy43EBWvVT5NgpsV8WJfDHtZbnqZGMhmv1WbWaV5dJV\"]},\"@openzeppelin/contracts-upgradeable/utils/cryptography/draft-EIP712Upgradeable.sol\":{\"keccak256\":\"0x31a2e227f5653e4b31e0f680857b8842073d083b33df11b3f3b3bb5ddc10526e\",\"license\":\"MIT\",\"urls\":[\"bzz-raw://051dd3770ecfea8fd28342b4e48c34d0cba9fbc2dbb1286d710d3d547d707018\",\"dweb:/ipfs/QmQp89U3xBRY7Xjw2HfozkMD3Yh64WvzJKQ1SHGRiEdm2J\"]},\"@openzeppelin/contracts-upgradeable/utils/math/MathUpgradeable.sol\":{\"keccak256\":\"0xc1bd5b53319c68f84e3becd75694d941e8f4be94049903232cd8bc7c535aaa5a\",\"license\":\"MIT\",\"urls\":[\"bzz-raw://056027a78e6f4b78a39be530983551651ee5a052e786ca2c1c6a3bb1222b03b4\",\"dweb:/ipfs/QmXRUpywAqNwAfXS89vrtiE2THRM9dX9pQ4QxAkV1Wx9kt\"]},\"@openzeppelin/contracts/utils/introspection/IERC165.sol\":{\"keccak256\":\"0x447a5f3ddc18419d41ff92b3773fb86471b1db25773e07f877f548918a185bf1\",\"license\":\"MIT\",\"urls\":[\"bzz-raw://be161e54f24e5c6fae81a12db1a8ae87bc5ae1b0ddc805d82a1440a68455088f\",\"dweb:/ipfs/QmP7C3CHdY9urF4dEMb9wmsp1wMxHF6nhA2yQE5SKiPAdy\"]},\"contracts/Baal.sol\":{\"keccak256\":\"0x273e4c8a1708ff252be03f14f12032a9a6fa1c48de3819a4a33902e4e4497a4c\",\"license\":\"MIT\",\"urls\":[\"bzz-raw://e9b078ee5d474b659c57e8a094bf113a70477fec37f08119a4e577ade1cd2b21\",\"dweb:/ipfs/QmbePm8oPTw8bhGEeShYoJiEXgnLMkfPdbFS9WWAx1F7SD\"]},\"contracts/interfaces/IBaalToken.sol\":{\"keccak256\":\"0x4c057a382569403c59a92c88f3008664b3f957967f94505b82c78ce779282fce\",\"license\":\"MIT\",\"urls\":[\"bzz-raw://e25459627992b498fb0a715e3a9988f05ff8cecf142607d127062e3dfa64b14e\",\"dweb:/ipfs/QmZAdN1ZVqJUTzUm2thY8V2yBKbpBpkZ7aGAvk1rhtE9Vn\"]}},\"version\":1}",
          "bytecode": "0x60806040523480156200001157600080fd5b506200001c62000022565b620000e4565b600054610100900460ff16156200008f5760405162461bcd60e51b815260206004820152602760248201527f496e697469616c697a61626c653a20636f6e747261637420697320696e697469604482015266616c697a696e6760c81b606482015260840160405180910390fd5b60005460ff9081161015620000e2576000805460ff191660ff9081179091556040519081527f7f26b83ff96e1f2b6a682f133852f6798a09c465da95921460cefb38474024989060200160405180910390a15b565b615d8680620000f46000396000f3fe6080604052600436106103a25760003560e01c80638009ba1f116101e7578063cf043df31161010d578063ed0cdf15116100a0578063f460124d1161006f578063f460124d14610beb578063f81cbd2614610c0b578063fab514c014610c21578063fe47668614610c4157600080fd5b8063ed0cdf1514610b6b578063ee4d88ed14610b8b578063f2fde38b14610bab578063f3ae241514610bcb57600080fd5b8063da35c664116100dc578063da35c66414610ae7578063da74222814610b0b578063e19a9dd914610b2b578063e43581b814610b4b57600080fd5b8063cf043df314610a4c578063d33defc714610a6c578063d4b8399214610aa7578063d61f27ae14610ac757600080fd5b8063a4f9edbf11610185578063b634e4e011610154578063b634e4e0146109cb578063c00d0775146109e8578063c4e931f614610a0f578063c910638914610a2e57600080fd5b8063a4f9edbf14610956578063acca30a214610976578063b1e3f40c1461098b578063b3c98bbb146109ab57600080fd5b806398a527cc116101c157806398a527cc146108dc5780639a2f747f146108fc578063a06db7dc14610912578063a26ec96e1461093657600080fd5b80638009ba1f1461088857806383bf8459146108a85780638da5cb5b146108be57600080fd5b80634526d846116102cc5780635ec286961161026a578063715018a611610239578063715018a614610815578063776d1a011461082a5780637ceab3b11461084a5780637da0a8771461086a57600080fd5b80635ec28696146107a0578063635e99aa146107c057806367f61f07146107d5578063706a6e93146107f557600080fd5b806352ba1da7116102a657806352ba1da7146106f6578063572b6c05146107235780635aef7de6146107525780635cfd6f7e1461078a57600080fd5b80634526d846146106875780634630affc146106a7578063486ff0cd146106d457600080fd5b8063136d731a11610344578063258bfe2f11610313578063258bfe2f146106125780633232444c146106325780633a82ffc81461065f5780633a98ef391461067257600080fd5b8063136d731a146105a557806316fd265d146105ba57806318160ddd146105cf57806324d7806c146105f257600080fd5b8063056b0dcd11610380578063056b0dcd14610523578063086cfca8146105455780630a796e19146105655780630f656a211461058557600080fd5b8063013cf08b146103a7578063027cdf45146104c057806302a251a3146104ea575b600080fd5b3480156103b357600080fd5b506104436103c23660046155b9565b60d960205260009081526040902080546001820154600283015460038401546004850154600686015460079096015463ffffffff80871697600160201b8804821697600160401b8104831697600160601b8204841697600160801b8304851697600160a01b909304909416959094919290916001600160a01b03909116908c565b6040805163ffffffff9d8e1681529b8d1660208d0152998c16998b0199909952968a1660608a015294891660808901529790921660a087015260c086015260e08501526101008401949094526101208301939093526001600160a01b03909216610140820152610160810191909152610180015b60405180910390f35b3480156104cc57600080fd5b5060d5546104da9060ff1681565b60405190151581526020016104b7565b3480156104f657600080fd5b5060d05461050e90600160a01b900463ffffffff1681565b60405163ffffffff90911681526020016104b7565b34801561052f57600080fd5b5061054361053e366004615432565b610c6e565b005b34801561055157600080fd5b5061054361056036600461509d565b6111b5565b34801561057157600080fd5b506105436105803660046155eb565b61120f565b34801561059157600080fd5b506105436105a03660046152dd565b611545565b3480156105b157600080fd5b506105436117f3565b3480156105c657600080fd5b50610543611884565b3480156105db57600080fd5b506105e46118fe565b6040519081526020016104b7565b3480156105fe57600080fd5b506104da61060d36600461509d565b61191f565b34801561061e57600080fd5b506105e461062d36600461553d565b611964565b34801561063e57600080fd5b506105e461064d36600461509d565b60d66020526000908152604090205481565b6105e461066d3660046154b0565b611994565b34801561067e57600080fd5b506105e4611fd0565b34801561069357600080fd5b506105436106a23660046152dd565b61204d565b3480156106b357600080fd5b506106c76106c23660046155eb565b61211c565b6040516104b79190615901565b3480156106e057600080fd5b506106e961218d565b6040516104b791906159ba565b34801561070257600080fd5b506105e461071136600461509d565b60d86020526000908152604090205481565b34801561072f57600080fd5b506104da61073e36600461509d565b60ce546001600160a01b0391821691161490565b34801561075e57600080fd5b50606654610772906001600160a01b031681565b6040516001600160a01b0390911681526020016104b7565b34801561079657600080fd5b506105e460d35481565b3480156107ac57600080fd5b506105436107bb3660046152dd565b61221b565b3480156107cc57600080fd5b506105e46122ea565b3480156107e157600080fd5b506105436107f0366004615608565b61232f565b34801561080157600080fd5b50610543610810366004615626565b612353565b34801561082157600080fd5b5061054361273f565b34801561083657600080fd5b5061054361084536600461509d565b612753565b34801561085657600080fd5b50606554610772906001600160a01b031681565b34801561087657600080fd5b5060ce546001600160a01b0316610772565b34801561089457600080fd5b5060d054610772906001600160a01b031681565b3480156108b457600080fd5b506105e460d45481565b3480156108ca57600080fd5b506033546001600160a01b0316610772565b3480156108e857600080fd5b506105436108f73660046152dd565b6127ad565b34801561090857600080fd5b506105e460d15481565b34801561091e57600080fd5b5060d05461050e90600160c01b900463ffffffff1681565b34801561094257600080fd5b5060d5546104da9062010000900460ff1681565b34801561096257600080fd5b5061054361097136600461553d565b61287c565b34801561098257600080fd5b50610543612e0a565b34801561099757600080fd5b506105436109a63660046152dd565b612e8f565b3480156109b757600080fd5b506105436109c6366004615157565b612f5e565b3480156109d757600080fd5b5060da5461050e9063ffffffff1681565b3480156109f457600080fd5b5060da5461077290600160201b90046001600160a01b031681565b348015610a1b57600080fd5b5060d5546104da90610100900460ff1681565b348015610a3a57600080fd5b506065546001600160a01b0316610772565b348015610a5857600080fd5b50610543610a6736600461521b565b61303f565b348015610a7857600080fd5b506104da610a873660046152a4565b60d760209081526000928352604080842090915290825290205460ff1681565b348015610ab357600080fd5b50606754610772906001600160a01b031681565b348015610ad357600080fd5b506106e9610ae236600461533c565b613319565b348015610af357600080fd5b5060d05461050e90600160e01b900463ffffffff1681565b348015610b1757600080fd5b50610543610b2636600461509d565b6133e0565b348015610b3757600080fd5b50610543610b4636600461509d565b61348f565b348015610b5757600080fd5b506104da610b6636600461509d565b6135a0565b348015610b7757600080fd5b50610543610b863660046151b2565b6135e1565b348015610b9757600080fd5b50610543610ba636600461553d565b6136f0565b348015610bb757600080fd5b50610543610bc636600461509d565b61394e565b348015610bd757600080fd5b506104da610be636600461509d565b6139c4565b348015610bf757600080fd5b5060cf54610772906001600160a01b031681565b348015610c1757600080fd5b506105e460d25481565b348015610c2d57600080fd5b50610543610c3c3660046155eb565b613a04565b348015610c4d57600080fd5b50610c61610c5c3660046155eb565b613bd8565b6040516104b791906159cd565b6066546001600160a01b0316610c82613da9565b6001600160a01b03161480610c9d5750610c9d61060d613da9565b610cdf5760405162461bcd60e51b815260206004820152600e60248201526d10b130b0b610131010b0b236b4b760911b60448201526064015b60405180910390fd5b818015610d6f575060d060009054906101000a90046001600160a01b03166001600160a01b0316635c975abb6040518163ffffffff1660e01b815260040160206040518083038186803b158015610d3557600080fd5b505afa158015610d49573d6000803e3d6000fd5b505050506040513d601f19601f82011682018060405250810190610d6d9190615415565b155b15610e165760d060009054906101000a90046001600160a01b03166001600160a01b0316638456cb596040518163ffffffff1660e01b8152600401600060405180830381600087803b158015610dc457600080fd5b505af1158015610dd8573d6000803e3d6000fd5b5050604051600181527f5544d0c1539dae939ba6e81485fb6352e3081f5a74f9bf445038bdcc358e34159250602001905060405180910390a1610f48565b81158015610ea5575060d060009054906101000a90046001600160a01b03166001600160a01b0316635c975abb6040518163ffffffff1660e01b815260040160206040518083038186803b158015610e6d57600080fd5b505afa158015610e81573d6000803e3d6000fd5b505050506040513d601f19601f82011682018060405250810190610ea59190615415565b15610f485760d060009054906101000a90046001600160a01b03166001600160a01b0316633f4ba83a6040518163ffffffff1660e01b8152600401600060405180830381600087803b158015610efa57600080fd5b505af1158015610f0e573d6000803e3d6000fd5b5050604051600081527f5544d0c1539dae939ba6e81485fb6352e3081f5a74f9bf445038bdcc358e34159250602001905060405180910390a15b808015610fd8575060cf60009054906101000a90046001600160a01b03166001600160a01b0316635c975abb6040518163ffffffff1660e01b815260040160206040518083038186803b158015610f9e57600080fd5b505afa158015610fb2573d6000803e3d6000fd5b505050506040513d601f19601f82011682018060405250810190610fd69190615415565b155b1561107f5760cf60009054906101000a90046001600160a01b03166001600160a01b0316638456cb596040518163ffffffff1660e01b8152600401600060405180830381600087803b15801561102d57600080fd5b505af1158015611041573d6000803e3d6000fd5b5050604051600181527f21b897e32ff7464f696022c4d6dfbf2d4eb300d162ad28e0d90f1136f5fea9cb925060200190505b60405180910390a15050565b8015801561110e575060cf60009054906101000a90046001600160a01b03166001600160a01b0316635c975abb6040518163ffffffff1660e01b815260040160206040518083038186803b1580156110d657600080fd5b505afa1580156110ea573d6000803e3d6000fd5b505050506040513d601f19601f8201168201806040525081019061110e9190615415565b156111b15760cf60009054906101000a90046001600160a01b03166001600160a01b0316633f4ba83a6040518163ffffffff1660e01b8152600401600060405180830381600087803b15801561116357600080fd5b505af1158015611177573d6000803e3d6000fd5b5050604051600081527f21b897e32ff7464f696022c4d6dfbf2d4eb300d162ad28e0d90f1136f5fea9cb9250602001905060405180910390a15b5050565b6111bd613db3565b606680546001600160a01b038381166001600160a01b0319831681179093556040519116919082907f52ae88b092de36f87fb43fe794eb1381023b9c1bce563a871154022c63dce34290600090a35050565b611217613e2c565b63ffffffff8116600090815260d96020526040902060d35460d0546001600160a01b0316639ab24eb0611248613da9565b6040516001600160e01b031960e084901b1681526001600160a01b03909116600482015260240160206040518083038186803b15801561128757600080fd5b505afa15801561129b573d6000803e3d6000fd5b505050506040513d601f19601f820116820180604052508101906112bf91906155d2565b10156112f85760405162461bcd60e51b815260206004820152600860248201526710b9b837b739b7b960c11b6044820152606401610cd6565b600161130383613bd8565b600781111561131457611314615cac565b1461134e5760405162461bcd60e51b815260206004820152600a602482015269085cdd589b5a5d1d195960b21b6044820152606401610cd6565b8054600160a01b900463ffffffff1615806113a4575060d05463ffffffff600160c01b820481169161138991600160a01b9091041642615b5a565b6113939190615b5a565b8154600160a01b900463ffffffff16115b6113da5760405162461bcd60e51b8152602060048201526007602482015266195e1c1a5c995960ca1b6044820152606401610cd6565b805463ffffffff42818116600160401b026bffffffff00000000000000001984168117855560d08054600160a01b90819004851684018516600160601b0263ffffffff60601b1990931667ffffffffffffffff60401b19909616959095179190911780865590549384048316909101600160c01b9093048216929092018116600160801b0263ffffffff60801b1983168117845560da54600160201b92169190910267ffffffff000000001990911673ffffffff0000000000000000ffffffff0000000019909216919091171781556114b1613da9565b6006820180546001600160a01b0319166001600160a01b03929092169190911790556114db6118fe565b600482015560da805463ffffffff191663ffffffff84169081179091554290611502613da9565b6001600160a01b03167fd45ad122361f16d6f50d7c4a73638f20ee48eff6186af15224e2a4a1f6d5017160405160405180910390a4506115426001609c55565b50565b6066546001600160a01b0316611559613da9565b6001600160a01b03161461157f5760405162461bcd60e51b8152600401610cd6906159e7565b82811461159e5760405162461bcd60e51b8152600401610cd690615a06565b60005b838110156117ec5760008383838181106115bd576115bd615cc2565b60d5546020909102929092013592505060ff161561163a57806001141580156115e7575080600314155b80156115f4575080600514155b8015611601575080600714155b61163a5760405162461bcd60e51b815260206004820152600a60248201526961646d696e206c6f636b60b01b6044820152606401610cd6565b60d554610100900460ff16156116b1578060021415801561165c575080600314155b8015611669575080600614155b8015611676575080600714155b6116b15760405162461bcd60e51b815260206004820152600c60248201526b6d616e61676572206c6f636b60a01b6044820152606401610cd6565b60d55462010000900460ff161561172a57806004141580156116d4575080600514155b80156116e1575080600614155b80156116ee575080600714155b61172a5760405162461bcd60e51b815260206004820152600d60248201526c676f7665726e6f72206c6f636b60981b6044820152606401610cd6565b8060d6600088888681811061174157611741615cc2565b9050602002016020810190611756919061509d565b6001600160a01b0316815260208101919091526040016000205585858381811061178257611782615cc2565b9050602002016020810190611797919061509d565b6001600160a01b03167fc456d076c1245c6b9759b3cdcb169e14e00a7739897e501844c8fe5fca6cb260826040516117d191815260200190565b60405180910390a250806117e481615c57565b9150506115a1565b5050505050565b6066546001600160a01b0316611807613da9565b6001600160a01b03161461182d5760405162461bcd60e51b8152600401610cd6906159e7565b60d5805462ff0000191662010000908117918290556040517fd9574ee4ccdf21db87aa2c1d1fee3248522d79c07c54bde4a9edeb0620bef71f9261187a92900460ff161515815260200190565b60405180910390a1565b6066546001600160a01b0316611898613da9565b6001600160a01b0316146118be5760405162461bcd60e51b8152600401610cd6906159e7565b60d5805460ff191660019081179091556040519081527f5e1c9f68365556a24387c25fd0922af31039bcfc65d36caac57401d310948e599060200161187a565b6000611908611fd0565b6119106122ea565b61191a9190615b5a565b905090565b6001600160a01b038116600090815260d6602052604081205460018114806119475750806003145b806119525750806005145b8061195d5750806007145b9392505050565b60008160405160200161197791906159ba565b604051602081830303815290604052805190602001209050919050565b600061199e613e2c565b63ffffffff851615806119e4575060d05463ffffffff600160c01b82048116916119d191600160a01b9091041642615b5a565b6119db9190615b5a565b8563ffffffff16115b611a1a5760405162461bcd60e51b8152602060048201526007602482015266195e1c1a5c995960ca1b6044820152606401610cd6565b6301312d00841115611a605760405162461bcd60e51b815260206004820152600f60248201526e0c4c2c2d88ec2e640e8de40d0d2ced608b1b6044820152606401610cd6565b60d35460d054600091906001600160a01b0316639ab24eb0611a80613da9565b6040516001600160e01b031960e084901b1681526001600160a01b03909116600482015260240160206040518083038186803b158015611abf57600080fd5b505afa158015611ad3573d6000803e3d6000fd5b505050506040513d601f19601f82011682018060405250810190611af791906155d2565b10611b0457506001611beb565b60d1543414611b555760405162461bcd60e51b815260206004820152601960248201527f4261616c20726571756972657320616e206f66666572696e67000000000000006044820152606401610cd6565b6067546040516000916001600160a01b03169034908381818185875af1925050503d8060008114611ba2576040519150601f19603f3d011682016040523d82523d6000602084013e611ba7565b606091505b5050905080611be95760405162461bcd60e51b815260206004820152600e60248201526d18dbdd5b19081b9bdd081cd95b9960921b6044820152606401610cd6565b505b6000611c2c89898080601f01602080910402602001604051908101604052809392919081815260200183838082843760009201919091525061196492505050565b60d08054919250600160e01b90910463ffffffff1690601c611c4d83615c72565b91906101000a81548163ffffffff021916908363ffffffff16021790555050604051806101a0016040528060d0601c9054906101000a900463ffffffff1663ffffffff16815260200183611ca2576000611cac565b60da5463ffffffff165b63ffffffff16815260200183611cc3576000611cc5565b425b63ffffffff16815260200183611cdc576000611cf6565b60d054611cf690600160a01b900463ffffffff1642615b72565b63ffffffff16815260200183611d0d576000611d3c565b60d05463ffffffff600160c01b8204811691611d3291600160a01b9091041642615b72565b611d3c9190615b72565b63ffffffff1681526020018863ffffffff168152602001878152602001600081526020016000815260200183611d73576000611d7b565b611d7b6118fe565b8152604080516080810182526000808252602082810182905282840182905260608301919091528301520183611db2576000611dba565b611dba613da9565b6001600160a01b03168152602090810183905260d054600160e01b900463ffffffff908116600090815260d983526040908190208451815494860151928601516060870151608088015160a089015193871667ffffffffffffffff1990981697909717600160201b958716959095029490941767ffffffffffffffff60401b1916600160401b9186169190910263ffffffff60601b191617600160601b938516939093029290921767ffffffffffffffff60801b1916600160801b9484169490940263ffffffff60a01b191693909317600160a01b919092160217815560c0820151600182015560e082015160028201556101008201516003820155610120820151600480830191909155610140830151611eda91600584019190614e22565b506101608201516006820180546001600160a01b0319166001600160a01b03909216919091179055610180909101516007909101558115611f3a5760d05460da8054600160e01b90920463ffffffff1663ffffffff199092169190911790555b8060d0601c9054906101000a900463ffffffff1663ffffffff167fb9956173924f9c1204bae41dd3737d7ed1161846d13183879cdc03c4b9f8d01960d060149054906101000a900463ffffffff168c8c8c8c89428e8e604051611fa599989796959493929190615aa2565b60405180910390a3505060d0546001609c55600160e01b900463ffffffff1690509695505050505050565b60d054604080516318160ddd60e01b815290516000926001600160a01b0316916318160ddd916004808301926020929190829003018186803b15801561201557600080fd5b505afa158015612029573d6000803e3d6000fd5b505050506040513d601f19601f8201168201806040525081019061191a91906155d2565b6066546001600160a01b0316612061613da9565b6001600160a01b0316148061207c575061207c610be6613da9565b6120985760405162461bcd60e51b8152600401610cd690615a78565b8281146120b75760405162461bcd60e51b8152600401610cd690615a06565b60005b838110156117ec5761210a8585838181106120d7576120d7615cc2565b90506020020160208101906120ec919061509d565b8484848181106120fe576120fe615cc2565b90506020020135613e8d565b8061211481615c57565b9150506120ba565b612124614eb4565b63ffffffff8216600090815260d9602052604080822081516080810192839052926005909101916004918390855b825461010083900a900460ff161515815260206001928301818104948501949093039092029101808411612152575094979650505050505050565b60db805461219a90615c22565b80601f01602080910402602001604051908101604052809291908181526020018280546121c690615c22565b80156122135780601f106121e857610100808354040283529160200191612213565b820191906000526020600020905b8154815290600101906020018083116121f657829003601f168201915b505050505081565b6066546001600160a01b031661222f613da9565b6001600160a01b0316148061224a575061224a610be6613da9565b6122665760405162461bcd60e51b8152600401610cd690615a78565b8281146122855760405162461bcd60e51b8152600401610cd690615a06565b60005b838110156117ec576122d88585838181106122a5576122a5615cc2565b90506020020160208101906122ba919061509d565b8484848181106122cc576122cc615cc2565b90506020020135613ef8565b806122e281615c57565b915050612288565b60cf54604080516318160ddd60e01b815290516000926001600160a01b0316916318160ddd916004808301926020929190829003018186803b15801561201557600080fd5b612337613e2c565b612349612342613da9565b8383613f31565b6111b16001609c55565b61235b613e2c565b63ffffffff8316600090815260d96020526040902060068101546001600160a01b03166123b55760405162461bcd60e51b815260206004820152600860248201526710b9b837b739b7b960c11b6044820152606401610cd6565b60056123c085613bd8565b60078111156123d1576123d1615cac565b146124075760405162461bcd60e51b815260206004820152600660248201526521726561647960d01b6044820152606401610cd6565b805460009061242290600160201b900463ffffffff16613bd8565b9050600681600781111561243857612438615cac565b14806124555750600381600781111561245357612453615cac565b145b806124715750600781600781111561246f5761246f615cac565b145b8061248d5750600081600781111561248b5761248b615cac565b145b6124ca5760405162461bcd60e51b815260206004820152600e60248201526d1c1c995d885c1c9bd8d95cdcd95960921b6044820152606401610cd6565b816007015461250e85858080601f01602080910402602001604051908101604052809392919081815260200183838082843760009201919091525061196492505050565b146125505760405162461bcd60e51b8152602060048201526012602482015271696e636f72726563742063616c6c6461746160701b6044820152606401610cd6565b60018201541580612565575081600101545a10155b6125a25760405162461bcd60e51b815260206004820152600e60248201526d6e6f7420656e6f7567682067617360901b6044820152606401610cd6565b60058201805461ff0019166101001790558154600190600160a01b900463ffffffff16158015906125e15750825442600160a01b90910463ffffffff16105b156125ea575060005b8080156126165750826004015460d2546126049190615bbc565b6002840154612614906064615bbc565b105b1561261f575060005b80801561264f5750606460d454846004015461263b9190615bbc565b6126459190615b9a565b61264d6118fe565b105b15612658575060005b80156126d15760058301805462ff0000191662010000179055604080516020601f87018190048102820181019092528581526000916126b29190889088908190840183828082843760009201919091525061419492505050565b9050806126cf5760058401805463ff000000191663010000001790555b505b60058301546040805160ff62010000840481161515825263010000009093049092161515602083015263ffffffff8816917fb4571f7e4e2c2b6e6185e47ab5caa5fe34087299bd49fbae945a4583101ee3f0910160405180910390a250505061273a6001609c55565b505050565b612747613db3565b61275160006141bd565b565b61275b613db3565b606780546001600160a01b038381166001600160a01b0319831681179093556040519116919082907f90cc2f570a6eb594b1580ea3e41247d2d73a55281889e86bd4ec2fc29c7e62d690600090a35050565b6066546001600160a01b03166127c1613da9565b6001600160a01b031614806127dc57506127dc610be6613da9565b6127f85760405162461bcd60e51b8152600401610cd690615a78565b8281146128175760405162461bcd60e51b8152600401610cd690615a06565b60005b838110156117ec5761286a85858381811061283757612837615cc2565b905060200201602081019061284c919061509d565b84848481811061285e5761285e615cc2565b9050602002013561420f565b8061287481615c57565b91505061281a565b600054610100900460ff161580801561289c5750600054600160ff909116105b806128b65750303b1580156128b6575060005460ff166001145b6129195760405162461bcd60e51b815260206004820152602e60248201527f496e697469616c697a61626c653a20636f6e747261637420697320616c72656160448201526d191e481a5b9a5d1a585b1a5e995960921b6064820152608401610cd6565b6000805460ff19166001179055801561293c576000805461ff0019166101001790555b612944613e2c565b6000806000806000808780602001905181019061296191906150ba565b95509550955095509550955060006001600160a01b0316846001600160a01b03161415801561299857506001600160a01b03831615155b6129d25760405162461bcd60e51b815260206004820152600b60248201526a0c081859191c881d5cd95960aa1b6044820152606401610cd6565b6040518060600160405280602d8152602001615d24602d913980516129ff9160db91602090910190614ed2565b50612a08614248565b612a10614277565b612a4f60405180604001604052806004815260200163566f746560e01b815250604051806040016040528060018152602001600d60fa1b8152506142a6565b612a588361394e565b606680546001600160a01b0385166001600160a01b03199182168117909255606780549091169091179055612a8c826142d7565b60cf80546001600160a01b03199081166001600160a01b038981169190911790925560d0805490911687831617905560da8054640100000000600160c01b031916600160201b87841681029190911791829055612af09291041660008360016142f9565b612b315760405162461bcd60e51b8152602060048201526012602482015271063616c6c206661696c7572652073657475760741b6044820152606401610cd6565b60cf5460408051635c975abb60e01b815290517f916f812584e0b001e8c6ab604fa549cc16c9d0b2f60b17aa0b4ff5eefe3e7725926001600160a01b031691635c975abb916004808301926020929190829003018186803b158015612b9557600080fd5b505afa158015612ba9573d6000803e3d6000fd5b505050506040513d601f19601f82011682018060405250810190612bcd9190615415565b60d060009054906101000a90046001600160a01b03166001600160a01b0316635c975abb6040518163ffffffff1660e01b815260040160206040518083038186803b158015612c1b57600080fd5b505afa158015612c2f573d6000803e3d6000fd5b505050506040513d601f19601f82011682018060405250810190612c539190615415565b60d05460d15460d25460d35460d454604080516306fdde0360e01b8152905163ffffffff600160c01b8804811697600160a01b810490911696959493926001600160a01b03909116916306fdde0391600480820192600092909190829003018186803b158015612cc257600080fd5b505afa158015612cd6573d6000803e3d6000fd5b505050506040513d6000823e601f3d908101601f19168201604052612cfe9190810190615571565b60d060009054906101000a90046001600160a01b03166001600160a01b03166395d89b416040518163ffffffff1660e01b815260040160006040518083038186803b158015612d4c57600080fd5b505afa158015612d60573d6000803e3d6000fd5b505050506040513d6000823e601f3d908101601f19168201604052612d889190810190615571565b612d90611fd0565b612d986122ea565b604051612db09c9b9a99989796959493929190615934565b60405180910390a1505050505050612dc86001609c55565b80156111b1576000805461ff0019169055604051600181527f7f26b83ff96e1f2b6a682f133852f6798a09c465da95921460cefb384740249890602001611073565b6066546001600160a01b0316612e1e613da9565b6001600160a01b031614612e445760405162461bcd60e51b8152600401610cd6906159e7565b60d5805461ff001916610100908117918290556040517fb496b9628e839102454d8b483ba451c4be96675009b637273a00e4ab6a59db729261187a92900460ff161515815260200190565b6066546001600160a01b0316612ea3613da9565b6001600160a01b03161480612ebe5750612ebe610be6613da9565b612eda5760405162461bcd60e51b8152600401610cd690615a78565b828114612ef95760405162461bcd60e51b8152600401610cd690615a06565b60005b838110156117ec57612f4c858583818110612f1957612f19615cc2565b9050602002016020810190612f2e919061509d565b848484818110612f4057612f40615cc2565b905060200201356144aa565b80612f5681615c57565b915050612efc565b6066546001600160a01b0316612f72613da9565b6001600160a01b031614612f985760405162461bcd60e51b8152600401610cd6906159e7565b6000846001600160a01b0316848484604051612fb5929190615741565b60006040518083038185875af1925050503d8060008114612ff2576040519150601f19603f3d011682016040523d82523d6000602084013e612ff7565b606091505b50509050806117ec5760405162461bcd60e51b815260206004820152601460248201527363616c6c206661696c757265206578656375746560601b6044820152606401610cd6565b613047613e2c565b864211156130975760405162461bcd60e51b815260206004820152601d60248201527f4552433230566f7465733a207369676e617475726520657870697265640000006044820152606401610cd6565b6001600160a01b038816600090815260d8602052604090205486146130e75760405162461bcd60e51b8152602060048201526006602482015265216e6f6e636560d01b6044820152606401610cd6565b60007f8698fbcc7273f96a670eb203cb707d8ec171123f24eaf075b1e754b71119e59e60d060009054906101000a90046001600160a01b03166001600160a01b03166306fdde036040518163ffffffff1660e01b815260040160006040518083038186803b15801561315857600080fd5b505afa15801561316c573d6000803e3d6000fd5b505050506040513d6000823e601f3d908101601f191682016040526131949190810190615571565b6040516020016131a49190615751565b60408051601f198184030181528282528051602091820120908301939093528101919091526001600160a01b038a1660608201526080810189905260a0810188905263ffffffff871660c082015285151560e0820152610100016040516020818303038152906040528051906020012090506000613221826144e3565b9050600061323182878787614531565b90508a6001600160a01b0316816001600160a01b0316146132885760405162461bcd60e51b8152602060048201526011602482015270696e76616c6964207369676e617475726560781b6044820152606401610cd6565b6001600160a01b0381166132c85760405162461bcd60e51b815260206004820152600760248201526610b9b4b3b732b960c91b6044820152606401610cd6565b6001600160a01b038b16600090815260d8602052604081208054600192906132f1908490615b5a565b909155506133029050818989613f31565b50505061330f6001609c55565b5050505050505050565b60608060005b845181101561339c5781600085600088858151811061334057613340615cc2565b60200260200101515189868151811061335b5761335b615cc2565b60200260200101516040516020016133789695949392919061576d565b6040516020818303038152906040529150808061339490615c57565b91505061331f565b50806040516024016133ae91906159ba565b60408051601f198184030181529190526020810180516001600160e01b03166346c07f8560e11b179052949350505050565b6066546001600160a01b03166133f4613da9565b6001600160a01b0316148061340f575061340f610b66613da9565b61344f5760405162461bcd60e51b815260206004820152601160248201527010b130b0b610131010b3b7bb32b93737b960791b6044820152606401610cd6565b613458816142d7565b6040516001600160a01b038216907f8c2bee8063bb4464870b7dfa415ebb2fe80bfa73ba20d6fbf0d42791274667ff90600090a250565b613497613db3565b6001600160a01b0381161561354c576040516301ffc9a760e01b815263736bd41d60e11b60048201526001600160a01b038216906301ffc9a79060240160206040518083038186803b1580156134ec57600080fd5b505afa158015613500573d6000803e3d6000fd5b505050506040513d601f19601f820116820180604052508101906135249190615415565b61354c576040516358b7533f60e11b81526001600160a01b0382166004820152602401610cd6565b606580546001600160a01b0319166001600160a01b0383169081179091556040519081527f1151116914515bc0891ff9047a6cb32cf902546f83066499bcf8ba33d2353fa29060200160405180910390a150565b6001600160a01b038116600090815260d6602052604081205460048114806135c85750806005145b806119525750806006148061195d575060071492915050565b6135e9613e2c565b60015b818110156136a6578282613601600184615bdb565b81811061361057613610615cc2565b9050602002016020810190613625919061509d565b6001600160a01b031683838381811061364057613640615cc2565b9050602002016020810190613655919061509d565b6001600160a01b0316116136945760405162461bcd60e51b815260206004820152600660248201526510b7b93232b960d11b6044820152606401610cd6565b8061369e81615c57565b9150506135ec565b506136e685858585858080602002602001604051908101604052809392919081815260200183836020028082843760009201919091525061455992505050565b6117ec6001609c55565b6066546001600160a01b0316613704613da9565b6001600160a01b0316148061371f575061371f610b66613da9565b61375f5760405162461bcd60e51b815260206004820152601160248201527010b130b0b610131010b3b7bb32b93737b960791b6044820152606401610cd6565b6000806000806000808680602001905181019061377c919061567a565b949a5092985090965094509250905060648111156137c95760405162461bcd60e51b815260206004820152600a6024820152696261642071756f72756d60b01b6044820152606401610cd6565b606481111561380d5760405162461bcd60e51b815260206004820152601060248201526f3130b21036b4b72932ba32b73a34b7b760811b6044820152606401610cd6565b600060d354118015613829575060d0546001600160a01b031615155b1561387e57613836611fd0565b82111561387e5760405162461bcd60e51b815260206004820152601660248201527573706f6e736f72203e20736861726573537570706c7960501b6044820152606401610cd6565b63ffffffff8616156138a95760d0805463ffffffff60a01b1916600160a01b63ffffffff8916021790555b63ffffffff8516156138d45760d0805463ffffffff60c01b1916600160c01b63ffffffff8816021790555b60d184905560d283905560d382905560d48190556040805163ffffffff808916825287166020820152908101859052606081018490526080810183905260a081018290527fc10758ccd7d1dd3330e7bbe13a1a1d6bbb414967932376ee24989bad95edcdc19060c00160405180910390a150505050505050565b613956613db3565b6001600160a01b0381166139bb5760405162461bcd60e51b815260206004820152602660248201527f4f776e61626c653a206e6577206f776e657220697320746865207a65726f206160448201526564647265737360d01b6064820152608401610cd6565b611542816141bd565b6001600160a01b038116600090815260d6602052604081205460028114806135c8575080600314806119525750806006148061195d575060071492915050565b613a0c613e2c565b63ffffffff8116600090815260d9602052604090206002613a2c83613bd8565b6007811115613a3d57613a3d615cac565b14613a745760405162461bcd60e51b815260206004820152600760248201526621766f74696e6760c81b6044820152606401610cd6565b60068101546001600160a01b0316613a8a613da9565b6001600160a01b03161480613b41575060d35460d05460068301546001600160a01b0391821691633a46b1a89116613ac3600142615bdb565b6040516001600160e01b031960e085901b1681526001600160a01b039092166004830152602482015260440160206040518083038186803b158015613b0757600080fd5b505afa158015613b1b573d6000803e3d6000fd5b505050506040513d601f19601f82011682018060405250810190613b3f91906155d2565b105b80613b525750613b52610b66613da9565b613b8d5760405162461bcd60e51b815260206004820152600c60248201526b2163616e63656c6c61626c6560a01b6044820152606401610cd6565b60058101805460ff1916600117905560405163ffffffff8316907f8896f24cff41b54acf76c2560861f33cd20fd76c4df0b68a3515c354e4b6c81a90600090a2506115426001609c55565b63ffffffff818116600090815260d96020908152604080832081516101a08101835281548087168252600160201b8104871694820194909452600160401b8404861681840152600160601b840486166060820152600160801b84048616608080830191909152600160a01b90940490951660a0860152600181015460c0860152600281015460e0860152600381015461010086015260048082015461012087015282519384019283905293948594909391926101408501929160058501918288855b825461010083900a900460ff161515815260206001928301818104948501949093039092029101808411613c9a5750505092845250505060068201546001600160a01b03166020820152600790910154604090910152805190915063ffffffff16613d085750600092915050565b6101408101515115613d1d5750600392915050565b604081015163ffffffff16613d355750600192915050565b806060015163ffffffff164211613d4f5750600292915050565b806080015163ffffffff164211613d695750600492915050565b8060e0015181610100015110613d825750600792915050565b6101408101516020015115613d9a5750600692915050565b50600592915050565b50919050565b600061191a6147d5565b613dbb613da9565b6001600160a01b0316613dd66033546001600160a01b031690565b6001600160a01b0316146127515760405162461bcd60e51b815260206004820181905260248201527f4f776e61626c653a2063616c6c6572206973206e6f7420746865206f776e65726044820152606401610cd6565b6002609c541415613e7f5760405162461bcd60e51b815260206004820152601f60248201527f5265656e7472616e637947756172643a207265656e7472616e742063616c6c006044820152606401610cd6565b6002609c55565b6001609c55565b60cf546040516340c10f1960e01b81526001600160a01b03848116600483015260248201849052909116906340c10f19906044015b600060405180830381600087803b158015613edc57600080fd5b505af1158015613ef0573d6000803e3d6000fd5b505050505050565b60cf54604051632770a7eb60e21b81526001600160a01b0384811660048301526024820184905290911690639dc29fac90604401613ec2565b63ffffffff8216600090815260d9602052604090206002613f5184613bd8565b6007811115613f6257613f62615cac565b14613f995760405162461bcd60e51b815260206004820152600760248201526621766f74696e6760c81b6044820152606401610cd6565b60d0548154604051630748d63560e31b81526001600160a01b038781166004830152600160401b90920463ffffffff1660248201526000929190911690633a46b1a89060440160206040518083038186803b158015613ff757600080fd5b505afa15801561400b573d6000803e3d6000fd5b505050506040513d601f19601f8201168201806040525081019061402f91906155d2565b90506000811161406b5760405162461bcd60e51b815260206004820152600760248201526610b6b2b6b132b960c91b6044820152606401610cd6565b6001600160a01b038516600090815260d76020908152604080832063ffffffff8816845290915290205460ff16156140cd5760405162461bcd60e51b81526020600482015260056024820152641d9bdd195960da1b6044820152606401610cd6565b6001600160a01b038516600090815260d76020908152604080832063ffffffff881684529091528120805460ff191660011790556141096118fe565b9050826004015481111561411f57600483018190555b8315614134576002830180548301905561413f565b600383018054830190555b8315158563ffffffff16876001600160a01b03167f786755545a7e27c12c90cc7f0934514d03fdacfe3684a340b8c4100531e7ecd58560405161418491815260200190565b60405180910390a4505050505050565b60da546000906141b790600160201b90046001600160a01b0316828460016142f9565b92915050565b603380546001600160a01b038381166001600160a01b0319831681179093556040519116919082907f8be0079c531659141344cd1fd0a4f28419497f9722a3daafe3b4186f6b6457e090600090a35050565b60d054604051632770a7eb60e21b81526001600160a01b0384811660048301526024820184905290911690639dc29fac90604401613ec2565b600054610100900460ff1661426f5760405162461bcd60e51b8152600401610cd690615a2d565b612751614809565b600054610100900460ff1661429e5760405162461bcd60e51b8152600401610cd690615a2d565b612751614840565b600054610100900460ff166142cd5760405162461bcd60e51b8152600401610cd690615a2d565b6111b18282614867565b60ce80546001600160a01b0319166001600160a01b0392909216919091179055565b6065546000906001600160a01b03161561439b576065546040805180820182526002815261060f60f31b60208201529051633af85da960e11b81526001600160a01b03909216916375f0bb52916143689189918991899189916000918291829182918291903390600401615872565b600060405180830381600087803b15801561438257600080fd5b505af1158015614396573d6000803e3d6000fd5b505050505b60675460405163468721a760e01b81526001600160a01b039091169063468721a7906143d1908890889088908890600401615833565b602060405180830381600087803b1580156143eb57600080fd5b505af11580156143ff573d6000803e3d6000fd5b505050506040513d601f19601f820116820180604052508101906144239190615415565b6065549091506001600160a01b0316156144a257606554604051631264e26d60e31b815261060f60f31b600482015282151560248201526001600160a01b0390911690639327136890604401600060405180830381600087803b15801561448957600080fd5b505af115801561449d573d6000803e3d6000fd5b505050505b949350505050565b60d0546040516340c10f1960e01b81526001600160a01b03848116600483015260248201849052909116906340c10f1990604401613ec2565b60006141b76144f06148a8565b8360405161190160f01b6020820152602281018390526042810182905260009060620160405160208183030381529060405280519060200120905092915050565b600080600061454287878787614923565b9150915061454f816149e7565b5095945050505050565b60006145636118fe565b9050821561457c5761457c614576613da9565b84613ef8565b83156145935761459361458d613da9565b8561420f565b60005b825181101561478157600073eeeeeeeeeeeeeeeeeeeeeeeeeeeeeeeeeeeeeeee6001600160a01b03168483815181106145d1576145d1615cc2565b60200260200101516001600160a01b031614156145fb57506067546001600160a01b0316316146c9565b600084838151811061460f5761460f615cc2565b602090810291909101810151606754604080516001600160a01b03928316602480830191909152825180830390910181526044909101825293840180516001600160e01b03166370a0823160e01b1790525191169161466d91615751565b600060405180830381855afa9150503d80600081146146a8576040519150601f19603f3d011682016040523d82523d6000602084013e6146ad565b606091505b50915050808060200190518101906146c591906155d2565b9150505b600083826146d78989615b5a565b6146e19190615bbc565b6146eb9190615b9a565b9050801561476c5773eeeeeeeeeeeeeeeeeeeeeeeeeeeeeeeeeeeeeeee6001600160a01b031685848151811061472357614723615cc2565b60200260200101516001600160a01b0316146147625761475d85848151811061474e5761474e615cc2565b60200260200101518983614b35565b61476c565b61476c8882614c04565b5050808061477990615c57565b915050614596565b50838361478c613da9565b6001600160a01b03167fa21c268847f2b8adac3751ed0683330abe9fdd6cc4a7a8fc6787633d4126e0d488866040516147c69291906157d7565b60405180910390a45050505050565b6000601436108015906147f2575060ce546001600160a01b031633145b15614804575060131936013560601c90565b503390565b600054610100900460ff166148305760405162461bcd60e51b8152600401610cd690615a2d565b61275161483b613da9565b6141bd565b600054610100900460ff16613e865760405162461bcd60e51b8152600401610cd690615a2d565b600054610100900460ff1661488e5760405162461bcd60e51b8152600401610cd690615a2d565b815160209283012081519190920120606891909155606955565b600061191a7f8b73c3c69bb8fe3d512ecc4cf759cc79239f7b179b0ffacaa9a75d522b39400f6148d760685490565b6069546040805160208101859052908101839052606081018290524660808201523060a082015260009060c0016040516020818303038152906040528051906020012090509392505050565b6000807f7fffffffffffffffffffffffffffffff5d576e7357a4501ddfe92f46681b20a083111561495a57506000905060036149de565b6040805160008082526020820180845289905260ff881692820192909252606081018690526080810185905260019060a0016020604051602081039080840390855afa1580156149ae573d6000803e3d6000fd5b5050604051601f1901519150506001600160a01b0381166149d7576000600192509250506149de565b9150600090505b94509492505050565b60008160048111156149fb576149fb615cac565b1415614a045750565b6001816004811115614a1857614a18615cac565b1415614a665760405162461bcd60e51b815260206004820152601860248201527f45434453413a20696e76616c6964207369676e617475726500000000000000006044820152606401610cd6565b6002816004811115614a7a57614a7a615cac565b1415614ac85760405162461bcd60e51b815260206004820152601f60248201527f45434453413a20696e76616c6964207369676e6174757265206c656e677468006044820152606401610cd6565b6003816004811115614adc57614adc615cac565b14156115425760405162461bcd60e51b815260206004820152602260248201527f45434453413a20696e76616c6964207369676e6174757265202773272076616c604482015261756560f01b6064820152608401610cd6565b600080614b9d85600063a9059cbb8787604051602401614b6a9291906001600160a01b03929092168252602082015260400190565b6040516020818303038152906040529060e01b6020820180516001600160e01b0383818316178352505050506000614c68565b91509150818015614bc6575080511580614bc6575080806020019051810190614bc69190615415565b6117ec5760405162461bcd60e51b815260206004820152600f60248201526e1d1c985b9cd9995c8819985a5b1959608a1b6044820152606401610cd6565b6000614c228383604051806020016040528060008152506000614c68565b5090508061273a5760405162461bcd60e51b815260206004820152601360248201527211551217d514905394d1915497d19052531151606a1b6044820152606401610cd6565b6065546000906060906001600160a01b031615614d0d576065546040805180820182526002815261060f60f31b60208201529051633af85da960e11b81526001600160a01b03909216916375f0bb5291614cda918a918a918a918a916000918291829182918291903390600401615872565b600060405180830381600087803b158015614cf457600080fd5b505af1158015614d08573d6000803e3d6000fd5b505050505b606754604051635229073f60e01b81526001600160a01b0390911690635229073f90614d43908990899089908990600401615833565b600060405180830381600087803b158015614d5d57600080fd5b505af1158015614d71573d6000803e3d6000fd5b505050506040513d6000823e601f3d908101601f19168201604052614d999190810190615460565b60655491935091506001600160a01b0316156149de57606554604051631264e26d60e31b815261060f60f31b600482015283151560248201526001600160a01b0390911690639327136890604401600060405180830381600087803b158015614e0157600080fd5b505af1158015614e15573d6000803e3d6000fd5b5050505094509492505050565b600183019183908215614ea45791602002820160005b83821115614e7557835183826101000a81548160ff0219169083151502179055509260200192600101602081600001049283019260010302614e38565b8015614ea25782816101000a81549060ff0219169055600101602081600001049283019260010302614e75565b505b50614eb0929150614f46565b5090565b60405180608001604052806004906020820280368337509192915050565b828054614ede90615c22565b90600052602060002090601f016020900481019282614f005760008555614ea4565b82601f10614f1957805160ff1916838001178555614ea4565b82800160010185558215614ea4579182015b82811115614ea4578251825591602001919060010190614f2b565b5b80821115614eb05760008155600101614f47565b6000614f6e614f6984615b33565b615b03565b9050828152838383011115614f8257600080fd5b61195d836020830184615bf2565b8035614f9b81615cee565b919050565b60008083601f840112614fb257600080fd5b5081356001600160401b03811115614fc957600080fd5b6020830191508360208260051b8501011115614fe457600080fd5b9250929050565b60008083601f840112614ffd57600080fd5b5081356001600160401b0381111561501457600080fd5b602083019150836020828501011115614fe457600080fd5b600082601f83011261503d57600080fd5b813561504b614f6982615b33565b81815284602083860101111561506057600080fd5b816020850160208301376000918101602001919091529392505050565b600082601f83011261508e57600080fd5b61195d83835160208501614f5b565b6000602082840312156150af57600080fd5b813561195d81615cee565b60008060008060008060c087890312156150d357600080fd5b86516150de81615cee565b60208801519096506150ef81615cee565b604088015190955061510081615cee565b606088015190945061511181615cee565b608088015190935061512281615cee565b60a08801519092506001600160401b0381111561513e57600080fd5b61514a89828a0161507d565b9150509295509295509295565b6000806000806060858703121561516d57600080fd5b843561517881615cee565b93506020850135925060408501356001600160401b0381111561519a57600080fd5b6151a687828801614feb565b95989497509550505050565b6000806000806000608086880312156151ca57600080fd5b85356151d581615cee565b9450602086013593506040860135925060608601356001600160401b038111156151fe57600080fd5b61520a88828901614fa0565b969995985093965092949392505050565b600080600080600080600080610100898b03121561523857600080fd5b883561524381615cee565b97506020890135965060408901359550606089013561526181615d11565b9450608089013561527181615d03565b935060a089013560ff8116811461528757600080fd5b979a969950949793969295929450505060c08201359160e0013590565b600080604083850312156152b757600080fd5b82356152c281615cee565b915060208301356152d281615d11565b809150509250929050565b600080600080604085870312156152f357600080fd5b84356001600160401b038082111561530a57600080fd5b61531688838901614fa0565b9096509450602087013591508082111561532f57600080fd5b506151a687828801614fa0565b6000806040838503121561534f57600080fd5b82356001600160401b038082111561536657600080fd5b818501915085601f83011261537a57600080fd5b813560208282111561538e5761538e615cd8565b8160051b61539d828201615b03565b8381528281019086840183880185018c10156153b857600080fd5b60009350835b868110156153f5578135888111156153d4578586fd5b6153e28e88838d010161502c565b85525092850192908501906001016153be565b5050809850505050615408818801614f90565b9450505050509250929050565b60006020828403121561542757600080fd5b815161195d81615d03565b6000806040838503121561544557600080fd5b823561545081615d03565b915060208301356152d281615d03565b6000806040838503121561547357600080fd5b825161547e81615d03565b60208401519092506001600160401b0381111561549a57600080fd5b6154a68582860161507d565b9150509250929050565b600080600080600080608087890312156154c957600080fd5b86356001600160401b03808211156154e057600080fd5b6154ec8a838b01614feb565b90985096506020890135915061550182615d11565b909450604088013593506060880135908082111561551e57600080fd5b5061552b89828a01614feb565b979a9699509497509295939492505050565b60006020828403121561554f57600080fd5b81356001600160401b0381111561556557600080fd5b6144a28482850161502c565b60006020828403121561558357600080fd5b81516001600160401b0381111561559957600080fd5b8201601f810184136155aa57600080fd5b6144a284825160208401614f5b565b6000602082840312156155cb57600080fd5b5035919050565b6000602082840312156155e457600080fd5b5051919050565b6000602082840312156155fd57600080fd5b813561195d81615d11565b6000806040838503121561561b57600080fd5b823561545081615d11565b60008060006040848603121561563b57600080fd5b833561564681615d11565b925060208401356001600160401b0381111561566157600080fd5b61566d86828701614feb565b9497909650939450505050565b60008060008060008060c0878903121561569357600080fd5b865161569e81615d11565b60208801519096506156af81615d11565b6040880151606089015160808a015160a0909a0151989b929a5090989097909650945092505050565b81835281816020850137506000828201602090810191909152601f909101601f19169091010190565b60008151808452615719816020860160208601615bf2565b601f01601f19169290920160200192915050565b6002811061573d5761573d615cac565b9052565b8183823760009101908152919050565b60008251615763818460208701615bf2565b9190910192915050565b6000875161577f818460208c01615bf2565b808301905060ff60f81b8860f81b1681526bffffffffffffffffffffffff198760601b16600182015285601582015284603582015283516157c7816055840160208801615bf2565b0160550198975050505050505050565b6001600160a01b038381168252604060208084018290528451918401829052600092858201929091906060860190855b81811015615825578551851683529483019491830191600101615807565b509098975050505050505050565b60018060a01b038516815283602082015260806040820152600061585a6080830185615701565b9050615869606083018461572d565b95945050505050565b6001600160a01b038c81168252602082018c90526101606040830181905260009161589f8483018e615701565b91506158ae606085018d61572d565b8a60808501528960a08501528860c085015280881660e08501528087166101008501528382036101208501526158e48287615701565b925080851661014085015250509c9b505050505050505050505050565b60808101818360005b600481101561592b578151151583526020928301929091019060010161590a565b50505092915050565b60006101808e151583528d1515602084015263ffffffff808e166040850152808d166060850152508a60808401528960a08401528860c08401528760e08401528061010084015261598781840188615701565b905082810361012084015261599c8187615701565b610140840195909552505061016001529a9950505050505050505050565b60208152600061195d6020830184615701565b60208101600883106159e1576159e1615cac565b91905290565b602080825260059082015264085898585b60da1b604082015260600190565b6020808252600d908201526c2161727261792070617269747960981b604082015260600190565b6020808252602b908201527f496e697469616c697a61626c653a20636f6e7472616374206973206e6f74206960408201526a6e697469616c697a696e6760a81b606082015260800190565b60208082526010908201526f10b130b0b610131010b6b0b730b3b2b960811b604082015260600190565b600063ffffffff808c16835260e06020840152615ac360e084018b8d6156d8565b818a16604085015288606085015287151560808501528660a085015283810360c0850152615af28186886156d8565b9d9c50505050505050505050505050565b604051601f8201601f191681016001600160401b0381118282101715615b2b57615b2b615cd8565b604052919050565b60006001600160401b03821115615b4c57615b4c615cd8565b50601f01601f191660200190565b60008219821115615b6d57615b6d615c96565b500190565b600063ffffffff808316818516808303821115615b9157615b91615c96565b01949350505050565b600082615bb757634e487b7160e01b600052601260045260246000fd5b500490565b6000816000190483118215151615615bd657615bd6615c96565b500290565b600082821015615bed57615bed615c96565b500390565b60005b83811015615c0d578181015183820152602001615bf5565b83811115615c1c576000848401525b50505050565b600181811c90821680615c3657607f821691505b60208210811415613da357634e487b7160e01b600052602260045260246000fd5b6000600019821415615c6b57615c6b615c96565b5060010190565b600063ffffffff80831681811415615c8c57615c8c615c96565b6001019392505050565b634e487b7160e01b600052601160045260246000fd5b634e487b7160e01b600052602160045260246000fd5b634e487b7160e01b600052603260045260246000fd5b634e487b7160e01b600052604160045260246000fd5b6001600160a01b038116811461154257600080fd5b801515811461154257600080fd5b63ffffffff8116811461154257600080fdfe322e322e352b6f70656e67736e2e70617961626c65776974686261616c2e6972656c6179726563697069656e74a2646970667358221220178cefb04e476abe5af61c5f7db34d2c912defb38857ba62ff0b25f75ad3c9ac64736f6c63430008070033",
          "deployedBytecode": "0x6080604052600436106103a25760003560e01c80638009ba1f116101e7578063cf043df31161010d578063ed0cdf15116100a0578063f460124d1161006f578063f460124d14610beb578063f81cbd2614610c0b578063fab514c014610c21578063fe47668614610c4157600080fd5b8063ed0cdf1514610b6b578063ee4d88ed14610b8b578063f2fde38b14610bab578063f3ae241514610bcb57600080fd5b8063da35c664116100dc578063da35c66414610ae7578063da74222814610b0b578063e19a9dd914610b2b578063e43581b814610b4b57600080fd5b8063cf043df314610a4c578063d33defc714610a6c578063d4b8399214610aa7578063d61f27ae14610ac757600080fd5b8063a4f9edbf11610185578063b634e4e011610154578063b634e4e0146109cb578063c00d0775146109e8578063c4e931f614610a0f578063c910638914610a2e57600080fd5b8063a4f9edbf14610956578063acca30a214610976578063b1e3f40c1461098b578063b3c98bbb146109ab57600080fd5b806398a527cc116101c157806398a527cc146108dc5780639a2f747f146108fc578063a06db7dc14610912578063a26ec96e1461093657600080fd5b80638009ba1f1461088857806383bf8459146108a85780638da5cb5b146108be57600080fd5b80634526d846116102cc5780635ec286961161026a578063715018a611610239578063715018a614610815578063776d1a011461082a5780637ceab3b11461084a5780637da0a8771461086a57600080fd5b80635ec28696146107a0578063635e99aa146107c057806367f61f07146107d5578063706a6e93146107f557600080fd5b806352ba1da7116102a657806352ba1da7146106f6578063572b6c05146107235780635aef7de6146107525780635cfd6f7e1461078a57600080fd5b80634526d846146106875780634630affc146106a7578063486ff0cd146106d457600080fd5b8063136d731a11610344578063258bfe2f11610313578063258bfe2f146106125780633232444c146106325780633a82ffc81461065f5780633a98ef391461067257600080fd5b8063136d731a146105a557806316fd265d146105ba57806318160ddd146105cf57806324d7806c146105f257600080fd5b8063056b0dcd11610380578063056b0dcd14610523578063086cfca8146105455780630a796e19146105655780630f656a211461058557600080fd5b8063013cf08b146103a7578063027cdf45146104c057806302a251a3146104ea575b600080fd5b3480156103b357600080fd5b506104436103c23660046155b9565b60d960205260009081526040902080546001820154600283015460038401546004850154600686015460079096015463ffffffff80871697600160201b8804821697600160401b8104831697600160601b8204841697600160801b8304851697600160a01b909304909416959094919290916001600160a01b03909116908c565b6040805163ffffffff9d8e1681529b8d1660208d0152998c16998b0199909952968a1660608a015294891660808901529790921660a087015260c086015260e08501526101008401949094526101208301939093526001600160a01b03909216610140820152610160810191909152610180015b60405180910390f35b3480156104cc57600080fd5b5060d5546104da9060ff1681565b60405190151581526020016104b7565b3480156104f657600080fd5b5060d05461050e90600160a01b900463ffffffff1681565b60405163ffffffff90911681526020016104b7565b34801561052f57600080fd5b5061054361053e366004615432565b610c6e565b005b34801561055157600080fd5b5061054361056036600461509d565b6111b5565b34801561057157600080fd5b506105436105803660046155eb565b61120f565b34801561059157600080fd5b506105436105a03660046152dd565b611545565b3480156105b157600080fd5b506105436117f3565b3480156105c657600080fd5b50610543611884565b3480156105db57600080fd5b506105e46118fe565b6040519081526020016104b7565b3480156105fe57600080fd5b506104da61060d36600461509d565b61191f565b34801561061e57600080fd5b506105e461062d36600461553d565b611964565b34801561063e57600080fd5b506105e461064d36600461509d565b60d66020526000908152604090205481565b6105e461066d3660046154b0565b611994565b34801561067e57600080fd5b506105e4611fd0565b34801561069357600080fd5b506105436106a23660046152dd565b61204d565b3480156106b357600080fd5b506106c76106c23660046155eb565b61211c565b6040516104b79190615901565b3480156106e057600080fd5b506106e961218d565b6040516104b791906159ba565b34801561070257600080fd5b506105e461071136600461509d565b60d86020526000908152604090205481565b34801561072f57600080fd5b506104da61073e36600461509d565b60ce546001600160a01b0391821691161490565b34801561075e57600080fd5b50606654610772906001600160a01b031681565b6040516001600160a01b0390911681526020016104b7565b34801561079657600080fd5b506105e460d35481565b3480156107ac57600080fd5b506105436107bb3660046152dd565b61221b565b3480156107cc57600080fd5b506105e46122ea565b3480156107e157600080fd5b506105436107f0366004615608565b61232f565b34801561080157600080fd5b50610543610810366004615626565b612353565b34801561082157600080fd5b5061054361273f565b34801561083657600080fd5b5061054361084536600461509d565b612753565b34801561085657600080fd5b50606554610772906001600160a01b031681565b34801561087657600080fd5b5060ce546001600160a01b0316610772565b34801561089457600080fd5b5060d054610772906001600160a01b031681565b3480156108b457600080fd5b506105e460d45481565b3480156108ca57600080fd5b506033546001600160a01b0316610772565b3480156108e857600080fd5b506105436108f73660046152dd565b6127ad565b34801561090857600080fd5b506105e460d15481565b34801561091e57600080fd5b5060d05461050e90600160c01b900463ffffffff1681565b34801561094257600080fd5b5060d5546104da9062010000900460ff1681565b34801561096257600080fd5b5061054361097136600461553d565b61287c565b34801561098257600080fd5b50610543612e0a565b34801561099757600080fd5b506105436109a63660046152dd565b612e8f565b3480156109b757600080fd5b506105436109c6366004615157565b612f5e565b3480156109d757600080fd5b5060da5461050e9063ffffffff1681565b3480156109f457600080fd5b5060da5461077290600160201b90046001600160a01b031681565b348015610a1b57600080fd5b5060d5546104da90610100900460ff1681565b348015610a3a57600080fd5b506065546001600160a01b0316610772565b348015610a5857600080fd5b50610543610a6736600461521b565b61303f565b348015610a7857600080fd5b506104da610a873660046152a4565b60d760209081526000928352604080842090915290825290205460ff1681565b348015610ab357600080fd5b50606754610772906001600160a01b031681565b348015610ad357600080fd5b506106e9610ae236600461533c565b613319565b348015610af357600080fd5b5060d05461050e90600160e01b900463ffffffff1681565b348015610b1757600080fd5b50610543610b2636600461509d565b6133e0565b348015610b3757600080fd5b50610543610b4636600461509d565b61348f565b348015610b5757600080fd5b506104da610b6636600461509d565b6135a0565b348015610b7757600080fd5b50610543610b863660046151b2565b6135e1565b348015610b9757600080fd5b50610543610ba636600461553d565b6136f0565b348015610bb757600080fd5b50610543610bc636600461509d565b61394e565b348015610bd757600080fd5b506104da610be636600461509d565b6139c4565b348015610bf757600080fd5b5060cf54610772906001600160a01b031681565b348015610c1757600080fd5b506105e460d25481565b348015610c2d57600080fd5b50610543610c3c3660046155eb565b613a04565b348015610c4d57600080fd5b50610c61610c5c3660046155eb565b613bd8565b6040516104b791906159cd565b6066546001600160a01b0316610c82613da9565b6001600160a01b03161480610c9d5750610c9d61060d613da9565b610cdf5760405162461bcd60e51b815260206004820152600e60248201526d10b130b0b610131010b0b236b4b760911b60448201526064015b60405180910390fd5b818015610d6f575060d060009054906101000a90046001600160a01b03166001600160a01b0316635c975abb6040518163ffffffff1660e01b815260040160206040518083038186803b158015610d3557600080fd5b505afa158015610d49573d6000803e3d6000fd5b505050506040513d601f19601f82011682018060405250810190610d6d9190615415565b155b15610e165760d060009054906101000a90046001600160a01b03166001600160a01b0316638456cb596040518163ffffffff1660e01b8152600401600060405180830381600087803b158015610dc457600080fd5b505af1158015610dd8573d6000803e3d6000fd5b5050604051600181527f5544d0c1539dae939ba6e81485fb6352e3081f5a74f9bf445038bdcc358e34159250602001905060405180910390a1610f48565b81158015610ea5575060d060009054906101000a90046001600160a01b03166001600160a01b0316635c975abb6040518163ffffffff1660e01b815260040160206040518083038186803b158015610e6d57600080fd5b505afa158015610e81573d6000803e3d6000fd5b505050506040513d601f19601f82011682018060405250810190610ea59190615415565b15610f485760d060009054906101000a90046001600160a01b03166001600160a01b0316633f4ba83a6040518163ffffffff1660e01b8152600401600060405180830381600087803b158015610efa57600080fd5b505af1158015610f0e573d6000803e3d6000fd5b5050604051600081527f5544d0c1539dae939ba6e81485fb6352e3081f5a74f9bf445038bdcc358e34159250602001905060405180910390a15b808015610fd8575060cf60009054906101000a90046001600160a01b03166001600160a01b0316635c975abb6040518163ffffffff1660e01b815260040160206040518083038186803b158015610f9e57600080fd5b505afa158015610fb2573d6000803e3d6000fd5b505050506040513d601f19601f82011682018060405250810190610fd69190615415565b155b1561107f5760cf60009054906101000a90046001600160a01b03166001600160a01b0316638456cb596040518163ffffffff1660e01b8152600401600060405180830381600087803b15801561102d57600080fd5b505af1158015611041573d6000803e3d6000fd5b5050604051600181527f21b897e32ff7464f696022c4d6dfbf2d4eb300d162ad28e0d90f1136f5fea9cb925060200190505b60405180910390a15050565b8015801561110e575060cf60009054906101000a90046001600160a01b03166001600160a01b0316635c975abb6040518163ffffffff1660e01b815260040160206040518083038186803b1580156110d657600080fd5b505afa1580156110ea573d6000803e3d6000fd5b505050506040513d601f19601f8201168201806040525081019061110e9190615415565b156111b15760cf60009054906101000a90046001600160a01b03166001600160a01b0316633f4ba83a6040518163ffffffff1660e01b8152600401600060405180830381600087803b15801561116357600080fd5b505af1158015611177573d6000803e3d6000fd5b5050604051600081527f21b897e32ff7464f696022c4d6dfbf2d4eb300d162ad28e0d90f1136f5fea9cb9250602001905060405180910390a15b5050565b6111bd613db3565b606680546001600160a01b038381166001600160a01b0319831681179093556040519116919082907f52ae88b092de36f87fb43fe794eb1381023b9c1bce563a871154022c63dce34290600090a35050565b611217613e2c565b63ffffffff8116600090815260d96020526040902060d35460d0546001600160a01b0316639ab24eb0611248613da9565b6040516001600160e01b031960e084901b1681526001600160a01b03909116600482015260240160206040518083038186803b15801561128757600080fd5b505afa15801561129b573d6000803e3d6000fd5b505050506040513d601f19601f820116820180604052508101906112bf91906155d2565b10156112f85760405162461bcd60e51b815260206004820152600860248201526710b9b837b739b7b960c11b6044820152606401610cd6565b600161130383613bd8565b600781111561131457611314615cac565b1461134e5760405162461bcd60e51b815260206004820152600a602482015269085cdd589b5a5d1d195960b21b6044820152606401610cd6565b8054600160a01b900463ffffffff1615806113a4575060d05463ffffffff600160c01b820481169161138991600160a01b9091041642615b5a565b6113939190615b5a565b8154600160a01b900463ffffffff16115b6113da5760405162461bcd60e51b8152602060048201526007602482015266195e1c1a5c995960ca1b6044820152606401610cd6565b805463ffffffff42818116600160401b026bffffffff00000000000000001984168117855560d08054600160a01b90819004851684018516600160601b0263ffffffff60601b1990931667ffffffffffffffff60401b19909616959095179190911780865590549384048316909101600160c01b9093048216929092018116600160801b0263ffffffff60801b1983168117845560da54600160201b92169190910267ffffffff000000001990911673ffffffff0000000000000000ffffffff0000000019909216919091171781556114b1613da9565b6006820180546001600160a01b0319166001600160a01b03929092169190911790556114db6118fe565b600482015560da805463ffffffff191663ffffffff84169081179091554290611502613da9565b6001600160a01b03167fd45ad122361f16d6f50d7c4a73638f20ee48eff6186af15224e2a4a1f6d5017160405160405180910390a4506115426001609c55565b50565b6066546001600160a01b0316611559613da9565b6001600160a01b03161461157f5760405162461bcd60e51b8152600401610cd6906159e7565b82811461159e5760405162461bcd60e51b8152600401610cd690615a06565b60005b838110156117ec5760008383838181106115bd576115bd615cc2565b60d5546020909102929092013592505060ff161561163a57806001141580156115e7575080600314155b80156115f4575080600514155b8015611601575080600714155b61163a5760405162461bcd60e51b815260206004820152600a60248201526961646d696e206c6f636b60b01b6044820152606401610cd6565b60d554610100900460ff16156116b1578060021415801561165c575080600314155b8015611669575080600614155b8015611676575080600714155b6116b15760405162461bcd60e51b815260206004820152600c60248201526b6d616e61676572206c6f636b60a01b6044820152606401610cd6565b60d55462010000900460ff161561172a57806004141580156116d4575080600514155b80156116e1575080600614155b80156116ee575080600714155b61172a5760405162461bcd60e51b815260206004820152600d60248201526c676f7665726e6f72206c6f636b60981b6044820152606401610cd6565b8060d6600088888681811061174157611741615cc2565b9050602002016020810190611756919061509d565b6001600160a01b0316815260208101919091526040016000205585858381811061178257611782615cc2565b9050602002016020810190611797919061509d565b6001600160a01b03167fc456d076c1245c6b9759b3cdcb169e14e00a7739897e501844c8fe5fca6cb260826040516117d191815260200190565b60405180910390a250806117e481615c57565b9150506115a1565b5050505050565b6066546001600160a01b0316611807613da9565b6001600160a01b03161461182d5760405162461bcd60e51b8152600401610cd6906159e7565b60d5805462ff0000191662010000908117918290556040517fd9574ee4ccdf21db87aa2c1d1fee3248522d79c07c54bde4a9edeb0620bef71f9261187a92900460ff161515815260200190565b60405180910390a1565b6066546001600160a01b0316611898613da9565b6001600160a01b0316146118be5760405162461bcd60e51b8152600401610cd6906159e7565b60d5805460ff191660019081179091556040519081527f5e1c9f68365556a24387c25fd0922af31039bcfc65d36caac57401d310948e599060200161187a565b6000611908611fd0565b6119106122ea565b61191a9190615b5a565b905090565b6001600160a01b038116600090815260d6602052604081205460018114806119475750806003145b806119525750806005145b8061195d5750806007145b9392505050565b60008160405160200161197791906159ba565b604051602081830303815290604052805190602001209050919050565b600061199e613e2c565b63ffffffff851615806119e4575060d05463ffffffff600160c01b82048116916119d191600160a01b9091041642615b5a565b6119db9190615b5a565b8563ffffffff16115b611a1a5760405162461bcd60e51b8152602060048201526007602482015266195e1c1a5c995960ca1b6044820152606401610cd6565b6301312d00841115611a605760405162461bcd60e51b815260206004820152600f60248201526e0c4c2c2d88ec2e640e8de40d0d2ced608b1b6044820152606401610cd6565b60d35460d054600091906001600160a01b0316639ab24eb0611a80613da9565b6040516001600160e01b031960e084901b1681526001600160a01b03909116600482015260240160206040518083038186803b158015611abf57600080fd5b505afa158015611ad3573d6000803e3d6000fd5b505050506040513d601f19601f82011682018060405250810190611af791906155d2565b10611b0457506001611beb565b60d1543414611b555760405162461bcd60e51b815260206004820152601960248201527f4261616c20726571756972657320616e206f66666572696e67000000000000006044820152606401610cd6565b6067546040516000916001600160a01b03169034908381818185875af1925050503d8060008114611ba2576040519150601f19603f3d011682016040523d82523d6000602084013e611ba7565b606091505b5050905080611be95760405162461bcd60e51b815260206004820152600e60248201526d18dbdd5b19081b9bdd081cd95b9960921b6044820152606401610cd6565b505b6000611c2c89898080601f01602080910402602001604051908101604052809392919081815260200183838082843760009201919091525061196492505050565b60d08054919250600160e01b90910463ffffffff1690601c611c4d83615c72565b91906101000a81548163ffffffff021916908363ffffffff16021790555050604051806101a0016040528060d0601c9054906101000a900463ffffffff1663ffffffff16815260200183611ca2576000611cac565b60da5463ffffffff165b63ffffffff16815260200183611cc3576000611cc5565b425b63ffffffff16815260200183611cdc576000611cf6565b60d054611cf690600160a01b900463ffffffff1642615b72565b63ffffffff16815260200183611d0d576000611d3c565b60d05463ffffffff600160c01b8204811691611d3291600160a01b9091041642615b72565b611d3c9190615b72565b63ffffffff1681526020018863ffffffff168152602001878152602001600081526020016000815260200183611d73576000611d7b565b611d7b6118fe565b8152604080516080810182526000808252602082810182905282840182905260608301919091528301520183611db2576000611dba565b611dba613da9565b6001600160a01b03168152602090810183905260d054600160e01b900463ffffffff908116600090815260d983526040908190208451815494860151928601516060870151608088015160a089015193871667ffffffffffffffff1990981697909717600160201b958716959095029490941767ffffffffffffffff60401b1916600160401b9186169190910263ffffffff60601b191617600160601b938516939093029290921767ffffffffffffffff60801b1916600160801b9484169490940263ffffffff60a01b191693909317600160a01b919092160217815560c0820151600182015560e082015160028201556101008201516003820155610120820151600480830191909155610140830151611eda91600584019190614e22565b506101608201516006820180546001600160a01b0319166001600160a01b03909216919091179055610180909101516007909101558115611f3a5760d05460da8054600160e01b90920463ffffffff1663ffffffff199092169190911790555b8060d0601c9054906101000a900463ffffffff1663ffffffff167fb9956173924f9c1204bae41dd3737d7ed1161846d13183879cdc03c4b9f8d01960d060149054906101000a900463ffffffff168c8c8c8c89428e8e604051611fa599989796959493929190615aa2565b60405180910390a3505060d0546001609c55600160e01b900463ffffffff1690509695505050505050565b60d054604080516318160ddd60e01b815290516000926001600160a01b0316916318160ddd916004808301926020929190829003018186803b15801561201557600080fd5b505afa158015612029573d6000803e3d6000fd5b505050506040513d601f19601f8201168201806040525081019061191a91906155d2565b6066546001600160a01b0316612061613da9565b6001600160a01b0316148061207c575061207c610be6613da9565b6120985760405162461bcd60e51b8152600401610cd690615a78565b8281146120b75760405162461bcd60e51b8152600401610cd690615a06565b60005b838110156117ec5761210a8585838181106120d7576120d7615cc2565b90506020020160208101906120ec919061509d565b8484848181106120fe576120fe615cc2565b90506020020135613e8d565b8061211481615c57565b9150506120ba565b612124614eb4565b63ffffffff8216600090815260d9602052604080822081516080810192839052926005909101916004918390855b825461010083900a900460ff161515815260206001928301818104948501949093039092029101808411612152575094979650505050505050565b60db805461219a90615c22565b80601f01602080910402602001604051908101604052809291908181526020018280546121c690615c22565b80156122135780601f106121e857610100808354040283529160200191612213565b820191906000526020600020905b8154815290600101906020018083116121f657829003601f168201915b505050505081565b6066546001600160a01b031661222f613da9565b6001600160a01b0316148061224a575061224a610be6613da9565b6122665760405162461bcd60e51b8152600401610cd690615a78565b8281146122855760405162461bcd60e51b8152600401610cd690615a06565b60005b838110156117ec576122d88585838181106122a5576122a5615cc2565b90506020020160208101906122ba919061509d565b8484848181106122cc576122cc615cc2565b90506020020135613ef8565b806122e281615c57565b915050612288565b60cf54604080516318160ddd60e01b815290516000926001600160a01b0316916318160ddd916004808301926020929190829003018186803b15801561201557600080fd5b612337613e2c565b612349612342613da9565b8383613f31565b6111b16001609c55565b61235b613e2c565b63ffffffff8316600090815260d96020526040902060068101546001600160a01b03166123b55760405162461bcd60e51b815260206004820152600860248201526710b9b837b739b7b960c11b6044820152606401610cd6565b60056123c085613bd8565b60078111156123d1576123d1615cac565b146124075760405162461bcd60e51b815260206004820152600660248201526521726561647960d01b6044820152606401610cd6565b805460009061242290600160201b900463ffffffff16613bd8565b9050600681600781111561243857612438615cac565b14806124555750600381600781111561245357612453615cac565b145b806124715750600781600781111561246f5761246f615cac565b145b8061248d5750600081600781111561248b5761248b615cac565b145b6124ca5760405162461bcd60e51b815260206004820152600e60248201526d1c1c995d885c1c9bd8d95cdcd95960921b6044820152606401610cd6565b816007015461250e85858080601f01602080910402602001604051908101604052809392919081815260200183838082843760009201919091525061196492505050565b146125505760405162461bcd60e51b8152602060048201526012602482015271696e636f72726563742063616c6c6461746160701b6044820152606401610cd6565b60018201541580612565575081600101545a10155b6125a25760405162461bcd60e51b815260206004820152600e60248201526d6e6f7420656e6f7567682067617360901b6044820152606401610cd6565b60058201805461ff0019166101001790558154600190600160a01b900463ffffffff16158015906125e15750825442600160a01b90910463ffffffff16105b156125ea575060005b8080156126165750826004015460d2546126049190615bbc565b6002840154612614906064615bbc565b105b1561261f575060005b80801561264f5750606460d454846004015461263b9190615bbc565b6126459190615b9a565b61264d6118fe565b105b15612658575060005b80156126d15760058301805462ff0000191662010000179055604080516020601f87018190048102820181019092528581526000916126b29190889088908190840183828082843760009201919091525061419492505050565b9050806126cf5760058401805463ff000000191663010000001790555b505b60058301546040805160ff62010000840481161515825263010000009093049092161515602083015263ffffffff8816917fb4571f7e4e2c2b6e6185e47ab5caa5fe34087299bd49fbae945a4583101ee3f0910160405180910390a250505061273a6001609c55565b505050565b612747613db3565b61275160006141bd565b565b61275b613db3565b606780546001600160a01b038381166001600160a01b0319831681179093556040519116919082907f90cc2f570a6eb594b1580ea3e41247d2d73a55281889e86bd4ec2fc29c7e62d690600090a35050565b6066546001600160a01b03166127c1613da9565b6001600160a01b031614806127dc57506127dc610be6613da9565b6127f85760405162461bcd60e51b8152600401610cd690615a78565b8281146128175760405162461bcd60e51b8152600401610cd690615a06565b60005b838110156117ec5761286a85858381811061283757612837615cc2565b905060200201602081019061284c919061509d565b84848481811061285e5761285e615cc2565b9050602002013561420f565b8061287481615c57565b91505061281a565b600054610100900460ff161580801561289c5750600054600160ff909116105b806128b65750303b1580156128b6575060005460ff166001145b6129195760405162461bcd60e51b815260206004820152602e60248201527f496e697469616c697a61626c653a20636f6e747261637420697320616c72656160448201526d191e481a5b9a5d1a585b1a5e995960921b6064820152608401610cd6565b6000805460ff19166001179055801561293c576000805461ff0019166101001790555b612944613e2c565b6000806000806000808780602001905181019061296191906150ba565b95509550955095509550955060006001600160a01b0316846001600160a01b03161415801561299857506001600160a01b03831615155b6129d25760405162461bcd60e51b815260206004820152600b60248201526a0c081859191c881d5cd95960aa1b6044820152606401610cd6565b6040518060600160405280602d8152602001615d24602d913980516129ff9160db91602090910190614ed2565b50612a08614248565b612a10614277565b612a4f60405180604001604052806004815260200163566f746560e01b815250604051806040016040528060018152602001600d60fa1b8152506142a6565b612a588361394e565b606680546001600160a01b0385166001600160a01b03199182168117909255606780549091169091179055612a8c826142d7565b60cf80546001600160a01b03199081166001600160a01b038981169190911790925560d0805490911687831617905560da8054640100000000600160c01b031916600160201b87841681029190911791829055612af09291041660008360016142f9565b612b315760405162461bcd60e51b8152602060048201526012602482015271063616c6c206661696c7572652073657475760741b6044820152606401610cd6565b60cf5460408051635c975abb60e01b815290517f916f812584e0b001e8c6ab604fa549cc16c9d0b2f60b17aa0b4ff5eefe3e7725926001600160a01b031691635c975abb916004808301926020929190829003018186803b158015612b9557600080fd5b505afa158015612ba9573d6000803e3d6000fd5b505050506040513d601f19601f82011682018060405250810190612bcd9190615415565b60d060009054906101000a90046001600160a01b03166001600160a01b0316635c975abb6040518163ffffffff1660e01b815260040160206040518083038186803b158015612c1b57600080fd5b505afa158015612c2f573d6000803e3d6000fd5b505050506040513d601f19601f82011682018060405250810190612c539190615415565b60d05460d15460d25460d35460d454604080516306fdde0360e01b8152905163ffffffff600160c01b8804811697600160a01b810490911696959493926001600160a01b03909116916306fdde0391600480820192600092909190829003018186803b158015612cc257600080fd5b505afa158015612cd6573d6000803e3d6000fd5b505050506040513d6000823e601f3d908101601f19168201604052612cfe9190810190615571565b60d060009054906101000a90046001600160a01b03166001600160a01b03166395d89b416040518163ffffffff1660e01b815260040160006040518083038186803b158015612d4c57600080fd5b505afa158015612d60573d6000803e3d6000fd5b505050506040513d6000823e601f3d908101601f19168201604052612d889190810190615571565b612d90611fd0565b612d986122ea565b604051612db09c9b9a99989796959493929190615934565b60405180910390a1505050505050612dc86001609c55565b80156111b1576000805461ff0019169055604051600181527f7f26b83ff96e1f2b6a682f133852f6798a09c465da95921460cefb384740249890602001611073565b6066546001600160a01b0316612e1e613da9565b6001600160a01b031614612e445760405162461bcd60e51b8152600401610cd6906159e7565b60d5805461ff001916610100908117918290556040517fb496b9628e839102454d8b483ba451c4be96675009b637273a00e4ab6a59db729261187a92900460ff161515815260200190565b6066546001600160a01b0316612ea3613da9565b6001600160a01b03161480612ebe5750612ebe610be6613da9565b612eda5760405162461bcd60e51b8152600401610cd690615a78565b828114612ef95760405162461bcd60e51b8152600401610cd690615a06565b60005b838110156117ec57612f4c858583818110612f1957612f19615cc2565b9050602002016020810190612f2e919061509d565b848484818110612f4057612f40615cc2565b905060200201356144aa565b80612f5681615c57565b915050612efc565b6066546001600160a01b0316612f72613da9565b6001600160a01b031614612f985760405162461bcd60e51b8152600401610cd6906159e7565b6000846001600160a01b0316848484604051612fb5929190615741565b60006040518083038185875af1925050503d8060008114612ff2576040519150601f19603f3d011682016040523d82523d6000602084013e612ff7565b606091505b50509050806117ec5760405162461bcd60e51b815260206004820152601460248201527363616c6c206661696c757265206578656375746560601b6044820152606401610cd6565b613047613e2c565b864211156130975760405162461bcd60e51b815260206004820152601d60248201527f4552433230566f7465733a207369676e617475726520657870697265640000006044820152606401610cd6565b6001600160a01b038816600090815260d8602052604090205486146130e75760405162461bcd60e51b8152602060048201526006602482015265216e6f6e636560d01b6044820152606401610cd6565b60007f8698fbcc7273f96a670eb203cb707d8ec171123f24eaf075b1e754b71119e59e60d060009054906101000a90046001600160a01b03166001600160a01b03166306fdde036040518163ffffffff1660e01b815260040160006040518083038186803b15801561315857600080fd5b505afa15801561316c573d6000803e3d6000fd5b505050506040513d6000823e601f3d908101601f191682016040526131949190810190615571565b6040516020016131a49190615751565b60408051601f198184030181528282528051602091820120908301939093528101919091526001600160a01b038a1660608201526080810189905260a0810188905263ffffffff871660c082015285151560e0820152610100016040516020818303038152906040528051906020012090506000613221826144e3565b9050600061323182878787614531565b90508a6001600160a01b0316816001600160a01b0316146132885760405162461bcd60e51b8152602060048201526011602482015270696e76616c6964207369676e617475726560781b6044820152606401610cd6565b6001600160a01b0381166132c85760405162461bcd60e51b815260206004820152600760248201526610b9b4b3b732b960c91b6044820152606401610cd6565b6001600160a01b038b16600090815260d8602052604081208054600192906132f1908490615b5a565b909155506133029050818989613f31565b50505061330f6001609c55565b5050505050505050565b60608060005b845181101561339c5781600085600088858151811061334057613340615cc2565b60200260200101515189868151811061335b5761335b615cc2565b60200260200101516040516020016133789695949392919061576d565b6040516020818303038152906040529150808061339490615c57565b91505061331f565b50806040516024016133ae91906159ba565b60408051601f198184030181529190526020810180516001600160e01b03166346c07f8560e11b179052949350505050565b6066546001600160a01b03166133f4613da9565b6001600160a01b0316148061340f575061340f610b66613da9565b61344f5760405162461bcd60e51b815260206004820152601160248201527010b130b0b610131010b3b7bb32b93737b960791b6044820152606401610cd6565b613458816142d7565b6040516001600160a01b038216907f8c2bee8063bb4464870b7dfa415ebb2fe80bfa73ba20d6fbf0d42791274667ff90600090a250565b613497613db3565b6001600160a01b0381161561354c576040516301ffc9a760e01b815263736bd41d60e11b60048201526001600160a01b038216906301ffc9a79060240160206040518083038186803b1580156134ec57600080fd5b505afa158015613500573d6000803e3d6000fd5b505050506040513d601f19601f820116820180604052508101906135249190615415565b61354c576040516358b7533f60e11b81526001600160a01b0382166004820152602401610cd6565b606580546001600160a01b0319166001600160a01b0383169081179091556040519081527f1151116914515bc0891ff9047a6cb32cf902546f83066499bcf8ba33d2353fa29060200160405180910390a150565b6001600160a01b038116600090815260d6602052604081205460048114806135c85750806005145b806119525750806006148061195d575060071492915050565b6135e9613e2c565b60015b818110156136a6578282613601600184615bdb565b81811061361057613610615cc2565b9050602002016020810190613625919061509d565b6001600160a01b031683838381811061364057613640615cc2565b9050602002016020810190613655919061509d565b6001600160a01b0316116136945760405162461bcd60e51b815260206004820152600660248201526510b7b93232b960d11b6044820152606401610cd6565b8061369e81615c57565b9150506135ec565b506136e685858585858080602002602001604051908101604052809392919081815260200183836020028082843760009201919091525061455992505050565b6117ec6001609c55565b6066546001600160a01b0316613704613da9565b6001600160a01b0316148061371f575061371f610b66613da9565b61375f5760405162461bcd60e51b815260206004820152601160248201527010b130b0b610131010b3b7bb32b93737b960791b6044820152606401610cd6565b6000806000806000808680602001905181019061377c919061567a565b949a5092985090965094509250905060648111156137c95760405162461bcd60e51b815260206004820152600a6024820152696261642071756f72756d60b01b6044820152606401610cd6565b606481111561380d5760405162461bcd60e51b815260206004820152601060248201526f3130b21036b4b72932ba32b73a34b7b760811b6044820152606401610cd6565b600060d354118015613829575060d0546001600160a01b031615155b1561387e57613836611fd0565b82111561387e5760405162461bcd60e51b815260206004820152601660248201527573706f6e736f72203e20736861726573537570706c7960501b6044820152606401610cd6565b63ffffffff8616156138a95760d0805463ffffffff60a01b1916600160a01b63ffffffff8916021790555b63ffffffff8516156138d45760d0805463ffffffff60c01b1916600160c01b63ffffffff8816021790555b60d184905560d283905560d382905560d48190556040805163ffffffff808916825287166020820152908101859052606081018490526080810183905260a081018290527fc10758ccd7d1dd3330e7bbe13a1a1d6bbb414967932376ee24989bad95edcdc19060c00160405180910390a150505050505050565b613956613db3565b6001600160a01b0381166139bb5760405162461bcd60e51b815260206004820152602660248201527f4f776e61626c653a206e6577206f776e657220697320746865207a65726f206160448201526564647265737360d01b6064820152608401610cd6565b611542816141bd565b6001600160a01b038116600090815260d6602052604081205460028114806135c8575080600314806119525750806006148061195d575060071492915050565b613a0c613e2c565b63ffffffff8116600090815260d9602052604090206002613a2c83613bd8565b6007811115613a3d57613a3d615cac565b14613a745760405162461bcd60e51b815260206004820152600760248201526621766f74696e6760c81b6044820152606401610cd6565b60068101546001600160a01b0316613a8a613da9565b6001600160a01b03161480613b41575060d35460d05460068301546001600160a01b0391821691633a46b1a89116613ac3600142615bdb565b6040516001600160e01b031960e085901b1681526001600160a01b039092166004830152602482015260440160206040518083038186803b158015613b0757600080fd5b505afa158015613b1b573d6000803e3d6000fd5b505050506040513d601f19601f82011682018060405250810190613b3f91906155d2565b105b80613b525750613b52610b66613da9565b613b8d5760405162461bcd60e51b815260206004820152600c60248201526b2163616e63656c6c61626c6560a01b6044820152606401610cd6565b60058101805460ff1916600117905560405163ffffffff8316907f8896f24cff41b54acf76c2560861f33cd20fd76c4df0b68a3515c354e4b6c81a90600090a2506115426001609c55565b63ffffffff818116600090815260d96020908152604080832081516101a08101835281548087168252600160201b8104871694820194909452600160401b8404861681840152600160601b840486166060820152600160801b84048616608080830191909152600160a01b90940490951660a0860152600181015460c0860152600281015460e0860152600381015461010086015260048082015461012087015282519384019283905293948594909391926101408501929160058501918288855b825461010083900a900460ff161515815260206001928301818104948501949093039092029101808411613c9a5750505092845250505060068201546001600160a01b03166020820152600790910154604090910152805190915063ffffffff16613d085750600092915050565b6101408101515115613d1d5750600392915050565b604081015163ffffffff16613d355750600192915050565b806060015163ffffffff164211613d4f5750600292915050565b806080015163ffffffff164211613d695750600492915050565b8060e0015181610100015110613d825750600792915050565b6101408101516020015115613d9a5750600692915050565b50600592915050565b50919050565b600061191a6147d5565b613dbb613da9565b6001600160a01b0316613dd66033546001600160a01b031690565b6001600160a01b0316146127515760405162461bcd60e51b815260206004820181905260248201527f4f776e61626c653a2063616c6c6572206973206e6f7420746865206f776e65726044820152606401610cd6565b6002609c541415613e7f5760405162461bcd60e51b815260206004820152601f60248201527f5265656e7472616e637947756172643a207265656e7472616e742063616c6c006044820152606401610cd6565b6002609c55565b6001609c55565b60cf546040516340c10f1960e01b81526001600160a01b03848116600483015260248201849052909116906340c10f19906044015b600060405180830381600087803b158015613edc57600080fd5b505af1158015613ef0573d6000803e3d6000fd5b505050505050565b60cf54604051632770a7eb60e21b81526001600160a01b0384811660048301526024820184905290911690639dc29fac90604401613ec2565b63ffffffff8216600090815260d9602052604090206002613f5184613bd8565b6007811115613f6257613f62615cac565b14613f995760405162461bcd60e51b815260206004820152600760248201526621766f74696e6760c81b6044820152606401610cd6565b60d0548154604051630748d63560e31b81526001600160a01b038781166004830152600160401b90920463ffffffff1660248201526000929190911690633a46b1a89060440160206040518083038186803b158015613ff757600080fd5b505afa15801561400b573d6000803e3d6000fd5b505050506040513d601f19601f8201168201806040525081019061402f91906155d2565b90506000811161406b5760405162461bcd60e51b815260206004820152600760248201526610b6b2b6b132b960c91b6044820152606401610cd6565b6001600160a01b038516600090815260d76020908152604080832063ffffffff8816845290915290205460ff16156140cd5760405162461bcd60e51b81526020600482015260056024820152641d9bdd195960da1b6044820152606401610cd6565b6001600160a01b038516600090815260d76020908152604080832063ffffffff881684529091528120805460ff191660011790556141096118fe565b9050826004015481111561411f57600483018190555b8315614134576002830180548301905561413f565b600383018054830190555b8315158563ffffffff16876001600160a01b03167f786755545a7e27c12c90cc7f0934514d03fdacfe3684a340b8c4100531e7ecd58560405161418491815260200190565b60405180910390a4505050505050565b60da546000906141b790600160201b90046001600160a01b0316828460016142f9565b92915050565b603380546001600160a01b038381166001600160a01b0319831681179093556040519116919082907f8be0079c531659141344cd1fd0a4f28419497f9722a3daafe3b4186f6b6457e090600090a35050565b60d054604051632770a7eb60e21b81526001600160a01b0384811660048301526024820184905290911690639dc29fac90604401613ec2565b600054610100900460ff1661426f5760405162461bcd60e51b8152600401610cd690615a2d565b612751614809565b600054610100900460ff1661429e5760405162461bcd60e51b8152600401610cd690615a2d565b612751614840565b600054610100900460ff166142cd5760405162461bcd60e51b8152600401610cd690615a2d565b6111b18282614867565b60ce80546001600160a01b0319166001600160a01b0392909216919091179055565b6065546000906001600160a01b03161561439b576065546040805180820182526002815261060f60f31b60208201529051633af85da960e11b81526001600160a01b03909216916375f0bb52916143689189918991899189916000918291829182918291903390600401615872565b600060405180830381600087803b15801561438257600080fd5b505af1158015614396573d6000803e3d6000fd5b505050505b60675460405163468721a760e01b81526001600160a01b039091169063468721a7906143d1908890889088908890600401615833565b602060405180830381600087803b1580156143eb57600080fd5b505af11580156143ff573d6000803e3d6000fd5b505050506040513d601f19601f820116820180604052508101906144239190615415565b6065549091506001600160a01b0316156144a257606554604051631264e26d60e31b815261060f60f31b600482015282151560248201526001600160a01b0390911690639327136890604401600060405180830381600087803b15801561448957600080fd5b505af115801561449d573d6000803e3d6000fd5b505050505b949350505050565b60d0546040516340c10f1960e01b81526001600160a01b03848116600483015260248201849052909116906340c10f1990604401613ec2565b60006141b76144f06148a8565b8360405161190160f01b6020820152602281018390526042810182905260009060620160405160208183030381529060405280519060200120905092915050565b600080600061454287878787614923565b9150915061454f816149e7565b5095945050505050565b60006145636118fe565b9050821561457c5761457c614576613da9565b84613ef8565b83156145935761459361458d613da9565b8561420f565b60005b825181101561478157600073eeeeeeeeeeeeeeeeeeeeeeeeeeeeeeeeeeeeeeee6001600160a01b03168483815181106145d1576145d1615cc2565b60200260200101516001600160a01b031614156145fb57506067546001600160a01b0316316146c9565b600084838151811061460f5761460f615cc2565b602090810291909101810151606754604080516001600160a01b03928316602480830191909152825180830390910181526044909101825293840180516001600160e01b03166370a0823160e01b1790525191169161466d91615751565b600060405180830381855afa9150503d80600081146146a8576040519150601f19603f3d011682016040523d82523d6000602084013e6146ad565b606091505b50915050808060200190518101906146c591906155d2565b9150505b600083826146d78989615b5a565b6146e19190615bbc565b6146eb9190615b9a565b9050801561476c5773eeeeeeeeeeeeeeeeeeeeeeeeeeeeeeeeeeeeeeee6001600160a01b031685848151811061472357614723615cc2565b60200260200101516001600160a01b0316146147625761475d85848151811061474e5761474e615cc2565b60200260200101518983614b35565b61476c565b61476c8882614c04565b5050808061477990615c57565b915050614596565b50838361478c613da9565b6001600160a01b03167fa21c268847f2b8adac3751ed0683330abe9fdd6cc4a7a8fc6787633d4126e0d488866040516147c69291906157d7565b60405180910390a45050505050565b6000601436108015906147f2575060ce546001600160a01b031633145b15614804575060131936013560601c90565b503390565b600054610100900460ff166148305760405162461bcd60e51b8152600401610cd690615a2d565b61275161483b613da9565b6141bd565b600054610100900460ff16613e865760405162461bcd60e51b8152600401610cd690615a2d565b600054610100900460ff1661488e5760405162461bcd60e51b8152600401610cd690615a2d565b815160209283012081519190920120606891909155606955565b600061191a7f8b73c3c69bb8fe3d512ecc4cf759cc79239f7b179b0ffacaa9a75d522b39400f6148d760685490565b6069546040805160208101859052908101839052606081018290524660808201523060a082015260009060c0016040516020818303038152906040528051906020012090509392505050565b6000807f7fffffffffffffffffffffffffffffff5d576e7357a4501ddfe92f46681b20a083111561495a57506000905060036149de565b6040805160008082526020820180845289905260ff881692820192909252606081018690526080810185905260019060a0016020604051602081039080840390855afa1580156149ae573d6000803e3d6000fd5b5050604051601f1901519150506001600160a01b0381166149d7576000600192509250506149de565b9150600090505b94509492505050565b60008160048111156149fb576149fb615cac565b1415614a045750565b6001816004811115614a1857614a18615cac565b1415614a665760405162461bcd60e51b815260206004820152601860248201527f45434453413a20696e76616c6964207369676e617475726500000000000000006044820152606401610cd6565b6002816004811115614a7a57614a7a615cac565b1415614ac85760405162461bcd60e51b815260206004820152601f60248201527f45434453413a20696e76616c6964207369676e6174757265206c656e677468006044820152606401610cd6565b6003816004811115614adc57614adc615cac565b14156115425760405162461bcd60e51b815260206004820152602260248201527f45434453413a20696e76616c6964207369676e6174757265202773272076616c604482015261756560f01b6064820152608401610cd6565b600080614b9d85600063a9059cbb8787604051602401614b6a9291906001600160a01b03929092168252602082015260400190565b6040516020818303038152906040529060e01b6020820180516001600160e01b0383818316178352505050506000614c68565b91509150818015614bc6575080511580614bc6575080806020019051810190614bc69190615415565b6117ec5760405162461bcd60e51b815260206004820152600f60248201526e1d1c985b9cd9995c8819985a5b1959608a1b6044820152606401610cd6565b6000614c228383604051806020016040528060008152506000614c68565b5090508061273a5760405162461bcd60e51b815260206004820152601360248201527211551217d514905394d1915497d19052531151606a1b6044820152606401610cd6565b6065546000906060906001600160a01b031615614d0d576065546040805180820182526002815261060f60f31b60208201529051633af85da960e11b81526001600160a01b03909216916375f0bb5291614cda918a918a918a918a916000918291829182918291903390600401615872565b600060405180830381600087803b158015614cf457600080fd5b505af1158015614d08573d6000803e3d6000fd5b505050505b606754604051635229073f60e01b81526001600160a01b0390911690635229073f90614d43908990899089908990600401615833565b600060405180830381600087803b158015614d5d57600080fd5b505af1158015614d71573d6000803e3d6000fd5b505050506040513d6000823e601f3d908101601f19168201604052614d999190810190615460565b60655491935091506001600160a01b0316156149de57606554604051631264e26d60e31b815261060f60f31b600482015283151560248201526001600160a01b0390911690639327136890604401600060405180830381600087803b158015614e0157600080fd5b505af1158015614e15573d6000803e3d6000fd5b5050505094509492505050565b600183019183908215614ea45791602002820160005b83821115614e7557835183826101000a81548160ff0219169083151502179055509260200192600101602081600001049283019260010302614e38565b8015614ea25782816101000a81549060ff0219169055600101602081600001049283019260010302614e75565b505b50614eb0929150614f46565b5090565b60405180608001604052806004906020820280368337509192915050565b828054614ede90615c22565b90600052602060002090601f016020900481019282614f005760008555614ea4565b82601f10614f1957805160ff1916838001178555614ea4565b82800160010185558215614ea4579182015b82811115614ea4578251825591602001919060010190614f2b565b5b80821115614eb05760008155600101614f47565b6000614f6e614f6984615b33565b615b03565b9050828152838383011115614f8257600080fd5b61195d836020830184615bf2565b8035614f9b81615cee565b919050565b60008083601f840112614fb257600080fd5b5081356001600160401b03811115614fc957600080fd5b6020830191508360208260051b8501011115614fe457600080fd5b9250929050565b60008083601f840112614ffd57600080fd5b5081356001600160401b0381111561501457600080fd5b602083019150836020828501011115614fe457600080fd5b600082601f83011261503d57600080fd5b813561504b614f6982615b33565b81815284602083860101111561506057600080fd5b816020850160208301376000918101602001919091529392505050565b600082601f83011261508e57600080fd5b61195d83835160208501614f5b565b6000602082840312156150af57600080fd5b813561195d81615cee565b60008060008060008060c087890312156150d357600080fd5b86516150de81615cee565b60208801519096506150ef81615cee565b604088015190955061510081615cee565b606088015190945061511181615cee565b608088015190935061512281615cee565b60a08801519092506001600160401b0381111561513e57600080fd5b61514a89828a0161507d565b9150509295509295509295565b6000806000806060858703121561516d57600080fd5b843561517881615cee565b93506020850135925060408501356001600160401b0381111561519a57600080fd5b6151a687828801614feb565b95989497509550505050565b6000806000806000608086880312156151ca57600080fd5b85356151d581615cee565b9450602086013593506040860135925060608601356001600160401b038111156151fe57600080fd5b61520a88828901614fa0565b969995985093965092949392505050565b600080600080600080600080610100898b03121561523857600080fd5b883561524381615cee565b97506020890135965060408901359550606089013561526181615d11565b9450608089013561527181615d03565b935060a089013560ff8116811461528757600080fd5b979a969950949793969295929450505060c08201359160e0013590565b600080604083850312156152b757600080fd5b82356152c281615cee565b915060208301356152d281615d11565b809150509250929050565b600080600080604085870312156152f357600080fd5b84356001600160401b038082111561530a57600080fd5b61531688838901614fa0565b9096509450602087013591508082111561532f57600080fd5b506151a687828801614fa0565b6000806040838503121561534f57600080fd5b82356001600160401b038082111561536657600080fd5b818501915085601f83011261537a57600080fd5b813560208282111561538e5761538e615cd8565b8160051b61539d828201615b03565b8381528281019086840183880185018c10156153b857600080fd5b60009350835b868110156153f5578135888111156153d4578586fd5b6153e28e88838d010161502c565b85525092850192908501906001016153be565b5050809850505050615408818801614f90565b9450505050509250929050565b60006020828403121561542757600080fd5b815161195d81615d03565b6000806040838503121561544557600080fd5b823561545081615d03565b915060208301356152d281615d03565b6000806040838503121561547357600080fd5b825161547e81615d03565b60208401519092506001600160401b0381111561549a57600080fd5b6154a68582860161507d565b9150509250929050565b600080600080600080608087890312156154c957600080fd5b86356001600160401b03808211156154e057600080fd5b6154ec8a838b01614feb565b90985096506020890135915061550182615d11565b909450604088013593506060880135908082111561551e57600080fd5b5061552b89828a01614feb565b979a9699509497509295939492505050565b60006020828403121561554f57600080fd5b81356001600160401b0381111561556557600080fd5b6144a28482850161502c565b60006020828403121561558357600080fd5b81516001600160401b0381111561559957600080fd5b8201601f810184136155aa57600080fd5b6144a284825160208401614f5b565b6000602082840312156155cb57600080fd5b5035919050565b6000602082840312156155e457600080fd5b5051919050565b6000602082840312156155fd57600080fd5b813561195d81615d11565b6000806040838503121561561b57600080fd5b823561545081615d11565b60008060006040848603121561563b57600080fd5b833561564681615d11565b925060208401356001600160401b0381111561566157600080fd5b61566d86828701614feb565b9497909650939450505050565b60008060008060008060c0878903121561569357600080fd5b865161569e81615d11565b60208801519096506156af81615d11565b6040880151606089015160808a015160a0909a0151989b929a5090989097909650945092505050565b81835281816020850137506000828201602090810191909152601f909101601f19169091010190565b60008151808452615719816020860160208601615bf2565b601f01601f19169290920160200192915050565b6002811061573d5761573d615cac565b9052565b8183823760009101908152919050565b60008251615763818460208701615bf2565b9190910192915050565b6000875161577f818460208c01615bf2565b808301905060ff60f81b8860f81b1681526bffffffffffffffffffffffff198760601b16600182015285601582015284603582015283516157c7816055840160208801615bf2565b0160550198975050505050505050565b6001600160a01b038381168252604060208084018290528451918401829052600092858201929091906060860190855b81811015615825578551851683529483019491830191600101615807565b509098975050505050505050565b60018060a01b038516815283602082015260806040820152600061585a6080830185615701565b9050615869606083018461572d565b95945050505050565b6001600160a01b038c81168252602082018c90526101606040830181905260009161589f8483018e615701565b91506158ae606085018d61572d565b8a60808501528960a08501528860c085015280881660e08501528087166101008501528382036101208501526158e48287615701565b925080851661014085015250509c9b505050505050505050505050565b60808101818360005b600481101561592b578151151583526020928301929091019060010161590a565b50505092915050565b60006101808e151583528d1515602084015263ffffffff808e166040850152808d166060850152508a60808401528960a08401528860c08401528760e08401528061010084015261598781840188615701565b905082810361012084015261599c8187615701565b610140840195909552505061016001529a9950505050505050505050565b60208152600061195d6020830184615701565b60208101600883106159e1576159e1615cac565b91905290565b602080825260059082015264085898585b60da1b604082015260600190565b6020808252600d908201526c2161727261792070617269747960981b604082015260600190565b6020808252602b908201527f496e697469616c697a61626c653a20636f6e7472616374206973206e6f74206960408201526a6e697469616c697a696e6760a81b606082015260800190565b60208082526010908201526f10b130b0b610131010b6b0b730b3b2b960811b604082015260600190565b600063ffffffff808c16835260e06020840152615ac360e084018b8d6156d8565b818a16604085015288606085015287151560808501528660a085015283810360c0850152615af28186886156d8565b9d9c50505050505050505050505050565b604051601f8201601f191681016001600160401b0381118282101715615b2b57615b2b615cd8565b604052919050565b60006001600160401b03821115615b4c57615b4c615cd8565b50601f01601f191660200190565b60008219821115615b6d57615b6d615c96565b500190565b600063ffffffff808316818516808303821115615b9157615b91615c96565b01949350505050565b600082615bb757634e487b7160e01b600052601260045260246000fd5b500490565b6000816000190483118215151615615bd657615bd6615c96565b500290565b600082821015615bed57615bed615c96565b500390565b60005b83811015615c0d578181015183820152602001615bf5565b83811115615c1c576000848401525b50505050565b600181811c90821680615c3657607f821691505b60208210811415613da357634e487b7160e01b600052602260045260246000fd5b6000600019821415615c6b57615c6b615c96565b5060010190565b600063ffffffff80831681811415615c8c57615c8c615c96565b6001019392505050565b634e487b7160e01b600052601160045260246000fd5b634e487b7160e01b600052602160045260246000fd5b634e487b7160e01b600052603260045260246000fd5b634e487b7160e01b600052604160045260246000fd5b6001600160a01b038116811461154257600080fd5b801515811461154257600080fd5b63ffffffff8116811461154257600080fdfe322e322e352b6f70656e67736e2e70617961626c65776974686261616c2e6972656c6179726563697069656e74a2646970667358221220178cefb04e476abe5af61c5f7db34d2c912defb38857ba62ff0b25f75ad3c9ac64736f6c63430008070033",
          "history": [
            {
              "address": "0x17234C0Ae25AF09fAf57B9D5ea2B93C1f220E800",
              "abi": [
                {
                  "inputs": [],
                  "stateMutability": "nonpayable",
                  "type": "constructor"
                },
                {
                  "inputs": [
                    {
                      "internalType": "address",
                      "name": "guard_",
                      "type": "address"
                    }
                  ],
                  "name": "NotIERC165Compliant",
                  "type": "error"
                },
                {
                  "anonymous": false,
                  "inputs": [
                    {
                      "indexed": true,
                      "internalType": "address",
                      "name": "owner",
                      "type": "address"
                    },
                    {
                      "indexed": true,
                      "internalType": "address",
                      "name": "spender",
                      "type": "address"
                    },
                    {
                      "indexed": false,
                      "internalType": "uint256",
                      "name": "amount",
                      "type": "uint256"
                    }
                  ],
                  "name": "Approval",
                  "type": "event"
                },
                {
                  "anonymous": false,
                  "inputs": [
                    {
                      "indexed": true,
                      "internalType": "address",
                      "name": "previousAvatar",
                      "type": "address"
                    },
                    {
                      "indexed": true,
                      "internalType": "address",
                      "name": "newAvatar",
                      "type": "address"
                    }
                  ],
                  "name": "AvatarSet",
                  "type": "event"
                },
                {
                  "anonymous": false,
                  "inputs": [
                    {
                      "indexed": true,
                      "internalType": "uint256",
                      "name": "proposal",
                      "type": "uint256"
                    }
                  ],
                  "name": "CancelProposal",
                  "type": "event"
                },
                {
                  "anonymous": false,
                  "inputs": [
                    {
                      "indexed": false,
                      "internalType": "address",
                      "name": "guard",
                      "type": "address"
                    }
                  ],
                  "name": "ChangedGuard",
                  "type": "event"
                },
                {
                  "anonymous": false,
                  "inputs": [
                    {
                      "indexed": false,
                      "internalType": "uint32",
                      "name": "voting",
                      "type": "uint32"
                    },
                    {
                      "indexed": false,
                      "internalType": "uint32",
                      "name": "grace",
                      "type": "uint32"
                    },
                    {
                      "indexed": false,
                      "internalType": "uint256",
                      "name": "newOffering",
                      "type": "uint256"
                    },
                    {
                      "indexed": false,
                      "internalType": "uint256",
                      "name": "quorum",
                      "type": "uint256"
                    },
                    {
                      "indexed": false,
                      "internalType": "uint256",
                      "name": "sponsor",
                      "type": "uint256"
                    },
                    {
                      "indexed": false,
                      "internalType": "uint256",
                      "name": "minRetention",
                      "type": "uint256"
                    }
                  ],
                  "name": "GovernanceConfigSet",
                  "type": "event"
                },
                {
                  "anonymous": false,
                  "inputs": [
                    {
                      "indexed": false,
                      "internalType": "uint8",
                      "name": "version",
                      "type": "uint8"
                    }
                  ],
                  "name": "Initialized",
                  "type": "event"
                },
                {
                  "anonymous": false,
                  "inputs": [
                    {
                      "indexed": false,
                      "internalType": "bool",
                      "name": "adminLock",
                      "type": "bool"
                    }
                  ],
                  "name": "LockAdmin",
                  "type": "event"
                },
                {
                  "anonymous": false,
                  "inputs": [
                    {
                      "indexed": false,
                      "internalType": "bool",
                      "name": "governorLock",
                      "type": "bool"
                    }
                  ],
                  "name": "LockGovernor",
                  "type": "event"
                },
                {
                  "anonymous": false,
                  "inputs": [
                    {
                      "indexed": false,
                      "internalType": "bool",
                      "name": "managerLock",
                      "type": "bool"
                    }
                  ],
                  "name": "LockManager",
                  "type": "event"
                },
                {
                  "anonymous": false,
                  "inputs": [
                    {
                      "indexed": false,
                      "internalType": "bool",
                      "name": "paused",
                      "type": "bool"
                    }
                  ],
                  "name": "LootPaused",
                  "type": "event"
                },
                {
                  "anonymous": false,
                  "inputs": [
                    {
                      "indexed": true,
                      "internalType": "address",
                      "name": "previousOwner",
                      "type": "address"
                    },
                    {
                      "indexed": true,
                      "internalType": "address",
                      "name": "newOwner",
                      "type": "address"
                    }
                  ],
                  "name": "OwnershipTransferred",
                  "type": "event"
                },
                {
                  "anonymous": false,
                  "inputs": [
                    {
                      "indexed": true,
                      "internalType": "uint256",
                      "name": "proposal",
                      "type": "uint256"
                    },
                    {
                      "indexed": false,
                      "internalType": "bool",
                      "name": "passed",
                      "type": "bool"
                    },
                    {
                      "indexed": false,
                      "internalType": "bool",
                      "name": "actionFailed",
                      "type": "bool"
                    }
                  ],
                  "name": "ProcessProposal",
                  "type": "event"
                },
                {
                  "anonymous": false,
                  "inputs": [
                    {
                      "indexed": true,
                      "internalType": "address",
                      "name": "member",
                      "type": "address"
                    },
                    {
                      "indexed": false,
                      "internalType": "address",
                      "name": "to",
                      "type": "address"
                    },
                    {
                      "indexed": true,
                      "internalType": "uint256",
                      "name": "lootToBurn",
                      "type": "uint256"
                    },
                    {
                      "indexed": true,
                      "internalType": "uint256",
                      "name": "sharesToBurn",
                      "type": "uint256"
                    },
                    {
                      "indexed": false,
                      "internalType": "address[]",
                      "name": "tokens",
                      "type": "address[]"
                    }
                  ],
                  "name": "Ragequit",
                  "type": "event"
                },
                {
                  "anonymous": false,
                  "inputs": [
                    {
                      "indexed": true,
                      "internalType": "address",
                      "name": "forwarder",
                      "type": "address"
                    }
                  ],
                  "name": "SetTrustedForwarder",
                  "type": "event"
                },
                {
                  "anonymous": false,
                  "inputs": [
                    {
                      "indexed": false,
                      "internalType": "bool",
                      "name": "lootPaused",
                      "type": "bool"
                    },
                    {
                      "indexed": false,
                      "internalType": "bool",
                      "name": "sharesPaused",
                      "type": "bool"
                    },
                    {
                      "indexed": false,
                      "internalType": "uint32",
                      "name": "gracePeriod",
                      "type": "uint32"
                    },
                    {
                      "indexed": false,
                      "internalType": "uint32",
                      "name": "votingPeriod",
                      "type": "uint32"
                    },
                    {
                      "indexed": false,
                      "internalType": "uint256",
                      "name": "proposalOffering",
                      "type": "uint256"
                    },
                    {
                      "indexed": false,
                      "internalType": "uint256",
                      "name": "quorumPercent",
                      "type": "uint256"
                    },
                    {
                      "indexed": false,
                      "internalType": "uint256",
                      "name": "sponsorThreshold",
                      "type": "uint256"
                    },
                    {
                      "indexed": false,
                      "internalType": "uint256",
                      "name": "minRetentionPercent",
                      "type": "uint256"
                    },
                    {
                      "indexed": false,
                      "internalType": "string",
                      "name": "name",
                      "type": "string"
                    },
                    {
                      "indexed": false,
                      "internalType": "string",
                      "name": "symbol",
                      "type": "string"
                    },
                    {
                      "indexed": false,
                      "internalType": "uint256",
                      "name": "totalShares",
                      "type": "uint256"
                    },
                    {
                      "indexed": false,
                      "internalType": "uint256",
                      "name": "totalLoot",
                      "type": "uint256"
                    }
                  ],
                  "name": "SetupComplete",
                  "type": "event"
                },
                {
                  "anonymous": false,
                  "inputs": [
                    {
                      "indexed": true,
                      "internalType": "address",
                      "name": "shaman",
                      "type": "address"
                    },
                    {
                      "indexed": false,
                      "internalType": "uint256",
                      "name": "permission",
                      "type": "uint256"
                    }
                  ],
                  "name": "ShamanSet",
                  "type": "event"
                },
                {
                  "anonymous": false,
                  "inputs": [
                    {
                      "indexed": false,
                      "internalType": "bool",
                      "name": "paused",
                      "type": "bool"
                    }
                  ],
                  "name": "SharesPaused",
                  "type": "event"
                },
                {
                  "anonymous": false,
                  "inputs": [
                    {
                      "indexed": true,
                      "internalType": "address",
                      "name": "member",
                      "type": "address"
                    },
                    {
                      "indexed": true,
                      "internalType": "uint256",
                      "name": "proposal",
                      "type": "uint256"
                    },
                    {
                      "indexed": true,
                      "internalType": "uint256",
                      "name": "votingStarts",
                      "type": "uint256"
                    }
                  ],
                  "name": "SponsorProposal",
                  "type": "event"
                },
                {
                  "anonymous": false,
                  "inputs": [
                    {
                      "indexed": true,
                      "internalType": "uint256",
                      "name": "proposal",
                      "type": "uint256"
                    },
                    {
                      "indexed": true,
                      "internalType": "bytes32",
                      "name": "proposalDataHash",
                      "type": "bytes32"
                    },
                    {
                      "indexed": false,
                      "internalType": "uint256",
                      "name": "votingPeriod",
                      "type": "uint256"
                    },
                    {
                      "indexed": false,
                      "internalType": "bytes",
                      "name": "proposalData",
                      "type": "bytes"
                    },
                    {
                      "indexed": false,
                      "internalType": "uint256",
                      "name": "expiration",
                      "type": "uint256"
                    },
                    {
                      "indexed": false,
                      "internalType": "uint256",
                      "name": "baalGas",
                      "type": "uint256"
                    },
                    {
                      "indexed": false,
                      "internalType": "bool",
                      "name": "selfSponsor",
                      "type": "bool"
                    },
                    {
                      "indexed": false,
                      "internalType": "uint256",
                      "name": "timestamp",
                      "type": "uint256"
                    },
                    {
                      "indexed": false,
                      "internalType": "string",
                      "name": "details",
                      "type": "string"
                    }
                  ],
                  "name": "SubmitProposal",
                  "type": "event"
                },
                {
                  "anonymous": false,
                  "inputs": [
                    {
                      "indexed": true,
                      "internalType": "address",
                      "name": "member",
                      "type": "address"
                    },
                    {
                      "indexed": false,
                      "internalType": "uint256",
                      "name": "balance",
                      "type": "uint256"
                    },
                    {
                      "indexed": true,
                      "internalType": "uint256",
                      "name": "proposal",
                      "type": "uint256"
                    },
                    {
                      "indexed": true,
                      "internalType": "bool",
                      "name": "approved",
                      "type": "bool"
                    }
                  ],
                  "name": "SubmitVote",
                  "type": "event"
                },
                {
                  "anonymous": false,
                  "inputs": [
                    {
                      "indexed": true,
                      "internalType": "address",
                      "name": "previousTarget",
                      "type": "address"
                    },
                    {
                      "indexed": true,
                      "internalType": "address",
                      "name": "newTarget",
                      "type": "address"
                    }
                  ],
                  "name": "TargetSet",
                  "type": "event"
                },
                {
                  "inputs": [],
                  "name": "adminLock",
                  "outputs": [
                    {
                      "internalType": "bool",
                      "name": "",
                      "type": "bool"
                    }
                  ],
                  "stateMutability": "view",
                  "type": "function"
                },
                {
                  "inputs": [],
                  "name": "avatar",
                  "outputs": [
                    {
                      "internalType": "address",
                      "name": "",
                      "type": "address"
                    }
                  ],
                  "stateMutability": "view",
                  "type": "function"
                },
                {
                  "inputs": [
                    {
                      "internalType": "address[]",
                      "name": "from",
                      "type": "address[]"
                    },
                    {
                      "internalType": "uint256[]",
                      "name": "amount",
                      "type": "uint256[]"
                    }
                  ],
                  "name": "burnLoot",
                  "outputs": [],
                  "stateMutability": "nonpayable",
                  "type": "function"
                },
                {
                  "inputs": [
                    {
                      "internalType": "address[]",
                      "name": "from",
                      "type": "address[]"
                    },
                    {
                      "internalType": "uint256[]",
                      "name": "amount",
                      "type": "uint256[]"
                    }
                  ],
                  "name": "burnShares",
                  "outputs": [],
                  "stateMutability": "nonpayable",
                  "type": "function"
                },
                {
                  "inputs": [
                    {
                      "internalType": "uint32",
                      "name": "id",
                      "type": "uint32"
                    }
                  ],
                  "name": "cancelProposal",
                  "outputs": [],
                  "stateMutability": "nonpayable",
                  "type": "function"
                },
                {
                  "inputs": [
                    {
                      "internalType": "bytes[]",
                      "name": "_calls",
                      "type": "bytes[]"
                    },
                    {
                      "internalType": "address",
                      "name": "_target",
                      "type": "address"
                    }
                  ],
                  "name": "encodeMultisend",
                  "outputs": [
                    {
                      "internalType": "bytes",
                      "name": "encodedMultisend",
                      "type": "bytes"
                    }
                  ],
                  "stateMutability": "pure",
                  "type": "function"
                },
                {
                  "inputs": [
                    {
                      "internalType": "address",
                      "name": "_to",
                      "type": "address"
                    },
                    {
                      "internalType": "uint256",
                      "name": "_value",
                      "type": "uint256"
                    },
                    {
                      "internalType": "bytes",
                      "name": "_data",
                      "type": "bytes"
                    }
                  ],
                  "name": "executeAsBaal",
                  "outputs": [],
                  "stateMutability": "nonpayable",
                  "type": "function"
                },
                {
                  "inputs": [],
                  "name": "getGuard",
                  "outputs": [
                    {
                      "internalType": "address",
                      "name": "_guard",
                      "type": "address"
                    }
                  ],
                  "stateMutability": "view",
                  "type": "function"
                },
                {
                  "inputs": [
                    {
                      "internalType": "uint32",
                      "name": "id",
                      "type": "uint32"
                    }
                  ],
                  "name": "getProposalStatus",
                  "outputs": [
                    {
                      "internalType": "bool[4]",
                      "name": "",
                      "type": "bool[4]"
                    }
                  ],
                  "stateMutability": "view",
                  "type": "function"
                },
                {
                  "inputs": [],
                  "name": "governorLock",
                  "outputs": [
                    {
                      "internalType": "bool",
                      "name": "",
                      "type": "bool"
                    }
                  ],
                  "stateMutability": "view",
                  "type": "function"
                },
                {
                  "inputs": [],
                  "name": "gracePeriod",
                  "outputs": [
                    {
                      "internalType": "uint32",
                      "name": "",
                      "type": "uint32"
                    }
                  ],
                  "stateMutability": "view",
                  "type": "function"
                },
                {
                  "inputs": [],
                  "name": "guard",
                  "outputs": [
                    {
                      "internalType": "address",
                      "name": "",
                      "type": "address"
                    }
                  ],
                  "stateMutability": "view",
                  "type": "function"
                },
                {
                  "inputs": [
                    {
                      "internalType": "bytes",
                      "name": "_transactions",
                      "type": "bytes"
                    }
                  ],
                  "name": "hashOperation",
                  "outputs": [
                    {
                      "internalType": "bytes32",
                      "name": "hash",
                      "type": "bytes32"
                    }
                  ],
                  "stateMutability": "pure",
                  "type": "function"
                },
                {
                  "inputs": [
                    {
                      "internalType": "address",
                      "name": "shaman",
                      "type": "address"
                    }
                  ],
                  "name": "isAdmin",
                  "outputs": [
                    {
                      "internalType": "bool",
                      "name": "",
                      "type": "bool"
                    }
                  ],
                  "stateMutability": "view",
                  "type": "function"
                },
                {
                  "inputs": [
                    {
                      "internalType": "address",
                      "name": "shaman",
                      "type": "address"
                    }
                  ],
                  "name": "isGovernor",
                  "outputs": [
                    {
                      "internalType": "bool",
                      "name": "",
                      "type": "bool"
                    }
                  ],
                  "stateMutability": "view",
                  "type": "function"
                },
                {
                  "inputs": [
                    {
                      "internalType": "address",
                      "name": "shaman",
                      "type": "address"
                    }
                  ],
                  "name": "isManager",
                  "outputs": [
                    {
                      "internalType": "bool",
                      "name": "",
                      "type": "bool"
                    }
                  ],
                  "stateMutability": "view",
                  "type": "function"
                },
                {
                  "inputs": [
                    {
                      "internalType": "address",
                      "name": "forwarder",
                      "type": "address"
                    }
                  ],
                  "name": "isTrustedForwarder",
                  "outputs": [
                    {
                      "internalType": "bool",
                      "name": "",
                      "type": "bool"
                    }
                  ],
                  "stateMutability": "view",
                  "type": "function"
                },
                {
                  "inputs": [],
                  "name": "latestSponsoredProposalId",
                  "outputs": [
                    {
                      "internalType": "uint32",
                      "name": "",
                      "type": "uint32"
                    }
                  ],
                  "stateMutability": "view",
                  "type": "function"
                },
                {
                  "inputs": [],
                  "name": "lockAdmin",
                  "outputs": [],
                  "stateMutability": "nonpayable",
                  "type": "function"
                },
                {
                  "inputs": [],
                  "name": "lockGovernor",
                  "outputs": [],
                  "stateMutability": "nonpayable",
                  "type": "function"
                },
                {
                  "inputs": [],
                  "name": "lockManager",
                  "outputs": [],
                  "stateMutability": "nonpayable",
                  "type": "function"
                },
                {
                  "inputs": [],
                  "name": "lootToken",
                  "outputs": [
                    {
                      "internalType": "contract IBaalToken",
                      "name": "",
                      "type": "address"
                    }
                  ],
                  "stateMutability": "view",
                  "type": "function"
                },
                {
                  "inputs": [],
                  "name": "managerLock",
                  "outputs": [
                    {
                      "internalType": "bool",
                      "name": "",
                      "type": "bool"
                    }
                  ],
                  "stateMutability": "view",
                  "type": "function"
                },
                {
                  "inputs": [
                    {
                      "internalType": "address",
                      "name": "",
                      "type": "address"
                    },
                    {
                      "internalType": "uint32",
                      "name": "",
                      "type": "uint32"
                    }
                  ],
                  "name": "memberVoted",
                  "outputs": [
                    {
                      "internalType": "bool",
                      "name": "",
                      "type": "bool"
                    }
                  ],
                  "stateMutability": "view",
                  "type": "function"
                },
                {
                  "inputs": [],
                  "name": "minRetentionPercent",
                  "outputs": [
                    {
                      "internalType": "uint256",
                      "name": "",
                      "type": "uint256"
                    }
                  ],
                  "stateMutability": "view",
                  "type": "function"
                },
                {
                  "inputs": [
                    {
                      "internalType": "address[]",
                      "name": "to",
                      "type": "address[]"
                    },
                    {
                      "internalType": "uint256[]",
                      "name": "amount",
                      "type": "uint256[]"
                    }
                  ],
                  "name": "mintLoot",
                  "outputs": [],
                  "stateMutability": "nonpayable",
                  "type": "function"
                },
                {
                  "inputs": [
                    {
                      "internalType": "address[]",
                      "name": "to",
                      "type": "address[]"
                    },
                    {
                      "internalType": "uint256[]",
                      "name": "amount",
                      "type": "uint256[]"
                    }
                  ],
                  "name": "mintShares",
                  "outputs": [],
                  "stateMutability": "nonpayable",
                  "type": "function"
                },
                {
                  "inputs": [],
                  "name": "multisendLibrary",
                  "outputs": [
                    {
                      "internalType": "address",
                      "name": "",
                      "type": "address"
                    }
                  ],
                  "stateMutability": "view",
                  "type": "function"
                },
                {
                  "inputs": [],
                  "name": "owner",
                  "outputs": [
                    {
                      "internalType": "address",
                      "name": "",
                      "type": "address"
                    }
                  ],
                  "stateMutability": "view",
                  "type": "function"
                },
                {
                  "inputs": [
                    {
                      "internalType": "uint32",
                      "name": "id",
                      "type": "uint32"
                    },
                    {
                      "internalType": "bytes",
                      "name": "proposalData",
                      "type": "bytes"
                    }
                  ],
                  "name": "processProposal",
                  "outputs": [],
                  "stateMutability": "nonpayable",
                  "type": "function"
                },
                {
                  "inputs": [],
                  "name": "proposalCount",
                  "outputs": [
                    {
                      "internalType": "uint32",
                      "name": "",
                      "type": "uint32"
                    }
                  ],
                  "stateMutability": "view",
                  "type": "function"
                },
                {
                  "inputs": [],
                  "name": "proposalOffering",
                  "outputs": [
                    {
                      "internalType": "uint256",
                      "name": "",
                      "type": "uint256"
                    }
                  ],
                  "stateMutability": "view",
                  "type": "function"
                },
                {
                  "inputs": [
                    {
                      "internalType": "uint256",
                      "name": "",
                      "type": "uint256"
                    }
                  ],
                  "name": "proposals",
                  "outputs": [
                    {
                      "internalType": "uint32",
                      "name": "id",
                      "type": "uint32"
                    },
                    {
                      "internalType": "uint32",
                      "name": "prevProposalId",
                      "type": "uint32"
                    },
                    {
                      "internalType": "uint32",
                      "name": "votingStarts",
                      "type": "uint32"
                    },
                    {
                      "internalType": "uint32",
                      "name": "votingEnds",
                      "type": "uint32"
                    },
                    {
                      "internalType": "uint32",
                      "name": "graceEnds",
                      "type": "uint32"
                    },
                    {
                      "internalType": "uint32",
                      "name": "expiration",
                      "type": "uint32"
                    },
                    {
                      "internalType": "uint256",
                      "name": "baalGas",
                      "type": "uint256"
                    },
                    {
                      "internalType": "uint256",
                      "name": "yesVotes",
                      "type": "uint256"
                    },
                    {
                      "internalType": "uint256",
                      "name": "noVotes",
                      "type": "uint256"
                    },
                    {
                      "internalType": "uint256",
                      "name": "maxTotalSharesAndLootAtVote",
                      "type": "uint256"
                    },
                    {
                      "internalType": "address",
                      "name": "sponsor",
                      "type": "address"
                    },
                    {
                      "internalType": "bytes32",
                      "name": "proposalDataHash",
                      "type": "bytes32"
                    }
                  ],
                  "stateMutability": "view",
                  "type": "function"
                },
                {
                  "inputs": [],
                  "name": "quorumPercent",
                  "outputs": [
                    {
                      "internalType": "uint256",
                      "name": "",
                      "type": "uint256"
                    }
                  ],
                  "stateMutability": "view",
                  "type": "function"
                },
                {
                  "inputs": [
                    {
                      "internalType": "address",
                      "name": "to",
                      "type": "address"
                    },
                    {
                      "internalType": "uint256",
                      "name": "sharesToBurn",
                      "type": "uint256"
                    },
                    {
                      "internalType": "uint256",
                      "name": "lootToBurn",
                      "type": "uint256"
                    },
                    {
                      "internalType": "address[]",
                      "name": "tokens",
                      "type": "address[]"
                    }
                  ],
                  "name": "ragequit",
                  "outputs": [],
                  "stateMutability": "nonpayable",
                  "type": "function"
                },
                {
                  "inputs": [],
                  "name": "renounceOwnership",
                  "outputs": [],
                  "stateMutability": "nonpayable",
                  "type": "function"
                },
                {
                  "inputs": [
                    {
                      "internalType": "bool",
                      "name": "pauseShares",
                      "type": "bool"
                    },
                    {
                      "internalType": "bool",
                      "name": "pauseLoot",
                      "type": "bool"
                    }
                  ],
                  "name": "setAdminConfig",
                  "outputs": [],
                  "stateMutability": "nonpayable",
                  "type": "function"
                },
                {
                  "inputs": [
                    {
                      "internalType": "address",
                      "name": "_avatar",
                      "type": "address"
                    }
                  ],
                  "name": "setAvatar",
                  "outputs": [],
                  "stateMutability": "nonpayable",
                  "type": "function"
                },
                {
                  "inputs": [
                    {
                      "internalType": "bytes",
                      "name": "_governanceConfig",
                      "type": "bytes"
                    }
                  ],
                  "name": "setGovernanceConfig",
                  "outputs": [],
                  "stateMutability": "nonpayable",
                  "type": "function"
                },
                {
                  "inputs": [
                    {
                      "internalType": "address",
                      "name": "_guard",
                      "type": "address"
                    }
                  ],
                  "name": "setGuard",
                  "outputs": [],
                  "stateMutability": "nonpayable",
                  "type": "function"
                },
                {
                  "inputs": [
                    {
                      "internalType": "address[]",
                      "name": "_shamans",
                      "type": "address[]"
                    },
                    {
                      "internalType": "uint256[]",
                      "name": "_permissions",
                      "type": "uint256[]"
                    }
                  ],
                  "name": "setShamans",
                  "outputs": [],
                  "stateMutability": "nonpayable",
                  "type": "function"
                },
                {
                  "inputs": [
                    {
                      "internalType": "address",
                      "name": "_target",
                      "type": "address"
                    }
                  ],
                  "name": "setTarget",
                  "outputs": [],
                  "stateMutability": "nonpayable",
                  "type": "function"
                },
                {
                  "inputs": [
                    {
                      "internalType": "address",
                      "name": "_trustedForwarderAddress",
                      "type": "address"
                    }
                  ],
                  "name": "setTrustedForwarder",
                  "outputs": [],
                  "stateMutability": "nonpayable",
                  "type": "function"
                },
                {
                  "inputs": [
                    {
                      "internalType": "bytes",
                      "name": "_initializationParams",
                      "type": "bytes"
                    }
                  ],
                  "name": "setUp",
                  "outputs": [],
                  "stateMutability": "nonpayable",
                  "type": "function"
                },
                {
                  "inputs": [
                    {
                      "internalType": "address",
                      "name": "",
                      "type": "address"
                    }
                  ],
                  "name": "shamans",
                  "outputs": [
                    {
                      "internalType": "uint256",
                      "name": "",
                      "type": "uint256"
                    }
                  ],
                  "stateMutability": "view",
                  "type": "function"
                },
                {
                  "inputs": [],
                  "name": "sharesToken",
                  "outputs": [
                    {
                      "internalType": "contract IBaalToken",
                      "name": "",
                      "type": "address"
                    }
                  ],
                  "stateMutability": "view",
                  "type": "function"
                },
                {
                  "inputs": [
                    {
                      "internalType": "uint32",
                      "name": "id",
                      "type": "uint32"
                    }
                  ],
                  "name": "sponsorProposal",
                  "outputs": [],
                  "stateMutability": "nonpayable",
                  "type": "function"
                },
                {
                  "inputs": [],
                  "name": "sponsorThreshold",
                  "outputs": [
                    {
                      "internalType": "uint256",
                      "name": "",
                      "type": "uint256"
                    }
                  ],
                  "stateMutability": "view",
                  "type": "function"
                },
                {
                  "inputs": [
                    {
                      "internalType": "uint32",
                      "name": "id",
                      "type": "uint32"
                    }
                  ],
                  "name": "state",
                  "outputs": [
                    {
                      "internalType": "enum Baal.ProposalState",
                      "name": "",
                      "type": "uint8"
                    }
                  ],
                  "stateMutability": "view",
                  "type": "function"
                },
                {
                  "inputs": [
                    {
                      "internalType": "bytes",
                      "name": "proposalData",
                      "type": "bytes"
                    },
                    {
                      "internalType": "uint32",
                      "name": "expiration",
                      "type": "uint32"
                    },
                    {
                      "internalType": "uint256",
                      "name": "baalGas",
                      "type": "uint256"
                    },
                    {
                      "internalType": "string",
                      "name": "details",
                      "type": "string"
                    }
                  ],
                  "name": "submitProposal",
                  "outputs": [
                    {
                      "internalType": "uint256",
                      "name": "",
                      "type": "uint256"
                    }
                  ],
                  "stateMutability": "payable",
                  "type": "function"
                },
                {
                  "inputs": [
                    {
                      "internalType": "uint32",
                      "name": "id",
                      "type": "uint32"
                    },
                    {
                      "internalType": "bool",
                      "name": "approved",
                      "type": "bool"
                    }
                  ],
                  "name": "submitVote",
                  "outputs": [],
                  "stateMutability": "nonpayable",
                  "type": "function"
                },
                {
                  "inputs": [
                    {
                      "internalType": "address",
                      "name": "voter",
                      "type": "address"
                    },
                    {
                      "internalType": "uint256",
                      "name": "expiry",
                      "type": "uint256"
                    },
                    {
                      "internalType": "uint256",
                      "name": "nonce",
                      "type": "uint256"
                    },
                    {
                      "internalType": "uint32",
                      "name": "id",
                      "type": "uint32"
                    },
                    {
                      "internalType": "bool",
                      "name": "approved",
                      "type": "bool"
                    },
                    {
                      "internalType": "uint8",
                      "name": "v",
                      "type": "uint8"
                    },
                    {
                      "internalType": "bytes32",
                      "name": "r",
                      "type": "bytes32"
                    },
                    {
                      "internalType": "bytes32",
                      "name": "s",
                      "type": "bytes32"
                    }
                  ],
                  "name": "submitVoteWithSig",
                  "outputs": [],
                  "stateMutability": "nonpayable",
                  "type": "function"
                },
                {
                  "inputs": [],
                  "name": "target",
                  "outputs": [
                    {
                      "internalType": "address",
                      "name": "",
                      "type": "address"
                    }
                  ],
                  "stateMutability": "view",
                  "type": "function"
                },
                {
                  "inputs": [],
                  "name": "totalLoot",
                  "outputs": [
                    {
                      "internalType": "uint256",
                      "name": "",
                      "type": "uint256"
                    }
                  ],
                  "stateMutability": "view",
                  "type": "function"
                },
                {
                  "inputs": [],
                  "name": "totalShares",
                  "outputs": [
                    {
                      "internalType": "uint256",
                      "name": "",
                      "type": "uint256"
                    }
                  ],
                  "stateMutability": "view",
                  "type": "function"
                },
                {
                  "inputs": [],
                  "name": "totalSupply",
                  "outputs": [
                    {
                      "internalType": "uint256",
                      "name": "",
                      "type": "uint256"
                    }
                  ],
                  "stateMutability": "view",
                  "type": "function"
                },
                {
                  "inputs": [
                    {
                      "internalType": "address",
                      "name": "newOwner",
                      "type": "address"
                    }
                  ],
                  "name": "transferOwnership",
                  "outputs": [],
                  "stateMutability": "nonpayable",
                  "type": "function"
                },
                {
                  "inputs": [],
                  "name": "trustedForwarder",
                  "outputs": [
                    {
                      "internalType": "address",
                      "name": "",
                      "type": "address"
                    }
                  ],
                  "stateMutability": "view",
                  "type": "function"
                },
                {
                  "inputs": [],
                  "name": "versionRecipient",
                  "outputs": [
                    {
                      "internalType": "string",
                      "name": "",
                      "type": "string"
                    }
                  ],
                  "stateMutability": "view",
                  "type": "function"
                },
                {
                  "inputs": [
                    {
                      "internalType": "address",
                      "name": "",
                      "type": "address"
                    }
                  ],
                  "name": "votingNonces",
                  "outputs": [
                    {
                      "internalType": "uint256",
                      "name": "",
                      "type": "uint256"
                    }
                  ],
                  "stateMutability": "view",
                  "type": "function"
                },
                {
                  "inputs": [],
                  "name": "votingPeriod",
                  "outputs": [
                    {
                      "internalType": "uint32",
                      "name": "",
                      "type": "uint32"
                    }
                  ],
                  "stateMutability": "view",
                  "type": "function"
                }
              ],
              "args": [],
              "numDeployments": 1,
              "linkedData": {},
              "solcInputHash": "a128f2a31ecf0f1507d09c047cd019fe",
              "metadata": "{\"compiler\":{\"version\":\"0.8.7+commit.e28d00a7\"},\"language\":\"Solidity\",\"output\":{\"abi\":[{\"inputs\":[],\"stateMutability\":\"nonpayable\",\"type\":\"constructor\"},{\"inputs\":[{\"internalType\":\"address\",\"name\":\"guard_\",\"type\":\"address\"}],\"name\":\"NotIERC165Compliant\",\"type\":\"error\"},{\"anonymous\":false,\"inputs\":[{\"indexed\":true,\"internalType\":\"address\",\"name\":\"owner\",\"type\":\"address\"},{\"indexed\":true,\"internalType\":\"address\",\"name\":\"spender\",\"type\":\"address\"},{\"indexed\":false,\"internalType\":\"uint256\",\"name\":\"amount\",\"type\":\"uint256\"}],\"name\":\"Approval\",\"type\":\"event\"},{\"anonymous\":false,\"inputs\":[{\"indexed\":true,\"internalType\":\"address\",\"name\":\"previousAvatar\",\"type\":\"address\"},{\"indexed\":true,\"internalType\":\"address\",\"name\":\"newAvatar\",\"type\":\"address\"}],\"name\":\"AvatarSet\",\"type\":\"event\"},{\"anonymous\":false,\"inputs\":[{\"indexed\":true,\"internalType\":\"uint256\",\"name\":\"proposal\",\"type\":\"uint256\"}],\"name\":\"CancelProposal\",\"type\":\"event\"},{\"anonymous\":false,\"inputs\":[{\"indexed\":false,\"internalType\":\"address\",\"name\":\"guard\",\"type\":\"address\"}],\"name\":\"ChangedGuard\",\"type\":\"event\"},{\"anonymous\":false,\"inputs\":[{\"indexed\":false,\"internalType\":\"uint32\",\"name\":\"voting\",\"type\":\"uint32\"},{\"indexed\":false,\"internalType\":\"uint32\",\"name\":\"grace\",\"type\":\"uint32\"},{\"indexed\":false,\"internalType\":\"uint256\",\"name\":\"newOffering\",\"type\":\"uint256\"},{\"indexed\":false,\"internalType\":\"uint256\",\"name\":\"quorum\",\"type\":\"uint256\"},{\"indexed\":false,\"internalType\":\"uint256\",\"name\":\"sponsor\",\"type\":\"uint256\"},{\"indexed\":false,\"internalType\":\"uint256\",\"name\":\"minRetention\",\"type\":\"uint256\"}],\"name\":\"GovernanceConfigSet\",\"type\":\"event\"},{\"anonymous\":false,\"inputs\":[{\"indexed\":false,\"internalType\":\"uint8\",\"name\":\"version\",\"type\":\"uint8\"}],\"name\":\"Initialized\",\"type\":\"event\"},{\"anonymous\":false,\"inputs\":[{\"indexed\":false,\"internalType\":\"bool\",\"name\":\"adminLock\",\"type\":\"bool\"}],\"name\":\"LockAdmin\",\"type\":\"event\"},{\"anonymous\":false,\"inputs\":[{\"indexed\":false,\"internalType\":\"bool\",\"name\":\"governorLock\",\"type\":\"bool\"}],\"name\":\"LockGovernor\",\"type\":\"event\"},{\"anonymous\":false,\"inputs\":[{\"indexed\":false,\"internalType\":\"bool\",\"name\":\"managerLock\",\"type\":\"bool\"}],\"name\":\"LockManager\",\"type\":\"event\"},{\"anonymous\":false,\"inputs\":[{\"indexed\":false,\"internalType\":\"bool\",\"name\":\"paused\",\"type\":\"bool\"}],\"name\":\"LootPaused\",\"type\":\"event\"},{\"anonymous\":false,\"inputs\":[{\"indexed\":true,\"internalType\":\"address\",\"name\":\"previousOwner\",\"type\":\"address\"},{\"indexed\":true,\"internalType\":\"address\",\"name\":\"newOwner\",\"type\":\"address\"}],\"name\":\"OwnershipTransferred\",\"type\":\"event\"},{\"anonymous\":false,\"inputs\":[{\"indexed\":true,\"internalType\":\"uint256\",\"name\":\"proposal\",\"type\":\"uint256\"},{\"indexed\":false,\"internalType\":\"bool\",\"name\":\"passed\",\"type\":\"bool\"},{\"indexed\":false,\"internalType\":\"bool\",\"name\":\"actionFailed\",\"type\":\"bool\"}],\"name\":\"ProcessProposal\",\"type\":\"event\"},{\"anonymous\":false,\"inputs\":[{\"indexed\":true,\"internalType\":\"address\",\"name\":\"member\",\"type\":\"address\"},{\"indexed\":false,\"internalType\":\"address\",\"name\":\"to\",\"type\":\"address\"},{\"indexed\":true,\"internalType\":\"uint256\",\"name\":\"lootToBurn\",\"type\":\"uint256\"},{\"indexed\":true,\"internalType\":\"uint256\",\"name\":\"sharesToBurn\",\"type\":\"uint256\"},{\"indexed\":false,\"internalType\":\"address[]\",\"name\":\"tokens\",\"type\":\"address[]\"}],\"name\":\"Ragequit\",\"type\":\"event\"},{\"anonymous\":false,\"inputs\":[{\"indexed\":true,\"internalType\":\"address\",\"name\":\"forwarder\",\"type\":\"address\"}],\"name\":\"SetTrustedForwarder\",\"type\":\"event\"},{\"anonymous\":false,\"inputs\":[{\"indexed\":false,\"internalType\":\"bool\",\"name\":\"lootPaused\",\"type\":\"bool\"},{\"indexed\":false,\"internalType\":\"bool\",\"name\":\"sharesPaused\",\"type\":\"bool\"},{\"indexed\":false,\"internalType\":\"uint32\",\"name\":\"gracePeriod\",\"type\":\"uint32\"},{\"indexed\":false,\"internalType\":\"uint32\",\"name\":\"votingPeriod\",\"type\":\"uint32\"},{\"indexed\":false,\"internalType\":\"uint256\",\"name\":\"proposalOffering\",\"type\":\"uint256\"},{\"indexed\":false,\"internalType\":\"uint256\",\"name\":\"quorumPercent\",\"type\":\"uint256\"},{\"indexed\":false,\"internalType\":\"uint256\",\"name\":\"sponsorThreshold\",\"type\":\"uint256\"},{\"indexed\":false,\"internalType\":\"uint256\",\"name\":\"minRetentionPercent\",\"type\":\"uint256\"},{\"indexed\":false,\"internalType\":\"string\",\"name\":\"name\",\"type\":\"string\"},{\"indexed\":false,\"internalType\":\"string\",\"name\":\"symbol\",\"type\":\"string\"},{\"indexed\":false,\"internalType\":\"uint256\",\"name\":\"totalShares\",\"type\":\"uint256\"},{\"indexed\":false,\"internalType\":\"uint256\",\"name\":\"totalLoot\",\"type\":\"uint256\"}],\"name\":\"SetupComplete\",\"type\":\"event\"},{\"anonymous\":false,\"inputs\":[{\"indexed\":true,\"internalType\":\"address\",\"name\":\"shaman\",\"type\":\"address\"},{\"indexed\":false,\"internalType\":\"uint256\",\"name\":\"permission\",\"type\":\"uint256\"}],\"name\":\"ShamanSet\",\"type\":\"event\"},{\"anonymous\":false,\"inputs\":[{\"indexed\":false,\"internalType\":\"bool\",\"name\":\"paused\",\"type\":\"bool\"}],\"name\":\"SharesPaused\",\"type\":\"event\"},{\"anonymous\":false,\"inputs\":[{\"indexed\":true,\"internalType\":\"address\",\"name\":\"member\",\"type\":\"address\"},{\"indexed\":true,\"internalType\":\"uint256\",\"name\":\"proposal\",\"type\":\"uint256\"},{\"indexed\":true,\"internalType\":\"uint256\",\"name\":\"votingStarts\",\"type\":\"uint256\"}],\"name\":\"SponsorProposal\",\"type\":\"event\"},{\"anonymous\":false,\"inputs\":[{\"indexed\":true,\"internalType\":\"uint256\",\"name\":\"proposal\",\"type\":\"uint256\"},{\"indexed\":true,\"internalType\":\"bytes32\",\"name\":\"proposalDataHash\",\"type\":\"bytes32\"},{\"indexed\":false,\"internalType\":\"uint256\",\"name\":\"votingPeriod\",\"type\":\"uint256\"},{\"indexed\":false,\"internalType\":\"bytes\",\"name\":\"proposalData\",\"type\":\"bytes\"},{\"indexed\":false,\"internalType\":\"uint256\",\"name\":\"expiration\",\"type\":\"uint256\"},{\"indexed\":false,\"internalType\":\"uint256\",\"name\":\"baalGas\",\"type\":\"uint256\"},{\"indexed\":false,\"internalType\":\"bool\",\"name\":\"selfSponsor\",\"type\":\"bool\"},{\"indexed\":false,\"internalType\":\"uint256\",\"name\":\"timestamp\",\"type\":\"uint256\"},{\"indexed\":false,\"internalType\":\"string\",\"name\":\"details\",\"type\":\"string\"}],\"name\":\"SubmitProposal\",\"type\":\"event\"},{\"anonymous\":false,\"inputs\":[{\"indexed\":true,\"internalType\":\"address\",\"name\":\"member\",\"type\":\"address\"},{\"indexed\":false,\"internalType\":\"uint256\",\"name\":\"balance\",\"type\":\"uint256\"},{\"indexed\":true,\"internalType\":\"uint256\",\"name\":\"proposal\",\"type\":\"uint256\"},{\"indexed\":true,\"internalType\":\"bool\",\"name\":\"approved\",\"type\":\"bool\"}],\"name\":\"SubmitVote\",\"type\":\"event\"},{\"anonymous\":false,\"inputs\":[{\"indexed\":true,\"internalType\":\"address\",\"name\":\"previousTarget\",\"type\":\"address\"},{\"indexed\":true,\"internalType\":\"address\",\"name\":\"newTarget\",\"type\":\"address\"}],\"name\":\"TargetSet\",\"type\":\"event\"},{\"inputs\":[],\"name\":\"adminLock\",\"outputs\":[{\"internalType\":\"bool\",\"name\":\"\",\"type\":\"bool\"}],\"stateMutability\":\"view\",\"type\":\"function\"},{\"inputs\":[],\"name\":\"avatar\",\"outputs\":[{\"internalType\":\"address\",\"name\":\"\",\"type\":\"address\"}],\"stateMutability\":\"view\",\"type\":\"function\"},{\"inputs\":[{\"internalType\":\"address[]\",\"name\":\"from\",\"type\":\"address[]\"},{\"internalType\":\"uint256[]\",\"name\":\"amount\",\"type\":\"uint256[]\"}],\"name\":\"burnLoot\",\"outputs\":[],\"stateMutability\":\"nonpayable\",\"type\":\"function\"},{\"inputs\":[{\"internalType\":\"address[]\",\"name\":\"from\",\"type\":\"address[]\"},{\"internalType\":\"uint256[]\",\"name\":\"amount\",\"type\":\"uint256[]\"}],\"name\":\"burnShares\",\"outputs\":[],\"stateMutability\":\"nonpayable\",\"type\":\"function\"},{\"inputs\":[{\"internalType\":\"uint32\",\"name\":\"id\",\"type\":\"uint32\"}],\"name\":\"cancelProposal\",\"outputs\":[],\"stateMutability\":\"nonpayable\",\"type\":\"function\"},{\"inputs\":[{\"internalType\":\"bytes[]\",\"name\":\"_calls\",\"type\":\"bytes[]\"},{\"internalType\":\"address\",\"name\":\"_target\",\"type\":\"address\"}],\"name\":\"encodeMultisend\",\"outputs\":[{\"internalType\":\"bytes\",\"name\":\"encodedMultisend\",\"type\":\"bytes\"}],\"stateMutability\":\"pure\",\"type\":\"function\"},{\"inputs\":[{\"internalType\":\"address\",\"name\":\"_to\",\"type\":\"address\"},{\"internalType\":\"uint256\",\"name\":\"_value\",\"type\":\"uint256\"},{\"internalType\":\"bytes\",\"name\":\"_data\",\"type\":\"bytes\"}],\"name\":\"executeAsBaal\",\"outputs\":[],\"stateMutability\":\"nonpayable\",\"type\":\"function\"},{\"inputs\":[],\"name\":\"getGuard\",\"outputs\":[{\"internalType\":\"address\",\"name\":\"_guard\",\"type\":\"address\"}],\"stateMutability\":\"view\",\"type\":\"function\"},{\"inputs\":[{\"internalType\":\"uint32\",\"name\":\"id\",\"type\":\"uint32\"}],\"name\":\"getProposalStatus\",\"outputs\":[{\"internalType\":\"bool[4]\",\"name\":\"\",\"type\":\"bool[4]\"}],\"stateMutability\":\"view\",\"type\":\"function\"},{\"inputs\":[],\"name\":\"governorLock\",\"outputs\":[{\"internalType\":\"bool\",\"name\":\"\",\"type\":\"bool\"}],\"stateMutability\":\"view\",\"type\":\"function\"},{\"inputs\":[],\"name\":\"gracePeriod\",\"outputs\":[{\"internalType\":\"uint32\",\"name\":\"\",\"type\":\"uint32\"}],\"stateMutability\":\"view\",\"type\":\"function\"},{\"inputs\":[],\"name\":\"guard\",\"outputs\":[{\"internalType\":\"address\",\"name\":\"\",\"type\":\"address\"}],\"stateMutability\":\"view\",\"type\":\"function\"},{\"inputs\":[{\"internalType\":\"bytes\",\"name\":\"_transactions\",\"type\":\"bytes\"}],\"name\":\"hashOperation\",\"outputs\":[{\"internalType\":\"bytes32\",\"name\":\"hash\",\"type\":\"bytes32\"}],\"stateMutability\":\"pure\",\"type\":\"function\"},{\"inputs\":[{\"internalType\":\"address\",\"name\":\"shaman\",\"type\":\"address\"}],\"name\":\"isAdmin\",\"outputs\":[{\"internalType\":\"bool\",\"name\":\"\",\"type\":\"bool\"}],\"stateMutability\":\"view\",\"type\":\"function\"},{\"inputs\":[{\"internalType\":\"address\",\"name\":\"shaman\",\"type\":\"address\"}],\"name\":\"isGovernor\",\"outputs\":[{\"internalType\":\"bool\",\"name\":\"\",\"type\":\"bool\"}],\"stateMutability\":\"view\",\"type\":\"function\"},{\"inputs\":[{\"internalType\":\"address\",\"name\":\"shaman\",\"type\":\"address\"}],\"name\":\"isManager\",\"outputs\":[{\"internalType\":\"bool\",\"name\":\"\",\"type\":\"bool\"}],\"stateMutability\":\"view\",\"type\":\"function\"},{\"inputs\":[{\"internalType\":\"address\",\"name\":\"forwarder\",\"type\":\"address\"}],\"name\":\"isTrustedForwarder\",\"outputs\":[{\"internalType\":\"bool\",\"name\":\"\",\"type\":\"bool\"}],\"stateMutability\":\"view\",\"type\":\"function\"},{\"inputs\":[],\"name\":\"latestSponsoredProposalId\",\"outputs\":[{\"internalType\":\"uint32\",\"name\":\"\",\"type\":\"uint32\"}],\"stateMutability\":\"view\",\"type\":\"function\"},{\"inputs\":[],\"name\":\"lockAdmin\",\"outputs\":[],\"stateMutability\":\"nonpayable\",\"type\":\"function\"},{\"inputs\":[],\"name\":\"lockGovernor\",\"outputs\":[],\"stateMutability\":\"nonpayable\",\"type\":\"function\"},{\"inputs\":[],\"name\":\"lockManager\",\"outputs\":[],\"stateMutability\":\"nonpayable\",\"type\":\"function\"},{\"inputs\":[],\"name\":\"lootToken\",\"outputs\":[{\"internalType\":\"contract IBaalToken\",\"name\":\"\",\"type\":\"address\"}],\"stateMutability\":\"view\",\"type\":\"function\"},{\"inputs\":[],\"name\":\"managerLock\",\"outputs\":[{\"internalType\":\"bool\",\"name\":\"\",\"type\":\"bool\"}],\"stateMutability\":\"view\",\"type\":\"function\"},{\"inputs\":[{\"internalType\":\"address\",\"name\":\"\",\"type\":\"address\"},{\"internalType\":\"uint32\",\"name\":\"\",\"type\":\"uint32\"}],\"name\":\"memberVoted\",\"outputs\":[{\"internalType\":\"bool\",\"name\":\"\",\"type\":\"bool\"}],\"stateMutability\":\"view\",\"type\":\"function\"},{\"inputs\":[],\"name\":\"minRetentionPercent\",\"outputs\":[{\"internalType\":\"uint256\",\"name\":\"\",\"type\":\"uint256\"}],\"stateMutability\":\"view\",\"type\":\"function\"},{\"inputs\":[{\"internalType\":\"address[]\",\"name\":\"to\",\"type\":\"address[]\"},{\"internalType\":\"uint256[]\",\"name\":\"amount\",\"type\":\"uint256[]\"}],\"name\":\"mintLoot\",\"outputs\":[],\"stateMutability\":\"nonpayable\",\"type\":\"function\"},{\"inputs\":[{\"internalType\":\"address[]\",\"name\":\"to\",\"type\":\"address[]\"},{\"internalType\":\"uint256[]\",\"name\":\"amount\",\"type\":\"uint256[]\"}],\"name\":\"mintShares\",\"outputs\":[],\"stateMutability\":\"nonpayable\",\"type\":\"function\"},{\"inputs\":[],\"name\":\"multisendLibrary\",\"outputs\":[{\"internalType\":\"address\",\"name\":\"\",\"type\":\"address\"}],\"stateMutability\":\"view\",\"type\":\"function\"},{\"inputs\":[],\"name\":\"owner\",\"outputs\":[{\"internalType\":\"address\",\"name\":\"\",\"type\":\"address\"}],\"stateMutability\":\"view\",\"type\":\"function\"},{\"inputs\":[{\"internalType\":\"uint32\",\"name\":\"id\",\"type\":\"uint32\"},{\"internalType\":\"bytes\",\"name\":\"proposalData\",\"type\":\"bytes\"}],\"name\":\"processProposal\",\"outputs\":[],\"stateMutability\":\"nonpayable\",\"type\":\"function\"},{\"inputs\":[],\"name\":\"proposalCount\",\"outputs\":[{\"internalType\":\"uint32\",\"name\":\"\",\"type\":\"uint32\"}],\"stateMutability\":\"view\",\"type\":\"function\"},{\"inputs\":[],\"name\":\"proposalOffering\",\"outputs\":[{\"internalType\":\"uint256\",\"name\":\"\",\"type\":\"uint256\"}],\"stateMutability\":\"view\",\"type\":\"function\"},{\"inputs\":[{\"internalType\":\"uint256\",\"name\":\"\",\"type\":\"uint256\"}],\"name\":\"proposals\",\"outputs\":[{\"internalType\":\"uint32\",\"name\":\"id\",\"type\":\"uint32\"},{\"internalType\":\"uint32\",\"name\":\"prevProposalId\",\"type\":\"uint32\"},{\"internalType\":\"uint32\",\"name\":\"votingStarts\",\"type\":\"uint32\"},{\"internalType\":\"uint32\",\"name\":\"votingEnds\",\"type\":\"uint32\"},{\"internalType\":\"uint32\",\"name\":\"graceEnds\",\"type\":\"uint32\"},{\"internalType\":\"uint32\",\"name\":\"expiration\",\"type\":\"uint32\"},{\"internalType\":\"uint256\",\"name\":\"baalGas\",\"type\":\"uint256\"},{\"internalType\":\"uint256\",\"name\":\"yesVotes\",\"type\":\"uint256\"},{\"internalType\":\"uint256\",\"name\":\"noVotes\",\"type\":\"uint256\"},{\"internalType\":\"uint256\",\"name\":\"maxTotalSharesAndLootAtVote\",\"type\":\"uint256\"},{\"internalType\":\"address\",\"name\":\"sponsor\",\"type\":\"address\"},{\"internalType\":\"bytes32\",\"name\":\"proposalDataHash\",\"type\":\"bytes32\"}],\"stateMutability\":\"view\",\"type\":\"function\"},{\"inputs\":[],\"name\":\"quorumPercent\",\"outputs\":[{\"internalType\":\"uint256\",\"name\":\"\",\"type\":\"uint256\"}],\"stateMutability\":\"view\",\"type\":\"function\"},{\"inputs\":[{\"internalType\":\"address\",\"name\":\"to\",\"type\":\"address\"},{\"internalType\":\"uint256\",\"name\":\"sharesToBurn\",\"type\":\"uint256\"},{\"internalType\":\"uint256\",\"name\":\"lootToBurn\",\"type\":\"uint256\"},{\"internalType\":\"address[]\",\"name\":\"tokens\",\"type\":\"address[]\"}],\"name\":\"ragequit\",\"outputs\":[],\"stateMutability\":\"nonpayable\",\"type\":\"function\"},{\"inputs\":[],\"name\":\"renounceOwnership\",\"outputs\":[],\"stateMutability\":\"nonpayable\",\"type\":\"function\"},{\"inputs\":[{\"internalType\":\"bool\",\"name\":\"pauseShares\",\"type\":\"bool\"},{\"internalType\":\"bool\",\"name\":\"pauseLoot\",\"type\":\"bool\"}],\"name\":\"setAdminConfig\",\"outputs\":[],\"stateMutability\":\"nonpayable\",\"type\":\"function\"},{\"inputs\":[{\"internalType\":\"address\",\"name\":\"_avatar\",\"type\":\"address\"}],\"name\":\"setAvatar\",\"outputs\":[],\"stateMutability\":\"nonpayable\",\"type\":\"function\"},{\"inputs\":[{\"internalType\":\"bytes\",\"name\":\"_governanceConfig\",\"type\":\"bytes\"}],\"name\":\"setGovernanceConfig\",\"outputs\":[],\"stateMutability\":\"nonpayable\",\"type\":\"function\"},{\"inputs\":[{\"internalType\":\"address\",\"name\":\"_guard\",\"type\":\"address\"}],\"name\":\"setGuard\",\"outputs\":[],\"stateMutability\":\"nonpayable\",\"type\":\"function\"},{\"inputs\":[{\"internalType\":\"address[]\",\"name\":\"_shamans\",\"type\":\"address[]\"},{\"internalType\":\"uint256[]\",\"name\":\"_permissions\",\"type\":\"uint256[]\"}],\"name\":\"setShamans\",\"outputs\":[],\"stateMutability\":\"nonpayable\",\"type\":\"function\"},{\"inputs\":[{\"internalType\":\"address\",\"name\":\"_target\",\"type\":\"address\"}],\"name\":\"setTarget\",\"outputs\":[],\"stateMutability\":\"nonpayable\",\"type\":\"function\"},{\"inputs\":[{\"internalType\":\"address\",\"name\":\"_trustedForwarderAddress\",\"type\":\"address\"}],\"name\":\"setTrustedForwarder\",\"outputs\":[],\"stateMutability\":\"nonpayable\",\"type\":\"function\"},{\"inputs\":[{\"internalType\":\"bytes\",\"name\":\"_initializationParams\",\"type\":\"bytes\"}],\"name\":\"setUp\",\"outputs\":[],\"stateMutability\":\"nonpayable\",\"type\":\"function\"},{\"inputs\":[{\"internalType\":\"address\",\"name\":\"\",\"type\":\"address\"}],\"name\":\"shamans\",\"outputs\":[{\"internalType\":\"uint256\",\"name\":\"\",\"type\":\"uint256\"}],\"stateMutability\":\"view\",\"type\":\"function\"},{\"inputs\":[],\"name\":\"sharesToken\",\"outputs\":[{\"internalType\":\"contract IBaalToken\",\"name\":\"\",\"type\":\"address\"}],\"stateMutability\":\"view\",\"type\":\"function\"},{\"inputs\":[{\"internalType\":\"uint32\",\"name\":\"id\",\"type\":\"uint32\"}],\"name\":\"sponsorProposal\",\"outputs\":[],\"stateMutability\":\"nonpayable\",\"type\":\"function\"},{\"inputs\":[],\"name\":\"sponsorThreshold\",\"outputs\":[{\"internalType\":\"uint256\",\"name\":\"\",\"type\":\"uint256\"}],\"stateMutability\":\"view\",\"type\":\"function\"},{\"inputs\":[{\"internalType\":\"uint32\",\"name\":\"id\",\"type\":\"uint32\"}],\"name\":\"state\",\"outputs\":[{\"internalType\":\"enum Baal.ProposalState\",\"name\":\"\",\"type\":\"uint8\"}],\"stateMutability\":\"view\",\"type\":\"function\"},{\"inputs\":[{\"internalType\":\"bytes\",\"name\":\"proposalData\",\"type\":\"bytes\"},{\"internalType\":\"uint32\",\"name\":\"expiration\",\"type\":\"uint32\"},{\"internalType\":\"uint256\",\"name\":\"baalGas\",\"type\":\"uint256\"},{\"internalType\":\"string\",\"name\":\"details\",\"type\":\"string\"}],\"name\":\"submitProposal\",\"outputs\":[{\"internalType\":\"uint256\",\"name\":\"\",\"type\":\"uint256\"}],\"stateMutability\":\"payable\",\"type\":\"function\"},{\"inputs\":[{\"internalType\":\"uint32\",\"name\":\"id\",\"type\":\"uint32\"},{\"internalType\":\"bool\",\"name\":\"approved\",\"type\":\"bool\"}],\"name\":\"submitVote\",\"outputs\":[],\"stateMutability\":\"nonpayable\",\"type\":\"function\"},{\"inputs\":[{\"internalType\":\"address\",\"name\":\"voter\",\"type\":\"address\"},{\"internalType\":\"uint256\",\"name\":\"expiry\",\"type\":\"uint256\"},{\"internalType\":\"uint256\",\"name\":\"nonce\",\"type\":\"uint256\"},{\"internalType\":\"uint32\",\"name\":\"id\",\"type\":\"uint32\"},{\"internalType\":\"bool\",\"name\":\"approved\",\"type\":\"bool\"},{\"internalType\":\"uint8\",\"name\":\"v\",\"type\":\"uint8\"},{\"internalType\":\"bytes32\",\"name\":\"r\",\"type\":\"bytes32\"},{\"internalType\":\"bytes32\",\"name\":\"s\",\"type\":\"bytes32\"}],\"name\":\"submitVoteWithSig\",\"outputs\":[],\"stateMutability\":\"nonpayable\",\"type\":\"function\"},{\"inputs\":[],\"name\":\"target\",\"outputs\":[{\"internalType\":\"address\",\"name\":\"\",\"type\":\"address\"}],\"stateMutability\":\"view\",\"type\":\"function\"},{\"inputs\":[],\"name\":\"totalLoot\",\"outputs\":[{\"internalType\":\"uint256\",\"name\":\"\",\"type\":\"uint256\"}],\"stateMutability\":\"view\",\"type\":\"function\"},{\"inputs\":[],\"name\":\"totalShares\",\"outputs\":[{\"internalType\":\"uint256\",\"name\":\"\",\"type\":\"uint256\"}],\"stateMutability\":\"view\",\"type\":\"function\"},{\"inputs\":[],\"name\":\"totalSupply\",\"outputs\":[{\"internalType\":\"uint256\",\"name\":\"\",\"type\":\"uint256\"}],\"stateMutability\":\"view\",\"type\":\"function\"},{\"inputs\":[{\"internalType\":\"address\",\"name\":\"newOwner\",\"type\":\"address\"}],\"name\":\"transferOwnership\",\"outputs\":[],\"stateMutability\":\"nonpayable\",\"type\":\"function\"},{\"inputs\":[],\"name\":\"trustedForwarder\",\"outputs\":[{\"internalType\":\"address\",\"name\":\"\",\"type\":\"address\"}],\"stateMutability\":\"view\",\"type\":\"function\"},{\"inputs\":[],\"name\":\"versionRecipient\",\"outputs\":[{\"internalType\":\"string\",\"name\":\"\",\"type\":\"string\"}],\"stateMutability\":\"view\",\"type\":\"function\"},{\"inputs\":[{\"internalType\":\"address\",\"name\":\"\",\"type\":\"address\"}],\"name\":\"votingNonces\",\"outputs\":[{\"internalType\":\"uint256\",\"name\":\"\",\"type\":\"uint256\"}],\"stateMutability\":\"view\",\"type\":\"function\"},{\"inputs\":[],\"name\":\"votingPeriod\",\"outputs\":[{\"internalType\":\"uint32\",\"name\":\"\",\"type\":\"uint32\"}],\"stateMutability\":\"view\",\"type\":\"function\"}],\"devdoc\":{\"kind\":\"dev\",\"methods\":{\"burnLoot(address[],uint256[])\":{\"params\":{\"amount\":\"Array of amounts to burn\",\"from\":\"Array of addresses to lose loot\"}},\"burnShares(address[],uint256[])\":{\"params\":{\"amount\":\"Array of amounts to burn\",\"from\":\"Array of addresses to lose shares\"}},\"cancelProposal(uint32)\":{\"details\":\"Cancellable if proposal is during voting, sender is sponsor, governor, or if sponsor has fallen below threshold\",\"params\":{\"id\":\"Number of proposal in `proposals` mapping to process for execution.\"}},\"executeAsBaal(address,uint256,bytes)\":{\"details\":\"Function to Execute arbitrary code as baal - useful if funds are accidentally sent here\",\"params\":{\"_data\":\"arbitrary transaction data\",\"_to\":\"address to call\",\"_value\":\"value to include in wei\"}},\"getProposalStatus(uint32)\":{\"params\":{\"id\":\"Number of proposal in proposals\"},\"returns\":{\"_0\":\"[cancelled, processed, passed, actionFailed]\"}},\"isAdmin(address)\":{\"params\":{\"shaman\":\"Address attempting to execute admin permissioned functions\"}},\"isGovernor(address)\":{\"params\":{\"shaman\":\"Address attempting to execute governor permissioned functions\"}},\"isManager(address)\":{\"params\":{\"shaman\":\"Address attempting to execute manager permissioned functions\"}},\"mintLoot(address[],uint256[])\":{\"params\":{\"amount\":\"Array of amounts to mint\",\"to\":\"Array of addresses to mint loot\"}},\"mintShares(address[],uint256[])\":{\"params\":{\"amount\":\"Array of amounts to mint\",\"to\":\"Array of addresses to receive shares\"}},\"owner()\":{\"details\":\"Returns the address of the current owner.\"},\"processProposal(uint32,bytes)\":{\"details\":\"Proposal must have succeeded, not been processed, not expired, retention threshold must be met\",\"params\":{\"id\":\"Number of proposal in `proposals` mapping to process for execution.\",\"proposalData\":\"Packed multisend data to execute via Gnosis multisend library\"}},\"ragequit(address,uint256,uint256,address[])\":{\"params\":{\"lootToBurn\":\"Baal pure economic weight to burn.\",\"sharesToBurn\":\"Baal voting weight to burn.\",\"to\":\"Account that receives 'fair share'.\",\"tokens\":\"Array of tokens to include in rage quit calculation\"}},\"renounceOwnership()\":{\"details\":\"Leaves the contract without owner. It will not be possible to call `onlyOwner` functions anymore. Can only be called by the current owner. NOTE: Renouncing ownership will leave the contract without an owner, thereby removing any functionality that is only available to the owner.\"},\"setAdminConfig(bool,bool)\":{\"params\":{\"pauseLoot\":\"Turn loot transfers on or off\",\"pauseShares\":\"Turn share transfers on or off\"}},\"setAvatar(address)\":{\"details\":\"Sets the avatar to a new avatar (`newAvatar`).\"},\"setGovernanceConfig(bytes)\":{\"params\":{\"_governanceConfig\":\"Encoded configuration parameters voting, grace period, tribute, quorum, sponsor threshold, retention bound\"}},\"setGuard(address)\":{\"details\":\"Set a guard that checks transactions before execution.\",\"params\":{\"_guard\":\"The address of the guard to be used or the 0 address to disable the guard.\"}},\"setShamans(address[],uint256[])\":{\"params\":{\"_permissions\":\"Permission level of each shaman in _shamans\",\"_shamans\":\"Addresses of shaman contracts\"}},\"setTarget(address)\":{\"details\":\"Sets the target to a new target (`newTarget`).\"},\"setTrustedForwarder(address)\":{\"params\":{\"_trustedForwarderAddress\":\"Trusted forwarder's address\"}},\"setUp(bytes)\":{\"params\":{\"_initializationParams\":\"Encoded setup information.\"}},\"sponsorProposal(uint32)\":{\"params\":{\"id\":\"Number of proposal in `proposals` mapping to sponsor.\"}},\"state(uint32)\":{\"params\":{\"id\":\"Number of proposal in proposals\"},\"returns\":{\"_0\":\"Unborn -> Submitted -> Voting -> Grace -> Ready -> Processed         \\\\-> Cancelled  \\\\-> Defeated\"}},\"submitProposal(bytes,uint32,uint256,string)\":{\"params\":{\"details\":\"Context for proposal.\",\"proposalData\":\"Multisend encoded transactions or proposal data\"},\"returns\":{\"_0\":\"proposal Count for submitted proposal.\"}},\"submitVote(uint32,bool)\":{\"params\":{\"approved\":\"If 'true', member will cast `yesVotes` onto proposal - if 'false', `noVotes` will be counted.\",\"id\":\"Number of proposal in `proposals` mapping to cast vote on.\"}},\"submitVoteWithSig(address,uint256,uint256,uint32,bool,uint8,bytes32,bytes32)\":{\"params\":{\"approved\":\"If 'true', member will cast `yesVotes` onto proposal - if 'false', `noVotes` will be counted.\",\"expiry\":\"Expiration of signature.\",\"id\":\"Number of proposal in `proposals` mapping to cast vote on.\",\"r\":\"r in signature\",\"s\":\"s in signature\",\"v\":\"v in signature\",\"voter\":\"Address of member who submitted vote.\"}},\"transferOwnership(address)\":{\"details\":\"Transfers ownership of the contract to a new account (`newOwner`). Can only be called by the current owner.\"}},\"title\":\"Baal ';_;'.\",\"version\":1},\"userdoc\":{\"errors\":{\"NotIERC165Compliant(address)\":[{\"notice\":\"`guard_` does not implement IERC165.\"}]},\"kind\":\"user\",\"methods\":{\"burnLoot(address[],uint256[])\":{\"notice\":\"Baal-or-manager-only function to burn loot.\"},\"burnShares(address[],uint256[])\":{\"notice\":\"Baal-or-manager-only function to burn shares.\"},\"cancelProposal(uint32)\":{\"notice\":\"Cancel proposal prior to execution\"},\"executeAsBaal(address,uint256,bytes)\":{\"notice\":\"Can only be called by the avatar which means this can only be called if passed by another     proposal or by a delegated signer on the Safe\"},\"getProposalStatus(uint32)\":{\"notice\":\"Helper to get recorded proposal flags\"},\"hashOperation(bytes)\":{\"notice\":\"Returns the keccak256 hash of calldata\"},\"isAdmin(address)\":{\"notice\":\"Helper to check if shaman permission contains admin capabilities\"},\"isGovernor(address)\":{\"notice\":\"Helper to check if shaman permission contains governor capabilities\"},\"isManager(address)\":{\"notice\":\"Helper to check if shaman permission contains manager capabilities\"},\"isTrustedForwarder(address)\":{\"notice\":\"return if the forwarder is trusted to forward relayed transactions to us. the forwarder is required to verify the sender's signature, and verify the call is not a replay.\"},\"lockAdmin()\":{\"notice\":\"Lock admin so setShamans cannot be called with admin changes\"},\"lockGovernor()\":{\"notice\":\"Lock governor so setShamans cannot be called with governor changes\"},\"lockManager()\":{\"notice\":\"Lock manager so setShamans cannot be called with manager changes\"},\"mintLoot(address[],uint256[])\":{\"notice\":\"Baal-or-manager-only function to mint loot.\"},\"mintShares(address[],uint256[])\":{\"notice\":\"Baal-or-manager-only function to mint shares.\"},\"processProposal(uint32,bytes)\":{\"notice\":\"Process `proposal` & execute internal functions.\"},\"ragequit(address,uint256,uint256,address[])\":{\"notice\":\"Process member burn of `shares` and/or `loot` to claim 'fair share' of specified `tokens`\"},\"setAdminConfig(bool,bool)\":{\"notice\":\"Baal-or-admin-only function to set admin config (pause/unpause shares/loot) and call function on token\"},\"setAvatar(address)\":{\"notice\":\"Can only be called by the current owner.\"},\"setGovernanceConfig(bytes)\":{\"notice\":\"Baal-or-governance-only function to change periods.\"},\"setShamans(address[],uint256[])\":{\"notice\":\"Baal-only function to set shaman status.\"},\"setTarget(address)\":{\"notice\":\"Can only be called by the current owner.\"},\"setTrustedForwarder(address)\":{\"notice\":\"Baal-or-governance only function to set trusted forwarder for meta-transactions.\"},\"setUp(bytes)\":{\"notice\":\"Summon Baal with voting configuration & initial array of `members` accounts with `shares` & `loot` weights.\"},\"sponsorProposal(uint32)\":{\"notice\":\"Sponsor proposal to Baal `members` for approval within voting period.\"},\"state(uint32)\":{\"notice\":\"State helper to determine proposal state\"},\"submitProposal(bytes,uint32,uint256,string)\":{\"notice\":\"Submit proposal to Baal `members` for approval within given voting period.\"},\"submitVote(uint32,bool)\":{\"notice\":\"Submit vote - proposal must exist & voting period must not have ended.\"},\"submitVoteWithSig(address,uint256,uint256,uint32,bool,uint8,bytes32,bytes32)\":{\"notice\":\"Submit vote with EIP-712 signature - proposal must exist & voting period must not have ended.\"},\"totalLoot()\":{\"notice\":\"Helper to check total supply of child loot contract\"},\"totalShares()\":{\"notice\":\"Helper to check total supply of child shares contract\"},\"totalSupply()\":{\"notice\":\"Helper to check total supply of loot and shares\"}},\"notice\":\"Flexible guild contract inspired by Moloch DAO framework.\",\"version\":1}},\"settings\":{\"compilationTarget\":{\"contracts/Baal.sol\":\"Baal\"},\"evmVersion\":\"london\",\"libraries\":{},\"metadata\":{\"bytecodeHash\":\"ipfs\"},\"optimizer\":{\"enabled\":true,\"runs\":200},\"remappings\":[]},\"sources\":{\"@gnosis.pm/safe-contracts/contracts/GnosisSafe.sol\":{\"keccak256\":\"0x2ca9e3e053c969b9364f62c50c2c25b92525db7fd0bad3ae1fb0c20dd575367c\",\"license\":\"LGPL-3.0-only\",\"urls\":[\"bzz-raw://ef1bceac49ae93b31aec41380862fdc267823c41e2dfefb9b7d70d0996e858e1\",\"dweb:/ipfs/QmWFU5bic2CGv8QgQ8bxJnjMfuJgNL2zZubt5hvzhcRZPc\"]},\"@gnosis.pm/safe-contracts/contracts/base/Executor.sol\":{\"keccak256\":\"0x4d3a900673473466bc27413fdbb11aae60b5580b792c49411f01544e0b24fe08\",\"license\":\"LGPL-3.0-only\",\"urls\":[\"bzz-raw://71ada0590998f47d1ee9759aa190c82d4b348d59a2f582747650d9720245a309\",\"dweb:/ipfs/Qmb9UudLoJpPutHVP9pXd1poP5CqFf5sxVFuYw14SYfRFk\"]},\"@gnosis.pm/safe-contracts/contracts/base/FallbackManager.sol\":{\"keccak256\":\"0x1be9f0f3e80a78134c2e3a026c6a14759785bd35d135e87a4a025aeb6742791f\",\"license\":\"LGPL-3.0-only\",\"urls\":[\"bzz-raw://44130f09921e895c0b9d7797de1d64940a8c43391efcda3a0208cb9ad96475a7\",\"dweb:/ipfs/QmUur4hzvCJ68PnW6zQFpemAMH2DH5mExPqSZdpKeY1ZRN\"]},\"@gnosis.pm/safe-contracts/contracts/base/GuardManager.sol\":{\"keccak256\":\"0x53a532a31f9632d5a73ad0df56f05bd2b66a2f781f571eb48d00367d370707f9\",\"license\":\"LGPL-3.0-only\",\"urls\":[\"bzz-raw://eebc15cb7c83cf9516514b34bd16fb19c08104c738fa172ae3c98c66b84708ed\",\"dweb:/ipfs/QmfJ4yX5WwHU58QVoxJFaejyerscTs6VCgn2TdUVrEZeTP\"]},\"@gnosis.pm/safe-contracts/contracts/base/ModuleManager.sol\":{\"keccak256\":\"0x5512760a0328309f82a71cbe2ac14e0942501b9d44d5fb417bd02174546672e5\",\"license\":\"LGPL-3.0-only\",\"urls\":[\"bzz-raw://763cf803a98a921d62ed51d7876a13aed63968c828f026ce2beb747d2631c0bc\",\"dweb:/ipfs/QmbHZoYsbkxC2kVCs4pQ4nRaFrcgU5X8FuLX7vV3qDR9Y5\"]},\"@gnosis.pm/safe-contracts/contracts/base/OwnerManager.sol\":{\"keccak256\":\"0x01a3d64cc0967f42ae63802409f5404d18352516ea2a6335005003d919ffcf12\",\"license\":\"LGPL-3.0-only\",\"urls\":[\"bzz-raw://91824103f2966612103705d6493290e193b0c0ca2bbe7141965184435dbb999b\",\"dweb:/ipfs/Qmd7u917v4DnD4hvQGAGbchVJ8A7pm1UCzCv7sAzQnRoi4\"]},\"@gnosis.pm/safe-contracts/contracts/common/Enum.sol\":{\"keccak256\":\"0x473e45b1a5cc47be494b0e123c9127f0c11c1e0992a321ae5a644c0bfdb2c14f\",\"license\":\"LGPL-3.0-only\",\"urls\":[\"bzz-raw://948e6d5a8bd7377f7795b6e28584eab9be5c0a8db240bf5e606744a175238c3d\",\"dweb:/ipfs/QmQQaUmQfpuejV41jbxKSTgEBYYCcVTjCsDMgf2htgz6ej\"]},\"@gnosis.pm/safe-contracts/contracts/common/EtherPaymentFallback.sol\":{\"keccak256\":\"0x1a7928d29877da84a3d0df846d5cd933d48ee095c1bde0aa044e249b12e27a72\",\"license\":\"LGPL-3.0-only\",\"urls\":[\"bzz-raw://962fc098cfdd8a43cc7d294c1105718ea985cacf1172ea0426f7370e2096b830\",\"dweb:/ipfs/QmdZrxJ7dSWuTjbrN133YiRDLwYQr21zLr3CqWWtowY9Gu\"]},\"@gnosis.pm/safe-contracts/contracts/common/SecuredTokenTransfer.sol\":{\"keccak256\":\"0x178682d8477da42936c7e8e24d39094c4ac08ecd8623794b9535d77001b665f1\",\"license\":\"LGPL-3.0-only\",\"urls\":[\"bzz-raw://2ae8a6d5c7d4cc19c3b957c8857e87e92a4570effebf32ba54184c2b8375a0a2\",\"dweb:/ipfs/QmVNgRcRVgQZriJm8KVXQvRbHQf74wH7ABmBNTjBTqBa8r\"]},\"@gnosis.pm/safe-contracts/contracts/common/SelfAuthorized.sol\":{\"keccak256\":\"0x59d36efca578b75541a776f62a0d0ef03712fc27b6647c3915c14b572106d7bc\",\"license\":\"LGPL-3.0-only\",\"urls\":[\"bzz-raw://8530c6e0392415d42486847cd4368d30f6cac42051596330692a571fcdbb9e29\",\"dweb:/ipfs/QmWw51Pshw5t2sMKANzxtfNdBSQUyQQpfTr3Mi7oNJGk7U\"]},\"@gnosis.pm/safe-contracts/contracts/common/SignatureDecoder.sol\":{\"keccak256\":\"0x2d37be182472ccfee62a33e9939f9b3d509be4c32e9fdebc2c1746c573655987\",\"license\":\"LGPL-3.0-only\",\"urls\":[\"bzz-raw://f76d96f10640beee7d4b4ad119bd3c64aeb26929011d9c1eec738c63ebc92f63\",\"dweb:/ipfs/QmaqgDocQumKeyUMgZU7STzpTASQjDbUxbQKuZ17xhLaXz\"]},\"@gnosis.pm/safe-contracts/contracts/common/Singleton.sol\":{\"keccak256\":\"0x6e02c18998de8834dd7d69890cb6ede996b6f635d2337081a596d91e35e2c648\",\"license\":\"LGPL-3.0-only\",\"urls\":[\"bzz-raw://ce1dfe9f820352b6f95b350ac0b3fa8afc24ad77bffffc2c9e00462e2a41a666\",\"dweb:/ipfs/QmVr2dCUbNbg5e7UsgngGij5mybgkXcbf5e5cPhT21aFXA\"]},\"@gnosis.pm/safe-contracts/contracts/common/StorageAccessible.sol\":{\"keccak256\":\"0x36853adb266c2ab7d3c612aca799441a86bd15d9e1d24fc6c70d63f5c2df3aaf\",\"license\":\"LGPL-3.0-only\",\"urls\":[\"bzz-raw://3f210f47e032444049040d2929b32e02089aac1d05b07dcd77ee34bb63505dfa\",\"dweb:/ipfs/QmbE8GXFAbthieTL51S2XPF5URyPaj1tDubVuhztkSoiPo\"]},\"@gnosis.pm/safe-contracts/contracts/external/GnosisSafeMath.sol\":{\"keccak256\":\"0x2a2b4d74f5834a9437be0cd3254d7a676698fc78aa47941c2009470196998d98\",\"license\":\"LGPL-3.0-only\",\"urls\":[\"bzz-raw://ea04449ba8b78ec44f3463b68cbce971875626e91d028add50900c41101a1156\",\"dweb:/ipfs/QmR95ci4HVkJuyYGvYRHVpp6N3wefu5WVDhipKwRechWV6\"]},\"@gnosis.pm/safe-contracts/contracts/interfaces/ISignatureValidator.sol\":{\"keccak256\":\"0x5b6e9bf17f28738ce88e751f420b0559f5151ba7bec2ff3c7bb31e42673d6801\",\"license\":\"LGPL-3.0-only\",\"urls\":[\"bzz-raw://bfdde8390deb619e38f98be67c5f9d26f12623855540af76b9f454142d3896c1\",\"dweb:/ipfs/QmZrr1ocToR5S62W177qV2csfs7wCQNs3t9vatyx32uLXz\"]},\"@gnosis.pm/zodiac/contracts/core/Module.sol\":{\"keccak256\":\"0x1b9b6f3b43db68f3c142b326544115d1b1fa1f319c980922ea0a29aa80f53664\",\"license\":\"LGPL-3.0-only\",\"urls\":[\"bzz-raw://89c48fe4addf27af8b1cbc3cad8a0b27fde67d0de8b29aba811b9d4cb97c6112\",\"dweb:/ipfs/QmNoJhTbtVv2J237BsMPfuNwSkPAq6zsAr2FNrnUkVBp3X\"]},\"@gnosis.pm/zodiac/contracts/factory/FactoryFriendly.sol\":{\"keccak256\":\"0x96e61585b7340a901a54eb4c157ce28b630bff3d9d4597dfaac692128ea458c4\",\"license\":\"LGPL-3.0-only\",\"urls\":[\"bzz-raw://26252f06a8f31d7fe771b50fde9a6338133750bf05f7fc421dfa70c1df25ed7b\",\"dweb:/ipfs/QmQrZ4Zgvi3andou57Be9qpMmZatMx88rMxp3DPwUaFPsR\"]},\"@gnosis.pm/zodiac/contracts/guard/BaseGuard.sol\":{\"keccak256\":\"0xa825848d06a1fc3cb7ad86727c669c8fc6b3bd8dbe419a617830ddcd5e245e47\",\"license\":\"LGPL-3.0-only\",\"urls\":[\"bzz-raw://58bd190f4bb876471908d6145c6bebb9a22b5c9183192ffe199f4d94753f36bb\",\"dweb:/ipfs/QmYioir1PsjbCWAdCrFGJQiGHZM65umtb8qUSa63cb5Djq\"]},\"@gnosis.pm/zodiac/contracts/guard/Guardable.sol\":{\"keccak256\":\"0xebdcfbe7f0822d8afcc21a1ca8d809417b438cc8b27c3547190a1627a9f5110f\",\"license\":\"LGPL-3.0-only\",\"urls\":[\"bzz-raw://b1c6c35a0ed50d561d819c60423b7a5e6c7cbeaf61c5e0b83dab210def1dd4ec\",\"dweb:/ipfs/QmSz8F6MtuYZMvMJDmfpt8VxHFeVexqS7mpWJE6kuJ8ZAF\"]},\"@gnosis.pm/zodiac/contracts/interfaces/IAvatar.sol\":{\"keccak256\":\"0xcd5508ffe596eef8fbccfd5fc4f10a34397773547ce64e212d48b5212865ec1f\",\"license\":\"LGPL-3.0-only\",\"urls\":[\"bzz-raw://1655ba8b760132ebd702cc806fcdad50a44d320fbeca14be00e35b0171bd35cf\",\"dweb:/ipfs/QmcbB5HpCoEQCTHKWxHS3HpFmgaB4AcZxZYtvQk2QEyvN2\"]},\"@gnosis.pm/zodiac/contracts/interfaces/IGuard.sol\":{\"keccak256\":\"0xd0d855accbc5fba81c67ab22cdbb03325a8a4d7f6b7e981d1ff0fec3178e464d\",\"license\":\"LGPL-3.0-only\",\"urls\":[\"bzz-raw://4b51c586b33cc97caebe85472855bbb4c56a4e387b14cde2c8110b12ace7ba6b\",\"dweb:/ipfs/QmYtVdNKa5D2A4cEdTg9cYwrDio7TdNKtbAHc86x33W5wt\"]},\"@opengsn/contracts/src/BaseRelayRecipient.sol\":{\"keccak256\":\"0xce3168b37fc87ec34a18b56b4b16a06432119c07fd2e1d864b871dcf40372ebe\",\"license\":\"MIT\",\"urls\":[\"bzz-raw://99b6d76e111f18169a6c3f9043a843f188a02b5737dc35e6c6535ee04858f1c7\",\"dweb:/ipfs/QmeibhmsicNMWMw1gggSknJsbm1WUtZgGokGnzd4CCZzTw\"]},\"@opengsn/contracts/src/interfaces/IRelayRecipient.sol\":{\"keccak256\":\"0x199e82e0a2833a97213b5c16ac9b4e2b1814f2e90a4c4916855cbc21e710ad5f\",\"license\":\"MIT\",\"urls\":[\"bzz-raw://92112fc87990f2d55c538946266c48f43e6ca442186ef3b8172eb4632deb0db3\",\"dweb:/ipfs/QmU6pqFXYT8fYfyhw7viRA775eBH4W7PAd589DVFGtSgxo\"]},\"@openzeppelin/contracts-upgradeable/access/OwnableUpgradeable.sol\":{\"keccak256\":\"0x247c62047745915c0af6b955470a72d1696ebad4352d7d3011aef1a2463cd888\",\"license\":\"MIT\",\"urls\":[\"bzz-raw://d7fc8396619de513c96b6e00301b88dd790e83542aab918425633a5f7297a15a\",\"dweb:/ipfs/QmXbP4kiZyp7guuS7xe8KaybnwkRPGrBc2Kbi3vhcTfpxb\"]},\"@openzeppelin/contracts-upgradeable/proxy/utils/Initializable.sol\":{\"keccak256\":\"0xe798cadb41e2da274913e4b3183a80f50fb057a42238fe8467e077268100ec27\",\"license\":\"MIT\",\"urls\":[\"bzz-raw://899f850f7df5a270bccfb765d70069959ca1c20d3a7381c1c3bda8a3ffee1935\",\"dweb:/ipfs/QmVdnAqwyX2L3nX2HDA5WKGtVBFyH1nKE9A1k7fZnPBkhP\"]},\"@openzeppelin/contracts-upgradeable/security/ReentrancyGuardUpgradeable.sol\":{\"keccak256\":\"0x2b3005a0064cfc558bdf64b2bae94b565f4574a536aadd61c13838d4f2157790\",\"license\":\"MIT\",\"urls\":[\"bzz-raw://622c3eb87563e71585c9f538d1a196fe2d154dcc5b8f335e8770a8acc95e1f3a\",\"dweb:/ipfs/QmSnDqJJLzv3mirjGB1vrk5X7hegFdS7BKpscpxyqj7sWu\"]},\"@openzeppelin/contracts-upgradeable/utils/AddressUpgradeable.sol\":{\"keccak256\":\"0x2edcb41c121abc510932e8d83ff8b82cf9cdde35e7c297622f5c29ef0af25183\",\"license\":\"MIT\",\"urls\":[\"bzz-raw://72460c66cd1c3b1c11b863e0d8df0a1c56f37743019e468dc312c754f43e3b06\",\"dweb:/ipfs/QmPExYKiNb9PUsgktQBupPaM33kzDHxaYoVeJdLhv8s879\"]},\"@openzeppelin/contracts-upgradeable/utils/ContextUpgradeable.sol\":{\"keccak256\":\"0x963ea7f0b48b032eef72fe3a7582edf78408d6f834115b9feadd673a4d5bd149\",\"license\":\"MIT\",\"urls\":[\"bzz-raw://d6520943ea55fdf5f0bafb39ed909f64de17051bc954ff3e88c9e5621412c79c\",\"dweb:/ipfs/QmWZ4rAKTQbNG2HxGs46AcTXShsVytKeLs7CUCdCSv5N7a\"]},\"@openzeppelin/contracts-upgradeable/utils/StringsUpgradeable.sol\":{\"keccak256\":\"0x6b9a5d35b744b25529a2856a8093e7c03fb35a34b1c4fb5499e560f8ade140da\",\"license\":\"MIT\",\"urls\":[\"bzz-raw://187b5c3a1c9e77678732a2cc5284237f9cfca6bc28ee8bc0a0f4f951d7b3a2f8\",\"dweb:/ipfs/Qmb2KFr7WuQu7btdCiftQG64vTzrG4UyzVmo53EYHcnHYA\"]},\"@openzeppelin/contracts-upgradeable/utils/cryptography/ECDSAUpgradeable.sol\":{\"keccak256\":\"0x12f297cafe6e2847ae0378502f155654d0764b532a9873c8afe4350950fa7971\",\"license\":\"MIT\",\"urls\":[\"bzz-raw://28074f6df7132e83819042a06ef75ae53c88c53c077b8222b9772b780d58bd58\",\"dweb:/ipfs/QmXXwSxWn4XGCy218fn3f2m3UmFNUiroeQ8sCR3vzNU6Wc\"]},\"@openzeppelin/contracts-upgradeable/utils/cryptography/EIP712Upgradeable.sol\":{\"keccak256\":\"0x3017aded62c4a2b9707f5f06f92934e592c1c9b6f384b91b51340a6d5f841931\",\"license\":\"MIT\",\"urls\":[\"bzz-raw://bb693afc2a614ec7afee965caaf5d53c3f32644e33286f60d17ae0e9aca84d44\",\"dweb:/ipfs/QmVJy43EBWvVT5NgpsV8WJfDHtZbnqZGMhmv1WbWaV5dJV\"]},\"@openzeppelin/contracts-upgradeable/utils/cryptography/draft-EIP712Upgradeable.sol\":{\"keccak256\":\"0x31a2e227f5653e4b31e0f680857b8842073d083b33df11b3f3b3bb5ddc10526e\",\"license\":\"MIT\",\"urls\":[\"bzz-raw://051dd3770ecfea8fd28342b4e48c34d0cba9fbc2dbb1286d710d3d547d707018\",\"dweb:/ipfs/QmQp89U3xBRY7Xjw2HfozkMD3Yh64WvzJKQ1SHGRiEdm2J\"]},\"@openzeppelin/contracts-upgradeable/utils/math/MathUpgradeable.sol\":{\"keccak256\":\"0xc1bd5b53319c68f84e3becd75694d941e8f4be94049903232cd8bc7c535aaa5a\",\"license\":\"MIT\",\"urls\":[\"bzz-raw://056027a78e6f4b78a39be530983551651ee5a052e786ca2c1c6a3bb1222b03b4\",\"dweb:/ipfs/QmXRUpywAqNwAfXS89vrtiE2THRM9dX9pQ4QxAkV1Wx9kt\"]},\"@openzeppelin/contracts/utils/introspection/IERC165.sol\":{\"keccak256\":\"0x447a5f3ddc18419d41ff92b3773fb86471b1db25773e07f877f548918a185bf1\",\"license\":\"MIT\",\"urls\":[\"bzz-raw://be161e54f24e5c6fae81a12db1a8ae87bc5ae1b0ddc805d82a1440a68455088f\",\"dweb:/ipfs/QmP7C3CHdY9urF4dEMb9wmsp1wMxHF6nhA2yQE5SKiPAdy\"]},\"contracts/Baal.sol\":{\"keccak256\":\"0x273e4c8a1708ff252be03f14f12032a9a6fa1c48de3819a4a33902e4e4497a4c\",\"license\":\"MIT\",\"urls\":[\"bzz-raw://e9b078ee5d474b659c57e8a094bf113a70477fec37f08119a4e577ade1cd2b21\",\"dweb:/ipfs/QmbePm8oPTw8bhGEeShYoJiEXgnLMkfPdbFS9WWAx1F7SD\"]},\"contracts/interfaces/IBaalToken.sol\":{\"keccak256\":\"0x4c057a382569403c59a92c88f3008664b3f957967f94505b82c78ce779282fce\",\"license\":\"MIT\",\"urls\":[\"bzz-raw://e25459627992b498fb0a715e3a9988f05ff8cecf142607d127062e3dfa64b14e\",\"dweb:/ipfs/QmZAdN1ZVqJUTzUm2thY8V2yBKbpBpkZ7aGAvk1rhtE9Vn\"]}},\"version\":1}",
              "bytecode": "0x60806040523480156200001157600080fd5b506200001c62000022565b620000e4565b600054610100900460ff16156200008f5760405162461bcd60e51b815260206004820152602760248201527f496e697469616c697a61626c653a20636f6e747261637420697320696e697469604482015266616c697a696e6760c81b606482015260840160405180910390fd5b60005460ff9081161015620000e2576000805460ff191660ff9081179091556040519081527f7f26b83ff96e1f2b6a682f133852f6798a09c465da95921460cefb38474024989060200160405180910390a15b565b615d8680620000f46000396000f3fe6080604052600436106103a25760003560e01c80638009ba1f116101e7578063cf043df31161010d578063ed0cdf15116100a0578063f460124d1161006f578063f460124d14610beb578063f81cbd2614610c0b578063fab514c014610c21578063fe47668614610c4157600080fd5b8063ed0cdf1514610b6b578063ee4d88ed14610b8b578063f2fde38b14610bab578063f3ae241514610bcb57600080fd5b8063da35c664116100dc578063da35c66414610ae7578063da74222814610b0b578063e19a9dd914610b2b578063e43581b814610b4b57600080fd5b8063cf043df314610a4c578063d33defc714610a6c578063d4b8399214610aa7578063d61f27ae14610ac757600080fd5b8063a4f9edbf11610185578063b634e4e011610154578063b634e4e0146109cb578063c00d0775146109e8578063c4e931f614610a0f578063c910638914610a2e57600080fd5b8063a4f9edbf14610956578063acca30a214610976578063b1e3f40c1461098b578063b3c98bbb146109ab57600080fd5b806398a527cc116101c157806398a527cc146108dc5780639a2f747f146108fc578063a06db7dc14610912578063a26ec96e1461093657600080fd5b80638009ba1f1461088857806383bf8459146108a85780638da5cb5b146108be57600080fd5b80634526d846116102cc5780635ec286961161026a578063715018a611610239578063715018a614610815578063776d1a011461082a5780637ceab3b11461084a5780637da0a8771461086a57600080fd5b80635ec28696146107a0578063635e99aa146107c057806367f61f07146107d5578063706a6e93146107f557600080fd5b806352ba1da7116102a657806352ba1da7146106f6578063572b6c05146107235780635aef7de6146107525780635cfd6f7e1461078a57600080fd5b80634526d846146106875780634630affc146106a7578063486ff0cd146106d457600080fd5b8063136d731a11610344578063258bfe2f11610313578063258bfe2f146106125780633232444c146106325780633a82ffc81461065f5780633a98ef391461067257600080fd5b8063136d731a146105a557806316fd265d146105ba57806318160ddd146105cf57806324d7806c146105f257600080fd5b8063056b0dcd11610380578063056b0dcd14610523578063086cfca8146105455780630a796e19146105655780630f656a211461058557600080fd5b8063013cf08b146103a7578063027cdf45146104c057806302a251a3146104ea575b600080fd5b3480156103b357600080fd5b506104436103c23660046155b9565b60d960205260009081526040902080546001820154600283015460038401546004850154600686015460079096015463ffffffff80871697600160201b8804821697600160401b8104831697600160601b8204841697600160801b8304851697600160a01b909304909416959094919290916001600160a01b03909116908c565b6040805163ffffffff9d8e1681529b8d1660208d0152998c16998b0199909952968a1660608a015294891660808901529790921660a087015260c086015260e08501526101008401949094526101208301939093526001600160a01b03909216610140820152610160810191909152610180015b60405180910390f35b3480156104cc57600080fd5b5060d5546104da9060ff1681565b60405190151581526020016104b7565b3480156104f657600080fd5b5060d05461050e90600160a01b900463ffffffff1681565b60405163ffffffff90911681526020016104b7565b34801561052f57600080fd5b5061054361053e366004615432565b610c6e565b005b34801561055157600080fd5b5061054361056036600461509d565b6111b5565b34801561057157600080fd5b506105436105803660046155eb565b61120f565b34801561059157600080fd5b506105436105a03660046152dd565b611545565b3480156105b157600080fd5b506105436117f3565b3480156105c657600080fd5b50610543611884565b3480156105db57600080fd5b506105e46118fe565b6040519081526020016104b7565b3480156105fe57600080fd5b506104da61060d36600461509d565b61191f565b34801561061e57600080fd5b506105e461062d36600461553d565b611964565b34801561063e57600080fd5b506105e461064d36600461509d565b60d66020526000908152604090205481565b6105e461066d3660046154b0565b611994565b34801561067e57600080fd5b506105e4611fd0565b34801561069357600080fd5b506105436106a23660046152dd565b61204d565b3480156106b357600080fd5b506106c76106c23660046155eb565b61211c565b6040516104b79190615901565b3480156106e057600080fd5b506106e961218d565b6040516104b791906159ba565b34801561070257600080fd5b506105e461071136600461509d565b60d86020526000908152604090205481565b34801561072f57600080fd5b506104da61073e36600461509d565b60ce546001600160a01b0391821691161490565b34801561075e57600080fd5b50606654610772906001600160a01b031681565b6040516001600160a01b0390911681526020016104b7565b34801561079657600080fd5b506105e460d35481565b3480156107ac57600080fd5b506105436107bb3660046152dd565b61221b565b3480156107cc57600080fd5b506105e46122ea565b3480156107e157600080fd5b506105436107f0366004615608565b61232f565b34801561080157600080fd5b50610543610810366004615626565b612353565b34801561082157600080fd5b5061054361273f565b34801561083657600080fd5b5061054361084536600461509d565b612753565b34801561085657600080fd5b50606554610772906001600160a01b031681565b34801561087657600080fd5b5060ce546001600160a01b0316610772565b34801561089457600080fd5b5060d054610772906001600160a01b031681565b3480156108b457600080fd5b506105e460d45481565b3480156108ca57600080fd5b506033546001600160a01b0316610772565b3480156108e857600080fd5b506105436108f73660046152dd565b6127ad565b34801561090857600080fd5b506105e460d15481565b34801561091e57600080fd5b5060d05461050e90600160c01b900463ffffffff1681565b34801561094257600080fd5b5060d5546104da9062010000900460ff1681565b34801561096257600080fd5b5061054361097136600461553d565b61287c565b34801561098257600080fd5b50610543612e0a565b34801561099757600080fd5b506105436109a63660046152dd565b612e8f565b3480156109b757600080fd5b506105436109c6366004615157565b612f5e565b3480156109d757600080fd5b5060da5461050e9063ffffffff1681565b3480156109f457600080fd5b5060da5461077290600160201b90046001600160a01b031681565b348015610a1b57600080fd5b5060d5546104da90610100900460ff1681565b348015610a3a57600080fd5b506065546001600160a01b0316610772565b348015610a5857600080fd5b50610543610a6736600461521b565b61303f565b348015610a7857600080fd5b506104da610a873660046152a4565b60d760209081526000928352604080842090915290825290205460ff1681565b348015610ab357600080fd5b50606754610772906001600160a01b031681565b348015610ad357600080fd5b506106e9610ae236600461533c565b613319565b348015610af357600080fd5b5060d05461050e90600160e01b900463ffffffff1681565b348015610b1757600080fd5b50610543610b2636600461509d565b6133e0565b348015610b3757600080fd5b50610543610b4636600461509d565b61348f565b348015610b5757600080fd5b506104da610b6636600461509d565b6135a0565b348015610b7757600080fd5b50610543610b863660046151b2565b6135e1565b348015610b9757600080fd5b50610543610ba636600461553d565b6136f0565b348015610bb757600080fd5b50610543610bc636600461509d565b61394e565b348015610bd757600080fd5b506104da610be636600461509d565b6139c4565b348015610bf757600080fd5b5060cf54610772906001600160a01b031681565b348015610c1757600080fd5b506105e460d25481565b348015610c2d57600080fd5b50610543610c3c3660046155eb565b613a04565b348015610c4d57600080fd5b50610c61610c5c3660046155eb565b613bd8565b6040516104b791906159cd565b6066546001600160a01b0316610c82613da9565b6001600160a01b03161480610c9d5750610c9d61060d613da9565b610cdf5760405162461bcd60e51b815260206004820152600e60248201526d10b130b0b610131010b0b236b4b760911b60448201526064015b60405180910390fd5b818015610d6f575060d060009054906101000a90046001600160a01b03166001600160a01b0316635c975abb6040518163ffffffff1660e01b815260040160206040518083038186803b158015610d3557600080fd5b505afa158015610d49573d6000803e3d6000fd5b505050506040513d601f19601f82011682018060405250810190610d6d9190615415565b155b15610e165760d060009054906101000a90046001600160a01b03166001600160a01b0316638456cb596040518163ffffffff1660e01b8152600401600060405180830381600087803b158015610dc457600080fd5b505af1158015610dd8573d6000803e3d6000fd5b5050604051600181527f5544d0c1539dae939ba6e81485fb6352e3081f5a74f9bf445038bdcc358e34159250602001905060405180910390a1610f48565b81158015610ea5575060d060009054906101000a90046001600160a01b03166001600160a01b0316635c975abb6040518163ffffffff1660e01b815260040160206040518083038186803b158015610e6d57600080fd5b505afa158015610e81573d6000803e3d6000fd5b505050506040513d601f19601f82011682018060405250810190610ea59190615415565b15610f485760d060009054906101000a90046001600160a01b03166001600160a01b0316633f4ba83a6040518163ffffffff1660e01b8152600401600060405180830381600087803b158015610efa57600080fd5b505af1158015610f0e573d6000803e3d6000fd5b5050604051600081527f5544d0c1539dae939ba6e81485fb6352e3081f5a74f9bf445038bdcc358e34159250602001905060405180910390a15b808015610fd8575060cf60009054906101000a90046001600160a01b03166001600160a01b0316635c975abb6040518163ffffffff1660e01b815260040160206040518083038186803b158015610f9e57600080fd5b505afa158015610fb2573d6000803e3d6000fd5b505050506040513d601f19601f82011682018060405250810190610fd69190615415565b155b1561107f5760cf60009054906101000a90046001600160a01b03166001600160a01b0316638456cb596040518163ffffffff1660e01b8152600401600060405180830381600087803b15801561102d57600080fd5b505af1158015611041573d6000803e3d6000fd5b5050604051600181527f21b897e32ff7464f696022c4d6dfbf2d4eb300d162ad28e0d90f1136f5fea9cb925060200190505b60405180910390a15050565b8015801561110e575060cf60009054906101000a90046001600160a01b03166001600160a01b0316635c975abb6040518163ffffffff1660e01b815260040160206040518083038186803b1580156110d657600080fd5b505afa1580156110ea573d6000803e3d6000fd5b505050506040513d601f19601f8201168201806040525081019061110e9190615415565b156111b15760cf60009054906101000a90046001600160a01b03166001600160a01b0316633f4ba83a6040518163ffffffff1660e01b8152600401600060405180830381600087803b15801561116357600080fd5b505af1158015611177573d6000803e3d6000fd5b5050604051600081527f21b897e32ff7464f696022c4d6dfbf2d4eb300d162ad28e0d90f1136f5fea9cb9250602001905060405180910390a15b5050565b6111bd613db3565b606680546001600160a01b038381166001600160a01b0319831681179093556040519116919082907f52ae88b092de36f87fb43fe794eb1381023b9c1bce563a871154022c63dce34290600090a35050565b611217613e2c565b63ffffffff8116600090815260d96020526040902060d35460d0546001600160a01b0316639ab24eb0611248613da9565b6040516001600160e01b031960e084901b1681526001600160a01b03909116600482015260240160206040518083038186803b15801561128757600080fd5b505afa15801561129b573d6000803e3d6000fd5b505050506040513d601f19601f820116820180604052508101906112bf91906155d2565b10156112f85760405162461bcd60e51b815260206004820152600860248201526710b9b837b739b7b960c11b6044820152606401610cd6565b600161130383613bd8565b600781111561131457611314615cac565b1461134e5760405162461bcd60e51b815260206004820152600a602482015269085cdd589b5a5d1d195960b21b6044820152606401610cd6565b8054600160a01b900463ffffffff1615806113a4575060d05463ffffffff600160c01b820481169161138991600160a01b9091041642615b5a565b6113939190615b5a565b8154600160a01b900463ffffffff16115b6113da5760405162461bcd60e51b8152602060048201526007602482015266195e1c1a5c995960ca1b6044820152606401610cd6565b805463ffffffff42818116600160401b026bffffffff00000000000000001984168117855560d08054600160a01b90819004851684018516600160601b0263ffffffff60601b1990931667ffffffffffffffff60401b19909616959095179190911780865590549384048316909101600160c01b9093048216929092018116600160801b0263ffffffff60801b1983168117845560da54600160201b92169190910267ffffffff000000001990911673ffffffff0000000000000000ffffffff0000000019909216919091171781556114b1613da9565b6006820180546001600160a01b0319166001600160a01b03929092169190911790556114db6118fe565b600482015560da805463ffffffff191663ffffffff84169081179091554290611502613da9565b6001600160a01b03167fd45ad122361f16d6f50d7c4a73638f20ee48eff6186af15224e2a4a1f6d5017160405160405180910390a4506115426001609c55565b50565b6066546001600160a01b0316611559613da9565b6001600160a01b03161461157f5760405162461bcd60e51b8152600401610cd6906159e7565b82811461159e5760405162461bcd60e51b8152600401610cd690615a06565b60005b838110156117ec5760008383838181106115bd576115bd615cc2565b60d5546020909102929092013592505060ff161561163a57806001141580156115e7575080600314155b80156115f4575080600514155b8015611601575080600714155b61163a5760405162461bcd60e51b815260206004820152600a60248201526961646d696e206c6f636b60b01b6044820152606401610cd6565b60d554610100900460ff16156116b1578060021415801561165c575080600314155b8015611669575080600614155b8015611676575080600714155b6116b15760405162461bcd60e51b815260206004820152600c60248201526b6d616e61676572206c6f636b60a01b6044820152606401610cd6565b60d55462010000900460ff161561172a57806004141580156116d4575080600514155b80156116e1575080600614155b80156116ee575080600714155b61172a5760405162461bcd60e51b815260206004820152600d60248201526c676f7665726e6f72206c6f636b60981b6044820152606401610cd6565b8060d6600088888681811061174157611741615cc2565b9050602002016020810190611756919061509d565b6001600160a01b0316815260208101919091526040016000205585858381811061178257611782615cc2565b9050602002016020810190611797919061509d565b6001600160a01b03167fc456d076c1245c6b9759b3cdcb169e14e00a7739897e501844c8fe5fca6cb260826040516117d191815260200190565b60405180910390a250806117e481615c57565b9150506115a1565b5050505050565b6066546001600160a01b0316611807613da9565b6001600160a01b03161461182d5760405162461bcd60e51b8152600401610cd6906159e7565b60d5805462ff0000191662010000908117918290556040517fd9574ee4ccdf21db87aa2c1d1fee3248522d79c07c54bde4a9edeb0620bef71f9261187a92900460ff161515815260200190565b60405180910390a1565b6066546001600160a01b0316611898613da9565b6001600160a01b0316146118be5760405162461bcd60e51b8152600401610cd6906159e7565b60d5805460ff191660019081179091556040519081527f5e1c9f68365556a24387c25fd0922af31039bcfc65d36caac57401d310948e599060200161187a565b6000611908611fd0565b6119106122ea565b61191a9190615b5a565b905090565b6001600160a01b038116600090815260d6602052604081205460018114806119475750806003145b806119525750806005145b8061195d5750806007145b9392505050565b60008160405160200161197791906159ba565b604051602081830303815290604052805190602001209050919050565b600061199e613e2c565b63ffffffff851615806119e4575060d05463ffffffff600160c01b82048116916119d191600160a01b9091041642615b5a565b6119db9190615b5a565b8563ffffffff16115b611a1a5760405162461bcd60e51b8152602060048201526007602482015266195e1c1a5c995960ca1b6044820152606401610cd6565b6301312d00841115611a605760405162461bcd60e51b815260206004820152600f60248201526e0c4c2c2d88ec2e640e8de40d0d2ced608b1b6044820152606401610cd6565b60d35460d054600091906001600160a01b0316639ab24eb0611a80613da9565b6040516001600160e01b031960e084901b1681526001600160a01b03909116600482015260240160206040518083038186803b158015611abf57600080fd5b505afa158015611ad3573d6000803e3d6000fd5b505050506040513d601f19601f82011682018060405250810190611af791906155d2565b10611b0457506001611beb565b60d1543414611b555760405162461bcd60e51b815260206004820152601960248201527f4261616c20726571756972657320616e206f66666572696e67000000000000006044820152606401610cd6565b6067546040516000916001600160a01b03169034908381818185875af1925050503d8060008114611ba2576040519150601f19603f3d011682016040523d82523d6000602084013e611ba7565b606091505b5050905080611be95760405162461bcd60e51b815260206004820152600e60248201526d18dbdd5b19081b9bdd081cd95b9960921b6044820152606401610cd6565b505b6000611c2c89898080601f01602080910402602001604051908101604052809392919081815260200183838082843760009201919091525061196492505050565b60d08054919250600160e01b90910463ffffffff1690601c611c4d83615c72565b91906101000a81548163ffffffff021916908363ffffffff16021790555050604051806101a0016040528060d0601c9054906101000a900463ffffffff1663ffffffff16815260200183611ca2576000611cac565b60da5463ffffffff165b63ffffffff16815260200183611cc3576000611cc5565b425b63ffffffff16815260200183611cdc576000611cf6565b60d054611cf690600160a01b900463ffffffff1642615b72565b63ffffffff16815260200183611d0d576000611d3c565b60d05463ffffffff600160c01b8204811691611d3291600160a01b9091041642615b72565b611d3c9190615b72565b63ffffffff1681526020018863ffffffff168152602001878152602001600081526020016000815260200183611d73576000611d7b565b611d7b6118fe565b8152604080516080810182526000808252602082810182905282840182905260608301919091528301520183611db2576000611dba565b611dba613da9565b6001600160a01b03168152602090810183905260d054600160e01b900463ffffffff908116600090815260d983526040908190208451815494860151928601516060870151608088015160a089015193871667ffffffffffffffff1990981697909717600160201b958716959095029490941767ffffffffffffffff60401b1916600160401b9186169190910263ffffffff60601b191617600160601b938516939093029290921767ffffffffffffffff60801b1916600160801b9484169490940263ffffffff60a01b191693909317600160a01b919092160217815560c0820151600182015560e082015160028201556101008201516003820155610120820151600480830191909155610140830151611eda91600584019190614e22565b506101608201516006820180546001600160a01b0319166001600160a01b03909216919091179055610180909101516007909101558115611f3a5760d05460da8054600160e01b90920463ffffffff1663ffffffff199092169190911790555b8060d0601c9054906101000a900463ffffffff1663ffffffff167fb9956173924f9c1204bae41dd3737d7ed1161846d13183879cdc03c4b9f8d01960d060149054906101000a900463ffffffff168c8c8c8c89428e8e604051611fa599989796959493929190615aa2565b60405180910390a3505060d0546001609c55600160e01b900463ffffffff1690509695505050505050565b60d054604080516318160ddd60e01b815290516000926001600160a01b0316916318160ddd916004808301926020929190829003018186803b15801561201557600080fd5b505afa158015612029573d6000803e3d6000fd5b505050506040513d601f19601f8201168201806040525081019061191a91906155d2565b6066546001600160a01b0316612061613da9565b6001600160a01b0316148061207c575061207c610be6613da9565b6120985760405162461bcd60e51b8152600401610cd690615a78565b8281146120b75760405162461bcd60e51b8152600401610cd690615a06565b60005b838110156117ec5761210a8585838181106120d7576120d7615cc2565b90506020020160208101906120ec919061509d565b8484848181106120fe576120fe615cc2565b90506020020135613e8d565b8061211481615c57565b9150506120ba565b612124614eb4565b63ffffffff8216600090815260d9602052604080822081516080810192839052926005909101916004918390855b825461010083900a900460ff161515815260206001928301818104948501949093039092029101808411612152575094979650505050505050565b60db805461219a90615c22565b80601f01602080910402602001604051908101604052809291908181526020018280546121c690615c22565b80156122135780601f106121e857610100808354040283529160200191612213565b820191906000526020600020905b8154815290600101906020018083116121f657829003601f168201915b505050505081565b6066546001600160a01b031661222f613da9565b6001600160a01b0316148061224a575061224a610be6613da9565b6122665760405162461bcd60e51b8152600401610cd690615a78565b8281146122855760405162461bcd60e51b8152600401610cd690615a06565b60005b838110156117ec576122d88585838181106122a5576122a5615cc2565b90506020020160208101906122ba919061509d565b8484848181106122cc576122cc615cc2565b90506020020135613ef8565b806122e281615c57565b915050612288565b60cf54604080516318160ddd60e01b815290516000926001600160a01b0316916318160ddd916004808301926020929190829003018186803b15801561201557600080fd5b612337613e2c565b612349612342613da9565b8383613f31565b6111b16001609c55565b61235b613e2c565b63ffffffff8316600090815260d96020526040902060068101546001600160a01b03166123b55760405162461bcd60e51b815260206004820152600860248201526710b9b837b739b7b960c11b6044820152606401610cd6565b60056123c085613bd8565b60078111156123d1576123d1615cac565b146124075760405162461bcd60e51b815260206004820152600660248201526521726561647960d01b6044820152606401610cd6565b805460009061242290600160201b900463ffffffff16613bd8565b9050600681600781111561243857612438615cac565b14806124555750600381600781111561245357612453615cac565b145b806124715750600781600781111561246f5761246f615cac565b145b8061248d5750600081600781111561248b5761248b615cac565b145b6124ca5760405162461bcd60e51b815260206004820152600e60248201526d1c1c995d885c1c9bd8d95cdcd95960921b6044820152606401610cd6565b816007015461250e85858080601f01602080910402602001604051908101604052809392919081815260200183838082843760009201919091525061196492505050565b146125505760405162461bcd60e51b8152602060048201526012602482015271696e636f72726563742063616c6c6461746160701b6044820152606401610cd6565b60018201541580612565575081600101545a10155b6125a25760405162461bcd60e51b815260206004820152600e60248201526d6e6f7420656e6f7567682067617360901b6044820152606401610cd6565b60058201805461ff0019166101001790558154600190600160a01b900463ffffffff16158015906125e15750825442600160a01b90910463ffffffff16105b156125ea575060005b8080156126165750826004015460d2546126049190615bbc565b6002840154612614906064615bbc565b105b1561261f575060005b80801561264f5750606460d454846004015461263b9190615bbc565b6126459190615b9a565b61264d6118fe565b105b15612658575060005b80156126d15760058301805462ff0000191662010000179055604080516020601f87018190048102820181019092528581526000916126b29190889088908190840183828082843760009201919091525061419492505050565b9050806126cf5760058401805463ff000000191663010000001790555b505b60058301546040805160ff62010000840481161515825263010000009093049092161515602083015263ffffffff8816917fb4571f7e4e2c2b6e6185e47ab5caa5fe34087299bd49fbae945a4583101ee3f0910160405180910390a250505061273a6001609c55565b505050565b612747613db3565b61275160006141bd565b565b61275b613db3565b606780546001600160a01b038381166001600160a01b0319831681179093556040519116919082907f90cc2f570a6eb594b1580ea3e41247d2d73a55281889e86bd4ec2fc29c7e62d690600090a35050565b6066546001600160a01b03166127c1613da9565b6001600160a01b031614806127dc57506127dc610be6613da9565b6127f85760405162461bcd60e51b8152600401610cd690615a78565b8281146128175760405162461bcd60e51b8152600401610cd690615a06565b60005b838110156117ec5761286a85858381811061283757612837615cc2565b905060200201602081019061284c919061509d565b84848481811061285e5761285e615cc2565b9050602002013561420f565b8061287481615c57565b91505061281a565b600054610100900460ff161580801561289c5750600054600160ff909116105b806128b65750303b1580156128b6575060005460ff166001145b6129195760405162461bcd60e51b815260206004820152602e60248201527f496e697469616c697a61626c653a20636f6e747261637420697320616c72656160448201526d191e481a5b9a5d1a585b1a5e995960921b6064820152608401610cd6565b6000805460ff19166001179055801561293c576000805461ff0019166101001790555b612944613e2c565b6000806000806000808780602001905181019061296191906150ba565b95509550955095509550955060006001600160a01b0316846001600160a01b03161415801561299857506001600160a01b03831615155b6129d25760405162461bcd60e51b815260206004820152600b60248201526a0c081859191c881d5cd95960aa1b6044820152606401610cd6565b6040518060600160405280602d8152602001615d24602d913980516129ff9160db91602090910190614ed2565b50612a08614248565b612a10614277565b612a4f60405180604001604052806004815260200163566f746560e01b815250604051806040016040528060018152602001600d60fa1b8152506142a6565b612a588361394e565b606680546001600160a01b0385166001600160a01b03199182168117909255606780549091169091179055612a8c826142d7565b60cf80546001600160a01b03199081166001600160a01b038981169190911790925560d0805490911687831617905560da8054640100000000600160c01b031916600160201b87841681029190911791829055612af09291041660008360016142f9565b612b315760405162461bcd60e51b8152602060048201526012602482015271063616c6c206661696c7572652073657475760741b6044820152606401610cd6565b60cf5460408051635c975abb60e01b815290517f916f812584e0b001e8c6ab604fa549cc16c9d0b2f60b17aa0b4ff5eefe3e7725926001600160a01b031691635c975abb916004808301926020929190829003018186803b158015612b9557600080fd5b505afa158015612ba9573d6000803e3d6000fd5b505050506040513d601f19601f82011682018060405250810190612bcd9190615415565b60d060009054906101000a90046001600160a01b03166001600160a01b0316635c975abb6040518163ffffffff1660e01b815260040160206040518083038186803b158015612c1b57600080fd5b505afa158015612c2f573d6000803e3d6000fd5b505050506040513d601f19601f82011682018060405250810190612c539190615415565b60d05460d15460d25460d35460d454604080516306fdde0360e01b8152905163ffffffff600160c01b8804811697600160a01b810490911696959493926001600160a01b03909116916306fdde0391600480820192600092909190829003018186803b158015612cc257600080fd5b505afa158015612cd6573d6000803e3d6000fd5b505050506040513d6000823e601f3d908101601f19168201604052612cfe9190810190615571565b60d060009054906101000a90046001600160a01b03166001600160a01b03166395d89b416040518163ffffffff1660e01b815260040160006040518083038186803b158015612d4c57600080fd5b505afa158015612d60573d6000803e3d6000fd5b505050506040513d6000823e601f3d908101601f19168201604052612d889190810190615571565b612d90611fd0565b612d986122ea565b604051612db09c9b9a99989796959493929190615934565b60405180910390a1505050505050612dc86001609c55565b80156111b1576000805461ff0019169055604051600181527f7f26b83ff96e1f2b6a682f133852f6798a09c465da95921460cefb384740249890602001611073565b6066546001600160a01b0316612e1e613da9565b6001600160a01b031614612e445760405162461bcd60e51b8152600401610cd6906159e7565b60d5805461ff001916610100908117918290556040517fb496b9628e839102454d8b483ba451c4be96675009b637273a00e4ab6a59db729261187a92900460ff161515815260200190565b6066546001600160a01b0316612ea3613da9565b6001600160a01b03161480612ebe5750612ebe610be6613da9565b612eda5760405162461bcd60e51b8152600401610cd690615a78565b828114612ef95760405162461bcd60e51b8152600401610cd690615a06565b60005b838110156117ec57612f4c858583818110612f1957612f19615cc2565b9050602002016020810190612f2e919061509d565b848484818110612f4057612f40615cc2565b905060200201356144aa565b80612f5681615c57565b915050612efc565b6066546001600160a01b0316612f72613da9565b6001600160a01b031614612f985760405162461bcd60e51b8152600401610cd6906159e7565b6000846001600160a01b0316848484604051612fb5929190615741565b60006040518083038185875af1925050503d8060008114612ff2576040519150601f19603f3d011682016040523d82523d6000602084013e612ff7565b606091505b50509050806117ec5760405162461bcd60e51b815260206004820152601460248201527363616c6c206661696c757265206578656375746560601b6044820152606401610cd6565b613047613e2c565b864211156130975760405162461bcd60e51b815260206004820152601d60248201527f4552433230566f7465733a207369676e617475726520657870697265640000006044820152606401610cd6565b6001600160a01b038816600090815260d8602052604090205486146130e75760405162461bcd60e51b8152602060048201526006602482015265216e6f6e636560d01b6044820152606401610cd6565b60007f8698fbcc7273f96a670eb203cb707d8ec171123f24eaf075b1e754b71119e59e60d060009054906101000a90046001600160a01b03166001600160a01b03166306fdde036040518163ffffffff1660e01b815260040160006040518083038186803b15801561315857600080fd5b505afa15801561316c573d6000803e3d6000fd5b505050506040513d6000823e601f3d908101601f191682016040526131949190810190615571565b6040516020016131a49190615751565b60408051601f198184030181528282528051602091820120908301939093528101919091526001600160a01b038a1660608201526080810189905260a0810188905263ffffffff871660c082015285151560e0820152610100016040516020818303038152906040528051906020012090506000613221826144e3565b9050600061323182878787614531565b90508a6001600160a01b0316816001600160a01b0316146132885760405162461bcd60e51b8152602060048201526011602482015270696e76616c6964207369676e617475726560781b6044820152606401610cd6565b6001600160a01b0381166132c85760405162461bcd60e51b815260206004820152600760248201526610b9b4b3b732b960c91b6044820152606401610cd6565b6001600160a01b038b16600090815260d8602052604081208054600192906132f1908490615b5a565b909155506133029050818989613f31565b50505061330f6001609c55565b5050505050505050565b60608060005b845181101561339c5781600085600088858151811061334057613340615cc2565b60200260200101515189868151811061335b5761335b615cc2565b60200260200101516040516020016133789695949392919061576d565b6040516020818303038152906040529150808061339490615c57565b91505061331f565b50806040516024016133ae91906159ba565b60408051601f198184030181529190526020810180516001600160e01b03166346c07f8560e11b179052949350505050565b6066546001600160a01b03166133f4613da9565b6001600160a01b0316148061340f575061340f610b66613da9565b61344f5760405162461bcd60e51b815260206004820152601160248201527010b130b0b610131010b3b7bb32b93737b960791b6044820152606401610cd6565b613458816142d7565b6040516001600160a01b038216907f8c2bee8063bb4464870b7dfa415ebb2fe80bfa73ba20d6fbf0d42791274667ff90600090a250565b613497613db3565b6001600160a01b0381161561354c576040516301ffc9a760e01b815263736bd41d60e11b60048201526001600160a01b038216906301ffc9a79060240160206040518083038186803b1580156134ec57600080fd5b505afa158015613500573d6000803e3d6000fd5b505050506040513d601f19601f820116820180604052508101906135249190615415565b61354c576040516358b7533f60e11b81526001600160a01b0382166004820152602401610cd6565b606580546001600160a01b0319166001600160a01b0383169081179091556040519081527f1151116914515bc0891ff9047a6cb32cf902546f83066499bcf8ba33d2353fa29060200160405180910390a150565b6001600160a01b038116600090815260d6602052604081205460048114806135c85750806005145b806119525750806006148061195d575060071492915050565b6135e9613e2c565b60015b818110156136a6578282613601600184615bdb565b81811061361057613610615cc2565b9050602002016020810190613625919061509d565b6001600160a01b031683838381811061364057613640615cc2565b9050602002016020810190613655919061509d565b6001600160a01b0316116136945760405162461bcd60e51b815260206004820152600660248201526510b7b93232b960d11b6044820152606401610cd6565b8061369e81615c57565b9150506135ec565b506136e685858585858080602002602001604051908101604052809392919081815260200183836020028082843760009201919091525061455992505050565b6117ec6001609c55565b6066546001600160a01b0316613704613da9565b6001600160a01b0316148061371f575061371f610b66613da9565b61375f5760405162461bcd60e51b815260206004820152601160248201527010b130b0b610131010b3b7bb32b93737b960791b6044820152606401610cd6565b6000806000806000808680602001905181019061377c919061567a565b949a5092985090965094509250905060648111156137c95760405162461bcd60e51b815260206004820152600a6024820152696261642071756f72756d60b01b6044820152606401610cd6565b606481111561380d5760405162461bcd60e51b815260206004820152601060248201526f3130b21036b4b72932ba32b73a34b7b760811b6044820152606401610cd6565b600060d354118015613829575060d0546001600160a01b031615155b1561387e57613836611fd0565b82111561387e5760405162461bcd60e51b815260206004820152601660248201527573706f6e736f72203e20736861726573537570706c7960501b6044820152606401610cd6565b63ffffffff8616156138a95760d0805463ffffffff60a01b1916600160a01b63ffffffff8916021790555b63ffffffff8516156138d45760d0805463ffffffff60c01b1916600160c01b63ffffffff8816021790555b60d184905560d283905560d382905560d48190556040805163ffffffff808916825287166020820152908101859052606081018490526080810183905260a081018290527fc10758ccd7d1dd3330e7bbe13a1a1d6bbb414967932376ee24989bad95edcdc19060c00160405180910390a150505050505050565b613956613db3565b6001600160a01b0381166139bb5760405162461bcd60e51b815260206004820152602660248201527f4f776e61626c653a206e6577206f776e657220697320746865207a65726f206160448201526564647265737360d01b6064820152608401610cd6565b611542816141bd565b6001600160a01b038116600090815260d6602052604081205460028114806135c8575080600314806119525750806006148061195d575060071492915050565b613a0c613e2c565b63ffffffff8116600090815260d9602052604090206002613a2c83613bd8565b6007811115613a3d57613a3d615cac565b14613a745760405162461bcd60e51b815260206004820152600760248201526621766f74696e6760c81b6044820152606401610cd6565b60068101546001600160a01b0316613a8a613da9565b6001600160a01b03161480613b41575060d35460d05460068301546001600160a01b0391821691633a46b1a89116613ac3600142615bdb565b6040516001600160e01b031960e085901b1681526001600160a01b039092166004830152602482015260440160206040518083038186803b158015613b0757600080fd5b505afa158015613b1b573d6000803e3d6000fd5b505050506040513d601f19601f82011682018060405250810190613b3f91906155d2565b105b80613b525750613b52610b66613da9565b613b8d5760405162461bcd60e51b815260206004820152600c60248201526b2163616e63656c6c61626c6560a01b6044820152606401610cd6565b60058101805460ff1916600117905560405163ffffffff8316907f8896f24cff41b54acf76c2560861f33cd20fd76c4df0b68a3515c354e4b6c81a90600090a2506115426001609c55565b63ffffffff818116600090815260d96020908152604080832081516101a08101835281548087168252600160201b8104871694820194909452600160401b8404861681840152600160601b840486166060820152600160801b84048616608080830191909152600160a01b90940490951660a0860152600181015460c0860152600281015460e0860152600381015461010086015260048082015461012087015282519384019283905293948594909391926101408501929160058501918288855b825461010083900a900460ff161515815260206001928301818104948501949093039092029101808411613c9a5750505092845250505060068201546001600160a01b03166020820152600790910154604090910152805190915063ffffffff16613d085750600092915050565b6101408101515115613d1d5750600392915050565b604081015163ffffffff16613d355750600192915050565b806060015163ffffffff164211613d4f5750600292915050565b806080015163ffffffff164211613d695750600492915050565b8060e0015181610100015110613d825750600792915050565b6101408101516020015115613d9a5750600692915050565b50600592915050565b50919050565b600061191a6147d5565b613dbb613da9565b6001600160a01b0316613dd66033546001600160a01b031690565b6001600160a01b0316146127515760405162461bcd60e51b815260206004820181905260248201527f4f776e61626c653a2063616c6c6572206973206e6f7420746865206f776e65726044820152606401610cd6565b6002609c541415613e7f5760405162461bcd60e51b815260206004820152601f60248201527f5265656e7472616e637947756172643a207265656e7472616e742063616c6c006044820152606401610cd6565b6002609c55565b6001609c55565b60cf546040516340c10f1960e01b81526001600160a01b03848116600483015260248201849052909116906340c10f19906044015b600060405180830381600087803b158015613edc57600080fd5b505af1158015613ef0573d6000803e3d6000fd5b505050505050565b60cf54604051632770a7eb60e21b81526001600160a01b0384811660048301526024820184905290911690639dc29fac90604401613ec2565b63ffffffff8216600090815260d9602052604090206002613f5184613bd8565b6007811115613f6257613f62615cac565b14613f995760405162461bcd60e51b815260206004820152600760248201526621766f74696e6760c81b6044820152606401610cd6565b60d0548154604051630748d63560e31b81526001600160a01b038781166004830152600160401b90920463ffffffff1660248201526000929190911690633a46b1a89060440160206040518083038186803b158015613ff757600080fd5b505afa15801561400b573d6000803e3d6000fd5b505050506040513d601f19601f8201168201806040525081019061402f91906155d2565b90506000811161406b5760405162461bcd60e51b815260206004820152600760248201526610b6b2b6b132b960c91b6044820152606401610cd6565b6001600160a01b038516600090815260d76020908152604080832063ffffffff8816845290915290205460ff16156140cd5760405162461bcd60e51b81526020600482015260056024820152641d9bdd195960da1b6044820152606401610cd6565b6001600160a01b038516600090815260d76020908152604080832063ffffffff881684529091528120805460ff191660011790556141096118fe565b9050826004015481111561411f57600483018190555b8315614134576002830180548301905561413f565b600383018054830190555b8315158563ffffffff16876001600160a01b03167f786755545a7e27c12c90cc7f0934514d03fdacfe3684a340b8c4100531e7ecd58560405161418491815260200190565b60405180910390a4505050505050565b60da546000906141b790600160201b90046001600160a01b0316828460016142f9565b92915050565b603380546001600160a01b038381166001600160a01b0319831681179093556040519116919082907f8be0079c531659141344cd1fd0a4f28419497f9722a3daafe3b4186f6b6457e090600090a35050565b60d054604051632770a7eb60e21b81526001600160a01b0384811660048301526024820184905290911690639dc29fac90604401613ec2565b600054610100900460ff1661426f5760405162461bcd60e51b8152600401610cd690615a2d565b612751614809565b600054610100900460ff1661429e5760405162461bcd60e51b8152600401610cd690615a2d565b612751614840565b600054610100900460ff166142cd5760405162461bcd60e51b8152600401610cd690615a2d565b6111b18282614867565b60ce80546001600160a01b0319166001600160a01b0392909216919091179055565b6065546000906001600160a01b03161561439b576065546040805180820182526002815261060f60f31b60208201529051633af85da960e11b81526001600160a01b03909216916375f0bb52916143689189918991899189916000918291829182918291903390600401615872565b600060405180830381600087803b15801561438257600080fd5b505af1158015614396573d6000803e3d6000fd5b505050505b60675460405163468721a760e01b81526001600160a01b039091169063468721a7906143d1908890889088908890600401615833565b602060405180830381600087803b1580156143eb57600080fd5b505af11580156143ff573d6000803e3d6000fd5b505050506040513d601f19601f820116820180604052508101906144239190615415565b6065549091506001600160a01b0316156144a257606554604051631264e26d60e31b815261060f60f31b600482015282151560248201526001600160a01b0390911690639327136890604401600060405180830381600087803b15801561448957600080fd5b505af115801561449d573d6000803e3d6000fd5b505050505b949350505050565b60d0546040516340c10f1960e01b81526001600160a01b03848116600483015260248201849052909116906340c10f1990604401613ec2565b60006141b76144f06148a8565b8360405161190160f01b6020820152602281018390526042810182905260009060620160405160208183030381529060405280519060200120905092915050565b600080600061454287878787614923565b9150915061454f816149e7565b5095945050505050565b60006145636118fe565b9050821561457c5761457c614576613da9565b84613ef8565b83156145935761459361458d613da9565b8561420f565b60005b825181101561478157600073eeeeeeeeeeeeeeeeeeeeeeeeeeeeeeeeeeeeeeee6001600160a01b03168483815181106145d1576145d1615cc2565b60200260200101516001600160a01b031614156145fb57506067546001600160a01b0316316146c9565b600084838151811061460f5761460f615cc2565b602090810291909101810151606754604080516001600160a01b03928316602480830191909152825180830390910181526044909101825293840180516001600160e01b03166370a0823160e01b1790525191169161466d91615751565b600060405180830381855afa9150503d80600081146146a8576040519150601f19603f3d011682016040523d82523d6000602084013e6146ad565b606091505b50915050808060200190518101906146c591906155d2565b9150505b600083826146d78989615b5a565b6146e19190615bbc565b6146eb9190615b9a565b9050801561476c5773eeeeeeeeeeeeeeeeeeeeeeeeeeeeeeeeeeeeeeee6001600160a01b031685848151811061472357614723615cc2565b60200260200101516001600160a01b0316146147625761475d85848151811061474e5761474e615cc2565b60200260200101518983614b35565b61476c565b61476c8882614c04565b5050808061477990615c57565b915050614596565b50838361478c613da9565b6001600160a01b03167fa21c268847f2b8adac3751ed0683330abe9fdd6cc4a7a8fc6787633d4126e0d488866040516147c69291906157d7565b60405180910390a45050505050565b6000601436108015906147f2575060ce546001600160a01b031633145b15614804575060131936013560601c90565b503390565b600054610100900460ff166148305760405162461bcd60e51b8152600401610cd690615a2d565b61275161483b613da9565b6141bd565b600054610100900460ff16613e865760405162461bcd60e51b8152600401610cd690615a2d565b600054610100900460ff1661488e5760405162461bcd60e51b8152600401610cd690615a2d565b815160209283012081519190920120606891909155606955565b600061191a7f8b73c3c69bb8fe3d512ecc4cf759cc79239f7b179b0ffacaa9a75d522b39400f6148d760685490565b6069546040805160208101859052908101839052606081018290524660808201523060a082015260009060c0016040516020818303038152906040528051906020012090509392505050565b6000807f7fffffffffffffffffffffffffffffff5d576e7357a4501ddfe92f46681b20a083111561495a57506000905060036149de565b6040805160008082526020820180845289905260ff881692820192909252606081018690526080810185905260019060a0016020604051602081039080840390855afa1580156149ae573d6000803e3d6000fd5b5050604051601f1901519150506001600160a01b0381166149d7576000600192509250506149de565b9150600090505b94509492505050565b60008160048111156149fb576149fb615cac565b1415614a045750565b6001816004811115614a1857614a18615cac565b1415614a665760405162461bcd60e51b815260206004820152601860248201527f45434453413a20696e76616c6964207369676e617475726500000000000000006044820152606401610cd6565b6002816004811115614a7a57614a7a615cac565b1415614ac85760405162461bcd60e51b815260206004820152601f60248201527f45434453413a20696e76616c6964207369676e6174757265206c656e677468006044820152606401610cd6565b6003816004811115614adc57614adc615cac565b14156115425760405162461bcd60e51b815260206004820152602260248201527f45434453413a20696e76616c6964207369676e6174757265202773272076616c604482015261756560f01b6064820152608401610cd6565b600080614b9d85600063a9059cbb8787604051602401614b6a9291906001600160a01b03929092168252602082015260400190565b6040516020818303038152906040529060e01b6020820180516001600160e01b0383818316178352505050506000614c68565b91509150818015614bc6575080511580614bc6575080806020019051810190614bc69190615415565b6117ec5760405162461bcd60e51b815260206004820152600f60248201526e1d1c985b9cd9995c8819985a5b1959608a1b6044820152606401610cd6565b6000614c228383604051806020016040528060008152506000614c68565b5090508061273a5760405162461bcd60e51b815260206004820152601360248201527211551217d514905394d1915497d19052531151606a1b6044820152606401610cd6565b6065546000906060906001600160a01b031615614d0d576065546040805180820182526002815261060f60f31b60208201529051633af85da960e11b81526001600160a01b03909216916375f0bb5291614cda918a918a918a918a916000918291829182918291903390600401615872565b600060405180830381600087803b158015614cf457600080fd5b505af1158015614d08573d6000803e3d6000fd5b505050505b606754604051635229073f60e01b81526001600160a01b0390911690635229073f90614d43908990899089908990600401615833565b600060405180830381600087803b158015614d5d57600080fd5b505af1158015614d71573d6000803e3d6000fd5b505050506040513d6000823e601f3d908101601f19168201604052614d999190810190615460565b60655491935091506001600160a01b0316156149de57606554604051631264e26d60e31b815261060f60f31b600482015283151560248201526001600160a01b0390911690639327136890604401600060405180830381600087803b158015614e0157600080fd5b505af1158015614e15573d6000803e3d6000fd5b5050505094509492505050565b600183019183908215614ea45791602002820160005b83821115614e7557835183826101000a81548160ff0219169083151502179055509260200192600101602081600001049283019260010302614e38565b8015614ea25782816101000a81549060ff0219169055600101602081600001049283019260010302614e75565b505b50614eb0929150614f46565b5090565b60405180608001604052806004906020820280368337509192915050565b828054614ede90615c22565b90600052602060002090601f016020900481019282614f005760008555614ea4565b82601f10614f1957805160ff1916838001178555614ea4565b82800160010185558215614ea4579182015b82811115614ea4578251825591602001919060010190614f2b565b5b80821115614eb05760008155600101614f47565b6000614f6e614f6984615b33565b615b03565b9050828152838383011115614f8257600080fd5b61195d836020830184615bf2565b8035614f9b81615cee565b919050565b60008083601f840112614fb257600080fd5b5081356001600160401b03811115614fc957600080fd5b6020830191508360208260051b8501011115614fe457600080fd5b9250929050565b60008083601f840112614ffd57600080fd5b5081356001600160401b0381111561501457600080fd5b602083019150836020828501011115614fe457600080fd5b600082601f83011261503d57600080fd5b813561504b614f6982615b33565b81815284602083860101111561506057600080fd5b816020850160208301376000918101602001919091529392505050565b600082601f83011261508e57600080fd5b61195d83835160208501614f5b565b6000602082840312156150af57600080fd5b813561195d81615cee565b60008060008060008060c087890312156150d357600080fd5b86516150de81615cee565b60208801519096506150ef81615cee565b604088015190955061510081615cee565b606088015190945061511181615cee565b608088015190935061512281615cee565b60a08801519092506001600160401b0381111561513e57600080fd5b61514a89828a0161507d565b9150509295509295509295565b6000806000806060858703121561516d57600080fd5b843561517881615cee565b93506020850135925060408501356001600160401b0381111561519a57600080fd5b6151a687828801614feb565b95989497509550505050565b6000806000806000608086880312156151ca57600080fd5b85356151d581615cee565b9450602086013593506040860135925060608601356001600160401b038111156151fe57600080fd5b61520a88828901614fa0565b969995985093965092949392505050565b600080600080600080600080610100898b03121561523857600080fd5b883561524381615cee565b97506020890135965060408901359550606089013561526181615d11565b9450608089013561527181615d03565b935060a089013560ff8116811461528757600080fd5b979a969950949793969295929450505060c08201359160e0013590565b600080604083850312156152b757600080fd5b82356152c281615cee565b915060208301356152d281615d11565b809150509250929050565b600080600080604085870312156152f357600080fd5b84356001600160401b038082111561530a57600080fd5b61531688838901614fa0565b9096509450602087013591508082111561532f57600080fd5b506151a687828801614fa0565b6000806040838503121561534f57600080fd5b82356001600160401b038082111561536657600080fd5b818501915085601f83011261537a57600080fd5b813560208282111561538e5761538e615cd8565b8160051b61539d828201615b03565b8381528281019086840183880185018c10156153b857600080fd5b60009350835b868110156153f5578135888111156153d4578586fd5b6153e28e88838d010161502c565b85525092850192908501906001016153be565b5050809850505050615408818801614f90565b9450505050509250929050565b60006020828403121561542757600080fd5b815161195d81615d03565b6000806040838503121561544557600080fd5b823561545081615d03565b915060208301356152d281615d03565b6000806040838503121561547357600080fd5b825161547e81615d03565b60208401519092506001600160401b0381111561549a57600080fd5b6154a68582860161507d565b9150509250929050565b600080600080600080608087890312156154c957600080fd5b86356001600160401b03808211156154e057600080fd5b6154ec8a838b01614feb565b90985096506020890135915061550182615d11565b909450604088013593506060880135908082111561551e57600080fd5b5061552b89828a01614feb565b979a9699509497509295939492505050565b60006020828403121561554f57600080fd5b81356001600160401b0381111561556557600080fd5b6144a28482850161502c565b60006020828403121561558357600080fd5b81516001600160401b0381111561559957600080fd5b8201601f810184136155aa57600080fd5b6144a284825160208401614f5b565b6000602082840312156155cb57600080fd5b5035919050565b6000602082840312156155e457600080fd5b5051919050565b6000602082840312156155fd57600080fd5b813561195d81615d11565b6000806040838503121561561b57600080fd5b823561545081615d11565b60008060006040848603121561563b57600080fd5b833561564681615d11565b925060208401356001600160401b0381111561566157600080fd5b61566d86828701614feb565b9497909650939450505050565b60008060008060008060c0878903121561569357600080fd5b865161569e81615d11565b60208801519096506156af81615d11565b6040880151606089015160808a015160a0909a0151989b929a5090989097909650945092505050565b81835281816020850137506000828201602090810191909152601f909101601f19169091010190565b60008151808452615719816020860160208601615bf2565b601f01601f19169290920160200192915050565b6002811061573d5761573d615cac565b9052565b8183823760009101908152919050565b60008251615763818460208701615bf2565b9190910192915050565b6000875161577f818460208c01615bf2565b808301905060ff60f81b8860f81b1681526bffffffffffffffffffffffff198760601b16600182015285601582015284603582015283516157c7816055840160208801615bf2565b0160550198975050505050505050565b6001600160a01b038381168252604060208084018290528451918401829052600092858201929091906060860190855b81811015615825578551851683529483019491830191600101615807565b509098975050505050505050565b60018060a01b038516815283602082015260806040820152600061585a6080830185615701565b9050615869606083018461572d565b95945050505050565b6001600160a01b038c81168252602082018c90526101606040830181905260009161589f8483018e615701565b91506158ae606085018d61572d565b8a60808501528960a08501528860c085015280881660e08501528087166101008501528382036101208501526158e48287615701565b925080851661014085015250509c9b505050505050505050505050565b60808101818360005b600481101561592b578151151583526020928301929091019060010161590a565b50505092915050565b60006101808e151583528d1515602084015263ffffffff808e166040850152808d166060850152508a60808401528960a08401528860c08401528760e08401528061010084015261598781840188615701565b905082810361012084015261599c8187615701565b610140840195909552505061016001529a9950505050505050505050565b60208152600061195d6020830184615701565b60208101600883106159e1576159e1615cac565b91905290565b602080825260059082015264085898585b60da1b604082015260600190565b6020808252600d908201526c2161727261792070617269747960981b604082015260600190565b6020808252602b908201527f496e697469616c697a61626c653a20636f6e7472616374206973206e6f74206960408201526a6e697469616c697a696e6760a81b606082015260800190565b60208082526010908201526f10b130b0b610131010b6b0b730b3b2b960811b604082015260600190565b600063ffffffff808c16835260e06020840152615ac360e084018b8d6156d8565b818a16604085015288606085015287151560808501528660a085015283810360c0850152615af28186886156d8565b9d9c50505050505050505050505050565b604051601f8201601f191681016001600160401b0381118282101715615b2b57615b2b615cd8565b604052919050565b60006001600160401b03821115615b4c57615b4c615cd8565b50601f01601f191660200190565b60008219821115615b6d57615b6d615c96565b500190565b600063ffffffff808316818516808303821115615b9157615b91615c96565b01949350505050565b600082615bb757634e487b7160e01b600052601260045260246000fd5b500490565b6000816000190483118215151615615bd657615bd6615c96565b500290565b600082821015615bed57615bed615c96565b500390565b60005b83811015615c0d578181015183820152602001615bf5565b83811115615c1c576000848401525b50505050565b600181811c90821680615c3657607f821691505b60208210811415613da357634e487b7160e01b600052602260045260246000fd5b6000600019821415615c6b57615c6b615c96565b5060010190565b600063ffffffff80831681811415615c8c57615c8c615c96565b6001019392505050565b634e487b7160e01b600052601160045260246000fd5b634e487b7160e01b600052602160045260246000fd5b634e487b7160e01b600052603260045260246000fd5b634e487b7160e01b600052604160045260246000fd5b6001600160a01b038116811461154257600080fd5b801515811461154257600080fd5b63ffffffff8116811461154257600080fdfe322e322e352b6f70656e67736e2e70617961626c65776974686261616c2e6972656c6179726563697069656e74a2646970667358221220178cefb04e476abe5af61c5f7db34d2c912defb38857ba62ff0b25f75ad3c9ac64736f6c63430008070033",
              "deployedBytecode": "0x6080604052600436106103a25760003560e01c80638009ba1f116101e7578063cf043df31161010d578063ed0cdf15116100a0578063f460124d1161006f578063f460124d14610beb578063f81cbd2614610c0b578063fab514c014610c21578063fe47668614610c4157600080fd5b8063ed0cdf1514610b6b578063ee4d88ed14610b8b578063f2fde38b14610bab578063f3ae241514610bcb57600080fd5b8063da35c664116100dc578063da35c66414610ae7578063da74222814610b0b578063e19a9dd914610b2b578063e43581b814610b4b57600080fd5b8063cf043df314610a4c578063d33defc714610a6c578063d4b8399214610aa7578063d61f27ae14610ac757600080fd5b8063a4f9edbf11610185578063b634e4e011610154578063b634e4e0146109cb578063c00d0775146109e8578063c4e931f614610a0f578063c910638914610a2e57600080fd5b8063a4f9edbf14610956578063acca30a214610976578063b1e3f40c1461098b578063b3c98bbb146109ab57600080fd5b806398a527cc116101c157806398a527cc146108dc5780639a2f747f146108fc578063a06db7dc14610912578063a26ec96e1461093657600080fd5b80638009ba1f1461088857806383bf8459146108a85780638da5cb5b146108be57600080fd5b80634526d846116102cc5780635ec286961161026a578063715018a611610239578063715018a614610815578063776d1a011461082a5780637ceab3b11461084a5780637da0a8771461086a57600080fd5b80635ec28696146107a0578063635e99aa146107c057806367f61f07146107d5578063706a6e93146107f557600080fd5b806352ba1da7116102a657806352ba1da7146106f6578063572b6c05146107235780635aef7de6146107525780635cfd6f7e1461078a57600080fd5b80634526d846146106875780634630affc146106a7578063486ff0cd146106d457600080fd5b8063136d731a11610344578063258bfe2f11610313578063258bfe2f146106125780633232444c146106325780633a82ffc81461065f5780633a98ef391461067257600080fd5b8063136d731a146105a557806316fd265d146105ba57806318160ddd146105cf57806324d7806c146105f257600080fd5b8063056b0dcd11610380578063056b0dcd14610523578063086cfca8146105455780630a796e19146105655780630f656a211461058557600080fd5b8063013cf08b146103a7578063027cdf45146104c057806302a251a3146104ea575b600080fd5b3480156103b357600080fd5b506104436103c23660046155b9565b60d960205260009081526040902080546001820154600283015460038401546004850154600686015460079096015463ffffffff80871697600160201b8804821697600160401b8104831697600160601b8204841697600160801b8304851697600160a01b909304909416959094919290916001600160a01b03909116908c565b6040805163ffffffff9d8e1681529b8d1660208d0152998c16998b0199909952968a1660608a015294891660808901529790921660a087015260c086015260e08501526101008401949094526101208301939093526001600160a01b03909216610140820152610160810191909152610180015b60405180910390f35b3480156104cc57600080fd5b5060d5546104da9060ff1681565b60405190151581526020016104b7565b3480156104f657600080fd5b5060d05461050e90600160a01b900463ffffffff1681565b60405163ffffffff90911681526020016104b7565b34801561052f57600080fd5b5061054361053e366004615432565b610c6e565b005b34801561055157600080fd5b5061054361056036600461509d565b6111b5565b34801561057157600080fd5b506105436105803660046155eb565b61120f565b34801561059157600080fd5b506105436105a03660046152dd565b611545565b3480156105b157600080fd5b506105436117f3565b3480156105c657600080fd5b50610543611884565b3480156105db57600080fd5b506105e46118fe565b6040519081526020016104b7565b3480156105fe57600080fd5b506104da61060d36600461509d565b61191f565b34801561061e57600080fd5b506105e461062d36600461553d565b611964565b34801561063e57600080fd5b506105e461064d36600461509d565b60d66020526000908152604090205481565b6105e461066d3660046154b0565b611994565b34801561067e57600080fd5b506105e4611fd0565b34801561069357600080fd5b506105436106a23660046152dd565b61204d565b3480156106b357600080fd5b506106c76106c23660046155eb565b61211c565b6040516104b79190615901565b3480156106e057600080fd5b506106e961218d565b6040516104b791906159ba565b34801561070257600080fd5b506105e461071136600461509d565b60d86020526000908152604090205481565b34801561072f57600080fd5b506104da61073e36600461509d565b60ce546001600160a01b0391821691161490565b34801561075e57600080fd5b50606654610772906001600160a01b031681565b6040516001600160a01b0390911681526020016104b7565b34801561079657600080fd5b506105e460d35481565b3480156107ac57600080fd5b506105436107bb3660046152dd565b61221b565b3480156107cc57600080fd5b506105e46122ea565b3480156107e157600080fd5b506105436107f0366004615608565b61232f565b34801561080157600080fd5b50610543610810366004615626565b612353565b34801561082157600080fd5b5061054361273f565b34801561083657600080fd5b5061054361084536600461509d565b612753565b34801561085657600080fd5b50606554610772906001600160a01b031681565b34801561087657600080fd5b5060ce546001600160a01b0316610772565b34801561089457600080fd5b5060d054610772906001600160a01b031681565b3480156108b457600080fd5b506105e460d45481565b3480156108ca57600080fd5b506033546001600160a01b0316610772565b3480156108e857600080fd5b506105436108f73660046152dd565b6127ad565b34801561090857600080fd5b506105e460d15481565b34801561091e57600080fd5b5060d05461050e90600160c01b900463ffffffff1681565b34801561094257600080fd5b5060d5546104da9062010000900460ff1681565b34801561096257600080fd5b5061054361097136600461553d565b61287c565b34801561098257600080fd5b50610543612e0a565b34801561099757600080fd5b506105436109a63660046152dd565b612e8f565b3480156109b757600080fd5b506105436109c6366004615157565b612f5e565b3480156109d757600080fd5b5060da5461050e9063ffffffff1681565b3480156109f457600080fd5b5060da5461077290600160201b90046001600160a01b031681565b348015610a1b57600080fd5b5060d5546104da90610100900460ff1681565b348015610a3a57600080fd5b506065546001600160a01b0316610772565b348015610a5857600080fd5b50610543610a6736600461521b565b61303f565b348015610a7857600080fd5b506104da610a873660046152a4565b60d760209081526000928352604080842090915290825290205460ff1681565b348015610ab357600080fd5b50606754610772906001600160a01b031681565b348015610ad357600080fd5b506106e9610ae236600461533c565b613319565b348015610af357600080fd5b5060d05461050e90600160e01b900463ffffffff1681565b348015610b1757600080fd5b50610543610b2636600461509d565b6133e0565b348015610b3757600080fd5b50610543610b4636600461509d565b61348f565b348015610b5757600080fd5b506104da610b6636600461509d565b6135a0565b348015610b7757600080fd5b50610543610b863660046151b2565b6135e1565b348015610b9757600080fd5b50610543610ba636600461553d565b6136f0565b348015610bb757600080fd5b50610543610bc636600461509d565b61394e565b348015610bd757600080fd5b506104da610be636600461509d565b6139c4565b348015610bf757600080fd5b5060cf54610772906001600160a01b031681565b348015610c1757600080fd5b506105e460d25481565b348015610c2d57600080fd5b50610543610c3c3660046155eb565b613a04565b348015610c4d57600080fd5b50610c61610c5c3660046155eb565b613bd8565b6040516104b791906159cd565b6066546001600160a01b0316610c82613da9565b6001600160a01b03161480610c9d5750610c9d61060d613da9565b610cdf5760405162461bcd60e51b815260206004820152600e60248201526d10b130b0b610131010b0b236b4b760911b60448201526064015b60405180910390fd5b818015610d6f575060d060009054906101000a90046001600160a01b03166001600160a01b0316635c975abb6040518163ffffffff1660e01b815260040160206040518083038186803b158015610d3557600080fd5b505afa158015610d49573d6000803e3d6000fd5b505050506040513d601f19601f82011682018060405250810190610d6d9190615415565b155b15610e165760d060009054906101000a90046001600160a01b03166001600160a01b0316638456cb596040518163ffffffff1660e01b8152600401600060405180830381600087803b158015610dc457600080fd5b505af1158015610dd8573d6000803e3d6000fd5b5050604051600181527f5544d0c1539dae939ba6e81485fb6352e3081f5a74f9bf445038bdcc358e34159250602001905060405180910390a1610f48565b81158015610ea5575060d060009054906101000a90046001600160a01b03166001600160a01b0316635c975abb6040518163ffffffff1660e01b815260040160206040518083038186803b158015610e6d57600080fd5b505afa158015610e81573d6000803e3d6000fd5b505050506040513d601f19601f82011682018060405250810190610ea59190615415565b15610f485760d060009054906101000a90046001600160a01b03166001600160a01b0316633f4ba83a6040518163ffffffff1660e01b8152600401600060405180830381600087803b158015610efa57600080fd5b505af1158015610f0e573d6000803e3d6000fd5b5050604051600081527f5544d0c1539dae939ba6e81485fb6352e3081f5a74f9bf445038bdcc358e34159250602001905060405180910390a15b808015610fd8575060cf60009054906101000a90046001600160a01b03166001600160a01b0316635c975abb6040518163ffffffff1660e01b815260040160206040518083038186803b158015610f9e57600080fd5b505afa158015610fb2573d6000803e3d6000fd5b505050506040513d601f19601f82011682018060405250810190610fd69190615415565b155b1561107f5760cf60009054906101000a90046001600160a01b03166001600160a01b0316638456cb596040518163ffffffff1660e01b8152600401600060405180830381600087803b15801561102d57600080fd5b505af1158015611041573d6000803e3d6000fd5b5050604051600181527f21b897e32ff7464f696022c4d6dfbf2d4eb300d162ad28e0d90f1136f5fea9cb925060200190505b60405180910390a15050565b8015801561110e575060cf60009054906101000a90046001600160a01b03166001600160a01b0316635c975abb6040518163ffffffff1660e01b815260040160206040518083038186803b1580156110d657600080fd5b505afa1580156110ea573d6000803e3d6000fd5b505050506040513d601f19601f8201168201806040525081019061110e9190615415565b156111b15760cf60009054906101000a90046001600160a01b03166001600160a01b0316633f4ba83a6040518163ffffffff1660e01b8152600401600060405180830381600087803b15801561116357600080fd5b505af1158015611177573d6000803e3d6000fd5b5050604051600081527f21b897e32ff7464f696022c4d6dfbf2d4eb300d162ad28e0d90f1136f5fea9cb9250602001905060405180910390a15b5050565b6111bd613db3565b606680546001600160a01b038381166001600160a01b0319831681179093556040519116919082907f52ae88b092de36f87fb43fe794eb1381023b9c1bce563a871154022c63dce34290600090a35050565b611217613e2c565b63ffffffff8116600090815260d96020526040902060d35460d0546001600160a01b0316639ab24eb0611248613da9565b6040516001600160e01b031960e084901b1681526001600160a01b03909116600482015260240160206040518083038186803b15801561128757600080fd5b505afa15801561129b573d6000803e3d6000fd5b505050506040513d601f19601f820116820180604052508101906112bf91906155d2565b10156112f85760405162461bcd60e51b815260206004820152600860248201526710b9b837b739b7b960c11b6044820152606401610cd6565b600161130383613bd8565b600781111561131457611314615cac565b1461134e5760405162461bcd60e51b815260206004820152600a602482015269085cdd589b5a5d1d195960b21b6044820152606401610cd6565b8054600160a01b900463ffffffff1615806113a4575060d05463ffffffff600160c01b820481169161138991600160a01b9091041642615b5a565b6113939190615b5a565b8154600160a01b900463ffffffff16115b6113da5760405162461bcd60e51b8152602060048201526007602482015266195e1c1a5c995960ca1b6044820152606401610cd6565b805463ffffffff42818116600160401b026bffffffff00000000000000001984168117855560d08054600160a01b90819004851684018516600160601b0263ffffffff60601b1990931667ffffffffffffffff60401b19909616959095179190911780865590549384048316909101600160c01b9093048216929092018116600160801b0263ffffffff60801b1983168117845560da54600160201b92169190910267ffffffff000000001990911673ffffffff0000000000000000ffffffff0000000019909216919091171781556114b1613da9565b6006820180546001600160a01b0319166001600160a01b03929092169190911790556114db6118fe565b600482015560da805463ffffffff191663ffffffff84169081179091554290611502613da9565b6001600160a01b03167fd45ad122361f16d6f50d7c4a73638f20ee48eff6186af15224e2a4a1f6d5017160405160405180910390a4506115426001609c55565b50565b6066546001600160a01b0316611559613da9565b6001600160a01b03161461157f5760405162461bcd60e51b8152600401610cd6906159e7565b82811461159e5760405162461bcd60e51b8152600401610cd690615a06565b60005b838110156117ec5760008383838181106115bd576115bd615cc2565b60d5546020909102929092013592505060ff161561163a57806001141580156115e7575080600314155b80156115f4575080600514155b8015611601575080600714155b61163a5760405162461bcd60e51b815260206004820152600a60248201526961646d696e206c6f636b60b01b6044820152606401610cd6565b60d554610100900460ff16156116b1578060021415801561165c575080600314155b8015611669575080600614155b8015611676575080600714155b6116b15760405162461bcd60e51b815260206004820152600c60248201526b6d616e61676572206c6f636b60a01b6044820152606401610cd6565b60d55462010000900460ff161561172a57806004141580156116d4575080600514155b80156116e1575080600614155b80156116ee575080600714155b61172a5760405162461bcd60e51b815260206004820152600d60248201526c676f7665726e6f72206c6f636b60981b6044820152606401610cd6565b8060d6600088888681811061174157611741615cc2565b9050602002016020810190611756919061509d565b6001600160a01b0316815260208101919091526040016000205585858381811061178257611782615cc2565b9050602002016020810190611797919061509d565b6001600160a01b03167fc456d076c1245c6b9759b3cdcb169e14e00a7739897e501844c8fe5fca6cb260826040516117d191815260200190565b60405180910390a250806117e481615c57565b9150506115a1565b5050505050565b6066546001600160a01b0316611807613da9565b6001600160a01b03161461182d5760405162461bcd60e51b8152600401610cd6906159e7565b60d5805462ff0000191662010000908117918290556040517fd9574ee4ccdf21db87aa2c1d1fee3248522d79c07c54bde4a9edeb0620bef71f9261187a92900460ff161515815260200190565b60405180910390a1565b6066546001600160a01b0316611898613da9565b6001600160a01b0316146118be5760405162461bcd60e51b8152600401610cd6906159e7565b60d5805460ff191660019081179091556040519081527f5e1c9f68365556a24387c25fd0922af31039bcfc65d36caac57401d310948e599060200161187a565b6000611908611fd0565b6119106122ea565b61191a9190615b5a565b905090565b6001600160a01b038116600090815260d6602052604081205460018114806119475750806003145b806119525750806005145b8061195d5750806007145b9392505050565b60008160405160200161197791906159ba565b604051602081830303815290604052805190602001209050919050565b600061199e613e2c565b63ffffffff851615806119e4575060d05463ffffffff600160c01b82048116916119d191600160a01b9091041642615b5a565b6119db9190615b5a565b8563ffffffff16115b611a1a5760405162461bcd60e51b8152602060048201526007602482015266195e1c1a5c995960ca1b6044820152606401610cd6565b6301312d00841115611a605760405162461bcd60e51b815260206004820152600f60248201526e0c4c2c2d88ec2e640e8de40d0d2ced608b1b6044820152606401610cd6565b60d35460d054600091906001600160a01b0316639ab24eb0611a80613da9565b6040516001600160e01b031960e084901b1681526001600160a01b03909116600482015260240160206040518083038186803b158015611abf57600080fd5b505afa158015611ad3573d6000803e3d6000fd5b505050506040513d601f19601f82011682018060405250810190611af791906155d2565b10611b0457506001611beb565b60d1543414611b555760405162461bcd60e51b815260206004820152601960248201527f4261616c20726571756972657320616e206f66666572696e67000000000000006044820152606401610cd6565b6067546040516000916001600160a01b03169034908381818185875af1925050503d8060008114611ba2576040519150601f19603f3d011682016040523d82523d6000602084013e611ba7565b606091505b5050905080611be95760405162461bcd60e51b815260206004820152600e60248201526d18dbdd5b19081b9bdd081cd95b9960921b6044820152606401610cd6565b505b6000611c2c89898080601f01602080910402602001604051908101604052809392919081815260200183838082843760009201919091525061196492505050565b60d08054919250600160e01b90910463ffffffff1690601c611c4d83615c72565b91906101000a81548163ffffffff021916908363ffffffff16021790555050604051806101a0016040528060d0601c9054906101000a900463ffffffff1663ffffffff16815260200183611ca2576000611cac565b60da5463ffffffff165b63ffffffff16815260200183611cc3576000611cc5565b425b63ffffffff16815260200183611cdc576000611cf6565b60d054611cf690600160a01b900463ffffffff1642615b72565b63ffffffff16815260200183611d0d576000611d3c565b60d05463ffffffff600160c01b8204811691611d3291600160a01b9091041642615b72565b611d3c9190615b72565b63ffffffff1681526020018863ffffffff168152602001878152602001600081526020016000815260200183611d73576000611d7b565b611d7b6118fe565b8152604080516080810182526000808252602082810182905282840182905260608301919091528301520183611db2576000611dba565b611dba613da9565b6001600160a01b03168152602090810183905260d054600160e01b900463ffffffff908116600090815260d983526040908190208451815494860151928601516060870151608088015160a089015193871667ffffffffffffffff1990981697909717600160201b958716959095029490941767ffffffffffffffff60401b1916600160401b9186169190910263ffffffff60601b191617600160601b938516939093029290921767ffffffffffffffff60801b1916600160801b9484169490940263ffffffff60a01b191693909317600160a01b919092160217815560c0820151600182015560e082015160028201556101008201516003820155610120820151600480830191909155610140830151611eda91600584019190614e22565b506101608201516006820180546001600160a01b0319166001600160a01b03909216919091179055610180909101516007909101558115611f3a5760d05460da8054600160e01b90920463ffffffff1663ffffffff199092169190911790555b8060d0601c9054906101000a900463ffffffff1663ffffffff167fb9956173924f9c1204bae41dd3737d7ed1161846d13183879cdc03c4b9f8d01960d060149054906101000a900463ffffffff168c8c8c8c89428e8e604051611fa599989796959493929190615aa2565b60405180910390a3505060d0546001609c55600160e01b900463ffffffff1690509695505050505050565b60d054604080516318160ddd60e01b815290516000926001600160a01b0316916318160ddd916004808301926020929190829003018186803b15801561201557600080fd5b505afa158015612029573d6000803e3d6000fd5b505050506040513d601f19601f8201168201806040525081019061191a91906155d2565b6066546001600160a01b0316612061613da9565b6001600160a01b0316148061207c575061207c610be6613da9565b6120985760405162461bcd60e51b8152600401610cd690615a78565b8281146120b75760405162461bcd60e51b8152600401610cd690615a06565b60005b838110156117ec5761210a8585838181106120d7576120d7615cc2565b90506020020160208101906120ec919061509d565b8484848181106120fe576120fe615cc2565b90506020020135613e8d565b8061211481615c57565b9150506120ba565b612124614eb4565b63ffffffff8216600090815260d9602052604080822081516080810192839052926005909101916004918390855b825461010083900a900460ff161515815260206001928301818104948501949093039092029101808411612152575094979650505050505050565b60db805461219a90615c22565b80601f01602080910402602001604051908101604052809291908181526020018280546121c690615c22565b80156122135780601f106121e857610100808354040283529160200191612213565b820191906000526020600020905b8154815290600101906020018083116121f657829003601f168201915b505050505081565b6066546001600160a01b031661222f613da9565b6001600160a01b0316148061224a575061224a610be6613da9565b6122665760405162461bcd60e51b8152600401610cd690615a78565b8281146122855760405162461bcd60e51b8152600401610cd690615a06565b60005b838110156117ec576122d88585838181106122a5576122a5615cc2565b90506020020160208101906122ba919061509d565b8484848181106122cc576122cc615cc2565b90506020020135613ef8565b806122e281615c57565b915050612288565b60cf54604080516318160ddd60e01b815290516000926001600160a01b0316916318160ddd916004808301926020929190829003018186803b15801561201557600080fd5b612337613e2c565b612349612342613da9565b8383613f31565b6111b16001609c55565b61235b613e2c565b63ffffffff8316600090815260d96020526040902060068101546001600160a01b03166123b55760405162461bcd60e51b815260206004820152600860248201526710b9b837b739b7b960c11b6044820152606401610cd6565b60056123c085613bd8565b60078111156123d1576123d1615cac565b146124075760405162461bcd60e51b815260206004820152600660248201526521726561647960d01b6044820152606401610cd6565b805460009061242290600160201b900463ffffffff16613bd8565b9050600681600781111561243857612438615cac565b14806124555750600381600781111561245357612453615cac565b145b806124715750600781600781111561246f5761246f615cac565b145b8061248d5750600081600781111561248b5761248b615cac565b145b6124ca5760405162461bcd60e51b815260206004820152600e60248201526d1c1c995d885c1c9bd8d95cdcd95960921b6044820152606401610cd6565b816007015461250e85858080601f01602080910402602001604051908101604052809392919081815260200183838082843760009201919091525061196492505050565b146125505760405162461bcd60e51b8152602060048201526012602482015271696e636f72726563742063616c6c6461746160701b6044820152606401610cd6565b60018201541580612565575081600101545a10155b6125a25760405162461bcd60e51b815260206004820152600e60248201526d6e6f7420656e6f7567682067617360901b6044820152606401610cd6565b60058201805461ff0019166101001790558154600190600160a01b900463ffffffff16158015906125e15750825442600160a01b90910463ffffffff16105b156125ea575060005b8080156126165750826004015460d2546126049190615bbc565b6002840154612614906064615bbc565b105b1561261f575060005b80801561264f5750606460d454846004015461263b9190615bbc565b6126459190615b9a565b61264d6118fe565b105b15612658575060005b80156126d15760058301805462ff0000191662010000179055604080516020601f87018190048102820181019092528581526000916126b29190889088908190840183828082843760009201919091525061419492505050565b9050806126cf5760058401805463ff000000191663010000001790555b505b60058301546040805160ff62010000840481161515825263010000009093049092161515602083015263ffffffff8816917fb4571f7e4e2c2b6e6185e47ab5caa5fe34087299bd49fbae945a4583101ee3f0910160405180910390a250505061273a6001609c55565b505050565b612747613db3565b61275160006141bd565b565b61275b613db3565b606780546001600160a01b038381166001600160a01b0319831681179093556040519116919082907f90cc2f570a6eb594b1580ea3e41247d2d73a55281889e86bd4ec2fc29c7e62d690600090a35050565b6066546001600160a01b03166127c1613da9565b6001600160a01b031614806127dc57506127dc610be6613da9565b6127f85760405162461bcd60e51b8152600401610cd690615a78565b8281146128175760405162461bcd60e51b8152600401610cd690615a06565b60005b838110156117ec5761286a85858381811061283757612837615cc2565b905060200201602081019061284c919061509d565b84848481811061285e5761285e615cc2565b9050602002013561420f565b8061287481615c57565b91505061281a565b600054610100900460ff161580801561289c5750600054600160ff909116105b806128b65750303b1580156128b6575060005460ff166001145b6129195760405162461bcd60e51b815260206004820152602e60248201527f496e697469616c697a61626c653a20636f6e747261637420697320616c72656160448201526d191e481a5b9a5d1a585b1a5e995960921b6064820152608401610cd6565b6000805460ff19166001179055801561293c576000805461ff0019166101001790555b612944613e2c565b6000806000806000808780602001905181019061296191906150ba565b95509550955095509550955060006001600160a01b0316846001600160a01b03161415801561299857506001600160a01b03831615155b6129d25760405162461bcd60e51b815260206004820152600b60248201526a0c081859191c881d5cd95960aa1b6044820152606401610cd6565b6040518060600160405280602d8152602001615d24602d913980516129ff9160db91602090910190614ed2565b50612a08614248565b612a10614277565b612a4f60405180604001604052806004815260200163566f746560e01b815250604051806040016040528060018152602001600d60fa1b8152506142a6565b612a588361394e565b606680546001600160a01b0385166001600160a01b03199182168117909255606780549091169091179055612a8c826142d7565b60cf80546001600160a01b03199081166001600160a01b038981169190911790925560d0805490911687831617905560da8054640100000000600160c01b031916600160201b87841681029190911791829055612af09291041660008360016142f9565b612b315760405162461bcd60e51b8152602060048201526012602482015271063616c6c206661696c7572652073657475760741b6044820152606401610cd6565b60cf5460408051635c975abb60e01b815290517f916f812584e0b001e8c6ab604fa549cc16c9d0b2f60b17aa0b4ff5eefe3e7725926001600160a01b031691635c975abb916004808301926020929190829003018186803b158015612b9557600080fd5b505afa158015612ba9573d6000803e3d6000fd5b505050506040513d601f19601f82011682018060405250810190612bcd9190615415565b60d060009054906101000a90046001600160a01b03166001600160a01b0316635c975abb6040518163ffffffff1660e01b815260040160206040518083038186803b158015612c1b57600080fd5b505afa158015612c2f573d6000803e3d6000fd5b505050506040513d601f19601f82011682018060405250810190612c539190615415565b60d05460d15460d25460d35460d454604080516306fdde0360e01b8152905163ffffffff600160c01b8804811697600160a01b810490911696959493926001600160a01b03909116916306fdde0391600480820192600092909190829003018186803b158015612cc257600080fd5b505afa158015612cd6573d6000803e3d6000fd5b505050506040513d6000823e601f3d908101601f19168201604052612cfe9190810190615571565b60d060009054906101000a90046001600160a01b03166001600160a01b03166395d89b416040518163ffffffff1660e01b815260040160006040518083038186803b158015612d4c57600080fd5b505afa158015612d60573d6000803e3d6000fd5b505050506040513d6000823e601f3d908101601f19168201604052612d889190810190615571565b612d90611fd0565b612d986122ea565b604051612db09c9b9a99989796959493929190615934565b60405180910390a1505050505050612dc86001609c55565b80156111b1576000805461ff0019169055604051600181527f7f26b83ff96e1f2b6a682f133852f6798a09c465da95921460cefb384740249890602001611073565b6066546001600160a01b0316612e1e613da9565b6001600160a01b031614612e445760405162461bcd60e51b8152600401610cd6906159e7565b60d5805461ff001916610100908117918290556040517fb496b9628e839102454d8b483ba451c4be96675009b637273a00e4ab6a59db729261187a92900460ff161515815260200190565b6066546001600160a01b0316612ea3613da9565b6001600160a01b03161480612ebe5750612ebe610be6613da9565b612eda5760405162461bcd60e51b8152600401610cd690615a78565b828114612ef95760405162461bcd60e51b8152600401610cd690615a06565b60005b838110156117ec57612f4c858583818110612f1957612f19615cc2565b9050602002016020810190612f2e919061509d565b848484818110612f4057612f40615cc2565b905060200201356144aa565b80612f5681615c57565b915050612efc565b6066546001600160a01b0316612f72613da9565b6001600160a01b031614612f985760405162461bcd60e51b8152600401610cd6906159e7565b6000846001600160a01b0316848484604051612fb5929190615741565b60006040518083038185875af1925050503d8060008114612ff2576040519150601f19603f3d011682016040523d82523d6000602084013e612ff7565b606091505b50509050806117ec5760405162461bcd60e51b815260206004820152601460248201527363616c6c206661696c757265206578656375746560601b6044820152606401610cd6565b613047613e2c565b864211156130975760405162461bcd60e51b815260206004820152601d60248201527f4552433230566f7465733a207369676e617475726520657870697265640000006044820152606401610cd6565b6001600160a01b038816600090815260d8602052604090205486146130e75760405162461bcd60e51b8152602060048201526006602482015265216e6f6e636560d01b6044820152606401610cd6565b60007f8698fbcc7273f96a670eb203cb707d8ec171123f24eaf075b1e754b71119e59e60d060009054906101000a90046001600160a01b03166001600160a01b03166306fdde036040518163ffffffff1660e01b815260040160006040518083038186803b15801561315857600080fd5b505afa15801561316c573d6000803e3d6000fd5b505050506040513d6000823e601f3d908101601f191682016040526131949190810190615571565b6040516020016131a49190615751565b60408051601f198184030181528282528051602091820120908301939093528101919091526001600160a01b038a1660608201526080810189905260a0810188905263ffffffff871660c082015285151560e0820152610100016040516020818303038152906040528051906020012090506000613221826144e3565b9050600061323182878787614531565b90508a6001600160a01b0316816001600160a01b0316146132885760405162461bcd60e51b8152602060048201526011602482015270696e76616c6964207369676e617475726560781b6044820152606401610cd6565b6001600160a01b0381166132c85760405162461bcd60e51b815260206004820152600760248201526610b9b4b3b732b960c91b6044820152606401610cd6565b6001600160a01b038b16600090815260d8602052604081208054600192906132f1908490615b5a565b909155506133029050818989613f31565b50505061330f6001609c55565b5050505050505050565b60608060005b845181101561339c5781600085600088858151811061334057613340615cc2565b60200260200101515189868151811061335b5761335b615cc2565b60200260200101516040516020016133789695949392919061576d565b6040516020818303038152906040529150808061339490615c57565b91505061331f565b50806040516024016133ae91906159ba565b60408051601f198184030181529190526020810180516001600160e01b03166346c07f8560e11b179052949350505050565b6066546001600160a01b03166133f4613da9565b6001600160a01b0316148061340f575061340f610b66613da9565b61344f5760405162461bcd60e51b815260206004820152601160248201527010b130b0b610131010b3b7bb32b93737b960791b6044820152606401610cd6565b613458816142d7565b6040516001600160a01b038216907f8c2bee8063bb4464870b7dfa415ebb2fe80bfa73ba20d6fbf0d42791274667ff90600090a250565b613497613db3565b6001600160a01b0381161561354c576040516301ffc9a760e01b815263736bd41d60e11b60048201526001600160a01b038216906301ffc9a79060240160206040518083038186803b1580156134ec57600080fd5b505afa158015613500573d6000803e3d6000fd5b505050506040513d601f19601f820116820180604052508101906135249190615415565b61354c576040516358b7533f60e11b81526001600160a01b0382166004820152602401610cd6565b606580546001600160a01b0319166001600160a01b0383169081179091556040519081527f1151116914515bc0891ff9047a6cb32cf902546f83066499bcf8ba33d2353fa29060200160405180910390a150565b6001600160a01b038116600090815260d6602052604081205460048114806135c85750806005145b806119525750806006148061195d575060071492915050565b6135e9613e2c565b60015b818110156136a6578282613601600184615bdb565b81811061361057613610615cc2565b9050602002016020810190613625919061509d565b6001600160a01b031683838381811061364057613640615cc2565b9050602002016020810190613655919061509d565b6001600160a01b0316116136945760405162461bcd60e51b815260206004820152600660248201526510b7b93232b960d11b6044820152606401610cd6565b8061369e81615c57565b9150506135ec565b506136e685858585858080602002602001604051908101604052809392919081815260200183836020028082843760009201919091525061455992505050565b6117ec6001609c55565b6066546001600160a01b0316613704613da9565b6001600160a01b0316148061371f575061371f610b66613da9565b61375f5760405162461bcd60e51b815260206004820152601160248201527010b130b0b610131010b3b7bb32b93737b960791b6044820152606401610cd6565b6000806000806000808680602001905181019061377c919061567a565b949a5092985090965094509250905060648111156137c95760405162461bcd60e51b815260206004820152600a6024820152696261642071756f72756d60b01b6044820152606401610cd6565b606481111561380d5760405162461bcd60e51b815260206004820152601060248201526f3130b21036b4b72932ba32b73a34b7b760811b6044820152606401610cd6565b600060d354118015613829575060d0546001600160a01b031615155b1561387e57613836611fd0565b82111561387e5760405162461bcd60e51b815260206004820152601660248201527573706f6e736f72203e20736861726573537570706c7960501b6044820152606401610cd6565b63ffffffff8616156138a95760d0805463ffffffff60a01b1916600160a01b63ffffffff8916021790555b63ffffffff8516156138d45760d0805463ffffffff60c01b1916600160c01b63ffffffff8816021790555b60d184905560d283905560d382905560d48190556040805163ffffffff808916825287166020820152908101859052606081018490526080810183905260a081018290527fc10758ccd7d1dd3330e7bbe13a1a1d6bbb414967932376ee24989bad95edcdc19060c00160405180910390a150505050505050565b613956613db3565b6001600160a01b0381166139bb5760405162461bcd60e51b815260206004820152602660248201527f4f776e61626c653a206e6577206f776e657220697320746865207a65726f206160448201526564647265737360d01b6064820152608401610cd6565b611542816141bd565b6001600160a01b038116600090815260d6602052604081205460028114806135c8575080600314806119525750806006148061195d575060071492915050565b613a0c613e2c565b63ffffffff8116600090815260d9602052604090206002613a2c83613bd8565b6007811115613a3d57613a3d615cac565b14613a745760405162461bcd60e51b815260206004820152600760248201526621766f74696e6760c81b6044820152606401610cd6565b60068101546001600160a01b0316613a8a613da9565b6001600160a01b03161480613b41575060d35460d05460068301546001600160a01b0391821691633a46b1a89116613ac3600142615bdb565b6040516001600160e01b031960e085901b1681526001600160a01b039092166004830152602482015260440160206040518083038186803b158015613b0757600080fd5b505afa158015613b1b573d6000803e3d6000fd5b505050506040513d601f19601f82011682018060405250810190613b3f91906155d2565b105b80613b525750613b52610b66613da9565b613b8d5760405162461bcd60e51b815260206004820152600c60248201526b2163616e63656c6c61626c6560a01b6044820152606401610cd6565b60058101805460ff1916600117905560405163ffffffff8316907f8896f24cff41b54acf76c2560861f33cd20fd76c4df0b68a3515c354e4b6c81a90600090a2506115426001609c55565b63ffffffff818116600090815260d96020908152604080832081516101a08101835281548087168252600160201b8104871694820194909452600160401b8404861681840152600160601b840486166060820152600160801b84048616608080830191909152600160a01b90940490951660a0860152600181015460c0860152600281015460e0860152600381015461010086015260048082015461012087015282519384019283905293948594909391926101408501929160058501918288855b825461010083900a900460ff161515815260206001928301818104948501949093039092029101808411613c9a5750505092845250505060068201546001600160a01b03166020820152600790910154604090910152805190915063ffffffff16613d085750600092915050565b6101408101515115613d1d5750600392915050565b604081015163ffffffff16613d355750600192915050565b806060015163ffffffff164211613d4f5750600292915050565b806080015163ffffffff164211613d695750600492915050565b8060e0015181610100015110613d825750600792915050565b6101408101516020015115613d9a5750600692915050565b50600592915050565b50919050565b600061191a6147d5565b613dbb613da9565b6001600160a01b0316613dd66033546001600160a01b031690565b6001600160a01b0316146127515760405162461bcd60e51b815260206004820181905260248201527f4f776e61626c653a2063616c6c6572206973206e6f7420746865206f776e65726044820152606401610cd6565b6002609c541415613e7f5760405162461bcd60e51b815260206004820152601f60248201527f5265656e7472616e637947756172643a207265656e7472616e742063616c6c006044820152606401610cd6565b6002609c55565b6001609c55565b60cf546040516340c10f1960e01b81526001600160a01b03848116600483015260248201849052909116906340c10f19906044015b600060405180830381600087803b158015613edc57600080fd5b505af1158015613ef0573d6000803e3d6000fd5b505050505050565b60cf54604051632770a7eb60e21b81526001600160a01b0384811660048301526024820184905290911690639dc29fac90604401613ec2565b63ffffffff8216600090815260d9602052604090206002613f5184613bd8565b6007811115613f6257613f62615cac565b14613f995760405162461bcd60e51b815260206004820152600760248201526621766f74696e6760c81b6044820152606401610cd6565b60d0548154604051630748d63560e31b81526001600160a01b038781166004830152600160401b90920463ffffffff1660248201526000929190911690633a46b1a89060440160206040518083038186803b158015613ff757600080fd5b505afa15801561400b573d6000803e3d6000fd5b505050506040513d601f19601f8201168201806040525081019061402f91906155d2565b90506000811161406b5760405162461bcd60e51b815260206004820152600760248201526610b6b2b6b132b960c91b6044820152606401610cd6565b6001600160a01b038516600090815260d76020908152604080832063ffffffff8816845290915290205460ff16156140cd5760405162461bcd60e51b81526020600482015260056024820152641d9bdd195960da1b6044820152606401610cd6565b6001600160a01b038516600090815260d76020908152604080832063ffffffff881684529091528120805460ff191660011790556141096118fe565b9050826004015481111561411f57600483018190555b8315614134576002830180548301905561413f565b600383018054830190555b8315158563ffffffff16876001600160a01b03167f786755545a7e27c12c90cc7f0934514d03fdacfe3684a340b8c4100531e7ecd58560405161418491815260200190565b60405180910390a4505050505050565b60da546000906141b790600160201b90046001600160a01b0316828460016142f9565b92915050565b603380546001600160a01b038381166001600160a01b0319831681179093556040519116919082907f8be0079c531659141344cd1fd0a4f28419497f9722a3daafe3b4186f6b6457e090600090a35050565b60d054604051632770a7eb60e21b81526001600160a01b0384811660048301526024820184905290911690639dc29fac90604401613ec2565b600054610100900460ff1661426f5760405162461bcd60e51b8152600401610cd690615a2d565b612751614809565b600054610100900460ff1661429e5760405162461bcd60e51b8152600401610cd690615a2d565b612751614840565b600054610100900460ff166142cd5760405162461bcd60e51b8152600401610cd690615a2d565b6111b18282614867565b60ce80546001600160a01b0319166001600160a01b0392909216919091179055565b6065546000906001600160a01b03161561439b576065546040805180820182526002815261060f60f31b60208201529051633af85da960e11b81526001600160a01b03909216916375f0bb52916143689189918991899189916000918291829182918291903390600401615872565b600060405180830381600087803b15801561438257600080fd5b505af1158015614396573d6000803e3d6000fd5b505050505b60675460405163468721a760e01b81526001600160a01b039091169063468721a7906143d1908890889088908890600401615833565b602060405180830381600087803b1580156143eb57600080fd5b505af11580156143ff573d6000803e3d6000fd5b505050506040513d601f19601f820116820180604052508101906144239190615415565b6065549091506001600160a01b0316156144a257606554604051631264e26d60e31b815261060f60f31b600482015282151560248201526001600160a01b0390911690639327136890604401600060405180830381600087803b15801561448957600080fd5b505af115801561449d573d6000803e3d6000fd5b505050505b949350505050565b60d0546040516340c10f1960e01b81526001600160a01b03848116600483015260248201849052909116906340c10f1990604401613ec2565b60006141b76144f06148a8565b8360405161190160f01b6020820152602281018390526042810182905260009060620160405160208183030381529060405280519060200120905092915050565b600080600061454287878787614923565b9150915061454f816149e7565b5095945050505050565b60006145636118fe565b9050821561457c5761457c614576613da9565b84613ef8565b83156145935761459361458d613da9565b8561420f565b60005b825181101561478157600073eeeeeeeeeeeeeeeeeeeeeeeeeeeeeeeeeeeeeeee6001600160a01b03168483815181106145d1576145d1615cc2565b60200260200101516001600160a01b031614156145fb57506067546001600160a01b0316316146c9565b600084838151811061460f5761460f615cc2565b602090810291909101810151606754604080516001600160a01b03928316602480830191909152825180830390910181526044909101825293840180516001600160e01b03166370a0823160e01b1790525191169161466d91615751565b600060405180830381855afa9150503d80600081146146a8576040519150601f19603f3d011682016040523d82523d6000602084013e6146ad565b606091505b50915050808060200190518101906146c591906155d2565b9150505b600083826146d78989615b5a565b6146e19190615bbc565b6146eb9190615b9a565b9050801561476c5773eeeeeeeeeeeeeeeeeeeeeeeeeeeeeeeeeeeeeeee6001600160a01b031685848151811061472357614723615cc2565b60200260200101516001600160a01b0316146147625761475d85848151811061474e5761474e615cc2565b60200260200101518983614b35565b61476c565b61476c8882614c04565b5050808061477990615c57565b915050614596565b50838361478c613da9565b6001600160a01b03167fa21c268847f2b8adac3751ed0683330abe9fdd6cc4a7a8fc6787633d4126e0d488866040516147c69291906157d7565b60405180910390a45050505050565b6000601436108015906147f2575060ce546001600160a01b031633145b15614804575060131936013560601c90565b503390565b600054610100900460ff166148305760405162461bcd60e51b8152600401610cd690615a2d565b61275161483b613da9565b6141bd565b600054610100900460ff16613e865760405162461bcd60e51b8152600401610cd690615a2d565b600054610100900460ff1661488e5760405162461bcd60e51b8152600401610cd690615a2d565b815160209283012081519190920120606891909155606955565b600061191a7f8b73c3c69bb8fe3d512ecc4cf759cc79239f7b179b0ffacaa9a75d522b39400f6148d760685490565b6069546040805160208101859052908101839052606081018290524660808201523060a082015260009060c0016040516020818303038152906040528051906020012090509392505050565b6000807f7fffffffffffffffffffffffffffffff5d576e7357a4501ddfe92f46681b20a083111561495a57506000905060036149de565b6040805160008082526020820180845289905260ff881692820192909252606081018690526080810185905260019060a0016020604051602081039080840390855afa1580156149ae573d6000803e3d6000fd5b5050604051601f1901519150506001600160a01b0381166149d7576000600192509250506149de565b9150600090505b94509492505050565b60008160048111156149fb576149fb615cac565b1415614a045750565b6001816004811115614a1857614a18615cac565b1415614a665760405162461bcd60e51b815260206004820152601860248201527f45434453413a20696e76616c6964207369676e617475726500000000000000006044820152606401610cd6565b6002816004811115614a7a57614a7a615cac565b1415614ac85760405162461bcd60e51b815260206004820152601f60248201527f45434453413a20696e76616c6964207369676e6174757265206c656e677468006044820152606401610cd6565b6003816004811115614adc57614adc615cac565b14156115425760405162461bcd60e51b815260206004820152602260248201527f45434453413a20696e76616c6964207369676e6174757265202773272076616c604482015261756560f01b6064820152608401610cd6565b600080614b9d85600063a9059cbb8787604051602401614b6a9291906001600160a01b03929092168252602082015260400190565b6040516020818303038152906040529060e01b6020820180516001600160e01b0383818316178352505050506000614c68565b91509150818015614bc6575080511580614bc6575080806020019051810190614bc69190615415565b6117ec5760405162461bcd60e51b815260206004820152600f60248201526e1d1c985b9cd9995c8819985a5b1959608a1b6044820152606401610cd6565b6000614c228383604051806020016040528060008152506000614c68565b5090508061273a5760405162461bcd60e51b815260206004820152601360248201527211551217d514905394d1915497d19052531151606a1b6044820152606401610cd6565b6065546000906060906001600160a01b031615614d0d576065546040805180820182526002815261060f60f31b60208201529051633af85da960e11b81526001600160a01b03909216916375f0bb5291614cda918a918a918a918a916000918291829182918291903390600401615872565b600060405180830381600087803b158015614cf457600080fd5b505af1158015614d08573d6000803e3d6000fd5b505050505b606754604051635229073f60e01b81526001600160a01b0390911690635229073f90614d43908990899089908990600401615833565b600060405180830381600087803b158015614d5d57600080fd5b505af1158015614d71573d6000803e3d6000fd5b505050506040513d6000823e601f3d908101601f19168201604052614d999190810190615460565b60655491935091506001600160a01b0316156149de57606554604051631264e26d60e31b815261060f60f31b600482015283151560248201526001600160a01b0390911690639327136890604401600060405180830381600087803b158015614e0157600080fd5b505af1158015614e15573d6000803e3d6000fd5b5050505094509492505050565b600183019183908215614ea45791602002820160005b83821115614e7557835183826101000a81548160ff0219169083151502179055509260200192600101602081600001049283019260010302614e38565b8015614ea25782816101000a81549060ff0219169055600101602081600001049283019260010302614e75565b505b50614eb0929150614f46565b5090565b60405180608001604052806004906020820280368337509192915050565b828054614ede90615c22565b90600052602060002090601f016020900481019282614f005760008555614ea4565b82601f10614f1957805160ff1916838001178555614ea4565b82800160010185558215614ea4579182015b82811115614ea4578251825591602001919060010190614f2b565b5b80821115614eb05760008155600101614f47565b6000614f6e614f6984615b33565b615b03565b9050828152838383011115614f8257600080fd5b61195d836020830184615bf2565b8035614f9b81615cee565b919050565b60008083601f840112614fb257600080fd5b5081356001600160401b03811115614fc957600080fd5b6020830191508360208260051b8501011115614fe457600080fd5b9250929050565b60008083601f840112614ffd57600080fd5b5081356001600160401b0381111561501457600080fd5b602083019150836020828501011115614fe457600080fd5b600082601f83011261503d57600080fd5b813561504b614f6982615b33565b81815284602083860101111561506057600080fd5b816020850160208301376000918101602001919091529392505050565b600082601f83011261508e57600080fd5b61195d83835160208501614f5b565b6000602082840312156150af57600080fd5b813561195d81615cee565b60008060008060008060c087890312156150d357600080fd5b86516150de81615cee565b60208801519096506150ef81615cee565b604088015190955061510081615cee565b606088015190945061511181615cee565b608088015190935061512281615cee565b60a08801519092506001600160401b0381111561513e57600080fd5b61514a89828a0161507d565b9150509295509295509295565b6000806000806060858703121561516d57600080fd5b843561517881615cee565b93506020850135925060408501356001600160401b0381111561519a57600080fd5b6151a687828801614feb565b95989497509550505050565b6000806000806000608086880312156151ca57600080fd5b85356151d581615cee565b9450602086013593506040860135925060608601356001600160401b038111156151fe57600080fd5b61520a88828901614fa0565b969995985093965092949392505050565b600080600080600080600080610100898b03121561523857600080fd5b883561524381615cee565b97506020890135965060408901359550606089013561526181615d11565b9450608089013561527181615d03565b935060a089013560ff8116811461528757600080fd5b979a969950949793969295929450505060c08201359160e0013590565b600080604083850312156152b757600080fd5b82356152c281615cee565b915060208301356152d281615d11565b809150509250929050565b600080600080604085870312156152f357600080fd5b84356001600160401b038082111561530a57600080fd5b61531688838901614fa0565b9096509450602087013591508082111561532f57600080fd5b506151a687828801614fa0565b6000806040838503121561534f57600080fd5b82356001600160401b038082111561536657600080fd5b818501915085601f83011261537a57600080fd5b813560208282111561538e5761538e615cd8565b8160051b61539d828201615b03565b8381528281019086840183880185018c10156153b857600080fd5b60009350835b868110156153f5578135888111156153d4578586fd5b6153e28e88838d010161502c565b85525092850192908501906001016153be565b5050809850505050615408818801614f90565b9450505050509250929050565b60006020828403121561542757600080fd5b815161195d81615d03565b6000806040838503121561544557600080fd5b823561545081615d03565b915060208301356152d281615d03565b6000806040838503121561547357600080fd5b825161547e81615d03565b60208401519092506001600160401b0381111561549a57600080fd5b6154a68582860161507d565b9150509250929050565b600080600080600080608087890312156154c957600080fd5b86356001600160401b03808211156154e057600080fd5b6154ec8a838b01614feb565b90985096506020890135915061550182615d11565b909450604088013593506060880135908082111561551e57600080fd5b5061552b89828a01614feb565b979a9699509497509295939492505050565b60006020828403121561554f57600080fd5b81356001600160401b0381111561556557600080fd5b6144a28482850161502c565b60006020828403121561558357600080fd5b81516001600160401b0381111561559957600080fd5b8201601f810184136155aa57600080fd5b6144a284825160208401614f5b565b6000602082840312156155cb57600080fd5b5035919050565b6000602082840312156155e457600080fd5b5051919050565b6000602082840312156155fd57600080fd5b813561195d81615d11565b6000806040838503121561561b57600080fd5b823561545081615d11565b60008060006040848603121561563b57600080fd5b833561564681615d11565b925060208401356001600160401b0381111561566157600080fd5b61566d86828701614feb565b9497909650939450505050565b60008060008060008060c0878903121561569357600080fd5b865161569e81615d11565b60208801519096506156af81615d11565b6040880151606089015160808a015160a0909a0151989b929a5090989097909650945092505050565b81835281816020850137506000828201602090810191909152601f909101601f19169091010190565b60008151808452615719816020860160208601615bf2565b601f01601f19169290920160200192915050565b6002811061573d5761573d615cac565b9052565b8183823760009101908152919050565b60008251615763818460208701615bf2565b9190910192915050565b6000875161577f818460208c01615bf2565b808301905060ff60f81b8860f81b1681526bffffffffffffffffffffffff198760601b16600182015285601582015284603582015283516157c7816055840160208801615bf2565b0160550198975050505050505050565b6001600160a01b038381168252604060208084018290528451918401829052600092858201929091906060860190855b81811015615825578551851683529483019491830191600101615807565b509098975050505050505050565b60018060a01b038516815283602082015260806040820152600061585a6080830185615701565b9050615869606083018461572d565b95945050505050565b6001600160a01b038c81168252602082018c90526101606040830181905260009161589f8483018e615701565b91506158ae606085018d61572d565b8a60808501528960a08501528860c085015280881660e08501528087166101008501528382036101208501526158e48287615701565b925080851661014085015250509c9b505050505050505050505050565b60808101818360005b600481101561592b578151151583526020928301929091019060010161590a565b50505092915050565b60006101808e151583528d1515602084015263ffffffff808e166040850152808d166060850152508a60808401528960a08401528860c08401528760e08401528061010084015261598781840188615701565b905082810361012084015261599c8187615701565b610140840195909552505061016001529a9950505050505050505050565b60208152600061195d6020830184615701565b60208101600883106159e1576159e1615cac565b91905290565b602080825260059082015264085898585b60da1b604082015260600190565b6020808252600d908201526c2161727261792070617269747960981b604082015260600190565b6020808252602b908201527f496e697469616c697a61626c653a20636f6e7472616374206973206e6f74206960408201526a6e697469616c697a696e6760a81b606082015260800190565b60208082526010908201526f10b130b0b610131010b6b0b730b3b2b960811b604082015260600190565b600063ffffffff808c16835260e06020840152615ac360e084018b8d6156d8565b818a16604085015288606085015287151560808501528660a085015283810360c0850152615af28186886156d8565b9d9c50505050505050505050505050565b604051601f8201601f191681016001600160401b0381118282101715615b2b57615b2b615cd8565b604052919050565b60006001600160401b03821115615b4c57615b4c615cd8565b50601f01601f191660200190565b60008219821115615b6d57615b6d615c96565b500190565b600063ffffffff808316818516808303821115615b9157615b91615c96565b01949350505050565b600082615bb757634e487b7160e01b600052601260045260246000fd5b500490565b6000816000190483118215151615615bd657615bd6615c96565b500290565b600082821015615bed57615bed615c96565b500390565b60005b83811015615c0d578181015183820152602001615bf5565b83811115615c1c576000848401525b50505050565b600181811c90821680615c3657607f821691505b60208210811415613da357634e487b7160e01b600052602260045260246000fd5b6000600019821415615c6b57615c6b615c96565b5060010190565b600063ffffffff80831681811415615c8c57615c8c615c96565b6001019392505050565b634e487b7160e01b600052601160045260246000fd5b634e487b7160e01b600052602160045260246000fd5b634e487b7160e01b600052603260045260246000fd5b634e487b7160e01b600052604160045260246000fd5b6001600160a01b038116811461154257600080fd5b801515811461154257600080fd5b63ffffffff8116811461154257600080fdfe322e322e352b6f70656e67736e2e70617961626c65776974686261616c2e6972656c6179726563697069656e74a2646970667358221220178cefb04e476abe5af61c5f7db34d2c912defb38857ba62ff0b25f75ad3c9ac64736f6c63430008070033",
              "history": [],
              "storageLayout": {
                "storage": [
                  {
                    "astId": 4465,
                    "contract": "contracts/Baal.sol:Baal",
                    "label": "_initialized",
                    "offset": 0,
                    "slot": "0",
                    "type": "t_uint8"
                  },
                  {
                    "astId": 4468,
                    "contract": "contracts/Baal.sol:Baal",
                    "label": "_initializing",
                    "offset": 1,
                    "slot": "0",
                    "type": "t_bool"
                  },
                  {
                    "astId": 6734,
                    "contract": "contracts/Baal.sol:Baal",
                    "label": "__gap",
                    "offset": 0,
                    "slot": "1",
                    "type": "t_array(t_uint256)50_storage"
                  },
                  {
                    "astId": 3948,
                    "contract": "contracts/Baal.sol:Baal",
                    "label": "_owner",
                    "offset": 0,
                    "slot": "51",
                    "type": "t_address"
                  },
                  {
                    "astId": 4068,
                    "contract": "contracts/Baal.sol:Baal",
                    "label": "__gap",
                    "offset": 0,
                    "slot": "52",
                    "type": "t_array(t_uint256)49_storage"
                  },
                  {
                    "astId": 3625,
                    "contract": "contracts/Baal.sol:Baal",
                    "label": "guard",
                    "offset": 0,
                    "slot": "101",
                    "type": "t_address"
                  },
                  {
                    "astId": 3191,
                    "contract": "contracts/Baal.sol:Baal",
                    "label": "avatar",
                    "offset": 0,
                    "slot": "102",
                    "type": "t_address"
                  },
                  {
                    "astId": 3194,
                    "contract": "contracts/Baal.sol:Baal",
                    "label": "target",
                    "offset": 0,
                    "slot": "103",
                    "type": "t_address"
                  },
                  {
                    "astId": 7414,
                    "contract": "contracts/Baal.sol:Baal",
                    "label": "_HASHED_NAME",
                    "offset": 0,
                    "slot": "104",
                    "type": "t_bytes32"
                  },
                  {
                    "astId": 7416,
                    "contract": "contracts/Baal.sol:Baal",
                    "label": "_HASHED_VERSION",
                    "offset": 0,
                    "slot": "105",
                    "type": "t_bytes32"
                  },
                  {
                    "astId": 7554,
                    "contract": "contracts/Baal.sol:Baal",
                    "label": "__gap",
                    "offset": 0,
                    "slot": "106",
                    "type": "t_array(t_uint256)50_storage"
                  },
                  {
                    "astId": 4904,
                    "contract": "contracts/Baal.sol:Baal",
                    "label": "_status",
                    "offset": 0,
                    "slot": "156",
                    "type": "t_uint256"
                  },
                  {
                    "astId": 4962,
                    "contract": "contracts/Baal.sol:Baal",
                    "label": "__gap",
                    "offset": 0,
                    "slot": "157",
                    "type": "t_array(t_uint256)49_storage"
                  },
                  {
                    "astId": 3815,
                    "contract": "contracts/Baal.sol:Baal",
                    "label": "_trustedForwarder",
                    "offset": 0,
                    "slot": "206",
                    "type": "t_address"
                  },
                  {
                    "astId": 10069,
                    "contract": "contracts/Baal.sol:Baal",
                    "label": "lootToken",
                    "offset": 0,
                    "slot": "207",
                    "type": "t_contract(IBaalToken)14295"
                  },
                  {
                    "astId": 10072,
                    "contract": "contracts/Baal.sol:Baal",
                    "label": "sharesToken",
                    "offset": 0,
                    "slot": "208",
                    "type": "t_contract(IBaalToken)14295"
                  },
                  {
                    "astId": 10077,
                    "contract": "contracts/Baal.sol:Baal",
                    "label": "votingPeriod",
                    "offset": 20,
                    "slot": "208",
                    "type": "t_uint32"
                  },
                  {
                    "astId": 10079,
                    "contract": "contracts/Baal.sol:Baal",
                    "label": "gracePeriod",
                    "offset": 24,
                    "slot": "208",
                    "type": "t_uint32"
                  },
                  {
                    "astId": 10081,
                    "contract": "contracts/Baal.sol:Baal",
                    "label": "proposalCount",
                    "offset": 28,
                    "slot": "208",
                    "type": "t_uint32"
                  },
                  {
                    "astId": 10083,
                    "contract": "contracts/Baal.sol:Baal",
                    "label": "proposalOffering",
                    "offset": 0,
                    "slot": "209",
                    "type": "t_uint256"
                  },
                  {
                    "astId": 10085,
                    "contract": "contracts/Baal.sol:Baal",
                    "label": "quorumPercent",
                    "offset": 0,
                    "slot": "210",
                    "type": "t_uint256"
                  },
                  {
                    "astId": 10087,
                    "contract": "contracts/Baal.sol:Baal",
                    "label": "sponsorThreshold",
                    "offset": 0,
                    "slot": "211",
                    "type": "t_uint256"
                  },
                  {
                    "astId": 10089,
                    "contract": "contracts/Baal.sol:Baal",
                    "label": "minRetentionPercent",
                    "offset": 0,
                    "slot": "212",
                    "type": "t_uint256"
                  },
                  {
                    "astId": 10091,
                    "contract": "contracts/Baal.sol:Baal",
                    "label": "adminLock",
                    "offset": 0,
                    "slot": "213",
                    "type": "t_bool"
                  },
                  {
                    "astId": 10093,
                    "contract": "contracts/Baal.sol:Baal",
                    "label": "managerLock",
                    "offset": 1,
                    "slot": "213",
                    "type": "t_bool"
                  },
                  {
                    "astId": 10095,
                    "contract": "contracts/Baal.sol:Baal",
                    "label": "governorLock",
                    "offset": 2,
                    "slot": "213",
                    "type": "t_bool"
                  },
                  {
                    "astId": 10099,
                    "contract": "contracts/Baal.sol:Baal",
                    "label": "shamans",
                    "offset": 0,
                    "slot": "214",
                    "type": "t_mapping(t_address,t_uint256)"
                  },
                  {
                    "astId": 10105,
                    "contract": "contracts/Baal.sol:Baal",
                    "label": "memberVoted",
                    "offset": 0,
                    "slot": "215",
                    "type": "t_mapping(t_address,t_mapping(t_uint32,t_bool))"
                  },
                  {
                    "astId": 10109,
                    "contract": "contracts/Baal.sol:Baal",
                    "label": "votingNonces",
                    "offset": 0,
                    "slot": "216",
                    "type": "t_mapping(t_address,t_uint256)"
                  },
                  {
                    "astId": 10114,
                    "contract": "contracts/Baal.sol:Baal",
                    "label": "proposals",
                    "offset": 0,
                    "slot": "217",
                    "type": "t_mapping(t_uint256,t_struct(Proposal)10155_storage)"
                  },
                  {
                    "astId": 10116,
                    "contract": "contracts/Baal.sol:Baal",
                    "label": "latestSponsoredProposalId",
                    "offset": 0,
                    "slot": "218",
                    "type": "t_uint32"
                  },
                  {
                    "astId": 10118,
                    "contract": "contracts/Baal.sol:Baal",
                    "label": "multisendLibrary",
                    "offset": 4,
                    "slot": "218",
                    "type": "t_address"
                  },
                  {
                    "astId": 10121,
                    "contract": "contracts/Baal.sol:Baal",
                    "label": "versionRecipient",
                    "offset": 0,
                    "slot": "219",
                    "type": "t_string_storage"
                  }
                ],
                "types": {
                  "t_address": {
                    "encoding": "inplace",
                    "label": "address",
                    "numberOfBytes": "20"
                  },
                  "t_array(t_bool)4_storage": {
                    "base": "t_bool",
                    "encoding": "inplace",
                    "label": "bool[4]",
                    "numberOfBytes": "32"
                  },
                  "t_array(t_uint256)49_storage": {
                    "base": "t_uint256",
                    "encoding": "inplace",
                    "label": "uint256[49]",
                    "numberOfBytes": "1568"
                  },
                  "t_array(t_uint256)50_storage": {
                    "base": "t_uint256",
                    "encoding": "inplace",
                    "label": "uint256[50]",
                    "numberOfBytes": "1600"
                  },
                  "t_bool": {
                    "encoding": "inplace",
                    "label": "bool",
                    "numberOfBytes": "1"
                  },
                  "t_bytes32": {
                    "encoding": "inplace",
                    "label": "bytes32",
                    "numberOfBytes": "32"
                  },
                  "t_contract(IBaalToken)14295": {
                    "encoding": "inplace",
                    "label": "contract IBaalToken",
                    "numberOfBytes": "20"
                  },
                  "t_mapping(t_address,t_mapping(t_uint32,t_bool))": {
                    "encoding": "mapping",
                    "key": "t_address",
                    "label": "mapping(address => mapping(uint32 => bool))",
                    "numberOfBytes": "32",
                    "value": "t_mapping(t_uint32,t_bool)"
                  },
                  "t_mapping(t_address,t_uint256)": {
                    "encoding": "mapping",
                    "key": "t_address",
                    "label": "mapping(address => uint256)",
                    "numberOfBytes": "32",
                    "value": "t_uint256"
                  },
                  "t_mapping(t_uint256,t_struct(Proposal)10155_storage)": {
                    "encoding": "mapping",
                    "key": "t_uint256",
                    "label": "mapping(uint256 => struct Baal.Proposal)",
                    "numberOfBytes": "32",
                    "value": "t_struct(Proposal)10155_storage"
                  },
                  "t_mapping(t_uint32,t_bool)": {
                    "encoding": "mapping",
                    "key": "t_uint32",
                    "label": "mapping(uint32 => bool)",
                    "numberOfBytes": "32",
                    "value": "t_bool"
                  },
                  "t_string_storage": {
                    "encoding": "bytes",
                    "label": "string",
                    "numberOfBytes": "32"
                  },
                  "t_struct(Proposal)10155_storage": {
                    "encoding": "inplace",
                    "label": "struct Baal.Proposal",
                    "members": [
                      {
                        "astId": 10128,
                        "contract": "contracts/Baal.sol:Baal",
                        "label": "id",
                        "offset": 0,
                        "slot": "0",
                        "type": "t_uint32"
                      },
                      {
                        "astId": 10130,
                        "contract": "contracts/Baal.sol:Baal",
                        "label": "prevProposalId",
                        "offset": 4,
                        "slot": "0",
                        "type": "t_uint32"
                      },
                      {
                        "astId": 10132,
                        "contract": "contracts/Baal.sol:Baal",
                        "label": "votingStarts",
                        "offset": 8,
                        "slot": "0",
                        "type": "t_uint32"
                      },
                      {
                        "astId": 10134,
                        "contract": "contracts/Baal.sol:Baal",
                        "label": "votingEnds",
                        "offset": 12,
                        "slot": "0",
                        "type": "t_uint32"
                      },
                      {
                        "astId": 10136,
                        "contract": "contracts/Baal.sol:Baal",
                        "label": "graceEnds",
                        "offset": 16,
                        "slot": "0",
                        "type": "t_uint32"
                      },
                      {
                        "astId": 10138,
                        "contract": "contracts/Baal.sol:Baal",
                        "label": "expiration",
                        "offset": 20,
                        "slot": "0",
                        "type": "t_uint32"
                      },
                      {
                        "astId": 10140,
                        "contract": "contracts/Baal.sol:Baal",
                        "label": "baalGas",
                        "offset": 0,
                        "slot": "1",
                        "type": "t_uint256"
                      },
                      {
                        "astId": 10142,
                        "contract": "contracts/Baal.sol:Baal",
                        "label": "yesVotes",
                        "offset": 0,
                        "slot": "2",
                        "type": "t_uint256"
                      },
                      {
                        "astId": 10144,
                        "contract": "contracts/Baal.sol:Baal",
                        "label": "noVotes",
                        "offset": 0,
                        "slot": "3",
                        "type": "t_uint256"
                      },
                      {
                        "astId": 10146,
                        "contract": "contracts/Baal.sol:Baal",
                        "label": "maxTotalSharesAndLootAtVote",
                        "offset": 0,
                        "slot": "4",
                        "type": "t_uint256"
                      },
                      {
                        "astId": 10150,
                        "contract": "contracts/Baal.sol:Baal",
                        "label": "status",
                        "offset": 0,
                        "slot": "5",
                        "type": "t_array(t_bool)4_storage"
                      },
                      {
                        "astId": 10152,
                        "contract": "contracts/Baal.sol:Baal",
                        "label": "sponsor",
                        "offset": 0,
                        "slot": "6",
                        "type": "t_address"
                      },
                      {
                        "astId": 10154,
                        "contract": "contracts/Baal.sol:Baal",
                        "label": "proposalDataHash",
                        "offset": 0,
                        "slot": "7",
                        "type": "t_bytes32"
                      }
                    ],
                    "numberOfBytes": "256"
                  },
                  "t_uint256": {
                    "encoding": "inplace",
                    "label": "uint256",
                    "numberOfBytes": "32"
                  },
                  "t_uint32": {
                    "encoding": "inplace",
                    "label": "uint32",
                    "numberOfBytes": "4"
                  },
                  "t_uint8": {
                    "encoding": "inplace",
                    "label": "uint8",
                    "numberOfBytes": "1"
                  }
                }
              }
            }
          ],
          "storageLayout": {
            "storage": [
              {
                "astId": 4465,
                "contract": "contracts/Baal.sol:Baal",
                "label": "_initialized",
                "offset": 0,
                "slot": "0",
                "type": "t_uint8"
              },
              {
                "astId": 4468,
                "contract": "contracts/Baal.sol:Baal",
                "label": "_initializing",
                "offset": 1,
                "slot": "0",
                "type": "t_bool"
              },
              {
                "astId": 6734,
                "contract": "contracts/Baal.sol:Baal",
                "label": "__gap",
                "offset": 0,
                "slot": "1",
                "type": "t_array(t_uint256)50_storage"
              },
              {
                "astId": 3948,
                "contract": "contracts/Baal.sol:Baal",
                "label": "_owner",
                "offset": 0,
                "slot": "51",
                "type": "t_address"
              },
              {
                "astId": 4068,
                "contract": "contracts/Baal.sol:Baal",
                "label": "__gap",
                "offset": 0,
                "slot": "52",
                "type": "t_array(t_uint256)49_storage"
              },
              {
                "astId": 3625,
                "contract": "contracts/Baal.sol:Baal",
                "label": "guard",
                "offset": 0,
                "slot": "101",
                "type": "t_address"
              },
              {
                "astId": 3191,
                "contract": "contracts/Baal.sol:Baal",
                "label": "avatar",
                "offset": 0,
                "slot": "102",
                "type": "t_address"
              },
              {
                "astId": 3194,
                "contract": "contracts/Baal.sol:Baal",
                "label": "target",
                "offset": 0,
                "slot": "103",
                "type": "t_address"
              },
              {
                "astId": 7414,
                "contract": "contracts/Baal.sol:Baal",
                "label": "_HASHED_NAME",
                "offset": 0,
                "slot": "104",
                "type": "t_bytes32"
              },
              {
                "astId": 7416,
                "contract": "contracts/Baal.sol:Baal",
                "label": "_HASHED_VERSION",
                "offset": 0,
                "slot": "105",
                "type": "t_bytes32"
              },
              {
                "astId": 7554,
                "contract": "contracts/Baal.sol:Baal",
                "label": "__gap",
                "offset": 0,
                "slot": "106",
                "type": "t_array(t_uint256)50_storage"
              },
              {
                "astId": 4904,
                "contract": "contracts/Baal.sol:Baal",
                "label": "_status",
                "offset": 0,
                "slot": "156",
                "type": "t_uint256"
              },
              {
                "astId": 4962,
                "contract": "contracts/Baal.sol:Baal",
                "label": "__gap",
                "offset": 0,
                "slot": "157",
                "type": "t_array(t_uint256)49_storage"
              },
              {
                "astId": 3815,
                "contract": "contracts/Baal.sol:Baal",
                "label": "_trustedForwarder",
                "offset": 0,
                "slot": "206",
                "type": "t_address"
              },
              {
                "astId": 10069,
                "contract": "contracts/Baal.sol:Baal",
                "label": "lootToken",
                "offset": 0,
                "slot": "207",
                "type": "t_contract(IBaalToken)14295"
              },
              {
                "astId": 10072,
                "contract": "contracts/Baal.sol:Baal",
                "label": "sharesToken",
                "offset": 0,
                "slot": "208",
                "type": "t_contract(IBaalToken)14295"
              },
              {
                "astId": 10077,
                "contract": "contracts/Baal.sol:Baal",
                "label": "votingPeriod",
                "offset": 20,
                "slot": "208",
                "type": "t_uint32"
              },
              {
                "astId": 10079,
                "contract": "contracts/Baal.sol:Baal",
                "label": "gracePeriod",
                "offset": 24,
                "slot": "208",
                "type": "t_uint32"
              },
              {
                "astId": 10081,
                "contract": "contracts/Baal.sol:Baal",
                "label": "proposalCount",
                "offset": 28,
                "slot": "208",
                "type": "t_uint32"
              },
              {
                "astId": 10083,
                "contract": "contracts/Baal.sol:Baal",
                "label": "proposalOffering",
                "offset": 0,
                "slot": "209",
                "type": "t_uint256"
              },
              {
                "astId": 10085,
                "contract": "contracts/Baal.sol:Baal",
                "label": "quorumPercent",
                "offset": 0,
                "slot": "210",
                "type": "t_uint256"
              },
              {
                "astId": 10087,
                "contract": "contracts/Baal.sol:Baal",
                "label": "sponsorThreshold",
                "offset": 0,
                "slot": "211",
                "type": "t_uint256"
              },
              {
                "astId": 10089,
                "contract": "contracts/Baal.sol:Baal",
                "label": "minRetentionPercent",
                "offset": 0,
                "slot": "212",
                "type": "t_uint256"
              },
              {
                "astId": 10091,
                "contract": "contracts/Baal.sol:Baal",
                "label": "adminLock",
                "offset": 0,
                "slot": "213",
                "type": "t_bool"
              },
              {
                "astId": 10093,
                "contract": "contracts/Baal.sol:Baal",
                "label": "managerLock",
                "offset": 1,
                "slot": "213",
                "type": "t_bool"
              },
              {
                "astId": 10095,
                "contract": "contracts/Baal.sol:Baal",
                "label": "governorLock",
                "offset": 2,
                "slot": "213",
                "type": "t_bool"
              },
              {
                "astId": 10099,
                "contract": "contracts/Baal.sol:Baal",
                "label": "shamans",
                "offset": 0,
                "slot": "214",
                "type": "t_mapping(t_address,t_uint256)"
              },
              {
                "astId": 10105,
                "contract": "contracts/Baal.sol:Baal",
                "label": "memberVoted",
                "offset": 0,
                "slot": "215",
                "type": "t_mapping(t_address,t_mapping(t_uint32,t_bool))"
              },
              {
                "astId": 10109,
                "contract": "contracts/Baal.sol:Baal",
                "label": "votingNonces",
                "offset": 0,
                "slot": "216",
                "type": "t_mapping(t_address,t_uint256)"
              },
              {
                "astId": 10114,
                "contract": "contracts/Baal.sol:Baal",
                "label": "proposals",
                "offset": 0,
                "slot": "217",
                "type": "t_mapping(t_uint256,t_struct(Proposal)10155_storage)"
              },
              {
                "astId": 10116,
                "contract": "contracts/Baal.sol:Baal",
                "label": "latestSponsoredProposalId",
                "offset": 0,
                "slot": "218",
                "type": "t_uint32"
              },
              {
                "astId": 10118,
                "contract": "contracts/Baal.sol:Baal",
                "label": "multisendLibrary",
                "offset": 4,
                "slot": "218",
                "type": "t_address"
              },
              {
                "astId": 10121,
                "contract": "contracts/Baal.sol:Baal",
                "label": "versionRecipient",
                "offset": 0,
                "slot": "219",
                "type": "t_string_storage"
              }
            ],
            "types": {
              "t_address": {
                "encoding": "inplace",
                "label": "address",
                "numberOfBytes": "20"
              },
              "t_array(t_bool)4_storage": {
                "base": "t_bool",
                "encoding": "inplace",
                "label": "bool[4]",
                "numberOfBytes": "32"
              },
              "t_array(t_uint256)49_storage": {
                "base": "t_uint256",
                "encoding": "inplace",
                "label": "uint256[49]",
                "numberOfBytes": "1568"
              },
              "t_array(t_uint256)50_storage": {
                "base": "t_uint256",
                "encoding": "inplace",
                "label": "uint256[50]",
                "numberOfBytes": "1600"
              },
              "t_bool": {
                "encoding": "inplace",
                "label": "bool",
                "numberOfBytes": "1"
              },
              "t_bytes32": {
                "encoding": "inplace",
                "label": "bytes32",
                "numberOfBytes": "32"
              },
              "t_contract(IBaalToken)14295": {
                "encoding": "inplace",
                "label": "contract IBaalToken",
                "numberOfBytes": "20"
              },
              "t_mapping(t_address,t_mapping(t_uint32,t_bool))": {
                "encoding": "mapping",
                "key": "t_address",
                "label": "mapping(address => mapping(uint32 => bool))",
                "numberOfBytes": "32",
                "value": "t_mapping(t_uint32,t_bool)"
              },
              "t_mapping(t_address,t_uint256)": {
                "encoding": "mapping",
                "key": "t_address",
                "label": "mapping(address => uint256)",
                "numberOfBytes": "32",
                "value": "t_uint256"
              },
              "t_mapping(t_uint256,t_struct(Proposal)10155_storage)": {
                "encoding": "mapping",
                "key": "t_uint256",
                "label": "mapping(uint256 => struct Baal.Proposal)",
                "numberOfBytes": "32",
                "value": "t_struct(Proposal)10155_storage"
              },
              "t_mapping(t_uint32,t_bool)": {
                "encoding": "mapping",
                "key": "t_uint32",
                "label": "mapping(uint32 => bool)",
                "numberOfBytes": "32",
                "value": "t_bool"
              },
              "t_string_storage": {
                "encoding": "bytes",
                "label": "string",
                "numberOfBytes": "32"
              },
              "t_struct(Proposal)10155_storage": {
                "encoding": "inplace",
                "label": "struct Baal.Proposal",
                "members": [
                  {
                    "astId": 10128,
                    "contract": "contracts/Baal.sol:Baal",
                    "label": "id",
                    "offset": 0,
                    "slot": "0",
                    "type": "t_uint32"
                  },
                  {
                    "astId": 10130,
                    "contract": "contracts/Baal.sol:Baal",
                    "label": "prevProposalId",
                    "offset": 4,
                    "slot": "0",
                    "type": "t_uint32"
                  },
                  {
                    "astId": 10132,
                    "contract": "contracts/Baal.sol:Baal",
                    "label": "votingStarts",
                    "offset": 8,
                    "slot": "0",
                    "type": "t_uint32"
                  },
                  {
                    "astId": 10134,
                    "contract": "contracts/Baal.sol:Baal",
                    "label": "votingEnds",
                    "offset": 12,
                    "slot": "0",
                    "type": "t_uint32"
                  },
                  {
                    "astId": 10136,
                    "contract": "contracts/Baal.sol:Baal",
                    "label": "graceEnds",
                    "offset": 16,
                    "slot": "0",
                    "type": "t_uint32"
                  },
                  {
                    "astId": 10138,
                    "contract": "contracts/Baal.sol:Baal",
                    "label": "expiration",
                    "offset": 20,
                    "slot": "0",
                    "type": "t_uint32"
                  },
                  {
                    "astId": 10140,
                    "contract": "contracts/Baal.sol:Baal",
                    "label": "baalGas",
                    "offset": 0,
                    "slot": "1",
                    "type": "t_uint256"
                  },
                  {
                    "astId": 10142,
                    "contract": "contracts/Baal.sol:Baal",
                    "label": "yesVotes",
                    "offset": 0,
                    "slot": "2",
                    "type": "t_uint256"
                  },
                  {
                    "astId": 10144,
                    "contract": "contracts/Baal.sol:Baal",
                    "label": "noVotes",
                    "offset": 0,
                    "slot": "3",
                    "type": "t_uint256"
                  },
                  {
                    "astId": 10146,
                    "contract": "contracts/Baal.sol:Baal",
                    "label": "maxTotalSharesAndLootAtVote",
                    "offset": 0,
                    "slot": "4",
                    "type": "t_uint256"
                  },
                  {
                    "astId": 10150,
                    "contract": "contracts/Baal.sol:Baal",
                    "label": "status",
                    "offset": 0,
                    "slot": "5",
                    "type": "t_array(t_bool)4_storage"
                  },
                  {
                    "astId": 10152,
                    "contract": "contracts/Baal.sol:Baal",
                    "label": "sponsor",
                    "offset": 0,
                    "slot": "6",
                    "type": "t_address"
                  },
                  {
                    "astId": 10154,
                    "contract": "contracts/Baal.sol:Baal",
                    "label": "proposalDataHash",
                    "offset": 0,
                    "slot": "7",
                    "type": "t_bytes32"
                  }
                ],
                "numberOfBytes": "256"
              },
              "t_uint256": {
                "encoding": "inplace",
                "label": "uint256",
                "numberOfBytes": "32"
              },
              "t_uint32": {
                "encoding": "inplace",
                "label": "uint32",
                "numberOfBytes": "4"
              },
              "t_uint8": {
                "encoding": "inplace",
                "label": "uint8",
                "numberOfBytes": "1"
              }
            }
          }
        }
      ],
      "storageLayout": {
        "storage": [
          {
            "astId": 4465,
            "contract": "contracts/Baal.sol:Baal",
            "label": "_initialized",
            "offset": 0,
            "slot": "0",
            "type": "t_uint8"
          },
          {
            "astId": 4468,
            "contract": "contracts/Baal.sol:Baal",
            "label": "_initializing",
            "offset": 1,
            "slot": "0",
            "type": "t_bool"
          },
          {
            "astId": 6734,
            "contract": "contracts/Baal.sol:Baal",
            "label": "__gap",
            "offset": 0,
            "slot": "1",
            "type": "t_array(t_uint256)50_storage"
          },
          {
            "astId": 3948,
            "contract": "contracts/Baal.sol:Baal",
            "label": "_owner",
            "offset": 0,
            "slot": "51",
            "type": "t_address"
          },
          {
            "astId": 4068,
            "contract": "contracts/Baal.sol:Baal",
            "label": "__gap",
            "offset": 0,
            "slot": "52",
            "type": "t_array(t_uint256)49_storage"
          },
          {
            "astId": 3625,
            "contract": "contracts/Baal.sol:Baal",
            "label": "guard",
            "offset": 0,
            "slot": "101",
            "type": "t_address"
          },
          {
            "astId": 3191,
            "contract": "contracts/Baal.sol:Baal",
            "label": "avatar",
            "offset": 0,
            "slot": "102",
            "type": "t_address"
          },
          {
            "astId": 3194,
            "contract": "contracts/Baal.sol:Baal",
            "label": "target",
            "offset": 0,
            "slot": "103",
            "type": "t_address"
          },
          {
            "astId": 7414,
            "contract": "contracts/Baal.sol:Baal",
            "label": "_HASHED_NAME",
            "offset": 0,
            "slot": "104",
            "type": "t_bytes32"
          },
          {
            "astId": 7416,
            "contract": "contracts/Baal.sol:Baal",
            "label": "_HASHED_VERSION",
            "offset": 0,
            "slot": "105",
            "type": "t_bytes32"
          },
          {
            "astId": 7554,
            "contract": "contracts/Baal.sol:Baal",
            "label": "__gap",
            "offset": 0,
            "slot": "106",
            "type": "t_array(t_uint256)50_storage"
          },
          {
            "astId": 4904,
            "contract": "contracts/Baal.sol:Baal",
            "label": "_status",
            "offset": 0,
            "slot": "156",
            "type": "t_uint256"
          },
          {
            "astId": 4962,
            "contract": "contracts/Baal.sol:Baal",
            "label": "__gap",
            "offset": 0,
            "slot": "157",
            "type": "t_array(t_uint256)49_storage"
          },
          {
            "astId": 3815,
            "contract": "contracts/Baal.sol:Baal",
            "label": "_trustedForwarder",
            "offset": 0,
            "slot": "206",
            "type": "t_address"
          },
          {
            "astId": 10069,
            "contract": "contracts/Baal.sol:Baal",
            "label": "lootToken",
            "offset": 0,
            "slot": "207",
            "type": "t_contract(IBaalToken)14295"
          },
          {
            "astId": 10072,
            "contract": "contracts/Baal.sol:Baal",
            "label": "sharesToken",
            "offset": 0,
            "slot": "208",
            "type": "t_contract(IBaalToken)14295"
          },
          {
            "astId": 10077,
            "contract": "contracts/Baal.sol:Baal",
            "label": "votingPeriod",
            "offset": 20,
            "slot": "208",
            "type": "t_uint32"
          },
          {
            "astId": 10079,
            "contract": "contracts/Baal.sol:Baal",
            "label": "gracePeriod",
            "offset": 24,
            "slot": "208",
            "type": "t_uint32"
          },
          {
            "astId": 10081,
            "contract": "contracts/Baal.sol:Baal",
            "label": "proposalCount",
            "offset": 28,
            "slot": "208",
            "type": "t_uint32"
          },
          {
            "astId": 10083,
            "contract": "contracts/Baal.sol:Baal",
            "label": "proposalOffering",
            "offset": 0,
            "slot": "209",
            "type": "t_uint256"
          },
          {
            "astId": 10085,
            "contract": "contracts/Baal.sol:Baal",
            "label": "quorumPercent",
            "offset": 0,
            "slot": "210",
            "type": "t_uint256"
          },
          {
            "astId": 10087,
            "contract": "contracts/Baal.sol:Baal",
            "label": "sponsorThreshold",
            "offset": 0,
            "slot": "211",
            "type": "t_uint256"
          },
          {
            "astId": 10089,
            "contract": "contracts/Baal.sol:Baal",
            "label": "minRetentionPercent",
            "offset": 0,
            "slot": "212",
            "type": "t_uint256"
          },
          {
            "astId": 10091,
            "contract": "contracts/Baal.sol:Baal",
            "label": "adminLock",
            "offset": 0,
            "slot": "213",
            "type": "t_bool"
          },
          {
            "astId": 10093,
            "contract": "contracts/Baal.sol:Baal",
            "label": "managerLock",
            "offset": 1,
            "slot": "213",
            "type": "t_bool"
          },
          {
            "astId": 10095,
            "contract": "contracts/Baal.sol:Baal",
            "label": "governorLock",
            "offset": 2,
            "slot": "213",
            "type": "t_bool"
          },
          {
            "astId": 10099,
            "contract": "contracts/Baal.sol:Baal",
            "label": "shamans",
            "offset": 0,
            "slot": "214",
            "type": "t_mapping(t_address,t_uint256)"
          },
          {
            "astId": 10105,
            "contract": "contracts/Baal.sol:Baal",
            "label": "memberVoted",
            "offset": 0,
            "slot": "215",
            "type": "t_mapping(t_address,t_mapping(t_uint32,t_bool))"
          },
          {
            "astId": 10109,
            "contract": "contracts/Baal.sol:Baal",
            "label": "votingNonces",
            "offset": 0,
            "slot": "216",
            "type": "t_mapping(t_address,t_uint256)"
          },
          {
            "astId": 10114,
            "contract": "contracts/Baal.sol:Baal",
            "label": "proposals",
            "offset": 0,
            "slot": "217",
            "type": "t_mapping(t_uint256,t_struct(Proposal)10155_storage)"
          },
          {
            "astId": 10116,
            "contract": "contracts/Baal.sol:Baal",
            "label": "latestSponsoredProposalId",
            "offset": 0,
            "slot": "218",
            "type": "t_uint32"
          },
          {
            "astId": 10118,
            "contract": "contracts/Baal.sol:Baal",
            "label": "multisendLibrary",
            "offset": 4,
            "slot": "218",
            "type": "t_address"
          },
          {
            "astId": 10121,
            "contract": "contracts/Baal.sol:Baal",
            "label": "versionRecipient",
            "offset": 0,
            "slot": "219",
            "type": "t_string_storage"
          }
        ],
        "types": {
          "t_address": {
            "encoding": "inplace",
            "label": "address",
            "numberOfBytes": "20"
          },
          "t_array(t_bool)4_storage": {
            "base": "t_bool",
            "encoding": "inplace",
            "label": "bool[4]",
            "numberOfBytes": "32"
          },
          "t_array(t_uint256)49_storage": {
            "base": "t_uint256",
            "encoding": "inplace",
            "label": "uint256[49]",
            "numberOfBytes": "1568"
          },
          "t_array(t_uint256)50_storage": {
            "base": "t_uint256",
            "encoding": "inplace",
            "label": "uint256[50]",
            "numberOfBytes": "1600"
          },
          "t_bool": {
            "encoding": "inplace",
            "label": "bool",
            "numberOfBytes": "1"
          },
          "t_bytes32": {
            "encoding": "inplace",
            "label": "bytes32",
            "numberOfBytes": "32"
          },
          "t_contract(IBaalToken)14295": {
            "encoding": "inplace",
            "label": "contract IBaalToken",
            "numberOfBytes": "20"
          },
          "t_mapping(t_address,t_mapping(t_uint32,t_bool))": {
            "encoding": "mapping",
            "key": "t_address",
            "label": "mapping(address => mapping(uint32 => bool))",
            "numberOfBytes": "32",
            "value": "t_mapping(t_uint32,t_bool)"
          },
          "t_mapping(t_address,t_uint256)": {
            "encoding": "mapping",
            "key": "t_address",
            "label": "mapping(address => uint256)",
            "numberOfBytes": "32",
            "value": "t_uint256"
          },
          "t_mapping(t_uint256,t_struct(Proposal)10155_storage)": {
            "encoding": "mapping",
            "key": "t_uint256",
            "label": "mapping(uint256 => struct Baal.Proposal)",
            "numberOfBytes": "32",
            "value": "t_struct(Proposal)10155_storage"
          },
          "t_mapping(t_uint32,t_bool)": {
            "encoding": "mapping",
            "key": "t_uint32",
            "label": "mapping(uint32 => bool)",
            "numberOfBytes": "32",
            "value": "t_bool"
          },
          "t_string_storage": {
            "encoding": "bytes",
            "label": "string",
            "numberOfBytes": "32"
          },
          "t_struct(Proposal)10155_storage": {
            "encoding": "inplace",
            "label": "struct Baal.Proposal",
            "members": [
              {
                "astId": 10128,
                "contract": "contracts/Baal.sol:Baal",
                "label": "id",
                "offset": 0,
                "slot": "0",
                "type": "t_uint32"
              },
              {
                "astId": 10130,
                "contract": "contracts/Baal.sol:Baal",
                "label": "prevProposalId",
                "offset": 4,
                "slot": "0",
                "type": "t_uint32"
              },
              {
                "astId": 10132,
                "contract": "contracts/Baal.sol:Baal",
                "label": "votingStarts",
                "offset": 8,
                "slot": "0",
                "type": "t_uint32"
              },
              {
                "astId": 10134,
                "contract": "contracts/Baal.sol:Baal",
                "label": "votingEnds",
                "offset": 12,
                "slot": "0",
                "type": "t_uint32"
              },
              {
                "astId": 10136,
                "contract": "contracts/Baal.sol:Baal",
                "label": "graceEnds",
                "offset": 16,
                "slot": "0",
                "type": "t_uint32"
              },
              {
                "astId": 10138,
                "contract": "contracts/Baal.sol:Baal",
                "label": "expiration",
                "offset": 20,
                "slot": "0",
                "type": "t_uint32"
              },
              {
                "astId": 10140,
                "contract": "contracts/Baal.sol:Baal",
                "label": "baalGas",
                "offset": 0,
                "slot": "1",
                "type": "t_uint256"
              },
              {
                "astId": 10142,
                "contract": "contracts/Baal.sol:Baal",
                "label": "yesVotes",
                "offset": 0,
                "slot": "2",
                "type": "t_uint256"
              },
              {
                "astId": 10144,
                "contract": "contracts/Baal.sol:Baal",
                "label": "noVotes",
                "offset": 0,
                "slot": "3",
                "type": "t_uint256"
              },
              {
                "astId": 10146,
                "contract": "contracts/Baal.sol:Baal",
                "label": "maxTotalSharesAndLootAtVote",
                "offset": 0,
                "slot": "4",
                "type": "t_uint256"
              },
              {
                "astId": 10150,
                "contract": "contracts/Baal.sol:Baal",
                "label": "status",
                "offset": 0,
                "slot": "5",
                "type": "t_array(t_bool)4_storage"
              },
              {
                "astId": 10152,
                "contract": "contracts/Baal.sol:Baal",
                "label": "sponsor",
                "offset": 0,
                "slot": "6",
                "type": "t_address"
              },
              {
                "astId": 10154,
                "contract": "contracts/Baal.sol:Baal",
                "label": "proposalDataHash",
                "offset": 0,
                "slot": "7",
                "type": "t_bytes32"
              }
            ],
            "numberOfBytes": "256"
          },
          "t_uint256": {
            "encoding": "inplace",
            "label": "uint256",
            "numberOfBytes": "32"
          },
          "t_uint32": {
            "encoding": "inplace",
            "label": "uint32",
            "numberOfBytes": "4"
          },
          "t_uint8": {
            "encoding": "inplace",
            "label": "uint8",
            "numberOfBytes": "1"
          }
        }
      }
    }
  ],
  "storageLayout": {
    "storage": [
      {
        "astId": 4465,
        "contract": "contracts/Baal.sol:Baal",
        "label": "_initialized",
        "offset": 0,
        "slot": "0",
        "type": "t_uint8"
      },
      {
        "astId": 4468,
        "contract": "contracts/Baal.sol:Baal",
        "label": "_initializing",
        "offset": 1,
        "slot": "0",
        "type": "t_bool"
      },
      {
        "astId": 6734,
        "contract": "contracts/Baal.sol:Baal",
        "label": "__gap",
        "offset": 0,
        "slot": "1",
        "type": "t_array(t_uint256)50_storage"
      },
      {
        "astId": 3948,
        "contract": "contracts/Baal.sol:Baal",
        "label": "_owner",
        "offset": 0,
        "slot": "51",
        "type": "t_address"
      },
      {
        "astId": 4068,
        "contract": "contracts/Baal.sol:Baal",
        "label": "__gap",
        "offset": 0,
        "slot": "52",
        "type": "t_array(t_uint256)49_storage"
      },
      {
        "astId": 3625,
        "contract": "contracts/Baal.sol:Baal",
        "label": "guard",
        "offset": 0,
        "slot": "101",
        "type": "t_address"
      },
      {
        "astId": 3191,
        "contract": "contracts/Baal.sol:Baal",
        "label": "avatar",
        "offset": 0,
        "slot": "102",
        "type": "t_address"
      },
      {
        "astId": 3194,
        "contract": "contracts/Baal.sol:Baal",
        "label": "target",
        "offset": 0,
        "slot": "103",
        "type": "t_address"
      },
      {
        "astId": 7414,
        "contract": "contracts/Baal.sol:Baal",
        "label": "_HASHED_NAME",
        "offset": 0,
        "slot": "104",
        "type": "t_bytes32"
      },
      {
        "astId": 7416,
        "contract": "contracts/Baal.sol:Baal",
        "label": "_HASHED_VERSION",
        "offset": 0,
        "slot": "105",
        "type": "t_bytes32"
      },
      {
        "astId": 7554,
        "contract": "contracts/Baal.sol:Baal",
        "label": "__gap",
        "offset": 0,
        "slot": "106",
        "type": "t_array(t_uint256)50_storage"
      },
      {
        "astId": 4904,
        "contract": "contracts/Baal.sol:Baal",
        "label": "_status",
        "offset": 0,
        "slot": "156",
        "type": "t_uint256"
      },
      {
        "astId": 4962,
        "contract": "contracts/Baal.sol:Baal",
        "label": "__gap",
        "offset": 0,
        "slot": "157",
        "type": "t_array(t_uint256)49_storage"
      },
      {
        "astId": 3815,
        "contract": "contracts/Baal.sol:Baal",
        "label": "_trustedForwarder",
        "offset": 0,
        "slot": "206",
        "type": "t_address"
      },
      {
        "astId": 10069,
        "contract": "contracts/Baal.sol:Baal",
        "label": "lootToken",
        "offset": 0,
        "slot": "207",
        "type": "t_contract(IBaalToken)14295"
      },
      {
        "astId": 10072,
        "contract": "contracts/Baal.sol:Baal",
        "label": "sharesToken",
        "offset": 0,
        "slot": "208",
        "type": "t_contract(IBaalToken)14295"
      },
      {
        "astId": 10077,
        "contract": "contracts/Baal.sol:Baal",
        "label": "votingPeriod",
        "offset": 20,
        "slot": "208",
        "type": "t_uint32"
      },
      {
        "astId": 10079,
        "contract": "contracts/Baal.sol:Baal",
        "label": "gracePeriod",
        "offset": 24,
        "slot": "208",
        "type": "t_uint32"
      },
      {
        "astId": 10081,
        "contract": "contracts/Baal.sol:Baal",
        "label": "proposalCount",
        "offset": 28,
        "slot": "208",
        "type": "t_uint32"
      },
      {
        "astId": 10083,
        "contract": "contracts/Baal.sol:Baal",
        "label": "proposalOffering",
        "offset": 0,
        "slot": "209",
        "type": "t_uint256"
      },
      {
        "astId": 10085,
        "contract": "contracts/Baal.sol:Baal",
        "label": "quorumPercent",
        "offset": 0,
        "slot": "210",
        "type": "t_uint256"
      },
      {
        "astId": 10087,
        "contract": "contracts/Baal.sol:Baal",
        "label": "sponsorThreshold",
        "offset": 0,
        "slot": "211",
        "type": "t_uint256"
      },
      {
        "astId": 10089,
        "contract": "contracts/Baal.sol:Baal",
        "label": "minRetentionPercent",
        "offset": 0,
        "slot": "212",
        "type": "t_uint256"
      },
      {
        "astId": 10091,
        "contract": "contracts/Baal.sol:Baal",
        "label": "adminLock",
        "offset": 0,
        "slot": "213",
        "type": "t_bool"
      },
      {
        "astId": 10093,
        "contract": "contracts/Baal.sol:Baal",
        "label": "managerLock",
        "offset": 1,
        "slot": "213",
        "type": "t_bool"
      },
      {
        "astId": 10095,
        "contract": "contracts/Baal.sol:Baal",
        "label": "governorLock",
        "offset": 2,
        "slot": "213",
        "type": "t_bool"
      },
      {
        "astId": 10099,
        "contract": "contracts/Baal.sol:Baal",
        "label": "shamans",
        "offset": 0,
        "slot": "214",
        "type": "t_mapping(t_address,t_uint256)"
      },
      {
        "astId": 10105,
        "contract": "contracts/Baal.sol:Baal",
        "label": "memberVoted",
        "offset": 0,
        "slot": "215",
        "type": "t_mapping(t_address,t_mapping(t_uint32,t_bool))"
      },
      {
        "astId": 10109,
        "contract": "contracts/Baal.sol:Baal",
        "label": "votingNonces",
        "offset": 0,
        "slot": "216",
        "type": "t_mapping(t_address,t_uint256)"
      },
      {
        "astId": 10114,
        "contract": "contracts/Baal.sol:Baal",
        "label": "proposals",
        "offset": 0,
        "slot": "217",
        "type": "t_mapping(t_uint256,t_struct(Proposal)10155_storage)"
      },
      {
        "astId": 10116,
        "contract": "contracts/Baal.sol:Baal",
        "label": "latestSponsoredProposalId",
        "offset": 0,
        "slot": "218",
        "type": "t_uint32"
      },
      {
        "astId": 10118,
        "contract": "contracts/Baal.sol:Baal",
        "label": "multisendLibrary",
        "offset": 4,
        "slot": "218",
        "type": "t_address"
      },
      {
        "astId": 10121,
        "contract": "contracts/Baal.sol:Baal",
        "label": "versionRecipient",
        "offset": 0,
        "slot": "219",
        "type": "t_string_storage"
      }
    ],
    "types": {
      "t_address": {
        "encoding": "inplace",
        "label": "address",
        "numberOfBytes": "20"
      },
      "t_array(t_bool)4_storage": {
        "base": "t_bool",
        "encoding": "inplace",
        "label": "bool[4]",
        "numberOfBytes": "32"
      },
      "t_array(t_uint256)49_storage": {
        "base": "t_uint256",
        "encoding": "inplace",
        "label": "uint256[49]",
        "numberOfBytes": "1568"
      },
      "t_array(t_uint256)50_storage": {
        "base": "t_uint256",
        "encoding": "inplace",
        "label": "uint256[50]",
        "numberOfBytes": "1600"
      },
      "t_bool": {
        "encoding": "inplace",
        "label": "bool",
        "numberOfBytes": "1"
      },
      "t_bytes32": {
        "encoding": "inplace",
        "label": "bytes32",
        "numberOfBytes": "32"
      },
      "t_contract(IBaalToken)14295": {
        "encoding": "inplace",
        "label": "contract IBaalToken",
        "numberOfBytes": "20"
      },
      "t_mapping(t_address,t_mapping(t_uint32,t_bool))": {
        "encoding": "mapping",
        "key": "t_address",
        "label": "mapping(address => mapping(uint32 => bool))",
        "numberOfBytes": "32",
        "value": "t_mapping(t_uint32,t_bool)"
      },
      "t_mapping(t_address,t_uint256)": {
        "encoding": "mapping",
        "key": "t_address",
        "label": "mapping(address => uint256)",
        "numberOfBytes": "32",
        "value": "t_uint256"
      },
      "t_mapping(t_uint256,t_struct(Proposal)10155_storage)": {
        "encoding": "mapping",
        "key": "t_uint256",
        "label": "mapping(uint256 => struct Baal.Proposal)",
        "numberOfBytes": "32",
        "value": "t_struct(Proposal)10155_storage"
      },
      "t_mapping(t_uint32,t_bool)": {
        "encoding": "mapping",
        "key": "t_uint32",
        "label": "mapping(uint32 => bool)",
        "numberOfBytes": "32",
        "value": "t_bool"
      },
      "t_string_storage": {
        "encoding": "bytes",
        "label": "string",
        "numberOfBytes": "32"
      },
      "t_struct(Proposal)10155_storage": {
        "encoding": "inplace",
        "label": "struct Baal.Proposal",
        "members": [
          {
            "astId": 10128,
            "contract": "contracts/Baal.sol:Baal",
            "label": "id",
            "offset": 0,
            "slot": "0",
            "type": "t_uint32"
          },
          {
            "astId": 10130,
            "contract": "contracts/Baal.sol:Baal",
            "label": "prevProposalId",
            "offset": 4,
            "slot": "0",
            "type": "t_uint32"
          },
          {
            "astId": 10132,
            "contract": "contracts/Baal.sol:Baal",
            "label": "votingStarts",
            "offset": 8,
            "slot": "0",
            "type": "t_uint32"
          },
          {
            "astId": 10134,
            "contract": "contracts/Baal.sol:Baal",
            "label": "votingEnds",
            "offset": 12,
            "slot": "0",
            "type": "t_uint32"
          },
          {
            "astId": 10136,
            "contract": "contracts/Baal.sol:Baal",
            "label": "graceEnds",
            "offset": 16,
            "slot": "0",
            "type": "t_uint32"
          },
          {
            "astId": 10138,
            "contract": "contracts/Baal.sol:Baal",
            "label": "expiration",
            "offset": 20,
            "slot": "0",
            "type": "t_uint32"
          },
          {
            "astId": 10140,
            "contract": "contracts/Baal.sol:Baal",
            "label": "baalGas",
            "offset": 0,
            "slot": "1",
            "type": "t_uint256"
          },
          {
            "astId": 10142,
            "contract": "contracts/Baal.sol:Baal",
            "label": "yesVotes",
            "offset": 0,
            "slot": "2",
            "type": "t_uint256"
          },
          {
            "astId": 10144,
            "contract": "contracts/Baal.sol:Baal",
            "label": "noVotes",
            "offset": 0,
            "slot": "3",
            "type": "t_uint256"
          },
          {
            "astId": 10146,
            "contract": "contracts/Baal.sol:Baal",
            "label": "maxTotalSharesAndLootAtVote",
            "offset": 0,
            "slot": "4",
            "type": "t_uint256"
          },
          {
            "astId": 10150,
            "contract": "contracts/Baal.sol:Baal",
            "label": "status",
            "offset": 0,
            "slot": "5",
            "type": "t_array(t_bool)4_storage"
          },
          {
            "astId": 10152,
            "contract": "contracts/Baal.sol:Baal",
            "label": "sponsor",
            "offset": 0,
            "slot": "6",
            "type": "t_address"
          },
          {
            "astId": 10154,
            "contract": "contracts/Baal.sol:Baal",
            "label": "proposalDataHash",
            "offset": 0,
            "slot": "7",
            "type": "t_bytes32"
          }
        ],
        "numberOfBytes": "256"
      },
      "t_uint256": {
        "encoding": "inplace",
        "label": "uint256",
        "numberOfBytes": "32"
      },
      "t_uint32": {
        "encoding": "inplace",
        "label": "uint32",
        "numberOfBytes": "4"
      },
      "t_uint8": {
        "encoding": "inplace",
        "label": "uint8",
        "numberOfBytes": "1"
      }
    }
  }
}