{
  "address": "0x7e988A9db2F8597735fc68D21060Daed948a3e8C",
  "abi": [
    {
      "anonymous": false,
      "inputs": [
        {
          "indexed": false,
          "internalType": "address",
          "name": "previousAdmin",
          "type": "address"
        },
        {
          "indexed": false,
          "internalType": "address",
          "name": "newAdmin",
          "type": "address"
        }
      ],
      "name": "AdminChanged",
      "type": "event"
    },
    {
      "anonymous": false,
      "inputs": [
        {
          "indexed": true,
          "internalType": "address",
          "name": "beacon",
          "type": "address"
        }
      ],
      "name": "BeaconUpgraded",
      "type": "event"
    },
    {
      "anonymous": false,
      "inputs": [
        {
          "indexed": false,
          "internalType": "bytes32",
          "name": "referrer",
          "type": "bytes32"
        },
        {
          "indexed": false,
          "internalType": "address",
          "name": "daoAddress",
          "type": "address"
        }
      ],
      "name": "DaoReferral",
      "type": "event"
    },
    {
      "anonymous": false,
      "inputs": [
        {
          "indexed": false,
          "internalType": "address",
          "name": "baalSafe",
          "type": "address"
        },
        {
          "indexed": false,
          "internalType": "address",
          "name": "moduleAddr",
          "type": "address"
        }
      ],
      "name": "DeployBaalSafe",
      "type": "event"
    },
    {
      "anonymous": false,
      "inputs": [
        {
          "indexed": false,
          "internalType": "address",
          "name": "lootToken",
          "type": "address"
        },
        {
          "indexed": false,
          "internalType": "address",
          "name": "sharesToken",
          "type": "address"
        }
      ],
      "name": "DeployBaalTokens",
      "type": "event"
    },
    {
      "anonymous": false,
      "inputs": [
        {
          "indexed": false,
          "internalType": "uint8",
          "name": "version",
          "type": "uint8"
        }
      ],
      "name": "Initialized",
      "type": "event"
    },
    {
      "anonymous": false,
      "inputs": [
        {
          "indexed": true,
          "internalType": "address",
          "name": "previousOwner",
          "type": "address"
        },
        {
          "indexed": true,
          "internalType": "address",
          "name": "newOwner",
          "type": "address"
        }
      ],
      "name": "OwnershipTransferred",
      "type": "event"
    },
    {
      "anonymous": false,
      "inputs": [
        {
          "indexed": false,
          "internalType": "uint256",
          "name": "version",
          "type": "uint256"
        }
      ],
      "name": "SetAddrsVersion",
      "type": "event"
    },
    {
      "anonymous": false,
      "inputs": [
        {
          "indexed": true,
          "internalType": "address",
          "name": "baal",
          "type": "address"
        },
        {
          "indexed": true,
          "internalType": "address",
          "name": "loot",
          "type": "address"
        },
        {
          "indexed": true,
          "internalType": "address",
          "name": "shares",
          "type": "address"
        },
        {
          "indexed": false,
          "internalType": "address",
          "name": "safe",
          "type": "address"
        },
        {
          "indexed": false,
          "internalType": "address",
          "name": "forwarder",
          "type": "address"
        },
        {
          "indexed": false,
          "internalType": "uint256",
          "name": "existingAddrs",
          "type": "uint256"
        }
      ],
      "name": "SummonBaal",
      "type": "event"
    },
    {
      "anonymous": false,
      "inputs": [
        {
          "indexed": true,
          "internalType": "address",
          "name": "implementation",
          "type": "address"
        }
      ],
      "name": "Upgraded",
      "type": "event"
    },
    {
      "inputs": [],
      "name": "addrsVersion",
      "outputs": [
        {
          "internalType": "uint256",
          "name": "",
          "type": "uint256"
        }
      ],
      "stateMutability": "view",
      "type": "function"
    },
    {
      "inputs": [
        {
          "internalType": "address",
          "name": "_moduleAddr",
          "type": "address"
        }
      ],
      "name": "deployAndSetupSafe",
      "outputs": [
        {
          "internalType": "address",
          "name": "",
          "type": "address"
        }
      ],
      "stateMutability": "nonpayable",
      "type": "function"
    },
    {
      "inputs": [
        {
          "internalType": "string",
          "name": "_name",
          "type": "string"
        },
        {
          "internalType": "string",
          "name": "_symbol",
          "type": "string"
        }
      ],
      "name": "deployTokens",
      "outputs": [
        {
          "internalType": "address",
          "name": "lootToken",
          "type": "address"
        },
        {
          "internalType": "address",
          "name": "sharesToken",
          "type": "address"
        }
      ],
      "stateMutability": "nonpayable",
      "type": "function"
    },
    {
      "inputs": [
        {
          "internalType": "bytes[]",
          "name": "_calls",
          "type": "bytes[]"
        },
        {
          "internalType": "address",
          "name": "_target",
          "type": "address"
        }
      ],
      "name": "encodeMultisend",
      "outputs": [
        {
          "internalType": "bytes",
          "name": "encodedMultisend",
          "type": "bytes"
        }
      ],
      "stateMutability": "pure",
      "type": "function"
    },
    {
      "inputs": [],
      "name": "gnosisFallbackLibrary",
      "outputs": [
        {
          "internalType": "address",
          "name": "",
          "type": "address"
        }
      ],
      "stateMutability": "view",
      "type": "function"
    },
    {
      "inputs": [],
      "name": "gnosisMultisendLibrary",
      "outputs": [
        {
          "internalType": "address",
          "name": "",
          "type": "address"
        }
      ],
      "stateMutability": "view",
      "type": "function"
    },
    {
      "inputs": [],
      "name": "gnosisSingleton",
      "outputs": [
        {
          "internalType": "address",
          "name": "",
          "type": "address"
        }
      ],
      "stateMutability": "view",
      "type": "function"
    },
    {
      "inputs": [],
      "name": "initialize",
      "outputs": [],
      "stateMutability": "nonpayable",
      "type": "function"
    },
    {
      "inputs": [],
      "name": "lootSingleton",
      "outputs": [
        {
          "internalType": "address",
          "name": "",
          "type": "address"
        }
      ],
      "stateMutability": "view",
      "type": "function"
    },
    {
      "inputs": [],
      "name": "owner",
      "outputs": [
        {
          "internalType": "address",
          "name": "",
          "type": "address"
        }
      ],
      "stateMutability": "view",
      "type": "function"
    },
    {
      "inputs": [],
      "name": "proxiableUUID",
      "outputs": [
        {
          "internalType": "bytes32",
          "name": "",
          "type": "bytes32"
        }
      ],
      "stateMutability": "view",
      "type": "function"
    },
    {
      "inputs": [],
      "name": "renounceOwnership",
      "outputs": [],
      "stateMutability": "nonpayable",
      "type": "function"
    },
    {
      "inputs": [
        {
          "internalType": "address payable",
          "name": "_template",
          "type": "address"
        },
        {
          "internalType": "address",
          "name": "_gnosisSingleton",
          "type": "address"
        },
        {
          "internalType": "address",
          "name": "_gnosisFallbackLibrary",
          "type": "address"
        },
        {
          "internalType": "address",
          "name": "_gnosisMultisendLibrary",
          "type": "address"
        },
        {
          "internalType": "address",
          "name": "_gnosisSafeProxyFactory",
          "type": "address"
        },
        {
          "internalType": "address",
          "name": "_moduleProxyFactory",
          "type": "address"
        },
        {
          "internalType": "address",
          "name": "_lootSingleton",
          "type": "address"
        },
        {
          "internalType": "address",
          "name": "_sharesSingleton",
          "type": "address"
        }
      ],
      "name": "setAddrs",
      "outputs": [],
      "stateMutability": "nonpayable",
      "type": "function"
    },
    {
      "inputs": [],
      "name": "sharesSingleton",
      "outputs": [
        {
          "internalType": "address",
          "name": "",
          "type": "address"
        }
      ],
      "stateMutability": "view",
      "type": "function"
    },
    {
      "inputs": [
        {
          "internalType": "bytes",
          "name": "initializationParams",
          "type": "bytes"
        },
        {
          "internalType": "bytes[]",
          "name": "initializationActions",
          "type": "bytes[]"
        },
        {
          "internalType": "uint256",
          "name": "_saltNonce",
          "type": "uint256"
        }
      ],
      "name": "summonBaal",
      "outputs": [
        {
          "internalType": "address",
          "name": "",
          "type": "address"
        }
      ],
      "stateMutability": "nonpayable",
      "type": "function"
    },
    {
      "inputs": [
        {
          "internalType": "bytes",
          "name": "initializationParams",
          "type": "bytes"
        },
        {
          "internalType": "bytes[]",
          "name": "initializationActions",
          "type": "bytes[]"
        },
        {
          "internalType": "uint256",
          "name": "_saltNonce",
          "type": "uint256"
        },
        {
          "internalType": "bytes32",
          "name": "referrer",
          "type": "bytes32"
        }
      ],
      "name": "summonBaalFromReferrer",
      "outputs": [
        {
          "internalType": "address",
          "name": "",
          "type": "address"
        }
      ],
      "stateMutability": "payable",
      "type": "function"
    },
    {
      "inputs": [],
      "name": "template",
      "outputs": [
        {
          "internalType": "address payable",
          "name": "",
          "type": "address"
        }
      ],
      "stateMutability": "view",
      "type": "function"
    },
    {
      "inputs": [
        {
          "internalType": "address",
          "name": "newOwner",
          "type": "address"
        }
      ],
      "name": "transferOwnership",
      "outputs": [],
      "stateMutability": "nonpayable",
      "type": "function"
    },
    {
      "inputs": [
        {
          "internalType": "address",
          "name": "newImplementation",
          "type": "address"
        }
      ],
      "name": "upgradeTo",
      "outputs": [],
      "stateMutability": "nonpayable",
      "type": "function"
    },
    {
      "inputs": [
        {
          "internalType": "address",
          "name": "newImplementation",
          "type": "address"
        },
        {
          "internalType": "bytes",
          "name": "data",
          "type": "bytes"
        }
      ],
      "name": "upgradeToAndCall",
      "outputs": [],
      "stateMutability": "payable",
      "type": "function"
    }
  ],
  "args": [],
  "numDeployments": 4,
  "linkedData": {},
  "solcInputHash": "a128f2a31ecf0f1507d09c047cd019fe",
  "bytecode": "0x60a06040523060601b60805234801561001757600080fd5b5060805160601c612d7861005260003960008181610483015281816104cf01528181610593015281816105d601526106720152612d786000f3fe608060405260043610620001375760003560e01c8063881e4ea411620000ad578063d9118ce7116200006c578063d9118ce71462000364578063ebfb8a431462000386578063f0fa28b914620003ab578063f2fde38b14620003cd578063f884231c14620003f257600080fd5b8063881e4ea414620002865780638da5cb5b14620002a857806397fc9fbb14620002c8578063a2346618146200030e578063d61f27ae146200033057600080fd5b80634f1ef28611620000fa5780634f1ef286146200020557806352d1902d146200021c5780636f2ddd931462000234578063715018a614620002565780638129fc1c146200026e57600080fd5b8063209f3695146200013c57806321d56a43146200017057806323626b4514620001925780633659cfe614620001b95780634a8b0b3214620001e0575b600080fd5b620001536200014d36600462001f1e565b62000417565b6040516001600160a01b0390911681526020015b60405180910390f35b3480156200017d57600080fd5b5060cb5462000153906001600160a01b031681565b3480156200019f57600080fd5b50620001aa60c95481565b60405190815260200162000167565b348015620001c657600080fd5b50620001de620001d836600462001ccc565b62000478565b005b348015620001ed57600080fd5b5062000153620001ff36600462001ea3565b6200056d565b620001de6200021636600462001dc6565b62000588565b3480156200022957600080fd5b50620001aa62000665565b3480156200024157600080fd5b5060ca5462000153906001600160a01b031681565b3480156200026357600080fd5b50620001de6200071b565b3480156200027b57600080fd5b50620001de62000733565b3480156200029357600080fd5b5060cd5462000153906001600160a01b031681565b348015620002b557600080fd5b506033546001600160a01b031662000153565b348015620002d557600080fd5b50620002ed620002e736600462001fa3565b62000856565b604080516001600160a01b0393841681529290911660208301520162000167565b3480156200031b57600080fd5b5060cf5462000153906001600160a01b031681565b3480156200033d57600080fd5b50620003556200034f36600462001e1c565b62000a17565b604051620001679190620023a2565b3480156200037157600080fd5b5060ce5462000153906001600160a01b031681565b3480156200039357600080fd5b50620001de620003a536600462001d0c565b62000aec565b348015620003b857600080fd5b5060cc5462000153906001600160a01b031681565b348015620003da57600080fd5b50620001de620003ec36600462001ccc565b62000df0565b348015620003ff57600080fd5b50620001536200041136600462001ccc565b62000e6c565b600080620004298888888888620010d4565b604080518581526001600160a01b03831660208201529192507fe1e7ecd08b1e119c2755872e95180d0d070137a7c2af361de1d7256bc3674107910160405180910390a1979650505050505050565b306001600160a01b037f0000000000000000000000000000000000000000000000000000000000000000161415620004cd5760405162461bcd60e51b8152600401620004c490620023e0565b60405180910390fd5b7f00000000000000000000000000000000000000000000000000000000000000006001600160a01b03166200051860008051602062002cfc833981519152546001600160a01b031690565b6001600160a01b031614620005415760405162461bcd60e51b8152600401620004c4906200242c565b6200054c81620015e4565b604080516000808252602082019092526200056a91839190620015ee565b50565b60006200057e8686868686620010d4565b9695505050505050565b306001600160a01b037f0000000000000000000000000000000000000000000000000000000000000000161415620005d45760405162461bcd60e51b8152600401620004c490620023e0565b7f00000000000000000000000000000000000000000000000000000000000000006001600160a01b03166200061f60008051602062002cfc833981519152546001600160a01b031690565b6001600160a01b031614620006485760405162461bcd60e51b8152600401620004c4906200242c565b6200065382620015e4565b6200066182826001620015ee565b5050565b6000306001600160a01b037f00000000000000000000000000000000000000000000000000000000000000001614620007075760405162461bcd60e51b815260206004820152603860248201527f555550535570677261646561626c653a206d757374206e6f742062652063616c60448201527f6c6564207468726f7567682064656c656761746563616c6c00000000000000006064820152608401620004c4565b5060008051602062002cfc83398151915290565b620007256200177b565b620007316000620017d7565b565b600054610100900460ff1615808015620007545750600054600160ff909116105b80620007705750303b15801562000770575060005460ff166001145b620007d55760405162461bcd60e51b815260206004820152602e60248201527f496e697469616c697a61626c653a20636f6e747261637420697320616c72656160448201526d191e481a5b9a5d1a585b1a5e995960921b6064820152608401620004c4565b6000805460ff191660011790558015620007f9576000805461ff0019166101001790555b6200080362001829565b6200080d6200185d565b80156200056a576000805461ff0019169055604051600181527f7f26b83ff96e1f2b6a682f133852f6798a09c465da95921460cefb38474024989060200160405180910390a150565b60ce5460405160009182916001600160a01b039091169063562d190d60e01b90620008869087906020016200217c565b60405160208183030381529060405285604051602001620008a89190620021a7565b60408051601f1981840301815290829052620008c89291602401620023b7565b60408051601f198184030181529181526020820180516001600160e01b03166001600160e01b0319909416939093179092529051620009079062001b1c565b62000914929190620022b2565b604051809103906000f08015801562000931573d6000803e3d6000fd5b5060cf546040519193506001600160a01b03169063562d190d60e01b90620009609087908790602401620023b7565b60408051601f198184030181529181526020820180516001600160e01b03166001600160e01b03199094169390931790925290516200099f9062001b1c565b620009ac929190620022b2565b604051809103906000f080158015620009c9573d6000803e3d6000fd5b50604080516001600160a01b038086168252831660208201529192507ffb5849d45e916a3192059973d782e08b2b3888fa796f536d99af0c7bd01ca16c910160405180910390a19250929050565b60608060005b845181101562000aa65781600085600088858151811062000a425762000a4262002584565b60200260200101515189868151811062000a605762000a6062002584565b602002602001015160405160200162000a7f969594939291906200210e565b6040516020818303038152906040529150808062000a9d9062002550565b91505062000a1d565b508060405160240162000aba9190620023a2565b60408051601f198184030181529190526020810180516001600160e01b03166346c07f8560e11b179052949350505050565b62000af66200177b565b6001600160a01b03821662000b3f5760405162461bcd60e51b815260206004820152600e60248201526d10b637b7ba29b4b733b632ba37b760911b6044820152606401620004c4565b6001600160a01b03811662000b8a5760405162461bcd60e51b815260206004820152601060248201526f10b9b430b932b9a9b4b733b632ba37b760811b6044820152606401620004c4565b6001600160a01b03871662000bd55760405162461bcd60e51b815260206004820152601060248201526f10b3b737b9b4b9a9b4b733b632ba37b760811b6044820152606401620004c4565b6001600160a01b03861662000c265760405162461bcd60e51b815260206004820152601660248201527521676e6f73697346616c6c6261636b4c69627261727960501b6044820152606401620004c4565b6001600160a01b03851662000c7e5760405162461bcd60e51b815260206004820152601760248201527f21676e6f7369734d756c746973656e644c6962726172790000000000000000006044820152606401620004c4565b6001600160a01b03841662000cd65760405162461bcd60e51b815260206004820152601760248201527f21676e6f7369735361666550726f7879466163746f72790000000000000000006044820152606401620004c4565b6001600160a01b03831662000d245760405162461bcd60e51b8152602060048201526013602482015272216d6f64756c6550726f7879466163746f727960681b6044820152606401620004c4565b60ca80546001600160a01b03199081166001600160a01b038b81169190911790925560cb805482168a841617905560cc8054821689841617905560cd8054821688841617905560d08054821687841617905560d18054821686841617905560ce8054821685841617905560cf805490911691831691909117905560c980547fe6fb5c8c5a2615df9d8de2df2fdebdae949bcf3a2a80cb8ff90ace3459de85cc91600062000dd18362002550565b9091555060405190815260200160405180910390a15050505050505050565b62000dfa6200177b565b6001600160a01b03811662000e615760405162461bcd60e51b815260206004820152602660248201527f4f776e61626c653a206e6577206f776e657220697320746865207a65726f206160448201526564647265737360d01b6064820152608401620004c4565b6200056a81620017d7565b60d05460cb5460408051602081018252600080825291516361b69abd60e01b8152919384936001600160a01b03918216936361b69abd9362000eb6939092169190600401620022b2565b602060405180830381600087803b15801562000ed157600080fd5b505af115801562000ee6573d6000803e3d6000fd5b505050506040513d601f19601f8201168201806040525081019062000f0c919062001cec565b6040516001600160a01b038516602482015290915060009060440160408051601f19818403018152918152602080830180516001600160e01b031663610b592560e01b1790528251915192935060009262000f719284928792849291889101620021d2565b604051602081830303815290604052905060008160405160240162000f979190620023a2565b60408051601f19818403018152918152602080830180516001600160e01b03166346c07f8560e11b1790528151600180825281840190935292935060009291908281019080368337019050509050868160008151811062000ffc5762000ffc62002584565b6001600160a01b03928316602091820292909201015260cd5460cc5460405163b63e800d60e01b81528884169363b63e800d9362001051938793600193928316928a92169060009081908190600401620022e0565b600060405180830381600087803b1580156200106c57600080fd5b505af115801562001081573d6000803e3d6000fd5b5050604080516001600160a01b03808a1682528b1660208201527f7ad675e6593a2c3bdf52607876353caf39853572dd787d2a5eed1cc99097b3f0935001905060405180910390a1509295945050505050565b600080808080808080620010eb8c8e018e62002004565b955095509550955095509550600060d160009054906101000a90046001600160a01b03166001600160a01b031663f1ab873c60ca60009054906101000a90046001600160a01b0316604051602401604051602081830303815290604052632d77bef360e11b6001600160e01b0319166020820180516001600160e01b0383818316178352505050508d6040518463ffffffff1660e01b815260040162001194939291906200222a565b602060405180830381600087803b158015620011af57600080fd5b505af1158015620011c4573d6000803e3d6000fd5b505050506040513d601f19601f82011682018060405250810190620011ea919062001cec565b90506001600160a01b03831615806200120a57506001600160a01b038216155b156200138e576200121c878762000856565b8093508194505050826001600160a01b0316638456cb596040518163ffffffff1660e01b8152600401600060405180830381600087803b1580156200126057600080fd5b505af115801562001275573d6000803e3d6000fd5b50505050816001600160a01b0316638456cb596040518163ffffffff1660e01b8152600401600060405180830381600087803b158015620012b557600080fd5b505af1158015620012ca573d6000803e3d6000fd5b505060405163f2fde38b60e01b81526001600160a01b0384811660048301528616925063f2fde38b9150602401600060405180830381600087803b1580156200131257600080fd5b505af115801562001327573d6000803e3d6000fd5b505060405163f2fde38b60e01b81526001600160a01b0384811660048301528516925063f2fde38b9150602401600060405180830381600087803b1580156200136f57600080fd5b505af115801562001384573d6000803e3d6000fd5b505050506200139e565b6200139b600189620024f7565b97505b6001600160a01b038516620013c057620013b88162000e6c565b9450620013d0565b620013cd600289620024f7565b97505b6000620013e9620013e28d8f62002512565b8362000a17565b60cd546040519192506000916200141791879187916001600160a01b0316908b908b90889060200162002260565b60408051601f198184030181529082905263a4f9edbf60e01b825291506001600160a01b0384169063a4f9edbf9062001455908490600401620023a2565b600060405180830381600087803b1580156200147057600080fd5b505af115801562001485573d6000803e3d6000fd5b50505050826001600160a01b0316638009ba1f6040518163ffffffff1660e01b815260040160206040518083038186803b158015620014c357600080fd5b505afa158015620014d8573d6000803e3d6000fd5b505050506040513d601f19601f82011682018060405250810190620014fe919062001cec565b6001600160a01b0316836001600160a01b031663f460124d6040518163ffffffff1660e01b815260040160206040518083038186803b1580156200154157600080fd5b505afa15801562001556573d6000803e3d6000fd5b505050506040513d601f19601f820116820180604052508101906200157c919062001cec565b604080516001600160a01b038b811682528a811660208301529181018e905291811691908616907fcf2f09cd0dbc149b12a3630a11b7d73476660f3d08d3dc7dcc79c6dec555ee7a9060600160405180910390a450909e9d5050505050505050505050505050565b6200056a6200177b565b7f4910fdfa16fed3260ed0e7147f7cc6da11a60208b5b9406d12a635614ffd91435460ff16156200162957620016248362001887565b505050565b826001600160a01b03166352d1902d6040518163ffffffff1660e01b815260040160206040518083038186803b1580156200166357600080fd5b505afa92505050801562001696575060408051601f3d908101601f19168201909252620016939181019062001e89565b60015b620016fb5760405162461bcd60e51b815260206004820152602e60248201527f45524331393637557067726164653a206e657720696d706c656d656e7461746960448201526d6f6e206973206e6f74205555505360901b6064820152608401620004c4565b60008051602062002cfc83398151915281146200176d5760405162461bcd60e51b815260206004820152602960248201527f45524331393637557067726164653a20756e737570706f727465642070726f786044820152681a58589b195555525160ba1b6064820152608401620004c4565b506200162483838362001926565b6033546001600160a01b03163314620007315760405162461bcd60e51b815260206004820181905260248201527f4f776e61626c653a2063616c6c6572206973206e6f7420746865206f776e65726044820152606401620004c4565b603380546001600160a01b038381166001600160a01b0319831681179093556040519116919082907f8be0079c531659141344cd1fd0a4f28419497f9722a3daafe3b4186f6b6457e090600090a35050565b600054610100900460ff16620018535760405162461bcd60e51b8152600401620004c49062002478565b6200073162001957565b600054610100900460ff16620007315760405162461bcd60e51b8152600401620004c49062002478565b6001600160a01b0381163b620018f65760405162461bcd60e51b815260206004820152602d60248201527f455243313936373a206e657720696d706c656d656e746174696f6e206973206e60448201526c1bdd08184818dbdb9d1c9858dd609a1b6064820152608401620004c4565b60008051602062002cfc83398151915280546001600160a01b0319166001600160a01b0392909216919091179055565b62001931836200198c565b6000825111806200193f5750805b156200162457620019518383620019ce565b50505050565b600054610100900460ff16620019815760405162461bcd60e51b8152600401620004c49062002478565b6200073133620017d7565b620019978162001887565b6040516001600160a01b038216907fbc7cd75a20ee27fd9adebab32041f755214dbc6bffa90cc0225b39da2e5c2d3b90600090a250565b60606001600160a01b0383163b62001a385760405162461bcd60e51b815260206004820152602660248201527f416464726573733a2064656c65676174652063616c6c20746f206e6f6e2d636f6044820152651b9d1c9858dd60d21b6064820152608401620004c4565b600080846001600160a01b03168460405162001a559190620020f0565b600060405180830381855af49150503d806000811462001a92576040519150601f19603f3d011682016040523d82523d6000602084013e62001a97565b606091505b509150915062001ac2828260405180606001604052806027815260200162002d1c6027913962001acb565b95945050505050565b6060831562001adc57508162001ae8565b62001ae8838362001aef565b9392505050565b81511562001b005781518083602001fd5b8060405162461bcd60e51b8152600401620004c49190620023a2565b61073580620025c783390190565b600067ffffffffffffffff8084111562001b485762001b486200259a565b8360051b602062001b5b818301620024c3565b86815293508084018583810189101562001b7457600080fd5b60009350835b8881101562001bb45781358681111562001b92578586fd5b62001ba08b828b0162001c55565b845250918301919083019060010162001b7a565b5050505050509392505050565b60008083601f84011262001bd457600080fd5b50813567ffffffffffffffff81111562001bed57600080fd5b6020830191508360208260051b850101111562001c0957600080fd5b9250929050565b60008083601f84011262001c2357600080fd5b50813567ffffffffffffffff81111562001c3c57600080fd5b60208301915083602082850101111562001c0957600080fd5b600082601f83011262001c6757600080fd5b813567ffffffffffffffff81111562001c845762001c846200259a565b62001c99601f8201601f1916602001620024c3565b81815284602083860101111562001caf57600080fd5b816020850160208301376000918101602001919091529392505050565b60006020828403121562001cdf57600080fd5b813562001ae881620025b0565b60006020828403121562001cff57600080fd5b815162001ae881620025b0565b600080600080600080600080610100898b03121562001d2a57600080fd5b883562001d3781620025b0565b9750602089013562001d4981620025b0565b9650604089013562001d5b81620025b0565b9550606089013562001d6d81620025b0565b9450608089013562001d7f81620025b0565b935060a089013562001d9181620025b0565b925060c089013562001da381620025b0565b915060e089013562001db581620025b0565b809150509295985092959890939650565b6000806040838503121562001dda57600080fd5b823562001de781620025b0565b9150602083013567ffffffffffffffff81111562001e0457600080fd5b62001e128582860162001c55565b9150509250929050565b6000806040838503121562001e3057600080fd5b823567ffffffffffffffff81111562001e4857600080fd5b8301601f8101851362001e5a57600080fd5b62001e6b8582356020840162001b2a565b925050602083013562001e7e81620025b0565b809150509250929050565b60006020828403121562001e9c57600080fd5b5051919050565b60008060008060006060868803121562001ebc57600080fd5b853567ffffffffffffffff8082111562001ed557600080fd5b62001ee389838a0162001c10565b9097509550602088013591508082111562001efd57600080fd5b5062001f0c8882890162001bc1565b96999598509660400135949350505050565b6000806000806000806080878903121562001f3857600080fd5b863567ffffffffffffffff8082111562001f5157600080fd5b62001f5f8a838b0162001c10565b9098509650602089013591508082111562001f7957600080fd5b5062001f8889828a0162001bc1565b979a9699509760408101359660609091013595509350505050565b6000806040838503121562001fb757600080fd5b823567ffffffffffffffff8082111562001fd057600080fd5b62001fde8683870162001c55565b9350602085013591508082111562001ff557600080fd5b5062001e128582860162001c55565b60008060008060008060c087890312156200201e57600080fd5b863567ffffffffffffffff808211156200203757600080fd5b620020458a838b0162001c55565b975060208901359150808211156200205c57600080fd5b506200206b89828a0162001c55565b95505060408701356200207e81620025b0565b935060608701356200209081620025b0565b92506080870135620020a281620025b0565b915060a0870135620020b481620025b0565b809150509295509295509295565b60008151808452620020dc81602086016020860162002521565b601f01601f19169290920160200192915050565b600082516200210481846020870162002521565b9190910192915050565b6000875162002122818460208c0162002521565b808301905060ff60f81b8860f81b1681526bffffffffffffffffffffffff198760601b16600182015285601582015284603582015283516200216c81605584016020880162002521565b0160550198975050505050505050565b600082516200219081846020870162002521565b64081313d3d560da1b920191825250600501919050565b60008251620021bb81846020870162002521565b640b5313d3d560da1b920191825250600501919050565b60ff60f81b8660f81b1681526bffffffffffffffffffffffff198560601b166001820152836015820152826035820152600082516200221981605585016020870162002521565b919091016055019695505050505050565b6001600160a01b03841681526060602082018190526000906200225090830185620020c2565b9050826040830152949350505050565b6001600160a01b0387811682528681166020830152858116604083015284811660608301528316608082015260c060a08201819052600090620022a690830184620020c2565b98975050505050505050565b6001600160a01b0383168152604060208201819052600090620022d890830184620020c2565b949350505050565b6101008082528951908201819052600090610120830190602090818d01845b82811015620023265781516001600160a01b031685529383019390830190600101620022ff565b50505083018a90526001600160a01b03891660408401528281036060840152620023518189620020c2565b9150506200236a60808301876001600160a01b03169052565b6001600160a01b03851660a08301528360c08301526200239560e08301846001600160a01b03169052565b9998505050505050505050565b60208152600062001ae86020830184620020c2565b604081526000620023cc6040830185620020c2565b828103602084015262001ac28185620020c2565b6020808252602c908201527f46756e6374696f6e206d7573742062652063616c6c6564207468726f7567682060408201526b19195b1959d85d1958d85b1b60a21b606082015260800190565b6020808252602c908201527f46756e6374696f6e206d7573742062652063616c6c6564207468726f7567682060408201526b6163746976652070726f787960a01b606082015260800190565b6020808252602b908201527f496e697469616c697a61626c653a20636f6e7472616374206973206e6f74206960408201526a6e697469616c697a696e6760a81b606082015260800190565b604051601f8201601f1916810167ffffffffffffffff81118282101715620024ef57620024ef6200259a565b604052919050565b600082198211156200250d576200250d6200256e565b500190565b600062001ae836848462001b2a565b60005b838110156200253e57818101518382015260200162002524565b83811115620019515750506000910152565b60006000198214156200256757620025676200256e565b5060010190565b634e487b7160e01b600052601160045260246000fd5b634e487b7160e01b600052603260045260246000fd5b634e487b7160e01b600052604160045260246000fd5b6001600160a01b03811681146200056a57600080fdfe6080604052604051610735380380610735833981016040819052610022916102dc565b61002e82826000610035565b505061043b565b61003e8361006b565b60008251118061004b5750805b156100665761006483836100ab60201b6100291760201c565b505b505050565b610074816100d7565b6040516001600160a01b038216907fbc7cd75a20ee27fd9adebab32041f755214dbc6bffa90cc0225b39da2e5c2d3b90600090a250565b60606100d0838360405180606001604052806027815260200161070e602791396101a9565b9392505050565b6100ea8161022260201b6100551760201c565b6101515760405162461bcd60e51b815260206004820152602d60248201527f455243313936373a206e657720696d706c656d656e746174696f6e206973206e60448201526c1bdd08184818dbdb9d1c9858dd609a1b60648201526084015b60405180910390fd5b806101887f360894a13ba1a3210667c828492db98dca3e2076cc3735a920a3ca505d382bbc60001b61023160201b6100641760201c565b80546001600160a01b0319166001600160a01b039290921691909117905550565b6060600080856001600160a01b0316856040516101c691906103aa565b600060405180830381855af49150503d8060008114610201576040519150601f19603f3d011682016040523d82523d6000602084013e610206565b606091505b50909250905061021886838387610234565b9695505050505050565b6001600160a01b03163b151590565b90565b606083156102a0578251610299576001600160a01b0385163b6102995760405162461bcd60e51b815260206004820152601d60248201527f416464726573733a2063616c6c20746f206e6f6e2d636f6e74726163740000006044820152606401610148565b50816102aa565b6102aa83836102b2565b949350505050565b8151156102c25781518083602001fd5b8060405162461bcd60e51b815260040161014891906103c6565b600080604083850312156102ef57600080fd5b82516001600160a01b038116811461030657600080fd5b60208401519092506001600160401b038082111561032357600080fd5b818501915085601f83011261033757600080fd5b81518181111561034957610349610425565b604051601f8201601f19908116603f0116810190838211818310171561037157610371610425565b8160405282815288602084870101111561038a57600080fd5b61039b8360208301602088016103f9565b80955050505050509250929050565b600082516103bc8184602087016103f9565b9190910192915050565b60208152600082518060208401526103e58160408501602087016103f9565b601f01601f19169190910160400192915050565b60005b838110156104145781810151838201526020016103fc565b838111156100645750506000910152565b634e487b7160e01b600052604160045260246000fd5b6102c48061044a6000396000f3fe60806040523661001357610011610017565b005b6100115b610027610022610067565b61009f565b565b606061004e8383604051806060016040528060278152602001610268602791396100c3565b9392505050565b6001600160a01b03163b151590565b90565b600061009a7f360894a13ba1a3210667c828492db98dca3e2076cc3735a920a3ca505d382bbc546001600160a01b031690565b905090565b3660008037600080366000845af43d6000803e8080156100be573d6000f35b3d6000fd5b6060600080856001600160a01b0316856040516100e091906101e8565b600060405180830381855af49150503d806000811461011b576040519150601f19603f3d011682016040523d82523d6000602084013e610120565b606091505b50915091506101318683838761013b565b9695505050505050565b606083156101ac5782516101a5576001600160a01b0385163b6101a55760405162461bcd60e51b815260206004820152601d60248201527f416464726573733a2063616c6c20746f206e6f6e2d636f6e747261637400000060448201526064015b60405180910390fd5b50816101b6565b6101b683836101be565b949350505050565b8151156101ce5781518083602001fd5b8060405162461bcd60e51b815260040161019c9190610204565b600082516101fa818460208701610237565b9190910192915050565b6020815260008251806020840152610223816040850160208701610237565b601f01601f19169190910160400192915050565b60005b8381101561025257818101518382015260200161023a565b83811115610261576000848401525b5050505056fe416464726573733a206c6f772d6c6576656c2064656c65676174652063616c6c206661696c6564a26469706673582212206c0dbbf9b7cea0b39475b09af2676b6d09e25394c7e441ee3ecd8d988bc0d67964736f6c63430008070033416464726573733a206c6f772d6c6576656c2064656c65676174652063616c6c206661696c6564360894a13ba1a3210667c828492db98dca3e2076cc3735a920a3ca505d382bbc416464726573733a206c6f772d6c6576656c2064656c65676174652063616c6c206661696c6564a2646970667358221220eca5596dad40532f97072a78175faf1f5910d4ad8e467469e2a490b50bd1f3b364736f6c63430008070033",
  "history": [
    {
      "address": "0x7e988A9db2F8597735fc68D21060Daed948a3e8C",
      "abi": [
        {
          "anonymous": false,
          "inputs": [
            {
              "indexed": false,
              "internalType": "address",
              "name": "previousAdmin",
              "type": "address"
            },
            {
              "indexed": false,
              "internalType": "address",
              "name": "newAdmin",
              "type": "address"
            }
          ],
          "name": "AdminChanged",
          "type": "event"
        },
        {
          "anonymous": false,
          "inputs": [
            {
              "indexed": true,
              "internalType": "address",
              "name": "beacon",
              "type": "address"
            }
          ],
          "name": "BeaconUpgraded",
          "type": "event"
        },
        {
          "anonymous": false,
          "inputs": [
            {
              "indexed": false,
              "internalType": "bytes32",
              "name": "referrer",
              "type": "bytes32"
            },
            {
              "indexed": false,
              "internalType": "address",
              "name": "daoAddress",
              "type": "address"
            }
          ],
          "name": "DaoReferral",
          "type": "event"
        },
        {
          "anonymous": false,
          "inputs": [
            {
              "indexed": false,
              "internalType": "address",
              "name": "baalSafe",
              "type": "address"
            },
            {
              "indexed": false,
              "internalType": "address",
              "name": "moduleAddr",
              "type": "address"
            }
          ],
          "name": "DeployBaalSafe",
          "type": "event"
        },
        {
          "anonymous": false,
          "inputs": [
            {
              "indexed": false,
              "internalType": "address",
              "name": "lootToken",
              "type": "address"
            },
            {
              "indexed": false,
              "internalType": "address",
              "name": "sharesToken",
              "type": "address"
            }
          ],
          "name": "DeployBaalTokens",
          "type": "event"
        },
        {
          "anonymous": false,
          "inputs": [
            {
              "indexed": false,
              "internalType": "uint8",
              "name": "version",
              "type": "uint8"
            }
          ],
          "name": "Initialized",
          "type": "event"
        },
        {
          "anonymous": false,
          "inputs": [
            {
              "indexed": true,
              "internalType": "address",
              "name": "previousOwner",
              "type": "address"
            },
            {
              "indexed": true,
              "internalType": "address",
              "name": "newOwner",
              "type": "address"
            }
          ],
          "name": "OwnershipTransferred",
          "type": "event"
        },
        {
          "anonymous": false,
          "inputs": [
            {
              "indexed": false,
              "internalType": "uint256",
              "name": "version",
              "type": "uint256"
            }
          ],
          "name": "SetAddrsVersion",
          "type": "event"
        },
        {
          "anonymous": false,
          "inputs": [
            {
              "indexed": true,
              "internalType": "address",
              "name": "baal",
              "type": "address"
            },
            {
              "indexed": true,
              "internalType": "address",
              "name": "loot",
              "type": "address"
            },
            {
              "indexed": true,
              "internalType": "address",
              "name": "shares",
              "type": "address"
            },
            {
              "indexed": false,
              "internalType": "address",
              "name": "safe",
              "type": "address"
            },
            {
              "indexed": false,
              "internalType": "address",
              "name": "forwarder",
              "type": "address"
            },
            {
              "indexed": false,
              "internalType": "uint256",
              "name": "existingAddrs",
              "type": "uint256"
            }
          ],
          "name": "SummonBaal",
          "type": "event"
        },
        {
          "anonymous": false,
          "inputs": [
            {
              "indexed": true,
              "internalType": "address",
              "name": "implementation",
              "type": "address"
            }
          ],
          "name": "Upgraded",
          "type": "event"
        },
        {
          "inputs": [],
          "name": "addrsVersion",
          "outputs": [
            {
              "internalType": "uint256",
              "name": "",
              "type": "uint256"
            }
          ],
          "stateMutability": "view",
          "type": "function"
        },
        {
          "inputs": [
            {
              "internalType": "address",
              "name": "_moduleAddr",
              "type": "address"
            }
          ],
          "name": "deployAndSetupSafe",
          "outputs": [
            {
              "internalType": "address",
              "name": "",
              "type": "address"
            }
          ],
          "stateMutability": "nonpayable",
          "type": "function"
        },
        {
          "inputs": [
            {
              "internalType": "string",
              "name": "_name",
              "type": "string"
            },
            {
              "internalType": "string",
              "name": "_symbol",
              "type": "string"
            }
          ],
          "name": "deployTokens",
          "outputs": [
            {
              "internalType": "address",
              "name": "lootToken",
              "type": "address"
            },
            {
              "internalType": "address",
              "name": "sharesToken",
              "type": "address"
            }
          ],
          "stateMutability": "nonpayable",
          "type": "function"
        },
        {
          "inputs": [
            {
              "internalType": "bytes[]",
              "name": "_calls",
              "type": "bytes[]"
            },
            {
              "internalType": "address",
              "name": "_target",
              "type": "address"
            }
          ],
          "name": "encodeMultisend",
          "outputs": [
            {
              "internalType": "bytes",
              "name": "encodedMultisend",
              "type": "bytes"
            }
          ],
          "stateMutability": "pure",
          "type": "function"
        },
        {
          "inputs": [],
          "name": "gnosisFallbackLibrary",
          "outputs": [
            {
              "internalType": "address",
              "name": "",
              "type": "address"
            }
          ],
          "stateMutability": "view",
          "type": "function"
        },
        {
          "inputs": [],
          "name": "gnosisMultisendLibrary",
          "outputs": [
            {
              "internalType": "address",
              "name": "",
              "type": "address"
            }
          ],
          "stateMutability": "view",
          "type": "function"
        },
        {
          "inputs": [],
          "name": "gnosisSingleton",
          "outputs": [
            {
              "internalType": "address",
              "name": "",
              "type": "address"
            }
          ],
          "stateMutability": "view",
          "type": "function"
        },
        {
          "inputs": [],
          "name": "initialize",
          "outputs": [],
          "stateMutability": "nonpayable",
          "type": "function"
        },
        {
          "inputs": [],
          "name": "lootSingleton",
          "outputs": [
            {
              "internalType": "address",
              "name": "",
              "type": "address"
            }
          ],
          "stateMutability": "view",
          "type": "function"
        },
        {
          "inputs": [],
          "name": "owner",
          "outputs": [
            {
              "internalType": "address",
              "name": "",
              "type": "address"
            }
          ],
          "stateMutability": "view",
          "type": "function"
        },
        {
          "inputs": [],
          "name": "proxiableUUID",
          "outputs": [
            {
              "internalType": "bytes32",
              "name": "",
              "type": "bytes32"
            }
          ],
          "stateMutability": "view",
          "type": "function"
        },
        {
          "inputs": [],
          "name": "renounceOwnership",
          "outputs": [],
          "stateMutability": "nonpayable",
          "type": "function"
        },
        {
          "inputs": [
            {
              "internalType": "address payable",
              "name": "_template",
              "type": "address"
            },
            {
              "internalType": "address",
              "name": "_gnosisSingleton",
              "type": "address"
            },
            {
              "internalType": "address",
              "name": "_gnosisFallbackLibrary",
              "type": "address"
            },
            {
              "internalType": "address",
              "name": "_gnosisMultisendLibrary",
              "type": "address"
            },
            {
              "internalType": "address",
              "name": "_gnosisSafeProxyFactory",
              "type": "address"
            },
            {
              "internalType": "address",
              "name": "_moduleProxyFactory",
              "type": "address"
            },
            {
              "internalType": "address",
              "name": "_lootSingleton",
              "type": "address"
            },
            {
              "internalType": "address",
              "name": "_sharesSingleton",
              "type": "address"
            }
          ],
          "name": "setAddrs",
          "outputs": [],
          "stateMutability": "nonpayable",
          "type": "function"
        },
        {
          "inputs": [],
          "name": "sharesSingleton",
          "outputs": [
            {
              "internalType": "address",
              "name": "",
              "type": "address"
            }
          ],
          "stateMutability": "view",
          "type": "function"
        },
        {
          "inputs": [
            {
              "internalType": "bytes",
              "name": "initializationParams",
              "type": "bytes"
            },
            {
              "internalType": "bytes[]",
              "name": "initializationActions",
              "type": "bytes[]"
            },
            {
              "internalType": "uint256",
              "name": "_saltNonce",
              "type": "uint256"
            }
          ],
          "name": "summonBaal",
          "outputs": [
            {
              "internalType": "address",
              "name": "",
              "type": "address"
            }
          ],
          "stateMutability": "nonpayable",
          "type": "function"
        },
        {
          "inputs": [
            {
              "internalType": "bytes",
              "name": "initializationParams",
              "type": "bytes"
            },
            {
              "internalType": "bytes[]",
              "name": "initializationActions",
              "type": "bytes[]"
            },
            {
              "internalType": "uint256",
              "name": "_saltNonce",
              "type": "uint256"
            },
            {
              "internalType": "bytes32",
              "name": "referrer",
              "type": "bytes32"
            }
          ],
          "name": "summonBaalFromReferrer",
          "outputs": [
            {
              "internalType": "address",
              "name": "",
              "type": "address"
            }
          ],
          "stateMutability": "payable",
          "type": "function"
        },
        {
          "inputs": [],
          "name": "template",
          "outputs": [
            {
              "internalType": "address payable",
              "name": "",
              "type": "address"
            }
          ],
          "stateMutability": "view",
          "type": "function"
        },
        {
          "inputs": [
            {
              "internalType": "address",
              "name": "newOwner",
              "type": "address"
            }
          ],
          "name": "transferOwnership",
          "outputs": [],
          "stateMutability": "nonpayable",
          "type": "function"
        },
        {
          "inputs": [
            {
              "internalType": "address",
              "name": "newImplementation",
              "type": "address"
            }
          ],
          "name": "upgradeTo",
          "outputs": [],
          "stateMutability": "nonpayable",
          "type": "function"
        },
        {
          "inputs": [
            {
              "internalType": "address",
              "name": "newImplementation",
              "type": "address"
            },
            {
              "internalType": "bytes",
              "name": "data",
              "type": "bytes"
            }
          ],
          "name": "upgradeToAndCall",
          "outputs": [],
          "stateMutability": "payable",
          "type": "function"
        }
      ],
      "args": [],
      "numDeployments": 3,
      "linkedData": {},
      "solcInputHash": "a128f2a31ecf0f1507d09c047cd019fe",
      "metadata": "{\"compiler\":{\"version\":\"0.8.7+commit.e28d00a7\"},\"language\":\"Solidity\",\"output\":{\"abi\":[{\"anonymous\":false,\"inputs\":[{\"indexed\":false,\"internalType\":\"address\",\"name\":\"previousAdmin\",\"type\":\"address\"},{\"indexed\":false,\"internalType\":\"address\",\"name\":\"newAdmin\",\"type\":\"address\"}],\"name\":\"AdminChanged\",\"type\":\"event\"},{\"anonymous\":false,\"inputs\":[{\"indexed\":true,\"internalType\":\"address\",\"name\":\"beacon\",\"type\":\"address\"}],\"name\":\"BeaconUpgraded\",\"type\":\"event\"},{\"anonymous\":false,\"inputs\":[{\"indexed\":false,\"internalType\":\"bytes32\",\"name\":\"referrer\",\"type\":\"bytes32\"},{\"indexed\":false,\"internalType\":\"address\",\"name\":\"daoAddress\",\"type\":\"address\"}],\"name\":\"DaoReferral\",\"type\":\"event\"},{\"anonymous\":false,\"inputs\":[{\"indexed\":false,\"internalType\":\"address\",\"name\":\"baalSafe\",\"type\":\"address\"},{\"indexed\":false,\"internalType\":\"address\",\"name\":\"moduleAddr\",\"type\":\"address\"}],\"name\":\"DeployBaalSafe\",\"type\":\"event\"},{\"anonymous\":false,\"inputs\":[{\"indexed\":false,\"internalType\":\"address\",\"name\":\"lootToken\",\"type\":\"address\"},{\"indexed\":false,\"internalType\":\"address\",\"name\":\"sharesToken\",\"type\":\"address\"}],\"name\":\"DeployBaalTokens\",\"type\":\"event\"},{\"anonymous\":false,\"inputs\":[{\"indexed\":false,\"internalType\":\"uint8\",\"name\":\"version\",\"type\":\"uint8\"}],\"name\":\"Initialized\",\"type\":\"event\"},{\"anonymous\":false,\"inputs\":[{\"indexed\":true,\"internalType\":\"address\",\"name\":\"previousOwner\",\"type\":\"address\"},{\"indexed\":true,\"internalType\":\"address\",\"name\":\"newOwner\",\"type\":\"address\"}],\"name\":\"OwnershipTransferred\",\"type\":\"event\"},{\"anonymous\":false,\"inputs\":[{\"indexed\":false,\"internalType\":\"uint256\",\"name\":\"version\",\"type\":\"uint256\"}],\"name\":\"SetAddrsVersion\",\"type\":\"event\"},{\"anonymous\":false,\"inputs\":[{\"indexed\":true,\"internalType\":\"address\",\"name\":\"baal\",\"type\":\"address\"},{\"indexed\":true,\"internalType\":\"address\",\"name\":\"loot\",\"type\":\"address\"},{\"indexed\":true,\"internalType\":\"address\",\"name\":\"shares\",\"type\":\"address\"},{\"indexed\":false,\"internalType\":\"address\",\"name\":\"safe\",\"type\":\"address\"},{\"indexed\":false,\"internalType\":\"address\",\"name\":\"forwarder\",\"type\":\"address\"},{\"indexed\":false,\"internalType\":\"uint256\",\"name\":\"existingAddrs\",\"type\":\"uint256\"}],\"name\":\"SummonBaal\",\"type\":\"event\"},{\"anonymous\":false,\"inputs\":[{\"indexed\":true,\"internalType\":\"address\",\"name\":\"implementation\",\"type\":\"address\"}],\"name\":\"Upgraded\",\"type\":\"event\"},{\"inputs\":[],\"name\":\"addrsVersion\",\"outputs\":[{\"internalType\":\"uint256\",\"name\":\"\",\"type\":\"uint256\"}],\"stateMutability\":\"view\",\"type\":\"function\"},{\"inputs\":[{\"internalType\":\"address\",\"name\":\"_moduleAddr\",\"type\":\"address\"}],\"name\":\"deployAndSetupSafe\",\"outputs\":[{\"internalType\":\"address\",\"name\":\"\",\"type\":\"address\"}],\"stateMutability\":\"nonpayable\",\"type\":\"function\"},{\"inputs\":[{\"internalType\":\"string\",\"name\":\"_name\",\"type\":\"string\"},{\"internalType\":\"string\",\"name\":\"_symbol\",\"type\":\"string\"}],\"name\":\"deployTokens\",\"outputs\":[{\"internalType\":\"address\",\"name\":\"lootToken\",\"type\":\"address\"},{\"internalType\":\"address\",\"name\":\"sharesToken\",\"type\":\"address\"}],\"stateMutability\":\"nonpayable\",\"type\":\"function\"},{\"inputs\":[{\"internalType\":\"bytes[]\",\"name\":\"_calls\",\"type\":\"bytes[]\"},{\"internalType\":\"address\",\"name\":\"_target\",\"type\":\"address\"}],\"name\":\"encodeMultisend\",\"outputs\":[{\"internalType\":\"bytes\",\"name\":\"encodedMultisend\",\"type\":\"bytes\"}],\"stateMutability\":\"pure\",\"type\":\"function\"},{\"inputs\":[],\"name\":\"gnosisFallbackLibrary\",\"outputs\":[{\"internalType\":\"address\",\"name\":\"\",\"type\":\"address\"}],\"stateMutability\":\"view\",\"type\":\"function\"},{\"inputs\":[],\"name\":\"gnosisMultisendLibrary\",\"outputs\":[{\"internalType\":\"address\",\"name\":\"\",\"type\":\"address\"}],\"stateMutability\":\"view\",\"type\":\"function\"},{\"inputs\":[],\"name\":\"gnosisSingleton\",\"outputs\":[{\"internalType\":\"address\",\"name\":\"\",\"type\":\"address\"}],\"stateMutability\":\"view\",\"type\":\"function\"},{\"inputs\":[],\"name\":\"initialize\",\"outputs\":[],\"stateMutability\":\"nonpayable\",\"type\":\"function\"},{\"inputs\":[],\"name\":\"lootSingleton\",\"outputs\":[{\"internalType\":\"address\",\"name\":\"\",\"type\":\"address\"}],\"stateMutability\":\"view\",\"type\":\"function\"},{\"inputs\":[],\"name\":\"owner\",\"outputs\":[{\"internalType\":\"address\",\"name\":\"\",\"type\":\"address\"}],\"stateMutability\":\"view\",\"type\":\"function\"},{\"inputs\":[],\"name\":\"proxiableUUID\",\"outputs\":[{\"internalType\":\"bytes32\",\"name\":\"\",\"type\":\"bytes32\"}],\"stateMutability\":\"view\",\"type\":\"function\"},{\"inputs\":[],\"name\":\"renounceOwnership\",\"outputs\":[],\"stateMutability\":\"nonpayable\",\"type\":\"function\"},{\"inputs\":[{\"internalType\":\"address payable\",\"name\":\"_template\",\"type\":\"address\"},{\"internalType\":\"address\",\"name\":\"_gnosisSingleton\",\"type\":\"address\"},{\"internalType\":\"address\",\"name\":\"_gnosisFallbackLibrary\",\"type\":\"address\"},{\"internalType\":\"address\",\"name\":\"_gnosisMultisendLibrary\",\"type\":\"address\"},{\"internalType\":\"address\",\"name\":\"_gnosisSafeProxyFactory\",\"type\":\"address\"},{\"internalType\":\"address\",\"name\":\"_moduleProxyFactory\",\"type\":\"address\"},{\"internalType\":\"address\",\"name\":\"_lootSingleton\",\"type\":\"address\"},{\"internalType\":\"address\",\"name\":\"_sharesSingleton\",\"type\":\"address\"}],\"name\":\"setAddrs\",\"outputs\":[],\"stateMutability\":\"nonpayable\",\"type\":\"function\"},{\"inputs\":[],\"name\":\"sharesSingleton\",\"outputs\":[{\"internalType\":\"address\",\"name\":\"\",\"type\":\"address\"}],\"stateMutability\":\"view\",\"type\":\"function\"},{\"inputs\":[{\"internalType\":\"bytes\",\"name\":\"initializationParams\",\"type\":\"bytes\"},{\"internalType\":\"bytes[]\",\"name\":\"initializationActions\",\"type\":\"bytes[]\"},{\"internalType\":\"uint256\",\"name\":\"_saltNonce\",\"type\":\"uint256\"}],\"name\":\"summonBaal\",\"outputs\":[{\"internalType\":\"address\",\"name\":\"\",\"type\":\"address\"}],\"stateMutability\":\"nonpayable\",\"type\":\"function\"},{\"inputs\":[{\"internalType\":\"bytes\",\"name\":\"initializationParams\",\"type\":\"bytes\"},{\"internalType\":\"bytes[]\",\"name\":\"initializationActions\",\"type\":\"bytes[]\"},{\"internalType\":\"uint256\",\"name\":\"_saltNonce\",\"type\":\"uint256\"},{\"internalType\":\"bytes32\",\"name\":\"referrer\",\"type\":\"bytes32\"}],\"name\":\"summonBaalFromReferrer\",\"outputs\":[{\"internalType\":\"address\",\"name\":\"\",\"type\":\"address\"}],\"stateMutability\":\"payable\",\"type\":\"function\"},{\"inputs\":[],\"name\":\"template\",\"outputs\":[{\"internalType\":\"address payable\",\"name\":\"\",\"type\":\"address\"}],\"stateMutability\":\"view\",\"type\":\"function\"},{\"inputs\":[{\"internalType\":\"address\",\"name\":\"newOwner\",\"type\":\"address\"}],\"name\":\"transferOwnership\",\"outputs\":[],\"stateMutability\":\"nonpayable\",\"type\":\"function\"},{\"inputs\":[{\"internalType\":\"address\",\"name\":\"newImplementation\",\"type\":\"address\"}],\"name\":\"upgradeTo\",\"outputs\":[],\"stateMutability\":\"nonpayable\",\"type\":\"function\"},{\"inputs\":[{\"internalType\":\"address\",\"name\":\"newImplementation\",\"type\":\"address\"},{\"internalType\":\"bytes\",\"name\":\"data\",\"type\":\"bytes\"}],\"name\":\"upgradeToAndCall\",\"outputs\":[],\"stateMutability\":\"payable\",\"type\":\"function\"}],\"devdoc\":{\"kind\":\"dev\",\"methods\":{\"owner()\":{\"details\":\"Returns the address of the current owner.\"},\"proxiableUUID()\":{\"details\":\"Implementation of the ERC1822 {proxiableUUID} function. This returns the storage slot used by the implementation. It is used to validate the implementation's compatibility when performing an upgrade. IMPORTANT: A proxy pointing at a proxiable contract should not be considered proxiable itself, because this risks bricking a proxy that upgrades to it, by delegating to itself until out of gas. Thus it is critical that this function revert if invoked through a proxy. This is guaranteed by the `notDelegated` modifier.\"},\"renounceOwnership()\":{\"details\":\"Leaves the contract without owner. It will not be possible to call `onlyOwner` functions anymore. Can only be called by the current owner. NOTE: Renouncing ownership will leave the contract without an owner, thereby removing any functionality that is only available to the owner.\"},\"transferOwnership(address)\":{\"details\":\"Transfers ownership of the contract to a new account (`newOwner`). Can only be called by the current owner.\"},\"upgradeTo(address)\":{\"details\":\"Upgrade the implementation of the proxy to `newImplementation`. Calls {_authorizeUpgrade}. Emits an {Upgraded} event.\"},\"upgradeToAndCall(address,bytes)\":{\"details\":\"Upgrade the implementation of the proxy to `newImplementation`, and subsequently execute the function call encoded in `data`. Calls {_authorizeUpgrade}. Emits an {Upgraded} event.\"}},\"version\":1},\"userdoc\":{\"kind\":\"user\",\"methods\":{},\"version\":1}},\"settings\":{\"compilationTarget\":{\"contracts/BaalSummoner.sol\":\"BaalSummoner\"},\"evmVersion\":\"london\",\"libraries\":{},\"metadata\":{\"bytecodeHash\":\"ipfs\"},\"optimizer\":{\"enabled\":true,\"runs\":200},\"remappings\":[]},\"sources\":{\"@gnosis.pm/safe-contracts/contracts/GnosisSafe.sol\":{\"keccak256\":\"0x2ca9e3e053c969b9364f62c50c2c25b92525db7fd0bad3ae1fb0c20dd575367c\",\"license\":\"LGPL-3.0-only\",\"urls\":[\"bzz-raw://ef1bceac49ae93b31aec41380862fdc267823c41e2dfefb9b7d70d0996e858e1\",\"dweb:/ipfs/QmWFU5bic2CGv8QgQ8bxJnjMfuJgNL2zZubt5hvzhcRZPc\"]},\"@gnosis.pm/safe-contracts/contracts/base/Executor.sol\":{\"keccak256\":\"0x4d3a900673473466bc27413fdbb11aae60b5580b792c49411f01544e0b24fe08\",\"license\":\"LGPL-3.0-only\",\"urls\":[\"bzz-raw://71ada0590998f47d1ee9759aa190c82d4b348d59a2f582747650d9720245a309\",\"dweb:/ipfs/Qmb9UudLoJpPutHVP9pXd1poP5CqFf5sxVFuYw14SYfRFk\"]},\"@gnosis.pm/safe-contracts/contracts/base/FallbackManager.sol\":{\"keccak256\":\"0x1be9f0f3e80a78134c2e3a026c6a14759785bd35d135e87a4a025aeb6742791f\",\"license\":\"LGPL-3.0-only\",\"urls\":[\"bzz-raw://44130f09921e895c0b9d7797de1d64940a8c43391efcda3a0208cb9ad96475a7\",\"dweb:/ipfs/QmUur4hzvCJ68PnW6zQFpemAMH2DH5mExPqSZdpKeY1ZRN\"]},\"@gnosis.pm/safe-contracts/contracts/base/GuardManager.sol\":{\"keccak256\":\"0x53a532a31f9632d5a73ad0df56f05bd2b66a2f781f571eb48d00367d370707f9\",\"license\":\"LGPL-3.0-only\",\"urls\":[\"bzz-raw://eebc15cb7c83cf9516514b34bd16fb19c08104c738fa172ae3c98c66b84708ed\",\"dweb:/ipfs/QmfJ4yX5WwHU58QVoxJFaejyerscTs6VCgn2TdUVrEZeTP\"]},\"@gnosis.pm/safe-contracts/contracts/base/ModuleManager.sol\":{\"keccak256\":\"0x5512760a0328309f82a71cbe2ac14e0942501b9d44d5fb417bd02174546672e5\",\"license\":\"LGPL-3.0-only\",\"urls\":[\"bzz-raw://763cf803a98a921d62ed51d7876a13aed63968c828f026ce2beb747d2631c0bc\",\"dweb:/ipfs/QmbHZoYsbkxC2kVCs4pQ4nRaFrcgU5X8FuLX7vV3qDR9Y5\"]},\"@gnosis.pm/safe-contracts/contracts/base/OwnerManager.sol\":{\"keccak256\":\"0x01a3d64cc0967f42ae63802409f5404d18352516ea2a6335005003d919ffcf12\",\"license\":\"LGPL-3.0-only\",\"urls\":[\"bzz-raw://91824103f2966612103705d6493290e193b0c0ca2bbe7141965184435dbb999b\",\"dweb:/ipfs/Qmd7u917v4DnD4hvQGAGbchVJ8A7pm1UCzCv7sAzQnRoi4\"]},\"@gnosis.pm/safe-contracts/contracts/common/Enum.sol\":{\"keccak256\":\"0x473e45b1a5cc47be494b0e123c9127f0c11c1e0992a321ae5a644c0bfdb2c14f\",\"license\":\"LGPL-3.0-only\",\"urls\":[\"bzz-raw://948e6d5a8bd7377f7795b6e28584eab9be5c0a8db240bf5e606744a175238c3d\",\"dweb:/ipfs/QmQQaUmQfpuejV41jbxKSTgEBYYCcVTjCsDMgf2htgz6ej\"]},\"@gnosis.pm/safe-contracts/contracts/common/EtherPaymentFallback.sol\":{\"keccak256\":\"0x1a7928d29877da84a3d0df846d5cd933d48ee095c1bde0aa044e249b12e27a72\",\"license\":\"LGPL-3.0-only\",\"urls\":[\"bzz-raw://962fc098cfdd8a43cc7d294c1105718ea985cacf1172ea0426f7370e2096b830\",\"dweb:/ipfs/QmdZrxJ7dSWuTjbrN133YiRDLwYQr21zLr3CqWWtowY9Gu\"]},\"@gnosis.pm/safe-contracts/contracts/common/SecuredTokenTransfer.sol\":{\"keccak256\":\"0x178682d8477da42936c7e8e24d39094c4ac08ecd8623794b9535d77001b665f1\",\"license\":\"LGPL-3.0-only\",\"urls\":[\"bzz-raw://2ae8a6d5c7d4cc19c3b957c8857e87e92a4570effebf32ba54184c2b8375a0a2\",\"dweb:/ipfs/QmVNgRcRVgQZriJm8KVXQvRbHQf74wH7ABmBNTjBTqBa8r\"]},\"@gnosis.pm/safe-contracts/contracts/common/SelfAuthorized.sol\":{\"keccak256\":\"0x59d36efca578b75541a776f62a0d0ef03712fc27b6647c3915c14b572106d7bc\",\"license\":\"LGPL-3.0-only\",\"urls\":[\"bzz-raw://8530c6e0392415d42486847cd4368d30f6cac42051596330692a571fcdbb9e29\",\"dweb:/ipfs/QmWw51Pshw5t2sMKANzxtfNdBSQUyQQpfTr3Mi7oNJGk7U\"]},\"@gnosis.pm/safe-contracts/contracts/common/SignatureDecoder.sol\":{\"keccak256\":\"0x2d37be182472ccfee62a33e9939f9b3d509be4c32e9fdebc2c1746c573655987\",\"license\":\"LGPL-3.0-only\",\"urls\":[\"bzz-raw://f76d96f10640beee7d4b4ad119bd3c64aeb26929011d9c1eec738c63ebc92f63\",\"dweb:/ipfs/QmaqgDocQumKeyUMgZU7STzpTASQjDbUxbQKuZ17xhLaXz\"]},\"@gnosis.pm/safe-contracts/contracts/common/Singleton.sol\":{\"keccak256\":\"0x6e02c18998de8834dd7d69890cb6ede996b6f635d2337081a596d91e35e2c648\",\"license\":\"LGPL-3.0-only\",\"urls\":[\"bzz-raw://ce1dfe9f820352b6f95b350ac0b3fa8afc24ad77bffffc2c9e00462e2a41a666\",\"dweb:/ipfs/QmVr2dCUbNbg5e7UsgngGij5mybgkXcbf5e5cPhT21aFXA\"]},\"@gnosis.pm/safe-contracts/contracts/common/StorageAccessible.sol\":{\"keccak256\":\"0x36853adb266c2ab7d3c612aca799441a86bd15d9e1d24fc6c70d63f5c2df3aaf\",\"license\":\"LGPL-3.0-only\",\"urls\":[\"bzz-raw://3f210f47e032444049040d2929b32e02089aac1d05b07dcd77ee34bb63505dfa\",\"dweb:/ipfs/QmbE8GXFAbthieTL51S2XPF5URyPaj1tDubVuhztkSoiPo\"]},\"@gnosis.pm/safe-contracts/contracts/external/GnosisSafeMath.sol\":{\"keccak256\":\"0x2a2b4d74f5834a9437be0cd3254d7a676698fc78aa47941c2009470196998d98\",\"license\":\"LGPL-3.0-only\",\"urls\":[\"bzz-raw://ea04449ba8b78ec44f3463b68cbce971875626e91d028add50900c41101a1156\",\"dweb:/ipfs/QmR95ci4HVkJuyYGvYRHVpp6N3wefu5WVDhipKwRechWV6\"]},\"@gnosis.pm/safe-contracts/contracts/interfaces/ISignatureValidator.sol\":{\"keccak256\":\"0x5b6e9bf17f28738ce88e751f420b0559f5151ba7bec2ff3c7bb31e42673d6801\",\"license\":\"LGPL-3.0-only\",\"urls\":[\"bzz-raw://bfdde8390deb619e38f98be67c5f9d26f12623855540af76b9f454142d3896c1\",\"dweb:/ipfs/QmZrr1ocToR5S62W177qV2csfs7wCQNs3t9vatyx32uLXz\"]},\"@gnosis.pm/safe-contracts/contracts/proxies/GnosisSafeProxy.sol\":{\"keccak256\":\"0x3bfdd453d9f896f7029d15bcafd11886957b320ad1764309d9f74fa059715249\",\"license\":\"LGPL-3.0-only\",\"urls\":[\"bzz-raw://5b5b7d0c8a900ba758e012236bf1c55e885fe5716aa79f6f693d22c31c85f7d5\",\"dweb:/ipfs/QmUq5oNsZY1b5pcYAzrY1i9oqyPUaiFhLaEWgB9ML6LrBj\"]},\"@gnosis.pm/safe-contracts/contracts/proxies/GnosisSafeProxyFactory.sol\":{\"keccak256\":\"0x187c6f84c71b432da6721c1b81cebfbb9c37c0cc15ebd8de5a14ff7ec6db2d9e\",\"license\":\"LGPL-3.0-only\",\"urls\":[\"bzz-raw://cfe1ac5a4ba0475db666912d5b4397d8fae96342c27a47a664a881e24377ed38\",\"dweb:/ipfs/QmVcaZrvPbH2csouaU3r1quFtugC4AUeCbrzBBmXSYk9W6\"]},\"@gnosis.pm/safe-contracts/contracts/proxies/IProxyCreationCallback.sol\":{\"keccak256\":\"0x51a9ce914a6a943651c803541e44218a7ed0a2f98a94d55df66b173b5a11e365\",\"license\":\"LGPL-3.0-only\",\"urls\":[\"bzz-raw://5216ed8181c14d462ec821593c8f90f33c7dbe8b4c505a1092bf31a9d33132b9\",\"dweb:/ipfs/Qmbb2wkgijuTcEbGR7CnmiAtwZDyruQ2b1ged4HnLysQnT\"]},\"@gnosis.pm/zodiac/contracts/core/Module.sol\":{\"keccak256\":\"0x1b9b6f3b43db68f3c142b326544115d1b1fa1f319c980922ea0a29aa80f53664\",\"license\":\"LGPL-3.0-only\",\"urls\":[\"bzz-raw://89c48fe4addf27af8b1cbc3cad8a0b27fde67d0de8b29aba811b9d4cb97c6112\",\"dweb:/ipfs/QmNoJhTbtVv2J237BsMPfuNwSkPAq6zsAr2FNrnUkVBp3X\"]},\"@gnosis.pm/zodiac/contracts/factory/FactoryFriendly.sol\":{\"keccak256\":\"0x96e61585b7340a901a54eb4c157ce28b630bff3d9d4597dfaac692128ea458c4\",\"license\":\"LGPL-3.0-only\",\"urls\":[\"bzz-raw://26252f06a8f31d7fe771b50fde9a6338133750bf05f7fc421dfa70c1df25ed7b\",\"dweb:/ipfs/QmQrZ4Zgvi3andou57Be9qpMmZatMx88rMxp3DPwUaFPsR\"]},\"@gnosis.pm/zodiac/contracts/factory/ModuleProxyFactory.sol\":{\"keccak256\":\"0x70f6f1d88cf3382748e58f85ba87279f5bb8761863c293dd8c197a71ff558761\",\"license\":\"LGPL-3.0-only\",\"urls\":[\"bzz-raw://cd6aa9e49078fb8319d78b1cc847ed588f044ce7ea334693702418c0639d5691\",\"dweb:/ipfs/Qmaeeeid5BgYjUPBnoUJUFL1VJKrzdzUYBLmu3CmhyeLz1\"]},\"@gnosis.pm/zodiac/contracts/guard/BaseGuard.sol\":{\"keccak256\":\"0xa825848d06a1fc3cb7ad86727c669c8fc6b3bd8dbe419a617830ddcd5e245e47\",\"license\":\"LGPL-3.0-only\",\"urls\":[\"bzz-raw://58bd190f4bb876471908d6145c6bebb9a22b5c9183192ffe199f4d94753f36bb\",\"dweb:/ipfs/QmYioir1PsjbCWAdCrFGJQiGHZM65umtb8qUSa63cb5Djq\"]},\"@gnosis.pm/zodiac/contracts/guard/Guardable.sol\":{\"keccak256\":\"0xebdcfbe7f0822d8afcc21a1ca8d809417b438cc8b27c3547190a1627a9f5110f\",\"license\":\"LGPL-3.0-only\",\"urls\":[\"bzz-raw://b1c6c35a0ed50d561d819c60423b7a5e6c7cbeaf61c5e0b83dab210def1dd4ec\",\"dweb:/ipfs/QmSz8F6MtuYZMvMJDmfpt8VxHFeVexqS7mpWJE6kuJ8ZAF\"]},\"@gnosis.pm/zodiac/contracts/interfaces/IAvatar.sol\":{\"keccak256\":\"0xcd5508ffe596eef8fbccfd5fc4f10a34397773547ce64e212d48b5212865ec1f\",\"license\":\"LGPL-3.0-only\",\"urls\":[\"bzz-raw://1655ba8b760132ebd702cc806fcdad50a44d320fbeca14be00e35b0171bd35cf\",\"dweb:/ipfs/QmcbB5HpCoEQCTHKWxHS3HpFmgaB4AcZxZYtvQk2QEyvN2\"]},\"@gnosis.pm/zodiac/contracts/interfaces/IGuard.sol\":{\"keccak256\":\"0xd0d855accbc5fba81c67ab22cdbb03325a8a4d7f6b7e981d1ff0fec3178e464d\",\"license\":\"LGPL-3.0-only\",\"urls\":[\"bzz-raw://4b51c586b33cc97caebe85472855bbb4c56a4e387b14cde2c8110b12ace7ba6b\",\"dweb:/ipfs/QmYtVdNKa5D2A4cEdTg9cYwrDio7TdNKtbAHc86x33W5wt\"]},\"@opengsn/contracts/src/BaseRelayRecipient.sol\":{\"keccak256\":\"0xce3168b37fc87ec34a18b56b4b16a06432119c07fd2e1d864b871dcf40372ebe\",\"license\":\"MIT\",\"urls\":[\"bzz-raw://99b6d76e111f18169a6c3f9043a843f188a02b5737dc35e6c6535ee04858f1c7\",\"dweb:/ipfs/QmeibhmsicNMWMw1gggSknJsbm1WUtZgGokGnzd4CCZzTw\"]},\"@opengsn/contracts/src/interfaces/IRelayRecipient.sol\":{\"keccak256\":\"0x199e82e0a2833a97213b5c16ac9b4e2b1814f2e90a4c4916855cbc21e710ad5f\",\"license\":\"MIT\",\"urls\":[\"bzz-raw://92112fc87990f2d55c538946266c48f43e6ca442186ef3b8172eb4632deb0db3\",\"dweb:/ipfs/QmU6pqFXYT8fYfyhw7viRA775eBH4W7PAd589DVFGtSgxo\"]},\"@openzeppelin/contracts-upgradeable/access/OwnableUpgradeable.sol\":{\"keccak256\":\"0x247c62047745915c0af6b955470a72d1696ebad4352d7d3011aef1a2463cd888\",\"license\":\"MIT\",\"urls\":[\"bzz-raw://d7fc8396619de513c96b6e00301b88dd790e83542aab918425633a5f7297a15a\",\"dweb:/ipfs/QmXbP4kiZyp7guuS7xe8KaybnwkRPGrBc2Kbi3vhcTfpxb\"]},\"@openzeppelin/contracts-upgradeable/interfaces/draft-IERC1822Upgradeable.sol\":{\"keccak256\":\"0x77c89f893e403efc6929ba842b7ccf6534d4ffe03afe31670b4a528c0ad78c0f\",\"license\":\"MIT\",\"urls\":[\"bzz-raw://496bd9b3df2455d571018c09f0c6badd29713fdeb907c6aa09d8d28cb603f053\",\"dweb:/ipfs/QmXdJDyYs6WMwMh21dez2BYPxhSUaUYFMDtVNcn2cgFR79\"]},\"@openzeppelin/contracts-upgradeable/proxy/ERC1967/ERC1967UpgradeUpgradeable.sol\":{\"keccak256\":\"0x315887e846f1e5f8d8fa535a229d318bb9290aaa69485117f1ee8a9a6b3be823\",\"license\":\"MIT\",\"urls\":[\"bzz-raw://29dda00da6d269685b555e710e4abf1c3eb6d00c15b888a7880a2f8dd3c4fdc2\",\"dweb:/ipfs/QmSqcjtdECygtT1Gy7uEo42x8542srpgGEeKKHfcnQqXgn\"]},\"@openzeppelin/contracts-upgradeable/proxy/beacon/IBeaconUpgradeable.sol\":{\"keccak256\":\"0x24b86ac8c005b8c654fbf6ac34a5a4f61580d7273541e83e013e89d66fbf0908\",\"license\":\"MIT\",\"urls\":[\"bzz-raw://4dbfe1a3b3b3fb64294ce41fd2ad362e7b7012208117864f42c1a67620a6d5c1\",\"dweb:/ipfs/QmVMU5tWt7zBQMmf5cpMX8UMHV86T3kFeTxBTBjFqVWfoJ\"]},\"@openzeppelin/contracts-upgradeable/proxy/utils/Initializable.sol\":{\"keccak256\":\"0xe798cadb41e2da274913e4b3183a80f50fb057a42238fe8467e077268100ec27\",\"license\":\"MIT\",\"urls\":[\"bzz-raw://899f850f7df5a270bccfb765d70069959ca1c20d3a7381c1c3bda8a3ffee1935\",\"dweb:/ipfs/QmVdnAqwyX2L3nX2HDA5WKGtVBFyH1nKE9A1k7fZnPBkhP\"]},\"@openzeppelin/contracts-upgradeable/proxy/utils/UUPSUpgradeable.sol\":{\"keccak256\":\"0x7967d130887c4b40666cd88f8744691d4527039a1b2a38aa0de41481ef646778\",\"license\":\"MIT\",\"urls\":[\"bzz-raw://40e60cbf0e2efede4d9c169e66336a64615af7b719a896ef1f37ae8cd4614ec1\",\"dweb:/ipfs/QmYNiwY22ifhfa8yK6mLCEKfj39caYUHLqe2VBtzDnvdsV\"]},\"@openzeppelin/contracts-upgradeable/security/ReentrancyGuardUpgradeable.sol\":{\"keccak256\":\"0x2b3005a0064cfc558bdf64b2bae94b565f4574a536aadd61c13838d4f2157790\",\"license\":\"MIT\",\"urls\":[\"bzz-raw://622c3eb87563e71585c9f538d1a196fe2d154dcc5b8f335e8770a8acc95e1f3a\",\"dweb:/ipfs/QmSnDqJJLzv3mirjGB1vrk5X7hegFdS7BKpscpxyqj7sWu\"]},\"@openzeppelin/contracts-upgradeable/utils/AddressUpgradeable.sol\":{\"keccak256\":\"0x2edcb41c121abc510932e8d83ff8b82cf9cdde35e7c297622f5c29ef0af25183\",\"license\":\"MIT\",\"urls\":[\"bzz-raw://72460c66cd1c3b1c11b863e0d8df0a1c56f37743019e468dc312c754f43e3b06\",\"dweb:/ipfs/QmPExYKiNb9PUsgktQBupPaM33kzDHxaYoVeJdLhv8s879\"]},\"@openzeppelin/contracts-upgradeable/utils/ContextUpgradeable.sol\":{\"keccak256\":\"0x963ea7f0b48b032eef72fe3a7582edf78408d6f834115b9feadd673a4d5bd149\",\"license\":\"MIT\",\"urls\":[\"bzz-raw://d6520943ea55fdf5f0bafb39ed909f64de17051bc954ff3e88c9e5621412c79c\",\"dweb:/ipfs/QmWZ4rAKTQbNG2HxGs46AcTXShsVytKeLs7CUCdCSv5N7a\"]},\"@openzeppelin/contracts-upgradeable/utils/StorageSlotUpgradeable.sol\":{\"keccak256\":\"0x09864aea84f01e39313375b5610c73a3c1c68abbdc51e5ccdd25ff977fdadf9a\",\"license\":\"MIT\",\"urls\":[\"bzz-raw://aedb48081190fa828d243529ce25c708202c7d4ccfe99f0e4ecd6bc0cfcd03f3\",\"dweb:/ipfs/QmWyiDQHPZA56iqsAwTmiJoxvNeRQLUVr4gTfzpdpXivpo\"]},\"@openzeppelin/contracts-upgradeable/utils/StringsUpgradeable.sol\":{\"keccak256\":\"0x6b9a5d35b744b25529a2856a8093e7c03fb35a34b1c4fb5499e560f8ade140da\",\"license\":\"MIT\",\"urls\":[\"bzz-raw://187b5c3a1c9e77678732a2cc5284237f9cfca6bc28ee8bc0a0f4f951d7b3a2f8\",\"dweb:/ipfs/Qmb2KFr7WuQu7btdCiftQG64vTzrG4UyzVmo53EYHcnHYA\"]},\"@openzeppelin/contracts-upgradeable/utils/cryptography/ECDSAUpgradeable.sol\":{\"keccak256\":\"0x12f297cafe6e2847ae0378502f155654d0764b532a9873c8afe4350950fa7971\",\"license\":\"MIT\",\"urls\":[\"bzz-raw://28074f6df7132e83819042a06ef75ae53c88c53c077b8222b9772b780d58bd58\",\"dweb:/ipfs/QmXXwSxWn4XGCy218fn3f2m3UmFNUiroeQ8sCR3vzNU6Wc\"]},\"@openzeppelin/contracts-upgradeable/utils/cryptography/EIP712Upgradeable.sol\":{\"keccak256\":\"0x3017aded62c4a2b9707f5f06f92934e592c1c9b6f384b91b51340a6d5f841931\",\"license\":\"MIT\",\"urls\":[\"bzz-raw://bb693afc2a614ec7afee965caaf5d53c3f32644e33286f60d17ae0e9aca84d44\",\"dweb:/ipfs/QmVJy43EBWvVT5NgpsV8WJfDHtZbnqZGMhmv1WbWaV5dJV\"]},\"@openzeppelin/contracts-upgradeable/utils/cryptography/draft-EIP712Upgradeable.sol\":{\"keccak256\":\"0x31a2e227f5653e4b31e0f680857b8842073d083b33df11b3f3b3bb5ddc10526e\",\"license\":\"MIT\",\"urls\":[\"bzz-raw://051dd3770ecfea8fd28342b4e48c34d0cba9fbc2dbb1286d710d3d547d707018\",\"dweb:/ipfs/QmQp89U3xBRY7Xjw2HfozkMD3Yh64WvzJKQ1SHGRiEdm2J\"]},\"@openzeppelin/contracts-upgradeable/utils/math/MathUpgradeable.sol\":{\"keccak256\":\"0xc1bd5b53319c68f84e3becd75694d941e8f4be94049903232cd8bc7c535aaa5a\",\"license\":\"MIT\",\"urls\":[\"bzz-raw://056027a78e6f4b78a39be530983551651ee5a052e786ca2c1c6a3bb1222b03b4\",\"dweb:/ipfs/QmXRUpywAqNwAfXS89vrtiE2THRM9dX9pQ4QxAkV1Wx9kt\"]},\"@openzeppelin/contracts/interfaces/draft-IERC1822.sol\":{\"keccak256\":\"0x1d4afe6cb24200cc4545eed814ecf5847277dfe5d613a1707aad5fceecebcfff\",\"license\":\"MIT\",\"urls\":[\"bzz-raw://383fb7b8181016ac5ccf07bc9cdb7c1b5045ea36e2cc4df52bcbf20396fc7688\",\"dweb:/ipfs/QmYJ7Cg4WmE3rR8KGQxjUCXFfTH6TcwZ2Z1f6tPrq7jHFr\"]},\"@openzeppelin/contracts/proxy/ERC1967/ERC1967Proxy.sol\":{\"keccak256\":\"0xa2b22da3032e50b55f95ec1d13336102d675f341167aa76db571ef7f8bb7975d\",\"license\":\"MIT\",\"urls\":[\"bzz-raw://96b6d77a20bebd4eb06b801d3d020c7e82be13bd535cb0d0a6b7181c51dab5d5\",\"dweb:/ipfs/QmPUR9Cv9jNFdQX6PtBfaBW1ZCnKwiu65R2VD5kbdanDyn\"]},\"@openzeppelin/contracts/proxy/ERC1967/ERC1967Upgrade.sol\":{\"keccak256\":\"0xabf3f59bc0e5423eae45e459dbe92e7052c6983628d39008590edc852a62f94a\",\"license\":\"MIT\",\"urls\":[\"bzz-raw://89c2a0f70157c13845be5cb49b078a6374fee3a78fa950052a3af26190255da8\",\"dweb:/ipfs/QmUcvMEQH1oMM2pUyMuDiBUKdvvnTz1NRB8bmPHrVq8725\"]},\"@openzeppelin/contracts/proxy/Proxy.sol\":{\"keccak256\":\"0xc130fe33f1b2132158531a87734153293f6d07bc263ff4ac90e85da9c82c0e27\",\"license\":\"MIT\",\"urls\":[\"bzz-raw://8831721b6f4cc26534d190f9f1631c3f59c9ff38efdd911f85e0882b8e360472\",\"dweb:/ipfs/QmQZnLErZNStirSQ13ZNWQgvEYUtGE5tXYwn4QUPaVUfPN\"]},\"@openzeppelin/contracts/proxy/beacon/IBeacon.sol\":{\"keccak256\":\"0xd50a3421ac379ccb1be435fa646d66a65c986b4924f0849839f08692f39dde61\",\"license\":\"MIT\",\"urls\":[\"bzz-raw://ada1e030c0231db8d143b44ce92b4d1158eedb087880cad6d8cc7bd7ebe7b354\",\"dweb:/ipfs/QmWZ2NHZweRpz1U9GF6R1h65ri76dnX7fNxLBeM2t5N5Ce\"]},\"@openzeppelin/contracts/utils/Address.sol\":{\"keccak256\":\"0xf96f969e24029d43d0df89e59d365f277021dac62b48e1c1e3ebe0acdd7f1ca1\",\"license\":\"MIT\",\"urls\":[\"bzz-raw://ec772b45a624be516f1c81970caa8a2e144301e9d0921cbc1a2789fef39a1269\",\"dweb:/ipfs/QmNyjwxCrGhQMyzLD93oUobJXVe9ceJvRvfXwbEtuxPiEj\"]},\"@openzeppelin/contracts/utils/StorageSlot.sol\":{\"keccak256\":\"0xd5c50c54bf02740ebd122ff06832546cb5fa84486d52695a9ccfd11666e0c81d\",\"license\":\"MIT\",\"urls\":[\"bzz-raw://39e096c60a6eb1c6a257122d515496bd92d0c6a693a8f07acb6aa4b1263e95d4\",\"dweb:/ipfs/QmPs5trJBacCiSkezP6tpevapuRYWNY6mqSFzsMCJj7e6B\"]},\"@openzeppelin/contracts/utils/introspection/IERC165.sol\":{\"keccak256\":\"0x447a5f3ddc18419d41ff92b3773fb86471b1db25773e07f877f548918a185bf1\",\"license\":\"MIT\",\"urls\":[\"bzz-raw://be161e54f24e5c6fae81a12db1a8ae87bc5ae1b0ddc805d82a1440a68455088f\",\"dweb:/ipfs/QmP7C3CHdY9urF4dEMb9wmsp1wMxHF6nhA2yQE5SKiPAdy\"]},\"contracts/Baal.sol\":{\"keccak256\":\"0x273e4c8a1708ff252be03f14f12032a9a6fa1c48de3819a4a33902e4e4497a4c\",\"license\":\"MIT\",\"urls\":[\"bzz-raw://e9b078ee5d474b659c57e8a094bf113a70477fec37f08119a4e577ade1cd2b21\",\"dweb:/ipfs/QmbePm8oPTw8bhGEeShYoJiEXgnLMkfPdbFS9WWAx1F7SD\"]},\"contracts/BaalSummoner.sol\":{\"keccak256\":\"0x237bd051ebcae8652a7c4e359bd75f30fd59e04fbf813589e2ec4f079c3d8cc6\",\"license\":\"MIT\",\"urls\":[\"bzz-raw://d37e554c1600493df9e6ec59e74f8ad0badbd897138feab1ee24959712aa4d59\",\"dweb:/ipfs/QmPcMAMQwKq9WvbsLzFA2kn9jhoFDhxZossuJCHDr3iPTZ\"]},\"contracts/interfaces/IBaalToken.sol\":{\"keccak256\":\"0x4c057a382569403c59a92c88f3008664b3f957967f94505b82c78ce779282fce\",\"license\":\"MIT\",\"urls\":[\"bzz-raw://e25459627992b498fb0a715e3a9988f05ff8cecf142607d127062e3dfa64b14e\",\"dweb:/ipfs/QmZAdN1ZVqJUTzUm2thY8V2yBKbpBpkZ7aGAvk1rhtE9Vn\"]}},\"version\":1}",
      "bytecode": "0x60a06040523060601b60805234801561001757600080fd5b5060805160601c612d7861005260003960008181610483015281816104cf01528181610593015281816105d601526106720152612d786000f3fe608060405260043610620001375760003560e01c8063881e4ea411620000ad578063d9118ce7116200006c578063d9118ce71462000364578063ebfb8a431462000386578063f0fa28b914620003ab578063f2fde38b14620003cd578063f884231c14620003f257600080fd5b8063881e4ea414620002865780638da5cb5b14620002a857806397fc9fbb14620002c8578063a2346618146200030e578063d61f27ae146200033057600080fd5b80634f1ef28611620000fa5780634f1ef286146200020557806352d1902d146200021c5780636f2ddd931462000234578063715018a614620002565780638129fc1c146200026e57600080fd5b8063209f3695146200013c57806321d56a43146200017057806323626b4514620001925780633659cfe614620001b95780634a8b0b3214620001e0575b600080fd5b620001536200014d36600462001f1e565b62000417565b6040516001600160a01b0390911681526020015b60405180910390f35b3480156200017d57600080fd5b5060cb5462000153906001600160a01b031681565b3480156200019f57600080fd5b50620001aa60c95481565b60405190815260200162000167565b348015620001c657600080fd5b50620001de620001d836600462001ccc565b62000478565b005b348015620001ed57600080fd5b5062000153620001ff36600462001ea3565b6200056d565b620001de6200021636600462001dc6565b62000588565b3480156200022957600080fd5b50620001aa62000665565b3480156200024157600080fd5b5060ca5462000153906001600160a01b031681565b3480156200026357600080fd5b50620001de6200071b565b3480156200027b57600080fd5b50620001de62000733565b3480156200029357600080fd5b5060cd5462000153906001600160a01b031681565b348015620002b557600080fd5b506033546001600160a01b031662000153565b348015620002d557600080fd5b50620002ed620002e736600462001fa3565b62000856565b604080516001600160a01b0393841681529290911660208301520162000167565b3480156200031b57600080fd5b5060cf5462000153906001600160a01b031681565b3480156200033d57600080fd5b50620003556200034f36600462001e1c565b62000a17565b604051620001679190620023a2565b3480156200037157600080fd5b5060ce5462000153906001600160a01b031681565b3480156200039357600080fd5b50620001de620003a536600462001d0c565b62000aec565b348015620003b857600080fd5b5060cc5462000153906001600160a01b031681565b348015620003da57600080fd5b50620001de620003ec36600462001ccc565b62000df0565b348015620003ff57600080fd5b50620001536200041136600462001ccc565b62000e6c565b600080620004298888888888620010d4565b604080518581526001600160a01b03831660208201529192507fe1e7ecd08b1e119c2755872e95180d0d070137a7c2af361de1d7256bc3674107910160405180910390a1979650505050505050565b306001600160a01b037f0000000000000000000000000000000000000000000000000000000000000000161415620004cd5760405162461bcd60e51b8152600401620004c490620023e0565b60405180910390fd5b7f00000000000000000000000000000000000000000000000000000000000000006001600160a01b03166200051860008051602062002cfc833981519152546001600160a01b031690565b6001600160a01b031614620005415760405162461bcd60e51b8152600401620004c4906200242c565b6200054c81620015e4565b604080516000808252602082019092526200056a91839190620015ee565b50565b60006200057e8686868686620010d4565b9695505050505050565b306001600160a01b037f0000000000000000000000000000000000000000000000000000000000000000161415620005d45760405162461bcd60e51b8152600401620004c490620023e0565b7f00000000000000000000000000000000000000000000000000000000000000006001600160a01b03166200061f60008051602062002cfc833981519152546001600160a01b031690565b6001600160a01b031614620006485760405162461bcd60e51b8152600401620004c4906200242c565b6200065382620015e4565b6200066182826001620015ee565b5050565b6000306001600160a01b037f00000000000000000000000000000000000000000000000000000000000000001614620007075760405162461bcd60e51b815260206004820152603860248201527f555550535570677261646561626c653a206d757374206e6f742062652063616c60448201527f6c6564207468726f7567682064656c656761746563616c6c00000000000000006064820152608401620004c4565b5060008051602062002cfc83398151915290565b620007256200177b565b620007316000620017d7565b565b600054610100900460ff1615808015620007545750600054600160ff909116105b80620007705750303b15801562000770575060005460ff166001145b620007d55760405162461bcd60e51b815260206004820152602e60248201527f496e697469616c697a61626c653a20636f6e747261637420697320616c72656160448201526d191e481a5b9a5d1a585b1a5e995960921b6064820152608401620004c4565b6000805460ff191660011790558015620007f9576000805461ff0019166101001790555b6200080362001829565b6200080d6200185d565b80156200056a576000805461ff0019169055604051600181527f7f26b83ff96e1f2b6a682f133852f6798a09c465da95921460cefb38474024989060200160405180910390a150565b60ce5460405160009182916001600160a01b039091169063562d190d60e01b90620008869087906020016200217c565b60405160208183030381529060405285604051602001620008a89190620021a7565b60408051601f1981840301815290829052620008c89291602401620023b7565b60408051601f198184030181529181526020820180516001600160e01b03166001600160e01b0319909416939093179092529051620009079062001b1c565b62000914929190620022b2565b604051809103906000f08015801562000931573d6000803e3d6000fd5b5060cf546040519193506001600160a01b03169063562d190d60e01b90620009609087908790602401620023b7565b60408051601f198184030181529181526020820180516001600160e01b03166001600160e01b03199094169390931790925290516200099f9062001b1c565b620009ac929190620022b2565b604051809103906000f080158015620009c9573d6000803e3d6000fd5b50604080516001600160a01b038086168252831660208201529192507ffb5849d45e916a3192059973d782e08b2b3888fa796f536d99af0c7bd01ca16c910160405180910390a19250929050565b60608060005b845181101562000aa65781600085600088858151811062000a425762000a4262002584565b60200260200101515189868151811062000a605762000a6062002584565b602002602001015160405160200162000a7f969594939291906200210e565b6040516020818303038152906040529150808062000a9d9062002550565b91505062000a1d565b508060405160240162000aba9190620023a2565b60408051601f198184030181529190526020810180516001600160e01b03166346c07f8560e11b179052949350505050565b62000af66200177b565b6001600160a01b03821662000b3f5760405162461bcd60e51b815260206004820152600e60248201526d10b637b7ba29b4b733b632ba37b760911b6044820152606401620004c4565b6001600160a01b03811662000b8a5760405162461bcd60e51b815260206004820152601060248201526f10b9b430b932b9a9b4b733b632ba37b760811b6044820152606401620004c4565b6001600160a01b03871662000bd55760405162461bcd60e51b815260206004820152601060248201526f10b3b737b9b4b9a9b4b733b632ba37b760811b6044820152606401620004c4565b6001600160a01b03861662000c265760405162461bcd60e51b815260206004820152601660248201527521676e6f73697346616c6c6261636b4c69627261727960501b6044820152606401620004c4565b6001600160a01b03851662000c7e5760405162461bcd60e51b815260206004820152601760248201527f21676e6f7369734d756c746973656e644c6962726172790000000000000000006044820152606401620004c4565b6001600160a01b03841662000cd65760405162461bcd60e51b815260206004820152601760248201527f21676e6f7369735361666550726f7879466163746f72790000000000000000006044820152606401620004c4565b6001600160a01b03831662000d245760405162461bcd60e51b8152602060048201526013602482015272216d6f64756c6550726f7879466163746f727960681b6044820152606401620004c4565b60ca80546001600160a01b03199081166001600160a01b038b81169190911790925560cb805482168a841617905560cc8054821689841617905560cd8054821688841617905560d08054821687841617905560d18054821686841617905560ce8054821685841617905560cf805490911691831691909117905560c980547fe6fb5c8c5a2615df9d8de2df2fdebdae949bcf3a2a80cb8ff90ace3459de85cc91600062000dd18362002550565b9091555060405190815260200160405180910390a15050505050505050565b62000dfa6200177b565b6001600160a01b03811662000e615760405162461bcd60e51b815260206004820152602660248201527f4f776e61626c653a206e6577206f776e657220697320746865207a65726f206160448201526564647265737360d01b6064820152608401620004c4565b6200056a81620017d7565b60d05460cb5460408051602081018252600080825291516361b69abd60e01b8152919384936001600160a01b03918216936361b69abd9362000eb6939092169190600401620022b2565b602060405180830381600087803b15801562000ed157600080fd5b505af115801562000ee6573d6000803e3d6000fd5b505050506040513d601f19601f8201168201806040525081019062000f0c919062001cec565b6040516001600160a01b038516602482015290915060009060440160408051601f19818403018152918152602080830180516001600160e01b031663610b592560e01b1790528251915192935060009262000f719284928792849291889101620021d2565b604051602081830303815290604052905060008160405160240162000f979190620023a2565b60408051601f19818403018152918152602080830180516001600160e01b03166346c07f8560e11b1790528151600180825281840190935292935060009291908281019080368337019050509050868160008151811062000ffc5762000ffc62002584565b6001600160a01b03928316602091820292909201015260cd5460cc5460405163b63e800d60e01b81528884169363b63e800d9362001051938793600193928316928a92169060009081908190600401620022e0565b600060405180830381600087803b1580156200106c57600080fd5b505af115801562001081573d6000803e3d6000fd5b5050604080516001600160a01b03808a1682528b1660208201527f7ad675e6593a2c3bdf52607876353caf39853572dd787d2a5eed1cc99097b3f0935001905060405180910390a1509295945050505050565b600080808080808080620010eb8c8e018e62002004565b955095509550955095509550600060d160009054906101000a90046001600160a01b03166001600160a01b031663f1ab873c60ca60009054906101000a90046001600160a01b0316604051602401604051602081830303815290604052632d77bef360e11b6001600160e01b0319166020820180516001600160e01b0383818316178352505050508d6040518463ffffffff1660e01b815260040162001194939291906200222a565b602060405180830381600087803b158015620011af57600080fd5b505af1158015620011c4573d6000803e3d6000fd5b505050506040513d601f19601f82011682018060405250810190620011ea919062001cec565b90506001600160a01b03831615806200120a57506001600160a01b038216155b156200138e576200121c878762000856565b8093508194505050826001600160a01b0316638456cb596040518163ffffffff1660e01b8152600401600060405180830381600087803b1580156200126057600080fd5b505af115801562001275573d6000803e3d6000fd5b50505050816001600160a01b0316638456cb596040518163ffffffff1660e01b8152600401600060405180830381600087803b158015620012b557600080fd5b505af1158015620012ca573d6000803e3d6000fd5b505060405163f2fde38b60e01b81526001600160a01b0384811660048301528616925063f2fde38b9150602401600060405180830381600087803b1580156200131257600080fd5b505af115801562001327573d6000803e3d6000fd5b505060405163f2fde38b60e01b81526001600160a01b0384811660048301528516925063f2fde38b9150602401600060405180830381600087803b1580156200136f57600080fd5b505af115801562001384573d6000803e3d6000fd5b505050506200139e565b6200139b600189620024f7565b97505b6001600160a01b038516620013c057620013b88162000e6c565b9450620013d0565b620013cd600289620024f7565b97505b6000620013e9620013e28d8f62002512565b8362000a17565b60cd546040519192506000916200141791879187916001600160a01b0316908b908b90889060200162002260565b60408051601f198184030181529082905263a4f9edbf60e01b825291506001600160a01b0384169063a4f9edbf9062001455908490600401620023a2565b600060405180830381600087803b1580156200147057600080fd5b505af115801562001485573d6000803e3d6000fd5b50505050826001600160a01b0316638009ba1f6040518163ffffffff1660e01b815260040160206040518083038186803b158015620014c357600080fd5b505afa158015620014d8573d6000803e3d6000fd5b505050506040513d601f19601f82011682018060405250810190620014fe919062001cec565b6001600160a01b0316836001600160a01b031663f460124d6040518163ffffffff1660e01b815260040160206040518083038186803b1580156200154157600080fd5b505afa15801562001556573d6000803e3d6000fd5b505050506040513d601f19601f820116820180604052508101906200157c919062001cec565b604080516001600160a01b038b811682528a811660208301529181018e905291811691908616907fcf2f09cd0dbc149b12a3630a11b7d73476660f3d08d3dc7dcc79c6dec555ee7a9060600160405180910390a450909e9d5050505050505050505050505050565b6200056a6200177b565b7f4910fdfa16fed3260ed0e7147f7cc6da11a60208b5b9406d12a635614ffd91435460ff16156200162957620016248362001887565b505050565b826001600160a01b03166352d1902d6040518163ffffffff1660e01b815260040160206040518083038186803b1580156200166357600080fd5b505afa92505050801562001696575060408051601f3d908101601f19168201909252620016939181019062001e89565b60015b620016fb5760405162461bcd60e51b815260206004820152602e60248201527f45524331393637557067726164653a206e657720696d706c656d656e7461746960448201526d6f6e206973206e6f74205555505360901b6064820152608401620004c4565b60008051602062002cfc83398151915281146200176d5760405162461bcd60e51b815260206004820152602960248201527f45524331393637557067726164653a20756e737570706f727465642070726f786044820152681a58589b195555525160ba1b6064820152608401620004c4565b506200162483838362001926565b6033546001600160a01b03163314620007315760405162461bcd60e51b815260206004820181905260248201527f4f776e61626c653a2063616c6c6572206973206e6f7420746865206f776e65726044820152606401620004c4565b603380546001600160a01b038381166001600160a01b0319831681179093556040519116919082907f8be0079c531659141344cd1fd0a4f28419497f9722a3daafe3b4186f6b6457e090600090a35050565b600054610100900460ff16620018535760405162461bcd60e51b8152600401620004c49062002478565b6200073162001957565b600054610100900460ff16620007315760405162461bcd60e51b8152600401620004c49062002478565b6001600160a01b0381163b620018f65760405162461bcd60e51b815260206004820152602d60248201527f455243313936373a206e657720696d706c656d656e746174696f6e206973206e60448201526c1bdd08184818dbdb9d1c9858dd609a1b6064820152608401620004c4565b60008051602062002cfc83398151915280546001600160a01b0319166001600160a01b0392909216919091179055565b62001931836200198c565b6000825111806200193f5750805b156200162457620019518383620019ce565b50505050565b600054610100900460ff16620019815760405162461bcd60e51b8152600401620004c49062002478565b6200073133620017d7565b620019978162001887565b6040516001600160a01b038216907fbc7cd75a20ee27fd9adebab32041f755214dbc6bffa90cc0225b39da2e5c2d3b90600090a250565b60606001600160a01b0383163b62001a385760405162461bcd60e51b815260206004820152602660248201527f416464726573733a2064656c65676174652063616c6c20746f206e6f6e2d636f6044820152651b9d1c9858dd60d21b6064820152608401620004c4565b600080846001600160a01b03168460405162001a559190620020f0565b600060405180830381855af49150503d806000811462001a92576040519150601f19603f3d011682016040523d82523d6000602084013e62001a97565b606091505b509150915062001ac2828260405180606001604052806027815260200162002d1c6027913962001acb565b95945050505050565b6060831562001adc57508162001ae8565b62001ae8838362001aef565b9392505050565b81511562001b005781518083602001fd5b8060405162461bcd60e51b8152600401620004c49190620023a2565b61073580620025c783390190565b600067ffffffffffffffff8084111562001b485762001b486200259a565b8360051b602062001b5b818301620024c3565b86815293508084018583810189101562001b7457600080fd5b60009350835b8881101562001bb45781358681111562001b92578586fd5b62001ba08b828b0162001c55565b845250918301919083019060010162001b7a565b5050505050509392505050565b60008083601f84011262001bd457600080fd5b50813567ffffffffffffffff81111562001bed57600080fd5b6020830191508360208260051b850101111562001c0957600080fd5b9250929050565b60008083601f84011262001c2357600080fd5b50813567ffffffffffffffff81111562001c3c57600080fd5b60208301915083602082850101111562001c0957600080fd5b600082601f83011262001c6757600080fd5b813567ffffffffffffffff81111562001c845762001c846200259a565b62001c99601f8201601f1916602001620024c3565b81815284602083860101111562001caf57600080fd5b816020850160208301376000918101602001919091529392505050565b60006020828403121562001cdf57600080fd5b813562001ae881620025b0565b60006020828403121562001cff57600080fd5b815162001ae881620025b0565b600080600080600080600080610100898b03121562001d2a57600080fd5b883562001d3781620025b0565b9750602089013562001d4981620025b0565b9650604089013562001d5b81620025b0565b9550606089013562001d6d81620025b0565b9450608089013562001d7f81620025b0565b935060a089013562001d9181620025b0565b925060c089013562001da381620025b0565b915060e089013562001db581620025b0565b809150509295985092959890939650565b6000806040838503121562001dda57600080fd5b823562001de781620025b0565b9150602083013567ffffffffffffffff81111562001e0457600080fd5b62001e128582860162001c55565b9150509250929050565b6000806040838503121562001e3057600080fd5b823567ffffffffffffffff81111562001e4857600080fd5b8301601f8101851362001e5a57600080fd5b62001e6b8582356020840162001b2a565b925050602083013562001e7e81620025b0565b809150509250929050565b60006020828403121562001e9c57600080fd5b5051919050565b60008060008060006060868803121562001ebc57600080fd5b853567ffffffffffffffff8082111562001ed557600080fd5b62001ee389838a0162001c10565b9097509550602088013591508082111562001efd57600080fd5b5062001f0c8882890162001bc1565b96999598509660400135949350505050565b6000806000806000806080878903121562001f3857600080fd5b863567ffffffffffffffff8082111562001f5157600080fd5b62001f5f8a838b0162001c10565b9098509650602089013591508082111562001f7957600080fd5b5062001f8889828a0162001bc1565b979a9699509760408101359660609091013595509350505050565b6000806040838503121562001fb757600080fd5b823567ffffffffffffffff8082111562001fd057600080fd5b62001fde8683870162001c55565b9350602085013591508082111562001ff557600080fd5b5062001e128582860162001c55565b60008060008060008060c087890312156200201e57600080fd5b863567ffffffffffffffff808211156200203757600080fd5b620020458a838b0162001c55565b975060208901359150808211156200205c57600080fd5b506200206b89828a0162001c55565b95505060408701356200207e81620025b0565b935060608701356200209081620025b0565b92506080870135620020a281620025b0565b915060a0870135620020b481620025b0565b809150509295509295509295565b60008151808452620020dc81602086016020860162002521565b601f01601f19169290920160200192915050565b600082516200210481846020870162002521565b9190910192915050565b6000875162002122818460208c0162002521565b808301905060ff60f81b8860f81b1681526bffffffffffffffffffffffff198760601b16600182015285601582015284603582015283516200216c81605584016020880162002521565b0160550198975050505050505050565b600082516200219081846020870162002521565b64081313d3d560da1b920191825250600501919050565b60008251620021bb81846020870162002521565b640b5313d3d560da1b920191825250600501919050565b60ff60f81b8660f81b1681526bffffffffffffffffffffffff198560601b166001820152836015820152826035820152600082516200221981605585016020870162002521565b919091016055019695505050505050565b6001600160a01b03841681526060602082018190526000906200225090830185620020c2565b9050826040830152949350505050565b6001600160a01b0387811682528681166020830152858116604083015284811660608301528316608082015260c060a08201819052600090620022a690830184620020c2565b98975050505050505050565b6001600160a01b0383168152604060208201819052600090620022d890830184620020c2565b949350505050565b6101008082528951908201819052600090610120830190602090818d01845b82811015620023265781516001600160a01b031685529383019390830190600101620022ff565b50505083018a90526001600160a01b03891660408401528281036060840152620023518189620020c2565b9150506200236a60808301876001600160a01b03169052565b6001600160a01b03851660a08301528360c08301526200239560e08301846001600160a01b03169052565b9998505050505050505050565b60208152600062001ae86020830184620020c2565b604081526000620023cc6040830185620020c2565b828103602084015262001ac28185620020c2565b6020808252602c908201527f46756e6374696f6e206d7573742062652063616c6c6564207468726f7567682060408201526b19195b1959d85d1958d85b1b60a21b606082015260800190565b6020808252602c908201527f46756e6374696f6e206d7573742062652063616c6c6564207468726f7567682060408201526b6163746976652070726f787960a01b606082015260800190565b6020808252602b908201527f496e697469616c697a61626c653a20636f6e7472616374206973206e6f74206960408201526a6e697469616c697a696e6760a81b606082015260800190565b604051601f8201601f1916810167ffffffffffffffff81118282101715620024ef57620024ef6200259a565b604052919050565b600082198211156200250d576200250d6200256e565b500190565b600062001ae836848462001b2a565b60005b838110156200253e57818101518382015260200162002524565b83811115620019515750506000910152565b60006000198214156200256757620025676200256e565b5060010190565b634e487b7160e01b600052601160045260246000fd5b634e487b7160e01b600052603260045260246000fd5b634e487b7160e01b600052604160045260246000fd5b6001600160a01b03811681146200056a57600080fdfe6080604052604051610735380380610735833981016040819052610022916102dc565b61002e82826000610035565b505061043b565b61003e8361006b565b60008251118061004b5750805b156100665761006483836100ab60201b6100291760201c565b505b505050565b610074816100d7565b6040516001600160a01b038216907fbc7cd75a20ee27fd9adebab32041f755214dbc6bffa90cc0225b39da2e5c2d3b90600090a250565b60606100d0838360405180606001604052806027815260200161070e602791396101a9565b9392505050565b6100ea8161022260201b6100551760201c565b6101515760405162461bcd60e51b815260206004820152602d60248201527f455243313936373a206e657720696d706c656d656e746174696f6e206973206e60448201526c1bdd08184818dbdb9d1c9858dd609a1b60648201526084015b60405180910390fd5b806101887f360894a13ba1a3210667c828492db98dca3e2076cc3735a920a3ca505d382bbc60001b61023160201b6100641760201c565b80546001600160a01b0319166001600160a01b039290921691909117905550565b6060600080856001600160a01b0316856040516101c691906103aa565b600060405180830381855af49150503d8060008114610201576040519150601f19603f3d011682016040523d82523d6000602084013e610206565b606091505b50909250905061021886838387610234565b9695505050505050565b6001600160a01b03163b151590565b90565b606083156102a0578251610299576001600160a01b0385163b6102995760405162461bcd60e51b815260206004820152601d60248201527f416464726573733a2063616c6c20746f206e6f6e2d636f6e74726163740000006044820152606401610148565b50816102aa565b6102aa83836102b2565b949350505050565b8151156102c25781518083602001fd5b8060405162461bcd60e51b815260040161014891906103c6565b600080604083850312156102ef57600080fd5b82516001600160a01b038116811461030657600080fd5b60208401519092506001600160401b038082111561032357600080fd5b818501915085601f83011261033757600080fd5b81518181111561034957610349610425565b604051601f8201601f19908116603f0116810190838211818310171561037157610371610425565b8160405282815288602084870101111561038a57600080fd5b61039b8360208301602088016103f9565b80955050505050509250929050565b600082516103bc8184602087016103f9565b9190910192915050565b60208152600082518060208401526103e58160408501602087016103f9565b601f01601f19169190910160400192915050565b60005b838110156104145781810151838201526020016103fc565b838111156100645750506000910152565b634e487b7160e01b600052604160045260246000fd5b6102c48061044a6000396000f3fe60806040523661001357610011610017565b005b6100115b610027610022610067565b61009f565b565b606061004e8383604051806060016040528060278152602001610268602791396100c3565b9392505050565b6001600160a01b03163b151590565b90565b600061009a7f360894a13ba1a3210667c828492db98dca3e2076cc3735a920a3ca505d382bbc546001600160a01b031690565b905090565b3660008037600080366000845af43d6000803e8080156100be573d6000f35b3d6000fd5b6060600080856001600160a01b0316856040516100e091906101e8565b600060405180830381855af49150503d806000811461011b576040519150601f19603f3d011682016040523d82523d6000602084013e610120565b606091505b50915091506101318683838761013b565b9695505050505050565b606083156101ac5782516101a5576001600160a01b0385163b6101a55760405162461bcd60e51b815260206004820152601d60248201527f416464726573733a2063616c6c20746f206e6f6e2d636f6e747261637400000060448201526064015b60405180910390fd5b50816101b6565b6101b683836101be565b949350505050565b8151156101ce5781518083602001fd5b8060405162461bcd60e51b815260040161019c9190610204565b600082516101fa818460208701610237565b9190910192915050565b6020815260008251806020840152610223816040850160208701610237565b601f01601f19169190910160400192915050565b60005b8381101561025257818101518382015260200161023a565b83811115610261576000848401525b5050505056fe416464726573733a206c6f772d6c6576656c2064656c65676174652063616c6c206661696c6564a26469706673582212206c0dbbf9b7cea0b39475b09af2676b6d09e25394c7e441ee3ecd8d988bc0d67964736f6c63430008070033416464726573733a206c6f772d6c6576656c2064656c65676174652063616c6c206661696c6564360894a13ba1a3210667c828492db98dca3e2076cc3735a920a3ca505d382bbc416464726573733a206c6f772d6c6576656c2064656c65676174652063616c6c206661696c6564a2646970667358221220eca5596dad40532f97072a78175faf1f5910d4ad8e467469e2a490b50bd1f3b364736f6c63430008070033",
      "deployedBytecode": "0x608060405260043610620001375760003560e01c8063881e4ea411620000ad578063d9118ce7116200006c578063d9118ce71462000364578063ebfb8a431462000386578063f0fa28b914620003ab578063f2fde38b14620003cd578063f884231c14620003f257600080fd5b8063881e4ea414620002865780638da5cb5b14620002a857806397fc9fbb14620002c8578063a2346618146200030e578063d61f27ae146200033057600080fd5b80634f1ef28611620000fa5780634f1ef286146200020557806352d1902d146200021c5780636f2ddd931462000234578063715018a614620002565780638129fc1c146200026e57600080fd5b8063209f3695146200013c57806321d56a43146200017057806323626b4514620001925780633659cfe614620001b95780634a8b0b3214620001e0575b600080fd5b620001536200014d36600462001f1e565b62000417565b6040516001600160a01b0390911681526020015b60405180910390f35b3480156200017d57600080fd5b5060cb5462000153906001600160a01b031681565b3480156200019f57600080fd5b50620001aa60c95481565b60405190815260200162000167565b348015620001c657600080fd5b50620001de620001d836600462001ccc565b62000478565b005b348015620001ed57600080fd5b5062000153620001ff36600462001ea3565b6200056d565b620001de6200021636600462001dc6565b62000588565b3480156200022957600080fd5b50620001aa62000665565b3480156200024157600080fd5b5060ca5462000153906001600160a01b031681565b3480156200026357600080fd5b50620001de6200071b565b3480156200027b57600080fd5b50620001de62000733565b3480156200029357600080fd5b5060cd5462000153906001600160a01b031681565b348015620002b557600080fd5b506033546001600160a01b031662000153565b348015620002d557600080fd5b50620002ed620002e736600462001fa3565b62000856565b604080516001600160a01b0393841681529290911660208301520162000167565b3480156200031b57600080fd5b5060cf5462000153906001600160a01b031681565b3480156200033d57600080fd5b50620003556200034f36600462001e1c565b62000a17565b604051620001679190620023a2565b3480156200037157600080fd5b5060ce5462000153906001600160a01b031681565b3480156200039357600080fd5b50620001de620003a536600462001d0c565b62000aec565b348015620003b857600080fd5b5060cc5462000153906001600160a01b031681565b348015620003da57600080fd5b50620001de620003ec36600462001ccc565b62000df0565b348015620003ff57600080fd5b50620001536200041136600462001ccc565b62000e6c565b600080620004298888888888620010d4565b604080518581526001600160a01b03831660208201529192507fe1e7ecd08b1e119c2755872e95180d0d070137a7c2af361de1d7256bc3674107910160405180910390a1979650505050505050565b306001600160a01b037f0000000000000000000000000000000000000000000000000000000000000000161415620004cd5760405162461bcd60e51b8152600401620004c490620023e0565b60405180910390fd5b7f00000000000000000000000000000000000000000000000000000000000000006001600160a01b03166200051860008051602062002cfc833981519152546001600160a01b031690565b6001600160a01b031614620005415760405162461bcd60e51b8152600401620004c4906200242c565b6200054c81620015e4565b604080516000808252602082019092526200056a91839190620015ee565b50565b60006200057e8686868686620010d4565b9695505050505050565b306001600160a01b037f0000000000000000000000000000000000000000000000000000000000000000161415620005d45760405162461bcd60e51b8152600401620004c490620023e0565b7f00000000000000000000000000000000000000000000000000000000000000006001600160a01b03166200061f60008051602062002cfc833981519152546001600160a01b031690565b6001600160a01b031614620006485760405162461bcd60e51b8152600401620004c4906200242c565b6200065382620015e4565b6200066182826001620015ee565b5050565b6000306001600160a01b037f00000000000000000000000000000000000000000000000000000000000000001614620007075760405162461bcd60e51b815260206004820152603860248201527f555550535570677261646561626c653a206d757374206e6f742062652063616c60448201527f6c6564207468726f7567682064656c656761746563616c6c00000000000000006064820152608401620004c4565b5060008051602062002cfc83398151915290565b620007256200177b565b620007316000620017d7565b565b600054610100900460ff1615808015620007545750600054600160ff909116105b80620007705750303b15801562000770575060005460ff166001145b620007d55760405162461bcd60e51b815260206004820152602e60248201527f496e697469616c697a61626c653a20636f6e747261637420697320616c72656160448201526d191e481a5b9a5d1a585b1a5e995960921b6064820152608401620004c4565b6000805460ff191660011790558015620007f9576000805461ff0019166101001790555b6200080362001829565b6200080d6200185d565b80156200056a576000805461ff0019169055604051600181527f7f26b83ff96e1f2b6a682f133852f6798a09c465da95921460cefb38474024989060200160405180910390a150565b60ce5460405160009182916001600160a01b039091169063562d190d60e01b90620008869087906020016200217c565b60405160208183030381529060405285604051602001620008a89190620021a7565b60408051601f1981840301815290829052620008c89291602401620023b7565b60408051601f198184030181529181526020820180516001600160e01b03166001600160e01b0319909416939093179092529051620009079062001b1c565b62000914929190620022b2565b604051809103906000f08015801562000931573d6000803e3d6000fd5b5060cf546040519193506001600160a01b03169063562d190d60e01b90620009609087908790602401620023b7565b60408051601f198184030181529181526020820180516001600160e01b03166001600160e01b03199094169390931790925290516200099f9062001b1c565b620009ac929190620022b2565b604051809103906000f080158015620009c9573d6000803e3d6000fd5b50604080516001600160a01b038086168252831660208201529192507ffb5849d45e916a3192059973d782e08b2b3888fa796f536d99af0c7bd01ca16c910160405180910390a19250929050565b60608060005b845181101562000aa65781600085600088858151811062000a425762000a4262002584565b60200260200101515189868151811062000a605762000a6062002584565b602002602001015160405160200162000a7f969594939291906200210e565b6040516020818303038152906040529150808062000a9d9062002550565b91505062000a1d565b508060405160240162000aba9190620023a2565b60408051601f198184030181529190526020810180516001600160e01b03166346c07f8560e11b179052949350505050565b62000af66200177b565b6001600160a01b03821662000b3f5760405162461bcd60e51b815260206004820152600e60248201526d10b637b7ba29b4b733b632ba37b760911b6044820152606401620004c4565b6001600160a01b03811662000b8a5760405162461bcd60e51b815260206004820152601060248201526f10b9b430b932b9a9b4b733b632ba37b760811b6044820152606401620004c4565b6001600160a01b03871662000bd55760405162461bcd60e51b815260206004820152601060248201526f10b3b737b9b4b9a9b4b733b632ba37b760811b6044820152606401620004c4565b6001600160a01b03861662000c265760405162461bcd60e51b815260206004820152601660248201527521676e6f73697346616c6c6261636b4c69627261727960501b6044820152606401620004c4565b6001600160a01b03851662000c7e5760405162461bcd60e51b815260206004820152601760248201527f21676e6f7369734d756c746973656e644c6962726172790000000000000000006044820152606401620004c4565b6001600160a01b03841662000cd65760405162461bcd60e51b815260206004820152601760248201527f21676e6f7369735361666550726f7879466163746f72790000000000000000006044820152606401620004c4565b6001600160a01b03831662000d245760405162461bcd60e51b8152602060048201526013602482015272216d6f64756c6550726f7879466163746f727960681b6044820152606401620004c4565b60ca80546001600160a01b03199081166001600160a01b038b81169190911790925560cb805482168a841617905560cc8054821689841617905560cd8054821688841617905560d08054821687841617905560d18054821686841617905560ce8054821685841617905560cf805490911691831691909117905560c980547fe6fb5c8c5a2615df9d8de2df2fdebdae949bcf3a2a80cb8ff90ace3459de85cc91600062000dd18362002550565b9091555060405190815260200160405180910390a15050505050505050565b62000dfa6200177b565b6001600160a01b03811662000e615760405162461bcd60e51b815260206004820152602660248201527f4f776e61626c653a206e6577206f776e657220697320746865207a65726f206160448201526564647265737360d01b6064820152608401620004c4565b6200056a81620017d7565b60d05460cb5460408051602081018252600080825291516361b69abd60e01b8152919384936001600160a01b03918216936361b69abd9362000eb6939092169190600401620022b2565b602060405180830381600087803b15801562000ed157600080fd5b505af115801562000ee6573d6000803e3d6000fd5b505050506040513d601f19601f8201168201806040525081019062000f0c919062001cec565b6040516001600160a01b038516602482015290915060009060440160408051601f19818403018152918152602080830180516001600160e01b031663610b592560e01b1790528251915192935060009262000f719284928792849291889101620021d2565b604051602081830303815290604052905060008160405160240162000f979190620023a2565b60408051601f19818403018152918152602080830180516001600160e01b03166346c07f8560e11b1790528151600180825281840190935292935060009291908281019080368337019050509050868160008151811062000ffc5762000ffc62002584565b6001600160a01b03928316602091820292909201015260cd5460cc5460405163b63e800d60e01b81528884169363b63e800d9362001051938793600193928316928a92169060009081908190600401620022e0565b600060405180830381600087803b1580156200106c57600080fd5b505af115801562001081573d6000803e3d6000fd5b5050604080516001600160a01b03808a1682528b1660208201527f7ad675e6593a2c3bdf52607876353caf39853572dd787d2a5eed1cc99097b3f0935001905060405180910390a1509295945050505050565b600080808080808080620010eb8c8e018e62002004565b955095509550955095509550600060d160009054906101000a90046001600160a01b03166001600160a01b031663f1ab873c60ca60009054906101000a90046001600160a01b0316604051602401604051602081830303815290604052632d77bef360e11b6001600160e01b0319166020820180516001600160e01b0383818316178352505050508d6040518463ffffffff1660e01b815260040162001194939291906200222a565b602060405180830381600087803b158015620011af57600080fd5b505af1158015620011c4573d6000803e3d6000fd5b505050506040513d601f19601f82011682018060405250810190620011ea919062001cec565b90506001600160a01b03831615806200120a57506001600160a01b038216155b156200138e576200121c878762000856565b8093508194505050826001600160a01b0316638456cb596040518163ffffffff1660e01b8152600401600060405180830381600087803b1580156200126057600080fd5b505af115801562001275573d6000803e3d6000fd5b50505050816001600160a01b0316638456cb596040518163ffffffff1660e01b8152600401600060405180830381600087803b158015620012b557600080fd5b505af1158015620012ca573d6000803e3d6000fd5b505060405163f2fde38b60e01b81526001600160a01b0384811660048301528616925063f2fde38b9150602401600060405180830381600087803b1580156200131257600080fd5b505af115801562001327573d6000803e3d6000fd5b505060405163f2fde38b60e01b81526001600160a01b0384811660048301528516925063f2fde38b9150602401600060405180830381600087803b1580156200136f57600080fd5b505af115801562001384573d6000803e3d6000fd5b505050506200139e565b6200139b600189620024f7565b97505b6001600160a01b038516620013c057620013b88162000e6c565b9450620013d0565b620013cd600289620024f7565b97505b6000620013e9620013e28d8f62002512565b8362000a17565b60cd546040519192506000916200141791879187916001600160a01b0316908b908b90889060200162002260565b60408051601f198184030181529082905263a4f9edbf60e01b825291506001600160a01b0384169063a4f9edbf9062001455908490600401620023a2565b600060405180830381600087803b1580156200147057600080fd5b505af115801562001485573d6000803e3d6000fd5b50505050826001600160a01b0316638009ba1f6040518163ffffffff1660e01b815260040160206040518083038186803b158015620014c357600080fd5b505afa158015620014d8573d6000803e3d6000fd5b505050506040513d601f19601f82011682018060405250810190620014fe919062001cec565b6001600160a01b0316836001600160a01b031663f460124d6040518163ffffffff1660e01b815260040160206040518083038186803b1580156200154157600080fd5b505afa15801562001556573d6000803e3d6000fd5b505050506040513d601f19601f820116820180604052508101906200157c919062001cec565b604080516001600160a01b038b811682528a811660208301529181018e905291811691908616907fcf2f09cd0dbc149b12a3630a11b7d73476660f3d08d3dc7dcc79c6dec555ee7a9060600160405180910390a450909e9d5050505050505050505050505050565b6200056a6200177b565b7f4910fdfa16fed3260ed0e7147f7cc6da11a60208b5b9406d12a635614ffd91435460ff16156200162957620016248362001887565b505050565b826001600160a01b03166352d1902d6040518163ffffffff1660e01b815260040160206040518083038186803b1580156200166357600080fd5b505afa92505050801562001696575060408051601f3d908101601f19168201909252620016939181019062001e89565b60015b620016fb5760405162461bcd60e51b815260206004820152602e60248201527f45524331393637557067726164653a206e657720696d706c656d656e7461746960448201526d6f6e206973206e6f74205555505360901b6064820152608401620004c4565b60008051602062002cfc83398151915281146200176d5760405162461bcd60e51b815260206004820152602960248201527f45524331393637557067726164653a20756e737570706f727465642070726f786044820152681a58589b195555525160ba1b6064820152608401620004c4565b506200162483838362001926565b6033546001600160a01b03163314620007315760405162461bcd60e51b815260206004820181905260248201527f4f776e61626c653a2063616c6c6572206973206e6f7420746865206f776e65726044820152606401620004c4565b603380546001600160a01b038381166001600160a01b0319831681179093556040519116919082907f8be0079c531659141344cd1fd0a4f28419497f9722a3daafe3b4186f6b6457e090600090a35050565b600054610100900460ff16620018535760405162461bcd60e51b8152600401620004c49062002478565b6200073162001957565b600054610100900460ff16620007315760405162461bcd60e51b8152600401620004c49062002478565b6001600160a01b0381163b620018f65760405162461bcd60e51b815260206004820152602d60248201527f455243313936373a206e657720696d706c656d656e746174696f6e206973206e60448201526c1bdd08184818dbdb9d1c9858dd609a1b6064820152608401620004c4565b60008051602062002cfc83398151915280546001600160a01b0319166001600160a01b0392909216919091179055565b62001931836200198c565b6000825111806200193f5750805b156200162457620019518383620019ce565b50505050565b600054610100900460ff16620019815760405162461bcd60e51b8152600401620004c49062002478565b6200073133620017d7565b620019978162001887565b6040516001600160a01b038216907fbc7cd75a20ee27fd9adebab32041f755214dbc6bffa90cc0225b39da2e5c2d3b90600090a250565b60606001600160a01b0383163b62001a385760405162461bcd60e51b815260206004820152602660248201527f416464726573733a2064656c65676174652063616c6c20746f206e6f6e2d636f6044820152651b9d1c9858dd60d21b6064820152608401620004c4565b600080846001600160a01b03168460405162001a559190620020f0565b600060405180830381855af49150503d806000811462001a92576040519150601f19603f3d011682016040523d82523d6000602084013e62001a97565b606091505b509150915062001ac2828260405180606001604052806027815260200162002d1c6027913962001acb565b95945050505050565b6060831562001adc57508162001ae8565b62001ae8838362001aef565b9392505050565b81511562001b005781518083602001fd5b8060405162461bcd60e51b8152600401620004c49190620023a2565b61073580620025c783390190565b600067ffffffffffffffff8084111562001b485762001b486200259a565b8360051b602062001b5b818301620024c3565b86815293508084018583810189101562001b7457600080fd5b60009350835b8881101562001bb45781358681111562001b92578586fd5b62001ba08b828b0162001c55565b845250918301919083019060010162001b7a565b5050505050509392505050565b60008083601f84011262001bd457600080fd5b50813567ffffffffffffffff81111562001bed57600080fd5b6020830191508360208260051b850101111562001c0957600080fd5b9250929050565b60008083601f84011262001c2357600080fd5b50813567ffffffffffffffff81111562001c3c57600080fd5b60208301915083602082850101111562001c0957600080fd5b600082601f83011262001c6757600080fd5b813567ffffffffffffffff81111562001c845762001c846200259a565b62001c99601f8201601f1916602001620024c3565b81815284602083860101111562001caf57600080fd5b816020850160208301376000918101602001919091529392505050565b60006020828403121562001cdf57600080fd5b813562001ae881620025b0565b60006020828403121562001cff57600080fd5b815162001ae881620025b0565b600080600080600080600080610100898b03121562001d2a57600080fd5b883562001d3781620025b0565b9750602089013562001d4981620025b0565b9650604089013562001d5b81620025b0565b9550606089013562001d6d81620025b0565b9450608089013562001d7f81620025b0565b935060a089013562001d9181620025b0565b925060c089013562001da381620025b0565b915060e089013562001db581620025b0565b809150509295985092959890939650565b6000806040838503121562001dda57600080fd5b823562001de781620025b0565b9150602083013567ffffffffffffffff81111562001e0457600080fd5b62001e128582860162001c55565b9150509250929050565b6000806040838503121562001e3057600080fd5b823567ffffffffffffffff81111562001e4857600080fd5b8301601f8101851362001e5a57600080fd5b62001e6b8582356020840162001b2a565b925050602083013562001e7e81620025b0565b809150509250929050565b60006020828403121562001e9c57600080fd5b5051919050565b60008060008060006060868803121562001ebc57600080fd5b853567ffffffffffffffff8082111562001ed557600080fd5b62001ee389838a0162001c10565b9097509550602088013591508082111562001efd57600080fd5b5062001f0c8882890162001bc1565b96999598509660400135949350505050565b6000806000806000806080878903121562001f3857600080fd5b863567ffffffffffffffff8082111562001f5157600080fd5b62001f5f8a838b0162001c10565b9098509650602089013591508082111562001f7957600080fd5b5062001f8889828a0162001bc1565b979a9699509760408101359660609091013595509350505050565b6000806040838503121562001fb757600080fd5b823567ffffffffffffffff8082111562001fd057600080fd5b62001fde8683870162001c55565b9350602085013591508082111562001ff557600080fd5b5062001e128582860162001c55565b60008060008060008060c087890312156200201e57600080fd5b863567ffffffffffffffff808211156200203757600080fd5b620020458a838b0162001c55565b975060208901359150808211156200205c57600080fd5b506200206b89828a0162001c55565b95505060408701356200207e81620025b0565b935060608701356200209081620025b0565b92506080870135620020a281620025b0565b915060a0870135620020b481620025b0565b809150509295509295509295565b60008151808452620020dc81602086016020860162002521565b601f01601f19169290920160200192915050565b600082516200210481846020870162002521565b9190910192915050565b6000875162002122818460208c0162002521565b808301905060ff60f81b8860f81b1681526bffffffffffffffffffffffff198760601b16600182015285601582015284603582015283516200216c81605584016020880162002521565b0160550198975050505050505050565b600082516200219081846020870162002521565b64081313d3d560da1b920191825250600501919050565b60008251620021bb81846020870162002521565b640b5313d3d560da1b920191825250600501919050565b60ff60f81b8660f81b1681526bffffffffffffffffffffffff198560601b166001820152836015820152826035820152600082516200221981605585016020870162002521565b919091016055019695505050505050565b6001600160a01b03841681526060602082018190526000906200225090830185620020c2565b9050826040830152949350505050565b6001600160a01b0387811682528681166020830152858116604083015284811660608301528316608082015260c060a08201819052600090620022a690830184620020c2565b98975050505050505050565b6001600160a01b0383168152604060208201819052600090620022d890830184620020c2565b949350505050565b6101008082528951908201819052600090610120830190602090818d01845b82811015620023265781516001600160a01b031685529383019390830190600101620022ff565b50505083018a90526001600160a01b03891660408401528281036060840152620023518189620020c2565b9150506200236a60808301876001600160a01b03169052565b6001600160a01b03851660a08301528360c08301526200239560e08301846001600160a01b03169052565b9998505050505050505050565b60208152600062001ae86020830184620020c2565b604081526000620023cc6040830185620020c2565b828103602084015262001ac28185620020c2565b6020808252602c908201527f46756e6374696f6e206d7573742062652063616c6c6564207468726f7567682060408201526b19195b1959d85d1958d85b1b60a21b606082015260800190565b6020808252602c908201527f46756e6374696f6e206d7573742062652063616c6c6564207468726f7567682060408201526b6163746976652070726f787960a01b606082015260800190565b6020808252602b908201527f496e697469616c697a61626c653a20636f6e7472616374206973206e6f74206960408201526a6e697469616c697a696e6760a81b606082015260800190565b604051601f8201601f1916810167ffffffffffffffff81118282101715620024ef57620024ef6200259a565b604052919050565b600082198211156200250d576200250d6200256e565b500190565b600062001ae836848462001b2a565b60005b838110156200253e57818101518382015260200162002524565b83811115620019515750506000910152565b60006000198214156200256757620025676200256e565b5060010190565b634e487b7160e01b600052601160045260246000fd5b634e487b7160e01b600052603260045260246000fd5b634e487b7160e01b600052604160045260246000fd5b6001600160a01b03811681146200056a57600080fdfe6080604052604051610735380380610735833981016040819052610022916102dc565b61002e82826000610035565b505061043b565b61003e8361006b565b60008251118061004b5750805b156100665761006483836100ab60201b6100291760201c565b505b505050565b610074816100d7565b6040516001600160a01b038216907fbc7cd75a20ee27fd9adebab32041f755214dbc6bffa90cc0225b39da2e5c2d3b90600090a250565b60606100d0838360405180606001604052806027815260200161070e602791396101a9565b9392505050565b6100ea8161022260201b6100551760201c565b6101515760405162461bcd60e51b815260206004820152602d60248201527f455243313936373a206e657720696d706c656d656e746174696f6e206973206e60448201526c1bdd08184818dbdb9d1c9858dd609a1b60648201526084015b60405180910390fd5b806101887f360894a13ba1a3210667c828492db98dca3e2076cc3735a920a3ca505d382bbc60001b61023160201b6100641760201c565b80546001600160a01b0319166001600160a01b039290921691909117905550565b6060600080856001600160a01b0316856040516101c691906103aa565b600060405180830381855af49150503d8060008114610201576040519150601f19603f3d011682016040523d82523d6000602084013e610206565b606091505b50909250905061021886838387610234565b9695505050505050565b6001600160a01b03163b151590565b90565b606083156102a0578251610299576001600160a01b0385163b6102995760405162461bcd60e51b815260206004820152601d60248201527f416464726573733a2063616c6c20746f206e6f6e2d636f6e74726163740000006044820152606401610148565b50816102aa565b6102aa83836102b2565b949350505050565b8151156102c25781518083602001fd5b8060405162461bcd60e51b815260040161014891906103c6565b600080604083850312156102ef57600080fd5b82516001600160a01b038116811461030657600080fd5b60208401519092506001600160401b038082111561032357600080fd5b818501915085601f83011261033757600080fd5b81518181111561034957610349610425565b604051601f8201601f19908116603f0116810190838211818310171561037157610371610425565b8160405282815288602084870101111561038a57600080fd5b61039b8360208301602088016103f9565b80955050505050509250929050565b600082516103bc8184602087016103f9565b9190910192915050565b60208152600082518060208401526103e58160408501602087016103f9565b601f01601f19169190910160400192915050565b60005b838110156104145781810151838201526020016103fc565b838111156100645750506000910152565b634e487b7160e01b600052604160045260246000fd5b6102c48061044a6000396000f3fe60806040523661001357610011610017565b005b6100115b610027610022610067565b61009f565b565b606061004e8383604051806060016040528060278152602001610268602791396100c3565b9392505050565b6001600160a01b03163b151590565b90565b600061009a7f360894a13ba1a3210667c828492db98dca3e2076cc3735a920a3ca505d382bbc546001600160a01b031690565b905090565b3660008037600080366000845af43d6000803e8080156100be573d6000f35b3d6000fd5b6060600080856001600160a01b0316856040516100e091906101e8565b600060405180830381855af49150503d806000811461011b576040519150601f19603f3d011682016040523d82523d6000602084013e610120565b606091505b50915091506101318683838761013b565b9695505050505050565b606083156101ac5782516101a5576001600160a01b0385163b6101a55760405162461bcd60e51b815260206004820152601d60248201527f416464726573733a2063616c6c20746f206e6f6e2d636f6e747261637400000060448201526064015b60405180910390fd5b50816101b6565b6101b683836101be565b949350505050565b8151156101ce5781518083602001fd5b8060405162461bcd60e51b815260040161019c9190610204565b600082516101fa818460208701610237565b9190910192915050565b6020815260008251806020840152610223816040850160208701610237565b601f01601f19169190910160400192915050565b60005b8381101561025257818101518382015260200161023a565b83811115610261576000848401525b5050505056fe416464726573733a206c6f772d6c6576656c2064656c65676174652063616c6c206661696c6564a26469706673582212206c0dbbf9b7cea0b39475b09af2676b6d09e25394c7e441ee3ecd8d988bc0d67964736f6c63430008070033416464726573733a206c6f772d6c6576656c2064656c65676174652063616c6c206661696c6564360894a13ba1a3210667c828492db98dca3e2076cc3735a920a3ca505d382bbc416464726573733a206c6f772d6c6576656c2064656c65676174652063616c6c206661696c6564a2646970667358221220eca5596dad40532f97072a78175faf1f5910d4ad8e467469e2a490b50bd1f3b364736f6c63430008070033",
      "history": [
        {
          "address": "0x7e988A9db2F8597735fc68D21060Daed948a3e8C",
          "abi": [
            {
              "anonymous": false,
              "inputs": [
                {
                  "indexed": false,
                  "internalType": "address",
                  "name": "previousAdmin",
                  "type": "address"
                },
                {
                  "indexed": false,
                  "internalType": "address",
                  "name": "newAdmin",
                  "type": "address"
                }
              ],
              "name": "AdminChanged",
              "type": "event"
            },
            {
              "anonymous": false,
              "inputs": [
                {
                  "indexed": true,
                  "internalType": "address",
                  "name": "beacon",
                  "type": "address"
                }
              ],
              "name": "BeaconUpgraded",
              "type": "event"
            },
            {
              "anonymous": false,
              "inputs": [
                {
                  "indexed": false,
                  "internalType": "bytes32",
                  "name": "referrer",
                  "type": "bytes32"
                },
                {
                  "indexed": false,
                  "internalType": "address",
                  "name": "daoAddress",
                  "type": "address"
                }
              ],
              "name": "DaoReferral",
              "type": "event"
            },
            {
              "anonymous": false,
              "inputs": [
                {
                  "indexed": false,
                  "internalType": "address",
                  "name": "baalSafe",
                  "type": "address"
                },
                {
                  "indexed": false,
                  "internalType": "address",
                  "name": "moduleAddr",
                  "type": "address"
                }
              ],
              "name": "DeployBaalSafe",
              "type": "event"
            },
            {
              "anonymous": false,
              "inputs": [
                {
                  "indexed": false,
                  "internalType": "address",
                  "name": "lootToken",
                  "type": "address"
                },
                {
                  "indexed": false,
                  "internalType": "address",
                  "name": "sharesToken",
                  "type": "address"
                }
              ],
              "name": "DeployBaalTokens",
              "type": "event"
            },
            {
              "anonymous": false,
              "inputs": [
                {
                  "indexed": false,
                  "internalType": "uint8",
                  "name": "version",
                  "type": "uint8"
                }
              ],
              "name": "Initialized",
              "type": "event"
            },
            {
              "anonymous": false,
              "inputs": [
                {
                  "indexed": true,
                  "internalType": "address",
                  "name": "previousOwner",
                  "type": "address"
                },
                {
                  "indexed": true,
                  "internalType": "address",
                  "name": "newOwner",
                  "type": "address"
                }
              ],
              "name": "OwnershipTransferred",
              "type": "event"
            },
            {
              "anonymous": false,
              "inputs": [
                {
                  "indexed": false,
                  "internalType": "uint256",
                  "name": "version",
                  "type": "uint256"
                }
              ],
              "name": "SetAddrsVersion",
              "type": "event"
            },
            {
              "anonymous": false,
              "inputs": [
                {
                  "indexed": true,
                  "internalType": "address",
                  "name": "baal",
                  "type": "address"
                },
                {
                  "indexed": true,
                  "internalType": "address",
                  "name": "loot",
                  "type": "address"
                },
                {
                  "indexed": true,
                  "internalType": "address",
                  "name": "shares",
                  "type": "address"
                },
                {
                  "indexed": false,
                  "internalType": "address",
                  "name": "safe",
                  "type": "address"
                },
                {
                  "indexed": false,
                  "internalType": "address",
                  "name": "forwarder",
                  "type": "address"
                },
                {
                  "indexed": false,
                  "internalType": "uint256",
                  "name": "existingAddrs",
                  "type": "uint256"
                }
              ],
              "name": "SummonBaal",
              "type": "event"
            },
            {
              "anonymous": false,
              "inputs": [
                {
                  "indexed": true,
                  "internalType": "address",
                  "name": "implementation",
                  "type": "address"
                }
              ],
              "name": "Upgraded",
              "type": "event"
            },
            {
              "inputs": [],
              "name": "addrsVersion",
              "outputs": [
                {
                  "internalType": "uint256",
                  "name": "",
                  "type": "uint256"
                }
              ],
              "stateMutability": "view",
              "type": "function"
            },
            {
              "inputs": [
                {
                  "internalType": "address",
                  "name": "_moduleAddr",
                  "type": "address"
                }
              ],
              "name": "deployAndSetupSafe",
              "outputs": [
                {
                  "internalType": "address",
                  "name": "",
                  "type": "address"
                }
              ],
              "stateMutability": "nonpayable",
              "type": "function"
            },
            {
              "inputs": [
                {
                  "internalType": "string",
                  "name": "_name",
                  "type": "string"
                },
                {
                  "internalType": "string",
                  "name": "_symbol",
                  "type": "string"
                }
              ],
              "name": "deployTokens",
              "outputs": [
                {
                  "internalType": "address",
                  "name": "lootToken",
                  "type": "address"
                },
                {
                  "internalType": "address",
                  "name": "sharesToken",
                  "type": "address"
                }
              ],
              "stateMutability": "nonpayable",
              "type": "function"
            },
            {
              "inputs": [
                {
                  "internalType": "bytes[]",
                  "name": "_calls",
                  "type": "bytes[]"
                },
                {
                  "internalType": "address",
                  "name": "_target",
                  "type": "address"
                }
              ],
              "name": "encodeMultisend",
              "outputs": [
                {
                  "internalType": "bytes",
                  "name": "encodedMultisend",
                  "type": "bytes"
                }
              ],
              "stateMutability": "pure",
              "type": "function"
            },
            {
              "inputs": [],
              "name": "gnosisFallbackLibrary",
              "outputs": [
                {
                  "internalType": "address",
                  "name": "",
                  "type": "address"
                }
              ],
              "stateMutability": "view",
              "type": "function"
            },
            {
              "inputs": [],
              "name": "gnosisMultisendLibrary",
              "outputs": [
                {
                  "internalType": "address",
                  "name": "",
                  "type": "address"
                }
              ],
              "stateMutability": "view",
              "type": "function"
            },
            {
              "inputs": [],
              "name": "gnosisSingleton",
              "outputs": [
                {
                  "internalType": "address",
                  "name": "",
                  "type": "address"
                }
              ],
              "stateMutability": "view",
              "type": "function"
            },
            {
              "inputs": [],
              "name": "initialize",
              "outputs": [],
              "stateMutability": "nonpayable",
              "type": "function"
            },
            {
              "inputs": [],
              "name": "lootSingleton",
              "outputs": [
                {
                  "internalType": "address",
                  "name": "",
                  "type": "address"
                }
              ],
              "stateMutability": "view",
              "type": "function"
            },
            {
              "inputs": [],
              "name": "owner",
              "outputs": [
                {
                  "internalType": "address",
                  "name": "",
                  "type": "address"
                }
              ],
              "stateMutability": "view",
              "type": "function"
            },
            {
              "inputs": [],
              "name": "proxiableUUID",
              "outputs": [
                {
                  "internalType": "bytes32",
                  "name": "",
                  "type": "bytes32"
                }
              ],
              "stateMutability": "view",
              "type": "function"
            },
            {
              "inputs": [],
              "name": "renounceOwnership",
              "outputs": [],
              "stateMutability": "nonpayable",
              "type": "function"
            },
            {
              "inputs": [
                {
                  "internalType": "address payable",
                  "name": "_template",
                  "type": "address"
                },
                {
                  "internalType": "address",
                  "name": "_gnosisSingleton",
                  "type": "address"
                },
                {
                  "internalType": "address",
                  "name": "_gnosisFallbackLibrary",
                  "type": "address"
                },
                {
                  "internalType": "address",
                  "name": "_gnosisMultisendLibrary",
                  "type": "address"
                },
                {
                  "internalType": "address",
                  "name": "_gnosisSafeProxyFactory",
                  "type": "address"
                },
                {
                  "internalType": "address",
                  "name": "_moduleProxyFactory",
                  "type": "address"
                },
                {
                  "internalType": "address",
                  "name": "_lootSingleton",
                  "type": "address"
                },
                {
                  "internalType": "address",
                  "name": "_sharesSingleton",
                  "type": "address"
                }
              ],
              "name": "setAddrs",
              "outputs": [],
              "stateMutability": "nonpayable",
              "type": "function"
            },
            {
              "inputs": [],
              "name": "sharesSingleton",
              "outputs": [
                {
                  "internalType": "address",
                  "name": "",
                  "type": "address"
                }
              ],
              "stateMutability": "view",
              "type": "function"
            },
            {
              "inputs": [
                {
                  "internalType": "bytes",
                  "name": "initializationParams",
                  "type": "bytes"
                },
                {
                  "internalType": "bytes[]",
                  "name": "initializationActions",
                  "type": "bytes[]"
                },
                {
                  "internalType": "uint256",
                  "name": "_saltNonce",
                  "type": "uint256"
                }
              ],
              "name": "summonBaal",
              "outputs": [
                {
                  "internalType": "address",
                  "name": "",
                  "type": "address"
                }
              ],
              "stateMutability": "nonpayable",
              "type": "function"
            },
            {
              "inputs": [
                {
                  "internalType": "bytes",
                  "name": "initializationParams",
                  "type": "bytes"
                },
                {
                  "internalType": "bytes[]",
                  "name": "initializationActions",
                  "type": "bytes[]"
                },
                {
                  "internalType": "uint256",
                  "name": "_saltNonce",
                  "type": "uint256"
                },
                {
                  "internalType": "bytes32",
                  "name": "referrer",
                  "type": "bytes32"
                }
              ],
              "name": "summonBaalFromReferrer",
              "outputs": [
                {
                  "internalType": "address",
                  "name": "",
                  "type": "address"
                }
              ],
              "stateMutability": "payable",
              "type": "function"
            },
            {
              "inputs": [],
              "name": "template",
              "outputs": [
                {
                  "internalType": "address payable",
                  "name": "",
                  "type": "address"
                }
              ],
              "stateMutability": "view",
              "type": "function"
            },
            {
              "inputs": [
                {
                  "internalType": "address",
                  "name": "newOwner",
                  "type": "address"
                }
              ],
              "name": "transferOwnership",
              "outputs": [],
              "stateMutability": "nonpayable",
              "type": "function"
            },
            {
              "inputs": [
                {
                  "internalType": "address",
                  "name": "newImplementation",
                  "type": "address"
                }
              ],
              "name": "upgradeTo",
              "outputs": [],
              "stateMutability": "nonpayable",
              "type": "function"
            },
            {
              "inputs": [
                {
                  "internalType": "address",
                  "name": "newImplementation",
                  "type": "address"
                },
                {
                  "internalType": "bytes",
                  "name": "data",
                  "type": "bytes"
                }
              ],
              "name": "upgradeToAndCall",
              "outputs": [],
              "stateMutability": "payable",
              "type": "function"
            }
          ],
          "args": [],
          "numDeployments": 2,
          "linkedData": {},
          "solcInputHash": "a128f2a31ecf0f1507d09c047cd019fe",
          "metadata": "{\"compiler\":{\"version\":\"0.8.7+commit.e28d00a7\"},\"language\":\"Solidity\",\"output\":{\"abi\":[{\"anonymous\":false,\"inputs\":[{\"indexed\":false,\"internalType\":\"address\",\"name\":\"previousAdmin\",\"type\":\"address\"},{\"indexed\":false,\"internalType\":\"address\",\"name\":\"newAdmin\",\"type\":\"address\"}],\"name\":\"AdminChanged\",\"type\":\"event\"},{\"anonymous\":false,\"inputs\":[{\"indexed\":true,\"internalType\":\"address\",\"name\":\"beacon\",\"type\":\"address\"}],\"name\":\"BeaconUpgraded\",\"type\":\"event\"},{\"anonymous\":false,\"inputs\":[{\"indexed\":false,\"internalType\":\"bytes32\",\"name\":\"referrer\",\"type\":\"bytes32\"},{\"indexed\":false,\"internalType\":\"address\",\"name\":\"daoAddress\",\"type\":\"address\"}],\"name\":\"DaoReferral\",\"type\":\"event\"},{\"anonymous\":false,\"inputs\":[{\"indexed\":false,\"internalType\":\"address\",\"name\":\"baalSafe\",\"type\":\"address\"},{\"indexed\":false,\"internalType\":\"address\",\"name\":\"moduleAddr\",\"type\":\"address\"}],\"name\":\"DeployBaalSafe\",\"type\":\"event\"},{\"anonymous\":false,\"inputs\":[{\"indexed\":false,\"internalType\":\"address\",\"name\":\"lootToken\",\"type\":\"address\"},{\"indexed\":false,\"internalType\":\"address\",\"name\":\"sharesToken\",\"type\":\"address\"}],\"name\":\"DeployBaalTokens\",\"type\":\"event\"},{\"anonymous\":false,\"inputs\":[{\"indexed\":false,\"internalType\":\"uint8\",\"name\":\"version\",\"type\":\"uint8\"}],\"name\":\"Initialized\",\"type\":\"event\"},{\"anonymous\":false,\"inputs\":[{\"indexed\":true,\"internalType\":\"address\",\"name\":\"previousOwner\",\"type\":\"address\"},{\"indexed\":true,\"internalType\":\"address\",\"name\":\"newOwner\",\"type\":\"address\"}],\"name\":\"OwnershipTransferred\",\"type\":\"event\"},{\"anonymous\":false,\"inputs\":[{\"indexed\":false,\"internalType\":\"uint256\",\"name\":\"version\",\"type\":\"uint256\"}],\"name\":\"SetAddrsVersion\",\"type\":\"event\"},{\"anonymous\":false,\"inputs\":[{\"indexed\":true,\"internalType\":\"address\",\"name\":\"baal\",\"type\":\"address\"},{\"indexed\":true,\"internalType\":\"address\",\"name\":\"loot\",\"type\":\"address\"},{\"indexed\":true,\"internalType\":\"address\",\"name\":\"shares\",\"type\":\"address\"},{\"indexed\":false,\"internalType\":\"address\",\"name\":\"safe\",\"type\":\"address\"},{\"indexed\":false,\"internalType\":\"address\",\"name\":\"forwarder\",\"type\":\"address\"},{\"indexed\":false,\"internalType\":\"uint256\",\"name\":\"existingAddrs\",\"type\":\"uint256\"}],\"name\":\"SummonBaal\",\"type\":\"event\"},{\"anonymous\":false,\"inputs\":[{\"indexed\":true,\"internalType\":\"address\",\"name\":\"implementation\",\"type\":\"address\"}],\"name\":\"Upgraded\",\"type\":\"event\"},{\"inputs\":[],\"name\":\"addrsVersion\",\"outputs\":[{\"internalType\":\"uint256\",\"name\":\"\",\"type\":\"uint256\"}],\"stateMutability\":\"view\",\"type\":\"function\"},{\"inputs\":[{\"internalType\":\"address\",\"name\":\"_moduleAddr\",\"type\":\"address\"}],\"name\":\"deployAndSetupSafe\",\"outputs\":[{\"internalType\":\"address\",\"name\":\"\",\"type\":\"address\"}],\"stateMutability\":\"nonpayable\",\"type\":\"function\"},{\"inputs\":[{\"internalType\":\"string\",\"name\":\"_name\",\"type\":\"string\"},{\"internalType\":\"string\",\"name\":\"_symbol\",\"type\":\"string\"}],\"name\":\"deployTokens\",\"outputs\":[{\"internalType\":\"address\",\"name\":\"lootToken\",\"type\":\"address\"},{\"internalType\":\"address\",\"name\":\"sharesToken\",\"type\":\"address\"}],\"stateMutability\":\"nonpayable\",\"type\":\"function\"},{\"inputs\":[{\"internalType\":\"bytes[]\",\"name\":\"_calls\",\"type\":\"bytes[]\"},{\"internalType\":\"address\",\"name\":\"_target\",\"type\":\"address\"}],\"name\":\"encodeMultisend\",\"outputs\":[{\"internalType\":\"bytes\",\"name\":\"encodedMultisend\",\"type\":\"bytes\"}],\"stateMutability\":\"pure\",\"type\":\"function\"},{\"inputs\":[],\"name\":\"gnosisFallbackLibrary\",\"outputs\":[{\"internalType\":\"address\",\"name\":\"\",\"type\":\"address\"}],\"stateMutability\":\"view\",\"type\":\"function\"},{\"inputs\":[],\"name\":\"gnosisMultisendLibrary\",\"outputs\":[{\"internalType\":\"address\",\"name\":\"\",\"type\":\"address\"}],\"stateMutability\":\"view\",\"type\":\"function\"},{\"inputs\":[],\"name\":\"gnosisSingleton\",\"outputs\":[{\"internalType\":\"address\",\"name\":\"\",\"type\":\"address\"}],\"stateMutability\":\"view\",\"type\":\"function\"},{\"inputs\":[],\"name\":\"initialize\",\"outputs\":[],\"stateMutability\":\"nonpayable\",\"type\":\"function\"},{\"inputs\":[],\"name\":\"lootSingleton\",\"outputs\":[{\"internalType\":\"address\",\"name\":\"\",\"type\":\"address\"}],\"stateMutability\":\"view\",\"type\":\"function\"},{\"inputs\":[],\"name\":\"owner\",\"outputs\":[{\"internalType\":\"address\",\"name\":\"\",\"type\":\"address\"}],\"stateMutability\":\"view\",\"type\":\"function\"},{\"inputs\":[],\"name\":\"proxiableUUID\",\"outputs\":[{\"internalType\":\"bytes32\",\"name\":\"\",\"type\":\"bytes32\"}],\"stateMutability\":\"view\",\"type\":\"function\"},{\"inputs\":[],\"name\":\"renounceOwnership\",\"outputs\":[],\"stateMutability\":\"nonpayable\",\"type\":\"function\"},{\"inputs\":[{\"internalType\":\"address payable\",\"name\":\"_template\",\"type\":\"address\"},{\"internalType\":\"address\",\"name\":\"_gnosisSingleton\",\"type\":\"address\"},{\"internalType\":\"address\",\"name\":\"_gnosisFallbackLibrary\",\"type\":\"address\"},{\"internalType\":\"address\",\"name\":\"_gnosisMultisendLibrary\",\"type\":\"address\"},{\"internalType\":\"address\",\"name\":\"_gnosisSafeProxyFactory\",\"type\":\"address\"},{\"internalType\":\"address\",\"name\":\"_moduleProxyFactory\",\"type\":\"address\"},{\"internalType\":\"address\",\"name\":\"_lootSingleton\",\"type\":\"address\"},{\"internalType\":\"address\",\"name\":\"_sharesSingleton\",\"type\":\"address\"}],\"name\":\"setAddrs\",\"outputs\":[],\"stateMutability\":\"nonpayable\",\"type\":\"function\"},{\"inputs\":[],\"name\":\"sharesSingleton\",\"outputs\":[{\"internalType\":\"address\",\"name\":\"\",\"type\":\"address\"}],\"stateMutability\":\"view\",\"type\":\"function\"},{\"inputs\":[{\"internalType\":\"bytes\",\"name\":\"initializationParams\",\"type\":\"bytes\"},{\"internalType\":\"bytes[]\",\"name\":\"initializationActions\",\"type\":\"bytes[]\"},{\"internalType\":\"uint256\",\"name\":\"_saltNonce\",\"type\":\"uint256\"}],\"name\":\"summonBaal\",\"outputs\":[{\"internalType\":\"address\",\"name\":\"\",\"type\":\"address\"}],\"stateMutability\":\"nonpayable\",\"type\":\"function\"},{\"inputs\":[{\"internalType\":\"bytes\",\"name\":\"initializationParams\",\"type\":\"bytes\"},{\"internalType\":\"bytes[]\",\"name\":\"initializationActions\",\"type\":\"bytes[]\"},{\"internalType\":\"uint256\",\"name\":\"_saltNonce\",\"type\":\"uint256\"},{\"internalType\":\"bytes32\",\"name\":\"referrer\",\"type\":\"bytes32\"}],\"name\":\"summonBaalFromReferrer\",\"outputs\":[{\"internalType\":\"address\",\"name\":\"\",\"type\":\"address\"}],\"stateMutability\":\"payable\",\"type\":\"function\"},{\"inputs\":[],\"name\":\"template\",\"outputs\":[{\"internalType\":\"address payable\",\"name\":\"\",\"type\":\"address\"}],\"stateMutability\":\"view\",\"type\":\"function\"},{\"inputs\":[{\"internalType\":\"address\",\"name\":\"newOwner\",\"type\":\"address\"}],\"name\":\"transferOwnership\",\"outputs\":[],\"stateMutability\":\"nonpayable\",\"type\":\"function\"},{\"inputs\":[{\"internalType\":\"address\",\"name\":\"newImplementation\",\"type\":\"address\"}],\"name\":\"upgradeTo\",\"outputs\":[],\"stateMutability\":\"nonpayable\",\"type\":\"function\"},{\"inputs\":[{\"internalType\":\"address\",\"name\":\"newImplementation\",\"type\":\"address\"},{\"internalType\":\"bytes\",\"name\":\"data\",\"type\":\"bytes\"}],\"name\":\"upgradeToAndCall\",\"outputs\":[],\"stateMutability\":\"payable\",\"type\":\"function\"}],\"devdoc\":{\"kind\":\"dev\",\"methods\":{\"owner()\":{\"details\":\"Returns the address of the current owner.\"},\"proxiableUUID()\":{\"details\":\"Implementation of the ERC1822 {proxiableUUID} function. This returns the storage slot used by the implementation. It is used to validate the implementation's compatibility when performing an upgrade. IMPORTANT: A proxy pointing at a proxiable contract should not be considered proxiable itself, because this risks bricking a proxy that upgrades to it, by delegating to itself until out of gas. Thus it is critical that this function revert if invoked through a proxy. This is guaranteed by the `notDelegated` modifier.\"},\"renounceOwnership()\":{\"details\":\"Leaves the contract without owner. It will not be possible to call `onlyOwner` functions anymore. Can only be called by the current owner. NOTE: Renouncing ownership will leave the contract without an owner, thereby removing any functionality that is only available to the owner.\"},\"transferOwnership(address)\":{\"details\":\"Transfers ownership of the contract to a new account (`newOwner`). Can only be called by the current owner.\"},\"upgradeTo(address)\":{\"details\":\"Upgrade the implementation of the proxy to `newImplementation`. Calls {_authorizeUpgrade}. Emits an {Upgraded} event.\"},\"upgradeToAndCall(address,bytes)\":{\"details\":\"Upgrade the implementation of the proxy to `newImplementation`, and subsequently execute the function call encoded in `data`. Calls {_authorizeUpgrade}. Emits an {Upgraded} event.\"}},\"version\":1},\"userdoc\":{\"kind\":\"user\",\"methods\":{},\"version\":1}},\"settings\":{\"compilationTarget\":{\"contracts/BaalSummoner.sol\":\"BaalSummoner\"},\"evmVersion\":\"london\",\"libraries\":{},\"metadata\":{\"bytecodeHash\":\"ipfs\"},\"optimizer\":{\"enabled\":true,\"runs\":200},\"remappings\":[]},\"sources\":{\"@gnosis.pm/safe-contracts/contracts/GnosisSafe.sol\":{\"keccak256\":\"0x2ca9e3e053c969b9364f62c50c2c25b92525db7fd0bad3ae1fb0c20dd575367c\",\"license\":\"LGPL-3.0-only\",\"urls\":[\"bzz-raw://ef1bceac49ae93b31aec41380862fdc267823c41e2dfefb9b7d70d0996e858e1\",\"dweb:/ipfs/QmWFU5bic2CGv8QgQ8bxJnjMfuJgNL2zZubt5hvzhcRZPc\"]},\"@gnosis.pm/safe-contracts/contracts/base/Executor.sol\":{\"keccak256\":\"0x4d3a900673473466bc27413fdbb11aae60b5580b792c49411f01544e0b24fe08\",\"license\":\"LGPL-3.0-only\",\"urls\":[\"bzz-raw://71ada0590998f47d1ee9759aa190c82d4b348d59a2f582747650d9720245a309\",\"dweb:/ipfs/Qmb9UudLoJpPutHVP9pXd1poP5CqFf5sxVFuYw14SYfRFk\"]},\"@gnosis.pm/safe-contracts/contracts/base/FallbackManager.sol\":{\"keccak256\":\"0x1be9f0f3e80a78134c2e3a026c6a14759785bd35d135e87a4a025aeb6742791f\",\"license\":\"LGPL-3.0-only\",\"urls\":[\"bzz-raw://44130f09921e895c0b9d7797de1d64940a8c43391efcda3a0208cb9ad96475a7\",\"dweb:/ipfs/QmUur4hzvCJ68PnW6zQFpemAMH2DH5mExPqSZdpKeY1ZRN\"]},\"@gnosis.pm/safe-contracts/contracts/base/GuardManager.sol\":{\"keccak256\":\"0x53a532a31f9632d5a73ad0df56f05bd2b66a2f781f571eb48d00367d370707f9\",\"license\":\"LGPL-3.0-only\",\"urls\":[\"bzz-raw://eebc15cb7c83cf9516514b34bd16fb19c08104c738fa172ae3c98c66b84708ed\",\"dweb:/ipfs/QmfJ4yX5WwHU58QVoxJFaejyerscTs6VCgn2TdUVrEZeTP\"]},\"@gnosis.pm/safe-contracts/contracts/base/ModuleManager.sol\":{\"keccak256\":\"0x5512760a0328309f82a71cbe2ac14e0942501b9d44d5fb417bd02174546672e5\",\"license\":\"LGPL-3.0-only\",\"urls\":[\"bzz-raw://763cf803a98a921d62ed51d7876a13aed63968c828f026ce2beb747d2631c0bc\",\"dweb:/ipfs/QmbHZoYsbkxC2kVCs4pQ4nRaFrcgU5X8FuLX7vV3qDR9Y5\"]},\"@gnosis.pm/safe-contracts/contracts/base/OwnerManager.sol\":{\"keccak256\":\"0x01a3d64cc0967f42ae63802409f5404d18352516ea2a6335005003d919ffcf12\",\"license\":\"LGPL-3.0-only\",\"urls\":[\"bzz-raw://91824103f2966612103705d6493290e193b0c0ca2bbe7141965184435dbb999b\",\"dweb:/ipfs/Qmd7u917v4DnD4hvQGAGbchVJ8A7pm1UCzCv7sAzQnRoi4\"]},\"@gnosis.pm/safe-contracts/contracts/common/Enum.sol\":{\"keccak256\":\"0x473e45b1a5cc47be494b0e123c9127f0c11c1e0992a321ae5a644c0bfdb2c14f\",\"license\":\"LGPL-3.0-only\",\"urls\":[\"bzz-raw://948e6d5a8bd7377f7795b6e28584eab9be5c0a8db240bf5e606744a175238c3d\",\"dweb:/ipfs/QmQQaUmQfpuejV41jbxKSTgEBYYCcVTjCsDMgf2htgz6ej\"]},\"@gnosis.pm/safe-contracts/contracts/common/EtherPaymentFallback.sol\":{\"keccak256\":\"0x1a7928d29877da84a3d0df846d5cd933d48ee095c1bde0aa044e249b12e27a72\",\"license\":\"LGPL-3.0-only\",\"urls\":[\"bzz-raw://962fc098cfdd8a43cc7d294c1105718ea985cacf1172ea0426f7370e2096b830\",\"dweb:/ipfs/QmdZrxJ7dSWuTjbrN133YiRDLwYQr21zLr3CqWWtowY9Gu\"]},\"@gnosis.pm/safe-contracts/contracts/common/SecuredTokenTransfer.sol\":{\"keccak256\":\"0x178682d8477da42936c7e8e24d39094c4ac08ecd8623794b9535d77001b665f1\",\"license\":\"LGPL-3.0-only\",\"urls\":[\"bzz-raw://2ae8a6d5c7d4cc19c3b957c8857e87e92a4570effebf32ba54184c2b8375a0a2\",\"dweb:/ipfs/QmVNgRcRVgQZriJm8KVXQvRbHQf74wH7ABmBNTjBTqBa8r\"]},\"@gnosis.pm/safe-contracts/contracts/common/SelfAuthorized.sol\":{\"keccak256\":\"0x59d36efca578b75541a776f62a0d0ef03712fc27b6647c3915c14b572106d7bc\",\"license\":\"LGPL-3.0-only\",\"urls\":[\"bzz-raw://8530c6e0392415d42486847cd4368d30f6cac42051596330692a571fcdbb9e29\",\"dweb:/ipfs/QmWw51Pshw5t2sMKANzxtfNdBSQUyQQpfTr3Mi7oNJGk7U\"]},\"@gnosis.pm/safe-contracts/contracts/common/SignatureDecoder.sol\":{\"keccak256\":\"0x2d37be182472ccfee62a33e9939f9b3d509be4c32e9fdebc2c1746c573655987\",\"license\":\"LGPL-3.0-only\",\"urls\":[\"bzz-raw://f76d96f10640beee7d4b4ad119bd3c64aeb26929011d9c1eec738c63ebc92f63\",\"dweb:/ipfs/QmaqgDocQumKeyUMgZU7STzpTASQjDbUxbQKuZ17xhLaXz\"]},\"@gnosis.pm/safe-contracts/contracts/common/Singleton.sol\":{\"keccak256\":\"0x6e02c18998de8834dd7d69890cb6ede996b6f635d2337081a596d91e35e2c648\",\"license\":\"LGPL-3.0-only\",\"urls\":[\"bzz-raw://ce1dfe9f820352b6f95b350ac0b3fa8afc24ad77bffffc2c9e00462e2a41a666\",\"dweb:/ipfs/QmVr2dCUbNbg5e7UsgngGij5mybgkXcbf5e5cPhT21aFXA\"]},\"@gnosis.pm/safe-contracts/contracts/common/StorageAccessible.sol\":{\"keccak256\":\"0x36853adb266c2ab7d3c612aca799441a86bd15d9e1d24fc6c70d63f5c2df3aaf\",\"license\":\"LGPL-3.0-only\",\"urls\":[\"bzz-raw://3f210f47e032444049040d2929b32e02089aac1d05b07dcd77ee34bb63505dfa\",\"dweb:/ipfs/QmbE8GXFAbthieTL51S2XPF5URyPaj1tDubVuhztkSoiPo\"]},\"@gnosis.pm/safe-contracts/contracts/external/GnosisSafeMath.sol\":{\"keccak256\":\"0x2a2b4d74f5834a9437be0cd3254d7a676698fc78aa47941c2009470196998d98\",\"license\":\"LGPL-3.0-only\",\"urls\":[\"bzz-raw://ea04449ba8b78ec44f3463b68cbce971875626e91d028add50900c41101a1156\",\"dweb:/ipfs/QmR95ci4HVkJuyYGvYRHVpp6N3wefu5WVDhipKwRechWV6\"]},\"@gnosis.pm/safe-contracts/contracts/interfaces/ISignatureValidator.sol\":{\"keccak256\":\"0x5b6e9bf17f28738ce88e751f420b0559f5151ba7bec2ff3c7bb31e42673d6801\",\"license\":\"LGPL-3.0-only\",\"urls\":[\"bzz-raw://bfdde8390deb619e38f98be67c5f9d26f12623855540af76b9f454142d3896c1\",\"dweb:/ipfs/QmZrr1ocToR5S62W177qV2csfs7wCQNs3t9vatyx32uLXz\"]},\"@gnosis.pm/safe-contracts/contracts/proxies/GnosisSafeProxy.sol\":{\"keccak256\":\"0x3bfdd453d9f896f7029d15bcafd11886957b320ad1764309d9f74fa059715249\",\"license\":\"LGPL-3.0-only\",\"urls\":[\"bzz-raw://5b5b7d0c8a900ba758e012236bf1c55e885fe5716aa79f6f693d22c31c85f7d5\",\"dweb:/ipfs/QmUq5oNsZY1b5pcYAzrY1i9oqyPUaiFhLaEWgB9ML6LrBj\"]},\"@gnosis.pm/safe-contracts/contracts/proxies/GnosisSafeProxyFactory.sol\":{\"keccak256\":\"0x187c6f84c71b432da6721c1b81cebfbb9c37c0cc15ebd8de5a14ff7ec6db2d9e\",\"license\":\"LGPL-3.0-only\",\"urls\":[\"bzz-raw://cfe1ac5a4ba0475db666912d5b4397d8fae96342c27a47a664a881e24377ed38\",\"dweb:/ipfs/QmVcaZrvPbH2csouaU3r1quFtugC4AUeCbrzBBmXSYk9W6\"]},\"@gnosis.pm/safe-contracts/contracts/proxies/IProxyCreationCallback.sol\":{\"keccak256\":\"0x51a9ce914a6a943651c803541e44218a7ed0a2f98a94d55df66b173b5a11e365\",\"license\":\"LGPL-3.0-only\",\"urls\":[\"bzz-raw://5216ed8181c14d462ec821593c8f90f33c7dbe8b4c505a1092bf31a9d33132b9\",\"dweb:/ipfs/Qmbb2wkgijuTcEbGR7CnmiAtwZDyruQ2b1ged4HnLysQnT\"]},\"@gnosis.pm/zodiac/contracts/core/Module.sol\":{\"keccak256\":\"0x1b9b6f3b43db68f3c142b326544115d1b1fa1f319c980922ea0a29aa80f53664\",\"license\":\"LGPL-3.0-only\",\"urls\":[\"bzz-raw://89c48fe4addf27af8b1cbc3cad8a0b27fde67d0de8b29aba811b9d4cb97c6112\",\"dweb:/ipfs/QmNoJhTbtVv2J237BsMPfuNwSkPAq6zsAr2FNrnUkVBp3X\"]},\"@gnosis.pm/zodiac/contracts/factory/FactoryFriendly.sol\":{\"keccak256\":\"0x96e61585b7340a901a54eb4c157ce28b630bff3d9d4597dfaac692128ea458c4\",\"license\":\"LGPL-3.0-only\",\"urls\":[\"bzz-raw://26252f06a8f31d7fe771b50fde9a6338133750bf05f7fc421dfa70c1df25ed7b\",\"dweb:/ipfs/QmQrZ4Zgvi3andou57Be9qpMmZatMx88rMxp3DPwUaFPsR\"]},\"@gnosis.pm/zodiac/contracts/factory/ModuleProxyFactory.sol\":{\"keccak256\":\"0x70f6f1d88cf3382748e58f85ba87279f5bb8761863c293dd8c197a71ff558761\",\"license\":\"LGPL-3.0-only\",\"urls\":[\"bzz-raw://cd6aa9e49078fb8319d78b1cc847ed588f044ce7ea334693702418c0639d5691\",\"dweb:/ipfs/Qmaeeeid5BgYjUPBnoUJUFL1VJKrzdzUYBLmu3CmhyeLz1\"]},\"@gnosis.pm/zodiac/contracts/guard/BaseGuard.sol\":{\"keccak256\":\"0xa825848d06a1fc3cb7ad86727c669c8fc6b3bd8dbe419a617830ddcd5e245e47\",\"license\":\"LGPL-3.0-only\",\"urls\":[\"bzz-raw://58bd190f4bb876471908d6145c6bebb9a22b5c9183192ffe199f4d94753f36bb\",\"dweb:/ipfs/QmYioir1PsjbCWAdCrFGJQiGHZM65umtb8qUSa63cb5Djq\"]},\"@gnosis.pm/zodiac/contracts/guard/Guardable.sol\":{\"keccak256\":\"0xebdcfbe7f0822d8afcc21a1ca8d809417b438cc8b27c3547190a1627a9f5110f\",\"license\":\"LGPL-3.0-only\",\"urls\":[\"bzz-raw://b1c6c35a0ed50d561d819c60423b7a5e6c7cbeaf61c5e0b83dab210def1dd4ec\",\"dweb:/ipfs/QmSz8F6MtuYZMvMJDmfpt8VxHFeVexqS7mpWJE6kuJ8ZAF\"]},\"@gnosis.pm/zodiac/contracts/interfaces/IAvatar.sol\":{\"keccak256\":\"0xcd5508ffe596eef8fbccfd5fc4f10a34397773547ce64e212d48b5212865ec1f\",\"license\":\"LGPL-3.0-only\",\"urls\":[\"bzz-raw://1655ba8b760132ebd702cc806fcdad50a44d320fbeca14be00e35b0171bd35cf\",\"dweb:/ipfs/QmcbB5HpCoEQCTHKWxHS3HpFmgaB4AcZxZYtvQk2QEyvN2\"]},\"@gnosis.pm/zodiac/contracts/interfaces/IGuard.sol\":{\"keccak256\":\"0xd0d855accbc5fba81c67ab22cdbb03325a8a4d7f6b7e981d1ff0fec3178e464d\",\"license\":\"LGPL-3.0-only\",\"urls\":[\"bzz-raw://4b51c586b33cc97caebe85472855bbb4c56a4e387b14cde2c8110b12ace7ba6b\",\"dweb:/ipfs/QmYtVdNKa5D2A4cEdTg9cYwrDio7TdNKtbAHc86x33W5wt\"]},\"@opengsn/contracts/src/BaseRelayRecipient.sol\":{\"keccak256\":\"0xce3168b37fc87ec34a18b56b4b16a06432119c07fd2e1d864b871dcf40372ebe\",\"license\":\"MIT\",\"urls\":[\"bzz-raw://99b6d76e111f18169a6c3f9043a843f188a02b5737dc35e6c6535ee04858f1c7\",\"dweb:/ipfs/QmeibhmsicNMWMw1gggSknJsbm1WUtZgGokGnzd4CCZzTw\"]},\"@opengsn/contracts/src/interfaces/IRelayRecipient.sol\":{\"keccak256\":\"0x199e82e0a2833a97213b5c16ac9b4e2b1814f2e90a4c4916855cbc21e710ad5f\",\"license\":\"MIT\",\"urls\":[\"bzz-raw://92112fc87990f2d55c538946266c48f43e6ca442186ef3b8172eb4632deb0db3\",\"dweb:/ipfs/QmU6pqFXYT8fYfyhw7viRA775eBH4W7PAd589DVFGtSgxo\"]},\"@openzeppelin/contracts-upgradeable/access/OwnableUpgradeable.sol\":{\"keccak256\":\"0x247c62047745915c0af6b955470a72d1696ebad4352d7d3011aef1a2463cd888\",\"license\":\"MIT\",\"urls\":[\"bzz-raw://d7fc8396619de513c96b6e00301b88dd790e83542aab918425633a5f7297a15a\",\"dweb:/ipfs/QmXbP4kiZyp7guuS7xe8KaybnwkRPGrBc2Kbi3vhcTfpxb\"]},\"@openzeppelin/contracts-upgradeable/interfaces/draft-IERC1822Upgradeable.sol\":{\"keccak256\":\"0x77c89f893e403efc6929ba842b7ccf6534d4ffe03afe31670b4a528c0ad78c0f\",\"license\":\"MIT\",\"urls\":[\"bzz-raw://496bd9b3df2455d571018c09f0c6badd29713fdeb907c6aa09d8d28cb603f053\",\"dweb:/ipfs/QmXdJDyYs6WMwMh21dez2BYPxhSUaUYFMDtVNcn2cgFR79\"]},\"@openzeppelin/contracts-upgradeable/proxy/ERC1967/ERC1967UpgradeUpgradeable.sol\":{\"keccak256\":\"0x315887e846f1e5f8d8fa535a229d318bb9290aaa69485117f1ee8a9a6b3be823\",\"license\":\"MIT\",\"urls\":[\"bzz-raw://29dda00da6d269685b555e710e4abf1c3eb6d00c15b888a7880a2f8dd3c4fdc2\",\"dweb:/ipfs/QmSqcjtdECygtT1Gy7uEo42x8542srpgGEeKKHfcnQqXgn\"]},\"@openzeppelin/contracts-upgradeable/proxy/beacon/IBeaconUpgradeable.sol\":{\"keccak256\":\"0x24b86ac8c005b8c654fbf6ac34a5a4f61580d7273541e83e013e89d66fbf0908\",\"license\":\"MIT\",\"urls\":[\"bzz-raw://4dbfe1a3b3b3fb64294ce41fd2ad362e7b7012208117864f42c1a67620a6d5c1\",\"dweb:/ipfs/QmVMU5tWt7zBQMmf5cpMX8UMHV86T3kFeTxBTBjFqVWfoJ\"]},\"@openzeppelin/contracts-upgradeable/proxy/utils/Initializable.sol\":{\"keccak256\":\"0xe798cadb41e2da274913e4b3183a80f50fb057a42238fe8467e077268100ec27\",\"license\":\"MIT\",\"urls\":[\"bzz-raw://899f850f7df5a270bccfb765d70069959ca1c20d3a7381c1c3bda8a3ffee1935\",\"dweb:/ipfs/QmVdnAqwyX2L3nX2HDA5WKGtVBFyH1nKE9A1k7fZnPBkhP\"]},\"@openzeppelin/contracts-upgradeable/proxy/utils/UUPSUpgradeable.sol\":{\"keccak256\":\"0x7967d130887c4b40666cd88f8744691d4527039a1b2a38aa0de41481ef646778\",\"license\":\"MIT\",\"urls\":[\"bzz-raw://40e60cbf0e2efede4d9c169e66336a64615af7b719a896ef1f37ae8cd4614ec1\",\"dweb:/ipfs/QmYNiwY22ifhfa8yK6mLCEKfj39caYUHLqe2VBtzDnvdsV\"]},\"@openzeppelin/contracts-upgradeable/security/ReentrancyGuardUpgradeable.sol\":{\"keccak256\":\"0x2b3005a0064cfc558bdf64b2bae94b565f4574a536aadd61c13838d4f2157790\",\"license\":\"MIT\",\"urls\":[\"bzz-raw://622c3eb87563e71585c9f538d1a196fe2d154dcc5b8f335e8770a8acc95e1f3a\",\"dweb:/ipfs/QmSnDqJJLzv3mirjGB1vrk5X7hegFdS7BKpscpxyqj7sWu\"]},\"@openzeppelin/contracts-upgradeable/utils/AddressUpgradeable.sol\":{\"keccak256\":\"0x2edcb41c121abc510932e8d83ff8b82cf9cdde35e7c297622f5c29ef0af25183\",\"license\":\"MIT\",\"urls\":[\"bzz-raw://72460c66cd1c3b1c11b863e0d8df0a1c56f37743019e468dc312c754f43e3b06\",\"dweb:/ipfs/QmPExYKiNb9PUsgktQBupPaM33kzDHxaYoVeJdLhv8s879\"]},\"@openzeppelin/contracts-upgradeable/utils/ContextUpgradeable.sol\":{\"keccak256\":\"0x963ea7f0b48b032eef72fe3a7582edf78408d6f834115b9feadd673a4d5bd149\",\"license\":\"MIT\",\"urls\":[\"bzz-raw://d6520943ea55fdf5f0bafb39ed909f64de17051bc954ff3e88c9e5621412c79c\",\"dweb:/ipfs/QmWZ4rAKTQbNG2HxGs46AcTXShsVytKeLs7CUCdCSv5N7a\"]},\"@openzeppelin/contracts-upgradeable/utils/StorageSlotUpgradeable.sol\":{\"keccak256\":\"0x09864aea84f01e39313375b5610c73a3c1c68abbdc51e5ccdd25ff977fdadf9a\",\"license\":\"MIT\",\"urls\":[\"bzz-raw://aedb48081190fa828d243529ce25c708202c7d4ccfe99f0e4ecd6bc0cfcd03f3\",\"dweb:/ipfs/QmWyiDQHPZA56iqsAwTmiJoxvNeRQLUVr4gTfzpdpXivpo\"]},\"@openzeppelin/contracts-upgradeable/utils/StringsUpgradeable.sol\":{\"keccak256\":\"0x6b9a5d35b744b25529a2856a8093e7c03fb35a34b1c4fb5499e560f8ade140da\",\"license\":\"MIT\",\"urls\":[\"bzz-raw://187b5c3a1c9e77678732a2cc5284237f9cfca6bc28ee8bc0a0f4f951d7b3a2f8\",\"dweb:/ipfs/Qmb2KFr7WuQu7btdCiftQG64vTzrG4UyzVmo53EYHcnHYA\"]},\"@openzeppelin/contracts-upgradeable/utils/cryptography/ECDSAUpgradeable.sol\":{\"keccak256\":\"0x12f297cafe6e2847ae0378502f155654d0764b532a9873c8afe4350950fa7971\",\"license\":\"MIT\",\"urls\":[\"bzz-raw://28074f6df7132e83819042a06ef75ae53c88c53c077b8222b9772b780d58bd58\",\"dweb:/ipfs/QmXXwSxWn4XGCy218fn3f2m3UmFNUiroeQ8sCR3vzNU6Wc\"]},\"@openzeppelin/contracts-upgradeable/utils/cryptography/EIP712Upgradeable.sol\":{\"keccak256\":\"0x3017aded62c4a2b9707f5f06f92934e592c1c9b6f384b91b51340a6d5f841931\",\"license\":\"MIT\",\"urls\":[\"bzz-raw://bb693afc2a614ec7afee965caaf5d53c3f32644e33286f60d17ae0e9aca84d44\",\"dweb:/ipfs/QmVJy43EBWvVT5NgpsV8WJfDHtZbnqZGMhmv1WbWaV5dJV\"]},\"@openzeppelin/contracts-upgradeable/utils/cryptography/draft-EIP712Upgradeable.sol\":{\"keccak256\":\"0x31a2e227f5653e4b31e0f680857b8842073d083b33df11b3f3b3bb5ddc10526e\",\"license\":\"MIT\",\"urls\":[\"bzz-raw://051dd3770ecfea8fd28342b4e48c34d0cba9fbc2dbb1286d710d3d547d707018\",\"dweb:/ipfs/QmQp89U3xBRY7Xjw2HfozkMD3Yh64WvzJKQ1SHGRiEdm2J\"]},\"@openzeppelin/contracts-upgradeable/utils/math/MathUpgradeable.sol\":{\"keccak256\":\"0xc1bd5b53319c68f84e3becd75694d941e8f4be94049903232cd8bc7c535aaa5a\",\"license\":\"MIT\",\"urls\":[\"bzz-raw://056027a78e6f4b78a39be530983551651ee5a052e786ca2c1c6a3bb1222b03b4\",\"dweb:/ipfs/QmXRUpywAqNwAfXS89vrtiE2THRM9dX9pQ4QxAkV1Wx9kt\"]},\"@openzeppelin/contracts/interfaces/draft-IERC1822.sol\":{\"keccak256\":\"0x1d4afe6cb24200cc4545eed814ecf5847277dfe5d613a1707aad5fceecebcfff\",\"license\":\"MIT\",\"urls\":[\"bzz-raw://383fb7b8181016ac5ccf07bc9cdb7c1b5045ea36e2cc4df52bcbf20396fc7688\",\"dweb:/ipfs/QmYJ7Cg4WmE3rR8KGQxjUCXFfTH6TcwZ2Z1f6tPrq7jHFr\"]},\"@openzeppelin/contracts/proxy/ERC1967/ERC1967Proxy.sol\":{\"keccak256\":\"0xa2b22da3032e50b55f95ec1d13336102d675f341167aa76db571ef7f8bb7975d\",\"license\":\"MIT\",\"urls\":[\"bzz-raw://96b6d77a20bebd4eb06b801d3d020c7e82be13bd535cb0d0a6b7181c51dab5d5\",\"dweb:/ipfs/QmPUR9Cv9jNFdQX6PtBfaBW1ZCnKwiu65R2VD5kbdanDyn\"]},\"@openzeppelin/contracts/proxy/ERC1967/ERC1967Upgrade.sol\":{\"keccak256\":\"0xabf3f59bc0e5423eae45e459dbe92e7052c6983628d39008590edc852a62f94a\",\"license\":\"MIT\",\"urls\":[\"bzz-raw://89c2a0f70157c13845be5cb49b078a6374fee3a78fa950052a3af26190255da8\",\"dweb:/ipfs/QmUcvMEQH1oMM2pUyMuDiBUKdvvnTz1NRB8bmPHrVq8725\"]},\"@openzeppelin/contracts/proxy/Proxy.sol\":{\"keccak256\":\"0xc130fe33f1b2132158531a87734153293f6d07bc263ff4ac90e85da9c82c0e27\",\"license\":\"MIT\",\"urls\":[\"bzz-raw://8831721b6f4cc26534d190f9f1631c3f59c9ff38efdd911f85e0882b8e360472\",\"dweb:/ipfs/QmQZnLErZNStirSQ13ZNWQgvEYUtGE5tXYwn4QUPaVUfPN\"]},\"@openzeppelin/contracts/proxy/beacon/IBeacon.sol\":{\"keccak256\":\"0xd50a3421ac379ccb1be435fa646d66a65c986b4924f0849839f08692f39dde61\",\"license\":\"MIT\",\"urls\":[\"bzz-raw://ada1e030c0231db8d143b44ce92b4d1158eedb087880cad6d8cc7bd7ebe7b354\",\"dweb:/ipfs/QmWZ2NHZweRpz1U9GF6R1h65ri76dnX7fNxLBeM2t5N5Ce\"]},\"@openzeppelin/contracts/utils/Address.sol\":{\"keccak256\":\"0xf96f969e24029d43d0df89e59d365f277021dac62b48e1c1e3ebe0acdd7f1ca1\",\"license\":\"MIT\",\"urls\":[\"bzz-raw://ec772b45a624be516f1c81970caa8a2e144301e9d0921cbc1a2789fef39a1269\",\"dweb:/ipfs/QmNyjwxCrGhQMyzLD93oUobJXVe9ceJvRvfXwbEtuxPiEj\"]},\"@openzeppelin/contracts/utils/StorageSlot.sol\":{\"keccak256\":\"0xd5c50c54bf02740ebd122ff06832546cb5fa84486d52695a9ccfd11666e0c81d\",\"license\":\"MIT\",\"urls\":[\"bzz-raw://39e096c60a6eb1c6a257122d515496bd92d0c6a693a8f07acb6aa4b1263e95d4\",\"dweb:/ipfs/QmPs5trJBacCiSkezP6tpevapuRYWNY6mqSFzsMCJj7e6B\"]},\"@openzeppelin/contracts/utils/introspection/IERC165.sol\":{\"keccak256\":\"0x447a5f3ddc18419d41ff92b3773fb86471b1db25773e07f877f548918a185bf1\",\"license\":\"MIT\",\"urls\":[\"bzz-raw://be161e54f24e5c6fae81a12db1a8ae87bc5ae1b0ddc805d82a1440a68455088f\",\"dweb:/ipfs/QmP7C3CHdY9urF4dEMb9wmsp1wMxHF6nhA2yQE5SKiPAdy\"]},\"contracts/Baal.sol\":{\"keccak256\":\"0x273e4c8a1708ff252be03f14f12032a9a6fa1c48de3819a4a33902e4e4497a4c\",\"license\":\"MIT\",\"urls\":[\"bzz-raw://e9b078ee5d474b659c57e8a094bf113a70477fec37f08119a4e577ade1cd2b21\",\"dweb:/ipfs/QmbePm8oPTw8bhGEeShYoJiEXgnLMkfPdbFS9WWAx1F7SD\"]},\"contracts/BaalSummoner.sol\":{\"keccak256\":\"0x237bd051ebcae8652a7c4e359bd75f30fd59e04fbf813589e2ec4f079c3d8cc6\",\"license\":\"MIT\",\"urls\":[\"bzz-raw://d37e554c1600493df9e6ec59e74f8ad0badbd897138feab1ee24959712aa4d59\",\"dweb:/ipfs/QmPcMAMQwKq9WvbsLzFA2kn9jhoFDhxZossuJCHDr3iPTZ\"]},\"contracts/interfaces/IBaalToken.sol\":{\"keccak256\":\"0x4c057a382569403c59a92c88f3008664b3f957967f94505b82c78ce779282fce\",\"license\":\"MIT\",\"urls\":[\"bzz-raw://e25459627992b498fb0a715e3a9988f05ff8cecf142607d127062e3dfa64b14e\",\"dweb:/ipfs/QmZAdN1ZVqJUTzUm2thY8V2yBKbpBpkZ7aGAvk1rhtE9Vn\"]}},\"version\":1}",
          "bytecode": "0x60a06040523060601b60805234801561001757600080fd5b5060805160601c612d7861005260003960008181610483015281816104cf01528181610593015281816105d601526106720152612d786000f3fe608060405260043610620001375760003560e01c8063881e4ea411620000ad578063d9118ce7116200006c578063d9118ce71462000364578063ebfb8a431462000386578063f0fa28b914620003ab578063f2fde38b14620003cd578063f884231c14620003f257600080fd5b8063881e4ea414620002865780638da5cb5b14620002a857806397fc9fbb14620002c8578063a2346618146200030e578063d61f27ae146200033057600080fd5b80634f1ef28611620000fa5780634f1ef286146200020557806352d1902d146200021c5780636f2ddd931462000234578063715018a614620002565780638129fc1c146200026e57600080fd5b8063209f3695146200013c57806321d56a43146200017057806323626b4514620001925780633659cfe614620001b95780634a8b0b3214620001e0575b600080fd5b620001536200014d36600462001f1e565b62000417565b6040516001600160a01b0390911681526020015b60405180910390f35b3480156200017d57600080fd5b5060cb5462000153906001600160a01b031681565b3480156200019f57600080fd5b50620001aa60c95481565b60405190815260200162000167565b348015620001c657600080fd5b50620001de620001d836600462001ccc565b62000478565b005b348015620001ed57600080fd5b5062000153620001ff36600462001ea3565b6200056d565b620001de6200021636600462001dc6565b62000588565b3480156200022957600080fd5b50620001aa62000665565b3480156200024157600080fd5b5060ca5462000153906001600160a01b031681565b3480156200026357600080fd5b50620001de6200071b565b3480156200027b57600080fd5b50620001de62000733565b3480156200029357600080fd5b5060cd5462000153906001600160a01b031681565b348015620002b557600080fd5b506033546001600160a01b031662000153565b348015620002d557600080fd5b50620002ed620002e736600462001fa3565b62000856565b604080516001600160a01b0393841681529290911660208301520162000167565b3480156200031b57600080fd5b5060cf5462000153906001600160a01b031681565b3480156200033d57600080fd5b50620003556200034f36600462001e1c565b62000a17565b604051620001679190620023a2565b3480156200037157600080fd5b5060ce5462000153906001600160a01b031681565b3480156200039357600080fd5b50620001de620003a536600462001d0c565b62000aec565b348015620003b857600080fd5b5060cc5462000153906001600160a01b031681565b348015620003da57600080fd5b50620001de620003ec36600462001ccc565b62000df0565b348015620003ff57600080fd5b50620001536200041136600462001ccc565b62000e6c565b600080620004298888888888620010d4565b604080518581526001600160a01b03831660208201529192507fe1e7ecd08b1e119c2755872e95180d0d070137a7c2af361de1d7256bc3674107910160405180910390a1979650505050505050565b306001600160a01b037f0000000000000000000000000000000000000000000000000000000000000000161415620004cd5760405162461bcd60e51b8152600401620004c490620023e0565b60405180910390fd5b7f00000000000000000000000000000000000000000000000000000000000000006001600160a01b03166200051860008051602062002cfc833981519152546001600160a01b031690565b6001600160a01b031614620005415760405162461bcd60e51b8152600401620004c4906200242c565b6200054c81620015e4565b604080516000808252602082019092526200056a91839190620015ee565b50565b60006200057e8686868686620010d4565b9695505050505050565b306001600160a01b037f0000000000000000000000000000000000000000000000000000000000000000161415620005d45760405162461bcd60e51b8152600401620004c490620023e0565b7f00000000000000000000000000000000000000000000000000000000000000006001600160a01b03166200061f60008051602062002cfc833981519152546001600160a01b031690565b6001600160a01b031614620006485760405162461bcd60e51b8152600401620004c4906200242c565b6200065382620015e4565b6200066182826001620015ee565b5050565b6000306001600160a01b037f00000000000000000000000000000000000000000000000000000000000000001614620007075760405162461bcd60e51b815260206004820152603860248201527f555550535570677261646561626c653a206d757374206e6f742062652063616c60448201527f6c6564207468726f7567682064656c656761746563616c6c00000000000000006064820152608401620004c4565b5060008051602062002cfc83398151915290565b620007256200177b565b620007316000620017d7565b565b600054610100900460ff1615808015620007545750600054600160ff909116105b80620007705750303b15801562000770575060005460ff166001145b620007d55760405162461bcd60e51b815260206004820152602e60248201527f496e697469616c697a61626c653a20636f6e747261637420697320616c72656160448201526d191e481a5b9a5d1a585b1a5e995960921b6064820152608401620004c4565b6000805460ff191660011790558015620007f9576000805461ff0019166101001790555b6200080362001829565b6200080d6200185d565b80156200056a576000805461ff0019169055604051600181527f7f26b83ff96e1f2b6a682f133852f6798a09c465da95921460cefb38474024989060200160405180910390a150565b60ce5460405160009182916001600160a01b039091169063562d190d60e01b90620008869087906020016200217c565b60405160208183030381529060405285604051602001620008a89190620021a7565b60408051601f1981840301815290829052620008c89291602401620023b7565b60408051601f198184030181529181526020820180516001600160e01b03166001600160e01b0319909416939093179092529051620009079062001b1c565b62000914929190620022b2565b604051809103906000f08015801562000931573d6000803e3d6000fd5b5060cf546040519193506001600160a01b03169063562d190d60e01b90620009609087908790602401620023b7565b60408051601f198184030181529181526020820180516001600160e01b03166001600160e01b03199094169390931790925290516200099f9062001b1c565b620009ac929190620022b2565b604051809103906000f080158015620009c9573d6000803e3d6000fd5b50604080516001600160a01b038086168252831660208201529192507ffb5849d45e916a3192059973d782e08b2b3888fa796f536d99af0c7bd01ca16c910160405180910390a19250929050565b60608060005b845181101562000aa65781600085600088858151811062000a425762000a4262002584565b60200260200101515189868151811062000a605762000a6062002584565b602002602001015160405160200162000a7f969594939291906200210e565b6040516020818303038152906040529150808062000a9d9062002550565b91505062000a1d565b508060405160240162000aba9190620023a2565b60408051601f198184030181529190526020810180516001600160e01b03166346c07f8560e11b179052949350505050565b62000af66200177b565b6001600160a01b03821662000b3f5760405162461bcd60e51b815260206004820152600e60248201526d10b637b7ba29b4b733b632ba37b760911b6044820152606401620004c4565b6001600160a01b03811662000b8a5760405162461bcd60e51b815260206004820152601060248201526f10b9b430b932b9a9b4b733b632ba37b760811b6044820152606401620004c4565b6001600160a01b03871662000bd55760405162461bcd60e51b815260206004820152601060248201526f10b3b737b9b4b9a9b4b733b632ba37b760811b6044820152606401620004c4565b6001600160a01b03861662000c265760405162461bcd60e51b815260206004820152601660248201527521676e6f73697346616c6c6261636b4c69627261727960501b6044820152606401620004c4565b6001600160a01b03851662000c7e5760405162461bcd60e51b815260206004820152601760248201527f21676e6f7369734d756c746973656e644c6962726172790000000000000000006044820152606401620004c4565b6001600160a01b03841662000cd65760405162461bcd60e51b815260206004820152601760248201527f21676e6f7369735361666550726f7879466163746f72790000000000000000006044820152606401620004c4565b6001600160a01b03831662000d245760405162461bcd60e51b8152602060048201526013602482015272216d6f64756c6550726f7879466163746f727960681b6044820152606401620004c4565b60ca80546001600160a01b03199081166001600160a01b038b81169190911790925560cb805482168a841617905560cc8054821689841617905560cd8054821688841617905560d08054821687841617905560d18054821686841617905560ce8054821685841617905560cf805490911691831691909117905560c980547fe6fb5c8c5a2615df9d8de2df2fdebdae949bcf3a2a80cb8ff90ace3459de85cc91600062000dd18362002550565b9091555060405190815260200160405180910390a15050505050505050565b62000dfa6200177b565b6001600160a01b03811662000e615760405162461bcd60e51b815260206004820152602660248201527f4f776e61626c653a206e6577206f776e657220697320746865207a65726f206160448201526564647265737360d01b6064820152608401620004c4565b6200056a81620017d7565b60d05460cb5460408051602081018252600080825291516361b69abd60e01b8152919384936001600160a01b03918216936361b69abd9362000eb6939092169190600401620022b2565b602060405180830381600087803b15801562000ed157600080fd5b505af115801562000ee6573d6000803e3d6000fd5b505050506040513d601f19601f8201168201806040525081019062000f0c919062001cec565b6040516001600160a01b038516602482015290915060009060440160408051601f19818403018152918152602080830180516001600160e01b031663610b592560e01b1790528251915192935060009262000f719284928792849291889101620021d2565b604051602081830303815290604052905060008160405160240162000f979190620023a2565b60408051601f19818403018152918152602080830180516001600160e01b03166346c07f8560e11b1790528151600180825281840190935292935060009291908281019080368337019050509050868160008151811062000ffc5762000ffc62002584565b6001600160a01b03928316602091820292909201015260cd5460cc5460405163b63e800d60e01b81528884169363b63e800d9362001051938793600193928316928a92169060009081908190600401620022e0565b600060405180830381600087803b1580156200106c57600080fd5b505af115801562001081573d6000803e3d6000fd5b5050604080516001600160a01b03808a1682528b1660208201527f7ad675e6593a2c3bdf52607876353caf39853572dd787d2a5eed1cc99097b3f0935001905060405180910390a1509295945050505050565b600080808080808080620010eb8c8e018e62002004565b955095509550955095509550600060d160009054906101000a90046001600160a01b03166001600160a01b031663f1ab873c60ca60009054906101000a90046001600160a01b0316604051602401604051602081830303815290604052632d77bef360e11b6001600160e01b0319166020820180516001600160e01b0383818316178352505050508d6040518463ffffffff1660e01b815260040162001194939291906200222a565b602060405180830381600087803b158015620011af57600080fd5b505af1158015620011c4573d6000803e3d6000fd5b505050506040513d601f19601f82011682018060405250810190620011ea919062001cec565b90506001600160a01b03831615806200120a57506001600160a01b038216155b156200138e576200121c878762000856565b8093508194505050826001600160a01b0316638456cb596040518163ffffffff1660e01b8152600401600060405180830381600087803b1580156200126057600080fd5b505af115801562001275573d6000803e3d6000fd5b50505050816001600160a01b0316638456cb596040518163ffffffff1660e01b8152600401600060405180830381600087803b158015620012b557600080fd5b505af1158015620012ca573d6000803e3d6000fd5b505060405163f2fde38b60e01b81526001600160a01b0384811660048301528616925063f2fde38b9150602401600060405180830381600087803b1580156200131257600080fd5b505af115801562001327573d6000803e3d6000fd5b505060405163f2fde38b60e01b81526001600160a01b0384811660048301528516925063f2fde38b9150602401600060405180830381600087803b1580156200136f57600080fd5b505af115801562001384573d6000803e3d6000fd5b505050506200139e565b6200139b600189620024f7565b97505b6001600160a01b038516620013c057620013b88162000e6c565b9450620013d0565b620013cd600289620024f7565b97505b6000620013e9620013e28d8f62002512565b8362000a17565b60cd546040519192506000916200141791879187916001600160a01b0316908b908b90889060200162002260565b60408051601f198184030181529082905263a4f9edbf60e01b825291506001600160a01b0384169063a4f9edbf9062001455908490600401620023a2565b600060405180830381600087803b1580156200147057600080fd5b505af115801562001485573d6000803e3d6000fd5b50505050826001600160a01b0316638009ba1f6040518163ffffffff1660e01b815260040160206040518083038186803b158015620014c357600080fd5b505afa158015620014d8573d6000803e3d6000fd5b505050506040513d601f19601f82011682018060405250810190620014fe919062001cec565b6001600160a01b0316836001600160a01b031663f460124d6040518163ffffffff1660e01b815260040160206040518083038186803b1580156200154157600080fd5b505afa15801562001556573d6000803e3d6000fd5b505050506040513d601f19601f820116820180604052508101906200157c919062001cec565b604080516001600160a01b038b811682528a811660208301529181018e905291811691908616907fcf2f09cd0dbc149b12a3630a11b7d73476660f3d08d3dc7dcc79c6dec555ee7a9060600160405180910390a450909e9d5050505050505050505050505050565b6200056a6200177b565b7f4910fdfa16fed3260ed0e7147f7cc6da11a60208b5b9406d12a635614ffd91435460ff16156200162957620016248362001887565b505050565b826001600160a01b03166352d1902d6040518163ffffffff1660e01b815260040160206040518083038186803b1580156200166357600080fd5b505afa92505050801562001696575060408051601f3d908101601f19168201909252620016939181019062001e89565b60015b620016fb5760405162461bcd60e51b815260206004820152602e60248201527f45524331393637557067726164653a206e657720696d706c656d656e7461746960448201526d6f6e206973206e6f74205555505360901b6064820152608401620004c4565b60008051602062002cfc83398151915281146200176d5760405162461bcd60e51b815260206004820152602960248201527f45524331393637557067726164653a20756e737570706f727465642070726f786044820152681a58589b195555525160ba1b6064820152608401620004c4565b506200162483838362001926565b6033546001600160a01b03163314620007315760405162461bcd60e51b815260206004820181905260248201527f4f776e61626c653a2063616c6c6572206973206e6f7420746865206f776e65726044820152606401620004c4565b603380546001600160a01b038381166001600160a01b0319831681179093556040519116919082907f8be0079c531659141344cd1fd0a4f28419497f9722a3daafe3b4186f6b6457e090600090a35050565b600054610100900460ff16620018535760405162461bcd60e51b8152600401620004c49062002478565b6200073162001957565b600054610100900460ff16620007315760405162461bcd60e51b8152600401620004c49062002478565b6001600160a01b0381163b620018f65760405162461bcd60e51b815260206004820152602d60248201527f455243313936373a206e657720696d706c656d656e746174696f6e206973206e60448201526c1bdd08184818dbdb9d1c9858dd609a1b6064820152608401620004c4565b60008051602062002cfc83398151915280546001600160a01b0319166001600160a01b0392909216919091179055565b62001931836200198c565b6000825111806200193f5750805b156200162457620019518383620019ce565b50505050565b600054610100900460ff16620019815760405162461bcd60e51b8152600401620004c49062002478565b6200073133620017d7565b620019978162001887565b6040516001600160a01b038216907fbc7cd75a20ee27fd9adebab32041f755214dbc6bffa90cc0225b39da2e5c2d3b90600090a250565b60606001600160a01b0383163b62001a385760405162461bcd60e51b815260206004820152602660248201527f416464726573733a2064656c65676174652063616c6c20746f206e6f6e2d636f6044820152651b9d1c9858dd60d21b6064820152608401620004c4565b600080846001600160a01b03168460405162001a559190620020f0565b600060405180830381855af49150503d806000811462001a92576040519150601f19603f3d011682016040523d82523d6000602084013e62001a97565b606091505b509150915062001ac2828260405180606001604052806027815260200162002d1c6027913962001acb565b95945050505050565b6060831562001adc57508162001ae8565b62001ae8838362001aef565b9392505050565b81511562001b005781518083602001fd5b8060405162461bcd60e51b8152600401620004c49190620023a2565b61073580620025c783390190565b600067ffffffffffffffff8084111562001b485762001b486200259a565b8360051b602062001b5b818301620024c3565b86815293508084018583810189101562001b7457600080fd5b60009350835b8881101562001bb45781358681111562001b92578586fd5b62001ba08b828b0162001c55565b845250918301919083019060010162001b7a565b5050505050509392505050565b60008083601f84011262001bd457600080fd5b50813567ffffffffffffffff81111562001bed57600080fd5b6020830191508360208260051b850101111562001c0957600080fd5b9250929050565b60008083601f84011262001c2357600080fd5b50813567ffffffffffffffff81111562001c3c57600080fd5b60208301915083602082850101111562001c0957600080fd5b600082601f83011262001c6757600080fd5b813567ffffffffffffffff81111562001c845762001c846200259a565b62001c99601f8201601f1916602001620024c3565b81815284602083860101111562001caf57600080fd5b816020850160208301376000918101602001919091529392505050565b60006020828403121562001cdf57600080fd5b813562001ae881620025b0565b60006020828403121562001cff57600080fd5b815162001ae881620025b0565b600080600080600080600080610100898b03121562001d2a57600080fd5b883562001d3781620025b0565b9750602089013562001d4981620025b0565b9650604089013562001d5b81620025b0565b9550606089013562001d6d81620025b0565b9450608089013562001d7f81620025b0565b935060a089013562001d9181620025b0565b925060c089013562001da381620025b0565b915060e089013562001db581620025b0565b809150509295985092959890939650565b6000806040838503121562001dda57600080fd5b823562001de781620025b0565b9150602083013567ffffffffffffffff81111562001e0457600080fd5b62001e128582860162001c55565b9150509250929050565b6000806040838503121562001e3057600080fd5b823567ffffffffffffffff81111562001e4857600080fd5b8301601f8101851362001e5a57600080fd5b62001e6b8582356020840162001b2a565b925050602083013562001e7e81620025b0565b809150509250929050565b60006020828403121562001e9c57600080fd5b5051919050565b60008060008060006060868803121562001ebc57600080fd5b853567ffffffffffffffff8082111562001ed557600080fd5b62001ee389838a0162001c10565b9097509550602088013591508082111562001efd57600080fd5b5062001f0c8882890162001bc1565b96999598509660400135949350505050565b6000806000806000806080878903121562001f3857600080fd5b863567ffffffffffffffff8082111562001f5157600080fd5b62001f5f8a838b0162001c10565b9098509650602089013591508082111562001f7957600080fd5b5062001f8889828a0162001bc1565b979a9699509760408101359660609091013595509350505050565b6000806040838503121562001fb757600080fd5b823567ffffffffffffffff8082111562001fd057600080fd5b62001fde8683870162001c55565b9350602085013591508082111562001ff557600080fd5b5062001e128582860162001c55565b60008060008060008060c087890312156200201e57600080fd5b863567ffffffffffffffff808211156200203757600080fd5b620020458a838b0162001c55565b975060208901359150808211156200205c57600080fd5b506200206b89828a0162001c55565b95505060408701356200207e81620025b0565b935060608701356200209081620025b0565b92506080870135620020a281620025b0565b915060a0870135620020b481620025b0565b809150509295509295509295565b60008151808452620020dc81602086016020860162002521565b601f01601f19169290920160200192915050565b600082516200210481846020870162002521565b9190910192915050565b6000875162002122818460208c0162002521565b808301905060ff60f81b8860f81b1681526bffffffffffffffffffffffff198760601b16600182015285601582015284603582015283516200216c81605584016020880162002521565b0160550198975050505050505050565b600082516200219081846020870162002521565b64081313d3d560da1b920191825250600501919050565b60008251620021bb81846020870162002521565b640b5313d3d560da1b920191825250600501919050565b60ff60f81b8660f81b1681526bffffffffffffffffffffffff198560601b166001820152836015820152826035820152600082516200221981605585016020870162002521565b919091016055019695505050505050565b6001600160a01b03841681526060602082018190526000906200225090830185620020c2565b9050826040830152949350505050565b6001600160a01b0387811682528681166020830152858116604083015284811660608301528316608082015260c060a08201819052600090620022a690830184620020c2565b98975050505050505050565b6001600160a01b0383168152604060208201819052600090620022d890830184620020c2565b949350505050565b6101008082528951908201819052600090610120830190602090818d01845b82811015620023265781516001600160a01b031685529383019390830190600101620022ff565b50505083018a90526001600160a01b03891660408401528281036060840152620023518189620020c2565b9150506200236a60808301876001600160a01b03169052565b6001600160a01b03851660a08301528360c08301526200239560e08301846001600160a01b03169052565b9998505050505050505050565b60208152600062001ae86020830184620020c2565b604081526000620023cc6040830185620020c2565b828103602084015262001ac28185620020c2565b6020808252602c908201527f46756e6374696f6e206d7573742062652063616c6c6564207468726f7567682060408201526b19195b1959d85d1958d85b1b60a21b606082015260800190565b6020808252602c908201527f46756e6374696f6e206d7573742062652063616c6c6564207468726f7567682060408201526b6163746976652070726f787960a01b606082015260800190565b6020808252602b908201527f496e697469616c697a61626c653a20636f6e7472616374206973206e6f74206960408201526a6e697469616c697a696e6760a81b606082015260800190565b604051601f8201601f1916810167ffffffffffffffff81118282101715620024ef57620024ef6200259a565b604052919050565b600082198211156200250d576200250d6200256e565b500190565b600062001ae836848462001b2a565b60005b838110156200253e57818101518382015260200162002524565b83811115620019515750506000910152565b60006000198214156200256757620025676200256e565b5060010190565b634e487b7160e01b600052601160045260246000fd5b634e487b7160e01b600052603260045260246000fd5b634e487b7160e01b600052604160045260246000fd5b6001600160a01b03811681146200056a57600080fdfe6080604052604051610735380380610735833981016040819052610022916102dc565b61002e82826000610035565b505061043b565b61003e8361006b565b60008251118061004b5750805b156100665761006483836100ab60201b6100291760201c565b505b505050565b610074816100d7565b6040516001600160a01b038216907fbc7cd75a20ee27fd9adebab32041f755214dbc6bffa90cc0225b39da2e5c2d3b90600090a250565b60606100d0838360405180606001604052806027815260200161070e602791396101a9565b9392505050565b6100ea8161022260201b6100551760201c565b6101515760405162461bcd60e51b815260206004820152602d60248201527f455243313936373a206e657720696d706c656d656e746174696f6e206973206e60448201526c1bdd08184818dbdb9d1c9858dd609a1b60648201526084015b60405180910390fd5b806101887f360894a13ba1a3210667c828492db98dca3e2076cc3735a920a3ca505d382bbc60001b61023160201b6100641760201c565b80546001600160a01b0319166001600160a01b039290921691909117905550565b6060600080856001600160a01b0316856040516101c691906103aa565b600060405180830381855af49150503d8060008114610201576040519150601f19603f3d011682016040523d82523d6000602084013e610206565b606091505b50909250905061021886838387610234565b9695505050505050565b6001600160a01b03163b151590565b90565b606083156102a0578251610299576001600160a01b0385163b6102995760405162461bcd60e51b815260206004820152601d60248201527f416464726573733a2063616c6c20746f206e6f6e2d636f6e74726163740000006044820152606401610148565b50816102aa565b6102aa83836102b2565b949350505050565b8151156102c25781518083602001fd5b8060405162461bcd60e51b815260040161014891906103c6565b600080604083850312156102ef57600080fd5b82516001600160a01b038116811461030657600080fd5b60208401519092506001600160401b038082111561032357600080fd5b818501915085601f83011261033757600080fd5b81518181111561034957610349610425565b604051601f8201601f19908116603f0116810190838211818310171561037157610371610425565b8160405282815288602084870101111561038a57600080fd5b61039b8360208301602088016103f9565b80955050505050509250929050565b600082516103bc8184602087016103f9565b9190910192915050565b60208152600082518060208401526103e58160408501602087016103f9565b601f01601f19169190910160400192915050565b60005b838110156104145781810151838201526020016103fc565b838111156100645750506000910152565b634e487b7160e01b600052604160045260246000fd5b6102c48061044a6000396000f3fe60806040523661001357610011610017565b005b6100115b610027610022610067565b61009f565b565b606061004e8383604051806060016040528060278152602001610268602791396100c3565b9392505050565b6001600160a01b03163b151590565b90565b600061009a7f360894a13ba1a3210667c828492db98dca3e2076cc3735a920a3ca505d382bbc546001600160a01b031690565b905090565b3660008037600080366000845af43d6000803e8080156100be573d6000f35b3d6000fd5b6060600080856001600160a01b0316856040516100e091906101e8565b600060405180830381855af49150503d806000811461011b576040519150601f19603f3d011682016040523d82523d6000602084013e610120565b606091505b50915091506101318683838761013b565b9695505050505050565b606083156101ac5782516101a5576001600160a01b0385163b6101a55760405162461bcd60e51b815260206004820152601d60248201527f416464726573733a2063616c6c20746f206e6f6e2d636f6e747261637400000060448201526064015b60405180910390fd5b50816101b6565b6101b683836101be565b949350505050565b8151156101ce5781518083602001fd5b8060405162461bcd60e51b815260040161019c9190610204565b600082516101fa818460208701610237565b9190910192915050565b6020815260008251806020840152610223816040850160208701610237565b601f01601f19169190910160400192915050565b60005b8381101561025257818101518382015260200161023a565b83811115610261576000848401525b5050505056fe416464726573733a206c6f772d6c6576656c2064656c65676174652063616c6c206661696c6564a26469706673582212206c0dbbf9b7cea0b39475b09af2676b6d09e25394c7e441ee3ecd8d988bc0d67964736f6c63430008070033416464726573733a206c6f772d6c6576656c2064656c65676174652063616c6c206661696c6564360894a13ba1a3210667c828492db98dca3e2076cc3735a920a3ca505d382bbc416464726573733a206c6f772d6c6576656c2064656c65676174652063616c6c206661696c6564a2646970667358221220eca5596dad40532f97072a78175faf1f5910d4ad8e467469e2a490b50bd1f3b364736f6c63430008070033",
          "deployedBytecode": "0x608060405260043610620001375760003560e01c8063881e4ea411620000ad578063d9118ce7116200006c578063d9118ce71462000364578063ebfb8a431462000386578063f0fa28b914620003ab578063f2fde38b14620003cd578063f884231c14620003f257600080fd5b8063881e4ea414620002865780638da5cb5b14620002a857806397fc9fbb14620002c8578063a2346618146200030e578063d61f27ae146200033057600080fd5b80634f1ef28611620000fa5780634f1ef286146200020557806352d1902d146200021c5780636f2ddd931462000234578063715018a614620002565780638129fc1c146200026e57600080fd5b8063209f3695146200013c57806321d56a43146200017057806323626b4514620001925780633659cfe614620001b95780634a8b0b3214620001e0575b600080fd5b620001536200014d36600462001f1e565b62000417565b6040516001600160a01b0390911681526020015b60405180910390f35b3480156200017d57600080fd5b5060cb5462000153906001600160a01b031681565b3480156200019f57600080fd5b50620001aa60c95481565b60405190815260200162000167565b348015620001c657600080fd5b50620001de620001d836600462001ccc565b62000478565b005b348015620001ed57600080fd5b5062000153620001ff36600462001ea3565b6200056d565b620001de6200021636600462001dc6565b62000588565b3480156200022957600080fd5b50620001aa62000665565b3480156200024157600080fd5b5060ca5462000153906001600160a01b031681565b3480156200026357600080fd5b50620001de6200071b565b3480156200027b57600080fd5b50620001de62000733565b3480156200029357600080fd5b5060cd5462000153906001600160a01b031681565b348015620002b557600080fd5b506033546001600160a01b031662000153565b348015620002d557600080fd5b50620002ed620002e736600462001fa3565b62000856565b604080516001600160a01b0393841681529290911660208301520162000167565b3480156200031b57600080fd5b5060cf5462000153906001600160a01b031681565b3480156200033d57600080fd5b50620003556200034f36600462001e1c565b62000a17565b604051620001679190620023a2565b3480156200037157600080fd5b5060ce5462000153906001600160a01b031681565b3480156200039357600080fd5b50620001de620003a536600462001d0c565b62000aec565b348015620003b857600080fd5b5060cc5462000153906001600160a01b031681565b348015620003da57600080fd5b50620001de620003ec36600462001ccc565b62000df0565b348015620003ff57600080fd5b50620001536200041136600462001ccc565b62000e6c565b600080620004298888888888620010d4565b604080518581526001600160a01b03831660208201529192507fe1e7ecd08b1e119c2755872e95180d0d070137a7c2af361de1d7256bc3674107910160405180910390a1979650505050505050565b306001600160a01b037f0000000000000000000000000000000000000000000000000000000000000000161415620004cd5760405162461bcd60e51b8152600401620004c490620023e0565b60405180910390fd5b7f00000000000000000000000000000000000000000000000000000000000000006001600160a01b03166200051860008051602062002cfc833981519152546001600160a01b031690565b6001600160a01b031614620005415760405162461bcd60e51b8152600401620004c4906200242c565b6200054c81620015e4565b604080516000808252602082019092526200056a91839190620015ee565b50565b60006200057e8686868686620010d4565b9695505050505050565b306001600160a01b037f0000000000000000000000000000000000000000000000000000000000000000161415620005d45760405162461bcd60e51b8152600401620004c490620023e0565b7f00000000000000000000000000000000000000000000000000000000000000006001600160a01b03166200061f60008051602062002cfc833981519152546001600160a01b031690565b6001600160a01b031614620006485760405162461bcd60e51b8152600401620004c4906200242c565b6200065382620015e4565b6200066182826001620015ee565b5050565b6000306001600160a01b037f00000000000000000000000000000000000000000000000000000000000000001614620007075760405162461bcd60e51b815260206004820152603860248201527f555550535570677261646561626c653a206d757374206e6f742062652063616c60448201527f6c6564207468726f7567682064656c656761746563616c6c00000000000000006064820152608401620004c4565b5060008051602062002cfc83398151915290565b620007256200177b565b620007316000620017d7565b565b600054610100900460ff1615808015620007545750600054600160ff909116105b80620007705750303b15801562000770575060005460ff166001145b620007d55760405162461bcd60e51b815260206004820152602e60248201527f496e697469616c697a61626c653a20636f6e747261637420697320616c72656160448201526d191e481a5b9a5d1a585b1a5e995960921b6064820152608401620004c4565b6000805460ff191660011790558015620007f9576000805461ff0019166101001790555b6200080362001829565b6200080d6200185d565b80156200056a576000805461ff0019169055604051600181527f7f26b83ff96e1f2b6a682f133852f6798a09c465da95921460cefb38474024989060200160405180910390a150565b60ce5460405160009182916001600160a01b039091169063562d190d60e01b90620008869087906020016200217c565b60405160208183030381529060405285604051602001620008a89190620021a7565b60408051601f1981840301815290829052620008c89291602401620023b7565b60408051601f198184030181529181526020820180516001600160e01b03166001600160e01b0319909416939093179092529051620009079062001b1c565b62000914929190620022b2565b604051809103906000f08015801562000931573d6000803e3d6000fd5b5060cf546040519193506001600160a01b03169063562d190d60e01b90620009609087908790602401620023b7565b60408051601f198184030181529181526020820180516001600160e01b03166001600160e01b03199094169390931790925290516200099f9062001b1c565b620009ac929190620022b2565b604051809103906000f080158015620009c9573d6000803e3d6000fd5b50604080516001600160a01b038086168252831660208201529192507ffb5849d45e916a3192059973d782e08b2b3888fa796f536d99af0c7bd01ca16c910160405180910390a19250929050565b60608060005b845181101562000aa65781600085600088858151811062000a425762000a4262002584565b60200260200101515189868151811062000a605762000a6062002584565b602002602001015160405160200162000a7f969594939291906200210e565b6040516020818303038152906040529150808062000a9d9062002550565b91505062000a1d565b508060405160240162000aba9190620023a2565b60408051601f198184030181529190526020810180516001600160e01b03166346c07f8560e11b179052949350505050565b62000af66200177b565b6001600160a01b03821662000b3f5760405162461bcd60e51b815260206004820152600e60248201526d10b637b7ba29b4b733b632ba37b760911b6044820152606401620004c4565b6001600160a01b03811662000b8a5760405162461bcd60e51b815260206004820152601060248201526f10b9b430b932b9a9b4b733b632ba37b760811b6044820152606401620004c4565b6001600160a01b03871662000bd55760405162461bcd60e51b815260206004820152601060248201526f10b3b737b9b4b9a9b4b733b632ba37b760811b6044820152606401620004c4565b6001600160a01b03861662000c265760405162461bcd60e51b815260206004820152601660248201527521676e6f73697346616c6c6261636b4c69627261727960501b6044820152606401620004c4565b6001600160a01b03851662000c7e5760405162461bcd60e51b815260206004820152601760248201527f21676e6f7369734d756c746973656e644c6962726172790000000000000000006044820152606401620004c4565b6001600160a01b03841662000cd65760405162461bcd60e51b815260206004820152601760248201527f21676e6f7369735361666550726f7879466163746f72790000000000000000006044820152606401620004c4565b6001600160a01b03831662000d245760405162461bcd60e51b8152602060048201526013602482015272216d6f64756c6550726f7879466163746f727960681b6044820152606401620004c4565b60ca80546001600160a01b03199081166001600160a01b038b81169190911790925560cb805482168a841617905560cc8054821689841617905560cd8054821688841617905560d08054821687841617905560d18054821686841617905560ce8054821685841617905560cf805490911691831691909117905560c980547fe6fb5c8c5a2615df9d8de2df2fdebdae949bcf3a2a80cb8ff90ace3459de85cc91600062000dd18362002550565b9091555060405190815260200160405180910390a15050505050505050565b62000dfa6200177b565b6001600160a01b03811662000e615760405162461bcd60e51b815260206004820152602660248201527f4f776e61626c653a206e6577206f776e657220697320746865207a65726f206160448201526564647265737360d01b6064820152608401620004c4565b6200056a81620017d7565b60d05460cb5460408051602081018252600080825291516361b69abd60e01b8152919384936001600160a01b03918216936361b69abd9362000eb6939092169190600401620022b2565b602060405180830381600087803b15801562000ed157600080fd5b505af115801562000ee6573d6000803e3d6000fd5b505050506040513d601f19601f8201168201806040525081019062000f0c919062001cec565b6040516001600160a01b038516602482015290915060009060440160408051601f19818403018152918152602080830180516001600160e01b031663610b592560e01b1790528251915192935060009262000f719284928792849291889101620021d2565b604051602081830303815290604052905060008160405160240162000f979190620023a2565b60408051601f19818403018152918152602080830180516001600160e01b03166346c07f8560e11b1790528151600180825281840190935292935060009291908281019080368337019050509050868160008151811062000ffc5762000ffc62002584565b6001600160a01b03928316602091820292909201015260cd5460cc5460405163b63e800d60e01b81528884169363b63e800d9362001051938793600193928316928a92169060009081908190600401620022e0565b600060405180830381600087803b1580156200106c57600080fd5b505af115801562001081573d6000803e3d6000fd5b5050604080516001600160a01b03808a1682528b1660208201527f7ad675e6593a2c3bdf52607876353caf39853572dd787d2a5eed1cc99097b3f0935001905060405180910390a1509295945050505050565b600080808080808080620010eb8c8e018e62002004565b955095509550955095509550600060d160009054906101000a90046001600160a01b03166001600160a01b031663f1ab873c60ca60009054906101000a90046001600160a01b0316604051602401604051602081830303815290604052632d77bef360e11b6001600160e01b0319166020820180516001600160e01b0383818316178352505050508d6040518463ffffffff1660e01b815260040162001194939291906200222a565b602060405180830381600087803b158015620011af57600080fd5b505af1158015620011c4573d6000803e3d6000fd5b505050506040513d601f19601f82011682018060405250810190620011ea919062001cec565b90506001600160a01b03831615806200120a57506001600160a01b038216155b156200138e576200121c878762000856565b8093508194505050826001600160a01b0316638456cb596040518163ffffffff1660e01b8152600401600060405180830381600087803b1580156200126057600080fd5b505af115801562001275573d6000803e3d6000fd5b50505050816001600160a01b0316638456cb596040518163ffffffff1660e01b8152600401600060405180830381600087803b158015620012b557600080fd5b505af1158015620012ca573d6000803e3d6000fd5b505060405163f2fde38b60e01b81526001600160a01b0384811660048301528616925063f2fde38b9150602401600060405180830381600087803b1580156200131257600080fd5b505af115801562001327573d6000803e3d6000fd5b505060405163f2fde38b60e01b81526001600160a01b0384811660048301528516925063f2fde38b9150602401600060405180830381600087803b1580156200136f57600080fd5b505af115801562001384573d6000803e3d6000fd5b505050506200139e565b6200139b600189620024f7565b97505b6001600160a01b038516620013c057620013b88162000e6c565b9450620013d0565b620013cd600289620024f7565b97505b6000620013e9620013e28d8f62002512565b8362000a17565b60cd546040519192506000916200141791879187916001600160a01b0316908b908b90889060200162002260565b60408051601f198184030181529082905263a4f9edbf60e01b825291506001600160a01b0384169063a4f9edbf9062001455908490600401620023a2565b600060405180830381600087803b1580156200147057600080fd5b505af115801562001485573d6000803e3d6000fd5b50505050826001600160a01b0316638009ba1f6040518163ffffffff1660e01b815260040160206040518083038186803b158015620014c357600080fd5b505afa158015620014d8573d6000803e3d6000fd5b505050506040513d601f19601f82011682018060405250810190620014fe919062001cec565b6001600160a01b0316836001600160a01b031663f460124d6040518163ffffffff1660e01b815260040160206040518083038186803b1580156200154157600080fd5b505afa15801562001556573d6000803e3d6000fd5b505050506040513d601f19601f820116820180604052508101906200157c919062001cec565b604080516001600160a01b038b811682528a811660208301529181018e905291811691908616907fcf2f09cd0dbc149b12a3630a11b7d73476660f3d08d3dc7dcc79c6dec555ee7a9060600160405180910390a450909e9d5050505050505050505050505050565b6200056a6200177b565b7f4910fdfa16fed3260ed0e7147f7cc6da11a60208b5b9406d12a635614ffd91435460ff16156200162957620016248362001887565b505050565b826001600160a01b03166352d1902d6040518163ffffffff1660e01b815260040160206040518083038186803b1580156200166357600080fd5b505afa92505050801562001696575060408051601f3d908101601f19168201909252620016939181019062001e89565b60015b620016fb5760405162461bcd60e51b815260206004820152602e60248201527f45524331393637557067726164653a206e657720696d706c656d656e7461746960448201526d6f6e206973206e6f74205555505360901b6064820152608401620004c4565b60008051602062002cfc83398151915281146200176d5760405162461bcd60e51b815260206004820152602960248201527f45524331393637557067726164653a20756e737570706f727465642070726f786044820152681a58589b195555525160ba1b6064820152608401620004c4565b506200162483838362001926565b6033546001600160a01b03163314620007315760405162461bcd60e51b815260206004820181905260248201527f4f776e61626c653a2063616c6c6572206973206e6f7420746865206f776e65726044820152606401620004c4565b603380546001600160a01b038381166001600160a01b0319831681179093556040519116919082907f8be0079c531659141344cd1fd0a4f28419497f9722a3daafe3b4186f6b6457e090600090a35050565b600054610100900460ff16620018535760405162461bcd60e51b8152600401620004c49062002478565b6200073162001957565b600054610100900460ff16620007315760405162461bcd60e51b8152600401620004c49062002478565b6001600160a01b0381163b620018f65760405162461bcd60e51b815260206004820152602d60248201527f455243313936373a206e657720696d706c656d656e746174696f6e206973206e60448201526c1bdd08184818dbdb9d1c9858dd609a1b6064820152608401620004c4565b60008051602062002cfc83398151915280546001600160a01b0319166001600160a01b0392909216919091179055565b62001931836200198c565b6000825111806200193f5750805b156200162457620019518383620019ce565b50505050565b600054610100900460ff16620019815760405162461bcd60e51b8152600401620004c49062002478565b6200073133620017d7565b620019978162001887565b6040516001600160a01b038216907fbc7cd75a20ee27fd9adebab32041f755214dbc6bffa90cc0225b39da2e5c2d3b90600090a250565b60606001600160a01b0383163b62001a385760405162461bcd60e51b815260206004820152602660248201527f416464726573733a2064656c65676174652063616c6c20746f206e6f6e2d636f6044820152651b9d1c9858dd60d21b6064820152608401620004c4565b600080846001600160a01b03168460405162001a559190620020f0565b600060405180830381855af49150503d806000811462001a92576040519150601f19603f3d011682016040523d82523d6000602084013e62001a97565b606091505b509150915062001ac2828260405180606001604052806027815260200162002d1c6027913962001acb565b95945050505050565b6060831562001adc57508162001ae8565b62001ae8838362001aef565b9392505050565b81511562001b005781518083602001fd5b8060405162461bcd60e51b8152600401620004c49190620023a2565b61073580620025c783390190565b600067ffffffffffffffff8084111562001b485762001b486200259a565b8360051b602062001b5b818301620024c3565b86815293508084018583810189101562001b7457600080fd5b60009350835b8881101562001bb45781358681111562001b92578586fd5b62001ba08b828b0162001c55565b845250918301919083019060010162001b7a565b5050505050509392505050565b60008083601f84011262001bd457600080fd5b50813567ffffffffffffffff81111562001bed57600080fd5b6020830191508360208260051b850101111562001c0957600080fd5b9250929050565b60008083601f84011262001c2357600080fd5b50813567ffffffffffffffff81111562001c3c57600080fd5b60208301915083602082850101111562001c0957600080fd5b600082601f83011262001c6757600080fd5b813567ffffffffffffffff81111562001c845762001c846200259a565b62001c99601f8201601f1916602001620024c3565b81815284602083860101111562001caf57600080fd5b816020850160208301376000918101602001919091529392505050565b60006020828403121562001cdf57600080fd5b813562001ae881620025b0565b60006020828403121562001cff57600080fd5b815162001ae881620025b0565b600080600080600080600080610100898b03121562001d2a57600080fd5b883562001d3781620025b0565b9750602089013562001d4981620025b0565b9650604089013562001d5b81620025b0565b9550606089013562001d6d81620025b0565b9450608089013562001d7f81620025b0565b935060a089013562001d9181620025b0565b925060c089013562001da381620025b0565b915060e089013562001db581620025b0565b809150509295985092959890939650565b6000806040838503121562001dda57600080fd5b823562001de781620025b0565b9150602083013567ffffffffffffffff81111562001e0457600080fd5b62001e128582860162001c55565b9150509250929050565b6000806040838503121562001e3057600080fd5b823567ffffffffffffffff81111562001e4857600080fd5b8301601f8101851362001e5a57600080fd5b62001e6b8582356020840162001b2a565b925050602083013562001e7e81620025b0565b809150509250929050565b60006020828403121562001e9c57600080fd5b5051919050565b60008060008060006060868803121562001ebc57600080fd5b853567ffffffffffffffff8082111562001ed557600080fd5b62001ee389838a0162001c10565b9097509550602088013591508082111562001efd57600080fd5b5062001f0c8882890162001bc1565b96999598509660400135949350505050565b6000806000806000806080878903121562001f3857600080fd5b863567ffffffffffffffff8082111562001f5157600080fd5b62001f5f8a838b0162001c10565b9098509650602089013591508082111562001f7957600080fd5b5062001f8889828a0162001bc1565b979a9699509760408101359660609091013595509350505050565b6000806040838503121562001fb757600080fd5b823567ffffffffffffffff8082111562001fd057600080fd5b62001fde8683870162001c55565b9350602085013591508082111562001ff557600080fd5b5062001e128582860162001c55565b60008060008060008060c087890312156200201e57600080fd5b863567ffffffffffffffff808211156200203757600080fd5b620020458a838b0162001c55565b975060208901359150808211156200205c57600080fd5b506200206b89828a0162001c55565b95505060408701356200207e81620025b0565b935060608701356200209081620025b0565b92506080870135620020a281620025b0565b915060a0870135620020b481620025b0565b809150509295509295509295565b60008151808452620020dc81602086016020860162002521565b601f01601f19169290920160200192915050565b600082516200210481846020870162002521565b9190910192915050565b6000875162002122818460208c0162002521565b808301905060ff60f81b8860f81b1681526bffffffffffffffffffffffff198760601b16600182015285601582015284603582015283516200216c81605584016020880162002521565b0160550198975050505050505050565b600082516200219081846020870162002521565b64081313d3d560da1b920191825250600501919050565b60008251620021bb81846020870162002521565b640b5313d3d560da1b920191825250600501919050565b60ff60f81b8660f81b1681526bffffffffffffffffffffffff198560601b166001820152836015820152826035820152600082516200221981605585016020870162002521565b919091016055019695505050505050565b6001600160a01b03841681526060602082018190526000906200225090830185620020c2565b9050826040830152949350505050565b6001600160a01b0387811682528681166020830152858116604083015284811660608301528316608082015260c060a08201819052600090620022a690830184620020c2565b98975050505050505050565b6001600160a01b0383168152604060208201819052600090620022d890830184620020c2565b949350505050565b6101008082528951908201819052600090610120830190602090818d01845b82811015620023265781516001600160a01b031685529383019390830190600101620022ff565b50505083018a90526001600160a01b03891660408401528281036060840152620023518189620020c2565b9150506200236a60808301876001600160a01b03169052565b6001600160a01b03851660a08301528360c08301526200239560e08301846001600160a01b03169052565b9998505050505050505050565b60208152600062001ae86020830184620020c2565b604081526000620023cc6040830185620020c2565b828103602084015262001ac28185620020c2565b6020808252602c908201527f46756e6374696f6e206d7573742062652063616c6c6564207468726f7567682060408201526b19195b1959d85d1958d85b1b60a21b606082015260800190565b6020808252602c908201527f46756e6374696f6e206d7573742062652063616c6c6564207468726f7567682060408201526b6163746976652070726f787960a01b606082015260800190565b6020808252602b908201527f496e697469616c697a61626c653a20636f6e7472616374206973206e6f74206960408201526a6e697469616c697a696e6760a81b606082015260800190565b604051601f8201601f1916810167ffffffffffffffff81118282101715620024ef57620024ef6200259a565b604052919050565b600082198211156200250d576200250d6200256e565b500190565b600062001ae836848462001b2a565b60005b838110156200253e57818101518382015260200162002524565b83811115620019515750506000910152565b60006000198214156200256757620025676200256e565b5060010190565b634e487b7160e01b600052601160045260246000fd5b634e487b7160e01b600052603260045260246000fd5b634e487b7160e01b600052604160045260246000fd5b6001600160a01b03811681146200056a57600080fdfe6080604052604051610735380380610735833981016040819052610022916102dc565b61002e82826000610035565b505061043b565b61003e8361006b565b60008251118061004b5750805b156100665761006483836100ab60201b6100291760201c565b505b505050565b610074816100d7565b6040516001600160a01b038216907fbc7cd75a20ee27fd9adebab32041f755214dbc6bffa90cc0225b39da2e5c2d3b90600090a250565b60606100d0838360405180606001604052806027815260200161070e602791396101a9565b9392505050565b6100ea8161022260201b6100551760201c565b6101515760405162461bcd60e51b815260206004820152602d60248201527f455243313936373a206e657720696d706c656d656e746174696f6e206973206e60448201526c1bdd08184818dbdb9d1c9858dd609a1b60648201526084015b60405180910390fd5b806101887f360894a13ba1a3210667c828492db98dca3e2076cc3735a920a3ca505d382bbc60001b61023160201b6100641760201c565b80546001600160a01b0319166001600160a01b039290921691909117905550565b6060600080856001600160a01b0316856040516101c691906103aa565b600060405180830381855af49150503d8060008114610201576040519150601f19603f3d011682016040523d82523d6000602084013e610206565b606091505b50909250905061021886838387610234565b9695505050505050565b6001600160a01b03163b151590565b90565b606083156102a0578251610299576001600160a01b0385163b6102995760405162461bcd60e51b815260206004820152601d60248201527f416464726573733a2063616c6c20746f206e6f6e2d636f6e74726163740000006044820152606401610148565b50816102aa565b6102aa83836102b2565b949350505050565b8151156102c25781518083602001fd5b8060405162461bcd60e51b815260040161014891906103c6565b600080604083850312156102ef57600080fd5b82516001600160a01b038116811461030657600080fd5b60208401519092506001600160401b038082111561032357600080fd5b818501915085601f83011261033757600080fd5b81518181111561034957610349610425565b604051601f8201601f19908116603f0116810190838211818310171561037157610371610425565b8160405282815288602084870101111561038a57600080fd5b61039b8360208301602088016103f9565b80955050505050509250929050565b600082516103bc8184602087016103f9565b9190910192915050565b60208152600082518060208401526103e58160408501602087016103f9565b601f01601f19169190910160400192915050565b60005b838110156104145781810151838201526020016103fc565b838111156100645750506000910152565b634e487b7160e01b600052604160045260246000fd5b6102c48061044a6000396000f3fe60806040523661001357610011610017565b005b6100115b610027610022610067565b61009f565b565b606061004e8383604051806060016040528060278152602001610268602791396100c3565b9392505050565b6001600160a01b03163b151590565b90565b600061009a7f360894a13ba1a3210667c828492db98dca3e2076cc3735a920a3ca505d382bbc546001600160a01b031690565b905090565b3660008037600080366000845af43d6000803e8080156100be573d6000f35b3d6000fd5b6060600080856001600160a01b0316856040516100e091906101e8565b600060405180830381855af49150503d806000811461011b576040519150601f19603f3d011682016040523d82523d6000602084013e610120565b606091505b50915091506101318683838761013b565b9695505050505050565b606083156101ac5782516101a5576001600160a01b0385163b6101a55760405162461bcd60e51b815260206004820152601d60248201527f416464726573733a2063616c6c20746f206e6f6e2d636f6e747261637400000060448201526064015b60405180910390fd5b50816101b6565b6101b683836101be565b949350505050565b8151156101ce5781518083602001fd5b8060405162461bcd60e51b815260040161019c9190610204565b600082516101fa818460208701610237565b9190910192915050565b6020815260008251806020840152610223816040850160208701610237565b601f01601f19169190910160400192915050565b60005b8381101561025257818101518382015260200161023a565b83811115610261576000848401525b5050505056fe416464726573733a206c6f772d6c6576656c2064656c65676174652063616c6c206661696c6564a26469706673582212206c0dbbf9b7cea0b39475b09af2676b6d09e25394c7e441ee3ecd8d988bc0d67964736f6c63430008070033416464726573733a206c6f772d6c6576656c2064656c65676174652063616c6c206661696c6564360894a13ba1a3210667c828492db98dca3e2076cc3735a920a3ca505d382bbc416464726573733a206c6f772d6c6576656c2064656c65676174652063616c6c206661696c6564a2646970667358221220eca5596dad40532f97072a78175faf1f5910d4ad8e467469e2a490b50bd1f3b364736f6c63430008070033",
          "history": [
            {
              "address": "0x7e988A9db2F8597735fc68D21060Daed948a3e8C",
              "abi": [
                {
                  "anonymous": false,
                  "inputs": [
                    {
                      "indexed": false,
                      "internalType": "address",
                      "name": "previousAdmin",
                      "type": "address"
                    },
                    {
                      "indexed": false,
                      "internalType": "address",
                      "name": "newAdmin",
                      "type": "address"
                    }
                  ],
                  "name": "AdminChanged",
                  "type": "event"
                },
                {
                  "anonymous": false,
                  "inputs": [
                    {
                      "indexed": true,
                      "internalType": "address",
                      "name": "beacon",
                      "type": "address"
                    }
                  ],
                  "name": "BeaconUpgraded",
                  "type": "event"
                },
                {
                  "anonymous": false,
                  "inputs": [
                    {
                      "indexed": false,
                      "internalType": "bytes32",
                      "name": "referrer",
                      "type": "bytes32"
                    },
                    {
                      "indexed": false,
                      "internalType": "address",
                      "name": "daoAddress",
                      "type": "address"
                    }
                  ],
                  "name": "DaoReferral",
                  "type": "event"
                },
                {
                  "anonymous": false,
                  "inputs": [
                    {
                      "indexed": false,
                      "internalType": "address",
                      "name": "baalSafe",
                      "type": "address"
                    },
                    {
                      "indexed": false,
                      "internalType": "address",
                      "name": "moduleAddr",
                      "type": "address"
                    }
                  ],
                  "name": "DeployBaalSafe",
                  "type": "event"
                },
                {
                  "anonymous": false,
                  "inputs": [
                    {
                      "indexed": false,
                      "internalType": "address",
                      "name": "lootToken",
                      "type": "address"
                    },
                    {
                      "indexed": false,
                      "internalType": "address",
                      "name": "sharesToken",
                      "type": "address"
                    }
                  ],
                  "name": "DeployBaalTokens",
                  "type": "event"
                },
                {
                  "anonymous": false,
                  "inputs": [
                    {
                      "indexed": false,
                      "internalType": "uint8",
                      "name": "version",
                      "type": "uint8"
                    }
                  ],
                  "name": "Initialized",
                  "type": "event"
                },
                {
                  "anonymous": false,
                  "inputs": [
                    {
                      "indexed": true,
                      "internalType": "address",
                      "name": "previousOwner",
                      "type": "address"
                    },
                    {
                      "indexed": true,
                      "internalType": "address",
                      "name": "newOwner",
                      "type": "address"
                    }
                  ],
                  "name": "OwnershipTransferred",
                  "type": "event"
                },
                {
                  "anonymous": false,
                  "inputs": [
                    {
                      "indexed": false,
                      "internalType": "uint256",
                      "name": "version",
                      "type": "uint256"
                    }
                  ],
                  "name": "SetAddrsVersion",
                  "type": "event"
                },
                {
                  "anonymous": false,
                  "inputs": [
                    {
                      "indexed": true,
                      "internalType": "address",
                      "name": "baal",
                      "type": "address"
                    },
                    {
                      "indexed": true,
                      "internalType": "address",
                      "name": "loot",
                      "type": "address"
                    },
                    {
                      "indexed": true,
                      "internalType": "address",
                      "name": "shares",
                      "type": "address"
                    },
                    {
                      "indexed": false,
                      "internalType": "address",
                      "name": "safe",
                      "type": "address"
                    },
                    {
                      "indexed": false,
                      "internalType": "address",
                      "name": "forwarder",
                      "type": "address"
                    },
                    {
                      "indexed": false,
                      "internalType": "uint256",
                      "name": "existingAddrs",
                      "type": "uint256"
                    }
                  ],
                  "name": "SummonBaal",
                  "type": "event"
                },
                {
                  "anonymous": false,
                  "inputs": [
                    {
                      "indexed": true,
                      "internalType": "address",
                      "name": "implementation",
                      "type": "address"
                    }
                  ],
                  "name": "Upgraded",
                  "type": "event"
                },
                {
                  "inputs": [],
                  "name": "addrsVersion",
                  "outputs": [
                    {
                      "internalType": "uint256",
                      "name": "",
                      "type": "uint256"
                    }
                  ],
                  "stateMutability": "view",
                  "type": "function"
                },
                {
                  "inputs": [
                    {
                      "internalType": "address",
                      "name": "_moduleAddr",
                      "type": "address"
                    }
                  ],
                  "name": "deployAndSetupSafe",
                  "outputs": [
                    {
                      "internalType": "address",
                      "name": "",
                      "type": "address"
                    }
                  ],
                  "stateMutability": "nonpayable",
                  "type": "function"
                },
                {
                  "inputs": [
                    {
                      "internalType": "string",
                      "name": "_name",
                      "type": "string"
                    },
                    {
                      "internalType": "string",
                      "name": "_symbol",
                      "type": "string"
                    }
                  ],
                  "name": "deployTokens",
                  "outputs": [
                    {
                      "internalType": "address",
                      "name": "lootToken",
                      "type": "address"
                    },
                    {
                      "internalType": "address",
                      "name": "sharesToken",
                      "type": "address"
                    }
                  ],
                  "stateMutability": "nonpayable",
                  "type": "function"
                },
                {
                  "inputs": [
                    {
                      "internalType": "bytes[]",
                      "name": "_calls",
                      "type": "bytes[]"
                    },
                    {
                      "internalType": "address",
                      "name": "_target",
                      "type": "address"
                    }
                  ],
                  "name": "encodeMultisend",
                  "outputs": [
                    {
                      "internalType": "bytes",
                      "name": "encodedMultisend",
                      "type": "bytes"
                    }
                  ],
                  "stateMutability": "pure",
                  "type": "function"
                },
                {
                  "inputs": [],
                  "name": "gnosisFallbackLibrary",
                  "outputs": [
                    {
                      "internalType": "address",
                      "name": "",
                      "type": "address"
                    }
                  ],
                  "stateMutability": "view",
                  "type": "function"
                },
                {
                  "inputs": [],
                  "name": "gnosisMultisendLibrary",
                  "outputs": [
                    {
                      "internalType": "address",
                      "name": "",
                      "type": "address"
                    }
                  ],
                  "stateMutability": "view",
                  "type": "function"
                },
                {
                  "inputs": [],
                  "name": "gnosisSingleton",
                  "outputs": [
                    {
                      "internalType": "address",
                      "name": "",
                      "type": "address"
                    }
                  ],
                  "stateMutability": "view",
                  "type": "function"
                },
                {
                  "inputs": [],
                  "name": "initialize",
                  "outputs": [],
                  "stateMutability": "nonpayable",
                  "type": "function"
                },
                {
                  "inputs": [],
                  "name": "lootSingleton",
                  "outputs": [
                    {
                      "internalType": "address",
                      "name": "",
                      "type": "address"
                    }
                  ],
                  "stateMutability": "view",
                  "type": "function"
                },
                {
                  "inputs": [],
                  "name": "owner",
                  "outputs": [
                    {
                      "internalType": "address",
                      "name": "",
                      "type": "address"
                    }
                  ],
                  "stateMutability": "view",
                  "type": "function"
                },
                {
                  "inputs": [],
                  "name": "proxiableUUID",
                  "outputs": [
                    {
                      "internalType": "bytes32",
                      "name": "",
                      "type": "bytes32"
                    }
                  ],
                  "stateMutability": "view",
                  "type": "function"
                },
                {
                  "inputs": [],
                  "name": "renounceOwnership",
                  "outputs": [],
                  "stateMutability": "nonpayable",
                  "type": "function"
                },
                {
                  "inputs": [
                    {
                      "internalType": "address payable",
                      "name": "_template",
                      "type": "address"
                    },
                    {
                      "internalType": "address",
                      "name": "_gnosisSingleton",
                      "type": "address"
                    },
                    {
                      "internalType": "address",
                      "name": "_gnosisFallbackLibrary",
                      "type": "address"
                    },
                    {
                      "internalType": "address",
                      "name": "_gnosisMultisendLibrary",
                      "type": "address"
                    },
                    {
                      "internalType": "address",
                      "name": "_gnosisSafeProxyFactory",
                      "type": "address"
                    },
                    {
                      "internalType": "address",
                      "name": "_moduleProxyFactory",
                      "type": "address"
                    },
                    {
                      "internalType": "address",
                      "name": "_lootSingleton",
                      "type": "address"
                    },
                    {
                      "internalType": "address",
                      "name": "_sharesSingleton",
                      "type": "address"
                    }
                  ],
                  "name": "setAddrs",
                  "outputs": [],
                  "stateMutability": "nonpayable",
                  "type": "function"
                },
                {
                  "inputs": [],
                  "name": "sharesSingleton",
                  "outputs": [
                    {
                      "internalType": "address",
                      "name": "",
                      "type": "address"
                    }
                  ],
                  "stateMutability": "view",
                  "type": "function"
                },
                {
                  "inputs": [
                    {
                      "internalType": "bytes",
                      "name": "initializationParams",
                      "type": "bytes"
                    },
                    {
                      "internalType": "bytes[]",
                      "name": "initializationActions",
                      "type": "bytes[]"
                    },
                    {
                      "internalType": "uint256",
                      "name": "_saltNonce",
                      "type": "uint256"
                    }
                  ],
                  "name": "summonBaal",
                  "outputs": [
                    {
                      "internalType": "address",
                      "name": "",
                      "type": "address"
                    }
                  ],
                  "stateMutability": "nonpayable",
                  "type": "function"
                },
                {
                  "inputs": [
                    {
                      "internalType": "bytes",
                      "name": "initializationParams",
                      "type": "bytes"
                    },
                    {
                      "internalType": "bytes[]",
                      "name": "initializationActions",
                      "type": "bytes[]"
                    },
                    {
                      "internalType": "uint256",
                      "name": "_saltNonce",
                      "type": "uint256"
                    },
                    {
                      "internalType": "bytes32",
                      "name": "referrer",
                      "type": "bytes32"
                    }
                  ],
                  "name": "summonBaalFromReferrer",
                  "outputs": [
                    {
                      "internalType": "address",
                      "name": "",
                      "type": "address"
                    }
                  ],
                  "stateMutability": "payable",
                  "type": "function"
                },
                {
                  "inputs": [],
                  "name": "template",
                  "outputs": [
                    {
                      "internalType": "address payable",
                      "name": "",
                      "type": "address"
                    }
                  ],
                  "stateMutability": "view",
                  "type": "function"
                },
                {
                  "inputs": [
                    {
                      "internalType": "address",
                      "name": "newOwner",
                      "type": "address"
                    }
                  ],
                  "name": "transferOwnership",
                  "outputs": [],
                  "stateMutability": "nonpayable",
                  "type": "function"
                },
                {
                  "inputs": [
                    {
                      "internalType": "address",
                      "name": "newImplementation",
                      "type": "address"
                    }
                  ],
                  "name": "upgradeTo",
                  "outputs": [],
                  "stateMutability": "nonpayable",
                  "type": "function"
                },
                {
                  "inputs": [
                    {
                      "internalType": "address",
                      "name": "newImplementation",
                      "type": "address"
                    },
                    {
                      "internalType": "bytes",
                      "name": "data",
                      "type": "bytes"
                    }
                  ],
                  "name": "upgradeToAndCall",
                  "outputs": [],
                  "stateMutability": "payable",
                  "type": "function"
                }
              ],
              "args": [],
              "numDeployments": 1,
              "linkedData": {},
              "solcInputHash": "a128f2a31ecf0f1507d09c047cd019fe",
              "metadata": "{\"compiler\":{\"version\":\"0.8.7+commit.e28d00a7\"},\"language\":\"Solidity\",\"output\":{\"abi\":[{\"anonymous\":false,\"inputs\":[{\"indexed\":false,\"internalType\":\"address\",\"name\":\"previousAdmin\",\"type\":\"address\"},{\"indexed\":false,\"internalType\":\"address\",\"name\":\"newAdmin\",\"type\":\"address\"}],\"name\":\"AdminChanged\",\"type\":\"event\"},{\"anonymous\":false,\"inputs\":[{\"indexed\":true,\"internalType\":\"address\",\"name\":\"beacon\",\"type\":\"address\"}],\"name\":\"BeaconUpgraded\",\"type\":\"event\"},{\"anonymous\":false,\"inputs\":[{\"indexed\":false,\"internalType\":\"bytes32\",\"name\":\"referrer\",\"type\":\"bytes32\"},{\"indexed\":false,\"internalType\":\"address\",\"name\":\"daoAddress\",\"type\":\"address\"}],\"name\":\"DaoReferral\",\"type\":\"event\"},{\"anonymous\":false,\"inputs\":[{\"indexed\":false,\"internalType\":\"address\",\"name\":\"baalSafe\",\"type\":\"address\"},{\"indexed\":false,\"internalType\":\"address\",\"name\":\"moduleAddr\",\"type\":\"address\"}],\"name\":\"DeployBaalSafe\",\"type\":\"event\"},{\"anonymous\":false,\"inputs\":[{\"indexed\":false,\"internalType\":\"address\",\"name\":\"lootToken\",\"type\":\"address\"},{\"indexed\":false,\"internalType\":\"address\",\"name\":\"sharesToken\",\"type\":\"address\"}],\"name\":\"DeployBaalTokens\",\"type\":\"event\"},{\"anonymous\":false,\"inputs\":[{\"indexed\":false,\"internalType\":\"uint8\",\"name\":\"version\",\"type\":\"uint8\"}],\"name\":\"Initialized\",\"type\":\"event\"},{\"anonymous\":false,\"inputs\":[{\"indexed\":true,\"internalType\":\"address\",\"name\":\"previousOwner\",\"type\":\"address\"},{\"indexed\":true,\"internalType\":\"address\",\"name\":\"newOwner\",\"type\":\"address\"}],\"name\":\"OwnershipTransferred\",\"type\":\"event\"},{\"anonymous\":false,\"inputs\":[{\"indexed\":false,\"internalType\":\"uint256\",\"name\":\"version\",\"type\":\"uint256\"}],\"name\":\"SetAddrsVersion\",\"type\":\"event\"},{\"anonymous\":false,\"inputs\":[{\"indexed\":true,\"internalType\":\"address\",\"name\":\"baal\",\"type\":\"address\"},{\"indexed\":true,\"internalType\":\"address\",\"name\":\"loot\",\"type\":\"address\"},{\"indexed\":true,\"internalType\":\"address\",\"name\":\"shares\",\"type\":\"address\"},{\"indexed\":false,\"internalType\":\"address\",\"name\":\"safe\",\"type\":\"address\"},{\"indexed\":false,\"internalType\":\"address\",\"name\":\"forwarder\",\"type\":\"address\"},{\"indexed\":false,\"internalType\":\"uint256\",\"name\":\"existingAddrs\",\"type\":\"uint256\"}],\"name\":\"SummonBaal\",\"type\":\"event\"},{\"anonymous\":false,\"inputs\":[{\"indexed\":true,\"internalType\":\"address\",\"name\":\"implementation\",\"type\":\"address\"}],\"name\":\"Upgraded\",\"type\":\"event\"},{\"inputs\":[],\"name\":\"addrsVersion\",\"outputs\":[{\"internalType\":\"uint256\",\"name\":\"\",\"type\":\"uint256\"}],\"stateMutability\":\"view\",\"type\":\"function\"},{\"inputs\":[{\"internalType\":\"address\",\"name\":\"_moduleAddr\",\"type\":\"address\"}],\"name\":\"deployAndSetupSafe\",\"outputs\":[{\"internalType\":\"address\",\"name\":\"\",\"type\":\"address\"}],\"stateMutability\":\"nonpayable\",\"type\":\"function\"},{\"inputs\":[{\"internalType\":\"string\",\"name\":\"_name\",\"type\":\"string\"},{\"internalType\":\"string\",\"name\":\"_symbol\",\"type\":\"string\"}],\"name\":\"deployTokens\",\"outputs\":[{\"internalType\":\"address\",\"name\":\"lootToken\",\"type\":\"address\"},{\"internalType\":\"address\",\"name\":\"sharesToken\",\"type\":\"address\"}],\"stateMutability\":\"nonpayable\",\"type\":\"function\"},{\"inputs\":[{\"internalType\":\"bytes[]\",\"name\":\"_calls\",\"type\":\"bytes[]\"},{\"internalType\":\"address\",\"name\":\"_target\",\"type\":\"address\"}],\"name\":\"encodeMultisend\",\"outputs\":[{\"internalType\":\"bytes\",\"name\":\"encodedMultisend\",\"type\":\"bytes\"}],\"stateMutability\":\"pure\",\"type\":\"function\"},{\"inputs\":[],\"name\":\"gnosisFallbackLibrary\",\"outputs\":[{\"internalType\":\"address\",\"name\":\"\",\"type\":\"address\"}],\"stateMutability\":\"view\",\"type\":\"function\"},{\"inputs\":[],\"name\":\"gnosisMultisendLibrary\",\"outputs\":[{\"internalType\":\"address\",\"name\":\"\",\"type\":\"address\"}],\"stateMutability\":\"view\",\"type\":\"function\"},{\"inputs\":[],\"name\":\"gnosisSingleton\",\"outputs\":[{\"internalType\":\"address\",\"name\":\"\",\"type\":\"address\"}],\"stateMutability\":\"view\",\"type\":\"function\"},{\"inputs\":[],\"name\":\"initialize\",\"outputs\":[],\"stateMutability\":\"nonpayable\",\"type\":\"function\"},{\"inputs\":[],\"name\":\"lootSingleton\",\"outputs\":[{\"internalType\":\"address\",\"name\":\"\",\"type\":\"address\"}],\"stateMutability\":\"view\",\"type\":\"function\"},{\"inputs\":[],\"name\":\"owner\",\"outputs\":[{\"internalType\":\"address\",\"name\":\"\",\"type\":\"address\"}],\"stateMutability\":\"view\",\"type\":\"function\"},{\"inputs\":[],\"name\":\"proxiableUUID\",\"outputs\":[{\"internalType\":\"bytes32\",\"name\":\"\",\"type\":\"bytes32\"}],\"stateMutability\":\"view\",\"type\":\"function\"},{\"inputs\":[],\"name\":\"renounceOwnership\",\"outputs\":[],\"stateMutability\":\"nonpayable\",\"type\":\"function\"},{\"inputs\":[{\"internalType\":\"address payable\",\"name\":\"_template\",\"type\":\"address\"},{\"internalType\":\"address\",\"name\":\"_gnosisSingleton\",\"type\":\"address\"},{\"internalType\":\"address\",\"name\":\"_gnosisFallbackLibrary\",\"type\":\"address\"},{\"internalType\":\"address\",\"name\":\"_gnosisMultisendLibrary\",\"type\":\"address\"},{\"internalType\":\"address\",\"name\":\"_gnosisSafeProxyFactory\",\"type\":\"address\"},{\"internalType\":\"address\",\"name\":\"_moduleProxyFactory\",\"type\":\"address\"},{\"internalType\":\"address\",\"name\":\"_lootSingleton\",\"type\":\"address\"},{\"internalType\":\"address\",\"name\":\"_sharesSingleton\",\"type\":\"address\"}],\"name\":\"setAddrs\",\"outputs\":[],\"stateMutability\":\"nonpayable\",\"type\":\"function\"},{\"inputs\":[],\"name\":\"sharesSingleton\",\"outputs\":[{\"internalType\":\"address\",\"name\":\"\",\"type\":\"address\"}],\"stateMutability\":\"view\",\"type\":\"function\"},{\"inputs\":[{\"internalType\":\"bytes\",\"name\":\"initializationParams\",\"type\":\"bytes\"},{\"internalType\":\"bytes[]\",\"name\":\"initializationActions\",\"type\":\"bytes[]\"},{\"internalType\":\"uint256\",\"name\":\"_saltNonce\",\"type\":\"uint256\"}],\"name\":\"summonBaal\",\"outputs\":[{\"internalType\":\"address\",\"name\":\"\",\"type\":\"address\"}],\"stateMutability\":\"nonpayable\",\"type\":\"function\"},{\"inputs\":[{\"internalType\":\"bytes\",\"name\":\"initializationParams\",\"type\":\"bytes\"},{\"internalType\":\"bytes[]\",\"name\":\"initializationActions\",\"type\":\"bytes[]\"},{\"internalType\":\"uint256\",\"name\":\"_saltNonce\",\"type\":\"uint256\"},{\"internalType\":\"bytes32\",\"name\":\"referrer\",\"type\":\"bytes32\"}],\"name\":\"summonBaalFromReferrer\",\"outputs\":[{\"internalType\":\"address\",\"name\":\"\",\"type\":\"address\"}],\"stateMutability\":\"payable\",\"type\":\"function\"},{\"inputs\":[],\"name\":\"template\",\"outputs\":[{\"internalType\":\"address payable\",\"name\":\"\",\"type\":\"address\"}],\"stateMutability\":\"view\",\"type\":\"function\"},{\"inputs\":[{\"internalType\":\"address\",\"name\":\"newOwner\",\"type\":\"address\"}],\"name\":\"transferOwnership\",\"outputs\":[],\"stateMutability\":\"nonpayable\",\"type\":\"function\"},{\"inputs\":[{\"internalType\":\"address\",\"name\":\"newImplementation\",\"type\":\"address\"}],\"name\":\"upgradeTo\",\"outputs\":[],\"stateMutability\":\"nonpayable\",\"type\":\"function\"},{\"inputs\":[{\"internalType\":\"address\",\"name\":\"newImplementation\",\"type\":\"address\"},{\"internalType\":\"bytes\",\"name\":\"data\",\"type\":\"bytes\"}],\"name\":\"upgradeToAndCall\",\"outputs\":[],\"stateMutability\":\"payable\",\"type\":\"function\"}],\"devdoc\":{\"kind\":\"dev\",\"methods\":{\"owner()\":{\"details\":\"Returns the address of the current owner.\"},\"proxiableUUID()\":{\"details\":\"Implementation of the ERC1822 {proxiableUUID} function. This returns the storage slot used by the implementation. It is used to validate the implementation's compatibility when performing an upgrade. IMPORTANT: A proxy pointing at a proxiable contract should not be considered proxiable itself, because this risks bricking a proxy that upgrades to it, by delegating to itself until out of gas. Thus it is critical that this function revert if invoked through a proxy. This is guaranteed by the `notDelegated` modifier.\"},\"renounceOwnership()\":{\"details\":\"Leaves the contract without owner. It will not be possible to call `onlyOwner` functions anymore. Can only be called by the current owner. NOTE: Renouncing ownership will leave the contract without an owner, thereby removing any functionality that is only available to the owner.\"},\"transferOwnership(address)\":{\"details\":\"Transfers ownership of the contract to a new account (`newOwner`). Can only be called by the current owner.\"},\"upgradeTo(address)\":{\"details\":\"Upgrade the implementation of the proxy to `newImplementation`. Calls {_authorizeUpgrade}. Emits an {Upgraded} event.\"},\"upgradeToAndCall(address,bytes)\":{\"details\":\"Upgrade the implementation of the proxy to `newImplementation`, and subsequently execute the function call encoded in `data`. Calls {_authorizeUpgrade}. Emits an {Upgraded} event.\"}},\"version\":1},\"userdoc\":{\"kind\":\"user\",\"methods\":{},\"version\":1}},\"settings\":{\"compilationTarget\":{\"contracts/BaalSummoner.sol\":\"BaalSummoner\"},\"evmVersion\":\"london\",\"libraries\":{},\"metadata\":{\"bytecodeHash\":\"ipfs\"},\"optimizer\":{\"enabled\":true,\"runs\":200},\"remappings\":[]},\"sources\":{\"@gnosis.pm/safe-contracts/contracts/GnosisSafe.sol\":{\"keccak256\":\"0x2ca9e3e053c969b9364f62c50c2c25b92525db7fd0bad3ae1fb0c20dd575367c\",\"license\":\"LGPL-3.0-only\",\"urls\":[\"bzz-raw://ef1bceac49ae93b31aec41380862fdc267823c41e2dfefb9b7d70d0996e858e1\",\"dweb:/ipfs/QmWFU5bic2CGv8QgQ8bxJnjMfuJgNL2zZubt5hvzhcRZPc\"]},\"@gnosis.pm/safe-contracts/contracts/base/Executor.sol\":{\"keccak256\":\"0x4d3a900673473466bc27413fdbb11aae60b5580b792c49411f01544e0b24fe08\",\"license\":\"LGPL-3.0-only\",\"urls\":[\"bzz-raw://71ada0590998f47d1ee9759aa190c82d4b348d59a2f582747650d9720245a309\",\"dweb:/ipfs/Qmb9UudLoJpPutHVP9pXd1poP5CqFf5sxVFuYw14SYfRFk\"]},\"@gnosis.pm/safe-contracts/contracts/base/FallbackManager.sol\":{\"keccak256\":\"0x1be9f0f3e80a78134c2e3a026c6a14759785bd35d135e87a4a025aeb6742791f\",\"license\":\"LGPL-3.0-only\",\"urls\":[\"bzz-raw://44130f09921e895c0b9d7797de1d64940a8c43391efcda3a0208cb9ad96475a7\",\"dweb:/ipfs/QmUur4hzvCJ68PnW6zQFpemAMH2DH5mExPqSZdpKeY1ZRN\"]},\"@gnosis.pm/safe-contracts/contracts/base/GuardManager.sol\":{\"keccak256\":\"0x53a532a31f9632d5a73ad0df56f05bd2b66a2f781f571eb48d00367d370707f9\",\"license\":\"LGPL-3.0-only\",\"urls\":[\"bzz-raw://eebc15cb7c83cf9516514b34bd16fb19c08104c738fa172ae3c98c66b84708ed\",\"dweb:/ipfs/QmfJ4yX5WwHU58QVoxJFaejyerscTs6VCgn2TdUVrEZeTP\"]},\"@gnosis.pm/safe-contracts/contracts/base/ModuleManager.sol\":{\"keccak256\":\"0x5512760a0328309f82a71cbe2ac14e0942501b9d44d5fb417bd02174546672e5\",\"license\":\"LGPL-3.0-only\",\"urls\":[\"bzz-raw://763cf803a98a921d62ed51d7876a13aed63968c828f026ce2beb747d2631c0bc\",\"dweb:/ipfs/QmbHZoYsbkxC2kVCs4pQ4nRaFrcgU5X8FuLX7vV3qDR9Y5\"]},\"@gnosis.pm/safe-contracts/contracts/base/OwnerManager.sol\":{\"keccak256\":\"0x01a3d64cc0967f42ae63802409f5404d18352516ea2a6335005003d919ffcf12\",\"license\":\"LGPL-3.0-only\",\"urls\":[\"bzz-raw://91824103f2966612103705d6493290e193b0c0ca2bbe7141965184435dbb999b\",\"dweb:/ipfs/Qmd7u917v4DnD4hvQGAGbchVJ8A7pm1UCzCv7sAzQnRoi4\"]},\"@gnosis.pm/safe-contracts/contracts/common/Enum.sol\":{\"keccak256\":\"0x473e45b1a5cc47be494b0e123c9127f0c11c1e0992a321ae5a644c0bfdb2c14f\",\"license\":\"LGPL-3.0-only\",\"urls\":[\"bzz-raw://948e6d5a8bd7377f7795b6e28584eab9be5c0a8db240bf5e606744a175238c3d\",\"dweb:/ipfs/QmQQaUmQfpuejV41jbxKSTgEBYYCcVTjCsDMgf2htgz6ej\"]},\"@gnosis.pm/safe-contracts/contracts/common/EtherPaymentFallback.sol\":{\"keccak256\":\"0x1a7928d29877da84a3d0df846d5cd933d48ee095c1bde0aa044e249b12e27a72\",\"license\":\"LGPL-3.0-only\",\"urls\":[\"bzz-raw://962fc098cfdd8a43cc7d294c1105718ea985cacf1172ea0426f7370e2096b830\",\"dweb:/ipfs/QmdZrxJ7dSWuTjbrN133YiRDLwYQr21zLr3CqWWtowY9Gu\"]},\"@gnosis.pm/safe-contracts/contracts/common/SecuredTokenTransfer.sol\":{\"keccak256\":\"0x178682d8477da42936c7e8e24d39094c4ac08ecd8623794b9535d77001b665f1\",\"license\":\"LGPL-3.0-only\",\"urls\":[\"bzz-raw://2ae8a6d5c7d4cc19c3b957c8857e87e92a4570effebf32ba54184c2b8375a0a2\",\"dweb:/ipfs/QmVNgRcRVgQZriJm8KVXQvRbHQf74wH7ABmBNTjBTqBa8r\"]},\"@gnosis.pm/safe-contracts/contracts/common/SelfAuthorized.sol\":{\"keccak256\":\"0x59d36efca578b75541a776f62a0d0ef03712fc27b6647c3915c14b572106d7bc\",\"license\":\"LGPL-3.0-only\",\"urls\":[\"bzz-raw://8530c6e0392415d42486847cd4368d30f6cac42051596330692a571fcdbb9e29\",\"dweb:/ipfs/QmWw51Pshw5t2sMKANzxtfNdBSQUyQQpfTr3Mi7oNJGk7U\"]},\"@gnosis.pm/safe-contracts/contracts/common/SignatureDecoder.sol\":{\"keccak256\":\"0x2d37be182472ccfee62a33e9939f9b3d509be4c32e9fdebc2c1746c573655987\",\"license\":\"LGPL-3.0-only\",\"urls\":[\"bzz-raw://f76d96f10640beee7d4b4ad119bd3c64aeb26929011d9c1eec738c63ebc92f63\",\"dweb:/ipfs/QmaqgDocQumKeyUMgZU7STzpTASQjDbUxbQKuZ17xhLaXz\"]},\"@gnosis.pm/safe-contracts/contracts/common/Singleton.sol\":{\"keccak256\":\"0x6e02c18998de8834dd7d69890cb6ede996b6f635d2337081a596d91e35e2c648\",\"license\":\"LGPL-3.0-only\",\"urls\":[\"bzz-raw://ce1dfe9f820352b6f95b350ac0b3fa8afc24ad77bffffc2c9e00462e2a41a666\",\"dweb:/ipfs/QmVr2dCUbNbg5e7UsgngGij5mybgkXcbf5e5cPhT21aFXA\"]},\"@gnosis.pm/safe-contracts/contracts/common/StorageAccessible.sol\":{\"keccak256\":\"0x36853adb266c2ab7d3c612aca799441a86bd15d9e1d24fc6c70d63f5c2df3aaf\",\"license\":\"LGPL-3.0-only\",\"urls\":[\"bzz-raw://3f210f47e032444049040d2929b32e02089aac1d05b07dcd77ee34bb63505dfa\",\"dweb:/ipfs/QmbE8GXFAbthieTL51S2XPF5URyPaj1tDubVuhztkSoiPo\"]},\"@gnosis.pm/safe-contracts/contracts/external/GnosisSafeMath.sol\":{\"keccak256\":\"0x2a2b4d74f5834a9437be0cd3254d7a676698fc78aa47941c2009470196998d98\",\"license\":\"LGPL-3.0-only\",\"urls\":[\"bzz-raw://ea04449ba8b78ec44f3463b68cbce971875626e91d028add50900c41101a1156\",\"dweb:/ipfs/QmR95ci4HVkJuyYGvYRHVpp6N3wefu5WVDhipKwRechWV6\"]},\"@gnosis.pm/safe-contracts/contracts/interfaces/ISignatureValidator.sol\":{\"keccak256\":\"0x5b6e9bf17f28738ce88e751f420b0559f5151ba7bec2ff3c7bb31e42673d6801\",\"license\":\"LGPL-3.0-only\",\"urls\":[\"bzz-raw://bfdde8390deb619e38f98be67c5f9d26f12623855540af76b9f454142d3896c1\",\"dweb:/ipfs/QmZrr1ocToR5S62W177qV2csfs7wCQNs3t9vatyx32uLXz\"]},\"@gnosis.pm/safe-contracts/contracts/proxies/GnosisSafeProxy.sol\":{\"keccak256\":\"0x3bfdd453d9f896f7029d15bcafd11886957b320ad1764309d9f74fa059715249\",\"license\":\"LGPL-3.0-only\",\"urls\":[\"bzz-raw://5b5b7d0c8a900ba758e012236bf1c55e885fe5716aa79f6f693d22c31c85f7d5\",\"dweb:/ipfs/QmUq5oNsZY1b5pcYAzrY1i9oqyPUaiFhLaEWgB9ML6LrBj\"]},\"@gnosis.pm/safe-contracts/contracts/proxies/GnosisSafeProxyFactory.sol\":{\"keccak256\":\"0x187c6f84c71b432da6721c1b81cebfbb9c37c0cc15ebd8de5a14ff7ec6db2d9e\",\"license\":\"LGPL-3.0-only\",\"urls\":[\"bzz-raw://cfe1ac5a4ba0475db666912d5b4397d8fae96342c27a47a664a881e24377ed38\",\"dweb:/ipfs/QmVcaZrvPbH2csouaU3r1quFtugC4AUeCbrzBBmXSYk9W6\"]},\"@gnosis.pm/safe-contracts/contracts/proxies/IProxyCreationCallback.sol\":{\"keccak256\":\"0x51a9ce914a6a943651c803541e44218a7ed0a2f98a94d55df66b173b5a11e365\",\"license\":\"LGPL-3.0-only\",\"urls\":[\"bzz-raw://5216ed8181c14d462ec821593c8f90f33c7dbe8b4c505a1092bf31a9d33132b9\",\"dweb:/ipfs/Qmbb2wkgijuTcEbGR7CnmiAtwZDyruQ2b1ged4HnLysQnT\"]},\"@gnosis.pm/zodiac/contracts/core/Module.sol\":{\"keccak256\":\"0x1b9b6f3b43db68f3c142b326544115d1b1fa1f319c980922ea0a29aa80f53664\",\"license\":\"LGPL-3.0-only\",\"urls\":[\"bzz-raw://89c48fe4addf27af8b1cbc3cad8a0b27fde67d0de8b29aba811b9d4cb97c6112\",\"dweb:/ipfs/QmNoJhTbtVv2J237BsMPfuNwSkPAq6zsAr2FNrnUkVBp3X\"]},\"@gnosis.pm/zodiac/contracts/factory/FactoryFriendly.sol\":{\"keccak256\":\"0x96e61585b7340a901a54eb4c157ce28b630bff3d9d4597dfaac692128ea458c4\",\"license\":\"LGPL-3.0-only\",\"urls\":[\"bzz-raw://26252f06a8f31d7fe771b50fde9a6338133750bf05f7fc421dfa70c1df25ed7b\",\"dweb:/ipfs/QmQrZ4Zgvi3andou57Be9qpMmZatMx88rMxp3DPwUaFPsR\"]},\"@gnosis.pm/zodiac/contracts/factory/ModuleProxyFactory.sol\":{\"keccak256\":\"0x70f6f1d88cf3382748e58f85ba87279f5bb8761863c293dd8c197a71ff558761\",\"license\":\"LGPL-3.0-only\",\"urls\":[\"bzz-raw://cd6aa9e49078fb8319d78b1cc847ed588f044ce7ea334693702418c0639d5691\",\"dweb:/ipfs/Qmaeeeid5BgYjUPBnoUJUFL1VJKrzdzUYBLmu3CmhyeLz1\"]},\"@gnosis.pm/zodiac/contracts/guard/BaseGuard.sol\":{\"keccak256\":\"0xa825848d06a1fc3cb7ad86727c669c8fc6b3bd8dbe419a617830ddcd5e245e47\",\"license\":\"LGPL-3.0-only\",\"urls\":[\"bzz-raw://58bd190f4bb876471908d6145c6bebb9a22b5c9183192ffe199f4d94753f36bb\",\"dweb:/ipfs/QmYioir1PsjbCWAdCrFGJQiGHZM65umtb8qUSa63cb5Djq\"]},\"@gnosis.pm/zodiac/contracts/guard/Guardable.sol\":{\"keccak256\":\"0xebdcfbe7f0822d8afcc21a1ca8d809417b438cc8b27c3547190a1627a9f5110f\",\"license\":\"LGPL-3.0-only\",\"urls\":[\"bzz-raw://b1c6c35a0ed50d561d819c60423b7a5e6c7cbeaf61c5e0b83dab210def1dd4ec\",\"dweb:/ipfs/QmSz8F6MtuYZMvMJDmfpt8VxHFeVexqS7mpWJE6kuJ8ZAF\"]},\"@gnosis.pm/zodiac/contracts/interfaces/IAvatar.sol\":{\"keccak256\":\"0xcd5508ffe596eef8fbccfd5fc4f10a34397773547ce64e212d48b5212865ec1f\",\"license\":\"LGPL-3.0-only\",\"urls\":[\"bzz-raw://1655ba8b760132ebd702cc806fcdad50a44d320fbeca14be00e35b0171bd35cf\",\"dweb:/ipfs/QmcbB5HpCoEQCTHKWxHS3HpFmgaB4AcZxZYtvQk2QEyvN2\"]},\"@gnosis.pm/zodiac/contracts/interfaces/IGuard.sol\":{\"keccak256\":\"0xd0d855accbc5fba81c67ab22cdbb03325a8a4d7f6b7e981d1ff0fec3178e464d\",\"license\":\"LGPL-3.0-only\",\"urls\":[\"bzz-raw://4b51c586b33cc97caebe85472855bbb4c56a4e387b14cde2c8110b12ace7ba6b\",\"dweb:/ipfs/QmYtVdNKa5D2A4cEdTg9cYwrDio7TdNKtbAHc86x33W5wt\"]},\"@opengsn/contracts/src/BaseRelayRecipient.sol\":{\"keccak256\":\"0xce3168b37fc87ec34a18b56b4b16a06432119c07fd2e1d864b871dcf40372ebe\",\"license\":\"MIT\",\"urls\":[\"bzz-raw://99b6d76e111f18169a6c3f9043a843f188a02b5737dc35e6c6535ee04858f1c7\",\"dweb:/ipfs/QmeibhmsicNMWMw1gggSknJsbm1WUtZgGokGnzd4CCZzTw\"]},\"@opengsn/contracts/src/interfaces/IRelayRecipient.sol\":{\"keccak256\":\"0x199e82e0a2833a97213b5c16ac9b4e2b1814f2e90a4c4916855cbc21e710ad5f\",\"license\":\"MIT\",\"urls\":[\"bzz-raw://92112fc87990f2d55c538946266c48f43e6ca442186ef3b8172eb4632deb0db3\",\"dweb:/ipfs/QmU6pqFXYT8fYfyhw7viRA775eBH4W7PAd589DVFGtSgxo\"]},\"@openzeppelin/contracts-upgradeable/access/OwnableUpgradeable.sol\":{\"keccak256\":\"0x247c62047745915c0af6b955470a72d1696ebad4352d7d3011aef1a2463cd888\",\"license\":\"MIT\",\"urls\":[\"bzz-raw://d7fc8396619de513c96b6e00301b88dd790e83542aab918425633a5f7297a15a\",\"dweb:/ipfs/QmXbP4kiZyp7guuS7xe8KaybnwkRPGrBc2Kbi3vhcTfpxb\"]},\"@openzeppelin/contracts-upgradeable/interfaces/draft-IERC1822Upgradeable.sol\":{\"keccak256\":\"0x77c89f893e403efc6929ba842b7ccf6534d4ffe03afe31670b4a528c0ad78c0f\",\"license\":\"MIT\",\"urls\":[\"bzz-raw://496bd9b3df2455d571018c09f0c6badd29713fdeb907c6aa09d8d28cb603f053\",\"dweb:/ipfs/QmXdJDyYs6WMwMh21dez2BYPxhSUaUYFMDtVNcn2cgFR79\"]},\"@openzeppelin/contracts-upgradeable/proxy/ERC1967/ERC1967UpgradeUpgradeable.sol\":{\"keccak256\":\"0x315887e846f1e5f8d8fa535a229d318bb9290aaa69485117f1ee8a9a6b3be823\",\"license\":\"MIT\",\"urls\":[\"bzz-raw://29dda00da6d269685b555e710e4abf1c3eb6d00c15b888a7880a2f8dd3c4fdc2\",\"dweb:/ipfs/QmSqcjtdECygtT1Gy7uEo42x8542srpgGEeKKHfcnQqXgn\"]},\"@openzeppelin/contracts-upgradeable/proxy/beacon/IBeaconUpgradeable.sol\":{\"keccak256\":\"0x24b86ac8c005b8c654fbf6ac34a5a4f61580d7273541e83e013e89d66fbf0908\",\"license\":\"MIT\",\"urls\":[\"bzz-raw://4dbfe1a3b3b3fb64294ce41fd2ad362e7b7012208117864f42c1a67620a6d5c1\",\"dweb:/ipfs/QmVMU5tWt7zBQMmf5cpMX8UMHV86T3kFeTxBTBjFqVWfoJ\"]},\"@openzeppelin/contracts-upgradeable/proxy/utils/Initializable.sol\":{\"keccak256\":\"0xe798cadb41e2da274913e4b3183a80f50fb057a42238fe8467e077268100ec27\",\"license\":\"MIT\",\"urls\":[\"bzz-raw://899f850f7df5a270bccfb765d70069959ca1c20d3a7381c1c3bda8a3ffee1935\",\"dweb:/ipfs/QmVdnAqwyX2L3nX2HDA5WKGtVBFyH1nKE9A1k7fZnPBkhP\"]},\"@openzeppelin/contracts-upgradeable/proxy/utils/UUPSUpgradeable.sol\":{\"keccak256\":\"0x7967d130887c4b40666cd88f8744691d4527039a1b2a38aa0de41481ef646778\",\"license\":\"MIT\",\"urls\":[\"bzz-raw://40e60cbf0e2efede4d9c169e66336a64615af7b719a896ef1f37ae8cd4614ec1\",\"dweb:/ipfs/QmYNiwY22ifhfa8yK6mLCEKfj39caYUHLqe2VBtzDnvdsV\"]},\"@openzeppelin/contracts-upgradeable/security/ReentrancyGuardUpgradeable.sol\":{\"keccak256\":\"0x2b3005a0064cfc558bdf64b2bae94b565f4574a536aadd61c13838d4f2157790\",\"license\":\"MIT\",\"urls\":[\"bzz-raw://622c3eb87563e71585c9f538d1a196fe2d154dcc5b8f335e8770a8acc95e1f3a\",\"dweb:/ipfs/QmSnDqJJLzv3mirjGB1vrk5X7hegFdS7BKpscpxyqj7sWu\"]},\"@openzeppelin/contracts-upgradeable/utils/AddressUpgradeable.sol\":{\"keccak256\":\"0x2edcb41c121abc510932e8d83ff8b82cf9cdde35e7c297622f5c29ef0af25183\",\"license\":\"MIT\",\"urls\":[\"bzz-raw://72460c66cd1c3b1c11b863e0d8df0a1c56f37743019e468dc312c754f43e3b06\",\"dweb:/ipfs/QmPExYKiNb9PUsgktQBupPaM33kzDHxaYoVeJdLhv8s879\"]},\"@openzeppelin/contracts-upgradeable/utils/ContextUpgradeable.sol\":{\"keccak256\":\"0x963ea7f0b48b032eef72fe3a7582edf78408d6f834115b9feadd673a4d5bd149\",\"license\":\"MIT\",\"urls\":[\"bzz-raw://d6520943ea55fdf5f0bafb39ed909f64de17051bc954ff3e88c9e5621412c79c\",\"dweb:/ipfs/QmWZ4rAKTQbNG2HxGs46AcTXShsVytKeLs7CUCdCSv5N7a\"]},\"@openzeppelin/contracts-upgradeable/utils/StorageSlotUpgradeable.sol\":{\"keccak256\":\"0x09864aea84f01e39313375b5610c73a3c1c68abbdc51e5ccdd25ff977fdadf9a\",\"license\":\"MIT\",\"urls\":[\"bzz-raw://aedb48081190fa828d243529ce25c708202c7d4ccfe99f0e4ecd6bc0cfcd03f3\",\"dweb:/ipfs/QmWyiDQHPZA56iqsAwTmiJoxvNeRQLUVr4gTfzpdpXivpo\"]},\"@openzeppelin/contracts-upgradeable/utils/StringsUpgradeable.sol\":{\"keccak256\":\"0x6b9a5d35b744b25529a2856a8093e7c03fb35a34b1c4fb5499e560f8ade140da\",\"license\":\"MIT\",\"urls\":[\"bzz-raw://187b5c3a1c9e77678732a2cc5284237f9cfca6bc28ee8bc0a0f4f951d7b3a2f8\",\"dweb:/ipfs/Qmb2KFr7WuQu7btdCiftQG64vTzrG4UyzVmo53EYHcnHYA\"]},\"@openzeppelin/contracts-upgradeable/utils/cryptography/ECDSAUpgradeable.sol\":{\"keccak256\":\"0x12f297cafe6e2847ae0378502f155654d0764b532a9873c8afe4350950fa7971\",\"license\":\"MIT\",\"urls\":[\"bzz-raw://28074f6df7132e83819042a06ef75ae53c88c53c077b8222b9772b780d58bd58\",\"dweb:/ipfs/QmXXwSxWn4XGCy218fn3f2m3UmFNUiroeQ8sCR3vzNU6Wc\"]},\"@openzeppelin/contracts-upgradeable/utils/cryptography/EIP712Upgradeable.sol\":{\"keccak256\":\"0x3017aded62c4a2b9707f5f06f92934e592c1c9b6f384b91b51340a6d5f841931\",\"license\":\"MIT\",\"urls\":[\"bzz-raw://bb693afc2a614ec7afee965caaf5d53c3f32644e33286f60d17ae0e9aca84d44\",\"dweb:/ipfs/QmVJy43EBWvVT5NgpsV8WJfDHtZbnqZGMhmv1WbWaV5dJV\"]},\"@openzeppelin/contracts-upgradeable/utils/cryptography/draft-EIP712Upgradeable.sol\":{\"keccak256\":\"0x31a2e227f5653e4b31e0f680857b8842073d083b33df11b3f3b3bb5ddc10526e\",\"license\":\"MIT\",\"urls\":[\"bzz-raw://051dd3770ecfea8fd28342b4e48c34d0cba9fbc2dbb1286d710d3d547d707018\",\"dweb:/ipfs/QmQp89U3xBRY7Xjw2HfozkMD3Yh64WvzJKQ1SHGRiEdm2J\"]},\"@openzeppelin/contracts-upgradeable/utils/math/MathUpgradeable.sol\":{\"keccak256\":\"0xc1bd5b53319c68f84e3becd75694d941e8f4be94049903232cd8bc7c535aaa5a\",\"license\":\"MIT\",\"urls\":[\"bzz-raw://056027a78e6f4b78a39be530983551651ee5a052e786ca2c1c6a3bb1222b03b4\",\"dweb:/ipfs/QmXRUpywAqNwAfXS89vrtiE2THRM9dX9pQ4QxAkV1Wx9kt\"]},\"@openzeppelin/contracts/interfaces/draft-IERC1822.sol\":{\"keccak256\":\"0x1d4afe6cb24200cc4545eed814ecf5847277dfe5d613a1707aad5fceecebcfff\",\"license\":\"MIT\",\"urls\":[\"bzz-raw://383fb7b8181016ac5ccf07bc9cdb7c1b5045ea36e2cc4df52bcbf20396fc7688\",\"dweb:/ipfs/QmYJ7Cg4WmE3rR8KGQxjUCXFfTH6TcwZ2Z1f6tPrq7jHFr\"]},\"@openzeppelin/contracts/proxy/ERC1967/ERC1967Proxy.sol\":{\"keccak256\":\"0xa2b22da3032e50b55f95ec1d13336102d675f341167aa76db571ef7f8bb7975d\",\"license\":\"MIT\",\"urls\":[\"bzz-raw://96b6d77a20bebd4eb06b801d3d020c7e82be13bd535cb0d0a6b7181c51dab5d5\",\"dweb:/ipfs/QmPUR9Cv9jNFdQX6PtBfaBW1ZCnKwiu65R2VD5kbdanDyn\"]},\"@openzeppelin/contracts/proxy/ERC1967/ERC1967Upgrade.sol\":{\"keccak256\":\"0xabf3f59bc0e5423eae45e459dbe92e7052c6983628d39008590edc852a62f94a\",\"license\":\"MIT\",\"urls\":[\"bzz-raw://89c2a0f70157c13845be5cb49b078a6374fee3a78fa950052a3af26190255da8\",\"dweb:/ipfs/QmUcvMEQH1oMM2pUyMuDiBUKdvvnTz1NRB8bmPHrVq8725\"]},\"@openzeppelin/contracts/proxy/Proxy.sol\":{\"keccak256\":\"0xc130fe33f1b2132158531a87734153293f6d07bc263ff4ac90e85da9c82c0e27\",\"license\":\"MIT\",\"urls\":[\"bzz-raw://8831721b6f4cc26534d190f9f1631c3f59c9ff38efdd911f85e0882b8e360472\",\"dweb:/ipfs/QmQZnLErZNStirSQ13ZNWQgvEYUtGE5tXYwn4QUPaVUfPN\"]},\"@openzeppelin/contracts/proxy/beacon/IBeacon.sol\":{\"keccak256\":\"0xd50a3421ac379ccb1be435fa646d66a65c986b4924f0849839f08692f39dde61\",\"license\":\"MIT\",\"urls\":[\"bzz-raw://ada1e030c0231db8d143b44ce92b4d1158eedb087880cad6d8cc7bd7ebe7b354\",\"dweb:/ipfs/QmWZ2NHZweRpz1U9GF6R1h65ri76dnX7fNxLBeM2t5N5Ce\"]},\"@openzeppelin/contracts/utils/Address.sol\":{\"keccak256\":\"0xf96f969e24029d43d0df89e59d365f277021dac62b48e1c1e3ebe0acdd7f1ca1\",\"license\":\"MIT\",\"urls\":[\"bzz-raw://ec772b45a624be516f1c81970caa8a2e144301e9d0921cbc1a2789fef39a1269\",\"dweb:/ipfs/QmNyjwxCrGhQMyzLD93oUobJXVe9ceJvRvfXwbEtuxPiEj\"]},\"@openzeppelin/contracts/utils/StorageSlot.sol\":{\"keccak256\":\"0xd5c50c54bf02740ebd122ff06832546cb5fa84486d52695a9ccfd11666e0c81d\",\"license\":\"MIT\",\"urls\":[\"bzz-raw://39e096c60a6eb1c6a257122d515496bd92d0c6a693a8f07acb6aa4b1263e95d4\",\"dweb:/ipfs/QmPs5trJBacCiSkezP6tpevapuRYWNY6mqSFzsMCJj7e6B\"]},\"@openzeppelin/contracts/utils/introspection/IERC165.sol\":{\"keccak256\":\"0x447a5f3ddc18419d41ff92b3773fb86471b1db25773e07f877f548918a185bf1\",\"license\":\"MIT\",\"urls\":[\"bzz-raw://be161e54f24e5c6fae81a12db1a8ae87bc5ae1b0ddc805d82a1440a68455088f\",\"dweb:/ipfs/QmP7C3CHdY9urF4dEMb9wmsp1wMxHF6nhA2yQE5SKiPAdy\"]},\"contracts/Baal.sol\":{\"keccak256\":\"0x273e4c8a1708ff252be03f14f12032a9a6fa1c48de3819a4a33902e4e4497a4c\",\"license\":\"MIT\",\"urls\":[\"bzz-raw://e9b078ee5d474b659c57e8a094bf113a70477fec37f08119a4e577ade1cd2b21\",\"dweb:/ipfs/QmbePm8oPTw8bhGEeShYoJiEXgnLMkfPdbFS9WWAx1F7SD\"]},\"contracts/BaalSummoner.sol\":{\"keccak256\":\"0x237bd051ebcae8652a7c4e359bd75f30fd59e04fbf813589e2ec4f079c3d8cc6\",\"license\":\"MIT\",\"urls\":[\"bzz-raw://d37e554c1600493df9e6ec59e74f8ad0badbd897138feab1ee24959712aa4d59\",\"dweb:/ipfs/QmPcMAMQwKq9WvbsLzFA2kn9jhoFDhxZossuJCHDr3iPTZ\"]},\"contracts/interfaces/IBaalToken.sol\":{\"keccak256\":\"0x4c057a382569403c59a92c88f3008664b3f957967f94505b82c78ce779282fce\",\"license\":\"MIT\",\"urls\":[\"bzz-raw://e25459627992b498fb0a715e3a9988f05ff8cecf142607d127062e3dfa64b14e\",\"dweb:/ipfs/QmZAdN1ZVqJUTzUm2thY8V2yBKbpBpkZ7aGAvk1rhtE9Vn\"]}},\"version\":1}",
              "bytecode": "0x60a06040523060601b60805234801561001757600080fd5b5060805160601c612d7861005260003960008181610483015281816104cf01528181610593015281816105d601526106720152612d786000f3fe608060405260043610620001375760003560e01c8063881e4ea411620000ad578063d9118ce7116200006c578063d9118ce71462000364578063ebfb8a431462000386578063f0fa28b914620003ab578063f2fde38b14620003cd578063f884231c14620003f257600080fd5b8063881e4ea414620002865780638da5cb5b14620002a857806397fc9fbb14620002c8578063a2346618146200030e578063d61f27ae146200033057600080fd5b80634f1ef28611620000fa5780634f1ef286146200020557806352d1902d146200021c5780636f2ddd931462000234578063715018a614620002565780638129fc1c146200026e57600080fd5b8063209f3695146200013c57806321d56a43146200017057806323626b4514620001925780633659cfe614620001b95780634a8b0b3214620001e0575b600080fd5b620001536200014d36600462001f1e565b62000417565b6040516001600160a01b0390911681526020015b60405180910390f35b3480156200017d57600080fd5b5060cb5462000153906001600160a01b031681565b3480156200019f57600080fd5b50620001aa60c95481565b60405190815260200162000167565b348015620001c657600080fd5b50620001de620001d836600462001ccc565b62000478565b005b348015620001ed57600080fd5b5062000153620001ff36600462001ea3565b6200056d565b620001de6200021636600462001dc6565b62000588565b3480156200022957600080fd5b50620001aa62000665565b3480156200024157600080fd5b5060ca5462000153906001600160a01b031681565b3480156200026357600080fd5b50620001de6200071b565b3480156200027b57600080fd5b50620001de62000733565b3480156200029357600080fd5b5060cd5462000153906001600160a01b031681565b348015620002b557600080fd5b506033546001600160a01b031662000153565b348015620002d557600080fd5b50620002ed620002e736600462001fa3565b62000856565b604080516001600160a01b0393841681529290911660208301520162000167565b3480156200031b57600080fd5b5060cf5462000153906001600160a01b031681565b3480156200033d57600080fd5b50620003556200034f36600462001e1c565b62000a17565b604051620001679190620023a2565b3480156200037157600080fd5b5060ce5462000153906001600160a01b031681565b3480156200039357600080fd5b50620001de620003a536600462001d0c565b62000aec565b348015620003b857600080fd5b5060cc5462000153906001600160a01b031681565b348015620003da57600080fd5b50620001de620003ec36600462001ccc565b62000df0565b348015620003ff57600080fd5b50620001536200041136600462001ccc565b62000e6c565b600080620004298888888888620010d4565b604080518581526001600160a01b03831660208201529192507fe1e7ecd08b1e119c2755872e95180d0d070137a7c2af361de1d7256bc3674107910160405180910390a1979650505050505050565b306001600160a01b037f0000000000000000000000000000000000000000000000000000000000000000161415620004cd5760405162461bcd60e51b8152600401620004c490620023e0565b60405180910390fd5b7f00000000000000000000000000000000000000000000000000000000000000006001600160a01b03166200051860008051602062002cfc833981519152546001600160a01b031690565b6001600160a01b031614620005415760405162461bcd60e51b8152600401620004c4906200242c565b6200054c81620015e4565b604080516000808252602082019092526200056a91839190620015ee565b50565b60006200057e8686868686620010d4565b9695505050505050565b306001600160a01b037f0000000000000000000000000000000000000000000000000000000000000000161415620005d45760405162461bcd60e51b8152600401620004c490620023e0565b7f00000000000000000000000000000000000000000000000000000000000000006001600160a01b03166200061f60008051602062002cfc833981519152546001600160a01b031690565b6001600160a01b031614620006485760405162461bcd60e51b8152600401620004c4906200242c565b6200065382620015e4565b6200066182826001620015ee565b5050565b6000306001600160a01b037f00000000000000000000000000000000000000000000000000000000000000001614620007075760405162461bcd60e51b815260206004820152603860248201527f555550535570677261646561626c653a206d757374206e6f742062652063616c60448201527f6c6564207468726f7567682064656c656761746563616c6c00000000000000006064820152608401620004c4565b5060008051602062002cfc83398151915290565b620007256200177b565b620007316000620017d7565b565b600054610100900460ff1615808015620007545750600054600160ff909116105b80620007705750303b15801562000770575060005460ff166001145b620007d55760405162461bcd60e51b815260206004820152602e60248201527f496e697469616c697a61626c653a20636f6e747261637420697320616c72656160448201526d191e481a5b9a5d1a585b1a5e995960921b6064820152608401620004c4565b6000805460ff191660011790558015620007f9576000805461ff0019166101001790555b6200080362001829565b6200080d6200185d565b80156200056a576000805461ff0019169055604051600181527f7f26b83ff96e1f2b6a682f133852f6798a09c465da95921460cefb38474024989060200160405180910390a150565b60ce5460405160009182916001600160a01b039091169063562d190d60e01b90620008869087906020016200217c565b60405160208183030381529060405285604051602001620008a89190620021a7565b60408051601f1981840301815290829052620008c89291602401620023b7565b60408051601f198184030181529181526020820180516001600160e01b03166001600160e01b0319909416939093179092529051620009079062001b1c565b62000914929190620022b2565b604051809103906000f08015801562000931573d6000803e3d6000fd5b5060cf546040519193506001600160a01b03169063562d190d60e01b90620009609087908790602401620023b7565b60408051601f198184030181529181526020820180516001600160e01b03166001600160e01b03199094169390931790925290516200099f9062001b1c565b620009ac929190620022b2565b604051809103906000f080158015620009c9573d6000803e3d6000fd5b50604080516001600160a01b038086168252831660208201529192507ffb5849d45e916a3192059973d782e08b2b3888fa796f536d99af0c7bd01ca16c910160405180910390a19250929050565b60608060005b845181101562000aa65781600085600088858151811062000a425762000a4262002584565b60200260200101515189868151811062000a605762000a6062002584565b602002602001015160405160200162000a7f969594939291906200210e565b6040516020818303038152906040529150808062000a9d9062002550565b91505062000a1d565b508060405160240162000aba9190620023a2565b60408051601f198184030181529190526020810180516001600160e01b03166346c07f8560e11b179052949350505050565b62000af66200177b565b6001600160a01b03821662000b3f5760405162461bcd60e51b815260206004820152600e60248201526d10b637b7ba29b4b733b632ba37b760911b6044820152606401620004c4565b6001600160a01b03811662000b8a5760405162461bcd60e51b815260206004820152601060248201526f10b9b430b932b9a9b4b733b632ba37b760811b6044820152606401620004c4565b6001600160a01b03871662000bd55760405162461bcd60e51b815260206004820152601060248201526f10b3b737b9b4b9a9b4b733b632ba37b760811b6044820152606401620004c4565b6001600160a01b03861662000c265760405162461bcd60e51b815260206004820152601660248201527521676e6f73697346616c6c6261636b4c69627261727960501b6044820152606401620004c4565b6001600160a01b03851662000c7e5760405162461bcd60e51b815260206004820152601760248201527f21676e6f7369734d756c746973656e644c6962726172790000000000000000006044820152606401620004c4565b6001600160a01b03841662000cd65760405162461bcd60e51b815260206004820152601760248201527f21676e6f7369735361666550726f7879466163746f72790000000000000000006044820152606401620004c4565b6001600160a01b03831662000d245760405162461bcd60e51b8152602060048201526013602482015272216d6f64756c6550726f7879466163746f727960681b6044820152606401620004c4565b60ca80546001600160a01b03199081166001600160a01b038b81169190911790925560cb805482168a841617905560cc8054821689841617905560cd8054821688841617905560d08054821687841617905560d18054821686841617905560ce8054821685841617905560cf805490911691831691909117905560c980547fe6fb5c8c5a2615df9d8de2df2fdebdae949bcf3a2a80cb8ff90ace3459de85cc91600062000dd18362002550565b9091555060405190815260200160405180910390a15050505050505050565b62000dfa6200177b565b6001600160a01b03811662000e615760405162461bcd60e51b815260206004820152602660248201527f4f776e61626c653a206e6577206f776e657220697320746865207a65726f206160448201526564647265737360d01b6064820152608401620004c4565b6200056a81620017d7565b60d05460cb5460408051602081018252600080825291516361b69abd60e01b8152919384936001600160a01b03918216936361b69abd9362000eb6939092169190600401620022b2565b602060405180830381600087803b15801562000ed157600080fd5b505af115801562000ee6573d6000803e3d6000fd5b505050506040513d601f19601f8201168201806040525081019062000f0c919062001cec565b6040516001600160a01b038516602482015290915060009060440160408051601f19818403018152918152602080830180516001600160e01b031663610b592560e01b1790528251915192935060009262000f719284928792849291889101620021d2565b604051602081830303815290604052905060008160405160240162000f979190620023a2565b60408051601f19818403018152918152602080830180516001600160e01b03166346c07f8560e11b1790528151600180825281840190935292935060009291908281019080368337019050509050868160008151811062000ffc5762000ffc62002584565b6001600160a01b03928316602091820292909201015260cd5460cc5460405163b63e800d60e01b81528884169363b63e800d9362001051938793600193928316928a92169060009081908190600401620022e0565b600060405180830381600087803b1580156200106c57600080fd5b505af115801562001081573d6000803e3d6000fd5b5050604080516001600160a01b03808a1682528b1660208201527f7ad675e6593a2c3bdf52607876353caf39853572dd787d2a5eed1cc99097b3f0935001905060405180910390a1509295945050505050565b600080808080808080620010eb8c8e018e62002004565b955095509550955095509550600060d160009054906101000a90046001600160a01b03166001600160a01b031663f1ab873c60ca60009054906101000a90046001600160a01b0316604051602401604051602081830303815290604052632d77bef360e11b6001600160e01b0319166020820180516001600160e01b0383818316178352505050508d6040518463ffffffff1660e01b815260040162001194939291906200222a565b602060405180830381600087803b158015620011af57600080fd5b505af1158015620011c4573d6000803e3d6000fd5b505050506040513d601f19601f82011682018060405250810190620011ea919062001cec565b90506001600160a01b03831615806200120a57506001600160a01b038216155b156200138e576200121c878762000856565b8093508194505050826001600160a01b0316638456cb596040518163ffffffff1660e01b8152600401600060405180830381600087803b1580156200126057600080fd5b505af115801562001275573d6000803e3d6000fd5b50505050816001600160a01b0316638456cb596040518163ffffffff1660e01b8152600401600060405180830381600087803b158015620012b557600080fd5b505af1158015620012ca573d6000803e3d6000fd5b505060405163f2fde38b60e01b81526001600160a01b0384811660048301528616925063f2fde38b9150602401600060405180830381600087803b1580156200131257600080fd5b505af115801562001327573d6000803e3d6000fd5b505060405163f2fde38b60e01b81526001600160a01b0384811660048301528516925063f2fde38b9150602401600060405180830381600087803b1580156200136f57600080fd5b505af115801562001384573d6000803e3d6000fd5b505050506200139e565b6200139b600189620024f7565b97505b6001600160a01b038516620013c057620013b88162000e6c565b9450620013d0565b620013cd600289620024f7565b97505b6000620013e9620013e28d8f62002512565b8362000a17565b60cd546040519192506000916200141791879187916001600160a01b0316908b908b90889060200162002260565b60408051601f198184030181529082905263a4f9edbf60e01b825291506001600160a01b0384169063a4f9edbf9062001455908490600401620023a2565b600060405180830381600087803b1580156200147057600080fd5b505af115801562001485573d6000803e3d6000fd5b50505050826001600160a01b0316638009ba1f6040518163ffffffff1660e01b815260040160206040518083038186803b158015620014c357600080fd5b505afa158015620014d8573d6000803e3d6000fd5b505050506040513d601f19601f82011682018060405250810190620014fe919062001cec565b6001600160a01b0316836001600160a01b031663f460124d6040518163ffffffff1660e01b815260040160206040518083038186803b1580156200154157600080fd5b505afa15801562001556573d6000803e3d6000fd5b505050506040513d601f19601f820116820180604052508101906200157c919062001cec565b604080516001600160a01b038b811682528a811660208301529181018e905291811691908616907fcf2f09cd0dbc149b12a3630a11b7d73476660f3d08d3dc7dcc79c6dec555ee7a9060600160405180910390a450909e9d5050505050505050505050505050565b6200056a6200177b565b7f4910fdfa16fed3260ed0e7147f7cc6da11a60208b5b9406d12a635614ffd91435460ff16156200162957620016248362001887565b505050565b826001600160a01b03166352d1902d6040518163ffffffff1660e01b815260040160206040518083038186803b1580156200166357600080fd5b505afa92505050801562001696575060408051601f3d908101601f19168201909252620016939181019062001e89565b60015b620016fb5760405162461bcd60e51b815260206004820152602e60248201527f45524331393637557067726164653a206e657720696d706c656d656e7461746960448201526d6f6e206973206e6f74205555505360901b6064820152608401620004c4565b60008051602062002cfc83398151915281146200176d5760405162461bcd60e51b815260206004820152602960248201527f45524331393637557067726164653a20756e737570706f727465642070726f786044820152681a58589b195555525160ba1b6064820152608401620004c4565b506200162483838362001926565b6033546001600160a01b03163314620007315760405162461bcd60e51b815260206004820181905260248201527f4f776e61626c653a2063616c6c6572206973206e6f7420746865206f776e65726044820152606401620004c4565b603380546001600160a01b038381166001600160a01b0319831681179093556040519116919082907f8be0079c531659141344cd1fd0a4f28419497f9722a3daafe3b4186f6b6457e090600090a35050565b600054610100900460ff16620018535760405162461bcd60e51b8152600401620004c49062002478565b6200073162001957565b600054610100900460ff16620007315760405162461bcd60e51b8152600401620004c49062002478565b6001600160a01b0381163b620018f65760405162461bcd60e51b815260206004820152602d60248201527f455243313936373a206e657720696d706c656d656e746174696f6e206973206e60448201526c1bdd08184818dbdb9d1c9858dd609a1b6064820152608401620004c4565b60008051602062002cfc83398151915280546001600160a01b0319166001600160a01b0392909216919091179055565b62001931836200198c565b6000825111806200193f5750805b156200162457620019518383620019ce565b50505050565b600054610100900460ff16620019815760405162461bcd60e51b8152600401620004c49062002478565b6200073133620017d7565b620019978162001887565b6040516001600160a01b038216907fbc7cd75a20ee27fd9adebab32041f755214dbc6bffa90cc0225b39da2e5c2d3b90600090a250565b60606001600160a01b0383163b62001a385760405162461bcd60e51b815260206004820152602660248201527f416464726573733a2064656c65676174652063616c6c20746f206e6f6e2d636f6044820152651b9d1c9858dd60d21b6064820152608401620004c4565b600080846001600160a01b03168460405162001a559190620020f0565b600060405180830381855af49150503d806000811462001a92576040519150601f19603f3d011682016040523d82523d6000602084013e62001a97565b606091505b509150915062001ac2828260405180606001604052806027815260200162002d1c6027913962001acb565b95945050505050565b6060831562001adc57508162001ae8565b62001ae8838362001aef565b9392505050565b81511562001b005781518083602001fd5b8060405162461bcd60e51b8152600401620004c49190620023a2565b61073580620025c783390190565b600067ffffffffffffffff8084111562001b485762001b486200259a565b8360051b602062001b5b818301620024c3565b86815293508084018583810189101562001b7457600080fd5b60009350835b8881101562001bb45781358681111562001b92578586fd5b62001ba08b828b0162001c55565b845250918301919083019060010162001b7a565b5050505050509392505050565b60008083601f84011262001bd457600080fd5b50813567ffffffffffffffff81111562001bed57600080fd5b6020830191508360208260051b850101111562001c0957600080fd5b9250929050565b60008083601f84011262001c2357600080fd5b50813567ffffffffffffffff81111562001c3c57600080fd5b60208301915083602082850101111562001c0957600080fd5b600082601f83011262001c6757600080fd5b813567ffffffffffffffff81111562001c845762001c846200259a565b62001c99601f8201601f1916602001620024c3565b81815284602083860101111562001caf57600080fd5b816020850160208301376000918101602001919091529392505050565b60006020828403121562001cdf57600080fd5b813562001ae881620025b0565b60006020828403121562001cff57600080fd5b815162001ae881620025b0565b600080600080600080600080610100898b03121562001d2a57600080fd5b883562001d3781620025b0565b9750602089013562001d4981620025b0565b9650604089013562001d5b81620025b0565b9550606089013562001d6d81620025b0565b9450608089013562001d7f81620025b0565b935060a089013562001d9181620025b0565b925060c089013562001da381620025b0565b915060e089013562001db581620025b0565b809150509295985092959890939650565b6000806040838503121562001dda57600080fd5b823562001de781620025b0565b9150602083013567ffffffffffffffff81111562001e0457600080fd5b62001e128582860162001c55565b9150509250929050565b6000806040838503121562001e3057600080fd5b823567ffffffffffffffff81111562001e4857600080fd5b8301601f8101851362001e5a57600080fd5b62001e6b8582356020840162001b2a565b925050602083013562001e7e81620025b0565b809150509250929050565b60006020828403121562001e9c57600080fd5b5051919050565b60008060008060006060868803121562001ebc57600080fd5b853567ffffffffffffffff8082111562001ed557600080fd5b62001ee389838a0162001c10565b9097509550602088013591508082111562001efd57600080fd5b5062001f0c8882890162001bc1565b96999598509660400135949350505050565b6000806000806000806080878903121562001f3857600080fd5b863567ffffffffffffffff8082111562001f5157600080fd5b62001f5f8a838b0162001c10565b9098509650602089013591508082111562001f7957600080fd5b5062001f8889828a0162001bc1565b979a9699509760408101359660609091013595509350505050565b6000806040838503121562001fb757600080fd5b823567ffffffffffffffff8082111562001fd057600080fd5b62001fde8683870162001c55565b9350602085013591508082111562001ff557600080fd5b5062001e128582860162001c55565b60008060008060008060c087890312156200201e57600080fd5b863567ffffffffffffffff808211156200203757600080fd5b620020458a838b0162001c55565b975060208901359150808211156200205c57600080fd5b506200206b89828a0162001c55565b95505060408701356200207e81620025b0565b935060608701356200209081620025b0565b92506080870135620020a281620025b0565b915060a0870135620020b481620025b0565b809150509295509295509295565b60008151808452620020dc81602086016020860162002521565b601f01601f19169290920160200192915050565b600082516200210481846020870162002521565b9190910192915050565b6000875162002122818460208c0162002521565b808301905060ff60f81b8860f81b1681526bffffffffffffffffffffffff198760601b16600182015285601582015284603582015283516200216c81605584016020880162002521565b0160550198975050505050505050565b600082516200219081846020870162002521565b64081313d3d560da1b920191825250600501919050565b60008251620021bb81846020870162002521565b640b5313d3d560da1b920191825250600501919050565b60ff60f81b8660f81b1681526bffffffffffffffffffffffff198560601b166001820152836015820152826035820152600082516200221981605585016020870162002521565b919091016055019695505050505050565b6001600160a01b03841681526060602082018190526000906200225090830185620020c2565b9050826040830152949350505050565b6001600160a01b0387811682528681166020830152858116604083015284811660608301528316608082015260c060a08201819052600090620022a690830184620020c2565b98975050505050505050565b6001600160a01b0383168152604060208201819052600090620022d890830184620020c2565b949350505050565b6101008082528951908201819052600090610120830190602090818d01845b82811015620023265781516001600160a01b031685529383019390830190600101620022ff565b50505083018a90526001600160a01b03891660408401528281036060840152620023518189620020c2565b9150506200236a60808301876001600160a01b03169052565b6001600160a01b03851660a08301528360c08301526200239560e08301846001600160a01b03169052565b9998505050505050505050565b60208152600062001ae86020830184620020c2565b604081526000620023cc6040830185620020c2565b828103602084015262001ac28185620020c2565b6020808252602c908201527f46756e6374696f6e206d7573742062652063616c6c6564207468726f7567682060408201526b19195b1959d85d1958d85b1b60a21b606082015260800190565b6020808252602c908201527f46756e6374696f6e206d7573742062652063616c6c6564207468726f7567682060408201526b6163746976652070726f787960a01b606082015260800190565b6020808252602b908201527f496e697469616c697a61626c653a20636f6e7472616374206973206e6f74206960408201526a6e697469616c697a696e6760a81b606082015260800190565b604051601f8201601f1916810167ffffffffffffffff81118282101715620024ef57620024ef6200259a565b604052919050565b600082198211156200250d576200250d6200256e565b500190565b600062001ae836848462001b2a565b60005b838110156200253e57818101518382015260200162002524565b83811115620019515750506000910152565b60006000198214156200256757620025676200256e565b5060010190565b634e487b7160e01b600052601160045260246000fd5b634e487b7160e01b600052603260045260246000fd5b634e487b7160e01b600052604160045260246000fd5b6001600160a01b03811681146200056a57600080fdfe6080604052604051610735380380610735833981016040819052610022916102dc565b61002e82826000610035565b505061043b565b61003e8361006b565b60008251118061004b5750805b156100665761006483836100ab60201b6100291760201c565b505b505050565b610074816100d7565b6040516001600160a01b038216907fbc7cd75a20ee27fd9adebab32041f755214dbc6bffa90cc0225b39da2e5c2d3b90600090a250565b60606100d0838360405180606001604052806027815260200161070e602791396101a9565b9392505050565b6100ea8161022260201b6100551760201c565b6101515760405162461bcd60e51b815260206004820152602d60248201527f455243313936373a206e657720696d706c656d656e746174696f6e206973206e60448201526c1bdd08184818dbdb9d1c9858dd609a1b60648201526084015b60405180910390fd5b806101887f360894a13ba1a3210667c828492db98dca3e2076cc3735a920a3ca505d382bbc60001b61023160201b6100641760201c565b80546001600160a01b0319166001600160a01b039290921691909117905550565b6060600080856001600160a01b0316856040516101c691906103aa565b600060405180830381855af49150503d8060008114610201576040519150601f19603f3d011682016040523d82523d6000602084013e610206565b606091505b50909250905061021886838387610234565b9695505050505050565b6001600160a01b03163b151590565b90565b606083156102a0578251610299576001600160a01b0385163b6102995760405162461bcd60e51b815260206004820152601d60248201527f416464726573733a2063616c6c20746f206e6f6e2d636f6e74726163740000006044820152606401610148565b50816102aa565b6102aa83836102b2565b949350505050565b8151156102c25781518083602001fd5b8060405162461bcd60e51b815260040161014891906103c6565b600080604083850312156102ef57600080fd5b82516001600160a01b038116811461030657600080fd5b60208401519092506001600160401b038082111561032357600080fd5b818501915085601f83011261033757600080fd5b81518181111561034957610349610425565b604051601f8201601f19908116603f0116810190838211818310171561037157610371610425565b8160405282815288602084870101111561038a57600080fd5b61039b8360208301602088016103f9565b80955050505050509250929050565b600082516103bc8184602087016103f9565b9190910192915050565b60208152600082518060208401526103e58160408501602087016103f9565b601f01601f19169190910160400192915050565b60005b838110156104145781810151838201526020016103fc565b838111156100645750506000910152565b634e487b7160e01b600052604160045260246000fd5b6102c48061044a6000396000f3fe60806040523661001357610011610017565b005b6100115b610027610022610067565b61009f565b565b606061004e8383604051806060016040528060278152602001610268602791396100c3565b9392505050565b6001600160a01b03163b151590565b90565b600061009a7f360894a13ba1a3210667c828492db98dca3e2076cc3735a920a3ca505d382bbc546001600160a01b031690565b905090565b3660008037600080366000845af43d6000803e8080156100be573d6000f35b3d6000fd5b6060600080856001600160a01b0316856040516100e091906101e8565b600060405180830381855af49150503d806000811461011b576040519150601f19603f3d011682016040523d82523d6000602084013e610120565b606091505b50915091506101318683838761013b565b9695505050505050565b606083156101ac5782516101a5576001600160a01b0385163b6101a55760405162461bcd60e51b815260206004820152601d60248201527f416464726573733a2063616c6c20746f206e6f6e2d636f6e747261637400000060448201526064015b60405180910390fd5b50816101b6565b6101b683836101be565b949350505050565b8151156101ce5781518083602001fd5b8060405162461bcd60e51b815260040161019c9190610204565b600082516101fa818460208701610237565b9190910192915050565b6020815260008251806020840152610223816040850160208701610237565b601f01601f19169190910160400192915050565b60005b8381101561025257818101518382015260200161023a565b83811115610261576000848401525b5050505056fe416464726573733a206c6f772d6c6576656c2064656c65676174652063616c6c206661696c6564a26469706673582212206c0dbbf9b7cea0b39475b09af2676b6d09e25394c7e441ee3ecd8d988bc0d67964736f6c63430008070033416464726573733a206c6f772d6c6576656c2064656c65676174652063616c6c206661696c6564360894a13ba1a3210667c828492db98dca3e2076cc3735a920a3ca505d382bbc416464726573733a206c6f772d6c6576656c2064656c65676174652063616c6c206661696c6564a2646970667358221220eca5596dad40532f97072a78175faf1f5910d4ad8e467469e2a490b50bd1f3b364736f6c63430008070033",
              "deployedBytecode": "0x608060405260043610620001375760003560e01c8063881e4ea411620000ad578063d9118ce7116200006c578063d9118ce71462000364578063ebfb8a431462000386578063f0fa28b914620003ab578063f2fde38b14620003cd578063f884231c14620003f257600080fd5b8063881e4ea414620002865780638da5cb5b14620002a857806397fc9fbb14620002c8578063a2346618146200030e578063d61f27ae146200033057600080fd5b80634f1ef28611620000fa5780634f1ef286146200020557806352d1902d146200021c5780636f2ddd931462000234578063715018a614620002565780638129fc1c146200026e57600080fd5b8063209f3695146200013c57806321d56a43146200017057806323626b4514620001925780633659cfe614620001b95780634a8b0b3214620001e0575b600080fd5b620001536200014d36600462001f1e565b62000417565b6040516001600160a01b0390911681526020015b60405180910390f35b3480156200017d57600080fd5b5060cb5462000153906001600160a01b031681565b3480156200019f57600080fd5b50620001aa60c95481565b60405190815260200162000167565b348015620001c657600080fd5b50620001de620001d836600462001ccc565b62000478565b005b348015620001ed57600080fd5b5062000153620001ff36600462001ea3565b6200056d565b620001de6200021636600462001dc6565b62000588565b3480156200022957600080fd5b50620001aa62000665565b3480156200024157600080fd5b5060ca5462000153906001600160a01b031681565b3480156200026357600080fd5b50620001de6200071b565b3480156200027b57600080fd5b50620001de62000733565b3480156200029357600080fd5b5060cd5462000153906001600160a01b031681565b348015620002b557600080fd5b506033546001600160a01b031662000153565b348015620002d557600080fd5b50620002ed620002e736600462001fa3565b62000856565b604080516001600160a01b0393841681529290911660208301520162000167565b3480156200031b57600080fd5b5060cf5462000153906001600160a01b031681565b3480156200033d57600080fd5b50620003556200034f36600462001e1c565b62000a17565b604051620001679190620023a2565b3480156200037157600080fd5b5060ce5462000153906001600160a01b031681565b3480156200039357600080fd5b50620001de620003a536600462001d0c565b62000aec565b348015620003b857600080fd5b5060cc5462000153906001600160a01b031681565b348015620003da57600080fd5b50620001de620003ec36600462001ccc565b62000df0565b348015620003ff57600080fd5b50620001536200041136600462001ccc565b62000e6c565b600080620004298888888888620010d4565b604080518581526001600160a01b03831660208201529192507fe1e7ecd08b1e119c2755872e95180d0d070137a7c2af361de1d7256bc3674107910160405180910390a1979650505050505050565b306001600160a01b037f0000000000000000000000000000000000000000000000000000000000000000161415620004cd5760405162461bcd60e51b8152600401620004c490620023e0565b60405180910390fd5b7f00000000000000000000000000000000000000000000000000000000000000006001600160a01b03166200051860008051602062002cfc833981519152546001600160a01b031690565b6001600160a01b031614620005415760405162461bcd60e51b8152600401620004c4906200242c565b6200054c81620015e4565b604080516000808252602082019092526200056a91839190620015ee565b50565b60006200057e8686868686620010d4565b9695505050505050565b306001600160a01b037f0000000000000000000000000000000000000000000000000000000000000000161415620005d45760405162461bcd60e51b8152600401620004c490620023e0565b7f00000000000000000000000000000000000000000000000000000000000000006001600160a01b03166200061f60008051602062002cfc833981519152546001600160a01b031690565b6001600160a01b031614620006485760405162461bcd60e51b8152600401620004c4906200242c565b6200065382620015e4565b6200066182826001620015ee565b5050565b6000306001600160a01b037f00000000000000000000000000000000000000000000000000000000000000001614620007075760405162461bcd60e51b815260206004820152603860248201527f555550535570677261646561626c653a206d757374206e6f742062652063616c60448201527f6c6564207468726f7567682064656c656761746563616c6c00000000000000006064820152608401620004c4565b5060008051602062002cfc83398151915290565b620007256200177b565b620007316000620017d7565b565b600054610100900460ff1615808015620007545750600054600160ff909116105b80620007705750303b15801562000770575060005460ff166001145b620007d55760405162461bcd60e51b815260206004820152602e60248201527f496e697469616c697a61626c653a20636f6e747261637420697320616c72656160448201526d191e481a5b9a5d1a585b1a5e995960921b6064820152608401620004c4565b6000805460ff191660011790558015620007f9576000805461ff0019166101001790555b6200080362001829565b6200080d6200185d565b80156200056a576000805461ff0019169055604051600181527f7f26b83ff96e1f2b6a682f133852f6798a09c465da95921460cefb38474024989060200160405180910390a150565b60ce5460405160009182916001600160a01b039091169063562d190d60e01b90620008869087906020016200217c565b60405160208183030381529060405285604051602001620008a89190620021a7565b60408051601f1981840301815290829052620008c89291602401620023b7565b60408051601f198184030181529181526020820180516001600160e01b03166001600160e01b0319909416939093179092529051620009079062001b1c565b62000914929190620022b2565b604051809103906000f08015801562000931573d6000803e3d6000fd5b5060cf546040519193506001600160a01b03169063562d190d60e01b90620009609087908790602401620023b7565b60408051601f198184030181529181526020820180516001600160e01b03166001600160e01b03199094169390931790925290516200099f9062001b1c565b620009ac929190620022b2565b604051809103906000f080158015620009c9573d6000803e3d6000fd5b50604080516001600160a01b038086168252831660208201529192507ffb5849d45e916a3192059973d782e08b2b3888fa796f536d99af0c7bd01ca16c910160405180910390a19250929050565b60608060005b845181101562000aa65781600085600088858151811062000a425762000a4262002584565b60200260200101515189868151811062000a605762000a6062002584565b602002602001015160405160200162000a7f969594939291906200210e565b6040516020818303038152906040529150808062000a9d9062002550565b91505062000a1d565b508060405160240162000aba9190620023a2565b60408051601f198184030181529190526020810180516001600160e01b03166346c07f8560e11b179052949350505050565b62000af66200177b565b6001600160a01b03821662000b3f5760405162461bcd60e51b815260206004820152600e60248201526d10b637b7ba29b4b733b632ba37b760911b6044820152606401620004c4565b6001600160a01b03811662000b8a5760405162461bcd60e51b815260206004820152601060248201526f10b9b430b932b9a9b4b733b632ba37b760811b6044820152606401620004c4565b6001600160a01b03871662000bd55760405162461bcd60e51b815260206004820152601060248201526f10b3b737b9b4b9a9b4b733b632ba37b760811b6044820152606401620004c4565b6001600160a01b03861662000c265760405162461bcd60e51b815260206004820152601660248201527521676e6f73697346616c6c6261636b4c69627261727960501b6044820152606401620004c4565b6001600160a01b03851662000c7e5760405162461bcd60e51b815260206004820152601760248201527f21676e6f7369734d756c746973656e644c6962726172790000000000000000006044820152606401620004c4565b6001600160a01b03841662000cd65760405162461bcd60e51b815260206004820152601760248201527f21676e6f7369735361666550726f7879466163746f72790000000000000000006044820152606401620004c4565b6001600160a01b03831662000d245760405162461bcd60e51b8152602060048201526013602482015272216d6f64756c6550726f7879466163746f727960681b6044820152606401620004c4565b60ca80546001600160a01b03199081166001600160a01b038b81169190911790925560cb805482168a841617905560cc8054821689841617905560cd8054821688841617905560d08054821687841617905560d18054821686841617905560ce8054821685841617905560cf805490911691831691909117905560c980547fe6fb5c8c5a2615df9d8de2df2fdebdae949bcf3a2a80cb8ff90ace3459de85cc91600062000dd18362002550565b9091555060405190815260200160405180910390a15050505050505050565b62000dfa6200177b565b6001600160a01b03811662000e615760405162461bcd60e51b815260206004820152602660248201527f4f776e61626c653a206e6577206f776e657220697320746865207a65726f206160448201526564647265737360d01b6064820152608401620004c4565b6200056a81620017d7565b60d05460cb5460408051602081018252600080825291516361b69abd60e01b8152919384936001600160a01b03918216936361b69abd9362000eb6939092169190600401620022b2565b602060405180830381600087803b15801562000ed157600080fd5b505af115801562000ee6573d6000803e3d6000fd5b505050506040513d601f19601f8201168201806040525081019062000f0c919062001cec565b6040516001600160a01b038516602482015290915060009060440160408051601f19818403018152918152602080830180516001600160e01b031663610b592560e01b1790528251915192935060009262000f719284928792849291889101620021d2565b604051602081830303815290604052905060008160405160240162000f979190620023a2565b60408051601f19818403018152918152602080830180516001600160e01b03166346c07f8560e11b1790528151600180825281840190935292935060009291908281019080368337019050509050868160008151811062000ffc5762000ffc62002584565b6001600160a01b03928316602091820292909201015260cd5460cc5460405163b63e800d60e01b81528884169363b63e800d9362001051938793600193928316928a92169060009081908190600401620022e0565b600060405180830381600087803b1580156200106c57600080fd5b505af115801562001081573d6000803e3d6000fd5b5050604080516001600160a01b03808a1682528b1660208201527f7ad675e6593a2c3bdf52607876353caf39853572dd787d2a5eed1cc99097b3f0935001905060405180910390a1509295945050505050565b600080808080808080620010eb8c8e018e62002004565b955095509550955095509550600060d160009054906101000a90046001600160a01b03166001600160a01b031663f1ab873c60ca60009054906101000a90046001600160a01b0316604051602401604051602081830303815290604052632d77bef360e11b6001600160e01b0319166020820180516001600160e01b0383818316178352505050508d6040518463ffffffff1660e01b815260040162001194939291906200222a565b602060405180830381600087803b158015620011af57600080fd5b505af1158015620011c4573d6000803e3d6000fd5b505050506040513d601f19601f82011682018060405250810190620011ea919062001cec565b90506001600160a01b03831615806200120a57506001600160a01b038216155b156200138e576200121c878762000856565b8093508194505050826001600160a01b0316638456cb596040518163ffffffff1660e01b8152600401600060405180830381600087803b1580156200126057600080fd5b505af115801562001275573d6000803e3d6000fd5b50505050816001600160a01b0316638456cb596040518163ffffffff1660e01b8152600401600060405180830381600087803b158015620012b557600080fd5b505af1158015620012ca573d6000803e3d6000fd5b505060405163f2fde38b60e01b81526001600160a01b0384811660048301528616925063f2fde38b9150602401600060405180830381600087803b1580156200131257600080fd5b505af115801562001327573d6000803e3d6000fd5b505060405163f2fde38b60e01b81526001600160a01b0384811660048301528516925063f2fde38b9150602401600060405180830381600087803b1580156200136f57600080fd5b505af115801562001384573d6000803e3d6000fd5b505050506200139e565b6200139b600189620024f7565b97505b6001600160a01b038516620013c057620013b88162000e6c565b9450620013d0565b620013cd600289620024f7565b97505b6000620013e9620013e28d8f62002512565b8362000a17565b60cd546040519192506000916200141791879187916001600160a01b0316908b908b90889060200162002260565b60408051601f198184030181529082905263a4f9edbf60e01b825291506001600160a01b0384169063a4f9edbf9062001455908490600401620023a2565b600060405180830381600087803b1580156200147057600080fd5b505af115801562001485573d6000803e3d6000fd5b50505050826001600160a01b0316638009ba1f6040518163ffffffff1660e01b815260040160206040518083038186803b158015620014c357600080fd5b505afa158015620014d8573d6000803e3d6000fd5b505050506040513d601f19601f82011682018060405250810190620014fe919062001cec565b6001600160a01b0316836001600160a01b031663f460124d6040518163ffffffff1660e01b815260040160206040518083038186803b1580156200154157600080fd5b505afa15801562001556573d6000803e3d6000fd5b505050506040513d601f19601f820116820180604052508101906200157c919062001cec565b604080516001600160a01b038b811682528a811660208301529181018e905291811691908616907fcf2f09cd0dbc149b12a3630a11b7d73476660f3d08d3dc7dcc79c6dec555ee7a9060600160405180910390a450909e9d5050505050505050505050505050565b6200056a6200177b565b7f4910fdfa16fed3260ed0e7147f7cc6da11a60208b5b9406d12a635614ffd91435460ff16156200162957620016248362001887565b505050565b826001600160a01b03166352d1902d6040518163ffffffff1660e01b815260040160206040518083038186803b1580156200166357600080fd5b505afa92505050801562001696575060408051601f3d908101601f19168201909252620016939181019062001e89565b60015b620016fb5760405162461bcd60e51b815260206004820152602e60248201527f45524331393637557067726164653a206e657720696d706c656d656e7461746960448201526d6f6e206973206e6f74205555505360901b6064820152608401620004c4565b60008051602062002cfc83398151915281146200176d5760405162461bcd60e51b815260206004820152602960248201527f45524331393637557067726164653a20756e737570706f727465642070726f786044820152681a58589b195555525160ba1b6064820152608401620004c4565b506200162483838362001926565b6033546001600160a01b03163314620007315760405162461bcd60e51b815260206004820181905260248201527f4f776e61626c653a2063616c6c6572206973206e6f7420746865206f776e65726044820152606401620004c4565b603380546001600160a01b038381166001600160a01b0319831681179093556040519116919082907f8be0079c531659141344cd1fd0a4f28419497f9722a3daafe3b4186f6b6457e090600090a35050565b600054610100900460ff16620018535760405162461bcd60e51b8152600401620004c49062002478565b6200073162001957565b600054610100900460ff16620007315760405162461bcd60e51b8152600401620004c49062002478565b6001600160a01b0381163b620018f65760405162461bcd60e51b815260206004820152602d60248201527f455243313936373a206e657720696d706c656d656e746174696f6e206973206e60448201526c1bdd08184818dbdb9d1c9858dd609a1b6064820152608401620004c4565b60008051602062002cfc83398151915280546001600160a01b0319166001600160a01b0392909216919091179055565b62001931836200198c565b6000825111806200193f5750805b156200162457620019518383620019ce565b50505050565b600054610100900460ff16620019815760405162461bcd60e51b8152600401620004c49062002478565b6200073133620017d7565b620019978162001887565b6040516001600160a01b038216907fbc7cd75a20ee27fd9adebab32041f755214dbc6bffa90cc0225b39da2e5c2d3b90600090a250565b60606001600160a01b0383163b62001a385760405162461bcd60e51b815260206004820152602660248201527f416464726573733a2064656c65676174652063616c6c20746f206e6f6e2d636f6044820152651b9d1c9858dd60d21b6064820152608401620004c4565b600080846001600160a01b03168460405162001a559190620020f0565b600060405180830381855af49150503d806000811462001a92576040519150601f19603f3d011682016040523d82523d6000602084013e62001a97565b606091505b509150915062001ac2828260405180606001604052806027815260200162002d1c6027913962001acb565b95945050505050565b6060831562001adc57508162001ae8565b62001ae8838362001aef565b9392505050565b81511562001b005781518083602001fd5b8060405162461bcd60e51b8152600401620004c49190620023a2565b61073580620025c783390190565b600067ffffffffffffffff8084111562001b485762001b486200259a565b8360051b602062001b5b818301620024c3565b86815293508084018583810189101562001b7457600080fd5b60009350835b8881101562001bb45781358681111562001b92578586fd5b62001ba08b828b0162001c55565b845250918301919083019060010162001b7a565b5050505050509392505050565b60008083601f84011262001bd457600080fd5b50813567ffffffffffffffff81111562001bed57600080fd5b6020830191508360208260051b850101111562001c0957600080fd5b9250929050565b60008083601f84011262001c2357600080fd5b50813567ffffffffffffffff81111562001c3c57600080fd5b60208301915083602082850101111562001c0957600080fd5b600082601f83011262001c6757600080fd5b813567ffffffffffffffff81111562001c845762001c846200259a565b62001c99601f8201601f1916602001620024c3565b81815284602083860101111562001caf57600080fd5b816020850160208301376000918101602001919091529392505050565b60006020828403121562001cdf57600080fd5b813562001ae881620025b0565b60006020828403121562001cff57600080fd5b815162001ae881620025b0565b600080600080600080600080610100898b03121562001d2a57600080fd5b883562001d3781620025b0565b9750602089013562001d4981620025b0565b9650604089013562001d5b81620025b0565b9550606089013562001d6d81620025b0565b9450608089013562001d7f81620025b0565b935060a089013562001d9181620025b0565b925060c089013562001da381620025b0565b915060e089013562001db581620025b0565b809150509295985092959890939650565b6000806040838503121562001dda57600080fd5b823562001de781620025b0565b9150602083013567ffffffffffffffff81111562001e0457600080fd5b62001e128582860162001c55565b9150509250929050565b6000806040838503121562001e3057600080fd5b823567ffffffffffffffff81111562001e4857600080fd5b8301601f8101851362001e5a57600080fd5b62001e6b8582356020840162001b2a565b925050602083013562001e7e81620025b0565b809150509250929050565b60006020828403121562001e9c57600080fd5b5051919050565b60008060008060006060868803121562001ebc57600080fd5b853567ffffffffffffffff8082111562001ed557600080fd5b62001ee389838a0162001c10565b9097509550602088013591508082111562001efd57600080fd5b5062001f0c8882890162001bc1565b96999598509660400135949350505050565b6000806000806000806080878903121562001f3857600080fd5b863567ffffffffffffffff8082111562001f5157600080fd5b62001f5f8a838b0162001c10565b9098509650602089013591508082111562001f7957600080fd5b5062001f8889828a0162001bc1565b979a9699509760408101359660609091013595509350505050565b6000806040838503121562001fb757600080fd5b823567ffffffffffffffff8082111562001fd057600080fd5b62001fde8683870162001c55565b9350602085013591508082111562001ff557600080fd5b5062001e128582860162001c55565b60008060008060008060c087890312156200201e57600080fd5b863567ffffffffffffffff808211156200203757600080fd5b620020458a838b0162001c55565b975060208901359150808211156200205c57600080fd5b506200206b89828a0162001c55565b95505060408701356200207e81620025b0565b935060608701356200209081620025b0565b92506080870135620020a281620025b0565b915060a0870135620020b481620025b0565b809150509295509295509295565b60008151808452620020dc81602086016020860162002521565b601f01601f19169290920160200192915050565b600082516200210481846020870162002521565b9190910192915050565b6000875162002122818460208c0162002521565b808301905060ff60f81b8860f81b1681526bffffffffffffffffffffffff198760601b16600182015285601582015284603582015283516200216c81605584016020880162002521565b0160550198975050505050505050565b600082516200219081846020870162002521565b64081313d3d560da1b920191825250600501919050565b60008251620021bb81846020870162002521565b640b5313d3d560da1b920191825250600501919050565b60ff60f81b8660f81b1681526bffffffffffffffffffffffff198560601b166001820152836015820152826035820152600082516200221981605585016020870162002521565b919091016055019695505050505050565b6001600160a01b03841681526060602082018190526000906200225090830185620020c2565b9050826040830152949350505050565b6001600160a01b0387811682528681166020830152858116604083015284811660608301528316608082015260c060a08201819052600090620022a690830184620020c2565b98975050505050505050565b6001600160a01b0383168152604060208201819052600090620022d890830184620020c2565b949350505050565b6101008082528951908201819052600090610120830190602090818d01845b82811015620023265781516001600160a01b031685529383019390830190600101620022ff565b50505083018a90526001600160a01b03891660408401528281036060840152620023518189620020c2565b9150506200236a60808301876001600160a01b03169052565b6001600160a01b03851660a08301528360c08301526200239560e08301846001600160a01b03169052565b9998505050505050505050565b60208152600062001ae86020830184620020c2565b604081526000620023cc6040830185620020c2565b828103602084015262001ac28185620020c2565b6020808252602c908201527f46756e6374696f6e206d7573742062652063616c6c6564207468726f7567682060408201526b19195b1959d85d1958d85b1b60a21b606082015260800190565b6020808252602c908201527f46756e6374696f6e206d7573742062652063616c6c6564207468726f7567682060408201526b6163746976652070726f787960a01b606082015260800190565b6020808252602b908201527f496e697469616c697a61626c653a20636f6e7472616374206973206e6f74206960408201526a6e697469616c697a696e6760a81b606082015260800190565b604051601f8201601f1916810167ffffffffffffffff81118282101715620024ef57620024ef6200259a565b604052919050565b600082198211156200250d576200250d6200256e565b500190565b600062001ae836848462001b2a565b60005b838110156200253e57818101518382015260200162002524565b83811115620019515750506000910152565b60006000198214156200256757620025676200256e565b5060010190565b634e487b7160e01b600052601160045260246000fd5b634e487b7160e01b600052603260045260246000fd5b634e487b7160e01b600052604160045260246000fd5b6001600160a01b03811681146200056a57600080fdfe6080604052604051610735380380610735833981016040819052610022916102dc565b61002e82826000610035565b505061043b565b61003e8361006b565b60008251118061004b5750805b156100665761006483836100ab60201b6100291760201c565b505b505050565b610074816100d7565b6040516001600160a01b038216907fbc7cd75a20ee27fd9adebab32041f755214dbc6bffa90cc0225b39da2e5c2d3b90600090a250565b60606100d0838360405180606001604052806027815260200161070e602791396101a9565b9392505050565b6100ea8161022260201b6100551760201c565b6101515760405162461bcd60e51b815260206004820152602d60248201527f455243313936373a206e657720696d706c656d656e746174696f6e206973206e60448201526c1bdd08184818dbdb9d1c9858dd609a1b60648201526084015b60405180910390fd5b806101887f360894a13ba1a3210667c828492db98dca3e2076cc3735a920a3ca505d382bbc60001b61023160201b6100641760201c565b80546001600160a01b0319166001600160a01b039290921691909117905550565b6060600080856001600160a01b0316856040516101c691906103aa565b600060405180830381855af49150503d8060008114610201576040519150601f19603f3d011682016040523d82523d6000602084013e610206565b606091505b50909250905061021886838387610234565b9695505050505050565b6001600160a01b03163b151590565b90565b606083156102a0578251610299576001600160a01b0385163b6102995760405162461bcd60e51b815260206004820152601d60248201527f416464726573733a2063616c6c20746f206e6f6e2d636f6e74726163740000006044820152606401610148565b50816102aa565b6102aa83836102b2565b949350505050565b8151156102c25781518083602001fd5b8060405162461bcd60e51b815260040161014891906103c6565b600080604083850312156102ef57600080fd5b82516001600160a01b038116811461030657600080fd5b60208401519092506001600160401b038082111561032357600080fd5b818501915085601f83011261033757600080fd5b81518181111561034957610349610425565b604051601f8201601f19908116603f0116810190838211818310171561037157610371610425565b8160405282815288602084870101111561038a57600080fd5b61039b8360208301602088016103f9565b80955050505050509250929050565b600082516103bc8184602087016103f9565b9190910192915050565b60208152600082518060208401526103e58160408501602087016103f9565b601f01601f19169190910160400192915050565b60005b838110156104145781810151838201526020016103fc565b838111156100645750506000910152565b634e487b7160e01b600052604160045260246000fd5b6102c48061044a6000396000f3fe60806040523661001357610011610017565b005b6100115b610027610022610067565b61009f565b565b606061004e8383604051806060016040528060278152602001610268602791396100c3565b9392505050565b6001600160a01b03163b151590565b90565b600061009a7f360894a13ba1a3210667c828492db98dca3e2076cc3735a920a3ca505d382bbc546001600160a01b031690565b905090565b3660008037600080366000845af43d6000803e8080156100be573d6000f35b3d6000fd5b6060600080856001600160a01b0316856040516100e091906101e8565b600060405180830381855af49150503d806000811461011b576040519150601f19603f3d011682016040523d82523d6000602084013e610120565b606091505b50915091506101318683838761013b565b9695505050505050565b606083156101ac5782516101a5576001600160a01b0385163b6101a55760405162461bcd60e51b815260206004820152601d60248201527f416464726573733a2063616c6c20746f206e6f6e2d636f6e747261637400000060448201526064015b60405180910390fd5b50816101b6565b6101b683836101be565b949350505050565b8151156101ce5781518083602001fd5b8060405162461bcd60e51b815260040161019c9190610204565b600082516101fa818460208701610237565b9190910192915050565b6020815260008251806020840152610223816040850160208701610237565b601f01601f19169190910160400192915050565b60005b8381101561025257818101518382015260200161023a565b83811115610261576000848401525b5050505056fe416464726573733a206c6f772d6c6576656c2064656c65676174652063616c6c206661696c6564a26469706673582212206c0dbbf9b7cea0b39475b09af2676b6d09e25394c7e441ee3ecd8d988bc0d67964736f6c63430008070033416464726573733a206c6f772d6c6576656c2064656c65676174652063616c6c206661696c6564360894a13ba1a3210667c828492db98dca3e2076cc3735a920a3ca505d382bbc416464726573733a206c6f772d6c6576656c2064656c65676174652063616c6c206661696c6564a2646970667358221220eca5596dad40532f97072a78175faf1f5910d4ad8e467469e2a490b50bd1f3b364736f6c63430008070033",
              "history": [],
              "storageLayout": {
                "storage": [
                  {
                    "astId": 4465,
                    "contract": "contracts/BaalSummoner.sol:BaalSummoner",
                    "label": "_initialized",
                    "offset": 0,
                    "slot": "0",
                    "type": "t_uint8"
                  },
                  {
                    "astId": 4468,
                    "contract": "contracts/BaalSummoner.sol:BaalSummoner",
                    "label": "_initializing",
                    "offset": 1,
                    "slot": "0",
                    "type": "t_bool"
                  },
                  {
                    "astId": 6734,
                    "contract": "contracts/BaalSummoner.sol:BaalSummoner",
                    "label": "__gap",
                    "offset": 0,
                    "slot": "1",
                    "type": "t_array(t_uint256)50_storage"
                  },
                  {
                    "astId": 3948,
                    "contract": "contracts/BaalSummoner.sol:BaalSummoner",
                    "label": "_owner",
                    "offset": 0,
                    "slot": "51",
                    "type": "t_address"
                  },
                  {
                    "astId": 4068,
                    "contract": "contracts/BaalSummoner.sol:BaalSummoner",
                    "label": "__gap",
                    "offset": 0,
                    "slot": "52",
                    "type": "t_array(t_uint256)49_storage"
                  },
                  {
                    "astId": 4447,
                    "contract": "contracts/BaalSummoner.sol:BaalSummoner",
                    "label": "__gap",
                    "offset": 0,
                    "slot": "101",
                    "type": "t_array(t_uint256)50_storage"
                  },
                  {
                    "astId": 4762,
                    "contract": "contracts/BaalSummoner.sol:BaalSummoner",
                    "label": "__gap",
                    "offset": 0,
                    "slot": "151",
                    "type": "t_array(t_uint256)50_storage"
                  },
                  {
                    "astId": 12935,
                    "contract": "contracts/BaalSummoner.sol:BaalSummoner",
                    "label": "addrsVersion",
                    "offset": 0,
                    "slot": "201",
                    "type": "t_uint256"
                  },
                  {
                    "astId": 12937,
                    "contract": "contracts/BaalSummoner.sol:BaalSummoner",
                    "label": "template",
                    "offset": 0,
                    "slot": "202",
                    "type": "t_address_payable"
                  },
                  {
                    "astId": 12939,
                    "contract": "contracts/BaalSummoner.sol:BaalSummoner",
                    "label": "gnosisSingleton",
                    "offset": 0,
                    "slot": "203",
                    "type": "t_address"
                  },
                  {
                    "astId": 12941,
                    "contract": "contracts/BaalSummoner.sol:BaalSummoner",
                    "label": "gnosisFallbackLibrary",
                    "offset": 0,
                    "slot": "204",
                    "type": "t_address"
                  },
                  {
                    "astId": 12943,
                    "contract": "contracts/BaalSummoner.sol:BaalSummoner",
                    "label": "gnosisMultisendLibrary",
                    "offset": 0,
                    "slot": "205",
                    "type": "t_address"
                  },
                  {
                    "astId": 12945,
                    "contract": "contracts/BaalSummoner.sol:BaalSummoner",
                    "label": "lootSingleton",
                    "offset": 0,
                    "slot": "206",
                    "type": "t_address"
                  },
                  {
                    "astId": 12947,
                    "contract": "contracts/BaalSummoner.sol:BaalSummoner",
                    "label": "sharesSingleton",
                    "offset": 0,
                    "slot": "207",
                    "type": "t_address"
                  },
                  {
                    "astId": 12950,
                    "contract": "contracts/BaalSummoner.sol:BaalSummoner",
                    "label": "gnosisSafeProxyFactory",
                    "offset": 0,
                    "slot": "208",
                    "type": "t_contract(GnosisSafeProxyFactory)3163"
                  },
                  {
                    "astId": 12953,
                    "contract": "contracts/BaalSummoner.sol:BaalSummoner",
                    "label": "moduleProxyFactory",
                    "offset": 0,
                    "slot": "209",
                    "type": "t_contract(ModuleProxyFactory)3550"
                  }
                ],
                "types": {
                  "t_address": {
                    "encoding": "inplace",
                    "label": "address",
                    "numberOfBytes": "20"
                  },
                  "t_address_payable": {
                    "encoding": "inplace",
                    "label": "address payable",
                    "numberOfBytes": "20"
                  },
                  "t_array(t_uint256)49_storage": {
                    "base": "t_uint256",
                    "encoding": "inplace",
                    "label": "uint256[49]",
                    "numberOfBytes": "1568"
                  },
                  "t_array(t_uint256)50_storage": {
                    "base": "t_uint256",
                    "encoding": "inplace",
                    "label": "uint256[50]",
                    "numberOfBytes": "1600"
                  },
                  "t_bool": {
                    "encoding": "inplace",
                    "label": "bool",
                    "numberOfBytes": "1"
                  },
                  "t_contract(GnosisSafeProxyFactory)3163": {
                    "encoding": "inplace",
                    "label": "contract GnosisSafeProxyFactory",
                    "numberOfBytes": "20"
                  },
                  "t_contract(ModuleProxyFactory)3550": {
                    "encoding": "inplace",
                    "label": "contract ModuleProxyFactory",
                    "numberOfBytes": "20"
                  },
                  "t_uint256": {
                    "encoding": "inplace",
                    "label": "uint256",
                    "numberOfBytes": "32"
                  },
                  "t_uint8": {
                    "encoding": "inplace",
                    "label": "uint8",
                    "numberOfBytes": "1"
                  }
                }
              }
            }
          ],
          "storageLayout": {
            "storage": [
              {
                "astId": 4465,
                "contract": "contracts/BaalSummoner.sol:BaalSummoner",
                "label": "_initialized",
                "offset": 0,
                "slot": "0",
                "type": "t_uint8"
              },
              {
                "astId": 4468,
                "contract": "contracts/BaalSummoner.sol:BaalSummoner",
                "label": "_initializing",
                "offset": 1,
                "slot": "0",
                "type": "t_bool"
              },
              {
                "astId": 6734,
                "contract": "contracts/BaalSummoner.sol:BaalSummoner",
                "label": "__gap",
                "offset": 0,
                "slot": "1",
                "type": "t_array(t_uint256)50_storage"
              },
              {
                "astId": 3948,
                "contract": "contracts/BaalSummoner.sol:BaalSummoner",
                "label": "_owner",
                "offset": 0,
                "slot": "51",
                "type": "t_address"
              },
              {
                "astId": 4068,
                "contract": "contracts/BaalSummoner.sol:BaalSummoner",
                "label": "__gap",
                "offset": 0,
                "slot": "52",
                "type": "t_array(t_uint256)49_storage"
              },
              {
                "astId": 4447,
                "contract": "contracts/BaalSummoner.sol:BaalSummoner",
                "label": "__gap",
                "offset": 0,
                "slot": "101",
                "type": "t_array(t_uint256)50_storage"
              },
              {
                "astId": 4762,
                "contract": "contracts/BaalSummoner.sol:BaalSummoner",
                "label": "__gap",
                "offset": 0,
                "slot": "151",
                "type": "t_array(t_uint256)50_storage"
              },
              {
                "astId": 12935,
                "contract": "contracts/BaalSummoner.sol:BaalSummoner",
                "label": "addrsVersion",
                "offset": 0,
                "slot": "201",
                "type": "t_uint256"
              },
              {
                "astId": 12937,
                "contract": "contracts/BaalSummoner.sol:BaalSummoner",
                "label": "template",
                "offset": 0,
                "slot": "202",
                "type": "t_address_payable"
              },
              {
                "astId": 12939,
                "contract": "contracts/BaalSummoner.sol:BaalSummoner",
                "label": "gnosisSingleton",
                "offset": 0,
                "slot": "203",
                "type": "t_address"
              },
              {
                "astId": 12941,
                "contract": "contracts/BaalSummoner.sol:BaalSummoner",
                "label": "gnosisFallbackLibrary",
                "offset": 0,
                "slot": "204",
                "type": "t_address"
              },
              {
                "astId": 12943,
                "contract": "contracts/BaalSummoner.sol:BaalSummoner",
                "label": "gnosisMultisendLibrary",
                "offset": 0,
                "slot": "205",
                "type": "t_address"
              },
              {
                "astId": 12945,
                "contract": "contracts/BaalSummoner.sol:BaalSummoner",
                "label": "lootSingleton",
                "offset": 0,
                "slot": "206",
                "type": "t_address"
              },
              {
                "astId": 12947,
                "contract": "contracts/BaalSummoner.sol:BaalSummoner",
                "label": "sharesSingleton",
                "offset": 0,
                "slot": "207",
                "type": "t_address"
              },
              {
                "astId": 12950,
                "contract": "contracts/BaalSummoner.sol:BaalSummoner",
                "label": "gnosisSafeProxyFactory",
                "offset": 0,
                "slot": "208",
                "type": "t_contract(GnosisSafeProxyFactory)3163"
              },
              {
                "astId": 12953,
                "contract": "contracts/BaalSummoner.sol:BaalSummoner",
                "label": "moduleProxyFactory",
                "offset": 0,
                "slot": "209",
                "type": "t_contract(ModuleProxyFactory)3550"
              }
            ],
            "types": {
              "t_address": {
                "encoding": "inplace",
                "label": "address",
                "numberOfBytes": "20"
              },
              "t_address_payable": {
                "encoding": "inplace",
                "label": "address payable",
                "numberOfBytes": "20"
              },
              "t_array(t_uint256)49_storage": {
                "base": "t_uint256",
                "encoding": "inplace",
                "label": "uint256[49]",
                "numberOfBytes": "1568"
              },
              "t_array(t_uint256)50_storage": {
                "base": "t_uint256",
                "encoding": "inplace",
                "label": "uint256[50]",
                "numberOfBytes": "1600"
              },
              "t_bool": {
                "encoding": "inplace",
                "label": "bool",
                "numberOfBytes": "1"
              },
              "t_contract(GnosisSafeProxyFactory)3163": {
                "encoding": "inplace",
                "label": "contract GnosisSafeProxyFactory",
                "numberOfBytes": "20"
              },
              "t_contract(ModuleProxyFactory)3550": {
                "encoding": "inplace",
                "label": "contract ModuleProxyFactory",
                "numberOfBytes": "20"
              },
              "t_uint256": {
                "encoding": "inplace",
                "label": "uint256",
                "numberOfBytes": "32"
              },
              "t_uint8": {
                "encoding": "inplace",
                "label": "uint8",
                "numberOfBytes": "1"
              }
            }
          }
        }
      ],
      "storageLayout": {
        "storage": [
          {
            "astId": 4465,
            "contract": "contracts/BaalSummoner.sol:BaalSummoner",
            "label": "_initialized",
            "offset": 0,
            "slot": "0",
            "type": "t_uint8"
          },
          {
            "astId": 4468,
            "contract": "contracts/BaalSummoner.sol:BaalSummoner",
            "label": "_initializing",
            "offset": 1,
            "slot": "0",
            "type": "t_bool"
          },
          {
            "astId": 6734,
            "contract": "contracts/BaalSummoner.sol:BaalSummoner",
            "label": "__gap",
            "offset": 0,
            "slot": "1",
            "type": "t_array(t_uint256)50_storage"
          },
          {
            "astId": 3948,
            "contract": "contracts/BaalSummoner.sol:BaalSummoner",
            "label": "_owner",
            "offset": 0,
            "slot": "51",
            "type": "t_address"
          },
          {
            "astId": 4068,
            "contract": "contracts/BaalSummoner.sol:BaalSummoner",
            "label": "__gap",
            "offset": 0,
            "slot": "52",
            "type": "t_array(t_uint256)49_storage"
          },
          {
            "astId": 4447,
            "contract": "contracts/BaalSummoner.sol:BaalSummoner",
            "label": "__gap",
            "offset": 0,
            "slot": "101",
            "type": "t_array(t_uint256)50_storage"
          },
          {
            "astId": 4762,
            "contract": "contracts/BaalSummoner.sol:BaalSummoner",
            "label": "__gap",
            "offset": 0,
            "slot": "151",
            "type": "t_array(t_uint256)50_storage"
          },
          {
            "astId": 12935,
            "contract": "contracts/BaalSummoner.sol:BaalSummoner",
            "label": "addrsVersion",
            "offset": 0,
            "slot": "201",
            "type": "t_uint256"
          },
          {
            "astId": 12937,
            "contract": "contracts/BaalSummoner.sol:BaalSummoner",
            "label": "template",
            "offset": 0,
            "slot": "202",
            "type": "t_address_payable"
          },
          {
            "astId": 12939,
            "contract": "contracts/BaalSummoner.sol:BaalSummoner",
            "label": "gnosisSingleton",
            "offset": 0,
            "slot": "203",
            "type": "t_address"
          },
          {
            "astId": 12941,
            "contract": "contracts/BaalSummoner.sol:BaalSummoner",
            "label": "gnosisFallbackLibrary",
            "offset": 0,
            "slot": "204",
            "type": "t_address"
          },
          {
            "astId": 12943,
            "contract": "contracts/BaalSummoner.sol:BaalSummoner",
            "label": "gnosisMultisendLibrary",
            "offset": 0,
            "slot": "205",
            "type": "t_address"
          },
          {
            "astId": 12945,
            "contract": "contracts/BaalSummoner.sol:BaalSummoner",
            "label": "lootSingleton",
            "offset": 0,
            "slot": "206",
            "type": "t_address"
          },
          {
            "astId": 12947,
            "contract": "contracts/BaalSummoner.sol:BaalSummoner",
            "label": "sharesSingleton",
            "offset": 0,
            "slot": "207",
            "type": "t_address"
          },
          {
            "astId": 12950,
            "contract": "contracts/BaalSummoner.sol:BaalSummoner",
            "label": "gnosisSafeProxyFactory",
            "offset": 0,
            "slot": "208",
            "type": "t_contract(GnosisSafeProxyFactory)3163"
          },
          {
            "astId": 12953,
            "contract": "contracts/BaalSummoner.sol:BaalSummoner",
            "label": "moduleProxyFactory",
            "offset": 0,
            "slot": "209",
            "type": "t_contract(ModuleProxyFactory)3550"
          }
        ],
        "types": {
          "t_address": {
            "encoding": "inplace",
            "label": "address",
            "numberOfBytes": "20"
          },
          "t_address_payable": {
            "encoding": "inplace",
            "label": "address payable",
            "numberOfBytes": "20"
          },
          "t_array(t_uint256)49_storage": {
            "base": "t_uint256",
            "encoding": "inplace",
            "label": "uint256[49]",
            "numberOfBytes": "1568"
          },
          "t_array(t_uint256)50_storage": {
            "base": "t_uint256",
            "encoding": "inplace",
            "label": "uint256[50]",
            "numberOfBytes": "1600"
          },
          "t_bool": {
            "encoding": "inplace",
            "label": "bool",
            "numberOfBytes": "1"
          },
          "t_contract(GnosisSafeProxyFactory)3163": {
            "encoding": "inplace",
            "label": "contract GnosisSafeProxyFactory",
            "numberOfBytes": "20"
          },
          "t_contract(ModuleProxyFactory)3550": {
            "encoding": "inplace",
            "label": "contract ModuleProxyFactory",
            "numberOfBytes": "20"
          },
          "t_uint256": {
            "encoding": "inplace",
            "label": "uint256",
            "numberOfBytes": "32"
          },
          "t_uint8": {
            "encoding": "inplace",
            "label": "uint8",
            "numberOfBytes": "1"
          }
        }
      }
    }
  ],
  "storageLayout": {
    "storage": [
      {
        "astId": 4465,
        "contract": "contracts/BaalSummoner.sol:BaalSummoner",
        "label": "_initialized",
        "offset": 0,
        "slot": "0",
        "type": "t_uint8"
      },
      {
        "astId": 4468,
        "contract": "contracts/BaalSummoner.sol:BaalSummoner",
        "label": "_initializing",
        "offset": 1,
        "slot": "0",
        "type": "t_bool"
      },
      {
        "astId": 6734,
        "contract": "contracts/BaalSummoner.sol:BaalSummoner",
        "label": "__gap",
        "offset": 0,
        "slot": "1",
        "type": "t_array(t_uint256)50_storage"
      },
      {
        "astId": 3948,
        "contract": "contracts/BaalSummoner.sol:BaalSummoner",
        "label": "_owner",
        "offset": 0,
        "slot": "51",
        "type": "t_address"
      },
      {
        "astId": 4068,
        "contract": "contracts/BaalSummoner.sol:BaalSummoner",
        "label": "__gap",
        "offset": 0,
        "slot": "52",
        "type": "t_array(t_uint256)49_storage"
      },
      {
        "astId": 4447,
        "contract": "contracts/BaalSummoner.sol:BaalSummoner",
        "label": "__gap",
        "offset": 0,
        "slot": "101",
        "type": "t_array(t_uint256)50_storage"
      },
      {
        "astId": 4762,
        "contract": "contracts/BaalSummoner.sol:BaalSummoner",
        "label": "__gap",
        "offset": 0,
        "slot": "151",
        "type": "t_array(t_uint256)50_storage"
      },
      {
        "astId": 12935,
        "contract": "contracts/BaalSummoner.sol:BaalSummoner",
        "label": "addrsVersion",
        "offset": 0,
        "slot": "201",
        "type": "t_uint256"
      },
      {
        "astId": 12937,
        "contract": "contracts/BaalSummoner.sol:BaalSummoner",
        "label": "template",
        "offset": 0,
        "slot": "202",
        "type": "t_address_payable"
      },
      {
        "astId": 12939,
        "contract": "contracts/BaalSummoner.sol:BaalSummoner",
        "label": "gnosisSingleton",
        "offset": 0,
        "slot": "203",
        "type": "t_address"
      },
      {
        "astId": 12941,
        "contract": "contracts/BaalSummoner.sol:BaalSummoner",
        "label": "gnosisFallbackLibrary",
        "offset": 0,
        "slot": "204",
        "type": "t_address"
      },
      {
        "astId": 12943,
        "contract": "contracts/BaalSummoner.sol:BaalSummoner",
        "label": "gnosisMultisendLibrary",
        "offset": 0,
        "slot": "205",
        "type": "t_address"
      },
      {
        "astId": 12945,
        "contract": "contracts/BaalSummoner.sol:BaalSummoner",
        "label": "lootSingleton",
        "offset": 0,
        "slot": "206",
        "type": "t_address"
      },
      {
        "astId": 12947,
        "contract": "contracts/BaalSummoner.sol:BaalSummoner",
        "label": "sharesSingleton",
        "offset": 0,
        "slot": "207",
        "type": "t_address"
      },
      {
        "astId": 12950,
        "contract": "contracts/BaalSummoner.sol:BaalSummoner",
        "label": "gnosisSafeProxyFactory",
        "offset": 0,
        "slot": "208",
        "type": "t_contract(GnosisSafeProxyFactory)3163"
      },
      {
        "astId": 12953,
        "contract": "contracts/BaalSummoner.sol:BaalSummoner",
        "label": "moduleProxyFactory",
        "offset": 0,
        "slot": "209",
        "type": "t_contract(ModuleProxyFactory)3550"
      }
    ],
    "types": {
      "t_address": {
        "encoding": "inplace",
        "label": "address",
        "numberOfBytes": "20"
      },
      "t_address_payable": {
        "encoding": "inplace",
        "label": "address payable",
        "numberOfBytes": "20"
      },
      "t_array(t_uint256)49_storage": {
        "base": "t_uint256",
        "encoding": "inplace",
        "label": "uint256[49]",
        "numberOfBytes": "1568"
      },
      "t_array(t_uint256)50_storage": {
        "base": "t_uint256",
        "encoding": "inplace",
        "label": "uint256[50]",
        "numberOfBytes": "1600"
      },
      "t_bool": {
        "encoding": "inplace",
        "label": "bool",
        "numberOfBytes": "1"
      },
      "t_contract(GnosisSafeProxyFactory)3163": {
        "encoding": "inplace",
        "label": "contract GnosisSafeProxyFactory",
        "numberOfBytes": "20"
      },
      "t_contract(ModuleProxyFactory)3550": {
        "encoding": "inplace",
        "label": "contract ModuleProxyFactory",
        "numberOfBytes": "20"
      },
      "t_uint256": {
        "encoding": "inplace",
        "label": "uint256",
        "numberOfBytes": "32"
      },
      "t_uint8": {
        "encoding": "inplace",
        "label": "uint8",
        "numberOfBytes": "1"
      }
    }
  }
}