{
  "address": "0xa129f31E847C5Fe4AEE486d2bA9f645bee50ACEB",
  "abi": [
    {
      "anonymous": false,
      "inputs": [
        {
          "indexed": false,
          "internalType": "uint8",
          "name": "version",
          "type": "uint8"
        }
      ],
      "name": "Initialized",
      "type": "event"
    },
    {
      "inputs": [
        {
          "components": [
            {
              "internalType": "address",
              "name": "from",
              "type": "address"
            },
            {
              "internalType": "address",
              "name": "to",
              "type": "address"
            },
            {
              "internalType": "uint256",
              "name": "value",
              "type": "uint256"
            },
            {
              "internalType": "uint256",
              "name": "gas",
              "type": "uint256"
            },
            {
              "internalType": "uint256",
              "name": "nonce",
              "type": "uint256"
            },
            {
              "internalType": "bytes",
              "name": "data",
              "type": "bytes"
            }
          ],
          "internalType": "struct MinimalForwarderUpgradeable.ForwardRequest",
          "name": "req",
          "type": "tuple"
        },
        {
          "internalType": "bytes",
          "name": "signature",
          "type": "bytes"
        }
      ],
      "name": "execute",
      "outputs": [
        {
          "internalType": "bool",
          "name": "",
          "type": "bool"
        },
        {
          "internalType": "bytes",
          "name": "",
          "type": "bytes"
        }
      ],
      "stateMutability": "payable",
      "type": "function"
    },
    {
      "inputs": [
        {
          "internalType": "address",
          "name": "from",
          "type": "address"
        }
      ],
      "name": "getNonce",
      "outputs": [
        {
          "internalType": "uint256",
          "name": "",
          "type": "uint256"
        }
      ],
      "stateMutability": "view",
      "type": "function"
    },
    {
      "inputs": [],
      "name": "initialize",
      "outputs": [],
      "stateMutability": "nonpayable",
      "type": "function"
    },
    {
      "inputs": [
        {
          "components": [
            {
              "internalType": "address",
              "name": "from",
              "type": "address"
            },
            {
              "internalType": "address",
              "name": "to",
              "type": "address"
            },
            {
              "internalType": "uint256",
              "name": "value",
              "type": "uint256"
            },
            {
              "internalType": "uint256",
              "name": "gas",
              "type": "uint256"
            },
            {
              "internalType": "uint256",
              "name": "nonce",
              "type": "uint256"
            },
            {
              "internalType": "bytes",
              "name": "data",
              "type": "bytes"
            }
          ],
          "internalType": "struct MinimalForwarderUpgradeable.ForwardRequest",
          "name": "req",
          "type": "tuple"
        },
        {
          "internalType": "bytes",
          "name": "signature",
          "type": "bytes"
        }
      ],
      "name": "verify",
      "outputs": [
        {
          "internalType": "bool",
          "name": "",
          "type": "bool"
        }
      ],
      "stateMutability": "view",
      "type": "function"
    }
  ],
  "numDeployments": 1,
  "solcInputHash": "9fa10bee83a2289760a249b240fcd95c",
  "bytecode": "0x608060405234801561001057600080fd5b5061170a806100206000396000f3fe60806040526004361061003f5760003560e01c80632d0335ab1461004457806347153f82146100815780638129fc1c146100b2578063bf5d3bdb146100c9575b600080fd5b34801561005057600080fd5b5061006b60048036038101906100669190610be5565b610106565b6040516100789190610c2b565b60405180910390f35b61009b60048036038101906100969190610ccf565b61014f565b6040516100a9929190610df6565b60405180910390f35b3480156100be57600080fd5b506100c76102fb565b005b3480156100d557600080fd5b506100f060048036038101906100eb9190610ccf565b610439565b6040516100fd9190610e26565b60405180910390f35b6000603560008373ffffffffffffffffffffffffffffffffffffffff1673ffffffffffffffffffffffffffffffffffffffff168152602001908152602001600020549050919050565b6000606061015e858585610439565b61019d576040517f08c379a000000000000000000000000000000000000000000000000000000000815260040161019490610ec4565b60405180910390fd5b600185608001356101ae9190610f13565b603560008760000160208101906101c59190610be5565b73ffffffffffffffffffffffffffffffffffffffff1673ffffffffffffffffffffffffffffffffffffffff168152602001908152602001600020819055506000808660200160208101906102199190610be5565b73ffffffffffffffffffffffffffffffffffffffff1687606001358860400135898060a001906102499190610f56565b8b600001602081019061025c9190610be5565b60405160200161026e93929190611040565b60405160208183030381529060405260405161028a919061109b565b600060405180830381858888f193505050503d80600081146102c8576040519150601f19603f3d011682016040523d82523d6000602084013e6102cd565b606091505b5091509150603f87606001356102e391906110e1565b5a116102eb57fe5b8181935093505050935093915050565b60008060019054906101000a900460ff1615905080801561032c5750600160008054906101000a900460ff1660ff16105b80610359575061033b306105ef565b1580156103585750600160008054906101000a900460ff1660ff16145b5b610398576040517f08c379a000000000000000000000000000000000000000000000000000000000815260040161038f90611184565b60405180910390fd5b60016000806101000a81548160ff021916908360ff16021790555080156103d5576001600060016101000a81548160ff0219169083151502179055505b6103dd610612565b80156104365760008060016101000a81548160ff0219169083151502179055507f7f26b83ff96e1f2b6a682f133852f6798a09c465da95921460cefb3847402498600160405161042d91906111f6565b60405180910390a15b50565b60008061054284848080601f016020809104026020016040519081016040528093929190818152602001838380828437600081840152601f19601f820116905080830192505050505050506105347fdd8f4b70b0f4393e889bd39128a30628a78b61816a9eb8199759e7a349657e488860000160208101906104bb9190610be5565b8960200160208101906104ce9190610be5565b8a604001358b606001358c608001358d8060a001906104ed9190610f56565b6040516104fb929190611211565b60405180910390206040516020016105199796959493929190611252565b604051602081830303815290604052805190602001206106d7565b6106f190919063ffffffff16565b90508460800135603560008760000160208101906105609190610be5565b73ffffffffffffffffffffffffffffffffffffffff1673ffffffffffffffffffffffffffffffffffffffff168152602001908152602001600020541480156105e557508460000160208101906105b69190610be5565b73ffffffffffffffffffffffffffffffffffffffff168173ffffffffffffffffffffffffffffffffffffffff16145b9150509392505050565b6000808273ffffffffffffffffffffffffffffffffffffffff163b119050919050565b600060019054906101000a900460ff16610661576040517f08c379a000000000000000000000000000000000000000000000000000000000815260040161065890611333565b60405180910390fd5b6106d56040518060400160405280601081526020017f4d696e696d616c466f72776172646572000000000000000000000000000000008152506040518060400160405280600581526020017f302e302e31000000000000000000000000000000000000000000000000000000815250610718565b565b60006106ea6106e4610793565b836107d3565b9050919050565b60008060006107008585610806565b9150915061070d81610857565b819250505092915050565b600060019054906101000a900460ff16610767576040517f08c379a000000000000000000000000000000000000000000000000000000000815260040161075e90611333565b60405180910390fd5b600082805190602001209050600082805190602001209050816001819055508060028190555050505050565b60006107ce7f8b73c3c69bb8fe3d512ecc4cf759cc79239f7b179b0ffacaa9a75d522b39400f6107c1610a23565b6107c9610a2d565b610a37565b905090565b600082826040516020016107e89291906113cb565b60405160208183030381529060405280519060200120905092915050565b60008060418351036108475760008060006020860151925060408601519150606086015160001a905061083b87828585610a71565b94509450505050610850565b60006002915091505b9250929050565b6000600481111561086b5761086a611402565b5b81600481111561087e5761087d611402565b5b0315610a20576001600481111561089857610897611402565b5b8160048111156108ab576108aa611402565b5b036108eb576040517f08c379a00000000000000000000000000000000000000000000000000000000081526004016108e29061147d565b60405180910390fd5b600260048111156108ff576108fe611402565b5b81600481111561091257610911611402565b5b03610952576040517f08c379a0000000000000000000000000000000000000000000000000000000008152600401610949906114e9565b60405180910390fd5b6003600481111561096657610965611402565b5b81600481111561097957610978611402565b5b036109b9576040517f08c379a00000000000000000000000000000000000000000000000000000000081526004016109b09061157b565b60405180910390fd5b6004808111156109cc576109cb611402565b5b8160048111156109df576109de611402565b5b03610a1f576040517f08c379a0000000000000000000000000000000000000000000000000000000008152600401610a169061160d565b60405180910390fd5b5b50565b6000600154905090565b6000600254905090565b60008383834630604051602001610a5295949392919061162d565b6040516020818303038152906040528051906020012090509392505050565b6000807f7fffffffffffffffffffffffffffffff5d576e7357a4501ddfe92f46681b20a08360001c1115610aac576000600391509150610b74565b601b8560ff1614158015610ac45750601c8560ff1614155b15610ad6576000600491509150610b74565b600060018787878760405160008152602001604052604051610afb949392919061168f565b6020604051602081039080840390855afa158015610b1d573d6000803e3d6000fd5b505050602060405103519050600073ffffffffffffffffffffffffffffffffffffffff168173ffffffffffffffffffffffffffffffffffffffff1603610b6b57600060019250925050610b74565b80600092509250505b94509492505050565b600080fd5b600080fd5b600073ffffffffffffffffffffffffffffffffffffffff82169050919050565b6000610bb282610b87565b9050919050565b610bc281610ba7565b8114610bcd57600080fd5b50565b600081359050610bdf81610bb9565b92915050565b600060208284031215610bfb57610bfa610b7d565b5b6000610c0984828501610bd0565b91505092915050565b6000819050919050565b610c2581610c12565b82525050565b6000602082019050610c406000830184610c1c565b92915050565b600080fd5b600060c08284031215610c6157610c60610c46565b5b81905092915050565b600080fd5b600080fd5b600080fd5b60008083601f840112610c8f57610c8e610c6a565b5b8235905067ffffffffffffffff811115610cac57610cab610c6f565b5b602083019150836001820283011115610cc857610cc7610c74565b5b9250929050565b600080600060408486031215610ce857610ce7610b7d565b5b600084013567ffffffffffffffff811115610d0657610d05610b82565b5b610d1286828701610c4b565b935050602084013567ffffffffffffffff811115610d3357610d32610b82565b5b610d3f86828701610c79565b92509250509250925092565b60008115159050919050565b610d6081610d4b565b82525050565b600081519050919050565b600082825260208201905092915050565b60005b83811015610da0578082015181840152602081019050610d85565b60008484015250505050565b6000601f19601f8301169050919050565b6000610dc882610d66565b610dd28185610d71565b9350610de2818560208601610d82565b610deb81610dac565b840191505092915050565b6000604082019050610e0b6000830185610d57565b8181036020830152610e1d8184610dbd565b90509392505050565b6000602082019050610e3b6000830184610d57565b92915050565b600082825260208201905092915050565b7f4d696e696d616c466f727761726465723a207369676e617475726520646f657360008201527f206e6f74206d6174636820726571756573740000000000000000000000000000602082015250565b6000610eae603283610e41565b9150610eb982610e52565b604082019050919050565b60006020820190508181036000830152610edd81610ea1565b9050919050565b7f4e487b7100000000000000000000000000000000000000000000000000000000600052601160045260246000fd5b6000610f1e82610c12565b9150610f2983610c12565b9250828201905080821115610f4157610f40610ee4565b5b92915050565b600080fd5b600080fd5b600080fd5b60008083356001602003843603038112610f7357610f72610f47565b5b80840192508235915067ffffffffffffffff821115610f9557610f94610f4c565b5b602083019250600182023603831315610fb157610fb0610f51565b5b509250929050565b600081905092915050565b82818337600083830152505050565b6000610fdf8385610fb9565b9350610fec838584610fc4565b82840190509392505050565b60008160601b9050919050565b600061101082610ff8565b9050919050565b600061102282611005565b9050919050565b61103a61103582610ba7565b611017565b82525050565b600061104d828587610fd3565b91506110598284611029565b601482019150819050949350505050565b600061107582610d66565b61107f8185610fb9565b935061108f818560208601610d82565b80840191505092915050565b60006110a7828461106a565b915081905092915050565b7f4e487b7100000000000000000000000000000000000000000000000000000000600052601260045260246000fd5b60006110ec82610c12565b91506110f783610c12565b925082611107576111066110b2565b5b828204905092915050565b7f496e697469616c697a61626c653a20636f6e747261637420697320616c72656160008201527f647920696e697469616c697a6564000000000000000000000000000000000000602082015250565b600061116e602e83610e41565b915061117982611112565b604082019050919050565b6000602082019050818103600083015261119d81611161565b9050919050565b6000819050919050565b600060ff82169050919050565b6000819050919050565b60006111e06111db6111d6846111a4565b6111bb565b6111ae565b9050919050565b6111f0816111c5565b82525050565b600060208201905061120b60008301846111e7565b92915050565b600061121e828486610fd3565b91508190509392505050565b6000819050919050565b61123d8161122a565b82525050565b61124c81610ba7565b82525050565b600060e082019050611267600083018a611234565b6112746020830189611243565b6112816040830188611243565b61128e6060830187610c1c565b61129b6080830186610c1c565b6112a860a0830185610c1c565b6112b560c0830184611234565b98975050505050505050565b7f496e697469616c697a61626c653a20636f6e7472616374206973206e6f74206960008201527f6e697469616c697a696e67000000000000000000000000000000000000000000602082015250565b600061131d602b83610e41565b9150611328826112c1565b604082019050919050565b6000602082019050818103600083015261134c81611310565b9050919050565b600081905092915050565b7f1901000000000000000000000000000000000000000000000000000000000000600082015250565b6000611394600283611353565b915061139f8261135e565b600282019050919050565b6000819050919050565b6113c56113c08261122a565b6113aa565b82525050565b60006113d682611387565b91506113e282856113b4565b6020820191506113f282846113b4565b6020820191508190509392505050565b7f4e487b7100000000000000000000000000000000000000000000000000000000600052602160045260246000fd5b7f45434453413a20696e76616c6964207369676e61747572650000000000000000600082015250565b6000611467601883610e41565b915061147282611431565b602082019050919050565b600060208201905081810360008301526114968161145a565b9050919050565b7f45434453413a20696e76616c6964207369676e6174757265206c656e67746800600082015250565b60006114d3601f83610e41565b91506114de8261149d565b602082019050919050565b60006020820190508181036000830152611502816114c6565b9050919050565b7f45434453413a20696e76616c6964207369676e6174757265202773272076616c60008201527f7565000000000000000000000000000000000000000000000000000000000000602082015250565b6000611565602283610e41565b915061157082611509565b604082019050919050565b6000602082019050818103600083015261159481611558565b9050919050565b7f45434453413a20696e76616c6964207369676e6174757265202776272076616c60008201527f7565000000000000000000000000000000000000000000000000000000000000602082015250565b60006115f7602283610e41565b91506116028261159b565b604082019050919050565b60006020820190508181036000830152611626816115ea565b9050919050565b600060a0820190506116426000830188611234565b61164f6020830187611234565b61165c6040830186611234565b6116696060830185610c1c565b6116766080830184611243565b9695505050505050565b611689816111ae565b82525050565b60006080820190506116a46000830187611234565b6116b16020830186611680565b6116be6040830185611234565b6116cb6060830184611234565b9594505050505056fea2646970667358221220f046b11b5354f1f327ed4e6479f3528c0b65d530623d690565127af240fe26b564736f6c63430008110033",
  "devdoc": {
    "kind": "dev",
    "methods": {},
    "version": 1
  },
  "userdoc": {
    "kind": "user",
    "methods": {},
    "version": 1
  },
  "storageLayout": {
    "storage": [
      {
        "astId": 194,
        "contract": "contracts/Forwarder.sol:Forwarder",
        "label": "_initialized",
        "offset": 0,
        "slot": "0",
        "type": "t_uint8"
      },
      {
        "astId": 197,
        "contract": "contracts/Forwarder.sol:Forwarder",
        "label": "_initializing",
        "offset": 1,
        "slot": "0",
        "type": "t_bool"
      },
      {
        "astId": 1204,
        "contract": "contracts/Forwarder.sol:Forwarder",
        "label": "_HASHED_NAME",
        "offset": 0,
        "slot": "1",
        "type": "t_bytes32"
      },
      {
        "astId": 1206,
        "contract": "contracts/Forwarder.sol:Forwarder",
        "label": "_HASHED_VERSION",
        "offset": 0,
        "slot": "2",
        "type": "t_bytes32"
      },
      {
        "astId": 1344,
        "contract": "contracts/Forwarder.sol:Forwarder",
        "label": "__gap",
        "offset": 0,
        "slot": "3",
        "type": "t_array(t_uint256)50_storage"
      },
      {
        "astId": 34,
        "contract": "contracts/Forwarder.sol:Forwarder",
        "label": "_nonces",
        "offset": 0,
        "slot": "53",
        "type": "t_mapping(t_address,t_uint256)"
      },
      {
        "astId": 186,
        "contract": "contracts/Forwarder.sol:Forwarder",
        "label": "__gap",
        "offset": 0,
        "slot": "54",
        "type": "t_array(t_uint256)49_storage"
      }
    ],
    "types": {
      "t_address": {
        "encoding": "inplace",
        "label": "address",
        "numberOfBytes": "20"
      },
      "t_array(t_uint256)49_storage": {
        "base": "t_uint256",
        "encoding": "inplace",
        "label": "uint256[49]",
        "numberOfBytes": "1568"
      },
      "t_array(t_uint256)50_storage": {
        "base": "t_uint256",
        "encoding": "inplace",
        "label": "uint256[50]",
        "numberOfBytes": "1600"
      },
      "t_bool": {
        "encoding": "inplace",
        "label": "bool",
        "numberOfBytes": "1"
      },
      "t_bytes32": {
        "encoding": "inplace",
        "label": "bytes32",
        "numberOfBytes": "32"
      },
      "t_mapping(t_address,t_uint256)": {
        "encoding": "mapping",
        "key": "t_address",
        "label": "mapping(address => uint256)",
        "numberOfBytes": "32",
        "value": "t_uint256"
      },
      "t_uint256": {
        "encoding": "inplace",
        "label": "uint256",
        "numberOfBytes": "32"
      },
      "t_uint8": {
        "encoding": "inplace",
        "label": "uint8",
        "numberOfBytes": "1"
      }
    }
  }
}