{
  "address": "0xC6d61D75f0616Bd03842e193C34c09766c216707",
  "abi": [
    {
      "inputs": [
        {
          "internalType": "address",
          "name": "_initBlueprint",
          "type": "address"
        }
      ],
      "stateMutability": "nonpayable",
      "type": "constructor"
    },
    {
      "anonymous": false,
      "inputs": [
        {
          "indexed": false,
          "internalType": "address",
          "name": "proxyAddress",
          "type": "address"
        },
        {
          "indexed": false,
          "internalType": "string",
          "name": "name",
          "type": "string"
        },
        {
          "indexed": false,
          "internalType": "string",
          "name": "symbol",
          "type": "string"
        }
      ],
      "name": "MembershipERC721ProxyCreated",
      "type": "event"
    },
    {
      "inputs": [
        {
          "internalType": "string",
          "name": "_name",
          "type": "string"
        },
        {
          "internalType": "string",
          "name": "_symbol",
          "type": "string"
        },
        {
          "internalType": "address",
          "name": "_trustedForwarder",
          "type": "address"
        },
        {
          "internalType": "uint32",
          "name": "_displayType",
          "type": "uint32"
        }
      ],
      "name": "buildMembershipERC721Proxy",
      "outputs": [],
      "stateMutability": "nonpayable",
      "type": "function"
    },
    {
      "inputs": [],
      "name": "getBeacon",
      "outputs": [
        {
          "internalType": "address",
          "name": "",
          "type": "address"
        }
      ],
      "stateMutability": "view",
      "type": "function"
    },
    {
      "inputs": [],
      "name": "getImplementation",
      "outputs": [
        {
          "internalType": "address",
          "name": "",
          "type": "address"
        }
      ],
      "stateMutability": "view",
      "type": "function"
    }
  ],
  "numDeployments": 1,
  "solcInputHash": "ddbcbbe369bb060d7210b071b31a04e8",
  "bytecode": "0x60a060405234801561001057600080fd5b506040516200237e3803806200237e8339818101604052810190610034919061017f565b806040516100419061010e565b61004b91906101bb565b604051809103906000f080158015610067573d6000803e3d6000fd5b5073ffffffffffffffffffffffffffffffffffffffff1660808173ffffffffffffffffffffffffffffffffffffffff168152505060805173ffffffffffffffffffffffffffffffffffffffff1663f2fde38b326040518263ffffffff1660e01b81526004016100d691906101bb565b600060405180830381600087803b1580156100f057600080fd5b505af1158015610104573d6000803e3d6000fd5b50505050506101d6565b6109cf80620019af83390190565b600080fd5b600073ffffffffffffffffffffffffffffffffffffffff82169050919050565b600061014c82610121565b9050919050565b61015c81610141565b811461016757600080fd5b50565b60008151905061017981610153565b92915050565b6000602082840312156101955761019461011c565b5b60006101a38482850161016a565b91505092915050565b6101b581610141565b82525050565b60006020820190506101d060008301846101ac565b92915050565b6080516117b1620001fe6000396000818160b30152818160db015261027001526117b16000f3fe60806040523480156200001157600080fd5b5060043610620000465760003560e01c80632d6b3a6b146200004b578063445efad8146200006d578063aaf10f42146200008d575b600080fd5b62000055620000af565b60405162000064919062000358565b60405180910390f35b6200008b60048036038101906200008591906200055d565b620000d7565b005b620000976200026c565b604051620000a6919062000358565b60405180910390f35b60007f0000000000000000000000000000000000000000000000000000000000000000905090565b60007f0000000000000000000000000000000000000000000000000000000000000000635437d83d60e01b868686866040516024016200011b9493929190620006a7565b604051602081830303815290604052907bffffffffffffffffffffffffffffffffffffffffffffffffffffffff19166020820180517bffffffffffffffffffffffffffffffffffffffffffffffffffffffff8381831617835250505050604051620001869062000305565b620001939291906200075f565b604051809103906000f080158015620001b0573d6000803e3d6000fd5b50905060008190508073ffffffffffffffffffffffffffffffffffffffff1663f2fde38b326040518263ffffffff1660e01b8152600401620001f3919062000358565b600060405180830381600087803b1580156200020e57600080fd5b505af115801562000223573d6000803e3d6000fd5b505050507fc7d1af2ad6f6bef36c8d8e8849b1c7b3c97853934ce0429cceaa043cb015f02d8187876040516200025c9392919062000793565b60405180910390a1505050505050565b60007f000000000000000000000000000000000000000000000000000000000000000073ffffffffffffffffffffffffffffffffffffffff16635c60da1b6040518163ffffffff1660e01b8152600401602060405180830381865afa158015620002da573d6000803e3d6000fd5b505050506040513d601f19601f82011682018060405250810190620003009190620007f5565b905090565b610f54806200082883390190565b600073ffffffffffffffffffffffffffffffffffffffff82169050919050565b6000620003408262000313565b9050919050565b620003528162000333565b82525050565b60006020820190506200036f600083018462000347565b92915050565b6000604051905090565b600080fd5b600080fd5b600080fd5b600080fd5b6000601f19601f8301169050919050565b7f4e487b7100000000000000000000000000000000000000000000000000000000600052604160045260246000fd5b620003de8262000393565b810181811067ffffffffffffffff821117156200040057620003ff620003a4565b5b80604052505050565b60006200041562000375565b9050620004238282620003d3565b919050565b600067ffffffffffffffff821115620004465762000445620003a4565b5b620004518262000393565b9050602081019050919050565b82818337600083830152505050565b6000620004846200047e8462000428565b62000409565b905082815260208101848484011115620004a357620004a26200038e565b5b620004b08482856200045e565b509392505050565b600082601f830112620004d057620004cf62000389565b5b8135620004e28482602086016200046d565b91505092915050565b620004f68162000333565b81146200050257600080fd5b50565b6000813590506200051681620004eb565b92915050565b600063ffffffff82169050919050565b62000537816200051c565b81146200054357600080fd5b50565b60008135905062000557816200052c565b92915050565b600080600080608085870312156200057a57620005796200037f565b5b600085013567ffffffffffffffff8111156200059b576200059a62000384565b5b620005a987828801620004b8565b945050602085013567ffffffffffffffff811115620005cd57620005cc62000384565b5b620005db87828801620004b8565b9350506040620005ee8782880162000505565b9250506060620006018782880162000546565b91505092959194509250565b600081519050919050565b600082825260208201905092915050565b60005b83811015620006495780820151818401526020810190506200062c565b60008484015250505050565b600062000662826200060d565b6200066e818562000618565b93506200068081856020860162000629565b6200068b8162000393565b840191505092915050565b620006a1816200051c565b82525050565b60006080820190508181036000830152620006c3818762000655565b90508181036020830152620006d9818662000655565b9050620006ea604083018562000347565b620006f9606083018462000696565b95945050505050565b600081519050919050565b600082825260208201905092915050565b60006200072b8262000702565b6200073781856200070d565b93506200074981856020860162000629565b620007548162000393565b840191505092915050565b600060408201905062000776600083018562000347565b81810360208301526200078a81846200071e565b90509392505050565b6000606082019050620007aa600083018662000347565b8181036020830152620007be818562000655565b90508181036040830152620007d4818462000655565b9050949350505050565b600081519050620007ef81620004eb565b92915050565b6000602082840312156200080e576200080d6200037f565b5b60006200081e84828501620007de565b9150509291505056fe608060405260405162000f5438038062000f54833981810160405281019062000029919062000686565b6200003d828260006200004560201b60201c565b5050620009cd565b62000056836200013c60201b60201c565b8273ffffffffffffffffffffffffffffffffffffffff167f1cf3b03a6cf19fa2baba4df148e9dcabedea7f8a5c07840e207e5c089be95d3e60405160405180910390a2600082511180620000a75750805b156200013757620001358373ffffffffffffffffffffffffffffffffffffffff16635c60da1b6040518163ffffffff1660e01b8152600401602060405180830381865afa158015620000fd573d6000803e3d6000fd5b505050506040513d601f19601f82011682018060405250810190620001239190620006ec565b83620002db60201b620000371760201c565b505b505050565b62000152816200031160201b620000641760201c565b62000194576040517f08c379a00000000000000000000000000000000000000000000000000000000081526004016200018b90620007a5565b60405180910390fd5b6200021b8173ffffffffffffffffffffffffffffffffffffffff16635c60da1b6040518163ffffffff1660e01b8152600401602060405180830381865afa158015620001e4573d6000803e3d6000fd5b505050506040513d601f19601f820116820180604052508101906200020a9190620006ec565b6200031160201b620000641760201c565b6200025d576040517f08c379a000000000000000000000000000000000000000000000000000000000815260040162000254906200083d565b60405180910390fd5b80620002977fa3f0ad74e5423aebfd80d3ef4346578335a9a72aeaee59ff6cb3582b35133d5060001b6200033460201b620000871760201c565b60000160006101000a81548173ffffffffffffffffffffffffffffffffffffffff021916908373ffffffffffffffffffffffffffffffffffffffff16021790555050565b606062000309838360405180606001604052806027815260200162000f2d602791396200033e60201b60201c565b905092915050565b6000808273ffffffffffffffffffffffffffffffffffffffff163b119050919050565b6000819050919050565b606062000351846200031160201b60201c565b62000393576040517f08c379a00000000000000000000000000000000000000000000000000000000081526004016200038a90620008d5565b60405180910390fd5b6000808573ffffffffffffffffffffffffffffffffffffffff1685604051620003bd919062000944565b600060405180830381855af49150503d8060008114620003fa576040519150601f19603f3d011682016040523d82523d6000602084013e620003ff565b606091505b5091509150620004178282866200042260201b60201c565b925050509392505050565b60608315620004345782905062000487565b600083511115620004485782518084602001fd5b816040517f08c379a00000000000000000000000000000000000000000000000000000000081526004016200047e9190620009a9565b60405180910390fd5b9392505050565b6000604051905090565b600080fd5b600080fd5b600073ffffffffffffffffffffffffffffffffffffffff82169050919050565b6000620004cf82620004a2565b9050919050565b620004e181620004c2565b8114620004ed57600080fd5b50565b6000815190506200050181620004d6565b92915050565b600080fd5b600080fd5b6000601f19601f8301169050919050565b7f4e487b7100000000000000000000000000000000000000000000000000000000600052604160045260246000fd5b6200055c8262000511565b810181811067ffffffffffffffff821117156200057e576200057d62000522565b5b80604052505050565b6000620005936200048e565b9050620005a1828262000551565b919050565b600067ffffffffffffffff821115620005c457620005c362000522565b5b620005cf8262000511565b9050602081019050919050565b60005b83811015620005fc578082015181840152602081019050620005df565b60008484015250505050565b60006200061f6200061984620005a6565b62000587565b9050828152602081018484840111156200063e576200063d6200050c565b5b6200064b848285620005dc565b509392505050565b600082601f8301126200066b576200066a62000507565b5b81516200067d84826020860162000608565b91505092915050565b60008060408385031215620006a0576200069f62000498565b5b6000620006b085828601620004f0565b925050602083015167ffffffffffffffff811115620006d457620006d36200049d565b5b620006e28582860162000653565b9150509250929050565b60006020828403121562000705576200070462000498565b5b60006200071584828501620004f0565b91505092915050565b600082825260208201905092915050565b7f455243313936373a206e657720626561636f6e206973206e6f74206120636f6e60008201527f7472616374000000000000000000000000000000000000000000000000000000602082015250565b60006200078d6025836200071e565b91506200079a826200072f565b604082019050919050565b60006020820190508181036000830152620007c0816200077e565b9050919050565b7f455243313936373a20626561636f6e20696d706c656d656e746174696f6e206960008201527f73206e6f74206120636f6e747261637400000000000000000000000000000000602082015250565b6000620008256030836200071e565b91506200083282620007c7565b604082019050919050565b60006020820190508181036000830152620008588162000816565b9050919050565b7f416464726573733a2064656c65676174652063616c6c20746f206e6f6e2d636f60008201527f6e74726163740000000000000000000000000000000000000000000000000000602082015250565b6000620008bd6026836200071e565b9150620008ca826200085f565b604082019050919050565b60006020820190508181036000830152620008f081620008ae565b9050919050565b600081519050919050565b600081905092915050565b60006200091a82620008f7565b62000926818562000902565b935062000938818560208601620005dc565b80840191505092915050565b60006200095282846200090d565b915081905092915050565b600081519050919050565b600062000975826200095d565b6200098181856200071e565b935062000993818560208601620005dc565b6200099e8162000511565b840191505092915050565b60006020820190508181036000830152620009c5818462000968565b905092915050565b61055080620009dd6000396000f3fe6080604052366100135761001161001d565b005b61001b61001d565b005b610025610091565b610035610030610093565b610110565b565b606061005c83836040518060600160405280602781526020016104f460279139610136565b905092915050565b6000808273ffffffffffffffffffffffffffffffffffffffff163b119050919050565b6000819050919050565b565b600061009d610203565b73ffffffffffffffffffffffffffffffffffffffff16635c60da1b6040518163ffffffff1660e01b8152600401602060405180830381865afa1580156100e7573d6000803e3d6000fd5b505050506040513d601f19601f8201168201806040525081019061010b9190610324565b905090565b3660008037600080366000845af43d6000803e8060008114610131573d6000f35b3d6000fd5b606061014184610064565b610180576040517f08c379a0000000000000000000000000000000000000000000000000000000008152600401610177906103d4565b60405180910390fd5b6000808573ffffffffffffffffffffffffffffffffffffffff16856040516101a89190610465565b600060405180830381855af49150503d80600081146101e3576040519150601f19603f3d011682016040523d82523d6000602084013e6101e8565b606091505b50915091506101f882828661025a565b925050509392505050565b60006102317fa3f0ad74e5423aebfd80d3ef4346578335a9a72aeaee59ff6cb3582b35133d5060001b610087565b60000160009054906101000a900473ffffffffffffffffffffffffffffffffffffffff16905090565b6060831561026a578290506102ba565b60008351111561027d5782518084602001fd5b816040517f08c379a00000000000000000000000000000000000000000000000000000000081526004016102b191906104d1565b60405180910390fd5b9392505050565b600080fd5b600073ffffffffffffffffffffffffffffffffffffffff82169050919050565b60006102f1826102c6565b9050919050565b610301816102e6565b811461030c57600080fd5b50565b60008151905061031e816102f8565b92915050565b60006020828403121561033a576103396102c1565b5b60006103488482850161030f565b91505092915050565b600082825260208201905092915050565b7f416464726573733a2064656c65676174652063616c6c20746f206e6f6e2d636f60008201527f6e74726163740000000000000000000000000000000000000000000000000000602082015250565b60006103be602683610351565b91506103c982610362565b604082019050919050565b600060208201905081810360008301526103ed816103b1565b9050919050565b600081519050919050565b600081905092915050565b60005b8381101561042857808201518184015260208101905061040d565b60008484015250505050565b600061043f826103f4565b61044981856103ff565b935061045981856020860161040a565b80840191505092915050565b60006104718284610434565b915081905092915050565b600081519050919050565b6000601f19601f8301169050919050565b60006104a38261047c565b6104ad8185610351565b93506104bd81856020860161040a565b6104c681610487565b840191505092915050565b600060208201905081810360008301526104eb8184610498565b90509291505056fe416464726573733a206c6f772d6c6576656c2064656c65676174652063616c6c206661696c6564a2646970667358221220af8e71471a201abfd83e5afb6c3ce2fbd68cb67695fe9efcec20b4fa24b8666164736f6c63430008110033416464726573733a206c6f772d6c6576656c2064656c65676174652063616c6c206661696c6564a26469706673582212201023e0ffdf26f3578fdc429b99a7aa209034f39e6f8a6de85d618f4190e0e96c64736f6c63430008110033608060405234801561001057600080fd5b506040516109cf3803806109cf8339818101604052810190610032919061024b565b61004e61004361006360201b60201c565b61006b60201b60201c565b61005d8161012f60201b60201c565b5061031b565b600033905090565b60008060009054906101000a900473ffffffffffffffffffffffffffffffffffffffff169050816000806101000a81548173ffffffffffffffffffffffffffffffffffffffff021916908373ffffffffffffffffffffffffffffffffffffffff1602179055508173ffffffffffffffffffffffffffffffffffffffff168173ffffffffffffffffffffffffffffffffffffffff167f8be0079c531659141344cd1fd0a4f28419497f9722a3daafe3b4186f6b6457e060405160405180910390a35050565b610142816101c560201b61021b1760201c565b610181576040517f08c379a0000000000000000000000000000000000000000000000000000000008152600401610178906102fb565b60405180910390fd5b80600160006101000a81548173ffffffffffffffffffffffffffffffffffffffff021916908373ffffffffffffffffffffffffffffffffffffffff16021790555050565b6000808273ffffffffffffffffffffffffffffffffffffffff163b119050919050565b600080fd5b600073ffffffffffffffffffffffffffffffffffffffff82169050919050565b6000610218826101ed565b9050919050565b6102288161020d565b811461023357600080fd5b50565b6000815190506102458161021f565b92915050565b600060208284031215610261576102606101e8565b5b600061026f84828501610236565b91505092915050565b600082825260208201905092915050565b7f5570677261646561626c65426561636f6e3a20696d706c656d656e746174696f60008201527f6e206973206e6f74206120636f6e747261637400000000000000000000000000602082015250565b60006102e5603383610278565b91506102f082610289565b604082019050919050565b60006020820190508181036000830152610314816102d8565b9050919050565b6106a58061032a6000396000f3fe608060405234801561001057600080fd5b50600436106100575760003560e01c80633659cfe61461005c5780635c60da1b14610078578063715018a6146100965780638da5cb5b146100a0578063f2fde38b146100be575b600080fd5b61007660048036038101906100719190610477565b6100da565b005b610080610131565b60405161008d91906104b3565b60405180910390f35b61009e61015b565b005b6100a861016f565b6040516100b591906104b3565b60405180910390f35b6100d860048036038101906100d39190610477565b610198565b005b6100e261023e565b6100eb816102bc565b8073ffffffffffffffffffffffffffffffffffffffff167fbc7cd75a20ee27fd9adebab32041f755214dbc6bffa90cc0225b39da2e5c2d3b60405160405180910390a250565b6000600160009054906101000a900473ffffffffffffffffffffffffffffffffffffffff16905090565b61016361023e565b61016d6000610348565b565b60008060009054906101000a900473ffffffffffffffffffffffffffffffffffffffff16905090565b6101a061023e565b600073ffffffffffffffffffffffffffffffffffffffff168173ffffffffffffffffffffffffffffffffffffffff160361020f576040517f08c379a000000000000000000000000000000000000000000000000000000000815260040161020690610551565b60405180910390fd5b61021881610348565b50565b6000808273ffffffffffffffffffffffffffffffffffffffff163b119050919050565b61024661040c565b73ffffffffffffffffffffffffffffffffffffffff1661026461016f565b73ffffffffffffffffffffffffffffffffffffffff16146102ba576040517f08c379a00000000000000000000000000000000000000000000000000000000081526004016102b1906105bd565b60405180910390fd5b565b6102c58161021b565b610304576040517f08c379a00000000000000000000000000000000000000000000000000000000081526004016102fb9061064f565b60405180910390fd5b80600160006101000a81548173ffffffffffffffffffffffffffffffffffffffff021916908373ffffffffffffffffffffffffffffffffffffffff16021790555050565b60008060009054906101000a900473ffffffffffffffffffffffffffffffffffffffff169050816000806101000a81548173ffffffffffffffffffffffffffffffffffffffff021916908373ffffffffffffffffffffffffffffffffffffffff1602179055508173ffffffffffffffffffffffffffffffffffffffff168173ffffffffffffffffffffffffffffffffffffffff167f8be0079c531659141344cd1fd0a4f28419497f9722a3daafe3b4186f6b6457e060405160405180910390a35050565b600033905090565b600080fd5b600073ffffffffffffffffffffffffffffffffffffffff82169050919050565b600061044482610419565b9050919050565b61045481610439565b811461045f57600080fd5b50565b6000813590506104718161044b565b92915050565b60006020828403121561048d5761048c610414565b5b600061049b84828501610462565b91505092915050565b6104ad81610439565b82525050565b60006020820190506104c860008301846104a4565b92915050565b600082825260208201905092915050565b7f4f776e61626c653a206e6577206f776e657220697320746865207a65726f206160008201527f6464726573730000000000000000000000000000000000000000000000000000602082015250565b600061053b6026836104ce565b9150610546826104df565b604082019050919050565b6000602082019050818103600083015261056a8161052e565b9050919050565b7f4f776e61626c653a2063616c6c6572206973206e6f7420746865206f776e6572600082015250565b60006105a76020836104ce565b91506105b282610571565b602082019050919050565b600060208201905081810360008301526105d68161059a565b9050919050565b7f5570677261646561626c65426561636f6e3a20696d706c656d656e746174696f60008201527f6e206973206e6f74206120636f6e747261637400000000000000000000000000602082015250565b60006106396033836104ce565b9150610644826105dd565b604082019050919050565b600060208201905081810360008301526106688161062c565b905091905056fea2646970667358221220fb80da156cedc3835955786e3c4bd56ca8b526de4aada7b1ef482a0bb349b67064736f6c63430008110033",
  "devdoc": {
    "kind": "dev",
    "methods": {},
    "version": 1
  },
  "userdoc": {
    "kind": "user",
    "methods": {},
    "version": 1
  },
  "storageLayout": {
    "storage": [],
    "types": null
  }
}