{
  "address": "0xb53b6b1b22DfDC36Cdb824C17D6Afc03cCb57A43",
  "abi": [
    {
      "inputs": [],
      "stateMutability": "nonpayable",
      "type": "constructor"
    },
    {
      "anonymous": false,
      "inputs": [
        {
          "indexed": true,
          "internalType": "address",
          "name": "owner",
          "type": "address"
        },
        {
          "indexed": true,
          "internalType": "address",
          "name": "approved",
          "type": "address"
        },
        {
          "indexed": true,
          "internalType": "uint256",
          "name": "tokenId",
          "type": "uint256"
        }
      ],
      "name": "Approval",
      "type": "event"
    },
    {
      "anonymous": false,
      "inputs": [
        {
          "indexed": true,
          "internalType": "address",
          "name": "owner",
          "type": "address"
        },
        {
          "indexed": true,
          "internalType": "address",
          "name": "operator",
          "type": "address"
        },
        {
          "indexed": false,
          "internalType": "bool",
          "name": "approved",
          "type": "bool"
        }
      ],
      "name": "ApprovalForAll",
      "type": "event"
    },
    {
      "anonymous": false,
      "inputs": [
        {
          "indexed": false,
          "internalType": "uint8",
          "name": "version",
          "type": "uint8"
        }
      ],
      "name": "Initialized",
      "type": "event"
    },
    {
      "anonymous": false,
      "inputs": [
        {
          "indexed": true,
          "internalType": "address",
          "name": "previousOwner",
          "type": "address"
        },
        {
          "indexed": true,
          "internalType": "address",
          "name": "newOwner",
          "type": "address"
        }
      ],
      "name": "OwnershipTransferred",
      "type": "event"
    },
    {
      "anonymous": false,
      "inputs": [
        {
          "indexed": true,
          "internalType": "address",
          "name": "from",
          "type": "address"
        },
        {
          "indexed": true,
          "internalType": "address",
          "name": "to",
          "type": "address"
        },
        {
          "indexed": true,
          "internalType": "uint256",
          "name": "tokenId",
          "type": "uint256"
        }
      ],
      "name": "Transfer",
      "type": "event"
    },
    {
      "inputs": [
        {
          "internalType": "address",
          "name": "to",
          "type": "address"
        },
        {
          "internalType": "uint256",
          "name": "tokenId",
          "type": "uint256"
        }
      ],
      "name": "approve",
      "outputs": [],
      "stateMutability": "nonpayable",
      "type": "function"
    },
    {
      "inputs": [
        {
          "internalType": "address",
          "name": "owner",
          "type": "address"
        }
      ],
      "name": "balanceOf",
      "outputs": [
        {
          "internalType": "uint256",
          "name": "",
          "type": "uint256"
        }
      ],
      "stateMutability": "view",
      "type": "function"
    },
    {
      "inputs": [
        {
          "internalType": "uint256",
          "name": "tokenId",
          "type": "uint256"
        }
      ],
      "name": "getApproved",
      "outputs": [
        {
          "internalType": "address",
          "name": "",
          "type": "address"
        }
      ],
      "stateMutability": "view",
      "type": "function"
    },
    {
      "inputs": [],
      "name": "getDisplayType",
      "outputs": [
        {
          "internalType": "uint32",
          "name": "",
          "type": "uint32"
        }
      ],
      "stateMutability": "view",
      "type": "function"
    },
    {
      "inputs": [
        {
          "internalType": "address",
          "name": "to",
          "type": "address"
        }
      ],
      "name": "getExpiryTimestamp",
      "outputs": [
        {
          "internalType": "uint256",
          "name": "",
          "type": "uint256"
        }
      ],
      "stateMutability": "view",
      "type": "function"
    },
    {
      "inputs": [
        {
          "internalType": "address",
          "name": "tokenHolder",
          "type": "address"
        }
      ],
      "name": "getTokenId",
      "outputs": [
        {
          "internalType": "uint256",
          "name": "",
          "type": "uint256"
        }
      ],
      "stateMutability": "view",
      "type": "function"
    },
    {
      "inputs": [
        {
          "internalType": "address",
          "name": "owner",
          "type": "address"
        },
        {
          "internalType": "address",
          "name": "operator",
          "type": "address"
        }
      ],
      "name": "isApprovedForAll",
      "outputs": [
        {
          "internalType": "bool",
          "name": "",
          "type": "bool"
        }
      ],
      "stateMutability": "view",
      "type": "function"
    },
    {
      "inputs": [
        {
          "internalType": "address",
          "name": "forwarder",
          "type": "address"
        }
      ],
      "name": "isTrustedForwarder",
      "outputs": [
        {
          "internalType": "bool",
          "name": "",
          "type": "bool"
        }
      ],
      "stateMutability": "view",
      "type": "function"
    },
    {
      "inputs": [],
      "name": "name",
      "outputs": [
        {
          "internalType": "string",
          "name": "",
          "type": "string"
        }
      ],
      "stateMutability": "view",
      "type": "function"
    },
    {
      "inputs": [],
      "name": "owner",
      "outputs": [
        {
          "internalType": "address",
          "name": "",
          "type": "address"
        }
      ],
      "stateMutability": "view",
      "type": "function"
    },
    {
      "inputs": [
        {
          "internalType": "uint256",
          "name": "tokenId",
          "type": "uint256"
        }
      ],
      "name": "ownerOf",
      "outputs": [
        {
          "internalType": "address",
          "name": "",
          "type": "address"
        }
      ],
      "stateMutability": "view",
      "type": "function"
    },
    {
      "inputs": [],
      "name": "renounceOwnership",
      "outputs": [],
      "stateMutability": "nonpayable",
      "type": "function"
    },
    {
      "inputs": [
        {
          "internalType": "address",
          "name": "to",
          "type": "address"
        },
        {
          "internalType": "uint256",
          "name": "expiryTimestamp",
          "type": "uint256"
        }
      ],
      "name": "safeMint",
      "outputs": [],
      "stateMutability": "nonpayable",
      "type": "function"
    },
    {
      "inputs": [
        {
          "internalType": "address",
          "name": "from",
          "type": "address"
        },
        {
          "internalType": "address",
          "name": "to",
          "type": "address"
        },
        {
          "internalType": "uint256",
          "name": "tokenId",
          "type": "uint256"
        }
      ],
      "name": "safeTransferFrom",
      "outputs": [],
      "stateMutability": "nonpayable",
      "type": "function"
    },
    {
      "inputs": [
        {
          "internalType": "address",
          "name": "from",
          "type": "address"
        },
        {
          "internalType": "address",
          "name": "to",
          "type": "address"
        },
        {
          "internalType": "uint256",
          "name": "tokenId",
          "type": "uint256"
        },
        {
          "internalType": "bytes",
          "name": "data",
          "type": "bytes"
        }
      ],
      "name": "safeTransferFrom",
      "outputs": [],
      "stateMutability": "nonpayable",
      "type": "function"
    },
    {
      "inputs": [
        {
          "internalType": "address",
          "name": "operator",
          "type": "address"
        },
        {
          "internalType": "bool",
          "name": "approved",
          "type": "bool"
        }
      ],
      "name": "setApprovalForAll",
      "outputs": [],
      "stateMutability": "nonpayable",
      "type": "function"
    },
    {
      "inputs": [
        {
          "internalType": "uint32",
          "name": "_displayType",
          "type": "uint32"
        }
      ],
      "name": "setDisplayType",
      "outputs": [],
      "stateMutability": "nonpayable",
      "type": "function"
    },
    {
      "inputs": [
        {
          "internalType": "address",
          "name": "_newTrustedFowarder",
          "type": "address"
        }
      ],
      "name": "setTrustedForwarder",
      "outputs": [],
      "stateMutability": "nonpayable",
      "type": "function"
    },
    {
      "inputs": [
        {
          "internalType": "string",
          "name": "_name",
          "type": "string"
        },
        {
          "internalType": "string",
          "name": "_symbol",
          "type": "string"
        },
        {
          "internalType": "address",
          "name": "_trustedForwarder",
          "type": "address"
        },
        {
          "internalType": "uint32",
          "name": "_displayType",
          "type": "uint32"
        }
      ],
      "name": "setUp",
      "outputs": [],
      "stateMutability": "nonpayable",
      "type": "function"
    },
    {
      "inputs": [
        {
          "internalType": "bytes4",
          "name": "interfaceId",
          "type": "bytes4"
        }
      ],
      "name": "supportsInterface",
      "outputs": [
        {
          "internalType": "bool",
          "name": "",
          "type": "bool"
        }
      ],
      "stateMutability": "view",
      "type": "function"
    },
    {
      "inputs": [],
      "name": "symbol",
      "outputs": [
        {
          "internalType": "string",
          "name": "",
          "type": "string"
        }
      ],
      "stateMutability": "view",
      "type": "function"
    },
    {
      "inputs": [
        {
          "internalType": "uint256",
          "name": "tokenId",
          "type": "uint256"
        }
      ],
      "name": "tokenURI",
      "outputs": [
        {
          "internalType": "string",
          "name": "",
          "type": "string"
        }
      ],
      "stateMutability": "view",
      "type": "function"
    },
    {
      "inputs": [
        {
          "internalType": "address",
          "name": "from",
          "type": "address"
        },
        {
          "internalType": "address",
          "name": "to",
          "type": "address"
        },
        {
          "internalType": "uint256",
          "name": "tokenId",
          "type": "uint256"
        }
      ],
      "name": "transferFrom",
      "outputs": [],
      "stateMutability": "nonpayable",
      "type": "function"
    },
    {
      "inputs": [
        {
          "internalType": "address",
          "name": "newOwner",
          "type": "address"
        }
      ],
      "name": "transferOwnership",
      "outputs": [],
      "stateMutability": "nonpayable",
      "type": "function"
    },
    {
      "inputs": [],
      "name": "trustedForwarder",
      "outputs": [
        {
          "internalType": "address",
          "name": "",
          "type": "address"
        }
      ],
      "stateMutability": "view",
      "type": "function"
    },
    {
      "inputs": [
        {
          "internalType": "address",
          "name": "to",
          "type": "address"
        },
        {
          "internalType": "uint256",
          "name": "updatedTimestamp",
          "type": "uint256"
        }
      ],
      "name": "updateExpiryTimestamp",
      "outputs": [],
      "stateMutability": "nonpayable",
      "type": "function"
    },
    {
      "inputs": [],
      "name": "versionRecipient",
      "outputs": [
        {
          "internalType": "string",
          "name": "",
          "type": "string"
        }
      ],
      "stateMutability": "view",
      "type": "function"
    }
  ],
  "numDeployments": 1,
  "solcInputHash": "ddbcbbe369bb060d7210b071b31a04e8",
  "bytecode": "0x60806040526040518060400160405280600581526020017f322e322e3500000000000000000000000000000000000000000000000000000081525060cb90816200004a9190620003b0565b503480156200005857600080fd5b50620000696200006f60201b60201c565b6200057b565b600060019054906101000a900460ff1615620000c2576040517f08c379a0000000000000000000000000000000000000000000000000000000008152600401620000b9906200051e565b60405180910390fd5b60ff801660008054906101000a900460ff1660ff161015620001345760ff6000806101000a81548160ff021916908360ff1602179055507f7f26b83ff96e1f2b6a682f133852f6798a09c465da95921460cefb384740249860ff6040516200012b91906200055e565b60405180910390a15b565b600081519050919050565b7f4e487b7100000000000000000000000000000000000000000000000000000000600052604160045260246000fd5b7f4e487b7100000000000000000000000000000000000000000000000000000000600052602260045260246000fd5b60006002820490506001821680620001b857607f821691505b602082108103620001ce57620001cd62000170565b5b50919050565b60008190508160005260206000209050919050565b60006020601f8301049050919050565b600082821b905092915050565b600060088302620002387fffffffffffffffffffffffffffffffffffffffffffffffffffffffffffffffff82620001f9565b620002448683620001f9565b95508019841693508086168417925050509392505050565b6000819050919050565b6000819050919050565b6000620002916200028b62000285846200025c565b62000266565b6200025c565b9050919050565b6000819050919050565b620002ad8362000270565b620002c5620002bc8262000298565b84845462000206565b825550505050565b600090565b620002dc620002cd565b620002e9818484620002a2565b505050565b5b81811015620003115762000305600082620002d2565b600181019050620002ef565b5050565b601f82111562000360576200032a81620001d4565b6200033584620001e9565b8101602085101562000345578190505b6200035d6200035485620001e9565b830182620002ee565b50505b505050565b600082821c905092915050565b6000620003856000198460080262000365565b1980831691505092915050565b6000620003a0838362000372565b9150826002028217905092915050565b620003bb8262000136565b67ffffffffffffffff811115620003d757620003d662000141565b5b620003e382546200019f565b620003f082828562000315565b600060209050601f83116001811462000428576000841562000413578287015190505b6200041f858262000392565b8655506200048f565b601f1984166200043886620001d4565b60005b8281101562000462578489015182556001820191506020850194506020810190506200043b565b868310156200048257848901516200047e601f89168262000372565b8355505b6001600288020188555050505b505050505050565b600082825260208201905092915050565b7f496e697469616c697a61626c653a20636f6e747261637420697320696e69746960008201527f616c697a696e6700000000000000000000000000000000000000000000000000602082015250565b60006200050660278362000497565b91506200051382620004a8565b604082019050919050565b600060208201905081810360008301526200053981620004f7565b9050919050565b600060ff82169050919050565b620005588162000540565b82525050565b60006020820190506200057560008301846200054d565b92915050565b613864806200058b6000396000f3fe608060405234801561001057600080fd5b50600436106101a95760003560e01c8063715018a6116100f9578063b88d4fde11610097578063e985e9c511610071578063e985e9c5146104b8578063f1537686146104e8578063f2fde38b14610518578063fa6033f714610534576101a9565b8063b88d4fde14610450578063c87b56dd1461046c578063da7422281461049c576101a9565b80638da5cb5b116100d35780638da5cb5b146103dc57806395d89b41146103fa578063a144819414610418578063a22cb46514610434576101a9565b8063715018a6146103985780637abb8114146103a25780637da0a877146103be576101a9565b80633b520d25116101665780635437d83d116101405780635437d83d146102ec578063572b6c05146103085780636352211e1461033857806370a0823114610368576101a9565b80633b520d251461028257806342842e0e146102b2578063486ff0cd146102ce576101a9565b806301ffc9a7146101ae57806306fdde03146101de578063081812fc146101fc578063095ea7b31461022c578063115285b61461024857806323b872dd14610266575b600080fd5b6101c860048036038101906101c39190612242565b610550565b6040516101d5919061228a565b60405180910390f35b6101e6610632565b6040516101f39190612335565b60405180910390f35b6102166004803603810190610211919061238d565b6106c4565b60405161022391906123fb565b60405180910390f35b61024660048036038101906102419190612442565b61070a565b005b610250610821565b60405161025d91906124a1565b60405180910390f35b610280600480360381019061027b91906124bc565b61083b565b005b61029c6004803603810190610297919061250f565b61089b565b6040516102a9919061254b565b60405180910390f35b6102cc60048036038101906102c791906124bc565b6108fc565b005b6102d661091c565b6040516102e39190612335565b60405180910390f35b610306600480360381019061030191906126c7565b6109aa565b005b610322600480360381019061031d919061250f565b610b20565b60405161032f919061228a565b60405180910390f35b610352600480360381019061034d919061238d565b610b7a565b60405161035f91906123fb565b60405180910390f35b610382600480360381019061037d919061250f565b610c2b565b60405161038f919061254b565b60405180910390f35b6103a0610ce2565b005b6103bc60048036038101906103b79190612442565b610cf6565b005b6103c6610d5f565b6040516103d391906123fb565b60405180910390f35b6103e4610d89565b6040516103f191906123fb565b60405180910390f35b610402610db3565b60405161040f9190612335565b60405180910390f35b610432600480360381019061042d9190612442565b610e45565b005b61044e60048036038101906104499190612792565b610f1b565b005b61046a60048036038101906104659190612873565b610f31565b005b6104866004803603810190610481919061238d565b610f93565b6040516104939190612335565b60405180910390f35b6104b660048036038101906104b1919061250f565b610ffb565b005b6104d260048036038101906104cd91906128f6565b61100f565b6040516104df919061228a565b60405180910390f35b61050260048036038101906104fd919061250f565b6110a3565b60405161050f919061254b565b60405180910390f35b610532600480360381019061052d919061250f565b6110ec565b005b61054e60048036038101906105499190612936565b61116f565b005b60007f80ac58cd000000000000000000000000000000000000000000000000000000007bffffffffffffffffffffffffffffffffffffffffffffffffffffffff1916827bffffffffffffffffffffffffffffffffffffffffffffffffffffffff1916148061061b57507f5b5e139f000000000000000000000000000000000000000000000000000000007bffffffffffffffffffffffffffffffffffffffffffffffffffffffff1916827bffffffffffffffffffffffffffffffffffffffffffffffffffffffff1916145b8061062b575061062a8261119b565b5b9050919050565b60606065805461064190612992565b80601f016020809104026020016040519081016040528092919081815260200182805461066d90612992565b80156106ba5780601f1061068f576101008083540402835291602001916106ba565b820191906000526020600020905b81548152906001019060200180831161069d57829003601f168201915b5050505050905090565b60006106cf82611205565b6069600083815260200190815260200160002060009054906101000a900473ffffffffffffffffffffffffffffffffffffffff169050919050565b600061071582610b7a565b90508073ffffffffffffffffffffffffffffffffffffffff168373ffffffffffffffffffffffffffffffffffffffff1603610785576040517f08c379a000000000000000000000000000000000000000000000000000000000815260040161077c90612a35565b60405180910390fd5b8073ffffffffffffffffffffffffffffffffffffffff166107a4611250565b73ffffffffffffffffffffffffffffffffffffffff1614806107d357506107d2816107cd611250565b61100f565b5b610812576040517f08c379a000000000000000000000000000000000000000000000000000000000815260040161080990612ac7565b60405180910390fd5b61081c838361125f565b505050565b600060ce60009054906101000a900463ffffffff16905090565b61084c610846611250565b82611318565b61088b576040517f08c379a000000000000000000000000000000000000000000000000000000000815260040161088290612b59565b60405180910390fd5b6108968383836113ad565b505050565b60008060cd60008473ffffffffffffffffffffffffffffffffffffffff1673ffffffffffffffffffffffffffffffffffffffff16815260200190815260200160002054905060cc600082815260200190815260200160002054915050919050565b61091783838360405180602001604052806000815250610f31565b505050565b60cb805461092990612992565b80601f016020809104026020016040519081016040528092919081815260200182805461095590612992565b80156109a25780601f10610977576101008083540402835291602001916109a2565b820191906000526020600020905b81548152906001019060200180831161098557829003601f168201915b505050505081565b60008060019054906101000a900460ff161590508080156109db5750600160008054906101000a900460ff1660ff16105b80610a0857506109ea30611613565b158015610a075750600160008054906101000a900460ff1660ff16145b5b610a47576040517f08c379a0000000000000000000000000000000000000000000000000000000008152600401610a3e90612beb565b60405180910390fd5b60016000806101000a81548160ff021916908360ff1602179055508015610a84576001600060016101000a81548160ff0219169083151502179055505b610a8e8585611636565b610a96611693565b610a9f836116ec565b8160ce60006101000a81548163ffffffff021916908363ffffffff1602179055508015610b195760008060016101000a81548160ff0219169083151502179055507f7f26b83ff96e1f2b6a682f133852f6798a09c465da95921460cefb38474024986001604051610b109190612c5d565b60405180910390a15b5050505050565b600060c960009054906101000a900473ffffffffffffffffffffffffffffffffffffffff1673ffffffffffffffffffffffffffffffffffffffff168273ffffffffffffffffffffffffffffffffffffffff16149050919050565b6000806067600084815260200190815260200160002060009054906101000a900473ffffffffffffffffffffffffffffffffffffffff169050600073ffffffffffffffffffffffffffffffffffffffff168173ffffffffffffffffffffffffffffffffffffffff1603610c22576040517f08c379a0000000000000000000000000000000000000000000000000000000008152600401610c1990612cc4565b60405180910390fd5b80915050919050565b60008073ffffffffffffffffffffffffffffffffffffffff168273ffffffffffffffffffffffffffffffffffffffff1603610c9b576040517f08c379a0000000000000000000000000000000000000000000000000000000008152600401610c9290612d56565b60405180910390fd5b606860008373ffffffffffffffffffffffffffffffffffffffff1673ffffffffffffffffffffffffffffffffffffffff168152602001908152602001600020549050919050565b610cea611730565b610cf460006117ae565b565b610cfe611730565b600060cd60008473ffffffffffffffffffffffffffffffffffffffff1673ffffffffffffffffffffffffffffffffffffffff1681526020019081526020016000205490508160cc600083815260200190815260200160002081905550505050565b600060c960009054906101000a900473ffffffffffffffffffffffffffffffffffffffff16905090565b6000609760009054906101000a900473ffffffffffffffffffffffffffffffffffffffff16905090565b606060668054610dc290612992565b80601f0160208091040260200160405190810160405280929190818152602001828054610dee90612992565b8015610e3b5780601f10610e1057610100808354040283529160200191610e3b565b820191906000526020600020905b815481529060010190602001808311610e1e57829003601f168201915b5050505050905090565b610e4d611730565b6000610e5883610c2b565b14610e98576040517f08c379a0000000000000000000000000000000000000000000000000000000008152600401610e8f90612dc2565b60405180910390fd5b6000610ea460ca611874565b9050610eb08382611882565b8160cc6000838152602001908152602001600020819055508060cd60008573ffffffffffffffffffffffffffffffffffffffff1673ffffffffffffffffffffffffffffffffffffffff16815260200190815260200160002081905550610f1660ca6118a0565b505050565b610f2d610f26611250565b83836118b6565b5050565b610f42610f3c611250565b83611318565b610f81576040517f08c379a0000000000000000000000000000000000000000000000000000000008152600401610f7890612b59565b60405180910390fd5b610f8d84848484611a22565b50505050565b6060610f9e82611205565b6000610fa8611a7e565b90506000815111610fc85760405180602001604052806000815250610ff3565b80610fd284611abb565b604051602001610fe3929190612e1e565b6040516020818303038152906040525b915050919050565b611003611730565b61100c816116ec565b50565b6000606a60008473ffffffffffffffffffffffffffffffffffffffff1673ffffffffffffffffffffffffffffffffffffffff16815260200190815260200160002060008373ffffffffffffffffffffffffffffffffffffffff1673ffffffffffffffffffffffffffffffffffffffff16815260200190815260200160002060009054906101000a900460ff16905092915050565b600060cd60008373ffffffffffffffffffffffffffffffffffffffff1673ffffffffffffffffffffffffffffffffffffffff168152602001908152602001600020549050919050565b6110f4611730565b600073ffffffffffffffffffffffffffffffffffffffff168173ffffffffffffffffffffffffffffffffffffffff1603611163576040517f08c379a000000000000000000000000000000000000000000000000000000000815260040161115a90612eb4565b60405180910390fd5b61116c816117ae565b50565b611177611730565b8060ce60006101000a81548163ffffffff021916908363ffffffff16021790555050565b60007f01ffc9a7000000000000000000000000000000000000000000000000000000007bffffffffffffffffffffffffffffffffffffffffffffffffffffffff1916827bffffffffffffffffffffffffffffffffffffffffffffffffffffffff1916149050919050565b61120e81611c1b565b61124d576040517f08c379a000000000000000000000000000000000000000000000000000000000815260040161124490612cc4565b60405180910390fd5b50565b600061125a611c87565b905090565b816069600083815260200190815260200160002060006101000a81548173ffffffffffffffffffffffffffffffffffffffff021916908373ffffffffffffffffffffffffffffffffffffffff160217905550808273ffffffffffffffffffffffffffffffffffffffff166112d283610b7a565b73ffffffffffffffffffffffffffffffffffffffff167f8c5be1e5ebec7d5bd14f71427d1e84f3dd0314c0f7b2291e5b200ac8c7c3b92560405160405180910390a45050565b60008061132483610b7a565b90508073ffffffffffffffffffffffffffffffffffffffff168473ffffffffffffffffffffffffffffffffffffffff1614806113665750611365818561100f565b5b806113a457508373ffffffffffffffffffffffffffffffffffffffff1661138c846106c4565b73ffffffffffffffffffffffffffffffffffffffff16145b91505092915050565b8273ffffffffffffffffffffffffffffffffffffffff166113cd82610b7a565b73ffffffffffffffffffffffffffffffffffffffff1614611423576040517f08c379a000000000000000000000000000000000000000000000000000000000815260040161141a90612f46565b60405180910390fd5b600073ffffffffffffffffffffffffffffffffffffffff168273ffffffffffffffffffffffffffffffffffffffff1603611492576040517f08c379a000000000000000000000000000000000000000000000000000000000815260040161148990612fd8565b60405180910390fd5b61149d838383611cbe565b6114a860008261125f565b6001606860008573ffffffffffffffffffffffffffffffffffffffff1673ffffffffffffffffffffffffffffffffffffffff16815260200190815260200160002060008282546114f89190613027565b925050819055506001606860008473ffffffffffffffffffffffffffffffffffffffff1673ffffffffffffffffffffffffffffffffffffffff168152602001908152602001600020600082825461154f919061305b565b92505081905550816067600083815260200190815260200160002060006101000a81548173ffffffffffffffffffffffffffffffffffffffff021916908373ffffffffffffffffffffffffffffffffffffffff160217905550808273ffffffffffffffffffffffffffffffffffffffff168473ffffffffffffffffffffffffffffffffffffffff167fddf252ad1be2c89b69c2b068fc378daa952ba7f163c4a11628f55a4df523b3ef60405160405180910390a461160e838383611d3d565b505050565b6000808273ffffffffffffffffffffffffffffffffffffffff163b119050919050565b600060019054906101000a900460ff16611685576040517f08c379a000000000000000000000000000000000000000000000000000000000815260040161167c90613101565b60405180910390fd5b61168f8282611d42565b5050565b600060019054906101000a900460ff166116e2576040517f08c379a00000000000000000000000000000000000000000000000000000000081526004016116d990613101565b60405180910390fd5b6116ea611db5565b565b8060c960006101000a81548173ffffffffffffffffffffffffffffffffffffffff021916908373ffffffffffffffffffffffffffffffffffffffff16021790555050565b611738611250565b73ffffffffffffffffffffffffffffffffffffffff16611756610d89565b73ffffffffffffffffffffffffffffffffffffffff16146117ac576040517f08c379a00000000000000000000000000000000000000000000000000000000081526004016117a39061316d565b60405180910390fd5b565b6000609760009054906101000a900473ffffffffffffffffffffffffffffffffffffffff16905081609760006101000a81548173ffffffffffffffffffffffffffffffffffffffff021916908373ffffffffffffffffffffffffffffffffffffffff1602179055508173ffffffffffffffffffffffffffffffffffffffff168173ffffffffffffffffffffffffffffffffffffffff167f8be0079c531659141344cd1fd0a4f28419497f9722a3daafe3b4186f6b6457e060405160405180910390a35050565b600081600001549050919050565b61189c828260405180602001604052806000815250611e16565b5050565b6001816000016000828254019250508190555050565b8173ffffffffffffffffffffffffffffffffffffffff168373ffffffffffffffffffffffffffffffffffffffff1603611924576040517f08c379a000000000000000000000000000000000000000000000000000000000815260040161191b906131d9565b60405180910390fd5b80606a60008573ffffffffffffffffffffffffffffffffffffffff1673ffffffffffffffffffffffffffffffffffffffff16815260200190815260200160002060008473ffffffffffffffffffffffffffffffffffffffff1673ffffffffffffffffffffffffffffffffffffffff16815260200190815260200160002060006101000a81548160ff0219169083151502179055508173ffffffffffffffffffffffffffffffffffffffff168373ffffffffffffffffffffffffffffffffffffffff167f17307eab39ab6107e8899845ad3d59bd9653f200f220920489ca2b5937696c3183604051611a15919061228a565b60405180910390a3505050565b611a2d8484846113ad565b611a3984848484611e71565b611a78576040517f08c379a0000000000000000000000000000000000000000000000000000000008152600401611a6f9061326b565b60405180910390fd5b50505050565b60606040518060400160405280601981526020017f68747470733a2f2f636c7562686f7573652e636f6d2f6e667400000000000000815250905090565b606060008203611b02576040518060400160405280600181526020017f30000000000000000000000000000000000000000000000000000000000000008152509050611c16565b600082905060005b60008214611b34578080611b1d9061328b565b915050600a82611b2d9190613302565b9150611b0a565b60008167ffffffffffffffff811115611b5057611b4f612570565b5b6040519080825280601f01601f191660200182016040528015611b825781602001600182028036833780820191505090505b5090505b60008514611c0f57600182611b9b9190613027565b9150600a85611baa9190613333565b6030611bb6919061305b565b60f81b818381518110611bcc57611bcb613364565b5b60200101907effffffffffffffffffffffffffffffffffffffffffffffffffffffffffffff1916908160001a905350600a85611c089190613302565b9450611b86565b8093505050505b919050565b60008073ffffffffffffffffffffffffffffffffffffffff166067600084815260200190815260200160002060009054906101000a900473ffffffffffffffffffffffffffffffffffffffff1673ffffffffffffffffffffffffffffffffffffffff1614159050919050565b60006014600036905010158015611ca35750611ca233610b20565b5b15611cb757601436033560601c9050611cbb565b3390505b90565b600073ffffffffffffffffffffffffffffffffffffffff168373ffffffffffffffffffffffffffffffffffffffff1614611d2d576040517f08c379a0000000000000000000000000000000000000000000000000000000008152600401611d24906133df565b60405180910390fd5b611d38838383611ff8565b505050565b505050565b600060019054906101000a900460ff16611d91576040517f08c379a0000000000000000000000000000000000000000000000000000000008152600401611d8890613101565b60405180910390fd5b8160659081611da091906135a1565b508060669081611db091906135a1565b505050565b600060019054906101000a900460ff16611e04576040517f08c379a0000000000000000000000000000000000000000000000000000000008152600401611dfb90613101565b60405180910390fd5b611e14611e0f611250565b6117ae565b565b611e208383611ffd565b611e2d6000848484611e71565b611e6c576040517f08c379a0000000000000000000000000000000000000000000000000000000008152600401611e639061326b565b60405180910390fd5b505050565b6000611e928473ffffffffffffffffffffffffffffffffffffffff16611613565b15611feb578373ffffffffffffffffffffffffffffffffffffffff1663150b7a02611ebb611250565b8786866040518563ffffffff1660e01b8152600401611edd94939291906136c8565b6020604051808303816000875af1925050508015611f1957506040513d601f19601f82011682018060405250810190611f169190613729565b60015b611f9b573d8060008114611f49576040519150601f19603f3d011682016040523d82523d6000602084013e611f4e565b606091505b506000815103611f93576040517f08c379a0000000000000000000000000000000000000000000000000000000008152600401611f8a9061326b565b60405180910390fd5b805181602001fd5b63150b7a0260e01b7bffffffffffffffffffffffffffffffffffffffffffffffffffffffff1916817bffffffffffffffffffffffffffffffffffffffffffffffffffffffff191614915050611ff0565b600190505b949350505050565b505050565b600073ffffffffffffffffffffffffffffffffffffffff168273ffffffffffffffffffffffffffffffffffffffff160361206c576040517f08c379a0000000000000000000000000000000000000000000000000000000008152600401612063906137a2565b60405180910390fd5b61207581611c1b565b156120b5576040517f08c379a00000000000000000000000000000000000000000000000000000000081526004016120ac9061380e565b60405180910390fd5b6120c160008383611cbe565b6001606860008473ffffffffffffffffffffffffffffffffffffffff1673ffffffffffffffffffffffffffffffffffffffff1681526020019081526020016000206000828254612111919061305b565b92505081905550816067600083815260200190815260200160002060006101000a81548173ffffffffffffffffffffffffffffffffffffffff021916908373ffffffffffffffffffffffffffffffffffffffff160217905550808273ffffffffffffffffffffffffffffffffffffffff16600073ffffffffffffffffffffffffffffffffffffffff167fddf252ad1be2c89b69c2b068fc378daa952ba7f163c4a11628f55a4df523b3ef60405160405180910390a46121d260008383611d3d565b5050565b6000604051905090565b600080fd5b600080fd5b60007fffffffff0000000000000000000000000000000000000000000000000000000082169050919050565b61221f816121ea565b811461222a57600080fd5b50565b60008135905061223c81612216565b92915050565b600060208284031215612258576122576121e0565b5b60006122668482850161222d565b91505092915050565b60008115159050919050565b6122848161226f565b82525050565b600060208201905061229f600083018461227b565b92915050565b600081519050919050565b600082825260208201905092915050565b60005b838110156122df5780820151818401526020810190506122c4565b60008484015250505050565b6000601f19601f8301169050919050565b6000612307826122a5565b61231181856122b0565b93506123218185602086016122c1565b61232a816122eb565b840191505092915050565b6000602082019050818103600083015261234f81846122fc565b905092915050565b6000819050919050565b61236a81612357565b811461237557600080fd5b50565b60008135905061238781612361565b92915050565b6000602082840312156123a3576123a26121e0565b5b60006123b184828501612378565b91505092915050565b600073ffffffffffffffffffffffffffffffffffffffff82169050919050565b60006123e5826123ba565b9050919050565b6123f5816123da565b82525050565b600060208201905061241060008301846123ec565b92915050565b61241f816123da565b811461242a57600080fd5b50565b60008135905061243c81612416565b92915050565b60008060408385031215612459576124586121e0565b5b60006124678582860161242d565b925050602061247885828601612378565b9150509250929050565b600063ffffffff82169050919050565b61249b81612482565b82525050565b60006020820190506124b66000830184612492565b92915050565b6000806000606084860312156124d5576124d46121e0565b5b60006124e38682870161242d565b93505060206124f48682870161242d565b925050604061250586828701612378565b9150509250925092565b600060208284031215612525576125246121e0565b5b60006125338482850161242d565b91505092915050565b61254581612357565b82525050565b6000602082019050612560600083018461253c565b92915050565b600080fd5b600080fd5b7f4e487b7100000000000000000000000000000000000000000000000000000000600052604160045260246000fd5b6125a8826122eb565b810181811067ffffffffffffffff821117156125c7576125c6612570565b5b80604052505050565b60006125da6121d6565b90506125e6828261259f565b919050565b600067ffffffffffffffff82111561260657612605612570565b5b61260f826122eb565b9050602081019050919050565b82818337600083830152505050565b600061263e612639846125eb565b6125d0565b90508281526020810184848401111561265a5761265961256b565b5b61266584828561261c565b509392505050565b600082601f83011261268257612681612566565b5b813561269284826020860161262b565b91505092915050565b6126a481612482565b81146126af57600080fd5b50565b6000813590506126c18161269b565b92915050565b600080600080608085870312156126e1576126e06121e0565b5b600085013567ffffffffffffffff8111156126ff576126fe6121e5565b5b61270b8782880161266d565b945050602085013567ffffffffffffffff81111561272c5761272b6121e5565b5b6127388782880161266d565b93505060406127498782880161242d565b925050606061275a878288016126b2565b91505092959194509250565b61276f8161226f565b811461277a57600080fd5b50565b60008135905061278c81612766565b92915050565b600080604083850312156127a9576127a86121e0565b5b60006127b78582860161242d565b92505060206127c88582860161277d565b9150509250929050565b600067ffffffffffffffff8211156127ed576127ec612570565b5b6127f6826122eb565b9050602081019050919050565b6000612816612811846127d2565b6125d0565b9050828152602081018484840111156128325761283161256b565b5b61283d84828561261c565b509392505050565b600082601f83011261285a57612859612566565b5b813561286a848260208601612803565b91505092915050565b6000806000806080858703121561288d5761288c6121e0565b5b600061289b8782880161242d565b94505060206128ac8782880161242d565b93505060406128bd87828801612378565b925050606085013567ffffffffffffffff8111156128de576128dd6121e5565b5b6128ea87828801612845565b91505092959194509250565b6000806040838503121561290d5761290c6121e0565b5b600061291b8582860161242d565b925050602061292c8582860161242d565b9150509250929050565b60006020828403121561294c5761294b6121e0565b5b600061295a848285016126b2565b91505092915050565b7f4e487b7100000000000000000000000000000000000000000000000000000000600052602260045260246000fd5b600060028204905060018216806129aa57607f821691505b6020821081036129bd576129bc612963565b5b50919050565b7f4552433732313a20617070726f76616c20746f2063757272656e74206f776e6560008201527f7200000000000000000000000000000000000000000000000000000000000000602082015250565b6000612a1f6021836122b0565b9150612a2a826129c3565b604082019050919050565b60006020820190508181036000830152612a4e81612a12565b9050919050565b7f4552433732313a20617070726f76652063616c6c6572206973206e6f7420746f60008201527f6b656e206f776e6572206e6f7220617070726f76656420666f7220616c6c0000602082015250565b6000612ab1603e836122b0565b9150612abc82612a55565b604082019050919050565b60006020820190508181036000830152612ae081612aa4565b9050919050565b7f4552433732313a2063616c6c6572206973206e6f7420746f6b656e206f776e6560008201527f72206e6f7220617070726f766564000000000000000000000000000000000000602082015250565b6000612b43602e836122b0565b9150612b4e82612ae7565b604082019050919050565b60006020820190508181036000830152612b7281612b36565b9050919050565b7f496e697469616c697a61626c653a20636f6e747261637420697320616c72656160008201527f647920696e697469616c697a6564000000000000000000000000000000000000602082015250565b6000612bd5602e836122b0565b9150612be082612b79565b604082019050919050565b60006020820190508181036000830152612c0481612bc8565b9050919050565b6000819050919050565b600060ff82169050919050565b6000819050919050565b6000612c47612c42612c3d84612c0b565b612c22565b612c15565b9050919050565b612c5781612c2c565b82525050565b6000602082019050612c726000830184612c4e565b92915050565b7f4552433732313a20696e76616c696420746f6b656e2049440000000000000000600082015250565b6000612cae6018836122b0565b9150612cb982612c78565b602082019050919050565b60006020820190508181036000830152612cdd81612ca1565b9050919050565b7f4552433732313a2061646472657373207a65726f206973206e6f74206120766160008201527f6c6964206f776e65720000000000000000000000000000000000000000000000602082015250565b6000612d406029836122b0565b9150612d4b82612ce4565b604082019050919050565b60006020820190508181036000830152612d6f81612d33565b9050919050565b7f62616c616e63654f6628746f29203e2030000000000000000000000000000000600082015250565b6000612dac6011836122b0565b9150612db782612d76565b602082019050919050565b60006020820190508181036000830152612ddb81612d9f565b9050919050565b600081905092915050565b6000612df8826122a5565b612e028185612de2565b9350612e128185602086016122c1565b80840191505092915050565b6000612e2a8285612ded565b9150612e368284612ded565b91508190509392505050565b7f4f776e61626c653a206e6577206f776e657220697320746865207a65726f206160008201527f6464726573730000000000000000000000000000000000000000000000000000602082015250565b6000612e9e6026836122b0565b9150612ea982612e42565b604082019050919050565b60006020820190508181036000830152612ecd81612e91565b9050919050565b7f4552433732313a207472616e736665722066726f6d20696e636f72726563742060008201527f6f776e6572000000000000000000000000000000000000000000000000000000602082015250565b6000612f306025836122b0565b9150612f3b82612ed4565b604082019050919050565b60006020820190508181036000830152612f5f81612f23565b9050919050565b7f4552433732313a207472616e7366657220746f20746865207a65726f2061646460008201527f7265737300000000000000000000000000000000000000000000000000000000602082015250565b6000612fc26024836122b0565b9150612fcd82612f66565b604082019050919050565b60006020820190508181036000830152612ff181612fb5565b9050919050565b7f4e487b7100000000000000000000000000000000000000000000000000000000600052601160045260246000fd5b600061303282612357565b915061303d83612357565b925082820390508181111561305557613054612ff8565b5b92915050565b600061306682612357565b915061307183612357565b925082820190508082111561308957613088612ff8565b5b92915050565b7f496e697469616c697a61626c653a20636f6e7472616374206973206e6f74206960008201527f6e697469616c697a696e67000000000000000000000000000000000000000000602082015250565b60006130eb602b836122b0565b91506130f68261308f565b604082019050919050565b6000602082019050818103600083015261311a816130de565b9050919050565b7f4f776e61626c653a2063616c6c6572206973206e6f7420746865206f776e6572600082015250565b60006131576020836122b0565b915061316282613121565b602082019050919050565b600060208201905081810360008301526131868161314a565b9050919050565b7f4552433732313a20617070726f766520746f2063616c6c657200000000000000600082015250565b60006131c36019836122b0565b91506131ce8261318d565b602082019050919050565b600060208201905081810360008301526131f2816131b6565b9050919050565b7f4552433732313a207472616e7366657220746f206e6f6e20455243373231526560008201527f63656976657220696d706c656d656e7465720000000000000000000000000000602082015250565b60006132556032836122b0565b9150613260826131f9565b604082019050919050565b6000602082019050818103600083015261328481613248565b9050919050565b600061329682612357565b91507fffffffffffffffffffffffffffffffffffffffffffffffffffffffffffffffff82036132c8576132c7612ff8565b5b600182019050919050565b7f4e487b7100000000000000000000000000000000000000000000000000000000600052601260045260246000fd5b600061330d82612357565b915061331883612357565b925082613328576133276132d3565b5b828204905092915050565b600061333e82612357565b915061334983612357565b925082613359576133586132d3565b5b828206905092915050565b7f4e487b7100000000000000000000000000000000000000000000000000000000600052603260045260246000fd5b7f6e6f6e207472616e7366657261626c6500000000000000000000000000000000600082015250565b60006133c96010836122b0565b91506133d482613393565b602082019050919050565b600060208201905081810360008301526133f8816133bc565b9050919050565b60008190508160005260206000209050919050565b60006020601f8301049050919050565b600082821b905092915050565b6000600883026134617fffffffffffffffffffffffffffffffffffffffffffffffffffffffffffffffff82613424565b61346b8683613424565b95508019841693508086168417925050509392505050565b600061349e61349961349484612357565b612c22565b612357565b9050919050565b6000819050919050565b6134b883613483565b6134cc6134c4826134a5565b848454613431565b825550505050565b600090565b6134e16134d4565b6134ec8184846134af565b505050565b5b81811015613510576135056000826134d9565b6001810190506134f2565b5050565b601f82111561355557613526816133ff565b61352f84613414565b8101602085101561353e578190505b61355261354a85613414565b8301826134f1565b50505b505050565b600082821c905092915050565b60006135786000198460080261355a565b1980831691505092915050565b60006135918383613567565b9150826002028217905092915050565b6135aa826122a5565b67ffffffffffffffff8111156135c3576135c2612570565b5b6135cd8254612992565b6135d8828285613514565b600060209050601f83116001811461360b57600084156135f9578287015190505b6136038582613585565b86555061366b565b601f198416613619866133ff565b60005b828110156136415784890151825560018201915060208501945060208101905061361c565b8683101561365e578489015161365a601f891682613567565b8355505b6001600288020188555050505b505050505050565b600081519050919050565b600082825260208201905092915050565b600061369a82613673565b6136a4818561367e565b93506136b48185602086016122c1565b6136bd816122eb565b840191505092915050565b60006080820190506136dd60008301876123ec565b6136ea60208301866123ec565b6136f7604083018561253c565b8181036060830152613709818461368f565b905095945050505050565b60008151905061372381612216565b92915050565b60006020828403121561373f5761373e6121e0565b5b600061374d84828501613714565b91505092915050565b7f4552433732313a206d696e7420746f20746865207a65726f2061646472657373600082015250565b600061378c6020836122b0565b915061379782613756565b602082019050919050565b600060208201905081810360008301526137bb8161377f565b9050919050565b7f4552433732313a20746f6b656e20616c7265616479206d696e74656400000000600082015250565b60006137f8601c836122b0565b9150613803826137c2565b602082019050919050565b60006020820190508181036000830152613827816137eb565b905091905056fea26469706673582212200cb46ce23bedebf9d3eff6553adf8458e024d868f7fd58625231592c7339892d64736f6c63430008110033",
  "devdoc": {
    "kind": "dev",
    "methods": {
      "approve(address,uint256)": {
        "details": "See {IERC721-approve}."
      },
      "balanceOf(address)": {
        "details": "See {IERC721-balanceOf}."
      },
      "getApproved(uint256)": {
        "details": "See {IERC721-getApproved}."
      },
      "isApprovedForAll(address,address)": {
        "details": "See {IERC721-isApprovedForAll}."
      },
      "name()": {
        "details": "See {IERC721Metadata-name}."
      },
      "owner()": {
        "details": "Returns the address of the current owner."
      },
      "ownerOf(uint256)": {
        "details": "See {IERC721-ownerOf}."
      },
      "renounceOwnership()": {
        "details": "Leaves the contract without owner. It will not be possible to call `onlyOwner` functions anymore. Can only be called by the current owner. NOTE: Renouncing ownership will leave the contract without an owner, thereby removing any functionality that is only available to the owner."
      },
      "safeTransferFrom(address,address,uint256)": {
        "details": "See {IERC721-safeTransferFrom}."
      },
      "safeTransferFrom(address,address,uint256,bytes)": {
        "details": "See {IERC721-safeTransferFrom}."
      },
      "setApprovalForAll(address,bool)": {
        "details": "See {IERC721-setApprovalForAll}."
      },
      "supportsInterface(bytes4)": {
        "details": "See {IERC165-supportsInterface}."
      },
      "symbol()": {
        "details": "See {IERC721Metadata-symbol}."
      },
      "tokenURI(uint256)": {
        "details": "See {IERC721Metadata-tokenURI}."
      },
      "transferFrom(address,address,uint256)": {
        "details": "See {IERC721-transferFrom}."
      },
      "transferOwnership(address)": {
        "details": "Transfers ownership of the contract to a new account (`newOwner`). Can only be called by the current owner."
      }
    },
    "version": 1
  },
  "userdoc": {
    "kind": "user",
    "methods": {
      "getDisplayType()": {
        "notice": "Gets the expiry timestamp for a given address"
      },
      "getExpiryTimestamp(address)": {
        "notice": "Gets the expiry timestamp for a given address"
      },
      "getTokenId(address)": {
        "notice": "Gets the tokenId for a given address. Since a single address can only hold a single token, each address corresponds to at most one tokenId"
      },
      "isTrustedForwarder(address)": {
        "notice": "return if the forwarder is trusted to forward relayed transactions to us. the forwarder is required to verify the sender's signature, and verify the call is not a replay."
      },
      "safeMint(address,uint256)": {
        "notice": "Mints an ERC-721 token to the address `to` with a subscription expiry timestsamp of `expiryTimestamp`"
      },
      "setDisplayType(uint32)": {
        "notice": "Updates the NFT display type for a given address"
      },
      "setTrustedForwarder(address)": {
        "notice": "Sets the trusted forwarder for meta-transactions (EIP-2771)"
      },
      "updateExpiryTimestamp(address,uint256)": {
        "notice": "Updates the expiry timestamp for a given address"
      }
    },
    "version": 1
  },
  "storageLayout": {
    "storage": [
      {
        "astId": 456,
        "contract": "contracts/MembershipERC721.sol:MembershipERC721",
        "label": "_initialized",
        "offset": 0,
        "slot": "0",
        "type": "t_uint8"
      },
      {
        "astId": 459,
        "contract": "contracts/MembershipERC721.sol:MembershipERC721",
        "label": "_initializing",
        "offset": 1,
        "slot": "0",
        "type": "t_bool"
      },
      {
        "astId": 2064,
        "contract": "contracts/MembershipERC721.sol:MembershipERC721",
        "label": "__gap",
        "offset": 0,
        "slot": "1",
        "type": "t_array(t_uint256)50_storage"
      },
      {
        "astId": 2946,
        "contract": "contracts/MembershipERC721.sol:MembershipERC721",
        "label": "__gap",
        "offset": 0,
        "slot": "51",
        "type": "t_array(t_uint256)50_storage"
      },
      {
        "astId": 756,
        "contract": "contracts/MembershipERC721.sol:MembershipERC721",
        "label": "_name",
        "offset": 0,
        "slot": "101",
        "type": "t_string_storage"
      },
      {
        "astId": 758,
        "contract": "contracts/MembershipERC721.sol:MembershipERC721",
        "label": "_symbol",
        "offset": 0,
        "slot": "102",
        "type": "t_string_storage"
      },
      {
        "astId": 762,
        "contract": "contracts/MembershipERC721.sol:MembershipERC721",
        "label": "_owners",
        "offset": 0,
        "slot": "103",
        "type": "t_mapping(t_uint256,t_address)"
      },
      {
        "astId": 766,
        "contract": "contracts/MembershipERC721.sol:MembershipERC721",
        "label": "_balances",
        "offset": 0,
        "slot": "104",
        "type": "t_mapping(t_address,t_uint256)"
      },
      {
        "astId": 770,
        "contract": "contracts/MembershipERC721.sol:MembershipERC721",
        "label": "_tokenApprovals",
        "offset": 0,
        "slot": "105",
        "type": "t_mapping(t_uint256,t_address)"
      },
      {
        "astId": 776,
        "contract": "contracts/MembershipERC721.sol:MembershipERC721",
        "label": "_operatorApprovals",
        "offset": 0,
        "slot": "106",
        "type": "t_mapping(t_address,t_mapping(t_address,t_bool))"
      },
      {
        "astId": 1618,
        "contract": "contracts/MembershipERC721.sol:MembershipERC721",
        "label": "__gap",
        "offset": 0,
        "slot": "107",
        "type": "t_array(t_uint256)44_storage"
      },
      {
        "astId": 140,
        "contract": "contracts/MembershipERC721.sol:MembershipERC721",
        "label": "_owner",
        "offset": 0,
        "slot": "151",
        "type": "t_address"
      },
      {
        "astId": 260,
        "contract": "contracts/MembershipERC721.sol:MembershipERC721",
        "label": "__gap",
        "offset": 0,
        "slot": "152",
        "type": "t_array(t_uint256)49_storage"
      },
      {
        "astId": 7,
        "contract": "contracts/MembershipERC721.sol:MembershipERC721",
        "label": "_trustedForwarder",
        "offset": 0,
        "slot": "201",
        "type": "t_address"
      },
      {
        "astId": 6080,
        "contract": "contracts/MembershipERC721.sol:MembershipERC721",
        "label": "_tokenIdCounter",
        "offset": 0,
        "slot": "202",
        "type": "t_struct(Counter)2071_storage"
      },
      {
        "astId": 6084,
        "contract": "contracts/MembershipERC721.sol:MembershipERC721",
        "label": "versionRecipient",
        "offset": 0,
        "slot": "203",
        "type": "t_string_storage"
      },
      {
        "astId": 6088,
        "contract": "contracts/MembershipERC721.sol:MembershipERC721",
        "label": "_tokenIdExpiryTimestamps",
        "offset": 0,
        "slot": "204",
        "type": "t_mapping(t_uint256,t_uint256)"
      },
      {
        "astId": 6092,
        "contract": "contracts/MembershipERC721.sol:MembershipERC721",
        "label": "_ownerTokenIds",
        "offset": 0,
        "slot": "205",
        "type": "t_mapping(t_address,t_uint256)"
      },
      {
        "astId": 6094,
        "contract": "contracts/MembershipERC721.sol:MembershipERC721",
        "label": "displayType",
        "offset": 0,
        "slot": "206",
        "type": "t_uint32"
      }
    ],
    "types": {
      "t_address": {
        "encoding": "inplace",
        "label": "address",
        "numberOfBytes": "20"
      },
      "t_array(t_uint256)44_storage": {
        "base": "t_uint256",
        "encoding": "inplace",
        "label": "uint256[44]",
        "numberOfBytes": "1408"
      },
      "t_array(t_uint256)49_storage": {
        "base": "t_uint256",
        "encoding": "inplace",
        "label": "uint256[49]",
        "numberOfBytes": "1568"
      },
      "t_array(t_uint256)50_storage": {
        "base": "t_uint256",
        "encoding": "inplace",
        "label": "uint256[50]",
        "numberOfBytes": "1600"
      },
      "t_bool": {
        "encoding": "inplace",
        "label": "bool",
        "numberOfBytes": "1"
      },
      "t_mapping(t_address,t_bool)": {
        "encoding": "mapping",
        "key": "t_address",
        "label": "mapping(address => bool)",
        "numberOfBytes": "32",
        "value": "t_bool"
      },
      "t_mapping(t_address,t_mapping(t_address,t_bool))": {
        "encoding": "mapping",
        "key": "t_address",
        "label": "mapping(address => mapping(address => bool))",
        "numberOfBytes": "32",
        "value": "t_mapping(t_address,t_bool)"
      },
      "t_mapping(t_address,t_uint256)": {
        "encoding": "mapping",
        "key": "t_address",
        "label": "mapping(address => uint256)",
        "numberOfBytes": "32",
        "value": "t_uint256"
      },
      "t_mapping(t_uint256,t_address)": {
        "encoding": "mapping",
        "key": "t_uint256",
        "label": "mapping(uint256 => address)",
        "numberOfBytes": "32",
        "value": "t_address"
      },
      "t_mapping(t_uint256,t_uint256)": {
        "encoding": "mapping",
        "key": "t_uint256",
        "label": "mapping(uint256 => uint256)",
        "numberOfBytes": "32",
        "value": "t_uint256"
      },
      "t_string_storage": {
        "encoding": "bytes",
        "label": "string",
        "numberOfBytes": "32"
      },
      "t_struct(Counter)2071_storage": {
        "encoding": "inplace",
        "label": "struct CountersUpgradeable.Counter",
        "members": [
          {
            "astId": 2070,
            "contract": "contracts/MembershipERC721.sol:MembershipERC721",
            "label": "_value",
            "offset": 0,
            "slot": "0",
            "type": "t_uint256"
          }
        ],
        "numberOfBytes": "32"
      },
      "t_uint256": {
        "encoding": "inplace",
        "label": "uint256",
        "numberOfBytes": "32"
      },
      "t_uint32": {
        "encoding": "inplace",
        "label": "uint32",
        "numberOfBytes": "4"
      },
      "t_uint8": {
        "encoding": "inplace",
        "label": "uint8",
        "numberOfBytes": "1"
      }
    }
  }
}