{
  "address": "0xe7f1725E7734CE288F8367e1Bb143E90bb3F0512",
  "abi": [
    {
      "anonymous": false,
      "inputs": [
        {
          "indexed": true,
          "internalType": "address",
          "name": "owner",
          "type": "address"
        },
        {
          "indexed": true,
          "internalType": "address",
          "name": "approved",
          "type": "address"
        },
        {
          "indexed": true,
          "internalType": "uint256",
          "name": "tokenId",
          "type": "uint256"
        }
      ],
      "name": "Approval",
      "type": "event"
    },
    {
      "anonymous": false,
      "inputs": [
        {
          "indexed": true,
          "internalType": "address",
          "name": "owner",
          "type": "address"
        },
        {
          "indexed": true,
          "internalType": "address",
          "name": "operator",
          "type": "address"
        },
        {
          "indexed": false,
          "internalType": "bool",
          "name": "approved",
          "type": "bool"
        }
      ],
      "name": "ApprovalForAll",
      "type": "event"
    },
    {
      "anonymous": false,
      "inputs": [
        {
          "indexed": false,
          "internalType": "uint8",
          "name": "version",
          "type": "uint8"
        }
      ],
      "name": "Initialized",
      "type": "event"
    },
    {
      "anonymous": false,
      "inputs": [
        {
          "indexed": true,
          "internalType": "address",
          "name": "previousOwner",
          "type": "address"
        },
        {
          "indexed": true,
          "internalType": "address",
          "name": "newOwner",
          "type": "address"
        }
      ],
      "name": "OwnershipTransferred",
      "type": "event"
    },
    {
      "anonymous": false,
      "inputs": [
        {
          "indexed": false,
          "internalType": "address",
          "name": "account",
          "type": "address"
        }
      ],
      "name": "Paused",
      "type": "event"
    },
    {
      "anonymous": false,
      "inputs": [
        {
          "indexed": true,
          "internalType": "address",
          "name": "from",
          "type": "address"
        },
        {
          "indexed": true,
          "internalType": "address",
          "name": "to",
          "type": "address"
        },
        {
          "indexed": true,
          "internalType": "uint256",
          "name": "tokenId",
          "type": "uint256"
        }
      ],
      "name": "Transfer",
      "type": "event"
    },
    {
      "anonymous": false,
      "inputs": [
        {
          "indexed": false,
          "internalType": "address",
          "name": "account",
          "type": "address"
        }
      ],
      "name": "Unpaused",
      "type": "event"
    },
    {
      "inputs": [
        {
          "internalType": "address",
          "name": "to",
          "type": "address"
        },
        {
          "internalType": "uint256",
          "name": "tokenId",
          "type": "uint256"
        }
      ],
      "name": "approve",
      "outputs": [],
      "stateMutability": "nonpayable",
      "type": "function"
    },
    {
      "inputs": [
        {
          "internalType": "address",
          "name": "owner",
          "type": "address"
        }
      ],
      "name": "balanceOf",
      "outputs": [
        {
          "internalType": "uint256",
          "name": "",
          "type": "uint256"
        }
      ],
      "stateMutability": "view",
      "type": "function"
    },
    {
      "inputs": [
        {
          "internalType": "uint256",
          "name": "tokenId",
          "type": "uint256"
        }
      ],
      "name": "getApproved",
      "outputs": [
        {
          "internalType": "address",
          "name": "",
          "type": "address"
        }
      ],
      "stateMutability": "view",
      "type": "function"
    },
    {
      "inputs": [
        {
          "internalType": "address",
          "name": "owner",
          "type": "address"
        },
        {
          "internalType": "address",
          "name": "operator",
          "type": "address"
        }
      ],
      "name": "isApprovedForAll",
      "outputs": [
        {
          "internalType": "bool",
          "name": "",
          "type": "bool"
        }
      ],
      "stateMutability": "view",
      "type": "function"
    },
    {
      "inputs": [
        {
          "internalType": "address",
          "name": "forwarder",
          "type": "address"
        }
      ],
      "name": "isTrustedForwarder",
      "outputs": [
        {
          "internalType": "bool",
          "name": "",
          "type": "bool"
        }
      ],
      "stateMutability": "view",
      "type": "function"
    },
    {
      "inputs": [],
      "name": "name",
      "outputs": [
        {
          "internalType": "string",
          "name": "",
          "type": "string"
        }
      ],
      "stateMutability": "view",
      "type": "function"
    },
    {
      "inputs": [],
      "name": "owner",
      "outputs": [
        {
          "internalType": "address",
          "name": "",
          "type": "address"
        }
      ],
      "stateMutability": "view",
      "type": "function"
    },
    {
      "inputs": [
        {
          "internalType": "uint256",
          "name": "tokenId",
          "type": "uint256"
        }
      ],
      "name": "ownerOf",
      "outputs": [
        {
          "internalType": "address",
          "name": "",
          "type": "address"
        }
      ],
      "stateMutability": "view",
      "type": "function"
    },
    {
      "inputs": [],
      "name": "pause",
      "outputs": [],
      "stateMutability": "nonpayable",
      "type": "function"
    },
    {
      "inputs": [],
      "name": "paused",
      "outputs": [
        {
          "internalType": "bool",
          "name": "",
          "type": "bool"
        }
      ],
      "stateMutability": "view",
      "type": "function"
    },
    {
      "inputs": [],
      "name": "renounceOwnership",
      "outputs": [],
      "stateMutability": "nonpayable",
      "type": "function"
    },
    {
      "inputs": [
        {
          "internalType": "address",
          "name": "to",
          "type": "address"
        },
        {
          "internalType": "uint256",
          "name": "expiryTimestamp",
          "type": "uint256"
        }
      ],
      "name": "safeMint",
      "outputs": [],
      "stateMutability": "nonpayable",
      "type": "function"
    },
    {
      "inputs": [
        {
          "internalType": "address",
          "name": "from",
          "type": "address"
        },
        {
          "internalType": "address",
          "name": "to",
          "type": "address"
        },
        {
          "internalType": "uint256",
          "name": "tokenId",
          "type": "uint256"
        }
      ],
      "name": "safeTransferFrom",
      "outputs": [],
      "stateMutability": "nonpayable",
      "type": "function"
    },
    {
      "inputs": [
        {
          "internalType": "address",
          "name": "from",
          "type": "address"
        },
        {
          "internalType": "address",
          "name": "to",
          "type": "address"
        },
        {
          "internalType": "uint256",
          "name": "tokenId",
          "type": "uint256"
        },
        {
          "internalType": "bytes",
          "name": "data",
          "type": "bytes"
        }
      ],
      "name": "safeTransferFrom",
      "outputs": [],
      "stateMutability": "nonpayable",
      "type": "function"
    },
    {
      "inputs": [
        {
          "internalType": "address",
          "name": "operator",
          "type": "address"
        },
        {
          "internalType": "bool",
          "name": "approved",
          "type": "bool"
        }
      ],
      "name": "setApprovalForAll",
      "outputs": [],
      "stateMutability": "nonpayable",
      "type": "function"
    },
    {
      "inputs": [
        {
          "internalType": "string",
          "name": "name",
          "type": "string"
        },
        {
          "internalType": "string",
          "name": "symbol",
          "type": "string"
        },
        {
          "internalType": "address",
          "name": "trustedForwarder",
          "type": "address"
        }
      ],
      "name": "setUp",
      "outputs": [],
      "stateMutability": "nonpayable",
      "type": "function"
    },
    {
      "inputs": [
        {
          "internalType": "bytes4",
          "name": "interfaceId",
          "type": "bytes4"
        }
      ],
      "name": "supportsInterface",
      "outputs": [
        {
          "internalType": "bool",
          "name": "",
          "type": "bool"
        }
      ],
      "stateMutability": "view",
      "type": "function"
    },
    {
      "inputs": [],
      "name": "symbol",
      "outputs": [
        {
          "internalType": "string",
          "name": "",
          "type": "string"
        }
      ],
      "stateMutability": "view",
      "type": "function"
    },
    {
      "inputs": [
        {
          "internalType": "uint256",
          "name": "tokenId",
          "type": "uint256"
        }
      ],
      "name": "tokenURI",
      "outputs": [
        {
          "internalType": "string",
          "name": "",
          "type": "string"
        }
      ],
      "stateMutability": "view",
      "type": "function"
    },
    {
      "inputs": [
        {
          "internalType": "address",
          "name": "from",
          "type": "address"
        },
        {
          "internalType": "address",
          "name": "to",
          "type": "address"
        },
        {
          "internalType": "uint256",
          "name": "tokenId",
          "type": "uint256"
        }
      ],
      "name": "transferFrom",
      "outputs": [],
      "stateMutability": "nonpayable",
      "type": "function"
    },
    {
      "inputs": [
        {
          "internalType": "address",
          "name": "newOwner",
          "type": "address"
        }
      ],
      "name": "transferOwnership",
      "outputs": [],
      "stateMutability": "nonpayable",
      "type": "function"
    },
    {
      "inputs": [],
      "name": "trustedForwarder",
      "outputs": [
        {
          "internalType": "address",
          "name": "",
          "type": "address"
        }
      ],
      "stateMutability": "view",
      "type": "function"
    },
    {
      "inputs": [],
      "name": "unpause",
      "outputs": [],
      "stateMutability": "nonpayable",
      "type": "function"
    },
    {
      "inputs": [
        {
          "internalType": "address",
          "name": "to",
          "type": "address"
        },
        {
          "internalType": "uint256",
          "name": "updatedTimestamp",
          "type": "uint256"
        }
      ],
      "name": "updateExpiryTimestamp",
      "outputs": [],
      "stateMutability": "nonpayable",
      "type": "function"
    },
    {
      "inputs": [],
      "name": "versionRecipient",
      "outputs": [
        {
          "internalType": "string",
          "name": "",
          "type": "string"
        }
      ],
      "stateMutability": "view",
      "type": "function"
    }
  ],
  "numDeployments": 2,
  "solcInputHash": "c40265899bd99897d7425de5d7d9f979",
  "bytecode": "0x60806040526040518060400160405280600581526020017f322e322e3500000000000000000000000000000000000000000000000000000081525060fd90816200004a9190620002d9565b503480156200005857600080fd5b50620003c0565b600081519050919050565b7f4e487b7100000000000000000000000000000000000000000000000000000000600052604160045260246000fd5b7f4e487b7100000000000000000000000000000000000000000000000000000000600052602260045260246000fd5b60006002820490506001821680620000e157607f821691505b602082108103620000f757620000f662000099565b5b50919050565b60008190508160005260206000209050919050565b60006020601f8301049050919050565b600082821b905092915050565b600060088302620001617fffffffffffffffffffffffffffffffffffffffffffffffffffffffffffffffff8262000122565b6200016d868362000122565b95508019841693508086168417925050509392505050565b6000819050919050565b6000819050919050565b6000620001ba620001b4620001ae8462000185565b6200018f565b62000185565b9050919050565b6000819050919050565b620001d68362000199565b620001ee620001e582620001c1565b8484546200012f565b825550505050565b600090565b62000205620001f6565b62000212818484620001cb565b505050565b5b818110156200023a576200022e600082620001fb565b60018101905062000218565b5050565b601f82111562000289576200025381620000fd565b6200025e8462000112565b810160208510156200026e578190505b620002866200027d8562000112565b83018262000217565b50505b505050565b600082821c905092915050565b6000620002ae600019846008026200028e565b1980831691505092915050565b6000620002c983836200029b565b9150826002028217905092915050565b620002e4826200005f565b67ffffffffffffffff8111156200030057620002ff6200006a565b5b6200030c8254620000c8565b620003198282856200023e565b600060209050601f8311600181146200035157600084156200033c578287015190505b620003488582620002bb565b865550620003b8565b601f1984166200036186620000fd565b60005b828110156200038b5784890151825560018201915060208501945060208101905062000364565b86831015620003ab5784890151620003a7601f8916826200029b565b8355505b6001600288020188555050505b505050505050565b6136ab80620003d06000396000f3fe608060405234801561001057600080fd5b50600436106101735760003560e01c806370a08231116100de57806395d89b4111610097578063b88d4fde11610071578063b88d4fde146103fe578063c87b56dd1461041a578063e985e9c51461044a578063f2fde38b1461047a57610173565b806395d89b41146103a8578063a1448194146103c6578063a22cb465146103e257610173565b806370a082311461030c578063715018a61461033c5780637abb8114146103465780637da0a877146103625780638456cb59146103805780638da5cb5b1461038a57610173565b80633f4ba83a116101305780633f4ba83a1461024a57806342842e0e14610254578063486ff0cd14610270578063572b6c051461028e5780635c975abb146102be5780636352211e146102dc57610173565b806301ffc9a71461017857806306fdde03146101a8578063081812fc146101c6578063095ea7b3146101f65780631c2d0e711461021257806323b872dd1461022e575b600080fd5b610192600480360381019061018d9190612234565b610496565b60405161019f919061227c565b60405180910390f35b6101b0610578565b6040516101bd9190612327565b60405180910390f35b6101e060048036038101906101db919061237f565b61060a565b6040516101ed91906123ed565b60405180910390f35b610210600480360381019061020b9190612434565b610650565b005b61022c600480360381019061022791906125a9565b610767565b005b61024860048036038101906102439190612634565b6108bb565b005b61025261091b565b005b61026e60048036038101906102699190612634565b61092d565b005b61027861094d565b6040516102859190612327565b60405180910390f35b6102a860048036038101906102a39190612687565b6109db565b6040516102b5919061227c565b60405180910390f35b6102c6610a35565b6040516102d3919061227c565b60405180910390f35b6102f660048036038101906102f1919061237f565b610a4c565b60405161030391906123ed565b60405180910390f35b61032660048036038101906103219190612687565b610ad2565b60405161033391906126c3565b60405180910390f35b610344610b89565b005b610360600480360381019061035b9190612434565b610b9d565b005b61036a610c06565b60405161037791906123ed565b60405180910390f35b610388610c30565b005b610392610c42565b60405161039f91906123ed565b60405180910390f35b6103b0610c6c565b6040516103bd9190612327565b60405180910390f35b6103e060048036038101906103db9190612434565b610cfe565b005b6103fc60048036038101906103f7919061270a565b610dd4565b005b610418600480360381019061041391906127eb565b610dea565b005b610434600480360381019061042f919061237f565b610e4c565b6040516104419190612327565b60405180910390f35b610464600480360381019061045f919061286e565b610eb4565b604051610471919061227c565b60405180910390f35b610494600480360381019061048f9190612687565b610f48565b005b60007f80ac58cd000000000000000000000000000000000000000000000000000000007bffffffffffffffffffffffffffffffffffffffffffffffffffffffff1916827bffffffffffffffffffffffffffffffffffffffffffffffffffffffff1916148061056157507f5b5e139f000000000000000000000000000000000000000000000000000000007bffffffffffffffffffffffffffffffffffffffffffffffffffffffff1916827bffffffffffffffffffffffffffffffffffffffffffffffffffffffff1916145b80610571575061057082610fcb565b5b9050919050565b606060658054610587906128dd565b80601f01602080910402602001604051908101604052809291908181526020018280546105b3906128dd565b80156106005780601f106105d557610100808354040283529160200191610600565b820191906000526020600020905b8154815290600101906020018083116105e357829003601f168201915b5050505050905090565b600061061582611035565b6069600083815260200190815260200160002060009054906101000a900473ffffffffffffffffffffffffffffffffffffffff169050919050565b600061065b82610a4c565b90508073ffffffffffffffffffffffffffffffffffffffff168373ffffffffffffffffffffffffffffffffffffffff16036106cb576040517f08c379a00000000000000000000000000000000000000000000000000000000081526004016106c290612980565b60405180910390fd5b8073ffffffffffffffffffffffffffffffffffffffff166106ea611080565b73ffffffffffffffffffffffffffffffffffffffff161480610719575061071881610713611080565b610eb4565b5b610758576040517f08c379a000000000000000000000000000000000000000000000000000000000815260040161074f90612a12565b60405180910390fd5b610762838361108f565b505050565b60008060019054906101000a900460ff161590508080156107985750600160008054906101000a900460ff1660ff16105b806107c557506107a730611148565b1580156107c45750600160008054906101000a900460ff1660ff16145b5b610804576040517f08c379a00000000000000000000000000000000000000000000000000000000081526004016107fb90612aa4565b60405180910390fd5b60016000806101000a81548160ff021916908360ff1602179055508015610841576001600060016101000a81548160ff0219169083151502179055505b61084b848461116b565b610853610c30565b61085c826111c8565b80156108b55760008060016101000a81548160ff0219169083151502179055507f7f26b83ff96e1f2b6a682f133852f6798a09c465da95921460cefb384740249860016040516108ac9190612b16565b60405180910390a15b50505050565b6108cc6108c6611080565b8261120c565b61090b576040517f08c379a000000000000000000000000000000000000000000000000000000000815260040161090290612ba3565b60405180910390fd5b6109168383836112a1565b505050565b610923611596565b61092b611614565b565b61094883838360405180602001604052806000815250610dea565b505050565b60fd805461095a906128dd565b80601f0160208091040260200160405190810160405280929190818152602001828054610986906128dd565b80156109d35780601f106109a8576101008083540402835291602001916109d3565b820191906000526020600020905b8154815290600101906020018083116109b657829003601f168201915b505050505081565b600060fb60009054906101000a900473ffffffffffffffffffffffffffffffffffffffff1673ffffffffffffffffffffffffffffffffffffffff168273ffffffffffffffffffffffffffffffffffffffff16149050919050565b6000609760009054906101000a900460ff16905090565b600080610a5883611677565b9050600073ffffffffffffffffffffffffffffffffffffffff168173ffffffffffffffffffffffffffffffffffffffff1603610ac9576040517f08c379a0000000000000000000000000000000000000000000000000000000008152600401610ac090612c0f565b60405180910390fd5b80915050919050565b60008073ffffffffffffffffffffffffffffffffffffffff168273ffffffffffffffffffffffffffffffffffffffff1603610b42576040517f08c379a0000000000000000000000000000000000000000000000000000000008152600401610b3990612ca1565b60405180910390fd5b606860008373ffffffffffffffffffffffffffffffffffffffff1673ffffffffffffffffffffffffffffffffffffffff168152602001908152602001600020549050919050565b610b91611596565b610b9b60006116b4565b565b610ba5611596565b600060ff60008473ffffffffffffffffffffffffffffffffffffffff1673ffffffffffffffffffffffffffffffffffffffff1681526020019081526020016000205490508160fe600083815260200190815260200160002081905550505050565b600060fb60009054906101000a900473ffffffffffffffffffffffffffffffffffffffff16905090565b610c38611596565b610c4061177a565b565b600060c960009054906101000a900473ffffffffffffffffffffffffffffffffffffffff16905090565b606060668054610c7b906128dd565b80601f0160208091040260200160405190810160405280929190818152602001828054610ca7906128dd565b8015610cf45780601f10610cc957610100808354040283529160200191610cf4565b820191906000526020600020905b815481529060010190602001808311610cd757829003601f168201915b5050505050905090565b610d06611596565b6000610d1260fc6117dd565b9050610d1e60fc6117eb565b6000610d2984610ad2565b14610d69576040517f08c379a0000000000000000000000000000000000000000000000000000000008152600401610d6090612d0d565b60405180910390fd5b610d738382611801565b8160fe6000838152602001908152602001600020819055508060ff60008573ffffffffffffffffffffffffffffffffffffffff1673ffffffffffffffffffffffffffffffffffffffff16815260200190815260200160002081905550505050565b610de6610ddf611080565b838361181f565b5050565b610dfb610df5611080565b8361120c565b610e3a576040517f08c379a0000000000000000000000000000000000000000000000000000000008152600401610e3190612ba3565b60405180910390fd5b610e468484848461198b565b50505050565b6060610e5782611035565b6000610e616119e7565b90506000815111610e815760405180602001604052806000815250610eac565b80610e8b84611a24565b604051602001610e9c929190612d69565b6040516020818303038152906040525b915050919050565b6000606a60008473ffffffffffffffffffffffffffffffffffffffff1673ffffffffffffffffffffffffffffffffffffffff16815260200190815260200160002060008373ffffffffffffffffffffffffffffffffffffffff1673ffffffffffffffffffffffffffffffffffffffff16815260200190815260200160002060009054906101000a900460ff16905092915050565b610f50611596565b600073ffffffffffffffffffffffffffffffffffffffff168173ffffffffffffffffffffffffffffffffffffffff1603610fbf576040517f08c379a0000000000000000000000000000000000000000000000000000000008152600401610fb690612dff565b60405180910390fd5b610fc8816116b4565b50565b60007f01ffc9a7000000000000000000000000000000000000000000000000000000007bffffffffffffffffffffffffffffffffffffffffffffffffffffffff1916827bffffffffffffffffffffffffffffffffffffffffffffffffffffffff1916149050919050565b61103e81611af2565b61107d576040517f08c379a000000000000000000000000000000000000000000000000000000000815260040161107490612c0f565b60405180910390fd5b50565b600061108a611b33565b905090565b816069600083815260200190815260200160002060006101000a81548173ffffffffffffffffffffffffffffffffffffffff021916908373ffffffffffffffffffffffffffffffffffffffff160217905550808273ffffffffffffffffffffffffffffffffffffffff1661110283610a4c565b73ffffffffffffffffffffffffffffffffffffffff167f8c5be1e5ebec7d5bd14f71427d1e84f3dd0314c0f7b2291e5b200ac8c7c3b92560405160405180910390a45050565b6000808273ffffffffffffffffffffffffffffffffffffffff163b119050919050565b600060019054906101000a900460ff166111ba576040517f08c379a00000000000000000000000000000000000000000000000000000000081526004016111b190612e91565b60405180910390fd5b6111c48282611b6a565b5050565b8060fb60006101000a81548173ffffffffffffffffffffffffffffffffffffffff021916908373ffffffffffffffffffffffffffffffffffffffff16021790555050565b60008061121883610a4c565b90508073ffffffffffffffffffffffffffffffffffffffff168473ffffffffffffffffffffffffffffffffffffffff16148061125a57506112598185610eb4565b5b8061129857508373ffffffffffffffffffffffffffffffffffffffff166112808461060a565b73ffffffffffffffffffffffffffffffffffffffff16145b91505092915050565b8273ffffffffffffffffffffffffffffffffffffffff166112c182610a4c565b73ffffffffffffffffffffffffffffffffffffffff1614611317576040517f08c379a000000000000000000000000000000000000000000000000000000000815260040161130e90612f23565b60405180910390fd5b600073ffffffffffffffffffffffffffffffffffffffff168273ffffffffffffffffffffffffffffffffffffffff1603611386576040517f08c379a000000000000000000000000000000000000000000000000000000000815260040161137d90612fb5565b60405180910390fd5b611391838383611bdd565b8273ffffffffffffffffffffffffffffffffffffffff166113b182610a4c565b73ffffffffffffffffffffffffffffffffffffffff1614611407576040517f08c379a00000000000000000000000000000000000000000000000000000000081526004016113fe90612f23565b60405180910390fd5b6069600082815260200190815260200160002060006101000a81549073ffffffffffffffffffffffffffffffffffffffff02191690556001606860008573ffffffffffffffffffffffffffffffffffffffff1673ffffffffffffffffffffffffffffffffffffffff168152602001908152602001600020600082825403925050819055506001606860008473ffffffffffffffffffffffffffffffffffffffff1673ffffffffffffffffffffffffffffffffffffffff16815260200190815260200160002060008282540192505081905550816067600083815260200190815260200160002060006101000a81548173ffffffffffffffffffffffffffffffffffffffff021916908373ffffffffffffffffffffffffffffffffffffffff160217905550808273ffffffffffffffffffffffffffffffffffffffff168473ffffffffffffffffffffffffffffffffffffffff167fddf252ad1be2c89b69c2b068fc378daa952ba7f163c4a11628f55a4df523b3ef60405160405180910390a4611591838383611be2565b505050565b61159e611080565b73ffffffffffffffffffffffffffffffffffffffff166115bc610c42565b73ffffffffffffffffffffffffffffffffffffffff1614611612576040517f08c379a000000000000000000000000000000000000000000000000000000000815260040161160990613021565b60405180910390fd5b565b61161c611be7565b6000609760006101000a81548160ff0219169083151502179055507f5db9ee0a495bf2e6ff9c91a7834c1ba4fdd244a5e8aa4e537bd38aeae4b073aa611660611080565b60405161166d91906123ed565b60405180910390a1565b60006067600083815260200190815260200160002060009054906101000a900473ffffffffffffffffffffffffffffffffffffffff169050919050565b600060c960009054906101000a900473ffffffffffffffffffffffffffffffffffffffff1690508160c960006101000a81548173ffffffffffffffffffffffffffffffffffffffff021916908373ffffffffffffffffffffffffffffffffffffffff1602179055508173ffffffffffffffffffffffffffffffffffffffff168173ffffffffffffffffffffffffffffffffffffffff167f8be0079c531659141344cd1fd0a4f28419497f9722a3daafe3b4186f6b6457e060405160405180910390a35050565b611782611c30565b6001609760006101000a81548160ff0219169083151502179055507f62e78cea01bee320cd4e420270b5ea74000d11b0c9f74754ebdbfc544b05a2586117c6611080565b6040516117d391906123ed565b60405180910390a1565b600081600001549050919050565b6001816000016000828254019250508190555050565b61181b828260405180602001604052806000815250611c7a565b5050565b8173ffffffffffffffffffffffffffffffffffffffff168373ffffffffffffffffffffffffffffffffffffffff160361188d576040517f08c379a00000000000000000000000000000000000000000000000000000000081526004016118849061308d565b60405180910390fd5b80606a60008573ffffffffffffffffffffffffffffffffffffffff1673ffffffffffffffffffffffffffffffffffffffff16815260200190815260200160002060008473ffffffffffffffffffffffffffffffffffffffff1673ffffffffffffffffffffffffffffffffffffffff16815260200190815260200160002060006101000a81548160ff0219169083151502179055508173ffffffffffffffffffffffffffffffffffffffff168373ffffffffffffffffffffffffffffffffffffffff167f17307eab39ab6107e8899845ad3d59bd9653f200f220920489ca2b5937696c318360405161197e919061227c565b60405180910390a3505050565b6119968484846112a1565b6119a284848484611cd5565b6119e1576040517f08c379a00000000000000000000000000000000000000000000000000000000081526004016119d89061311f565b60405180910390fd5b50505050565b60606040518060400160405280601d81526020017f68747470733a2f2f636c7562686f7573652e636f6d2f74657374696e67000000815250905090565b606060006001611a3384611e5c565b01905060008167ffffffffffffffff811115611a5257611a5161247e565b5b6040519080825280601f01601f191660200182016040528015611a845781602001600182028036833780820191505090505b509050600082602001820190505b600115611ae7578080600190039150507f3031323334353637383961626364656600000000000000000000000000000000600a86061a8153600a8581611adb57611ada61313f565b5b04945060008503611a92575b819350505050919050565b60008073ffffffffffffffffffffffffffffffffffffffff16611b1483611677565b73ffffffffffffffffffffffffffffffffffffffff1614159050919050565b60006014600036905010158015611b4f5750611b4e336109db565b5b15611b6357601436033560601c9050611b67565b3390505b90565b600060019054906101000a900460ff16611bb9576040517f08c379a0000000000000000000000000000000000000000000000000000000008152600401611bb090612e91565b60405180910390fd5b8160659081611bc89190613310565b508060669081611bd89190613310565b505050565b505050565b505050565b611bef610a35565b611c2e576040517f08c379a0000000000000000000000000000000000000000000000000000000008152600401611c259061342e565b60405180910390fd5b565b611c38610a35565b15611c78576040517f08c379a0000000000000000000000000000000000000000000000000000000008152600401611c6f9061349a565b60405180910390fd5b565b611c848383611faf565b611c916000848484611cd5565b611cd0576040517f08c379a0000000000000000000000000000000000000000000000000000000008152600401611cc79061311f565b60405180910390fd5b505050565b6000611cf68473ffffffffffffffffffffffffffffffffffffffff16611148565b15611e4f578373ffffffffffffffffffffffffffffffffffffffff1663150b7a02611d1f611080565b8786866040518563ffffffff1660e01b8152600401611d41949392919061350f565b6020604051808303816000875af1925050508015611d7d57506040513d601f19601f82011682018060405250810190611d7a9190613570565b60015b611dff573d8060008114611dad576040519150601f19603f3d011682016040523d82523d6000602084013e611db2565b606091505b506000815103611df7576040517f08c379a0000000000000000000000000000000000000000000000000000000008152600401611dee9061311f565b60405180910390fd5b805181602001fd5b63150b7a0260e01b7bffffffffffffffffffffffffffffffffffffffffffffffffffffffff1916817bffffffffffffffffffffffffffffffffffffffffffffffffffffffff191614915050611e54565b600190505b949350505050565b600080600090507a184f03e93ff9f4daa797ed6e38ed64bf6a1f0100000000000000008310611eba577a184f03e93ff9f4daa797ed6e38ed64bf6a1f0100000000000000008381611eb057611eaf61313f565b5b0492506040810190505b6d04ee2d6d415b85acef81000000008310611ef7576d04ee2d6d415b85acef81000000008381611eed57611eec61313f565b5b0492506020810190505b662386f26fc100008310611f2657662386f26fc100008381611f1c57611f1b61313f565b5b0492506010810190505b6305f5e1008310611f4f576305f5e1008381611f4557611f4461313f565b5b0492506008810190505b6127108310611f74576127108381611f6a57611f6961313f565b5b0492506004810190505b60648310611f975760648381611f8d57611f8c61313f565b5b0492506002810190505b600a8310611fa6576001810190505b80915050919050565b600073ffffffffffffffffffffffffffffffffffffffff168273ffffffffffffffffffffffffffffffffffffffff160361201e576040517f08c379a0000000000000000000000000000000000000000000000000000000008152600401612015906135e9565b60405180910390fd5b61202781611af2565b15612067576040517f08c379a000000000000000000000000000000000000000000000000000000000815260040161205e90613655565b60405180910390fd5b61207360008383611bdd565b61207c81611af2565b156120bc576040517f08c379a00000000000000000000000000000000000000000000000000000000081526004016120b390613655565b60405180910390fd5b6001606860008473ffffffffffffffffffffffffffffffffffffffff1673ffffffffffffffffffffffffffffffffffffffff16815260200190815260200160002060008282540192505081905550816067600083815260200190815260200160002060006101000a81548173ffffffffffffffffffffffffffffffffffffffff021916908373ffffffffffffffffffffffffffffffffffffffff160217905550808273ffffffffffffffffffffffffffffffffffffffff16600073ffffffffffffffffffffffffffffffffffffffff167fddf252ad1be2c89b69c2b068fc378daa952ba7f163c4a11628f55a4df523b3ef60405160405180910390a46121c460008383611be2565b5050565b6000604051905090565b600080fd5b600080fd5b60007fffffffff0000000000000000000000000000000000000000000000000000000082169050919050565b612211816121dc565b811461221c57600080fd5b50565b60008135905061222e81612208565b92915050565b60006020828403121561224a576122496121d2565b5b60006122588482850161221f565b91505092915050565b60008115159050919050565b61227681612261565b82525050565b6000602082019050612291600083018461226d565b92915050565b600081519050919050565b600082825260208201905092915050565b60005b838110156122d15780820151818401526020810190506122b6565b60008484015250505050565b6000601f19601f8301169050919050565b60006122f982612297565b61230381856122a2565b93506123138185602086016122b3565b61231c816122dd565b840191505092915050565b6000602082019050818103600083015261234181846122ee565b905092915050565b6000819050919050565b61235c81612349565b811461236757600080fd5b50565b60008135905061237981612353565b92915050565b600060208284031215612395576123946121d2565b5b60006123a38482850161236a565b91505092915050565b600073ffffffffffffffffffffffffffffffffffffffff82169050919050565b60006123d7826123ac565b9050919050565b6123e7816123cc565b82525050565b600060208201905061240260008301846123de565b92915050565b612411816123cc565b811461241c57600080fd5b50565b60008135905061242e81612408565b92915050565b6000806040838503121561244b5761244a6121d2565b5b60006124598582860161241f565b925050602061246a8582860161236a565b9150509250929050565b600080fd5b600080fd5b7f4e487b7100000000000000000000000000000000000000000000000000000000600052604160045260246000fd5b6124b6826122dd565b810181811067ffffffffffffffff821117156124d5576124d461247e565b5b80604052505050565b60006124e86121c8565b90506124f482826124ad565b919050565b600067ffffffffffffffff8211156125145761251361247e565b5b61251d826122dd565b9050602081019050919050565b82818337600083830152505050565b600061254c612547846124f9565b6124de565b90508281526020810184848401111561256857612567612479565b5b61257384828561252a565b509392505050565b600082601f8301126125905761258f612474565b5b81356125a0848260208601612539565b91505092915050565b6000806000606084860312156125c2576125c16121d2565b5b600084013567ffffffffffffffff8111156125e0576125df6121d7565b5b6125ec8682870161257b565b935050602084013567ffffffffffffffff81111561260d5761260c6121d7565b5b6126198682870161257b565b925050604061262a8682870161241f565b9150509250925092565b60008060006060848603121561264d5761264c6121d2565b5b600061265b8682870161241f565b935050602061266c8682870161241f565b925050604061267d8682870161236a565b9150509250925092565b60006020828403121561269d5761269c6121d2565b5b60006126ab8482850161241f565b91505092915050565b6126bd81612349565b82525050565b60006020820190506126d860008301846126b4565b92915050565b6126e781612261565b81146126f257600080fd5b50565b600081359050612704816126de565b92915050565b60008060408385031215612721576127206121d2565b5b600061272f8582860161241f565b9250506020612740858286016126f5565b9150509250929050565b600067ffffffffffffffff8211156127655761276461247e565b5b61276e826122dd565b9050602081019050919050565b600061278e6127898461274a565b6124de565b9050828152602081018484840111156127aa576127a9612479565b5b6127b584828561252a565b509392505050565b600082601f8301126127d2576127d1612474565b5b81356127e284826020860161277b565b91505092915050565b60008060008060808587031215612805576128046121d2565b5b60006128138782880161241f565b94505060206128248782880161241f565b93505060406128358782880161236a565b925050606085013567ffffffffffffffff811115612856576128556121d7565b5b612862878288016127bd565b91505092959194509250565b60008060408385031215612885576128846121d2565b5b60006128938582860161241f565b92505060206128a48582860161241f565b9150509250929050565b7f4e487b7100000000000000000000000000000000000000000000000000000000600052602260045260246000fd5b600060028204905060018216806128f557607f821691505b602082108103612908576129076128ae565b5b50919050565b7f4552433732313a20617070726f76616c20746f2063757272656e74206f776e6560008201527f7200000000000000000000000000000000000000000000000000000000000000602082015250565b600061296a6021836122a2565b91506129758261290e565b604082019050919050565b600060208201905081810360008301526129998161295d565b9050919050565b7f4552433732313a20617070726f76652063616c6c6572206973206e6f7420746f60008201527f6b656e206f776e6572206f7220617070726f76656420666f7220616c6c000000602082015250565b60006129fc603d836122a2565b9150612a07826129a0565b604082019050919050565b60006020820190508181036000830152612a2b816129ef565b9050919050565b7f496e697469616c697a61626c653a20636f6e747261637420697320616c72656160008201527f647920696e697469616c697a6564000000000000000000000000000000000000602082015250565b6000612a8e602e836122a2565b9150612a9982612a32565b604082019050919050565b60006020820190508181036000830152612abd81612a81565b9050919050565b6000819050919050565b600060ff82169050919050565b6000819050919050565b6000612b00612afb612af684612ac4565b612adb565b612ace565b9050919050565b612b1081612ae5565b82525050565b6000602082019050612b2b6000830184612b07565b92915050565b7f4552433732313a2063616c6c6572206973206e6f7420746f6b656e206f776e6560008201527f72206f7220617070726f76656400000000000000000000000000000000000000602082015250565b6000612b8d602d836122a2565b9150612b9882612b31565b604082019050919050565b60006020820190508181036000830152612bbc81612b80565b9050919050565b7f4552433732313a20696e76616c696420746f6b656e2049440000000000000000600082015250565b6000612bf96018836122a2565b9150612c0482612bc3565b602082019050919050565b60006020820190508181036000830152612c2881612bec565b9050919050565b7f4552433732313a2061646472657373207a65726f206973206e6f74206120766160008201527f6c6964206f776e65720000000000000000000000000000000000000000000000602082015250565b6000612c8b6029836122a2565b9150612c9682612c2f565b604082019050919050565b60006020820190508181036000830152612cba81612c7e565b9050919050565b7f62616c616e63654f6628746f29203e2030000000000000000000000000000000600082015250565b6000612cf76011836122a2565b9150612d0282612cc1565b602082019050919050565b60006020820190508181036000830152612d2681612cea565b9050919050565b600081905092915050565b6000612d4382612297565b612d4d8185612d2d565b9350612d5d8185602086016122b3565b80840191505092915050565b6000612d758285612d38565b9150612d818284612d38565b91508190509392505050565b7f4f776e61626c653a206e6577206f776e657220697320746865207a65726f206160008201527f6464726573730000000000000000000000000000000000000000000000000000602082015250565b6000612de96026836122a2565b9150612df482612d8d565b604082019050919050565b60006020820190508181036000830152612e1881612ddc565b9050919050565b7f496e697469616c697a61626c653a20636f6e7472616374206973206e6f74206960008201527f6e697469616c697a696e67000000000000000000000000000000000000000000602082015250565b6000612e7b602b836122a2565b9150612e8682612e1f565b604082019050919050565b60006020820190508181036000830152612eaa81612e6e565b9050919050565b7f4552433732313a207472616e736665722066726f6d20696e636f72726563742060008201527f6f776e6572000000000000000000000000000000000000000000000000000000602082015250565b6000612f0d6025836122a2565b9150612f1882612eb1565b604082019050919050565b60006020820190508181036000830152612f3c81612f00565b9050919050565b7f4552433732313a207472616e7366657220746f20746865207a65726f2061646460008201527f7265737300000000000000000000000000000000000000000000000000000000602082015250565b6000612f9f6024836122a2565b9150612faa82612f43565b604082019050919050565b60006020820190508181036000830152612fce81612f92565b9050919050565b7f4f776e61626c653a2063616c6c6572206973206e6f7420746865206f776e6572600082015250565b600061300b6020836122a2565b915061301682612fd5565b602082019050919050565b6000602082019050818103600083015261303a81612ffe565b9050919050565b7f4552433732313a20617070726f766520746f2063616c6c657200000000000000600082015250565b60006130776019836122a2565b915061308282613041565b602082019050919050565b600060208201905081810360008301526130a68161306a565b9050919050565b7f4552433732313a207472616e7366657220746f206e6f6e20455243373231526560008201527f63656976657220696d706c656d656e7465720000000000000000000000000000602082015250565b60006131096032836122a2565b9150613114826130ad565b604082019050919050565b60006020820190508181036000830152613138816130fc565b9050919050565b7f4e487b7100000000000000000000000000000000000000000000000000000000600052601260045260246000fd5b60008190508160005260206000209050919050565b60006020601f8301049050919050565b600082821b905092915050565b6000600883026131d07fffffffffffffffffffffffffffffffffffffffffffffffffffffffffffffffff82613193565b6131da8683613193565b95508019841693508086168417925050509392505050565b600061320d61320861320384612349565b612adb565b612349565b9050919050565b6000819050919050565b613227836131f2565b61323b61323382613214565b8484546131a0565b825550505050565b600090565b613250613243565b61325b81848461321e565b505050565b5b8181101561327f57613274600082613248565b600181019050613261565b5050565b601f8211156132c4576132958161316e565b61329e84613183565b810160208510156132ad578190505b6132c16132b985613183565b830182613260565b50505b505050565b600082821c905092915050565b60006132e7600019846008026132c9565b1980831691505092915050565b600061330083836132d6565b9150826002028217905092915050565b61331982612297565b67ffffffffffffffff8111156133325761333161247e565b5b61333c82546128dd565b613347828285613283565b600060209050601f83116001811461337a5760008415613368578287015190505b61337285826132f4565b8655506133da565b601f1984166133888661316e565b60005b828110156133b05784890151825560018201915060208501945060208101905061338b565b868310156133cd57848901516133c9601f8916826132d6565b8355505b6001600288020188555050505b505050505050565b7f5061757361626c653a206e6f7420706175736564000000000000000000000000600082015250565b60006134186014836122a2565b9150613423826133e2565b602082019050919050565b600060208201905081810360008301526134478161340b565b9050919050565b7f5061757361626c653a2070617573656400000000000000000000000000000000600082015250565b60006134846010836122a2565b915061348f8261344e565b602082019050919050565b600060208201905081810360008301526134b381613477565b9050919050565b600081519050919050565b600082825260208201905092915050565b60006134e1826134ba565b6134eb81856134c5565b93506134fb8185602086016122b3565b613504816122dd565b840191505092915050565b600060808201905061352460008301876123de565b61353160208301866123de565b61353e60408301856126b4565b818103606083015261355081846134d6565b905095945050505050565b60008151905061356a81612208565b92915050565b600060208284031215613586576135856121d2565b5b60006135948482850161355b565b91505092915050565b7f4552433732313a206d696e7420746f20746865207a65726f2061646472657373600082015250565b60006135d36020836122a2565b91506135de8261359d565b602082019050919050565b60006020820190508181036000830152613602816135c6565b9050919050565b7f4552433732313a20746f6b656e20616c7265616479206d696e74656400000000600082015250565b600061363f601c836122a2565b915061364a82613609565b602082019050919050565b6000602082019050818103600083015261366e81613632565b905091905056fea26469706673582212204d33c755a9dfdb729928545fef294ce9c26aca0f717e27cc00f26a29fbe504ee64736f6c63430008110033",
  "devdoc": {
    "kind": "dev",
    "methods": {
      "approve(address,uint256)": {
        "details": "See {IERC721-approve}."
      },
      "balanceOf(address)": {
        "details": "See {IERC721-balanceOf}."
      },
      "getApproved(uint256)": {
        "details": "See {IERC721-getApproved}."
      },
      "isApprovedForAll(address,address)": {
        "details": "See {IERC721-isApprovedForAll}."
      },
      "name()": {
        "details": "See {IERC721Metadata-name}."
      },
      "owner()": {
        "details": "Returns the address of the current owner."
      },
      "ownerOf(uint256)": {
        "details": "See {IERC721-ownerOf}."
      },
      "paused()": {
        "details": "Returns true if the contract is paused, and false otherwise."
      },
      "renounceOwnership()": {
        "details": "Leaves the contract without owner. It will not be possible to call `onlyOwner` functions anymore. Can only be called by the current owner. NOTE: Renouncing ownership will leave the contract without an owner, thereby removing any functionality that is only available to the owner."
      },
      "safeTransferFrom(address,address,uint256)": {
        "details": "See {IERC721-safeTransferFrom}."
      },
      "safeTransferFrom(address,address,uint256,bytes)": {
        "details": "See {IERC721-safeTransferFrom}."
      },
      "setApprovalForAll(address,bool)": {
        "details": "See {IERC721-setApprovalForAll}."
      },
      "supportsInterface(bytes4)": {
        "details": "See {IERC165-supportsInterface}."
      },
      "symbol()": {
        "details": "See {IERC721Metadata-symbol}."
      },
      "tokenURI(uint256)": {
        "details": "See {IERC721Metadata-tokenURI}."
      },
      "transferFrom(address,address,uint256)": {
        "details": "See {IERC721-transferFrom}."
      },
      "transferOwnership(address)": {
        "details": "Transfers ownership of the contract to a new account (`newOwner`). Can only be called by the current owner."
      }
    },
    "version": 1
  },
  "userdoc": {
    "kind": "user",
    "methods": {
      "isTrustedForwarder(address)": {
        "notice": "return if the forwarder is trusted to forward relayed transactions to us. the forwarder is required to verify the sender's signature, and verify the call is not a replay."
      },
      "updateExpiryTimestamp(address,uint256)": {
        "notice": "Updates the expiry timestamp for a given address"
      }
    },
    "version": 1
  },
  "storageLayout": {
    "storage": [
      {
        "astId": 456,
        "contract": "contracts/MembershipERC721.sol:MembershipERC721",
        "label": "_initialized",
        "offset": 0,
        "slot": "0",
        "type": "t_uint8"
      },
      {
        "astId": 459,
        "contract": "contracts/MembershipERC721.sol:MembershipERC721",
        "label": "_initializing",
        "offset": 1,
        "slot": "0",
        "type": "t_bool"
      },
      {
        "astId": 2212,
        "contract": "contracts/MembershipERC721.sol:MembershipERC721",
        "label": "__gap",
        "offset": 0,
        "slot": "1",
        "type": "t_array(t_uint256)50_storage"
      },
      {
        "astId": 3016,
        "contract": "contracts/MembershipERC721.sol:MembershipERC721",
        "label": "__gap",
        "offset": 0,
        "slot": "51",
        "type": "t_array(t_uint256)50_storage"
      },
      {
        "astId": 774,
        "contract": "contracts/MembershipERC721.sol:MembershipERC721",
        "label": "_name",
        "offset": 0,
        "slot": "101",
        "type": "t_string_storage"
      },
      {
        "astId": 776,
        "contract": "contracts/MembershipERC721.sol:MembershipERC721",
        "label": "_symbol",
        "offset": 0,
        "slot": "102",
        "type": "t_string_storage"
      },
      {
        "astId": 780,
        "contract": "contracts/MembershipERC721.sol:MembershipERC721",
        "label": "_owners",
        "offset": 0,
        "slot": "103",
        "type": "t_mapping(t_uint256,t_address)"
      },
      {
        "astId": 784,
        "contract": "contracts/MembershipERC721.sol:MembershipERC721",
        "label": "_balances",
        "offset": 0,
        "slot": "104",
        "type": "t_mapping(t_address,t_uint256)"
      },
      {
        "astId": 788,
        "contract": "contracts/MembershipERC721.sol:MembershipERC721",
        "label": "_tokenApprovals",
        "offset": 0,
        "slot": "105",
        "type": "t_mapping(t_uint256,t_address)"
      },
      {
        "astId": 794,
        "contract": "contracts/MembershipERC721.sol:MembershipERC721",
        "label": "_operatorApprovals",
        "offset": 0,
        "slot": "106",
        "type": "t_mapping(t_address,t_mapping(t_address,t_bool))"
      },
      {
        "astId": 1725,
        "contract": "contracts/MembershipERC721.sol:MembershipERC721",
        "label": "__gap",
        "offset": 0,
        "slot": "107",
        "type": "t_array(t_uint256)44_storage"
      },
      {
        "astId": 639,
        "contract": "contracts/MembershipERC721.sol:MembershipERC721",
        "label": "_paused",
        "offset": 0,
        "slot": "151",
        "type": "t_bool"
      },
      {
        "astId": 744,
        "contract": "contracts/MembershipERC721.sol:MembershipERC721",
        "label": "__gap",
        "offset": 0,
        "slot": "152",
        "type": "t_array(t_uint256)49_storage"
      },
      {
        "astId": 140,
        "contract": "contracts/MembershipERC721.sol:MembershipERC721",
        "label": "_owner",
        "offset": 0,
        "slot": "201",
        "type": "t_address"
      },
      {
        "astId": 260,
        "contract": "contracts/MembershipERC721.sol:MembershipERC721",
        "label": "__gap",
        "offset": 0,
        "slot": "202",
        "type": "t_array(t_uint256)49_storage"
      },
      {
        "astId": 7,
        "contract": "contracts/MembershipERC721.sol:MembershipERC721",
        "label": "_trustedForwarder",
        "offset": 0,
        "slot": "251",
        "type": "t_address"
      },
      {
        "astId": 5710,
        "contract": "contracts/MembershipERC721.sol:MembershipERC721",
        "label": "_tokenIdCounter",
        "offset": 0,
        "slot": "252",
        "type": "t_struct(Counter)2219_storage"
      },
      {
        "astId": 5714,
        "contract": "contracts/MembershipERC721.sol:MembershipERC721",
        "label": "versionRecipient",
        "offset": 0,
        "slot": "253",
        "type": "t_string_storage"
      },
      {
        "astId": 5718,
        "contract": "contracts/MembershipERC721.sol:MembershipERC721",
        "label": "_tokenIdExpiryTimestamps",
        "offset": 0,
        "slot": "254",
        "type": "t_mapping(t_uint256,t_uint256)"
      },
      {
        "astId": 5722,
        "contract": "contracts/MembershipERC721.sol:MembershipERC721",
        "label": "_ownerTokenIds",
        "offset": 0,
        "slot": "255",
        "type": "t_mapping(t_address,t_uint256)"
      }
    ],
    "types": {
      "t_address": {
        "encoding": "inplace",
        "label": "address",
        "numberOfBytes": "20"
      },
      "t_array(t_uint256)44_storage": {
        "base": "t_uint256",
        "encoding": "inplace",
        "label": "uint256[44]",
        "numberOfBytes": "1408"
      },
      "t_array(t_uint256)49_storage": {
        "base": "t_uint256",
        "encoding": "inplace",
        "label": "uint256[49]",
        "numberOfBytes": "1568"
      },
      "t_array(t_uint256)50_storage": {
        "base": "t_uint256",
        "encoding": "inplace",
        "label": "uint256[50]",
        "numberOfBytes": "1600"
      },
      "t_bool": {
        "encoding": "inplace",
        "label": "bool",
        "numberOfBytes": "1"
      },
      "t_mapping(t_address,t_bool)": {
        "encoding": "mapping",
        "key": "t_address",
        "label": "mapping(address => bool)",
        "numberOfBytes": "32",
        "value": "t_bool"
      },
      "t_mapping(t_address,t_mapping(t_address,t_bool))": {
        "encoding": "mapping",
        "key": "t_address",
        "label": "mapping(address => mapping(address => bool))",
        "numberOfBytes": "32",
        "value": "t_mapping(t_address,t_bool)"
      },
      "t_mapping(t_address,t_uint256)": {
        "encoding": "mapping",
        "key": "t_address",
        "label": "mapping(address => uint256)",
        "numberOfBytes": "32",
        "value": "t_uint256"
      },
      "t_mapping(t_uint256,t_address)": {
        "encoding": "mapping",
        "key": "t_uint256",
        "label": "mapping(uint256 => address)",
        "numberOfBytes": "32",
        "value": "t_address"
      },
      "t_mapping(t_uint256,t_uint256)": {
        "encoding": "mapping",
        "key": "t_uint256",
        "label": "mapping(uint256 => uint256)",
        "numberOfBytes": "32",
        "value": "t_uint256"
      },
      "t_string_storage": {
        "encoding": "bytes",
        "label": "string",
        "numberOfBytes": "32"
      },
      "t_struct(Counter)2219_storage": {
        "encoding": "inplace",
        "label": "struct CountersUpgradeable.Counter",
        "members": [
          {
            "astId": 2218,
            "contract": "contracts/MembershipERC721.sol:MembershipERC721",
            "label": "_value",
            "offset": 0,
            "slot": "0",
            "type": "t_uint256"
          }
        ],
        "numberOfBytes": "32"
      },
      "t_uint256": {
        "encoding": "inplace",
        "label": "uint256",
        "numberOfBytes": "32"
      },
      "t_uint8": {
        "encoding": "inplace",
        "label": "uint8",
        "numberOfBytes": "1"
      }
    }
  }
}