{
  "address": "0x5FbDB2315678afecb367f032d93F642f64180aa3",
  "abi": [
    {
      "anonymous": false,
      "inputs": [
        {
          "indexed": false,
          "internalType": "uint8",
          "name": "version",
          "type": "uint8"
        }
      ],
      "name": "Initialized",
      "type": "event"
    },
    {
      "inputs": [
        {
          "components": [
            {
              "internalType": "address",
              "name": "from",
              "type": "address"
            },
            {
              "internalType": "address",
              "name": "to",
              "type": "address"
            },
            {
              "internalType": "uint256",
              "name": "value",
              "type": "uint256"
            },
            {
              "internalType": "uint256",
              "name": "gas",
              "type": "uint256"
            },
            {
              "internalType": "uint256",
              "name": "nonce",
              "type": "uint256"
            },
            {
              "internalType": "bytes",
              "name": "data",
              "type": "bytes"
            }
          ],
          "internalType": "struct SingleRelayForwarder.ForwardRequest",
          "name": "req",
          "type": "tuple"
        },
        {
          "internalType": "bytes",
          "name": "signature",
          "type": "bytes"
        }
      ],
      "name": "execute",
      "outputs": [
        {
          "internalType": "bool",
          "name": "",
          "type": "bool"
        },
        {
          "internalType": "bytes",
          "name": "",
          "type": "bytes"
        }
      ],
      "stateMutability": "payable",
      "type": "function"
    },
    {
      "inputs": [
        {
          "internalType": "address",
          "name": "from",
          "type": "address"
        }
      ],
      "name": "getNonce",
      "outputs": [
        {
          "internalType": "uint256",
          "name": "",
          "type": "uint256"
        }
      ],
      "stateMutability": "view",
      "type": "function"
    },
    {
      "inputs": [
        {
          "internalType": "address",
          "name": "relayer",
          "type": "address"
        }
      ],
      "name": "setUp",
      "outputs": [],
      "stateMutability": "nonpayable",
      "type": "function"
    },
    {
      "inputs": [
        {
          "internalType": "address",
          "name": "newRelayer",
          "type": "address"
        }
      ],
      "name": "updateRelayer",
      "outputs": [],
      "stateMutability": "nonpayable",
      "type": "function"
    },
    {
      "inputs": [
        {
          "components": [
            {
              "internalType": "address",
              "name": "from",
              "type": "address"
            },
            {
              "internalType": "address",
              "name": "to",
              "type": "address"
            },
            {
              "internalType": "uint256",
              "name": "value",
              "type": "uint256"
            },
            {
              "internalType": "uint256",
              "name": "gas",
              "type": "uint256"
            },
            {
              "internalType": "uint256",
              "name": "nonce",
              "type": "uint256"
            },
            {
              "internalType": "bytes",
              "name": "data",
              "type": "bytes"
            }
          ],
          "internalType": "struct SingleRelayForwarder.ForwardRequest",
          "name": "req",
          "type": "tuple"
        },
        {
          "internalType": "bytes",
          "name": "signature",
          "type": "bytes"
        }
      ],
      "name": "verify",
      "outputs": [
        {
          "internalType": "bool",
          "name": "",
          "type": "bool"
        }
      ],
      "stateMutability": "view",
      "type": "function"
    }
  ],
  "numDeployments": 13,
  "solcInputHash": "8ad14d4e7974ab00aeb608e472fc7359",
  "bytecode": "0x608060405234801561001057600080fd5b50611914806100206000396000f3fe60806040526004361061004a5760003560e01c80632d0335ab1461004f5780633f2601ef1461008c57806347153f82146100b55780638f83ab13146100e6578063bf5d3bdb1461010f575b600080fd5b34801561005b57600080fd5b5061007660048036038101906100719190610e15565b61014c565b6040516100839190610e5b565b60405180910390f35b34801561009857600080fd5b506100b360048036038101906100ae9190610e15565b610195565b005b6100cf60048036038101906100ca9190610eff565b610316565b6040516100dd929190611026565b60405180910390f35b3480156100f257600080fd5b5061010d60048036038101906101089190610e15565b610552565b005b34801561011b57600080fd5b5061013660048036038101906101319190610eff565b610626565b6040516101439190611056565b60405180910390f35b6000603660008373ffffffffffffffffffffffffffffffffffffffff1673ffffffffffffffffffffffffffffffffffffffff168152602001908152602001600020549050919050565b60008060019054906101000a900460ff161590508080156101c65750600160008054906101000a900460ff1660ff16105b806101f357506101d53061086d565b1580156101f25750600160008054906101000a900460ff1660ff16145b5b610232576040517f08c379a0000000000000000000000000000000000000000000000000000000008152600401610229906110f4565b60405180910390fd5b60016000806101000a81548160ff021916908360ff160217905550801561026f576001600060016101000a81548160ff0219169083151502179055505b61027882610890565b81603560006101000a81548173ffffffffffffffffffffffffffffffffffffffff021916908373ffffffffffffffffffffffffffffffffffffffff16021790555080156103125760008060016101000a81548160ff0219169083151502179055507f7f26b83ff96e1f2b6a682f133852f6798a09c465da95921460cefb384740249860016040516103099190611166565b60405180910390a15b5050565b60006060603560009054906101000a900473ffffffffffffffffffffffffffffffffffffffff1673ffffffffffffffffffffffffffffffffffffffff163373ffffffffffffffffffffffffffffffffffffffff16146103aa576040517f08c379a00000000000000000000000000000000000000000000000000000000081526004016103a1906111cd565b60405180910390fd5b6103b5858585610626565b6103f4576040517f08c379a00000000000000000000000000000000000000000000000000000000081526004016103eb9061125f565b60405180910390fd5b6001856080013561040591906112ae565b6036600087600001602081019061041c9190610e15565b73ffffffffffffffffffffffffffffffffffffffff1673ffffffffffffffffffffffffffffffffffffffff168152602001908152602001600020819055506000808660200160208101906104709190610e15565b73ffffffffffffffffffffffffffffffffffffffff1687606001358860400135898060a001906104a091906112f1565b8b60000160208101906104b39190610e15565b6040516020016104c5939291906113db565b6040516020818303038152906040526040516104e19190611436565b600060405180830381858888f193505050503d806000811461051f576040519150601f19603f3d011682016040523d82523d6000602084013e610524565b606091505b5091509150603f876060013561053a919061147c565b5a1161054257fe5b8181935093505050935093915050565b603560009054906101000a900473ffffffffffffffffffffffffffffffffffffffff1673ffffffffffffffffffffffffffffffffffffffff163373ffffffffffffffffffffffffffffffffffffffff16146105e2576040517f08c379a00000000000000000000000000000000000000000000000000000000081526004016105d9906111cd565b60405180910390fd5b80603560006101000a81548173ffffffffffffffffffffffffffffffffffffffff021916908373ffffffffffffffffffffffffffffffffffffffff16021790555050565b6000603560009054906101000a900473ffffffffffffffffffffffffffffffffffffffff1673ffffffffffffffffffffffffffffffffffffffff163373ffffffffffffffffffffffffffffffffffffffff16146106b8576040517f08c379a00000000000000000000000000000000000000000000000000000000081526004016106af906111cd565b60405180910390fd5b60006107c084848080601f016020809104026020016040519081016040528093929190818152602001838380828437600081840152601f19601f820116905080830192505050505050506107b27fdd8f4b70b0f4393e889bd39128a30628a78b61816a9eb8199759e7a349657e488860000160208101906107399190610e15565b89602001602081019061074c9190610e15565b8a604001358b606001358c608001358d8060a0019061076b91906112f1565b6040516107799291906114ad565b604051809103902060405160200161079797969594939291906114ee565b60405160208183030381529060405280519060200120610997565b6109b190919063ffffffff16565b90508460800135603660008760000160208101906107de9190610e15565b73ffffffffffffffffffffffffffffffffffffffff1673ffffffffffffffffffffffffffffffffffffffff1681526020019081526020016000205414801561086357508460000160208101906108349190610e15565b73ffffffffffffffffffffffffffffffffffffffff168173ffffffffffffffffffffffffffffffffffffffff16145b9150509392505050565b6000808273ffffffffffffffffffffffffffffffffffffffff163b119050919050565b600060019054906101000a900460ff166108df576040517f08c379a00000000000000000000000000000000000000000000000000000000081526004016108d6906115cf565b60405180910390fd5b6109536040518060400160405280601081526020017f4d696e696d616c466f72776172646572000000000000000000000000000000008152506040518060400160405280600581526020017f302e302e310000000000000000000000000000000000000000000000000000008152506109d8565b80603560006101000a81548173ffffffffffffffffffffffffffffffffffffffff021916908373ffffffffffffffffffffffffffffffffffffffff16021790555050565b60006109aa6109a4610a53565b83610a93565b9050919050565b60008060006109c08585610ac6565b915091506109cd81610b17565b819250505092915050565b600060019054906101000a900460ff16610a27576040517f08c379a0000000000000000000000000000000000000000000000000000000008152600401610a1e906115cf565b60405180910390fd5b600082805190602001209050600082805190602001209050816001819055508060028190555050505050565b6000610a8e7f8b73c3c69bb8fe3d512ecc4cf759cc79239f7b179b0ffacaa9a75d522b39400f610a81610c7d565b610a89610c87565b610c91565b905090565b60008282604051602001610aa8929190611667565b60405160208183030381529060405280519060200120905092915050565b6000806041835103610b075760008060006020860151925060408601519150606086015160001a9050610afb87828585610ccb565b94509450505050610b10565b60006002915091505b9250929050565b60006004811115610b2b57610b2a61169e565b5b816004811115610b3e57610b3d61169e565b5b0315610c7a5760016004811115610b5857610b5761169e565b5b816004811115610b6b57610b6a61169e565b5b03610bab576040517f08c379a0000000000000000000000000000000000000000000000000000000008152600401610ba290611719565b60405180910390fd5b60026004811115610bbf57610bbe61169e565b5b816004811115610bd257610bd161169e565b5b03610c12576040517f08c379a0000000000000000000000000000000000000000000000000000000008152600401610c0990611785565b60405180910390fd5b60036004811115610c2657610c2561169e565b5b816004811115610c3957610c3861169e565b5b03610c79576040517f08c379a0000000000000000000000000000000000000000000000000000000008152600401610c7090611817565b60405180910390fd5b5b50565b6000600154905090565b6000600254905090565b60008383834630604051602001610cac959493929190611837565b6040516020818303038152906040528051906020012090509392505050565b6000807f7fffffffffffffffffffffffffffffff5d576e7357a4501ddfe92f46681b20a08360001c1115610d06576000600391509150610da4565b600060018787878760405160008152602001604052604051610d2b9493929190611899565b6020604051602081039080840390855afa158015610d4d573d6000803e3d6000fd5b505050602060405103519050600073ffffffffffffffffffffffffffffffffffffffff168173ffffffffffffffffffffffffffffffffffffffff1603610d9b57600060019250925050610da4565b80600092509250505b94509492505050565b600080fd5b600080fd5b600073ffffffffffffffffffffffffffffffffffffffff82169050919050565b6000610de282610db7565b9050919050565b610df281610dd7565b8114610dfd57600080fd5b50565b600081359050610e0f81610de9565b92915050565b600060208284031215610e2b57610e2a610dad565b5b6000610e3984828501610e00565b91505092915050565b6000819050919050565b610e5581610e42565b82525050565b6000602082019050610e706000830184610e4c565b92915050565b600080fd5b600060c08284031215610e9157610e90610e76565b5b81905092915050565b600080fd5b600080fd5b600080fd5b60008083601f840112610ebf57610ebe610e9a565b5b8235905067ffffffffffffffff811115610edc57610edb610e9f565b5b602083019150836001820283011115610ef857610ef7610ea4565b5b9250929050565b600080600060408486031215610f1857610f17610dad565b5b600084013567ffffffffffffffff811115610f3657610f35610db2565b5b610f4286828701610e7b565b935050602084013567ffffffffffffffff811115610f6357610f62610db2565b5b610f6f86828701610ea9565b92509250509250925092565b60008115159050919050565b610f9081610f7b565b82525050565b600081519050919050565b600082825260208201905092915050565b60005b83811015610fd0578082015181840152602081019050610fb5565b60008484015250505050565b6000601f19601f8301169050919050565b6000610ff882610f96565b6110028185610fa1565b9350611012818560208601610fb2565b61101b81610fdc565b840191505092915050565b600060408201905061103b6000830185610f87565b818103602083015261104d8184610fed565b90509392505050565b600060208201905061106b6000830184610f87565b92915050565b600082825260208201905092915050565b7f496e697469616c697a61626c653a20636f6e747261637420697320616c72656160008201527f647920696e697469616c697a6564000000000000000000000000000000000000602082015250565b60006110de602e83611071565b91506110e982611082565b604082019050919050565b6000602082019050818103600083015261110d816110d1565b9050919050565b6000819050919050565b600060ff82169050919050565b6000819050919050565b600061115061114b61114684611114565b61112b565b61111e565b9050919050565b61116081611135565b82525050565b600060208201905061117b6000830184611157565b92915050565b7f6d73672e73656e64657220213d205f72656c6179657200000000000000000000600082015250565b60006111b7601683611071565b91506111c282611181565b602082019050919050565b600060208201905081810360008301526111e6816111aa565b9050919050565b7f4d696e696d616c466f727761726465723a207369676e617475726520646f657360008201527f206e6f74206d6174636820726571756573740000000000000000000000000000602082015250565b6000611249603283611071565b9150611254826111ed565b604082019050919050565b600060208201905081810360008301526112788161123c565b9050919050565b7f4e487b7100000000000000000000000000000000000000000000000000000000600052601160045260246000fd5b60006112b982610e42565b91506112c483610e42565b92508282019050808211156112dc576112db61127f565b5b92915050565b600080fd5b600080fd5b600080fd5b6000808335600160200384360303811261130e5761130d6112e2565b5b80840192508235915067ffffffffffffffff8211156113305761132f6112e7565b5b60208301925060018202360383131561134c5761134b6112ec565b5b509250929050565b600081905092915050565b82818337600083830152505050565b600061137a8385611354565b935061138783858461135f565b82840190509392505050565b60008160601b9050919050565b60006113ab82611393565b9050919050565b60006113bd826113a0565b9050919050565b6113d56113d082610dd7565b6113b2565b82525050565b60006113e882858761136e565b91506113f482846113c4565b601482019150819050949350505050565b600061141082610f96565b61141a8185611354565b935061142a818560208601610fb2565b80840191505092915050565b60006114428284611405565b915081905092915050565b7f4e487b7100000000000000000000000000000000000000000000000000000000600052601260045260246000fd5b600061148782610e42565b915061149283610e42565b9250826114a2576114a161144d565b5b828204905092915050565b60006114ba82848661136e565b91508190509392505050565b6000819050919050565b6114d9816114c6565b82525050565b6114e881610dd7565b82525050565b600060e082019050611503600083018a6114d0565b61151060208301896114df565b61151d60408301886114df565b61152a6060830187610e4c565b6115376080830186610e4c565b61154460a0830185610e4c565b61155160c08301846114d0565b98975050505050505050565b7f496e697469616c697a61626c653a20636f6e7472616374206973206e6f74206960008201527f6e697469616c697a696e67000000000000000000000000000000000000000000602082015250565b60006115b9602b83611071565b91506115c48261155d565b604082019050919050565b600060208201905081810360008301526115e8816115ac565b9050919050565b600081905092915050565b7f1901000000000000000000000000000000000000000000000000000000000000600082015250565b60006116306002836115ef565b915061163b826115fa565b600282019050919050565b6000819050919050565b61166161165c826114c6565b611646565b82525050565b600061167282611623565b915061167e8285611650565b60208201915061168e8284611650565b6020820191508190509392505050565b7f4e487b7100000000000000000000000000000000000000000000000000000000600052602160045260246000fd5b7f45434453413a20696e76616c6964207369676e61747572650000000000000000600082015250565b6000611703601883611071565b915061170e826116cd565b602082019050919050565b60006020820190508181036000830152611732816116f6565b9050919050565b7f45434453413a20696e76616c6964207369676e6174757265206c656e67746800600082015250565b600061176f601f83611071565b915061177a82611739565b602082019050919050565b6000602082019050818103600083015261179e81611762565b9050919050565b7f45434453413a20696e76616c6964207369676e6174757265202773272076616c60008201527f7565000000000000000000000000000000000000000000000000000000000000602082015250565b6000611801602283611071565b915061180c826117a5565b604082019050919050565b60006020820190508181036000830152611830816117f4565b9050919050565b600060a08201905061184c60008301886114d0565b61185960208301876114d0565b61186660408301866114d0565b6118736060830185610e4c565b61188060808301846114df565b9695505050505050565b6118938161111e565b82525050565b60006080820190506118ae60008301876114d0565b6118bb602083018661188a565b6118c860408301856114d0565b6118d560608301846114d0565b9594505050505056fea26469706673582212202fd2995d326123f765dd099ddb0b47f524a6c4ac70af4e97510e2caa5366354064736f6c63430008110033",
  "devdoc": {
    "kind": "dev",
    "methods": {},
    "stateVariables": {
      "__gap": {
        "details": "This empty reserved space is put in place to allow future versions to add new variables without shifting down storage in the inheritance chain. See https://docs.openzeppelin.com/contracts/4.x/upgradeable#storage_gaps"
      }
    },
    "version": 1
  },
  "userdoc": {
    "kind": "user",
    "methods": {},
    "notice": "An OpenGSN style Forwarder that forwards meta transactions (EIP-2771) from a single relayer address",
    "version": 1
  },
  "storageLayout": {
    "storage": [
      {
        "astId": 456,
        "contract": "contracts/SingleRelayForwarder.sol:SingleRelayForwarder",
        "label": "_initialized",
        "offset": 0,
        "slot": "0",
        "type": "t_uint8"
      },
      {
        "astId": 459,
        "contract": "contracts/SingleRelayForwarder.sol:SingleRelayForwarder",
        "label": "_initializing",
        "offset": 1,
        "slot": "0",
        "type": "t_bool"
      },
      {
        "astId": 2832,
        "contract": "contracts/SingleRelayForwarder.sol:SingleRelayForwarder",
        "label": "_HASHED_NAME",
        "offset": 0,
        "slot": "1",
        "type": "t_bytes32"
      },
      {
        "astId": 2834,
        "contract": "contracts/SingleRelayForwarder.sol:SingleRelayForwarder",
        "label": "_HASHED_VERSION",
        "offset": 0,
        "slot": "2",
        "type": "t_bytes32"
      },
      {
        "astId": 2972,
        "contract": "contracts/SingleRelayForwarder.sol:SingleRelayForwarder",
        "label": "__gap",
        "offset": 0,
        "slot": "3",
        "type": "t_array(t_uint256)50_storage"
      },
      {
        "astId": 5908,
        "contract": "contracts/SingleRelayForwarder.sol:SingleRelayForwarder",
        "label": "_relayer",
        "offset": 0,
        "slot": "53",
        "type": "t_address"
      },
      {
        "astId": 5912,
        "contract": "contracts/SingleRelayForwarder.sol:SingleRelayForwarder",
        "label": "_nonces",
        "offset": 0,
        "slot": "54",
        "type": "t_mapping(t_address,t_uint256)"
      },
      {
        "astId": 6114,
        "contract": "contracts/SingleRelayForwarder.sol:SingleRelayForwarder",
        "label": "__gap",
        "offset": 0,
        "slot": "55",
        "type": "t_array(t_uint256)49_storage"
      }
    ],
    "types": {
      "t_address": {
        "encoding": "inplace",
        "label": "address",
        "numberOfBytes": "20"
      },
      "t_array(t_uint256)49_storage": {
        "base": "t_uint256",
        "encoding": "inplace",
        "label": "uint256[49]",
        "numberOfBytes": "1568"
      },
      "t_array(t_uint256)50_storage": {
        "base": "t_uint256",
        "encoding": "inplace",
        "label": "uint256[50]",
        "numberOfBytes": "1600"
      },
      "t_bool": {
        "encoding": "inplace",
        "label": "bool",
        "numberOfBytes": "1"
      },
      "t_bytes32": {
        "encoding": "inplace",
        "label": "bytes32",
        "numberOfBytes": "32"
      },
      "t_mapping(t_address,t_uint256)": {
        "encoding": "mapping",
        "key": "t_address",
        "label": "mapping(address => uint256)",
        "numberOfBytes": "32",
        "value": "t_uint256"
      },
      "t_uint256": {
        "encoding": "inplace",
        "label": "uint256",
        "numberOfBytes": "32"
      },
      "t_uint8": {
        "encoding": "inplace",
        "label": "uint8",
        "numberOfBytes": "1"
      }
    }
  }
}